:10000000813131290800FF347E14803120007F08BF
:10001000F8000B1D82280130F4000030F50000309C
:10002000F6000030F70021004708F4074808F53DC6
:100030004908F63D4A08F73D7708CA007608C90026
:100040007508C8007408C7000130F4000030F500DE
:100050000030F6000030F7004308F4074408F53D8F
:100060004508F63D4608F73D7708C6007608C50006
:100070007508C4007408C3000130F4000030F500B6
:100080000030F6000030F7007908F4077A08F53DF3
:100090007B08F63D7C08F73D7708FC007608FB00FE
:1000A0007508FA007408F9000130F4000030F5001A
:1000B0000030F6000030F70022003808F407390855
:1000C000F53D3A08F63D3B08F73D7708BB0076085A
:1000D000BA007508B9007408B80021005403031D64
:1000E00081280130CB070030CC3D4C086802031D4D
:1000F0007B284B086702031881286808CC00670832
:10010000CB000B1121004A08803AF4005E08803AC7
:100110007402031D95285D084902031D95285C089B
:100120004802031D95285B084702031CA2282200F1
:100130000D1600302100CA000030C9000030C80090
:100140000030C700CA1BB3284A08031DB12849085C
:10015000031DB1284808031DB12814304702031CB1
:10016000B32822000D1221004608803AF4006208EC
:10017000803A7402031DC62861084502031DC62883
:1001800060084402031DC6285F084302031CDF28E1
:100190005A08031DD6286E08F1006D08F0000130E2
:1001A000F2000030F3008731B727803100302100A2
:1001B000C6000030C5000030C4000030C300C61BBC
:1001C000FB284608031DEE284508031DEE284408B9
:1001D000031DEE2814304302031CFB285A08031D9C
:1001E000FB286E08F1006D08F0000030F200F3000B
:1001F0008731B727803121005903031D252901309C
:10020000F4007408D80722005B08803A803C031D84
:100210000C295A0821005802031C2A2922008D1497
:100220005B08F5005A08F400F435F50D7508803ABE
:10023000F60080307602031D202921005808740240
:1002400003182C292100D8012C2921005808031952
:100250002C29D80122008D1078082000FF007E1084
:10026000090081313329F901FA01FB01FC01C33096
:100270008400003085001830FE000030FF00883117
:100280000220813120308400013085003A30FE00A8
:100290000030FF00883102208131A030840001301D
:1002A00085003430FE000030FF00883102208131AB
:1002B00020308400053085004030FE000030FF0013
:1002C000883102208131EC30840081308500783023
:1002D0008600233087000230FF0078309F313E27B0
:1002E00081318731FF278131FD0080310320813149
:1002F000EF00803084009F308500DB3086000030C6
:1003000087000030FF0015309F313E2781316B3070
:1003100084009F3085005A3086000130870000300D
:10032000FF0015309F313E2781311D30840092300F
:10033000850020308600023087000030FF003A3010
:100340009F313E278131E330840091308500A03019
:100350008600023087000030FF003A309F313E2790
:100360008131A9308400913085002030860003302F
:1003700087000030FF003A309F313E278131A8309E
:10038000840094308500A030860003308700003060
:10039000FF0050309F313E27813158308400943027
:1003A000850020308600043087000030FF00503088
:1003B0009F313E2781316F30840091308500A0301D
:1003C0008600043087000030FF003A309F313E271E
:1003D0007E1020008931262922340834FC34073469
:1003E000D8340734B53407349334073472340734BF
:1003F000523407343434073416340734F9340634AD
:10040000DD340634C2340634A83406348F3406345E
:10041000763406345E3406344734063430340634D9
:100420001A34063405340634F0340534DC3405342B
:10043000C8340534B5340534A33405349034053458
:100440007F3405346D3405345C3405344C34053464
:100450003C3405342C3405341D3405340E34053455
:10046000FF340434F1340434E2340434D534043435
:10047000C7340434BA340434AD340434A1340434FD
:1004800094340434883404347D34043471340434B2
:10049000663404345A340434503404344534043457
:1004A0003A34043430340434263404341C340434F0
:1004B0001234043409340434FF340334F63403347E
:1004C000ED340334E4340334DC340334D334033400
:1004D000CB340334C2340334BA340334B234033477
:1004E000AA340334A23403349B34033493340334E6
:1004F0008C340334853403347E340334773403344A
:100500007034033469340334623403345C340334A8
:10051000553403344F340334483403344234033401
:100520003C34033436340334303403342A34033453
:10053000243403341F3403341934033413340334A0
:100540000E3403340934033403340334FE340234E8
:10055000F9340234F4340234EF340234EA3402342D
:10056000E5340234E0340234DB340234D73402346C
:10057000D2340234CD340234C9340234C4340234A7
:10058000C0340234BC340234B7340234B3340234DD
:10059000AF340234AB340234A6340234A234023411
:1005A0009E3402349A340234973402349334023441
:1005B0008F3402348B34023487340234843402346E
:1005C000803402347C340234793402347534023499
:1005D000723402346E3402346B34023467340234C1
:1005E00064340234613402345E3402345A340234E6
:1005F0005734023454340234513402344E34023409
:100600004B34023448340234453402344234023428
:100610003F3402343C340234393402343634023448
:1006200033340234303402342E3402342B34023466
:100630002834023425340234233402342034023482
:100640001E3402341B34023418340234163402349B
:1006500013340234113402340E3402340C340234B4
:100660000A340234073402340534023402340234CA
:1006700000340234FE340134FB340134F9340134E3
:10068000F7340134F5340134F2340134F0340134F8
:10069000EE340134EC340134EA340134E83401340A
:1006A000E6340134E3340134E1340134DF3401341D
:1006B000DD340134DB340134D9340134D73401342E
:1006C000D5340134D3340134D2340134D03401343C
:1006D000CE340134CC340134CA340134C83401344A
:1006E000C6340134C4340134C3340134C134013458
:1006F000BF340134BD340134BC340134BA34013464
:10070000B8340134B6340134B5340134B33401346F
:10071000B1340134B0340134AE340134AC3401347A
:10072000AB340134A9340134A8340134A634013483
:10073000A4340134A3340134A1340134A03401348D
:100740009E3401349D3401349B3401349A34013495
:10075000983401349734013495340134943401349D
:100760009234013491340134903401348E340134A4
:100770008D3401348B3401348A34013489340134AA
:1007800087340134863401348534013483340134B0
:1007900082340134813401347F3401347E340134B5
:1007A0007D3401347B3401347A34013479340134BA
:1007B00078340134763401347534013474340134BE
:1007C0007334013471340134703401346F340134C2
:1007D0006E340134003400340A34003414340034EC
:1007E0001E34003428340034323400343A340034B7
:1007F000423400344A340034503400345634003427
:100800005B3400345F3400346134003463340034CA
:100810006434003463340034613400345F340034B1
:100820005B34003456340034503400344A340034DD
:10083000423400343A340034323400342834003442
:100840001E340034143400340A34003400340034CC
:10085000F634FF34EC34FF34E234FF34D834FF3460
:10086000CE34FF34C634FF34BE34FF34B634FF34E4
:10087000B034FF34AA34FF34A534FF34A134FF343C
:100880009F34FF349D34FF349C34FF349D34FF3457
:100890009F34FF34A134FF34A534FF34AA34FF342D
:1008A000B034FF34B634FF34BE34FF34C634FF34C2
:1008B000CE34FF34D834FF34E234FF34EC34FF3428
:1008C000F634FF3400340034422D21002708200084
:1008D000A900210026082000A800903100208431C2
:1008E00020002808B8002908B9002A08BA000030FA
:1008F000B5004030B6003F30B70086315326843112
:1009000020003508E7003608E8003708E90097318D
:100910006127200068082100A70020006708210047
:10092000A600080027082000A900210026082000B2
:10093000A80090310020843120002808B800290840
:10094000B9002A08BA00AA30B5002A30B6003F30F4
:10095000B70086315326843120003508E700360879
:10096000E8003708E9009731612720006808210076
:10097000A700200067082100A60008002708200023
:10098000A900210026082000A80090310020843111
:1009900020002808B8002908B9002A08BA00003049
:1009A000B5000030B6003F30B700863153268431A1
:1009B00020003508E7003608E8003708E9009731DD
:1009C0006127200068082100A70020006708210097
:1009D000A600080027082000A90021002608200002
:1009E000A80090310020843120002808B800290890
:1009F000B9002A08BA00A630B500AA30B6003E30C9
:100A0000B70086315326843120003508E7003608C8
:100A1000E8003708E90097316127200068082100C5
:100A2000A700200067082100A60008002708200072
:100A3000A900210026082000A80090310020843160
:100A400020002808B8002908B9002A08BA00003098
:100A5000B5008030B6003E30B70086315326843171
:100A600020003508E7003608E8003708E90097312C
:100A70006127200068082100A700200067082100E6
:100A8000A600080021002908003A0319482D5C2D12
:100A90002808013A0319652C033A0319922C013AEC
:100AA0000319BE2C073A0319EA2C013A0319162D33
:100AB000033A03195C2D5C2D080020002808AE00C5
:100AC0002908AF002A08B00003102F0D300DB10027
:100AD0003108B4002B08AE002C08AF002D08B00080
:100AE00003102F0D300DB1003108B3003408031985
:100AF000852D3308340203188C2D3403FF3A330755
:100B0000AE0019302E02031C8C2D2B08A8002C08D7
:100B1000A9002D08AA0008003308031908003408AA
:100B2000330203189B2D3303FF3A3407AE0019300C
:100B30002E02031808000630AE002E08B200AA1BD1
:100B4000B217AD1B3217A917FF30A805FF30A90552
:100B50000030AA05AC17FF30AB05FF30AC05003004
:100B6000AD05330834020318D72D0130AB35AC0D79
:100B7000AD0D890BB62D0130B302330834060319CD
:100B8000D22D0130B202320807390319D22DB52D0A
:100B90000130AA36A90CA80C890BC92D0130AE0072
:100BA0002E08B407340833060319FC2DC82D340869
:100BB00033020318FC2D0130A835A90DAA0D890BAD
:100BC000DC2D0130B402330834060319F82D01304E
:100BD000B202320807390319F82DDB2D0130AD368A
:100BE000AC0CAB0C890BEF2D0130AE002E08B30717
:100BF00034083306031DEE2DB21F0E2EFF30A8065B
:100C0000FF30A906FF30AA060130A80700300318FC
:100C10000130A907003003180130AA07321F202E27
:100C2000FF30AB06FF30AC06FF30AD060130AB073E
:100C3000003003180130AC07003003180130AD0755
:100C4000B2012808AB072908AC3D2A08AD3DAD1F0D
:100C50003B2EFF30AB06FF30AC06FF30AD06013057
:100C6000AB07003003180130AC0700300318013027
:100C7000AD07B201B20A2B08A0002C08A1002D0874
:100C8000A2003408AE002E08A3003208AF002F08DF
:100C9000A4009531EF2520002008A8002108A90014
:100CA0002208AA00080020003508BB003608BC0056
:100CB0003708BD0003103C0D3D0DBE003E08BF00CF
:100CC0003F08031D6A2E0030B5000030B60000302A
:100CD000B70008003808BB003908BC003A08BD005E
:100CE00003103C0D3D0DBE003E08C4004408031D2A
:100CF000802E0030B5000030B6000030B70008008C
:100D000044087B3EBB003B08BF073508BB003608E4
:100D1000BC003708BD001030BD36BC0CBB0C890BC5
:100D20008C2E3B08BE003E08C4003808BB003908C2
:100D3000BC003A08BD001030BD36BC0CBB0C890BA2
:100D40009C2E3B08BE003E08C4068030BB003B081A
:100D5000C405B617B917FF30B805FF30B905003024
:100D6000BA050030C0000030C1000030C2000730BA
:100D7000BB003B08C300351CC32E3808C007390828
:100D8000C13D3A08C23D0130B736B60CB50C890BEF
:100D9000C42E0130B835B90DBA0D890BCA2E0130F9
:100DA000C302031DBB2E0930BB003B08C300351C2A
:100DB000DF2E3808C0073908C13D3A08C23D01306E
:100DC000B736B60CB50C890BE02E0130C236C10C1B
:100DD000C00C890BE62E0130C302031DD72E40083C
:100DE000A0004108A1004208A2003F08BB003B0848
:100DF000A3004408BC003C08A4009531EF25200066
:100E00002008B5002108B6002208B700080020001D
:100E100090181D2F21005008803A2000B200803029
:100E20003202031D162F013021004F02031C302F08
:100E3000FF302100CF07FF302F2F21005008803ACC
:100E40002000B20080303202031D292F193021000A
:100E50004F020318302F01302100CF070030D03D62
:100E600021004F085004031D7C2F5408031D3C2F04
:100E7000D401D40ACB01CC0120006F03031D662FDF
:100E800022006A036B04031D492F0130D600003095
:100E9000D700210068084C02031D502F67084B0241
:100EA000031C782F22005E085F04031D782F2100A9
:100EB0005308031D782F22000D1101302000AE00D1
:100EC0000030AF0093310D238731782F2100D301FB
:100ED000D30A2200D601D70101302000AE00003035
:100EE000AF00943112242200DE01DF012100D40181
:100EF0002200EA01EB01080021005008803A20009E
:100F0000B20080303202031D882F193021004F02B9
:100F1000031C0800220056035704031D9A2F5E0885
:100F20005F04031D9A2F00302000AE00AF00943103
:100F30001224873120006F0C2200031C0D110318AE
:100F40000D1500302000AE00AF0093310D232100BD
:100F5000D401D3012200D601D7010130EA000030CC
:100F6000EB0019302100CF000030D000080027002E
:100F70000C108C100C118C110C12E22F720C031C33
:100F80000C1003180C140800720C031C8C100318AE
:100F90008C140800720C031C0C1103180C150800AB
:100FA000720C031C8C1103188C150800720C031CA6
:100FB0000C1203180C1608000C148C140C158C154C
:100FC0000C1608007108003A0319E72FFE2F70086D
:100FD000013A0319BE2F033A0319C42F013A03192A
:100FE000CA2F073A0319D02F013A0319D62F033A13
:100FF0000319FE2F623A0319DC2FFE2F0800143468
:101004006400800101310130FE020030FF3B7F08A3
:101014007E040319003403282000B0003003031DAC
:1010240043280530B1000030B200B21B080032087A
:10103400A1003108A0000130A2000030A3009531C6
:101044009B25883120003109AE003209AF00AE0A79
:101054000319AF0A2E08063EA00000302F3DA10060
:1010640092315722883105302000AC000030AD00A9
:101074009031D3208831FF302000B107FF30B23DDA
:1010840017280130B3000030B4003408803AAE00B1
:1010940080302E02031D5028073033020318080045
:1010A40020003408A1003308A0000130A200003061
:1010B400A30095319B25883120003309AE00340903
:1010C400AF00AE0A0319AF0A2E08063EA000003096
:1010D4002F3DA10092315722883105302000AC0009
:1010E4000030AD009031D320883101302000B307A7
:1010F4000030B43D472820004808CB004908CC0004
:101104004A08CD0003104C0D4D0DCE004E08D300FF
:101114005308031D94280030C5000030C600003079
:10112400C70008004508CB004608CC004708CD009E
:1011340003104C0D4D0DCE004E08D4005408031D71
:10114400AA280030C5000030C6000030C7000800DF
:101154000030D0000030D1000030D2008930540774
:10116400CB004B08D3024808CB004908CC004A08FE
:10117400CD001030CD36CC0CCB0C890BBC284B08E1
:10118400CE004E08D4004508CB004608CC004708E2
:10119400CD001030CD36CC0CCB0C890BCC284B08B1
:1011A400CE004E08D4068030CB004B08D405C917B6
:1011B400FF30C805FF30C9050030CA05C617FF3027
:1011C400C505FF30C6050030C7051830CB004B08F5
:1011D400CF000130D035D10DD20D890BEC28470852
:1011E4004A02031DFB2846084902031DFB28450843
:1011F4004802031C04294508C8024608C93B47089D
:10120400CA3B50140130C835C90DCA0D890B0529D4
:101214000130CF02031DEB285008A0005108A100A3
:101224005208A2005308CB004B08A3005408CC007A
:101234004C08A4009531EF2520002008C5002108A2
:10124400C6002208C70008009F3113278931903156
:10125400732089319031222089319F314A27893185
:101264009431F82489319131042189319131352126
:1012740089319331CD23893120008F1B5F290130BF
:101284002200C2070030C33D4308803A2100AA006F
:1012940080302A02031D51291A3022004202031C05
:1012A400622919302200C2000030C3009031482066
:1012B400893120008F1B62295B292200C201C301EE
:1012C40087310727893120001018ED2A01302200C8
:1012D400C0070030C13D4108803A2100AA00803097
:1012E4002A02031D78291A3022004002031CF02A26
:1012F400FC1BCB297C08031D88297B08031D882936
:101304001B30790206307A3B031CCB290030FC00E9
:101314000030FB000030FA000030F90001302100F9
:10132400EB000030EC0000302300CF000030CE0092
:101334000030CD000030CC002200DC01DD012100B2
:10134400D501D50A6A08803AAA0080302A02031D12
:10135400AD2955086902031CC72921005508AA00B4
:101364000130AA35FF3E031DB3292A35203E8600ED
:10137400013087000030C03F0030C13FC23FC33F4F
:101384000130AA002A08D507A42920001018F02A41
:10139400C729FC1BD9297C08031DF02A7B08031DDF
:1013A400F02A1B30790206307A3B0318F02A210018
:1013B4006C08803AAA0080302A02031DE329053014
:1013C4006B020318E92AFC1BFB297C08031DF32983
:1013D4007B08031DF3299430790204307A3B031C03
:1013E400FB290030FC000030FB000430FA0094308C
:1013F400F90021006A08BC006908BB006A08803A49
:10140400AA006C08803A2A02031D0A2A6B086902A2
:10141400031C2F2A79082300CC077A08CD3D7B08CA
:10142400CE3D7C08CF3D21006B08AA000130AA35CF
:10143400FF3E031D192A2A35203E8600013087000D
:101444007908C03F7A08C13F7B08C23F7C08C33F8C
:101454006C08BC006B08BB00A72A00302300CF0037
:101464000030CE000030CD000030CC002100D5018A
:10147400D50A6A08803A803C031D422A690855024D
:101484000318892A21005508AA000130AA35FF3E15
:10149400031D482A2A35043E203E86000130870079
:1014A400403FAB00413FAC00423FAD00433FAE0084
:1014B4005508AF000130AF35FF3E031D5D2A2F35BF
:1014C400203E8600013087002B08C03F2C08C13F16
:1014D4002D08C23F2E08C33F5508AA000130AA3583
:1014E400FF3E031D712A2A35203E86000130870005
:1014F400403F2300CC07413FCD3D423FCE3D433FDB
:10150400CF3D01302100AA002A08D5073B2A21003B
:101514006908AA000130AA35FF3E031D8D2A2A3529
:10152400203E8600013087007908C03F7A08C13F19
:101534007B08C23F7C08C33F79082300CC077A08A4
:10154400CD3D7B08CE3D7C08CF3D21003B082000EB
:10155400A60021003C082000A700890D893B8909C9
:10156400A800A90023004F082000AD0023004E0866
:101574002000AC0023004D082000AB0023004C08E1
:101584002000AA0096315426893120002908210020
:10159400DE00200028082100DD00200027082100AB
:1015A400DC00200026082100DB0001302200DC00E2
:1015B4000030DD000030FC000030FB000030FA0099
:1015C4000030F90001302100EB070030EC3D200031
:1015D4001018F02AE92A2200C001C10100309F310D
:1015E400AB278931200021082200CB0020002008ED
:1015F4002200CA0001309F31AB2789312000210825
:101604002200CD00200020082200CC0002309F31AF
:10161400AB278931200021082200CF0020002008B8
:101624002200CE0003309F31AB27893120002108EE
:101634002200D100200020082200D00004309F3175
:10164400AB278931200021082200D3002000200884
:101654002200D20021006509AA006609AB00AA0A8B
:101664000319AB0A22004A0821002A07AC00220011
:101674004B0821002B3DAD002D08803AAE00803090
:101684002E02031D472B04302C020318662B210065
:101694006509AA006609AB00AA0A0319AB0A22006D
:1016A4004A0821002A07AC0022004B0821002B3DE8
:1016B400AD002D08803AAE007F302E02031D642B4E
:1016C400FD302C020318FB2B22004B082100E600FE
:1016D40022004A082100E50000302000E1007F30AC
:1016E400E2004330E3000030DE000030DF00003071
:1016F400E000C030DB007F30DC004430DD0000302F
:10170400D8000030D9000030DA002100660820003B
:10171400A900210065082000A8009031002089312B
:1017240020002808D5002908D6002A08D7009631B9
:10173400D626893120005508E7005608E8005708E6
:10174400E900973161278931200068082100BA0037
:10175400200067082100B90000302000E100483073
:10176400E2004330E3008030DE009230DF0044309A
:10177400E000C030DB007F30DC004430DD000030AE
:10178400D8000030D9000030DA00210066082000BB
:10179400A900210065082000A800903100208931AB
:1017A40020002808D5002908D6002A08D700963139
:1017B400D626893120005508E7005608E800570866
:1017C400E90097316127893120006A082100DE0091
:1017D400200069082100DD00200068082100DC00E9
:1017E400200067082100DB0001302200DC0000300B
:1017F400DD00220060092100AA0022006109210005
:10180400AB00AA0A0319AB0A22004C0821002A07DC
:10181400AC0022004D0821002B3DAD002D08803A7C
:10182400AE0080302E02031D192C04302C02031844
:101834003B2C220060092100AA002200610921003A
:10184400AB00AA0A0319AB0A22004C0821002A079C
:10185400AC0022004D0821002B3DAD002D08803A3C
:10186400AE007F302E02031D392CFD302C020318EC
:10187400952C22004D08E1004C08E00000302000C7
:10188400E1001C30E2004230E3000030DE000030B2
:10189400DF000030E000C030DB007F30DC0044308B
:1018A400DD000030D8000030D9000030DA0022001A
:1018B40061082000A900220060082000A8009031DF
:1018C4000020893120002808D5002908D6002A08DC
:1018D400D7009631D626893120005508E7005608EE
:1018E400E8005708E900973161278931200068082A
:1018F4002100C000200067082100BF003F35203EC2
:10190400860004308700403F25009800413F99003D
:1019140021003F35A03E860003308700403F26006B
:101924009100413F9200220062092100AA00220096
:1019340063092100AB00AA0A0319AB0A22004E086E
:1019440021002A07AC0022004F0821002B3DAD00E6
:101954002D08803AAE0080302E02031DB32C0430D3
:101964002C020318D52C220062092100AA002200AF
:1019740063092100AB00AA0A0319AB0A22004E082E
:1019840021002A07AC0022004F0821002B3DAD00A6
:101994002D08803AAE007F302E02031DD32CFD307B
:1019A4002C0203182F2D22004F08E3004E08E200FA
:1019B40000302000E1000030E2000030E30000309D
:1019C400DE008030DF004130E000C030DB007F30DB
:1019D400DC004430DD000030D8000030D900003095
:1019E400DA00220063082000A90022006208200017
:1019F400A80090310020893120002808D50029084A
:101A0400D6002A08D7009631D626893120005508F9
:101A1400E7005608E8005708E90097316127893143
:101A2400200068082100C200200067082100C100CE
:101A34004135203E860004308700403F2600980050
:101A4400413F990021004135A03E860003308700C4
:101A5400403F26009C00413F9D0022006409210074
:101A6400AA00220065092100AB00AA0A0319AB0AE7
:101A74002200500821002A07AC002200510821004E
:101A84002B3DAD002D08803AAE0080302E02031DA0
:101A94004D2D04302C0203186F2D220064092100FF
:101AA400AA00220065092100AB00AA0A0319AB0AA7
:101AB4002200500821002A07AC002200510821000E
:101AC4002B3DAD002D08803AAE007F302E02031D61
:101AD4006D2DFD302C020318B42D22005108E500B1
:101AE4005008E40000302000E1007A30E200443085
:101AF400E3000030DE007030DF004230E000C03030
:101B0400DB007F30DC004430DD000030D8000030E2
:101B1400D9000030DA00220065082000A900220064
:101B240064082000A8009031002089312000280892
:101B3400D5002908D6002A08D7009631D62689313F
:101B440020005508E7005608E8005708E9009731D7
:101B540061278931200068082200E9002000670815
:101B64002200E800220066092100AA002200670979
:101B74002100AB00AA0A0319AB0A22005208210073
:101B84002A07AC002200530821002B3DAD002D088C
:101B9400803AAE0080302E02031DD22D04302C0278
:101BA4000318F42D220066092100AA002200670907
:101BB4002100AB00AA0A0319AB0A22005208210033
:101BC4002A07AC002200530821002B3DAD002D084C
:101BD400803AAE007F302E02031DF22DFD302C0220
:101BE4000318F92D22005308E7005208E6002200EA
:101BF40068082100AA00220069082100AB00003017
:101C0400AB1BFF30AC00AD0022003B08803A210042
:101C1400AE002D08803A2E022200031D212E210041
:101C24002C0822003A02031D212E21002B08220039
:101C34003902031D212E21002A0822003802031C28
:101C4400462F21004D08013ECD0000304E3DCE0010
:101C540000302200BB000030BA000030B900003070
:101C6400B80021006303640403193D2E05306306A4
:101C74006404031D462E4E08803AAA0080302A02CE
:101C8400031D4F2E3D304E2E4E08803AAA00803060
:101C94002A02031D4F2E20304D02031C542E210016
:101CA400CD01CE0100302000E1000030E200003020
:101CB400E3006030DE009F30DF004430E000C030DD
:101CC400DB007F30DC004430DD000030D800003021
:101CD400D9000030DA00220067082000A9002200A1
:101CE40066082000A80090310020893120002808CF
:101CF400D5002908D6002A08D7009631D62689317E
:101D040020005508E7005608E8005708E900973115
:101D140061278931200068082100BE00200067087F
:101D24002100BD00F02E4E08AB004D08AA00AA35D4
:101D3400AB0D7830AC002330AD002A082C078600A8
:101D44002B082D3D8700403F2200D400413FCA2E7E
:101D540021004D35203E860002308700403F22009E
:101D6400D400413FCA2E21004D35A03E86000230EA
:101D74008700403F2200D400413FCA2E21004D3548
:101D8400203E860003308700403F2200D400413FBC
:101D9400D500ED2E21004E08AB004D08AA00AA354F
:101DA400AB0D7830AC002330AD002A082C07860038
:101DB4002B082D3D8700403F2200D400413FD50031
:101DC400FB302100BD000430BE0020000E160A2F97
:101DD4002200D401D50120000E120A2F210064082C
:101DE400003A0319F62E0A2F6308013A0319952EB7
:101DF400033A0319AA2E013A0319B52E073A031917
:101E0400C02E013A0319CC2E033A0319EA2E0A2FE5
:101E1400220055082000B600220054082000B50016
:101E240021003E082000B80021003D082000B70032
:101E34009231CF228931200036082200D5002000BB
:101E440035082200D40002302000A0000030A10098
:101E5400220055082000A300220054082000A200FC
:101E6400953149258931200021082C009B00200050
:101E740020082C009A0000302200BB000030BA0079
:101E84000030B9000030B8005C035D04031D35293F
:101E940021005E08E2005D08E1005C08E0005B08E8
:101EA400DF005C08A7005B08A6006E08A9006D08A7
:101EB400A80084316424893121002608DF00270822
:101EC400E000890D893B8909E100E2002200C80194
:101ED400C901C601C701220048084904031DC82FCF
:101EE40047082100AB00220046082100AA00AA35B9
:101EF400AB0DF230AC002330AD002A082C0786006D
:101F04002B082D3D8700403FAE00413FAF002E0817
:101F1400B0002F08B1000030B11BFF30B200B30095
:101F24005F08B4006008B5006108B6006208B70035
:101F34000130B435B50DB60DB70D890B9B2F37089D
:101F4400803AB8003308803A3802031DB32F3208B0
:101F54003602031DB32F31083502031DB32F300899
:101F64003402031CC22F01302200C8000030C90013
:101F740047082500920022004608250091006D2F95
:101F840001302200C6070030C73D6D2F21006208D2
:101F94002000AB00210061082000AA002100600895
:101FA4002000A90021005F082000A800923192229D
:101FB400893120002808C8002908C9002A08CA0055
:101FC4000030C500F030C6004030C70088317D20A5
:101FD400893120004508E7004608E8004708E90081
:101FE400973161278931200068082200E900200028
:101FF40067082200E800DC01DD0135292000AD017D
:10200400A91F0B28A809A909A80A0319A90AAD013F
:10201400AD0A2808A0002908A100A2018E30AB0057
:102024002B08A3002D08AC002C08A4009531EF2543
:1020340020002008A8002108A9002208AA000800FE
:102044002000A101A2012208803AA00080302002D1
:10205400031D2E280C30210203180800200021083B
:10206400A0000130A035FF3E031D34282035A03EDA
:102074008600013087000030C03F0030C13FC23FBE
:10208400C33F0130A1070030A23D25289F315927C5
:10209400903101302000B50035082100DA0022001B
:1020A4000D120D118D128D110D108D10003088310F
:1020B4000E209031003088310E209031013088316B
:1020C4000E209031013088310E20903193314C2311
:1020D400903193314C2390312100DA019F319527BF
:1020E400080021000D108D100D118D110D128D128F
:1020F4000E140E128E120F108F100F118F110F125B
:102104008F160F178F1710149014230010109010AF
:1021140020001010901026000C108C100C118C1143
:102124000C128C120C1728000C1326008D100D11A4
:102134009F313427903193318C238B178B160B11DD
:10214400080000302000AB000030AA000030A900D5
:102154000030A800201CB6282408A8072508A93D9B
:102164002608AA3D2708AB3D0130A435A50DA60DD0
:10217400A70D890BB7280130A336A20CA10CA00C23
:10218400890BBE282308220421042004031DAC2843
:102194002B08A3002A08A2002908A1002808A000EF
:1021A400080020002C08A0002D08A100A201A30112
:1021B4000030A7000030A6000330A500E830A400DA
:1021C4009031A3209031200023082300D300200065
:1021D40022082300D200200021082300D10020007F
:1021E40020082300D000530852045104500403195A
:1021F4000800FF30D007FF30D13DFF30D23DFF3023
:10220400D33DF52820000F1B080021006308013E80
:10221400E3000030643DE4006408803A2000AE002E
:1022240080302E02031D1929073021006302031C8C
:10223400202901302100E3000030E400210064087B
:102244002000A100210063082000A0009231572241
:10225400913120000F1F2B291430AC000030AD0049
:102264009031D320080020008F1A080021006D0847
:10227400013EED0000306E3DEE006E08803A200015
:10228400AE0080302E02031D4A29073021006D0262
:10229400031C512901302100ED000030EE00210023
:1022A4006E082000A10021006D082000A00001306C
:1022B400A2000030A30095319B259131013022000A
:1022C400DC000030DD0020008F1E65291430AC00D6
:1022D4000030AD009031D3200800003400341534B0
:1022E4000034283400343B3400344A340034563447
:1022F40000345F34003463340034643400345F34B5
:102304000034573400344B3400343C3400342A3421
:1023140000341634003402340034ED34FF34D9343C
:10232400FF34C734FF34B734FF34AB34FF34A23442
:10233400FF349D34FF349C34FF34A834FF34B43468
:10234400FF34C334FF34D534FF34E834FF34643409
:102354000034643400346434003464340034643449
:102364000034643400346434003464340034643439
:102374000034643400346434003464340034643429
:10238400003464340034643400349C34FF349C34AA
:10239400FF349C34FF349C34FF349C34FF349C342D
:1023A400FF349C34FF349C34FF349C34FF349C341D
:1023B400FF349C34FF349C34FF349C34FF349C340D
:1023C400FF3400340034073400340D340034143442
:1023D40000341B34003421340034283400342F34C6
:1023E4000034353400343C3400344334003449344C
:1023F400003450340034573400345D3400349C3499
:10240400FF34A334FF34A934FF34B034FF34B73479
:10241400FF34BD34FF34C434FF34CB34FF34D134FF
:10242400FF34D834FF34DF34FF34E534FF34EC3484
:10243400FF34F334FF34003400340D3400341B34DF
:1024440000342834003435340034433400345034F8
:1024540000345D3400345D3400345034003443348B
:10246400003435340034283400341B3400340D3443
:10247400003400340034F334FF34E534FF34D8340A
:10248400FF34CB34FF34BD34FF34B034FF34A334D1
:10249400FF34A334FF34B034FF34BD34FF34CB34C1
:1024A400FF34D834FF34E534FF3422000F108F108A
:1024B4000F118F110F12742A22000F14080022002A
:1024C4008F14080022000F15080022008F15080041
:1024D40022000F16080022000F148F140F158F15F9
:1024E4000F16080020002108003A03197A2A912ABD
:1024F4002008013A03195E2A033A0319612A013AB2
:102504000319642A073A0319672A013A03196A2A44
:10251400033A0319912A623A03196D2A912A080091
:102524002000AF018E30AC002C08AE00AB1FA72AF0
:10253400A809A909AA09AB09A80A0319A90A031930
:10254400AA0A0319AB0AAF01AF0AFF302B0503191E
:10255400B72A0130AB36AA0CA90CA80C890BAC2AFB
:102564000130AC002C08AE07A72A2808A0002908CF
:10257400A1002A08A2002E08AC002C08A3002F08F2
:10258400AD002D08A4009531EF2520002008A800F7
:102594002108A9002208AA00080000302000A90090
:1025A4000030A8000330A700E830A6000C30B900C2
:1025B400F230BA000130BB000030BC003808A10082
:1025C4003708A0003608A3003508A2009F31C427AD
:1025D400923120002008BD002108BE000030BE1B3F
:1025E400FF30BF00C0003D08B9073E08BA3D3F08B0
:1025F400BB3D4008BC3D3C08AD003B08AC003A087C
:10260400AB003908AA009631542620002708B600EA
:102614002608B500080020002F0822005F06031DCD
:10262400172B20002E0822005E0603190800200044
:102634002F082200DF0020002E082200DE002000E8
:102644002E0C2200031C8D1103188D1520002E0C56
:102654002700031C0D1103180D1520002E082F044C
:10266400031D372B27008D14392B27008D101430B0
:102674002000AC000030AD009031D320933127000E
:102684000D118D1014302000AC000030AD009031DD
:10269400D32008001E302000AE002E08B0006430A5
:1026A400A0000030A1000130A2000030A300953149
:1026B4009B25933164302000A0000030A1009231AA
:1026C4005722933120003008AE00AF012E08AC0031
:1026D4002F08AD009031D320933100302000A000AA
:1026E400A1000130A2000030A30095319B25933155
:1026F40000302000A000A100923157229331200025
:102704003008AE00AF012E08AC002F08AD009031A8
:10271400D320080022001D1021000E118E10260067
:102724000D108D110D122100101390121012901122
:1027340010110F30250093040F309A040F30260037
:1027440093040F309A040F309E040F302C0093042E
:102754000F3096040F3099040F309C040F309F04FF
:1027640025009D019E019F010030920032309100AE
:1027740000309900643098000030260092009630B2
:10278400910000309900C83098009F31222793317E
:102794009F311B27080020000E180E2C0130220048
:1027A400C4070030C53D4508803A2000A0008030B1
:1027B4002002031DE02B1A3022004402031C0800EF
:1027C40019302200C4000030C50001302000A000F0
:1027D40020082100D70703305702031CFE2BD70122
:1027E400FE2B22008D10FC2B22008D100D140A2CC0
:1027F40022008D140D100A2C21005708003A0319E9
:10280400F32B013A0319F62B033A0319FA2B0A2C7A
:1028140020000E1808000A2C2200C401C50108007B
:1028240020006F08B000B1012F083106031D1C2CD5
:102834002E083006031908002E08B0003008EF00F7
:102844002E0C2200031C0D1103180D158D112000F0
:102854002E0C2700031C0D1103180D1520002E0843
:102864002F04031D382C27008D143A2C27008D10BB
:1028740014302000AC000030AD009031D3209431EE
:1028840027000D118D1020006F08B000B101300831
:10289400A0003108A10080310220943114302000BE
:1028A400AC000030AD009031D32008000734003470
:1028B400073400340B3400340F3400341334003440
:1028C4001434003415340034153400341634003410
:1028D4001734003418340034193400341A340034F2
:1028E4001B3400341C3400341D3400341E340034D2
:1028F40020340034213400342334003425340034AB
:10290400273400342A3400342D3400343034003475
:1029140033340034373400343C340034423400342B
:1029240048340034503400345B34003467340034A9
:10293400783400348E340034AE340034DF34003460
:10294400FF340034FF340034FF340034FF340034E7
:10295400FF340034FF340034DF340034AE34003448
:102964008E34003478340034673400345B340034FB
:102974005034003448340034423400343C3400349D
:102984003734003433340034303400342D340034DC
:102994002A340034273400342534003423340034FA
:1029A40021340034203400341E3400341D34003407
:1029B4001C3400341B3400341A3400341934003409
:1029C4001834003417340034163400341534003409
:1029D4001534003414340034133400340F34003408
:1029E4000B340034073400340734003481302000C1
:1029F400A0001F30A1009F31E0279431200021085E
:102A04002100EE00200020082100ED00823020008B
:102A1400A0001F30A1009F31E0279431200021083D
:102A24002100E400200020082100E30020006F08BA
:102A3400031D1F2D27008D14212D27008D1020002C
:102A44006F0C2700031C0D1103180D1522000D1126
:102A54008D110D128D128D100D1021006E082000A5
:102A6400A10021006D082000A0000130A200003068
:102A7400A30095319B259431210064082000A10016
:102A8400210063082000A000923157220800200092
:102A9400A601A11F542DA009A109A00A0319A10A86
:102AA400A601A60AA31F5F2DA209A309A20A03195E
:102AB400A30A0130A4002408A606A701A80120083F
:102AC400210403198E2DA501A50AA11B732D013024
:102AD400A035A10D890B6A2D0130A4002408A50797
:102AE400672D0130A735A80D890B742D2108230209
:102AF400031D7E2D20082202031C852D2008A2021E
:102B04002108A33B27140130A136A00C890B862D84
:102B14000130A502031D732D26080319962DA7095C
:102B2400A809A70A0319A80A2808A1002708A000D1
:102B3400080027000C108C100C118C110C12D12DD4
:102B44002000220C2700031C0C1003180C1408008E
:102B54002000220C2700031C8C1003188C1408007E
:102B64002000220C2700031C0C1103180C1508006C
:102B74002000220C2700031C8C1103188C1508005C
:102B84002000220C2700031C0C1203180C1608004A
:102B940027000C148C140C158C150C16080020003E
:102BA4002108003A0319D72DEE2D2008013A031904
:102BB400A22D033A0319AA2D013A0319B22D073A9B
:102BC4000319BA2D013A0319C22D033A0319EE2D44
:102BD400623A0319CA2DEE2D0800200023080319B8
:102BE400F82D220821042004031D092E0030A00022
:102BF4000030A1000030A20008000130A500250823
:102C0400A3070130A236A10CA00C890B042EFE30C0
:102C140022050319222EFF2D0130A5002508A30744
:102C24000130A007003003180130A1070030031859
:102C34000130A2070130A236A10CA00C890B1D2E75
:102C4400FF30220503192F2E0E2E0130A30201306E
:102C5400A035A10DA20D890B2A2EA11B352E023001
:102C640023020318272E23183D2EFF30A0057F30A2
:102C7400A105FF30A2050310A30C2308A500A6019B
:102C8400A7011030A535A60DA70D890B442E2508E4
:102C9400A0042608A1042708A20424080319080094
:102CA400A21708002000B001A91F652EA609A709D4
:102CB400A809A909A60A0319A70A0319A80A031946
:102CC400A90AB001B00AAD1F762EAA09AB09AC0956
:102CD400AD09AA0A0319AB0A0319AC0A0319AD0A10
:102CE4000130AE002E08B0060030B4000030B3004E
:102CF4000030B2000030B10029082804270426045B
:102D04000319BF2EAF01AF0AA91B942E0130A635BB
:102D1400A70DA80DA90D890B892E0130AE002E0830
:102D2400AF07862E0130B135B20DB30DB40D890B4A
:102D3400952E29082D02031DA92E28082C02031DF7
:102D4400A92E27082B02031DA92E26082A02031CDC
:102D5400B42E2608AA022708AB3B2808AC3B290856
:102D6400AD3B31140130A936A80CA70CA60C890B75
:102D7400B52E0130AF02031D942E30080319CD2E59
:102D8400B109B209B309B409B10A0319B20A0319A2
:102D9400B30A0319B40A3408A9003308A800320896
:102DA400A7003108A600080020005B08A8005C0802
:102DB400A9005D08AA005808A0005908A1005A08F3
:102DC400A2009F312B27963120002008AB00210858
:102DD400AC002208AD0085315D259631200028081D
:102DE400C5002908C6002A08C7006108A8006208AF
:102DF400A9006308AA005E08A0005F08A10060089B
:102E0400A2009F312B27963120002008AB00210817
:102E1400AC002208AD0085315D25963120002808DC
:102E2400B5002908B6002A08B7005508A8005608B6
:102E3400A9005708AA005808A0005908A1005A0878
:102E4400A2009F312B27963120002008AB002108D7
:102E5400AC002208AD0085315D259631200028089C
:102E6400B8002908B9002A08BA00863153269631D9
:102E740020003508C8003608C9003708CA00883160
:102E84007D20963120004508E4004608E500470807
:102E9400E6005E08A8005F08A9006008AA006408AC
:102EA400AB006508AC006608AD0085315D252000E7
:102EB4002808D5002908D6002A08D70008002000D1
:102EC4006708EB006808EC006908ED0003106C0D5E
:102ED4006D0DEE006E082100A5002508031D7C2F52
:102EE40000302000EA000030E9000030E800003043
:102EF400E700080020006708EB006808EC00690898
:102F0400ED001730ED36EC0CEB0C890B842F6B08BD
:102F1400EE006E082100A0002000E817FF30E7054E
:102F2400FF30E8050030E90567082100A100200012
:102F340068082100A200200069082100A300A40160
:102F44008E30A502A51FC62F2508803A8F3E031890
:102F5400B52F00302000EA000030E9000030E8001E
:102F64000030E700080001302100A436A30CA20CB5
:102F7400A10C890BB62F01302000EB006B08210057
:102F8400A5070319E22FB52F18302502031CDE2FE5
:102F940000302000EA000030E9000030E800003092
:102FA400E700080001302100A135A20DA30DA40DF6
:102FB400890BD52F0130A50221002508031DD42F2C
:102FC40020080319F02FA109A209A309A409A10A41
:102FD4000319A20A0319A30A0319A40A2408200046
:102FE400EA00210023082000E90021002208200033
:0C2FF400E800210021082000E700080090
:103E2600FC302100990508002000A001A10108002E
:103E3600210095129511151095141511080087305B
:103E460020009C05FC309C05FF309B001C150800DB
:103E56002000220821042004031908008030A2064D
:103E6600080021009E171E088F3960389E00FC301E
:103E76009E051D140800FE0012001E000130FE0201
:103E86000030FF3B7F087E04031900343F2F9F312B
:103E960017279F3120002108B3002008B2003308FD
:103EA600AF003208AE009431122408000030220020
:103EB6000D1A0130B40000300D190130B600003083
:103EC6008D1A0130B50000308D190130B700080099
:103ED6006434003401340034FF34FF34D034073402
:103EE600D0340734D0340734D0340734D0340734D0
:103EF60001340034013400340134D0340734003442
:103F06000034D03407340034003406340034D0345E
:103F16000734E834033404340034013400340634FE
:103F26000034FF342200340C031C0D1203180D1646
:103F3600360C031C0D1103180D15350C031C8D12C0
:103F460003188D16370C031C8D1103188D150800E8
:103F56002000A3002308A200A20DA20D21001D0827
:103F6600200022068339220621009D009D149D18FB
:103F7600BA2F1C082000A10021001B082000A00069
:103F860008002000A401A501201CCD2F2208A407AB
:103F96002308A53D0130A235A30D890BCE2F013094
:103FA600A136A00C890BD32F20082104031DC72F8F
:103FB6002508A1002408A000080000308B1B013052
:103FC6002000A2008B132008230091002000210866
:103FD6002300920015131514000000002000220C87
:103FE600031C8B1303188B17230014082000A10051
:0A3FF600230013082000A0000800BB
:020000040001F9
:04000E00E2FFFFDF2F
:00000001FF
