:100000008131F0290800FF347E14803120007F0800
:10001000FC000B1D122921004E082000A100210028
:100020004D082000A0000130F4000030F500003041
:10003000F6000030F70021006708F4076808F53D76
:100040006908F63D6A08F73D7708EA007608E90096
:100050007508E8007408E7000130F4000030F5008E
:100060000030F6000030F7005F08F4076008F53D47
:100070006108F63D6208F73D7708E2007608E10086
:100080007508E0007408DF000130F4000030F5006E
:100090000030F6000030F7006308F4076408F53D0F
:1000A0006508F63D6608F73D7708E6007608E50046
:1000B0007508E4007408E3000130F4000030F50036
:1000C0000030F6000030F70022002408F40725086D
:1000D000F53D2608F63D2708F73D7708A700760886
:1000E000A6007508A5007408A40001302300E407E9
:1000F0000030E53D0030E63D0030E73D21006D0376
:10010000031D992801302200BA070030BB3D3B088F
:1001100021005A02031D902822003A0821005902AA
:10012000031899285A082200BB0021005908220010
:10013000BA0022005503031DB3280130C607003062
:10014000C73D470821005A02031DAA28220046087D
:10015000210059020318B3285A082200C7002100C1
:1001600059082200C6000B1122002A032B04031D8C
:10017000122921006208803AF4005008803A740283
:10018000031DCC284F086102031DCC284E086002D5
:10019000031DCC284D085F02031C12294908F400F6
:1001A0004A08F5004B08F6004C08F7006709F8000C
:1001B0006809F9006909FA006A09FB00F80A0319DD
:1001C000F90A0319FA0A0319FB0A7808F4077908EF
:1001D000F53D7A08F63D7B08F73DF71BFC287708CC
:1001E000031D12297608031D12297508031D122903
:1001F00004307402031812296709F4006809F50035
:10020000F40A0319F50A49087407F6004A08753D0F
:10021000F7005F0876072000A00021006008773D06
:100220002000A10020006A08031D63296B08031D3C
:10023000632921006A08803AF4004C08803A74026D
:10024000031D2C294B086902031D2C294A0868024A
:10025000031D2C2949086702031C512922000D1691
:1002600000302100EA000030E9000030E8000030F2
:10027000E70022004C034D04031D512937082500D7
:10028000920022003608250091002200CC01CD0109
:1002900021005008E2004F08E1004E08E0004D0840
:1002A000DF002100EA1B63296A08031D6129690830
:1002B000031D61296808031D61291E306702031CA4
:1002C000632922000D1220002008F4002108F50007
:1002D0000030F51BFF30F600F70021006208803A7D
:1002E000F8007708803A7802031D802976086102B9
:1002F000031D802975086002031D802974085F02B0
:10030000031CA1296E08031D90295C08F1005B08FD
:10031000F0000130F2000030F30092319F22803172
:1003200021004E082000A10021004D082000A0005F
:1003300000302100E2000030E1000030E000003039
:10034000DF00E21BBD296208031DB0296108031DFF
:10035000B0296008031DB02914305F02031CBD29B9
:100360006E08031DBD295C08F1005B08F000003039
:10037000F200F30092319F22803122005903031DC5
:10038000E6290130F4007408D8075D08803A803C03
:10039000031DCC295C085802031CE42922008D149B
:1003A0005D08F5005C08F400F435F50D7508803A39
:1003B000F60080307602031DDF2958087402031806
:1003C000EB292200D801EB292200EA295808031959
:1003D000EB29D8018D107C082000FF007E10090059
:1003E0008131F229EB01DF308400003085001130CB
:1003F000FE000030FF009D31FD258131203084005A
:10040000013085003C30FE000030FF009D31FD25AD
:100410008131A0308400013085004830FE0000307A
:10042000FF009D31FD258131A0308400043085001E
:100430004030FE000030FF009D31FD2581317E30CF
:1004400084008D3085006E308600233087000230B6
:10045000FF0082309D31F1258131803103208131CF
:10046000FD008731FE278131E9008731FF27813187
:10047000EA00513084009E308500C930860000308B
:1004800087000030FF0016309D31F1258131183092
:1004900084009E3085005C3086000130870000308B
:1004A000FF0011309D31F1258131133084009130EE
:1004B000850020308600023087000030FF003E308B
:1004C0009D31F1258131D530840090308500A030F8
:1004D0008600023087000030FF003E309D31F1255C
:1004E00081319730840090308500203086000330C1
:1004F00087000030FF003E309D31F125813186308C
:10050000840093308500A0308600033087000030DF
:10051000FF0050309D31F125813136308400933019
:10052000850020308600043087000030FF00503006
:100530009D31F12581315930840090308500203083
:100540008600053087000030FF003E309D31F125E8
:100550007E1020008231AC2A9D31C62582319F3128
:10056000332782312000101490140F178F160E14A9
:100570008F179E31B52682319E3109268231953101
:10058000502582319231592282319231E7228231D3
:1005900088310120823120008F1BEC2A013022009B
:1005A000B2070030B33D3308803A2100BA008030F2
:1005B0003A02031DDE2A1A3022003202031CEF2AFF
:1005C00019302200B2000030B3009E31DB268231A8
:1005D00020008F1BEF2AE82A2200B201B3018931E3
:1005E000BE2182318B31962382310030903103203D
:1005F0008231200023082200BD00200022082200B2
:10060000BC000130903103208231200023082200F9
:10061000BF00200022082200BE00023090310320DB
:100620008231200023082200C1002000220822007D
:10063000C0000330903103208231200023082200C3
:10064000C300200022082200C200043090310320A1
:100650008231200023082200C50020002208220049
:10066000C4008D1021005309BA005409BB00BA0A16
:100670000319BB0A22003C0821003A07BC002200F3
:100680003D0821003B3DBD003D08803ABE00803062
:100690003E02031D4D2B04303C0203186C2B21003D
:1006A0005309BA005409BB00BA0A0319BB0A220055
:1006B0003C0821003A07BC0022003D0821003B3DD8
:1006C000BD003D08803ABE007F303E02031D6A2B0C
:1006D000FD303C020318C02B22003D082100D4004D
:1006E00022003C082100D30000302000E300483005
:1006F000E4004330E5008030E0009230E100443017
:10070000E200C030DD007F30DE004430DF0000302A
:10071000DA000030DB000030DC002100540820004B
:10072000AB00210053082000AA008731DC2782316A
:1007300020002A08D7002B08D8002C08D9009631B1
:10074000CC268231200057082100A0002000580844
:100750002100A100200059082100A2009631452661
:10076000823121002308CC002208CB002108CA00D6
:100770002008C90001302200DE000030DF008D14A7
:1007800021005509BA005609BB00BA0A0319BB0A71
:1007900022003E0821003A07BC0022003F08210049
:1007A0003B3DBD003D08803ABE0080303E02031D47
:1007B000DB2B04303C020318FA2B21005509BA0048
:1007C0005609BB00BA0A0319BB0A22003E082100E1
:1007D0003A07BC0022003F0821003B3DBD003D0818
:1007E000803ABE007F303E02031DF82BFD303C02F4
:1007F00003185C2C22003F082100D60022003E088E
:100800002100D50000302000E3001C30E40042301D
:10081000E5000030E0000030E1000030E200C030D0
:10082000DD007F30DE004430DF000030DA000030D1
:10083000DB000030DC00210056082000AB00210066
:1008400055082000AA008731DC27823120002A08C1
:10085000D7002B08D8002C08D9009631CC2682313D
:10086000200057082100A000200058082100A10006
:10087000200059082100A20096314526823121002E
:1008800021082300E900210020082300E800683542
:10089000203E860004308700403F25009800413FFD
:1008A000990023006835A03E860003308700403F52
:1008B00026009100413F920021005709BA005809D3
:1008C000BB00BA0A0319BB0A2200400821003A07FC
:1008D000BC002200410821003B3DBD003D08803A9C
:1008E000BE0080303E02031D772C04303C0203180A
:1008F000962C21005709BA005809BB00BA0A0319FF
:10090000BB0A2200400821003A07BC00220041082F
:1009100021003B3DBD003D08803ABE007F303E02D5
:10092000031D942CFD303C020318F82C22004108D2
:100930002100D800220040082100D700003020000C
:10094000E3000030E4000030E5000030E0008030DB
:10095000E1004130E200C030DD007F30DE00443095
:10096000DF000030DA000030DB000030DC00210066
:1009700058082000AB00210057082000AA0087314A
:10098000DC27823120002A08D7002B08D8002C0849
:10099000D9009631CC268231200057082100A000D2
:1009A000200058082100A100200059082100A200C1
:1009B000963145268231210021082300EB002100D9
:1009C00020082300EA006A35203E860004308700B4
:1009D000403F26009800413F990023006A35A03E21
:1009E000860003308700403F26009C00413F9D0069
:1009F000220060092100BA00220061092100BB0029
:100A0000BA0A0319BB0A2200420821003A07BC00B7
:100A10002200430821003B3DBD003D08803ABE0056
:100A200080303E02031D162D04303C020318382D81
:100A3000220060092100BA00220061092100BB00E8
:100A4000BA0A0319BB0A2200420821003A07BC0077
:100A50002200430821003B3DBD003D08803ABE0016
:100A60007F303E02031D362DFD303C020318822DDF
:100A700022004308E1004208E00000302000E300CB
:100A80007A30E4004430E5000030E0007030E100EE
:100A90004230E200C030DD007F30DE004430DF0055
:100AA0000030DA000030DB000030DC00220061089A
:100AB0002000AB00220060082000AA008731DC275C
:100AC000823120002A08D7002B08D8002C08D90032
:100AD0009631CC268231200057082100A00020004A
:100AE00058082100A100200059082100A2009631D9
:100AF00045268231210021082200E500210020083E
:100B00002200E400220062092100BA0022006309E9
:100B10002100BB00BA0A0319BB0A220044082100C5
:100B20003A07BC002200450821003B3DBD003D08BE
:100B3000803ABE0080303E02031DA02D04303C02EE
:100B40000318C22D220062092100BA0022006309A5
:100B50002100BB00BA0A0319BB0A22004408210085
:100B60003A07BC002200450821003B3DBD003D087E
:100B7000803ABE007F303E02031DC02DFD303C0296
:100B80000318C72D22004508E3004408E2002200B4
:100B90000D1064082100BA00220065082100BB0086
:100BA0000030BB1BFF30BC00BD0022002708803A8C
:100BB0002100BE003D08803A3E022200031DF02DB8
:100BC00021003C0822002602031DF02D21003B08D5
:100BD00022002502031DF02D21003A0822002402E4
:100BE000031C212F0D1421006B08013EEB00003087
:100BF0006C3DEC0000302200A7000030A600003061
:100C0000A5000030A40021005103520403190D2E49
:100C1000053051065204031D162E6C08803ABA00A6
:100C200080303A02031D1F2E3D301E2E6C08803A84
:100C3000BA0080303A02031D1F2E1F306B02031CC6
:100C4000242E2100EB01EC0100302000E3000030F5
:100C5000E4000030E5006030E0009F30E100443007
:100C6000E200C030DD007F30DE004430DF000030C5
:100C7000DA000030DB000030DC00220063082000D6
:100C8000AB00220062082000AA008731DC278231F5
:100C900020002A08D7002B08D8002C08D90096314C
:100CA000CC268231200057082100A00020005808DF
:100CB0002100A100200059082100A20096314526FC
:100CC0008231210021082200AD00210020082200ED
:100CD000AC00C12E21006C08BB006B08BA00BA350D
:100CE000BB0D7630BC002530BD003A083C078600BD
:100CF0003B083D3D8700403F2200CA00413FA02EF7
:100D000021006B35203E860002308700403F2200E4
:100D1000CA00413FA02E21006B35A03E8600023064
:100D20008700403F2200CA00413FA02E21006B35C2
:100D3000203E860003308700403F2200CA00413F2A
:100D4000CB00BE2E21006C08BB006B08BA00BA3580
:100D5000BB0D7630BC002530BD003A083C0786004C
:100D60003B083D3D8700403F2200CA00413FCB0089
:100D700020000E16DB2E2200CA01CB0120000E122D
:100D8000DB2E21005208003A0319C72EDB2E510832
:100D9000013A03196A2E033A0319802E013A031906
:100DA0008B2E073A0319962E013A0319A22E033A05
:100DB0000319BB2EDB2E22004A082000BD002200B2
:100DC0004B082000BE00890D893B8909BF00C00087
:100DD00022002C082000C10022002D082000C200A3
:100DE000890D893B8909C300C4009131D221823128
:100DF00020003E082200CB0020003D082200CA004F
:100E000002302000A2000030A30022004B08200086
:100E1000A50022004A082000A4009331D623823185
:100E2000200023082C009B00200022082C009A00A0
:100E300000302200A7000030A6000030A5000030DE
:100E4000A4005E035F04031DC22A21004C08D000E9
:100E50004B08CF004A08CE004908CD004A08AF0031
:100E60004908AE005C08B1005B08B0008831F6208C
:100E7000823121002E08CD002F08CE00890D893B3C
:100E80008909CF00D00001302200CC000030CD0015
:100E9000B801B901B601B70138083904031D9F2F05
:100EA00037082100BB00220036082100BA00BA35FD
:100EB000BB0D6E30BC002330BD003A083C078600F5
:100EC0003B083D3D8700403FBE00413FBF003E081C
:100ED000C0003F08C1000030C11BFF30C200C3008A
:100EE0004D08C4004E08C5004F08C6005008C70092
:100EF0000130C435C50DC60DC70D890B792F4708C4
:100F0000803AC8004308803A4802031D912F4208E6
:100F10004602031D912F41084502031D912F4008F1
:100F20004402031C992F01302200B8000030B900A0
:100F30004C2F01302200B6070030B73D4C2F210066
:100F400050082000AD0021004F082000AC00210017
:100F50004E082000AB0021004D082000AA0090316F
:100F60001C20823120002A08CA002B08CB002C0844
:100F7000CC000030C700F030C8004030C9009731C5
:100F800057278231200047082100A0002000480890
:100F90002100A100200049082100A2009631452629
:100FA0008231210021082200E500210020082200D2
:100FB000E400DE01DF01C22A2000AF01AB1FE72FF2
:100FC000AA09AB09AA0A0319AB0AAF01AF0A2A089A
:100FD000A2002B08A300A4018E30AD002D08A500AF
:100FE0002F08AE002E08A60094317C242000220891
:100FF000AA002308AB002408AC000800FF34FF342B
:1010020020000E183E2801302200B4070030B53D02
:101012003508803A2000A20080302202031D1428E5
:101022001A3022003402031C080019302200B400D6
:101032000030B50001302000A20022082200D707AC
:1010420003305702031C2F28D7012F288D102D287B
:101052008D100D143A288D140D103A285708003AB5
:1010620003192728013A03192928033A03192C28BE
:101072003A2820000E1808003A282200B401B501CF
:10108200080020003708BD003808BE003908BF003C
:1010920003103E0D3F0DC0004008C1004108031D72
:1010A20059280030B7000030B8000030B9000800FD
:1010B2003A08BD003B08BE003C08BF0003103E0DCD
:1010C2003F0DC0004008C6004608031D6F280030CF
:1010D200B7000030B8000030B900080046087B3E77
:1010E200BD003D08C1073708BD003808BE003908F9
:1010F200BF001030BF36BE0CBD0C890B7B283D08EB
:10110200C0004008C6003A08BD003B08BE003C08CB
:10111200BF001030BF36BE0CBD0C890B8B283D08BA
:10112200C0004008C6068030BD003D08C605B8179D
:10113200BB17FF30BA05FF30BB050030BC050030DD
:10114200C2000030C3000030C4000730BD003D08BB
:10115200C500371CB2283A08C2073B08C33D3C0809
:10116200C43D0130B936B80CB70C890BB328013035
:10117200BA35BB0DBC0D890BB9280130C502031D60
:10118200AA280930BD003D08C500371CCE283A0800
:10119200C2073B08C33D3C08C43D0130B936B80C18
:1011A200B70C890BCF280130C436C30CC20C890B93
:1011B200D5280130C502031DC6284208A2004308F3
:1011C200A3004408A4004108BD003D08A50046084C
:1011D200BE003E08A60094317C2420002208B700FD
:1011E2002308B8002408B90008002200AA01AB01B4
:1011F20021002F08B6002E08B5000030B70080305D
:10120200B8003F30B9001E290030B7004030102925
:10121200A630B7002A3010290030B7000030B800DD
:101222003F301C29A630B700AA301A290030B70077
:101232008030B8003E30B90037293108003A03192E
:10124200232937293008013A03190529033A0319DA
:101252000929013A03190D29073A03191329013AF9
:1012620003191729033A03193729372936082000A9
:10127200AB00210035082000AA008731DC27883125
:1012820020002A08BA002B08BB002C08BC00210051
:1012920037082000B700210038082000B8002100DC
:1012A20039082000B90088314220883120003708EF
:1012B2002100A000200038082100A10020003908E8
:1012C2002100A20096314526883121002108B6006E
:1012D2002008B50037082000C70021003808200088
:1012E200C800210039082000C9002100360820006A
:1012F200AB00210035082000AA008731DC278831A5
:1013020020002A08CA002B08CB002C08CC009731F9
:1013120057278831200047082100B20020004808E2
:101322002100B300200049082100B4002F0820004A
:10133200AB0021002E082000AA008731DC2788316B
:1013420020002C0821003406031DB12920002B089F
:1013520021003306031DB12920002A08210032068C
:101362000319B82901302200AA000030AB00210085
:101372003608AF003508AE00080020009018D429C6
:1013820022004F08803A2000B80080303802031D46
:10139200CD29013022004E02031CE729FF30220032
:1013A200CE07FF30E62922004F08803A2000B8001D
:1013B20080303802031DE029193022004E02031842
:1013C200E72901302200CE070030CF3D22004E082F
:1013D2004F04031D452A21006D08031DF529ED0167
:1013E200ED0A2200BA01BB0121005A0822003B0289
:1013F200031DFF292100590822003A02031C1E2A5C
:1014020020006908031D1E2A6B08031D1E2A2200E4
:101412000D1155030319162A01302000A2000030D5
:10142200A3009E31672689311E2A01302000B400B4
:101432000030B5009F310627893120006B08031D5B
:10144200412A6908031D412A7D03031D342A220013
:1014520066036704031D412AEB01EB0A0130D00049
:101462000030D100412A220053030319412AEB0123
:10147200D301D30AD001D1012000E9012100ED01FD
:101482002200E601E70108004F08803A2000B80078
:1014920080303802031D502A193022004E02031CEC
:1014A200080020006B03031D5F2A22006B08200046
:1014B200B800B9013808B40039087A2A2200530367
:1014C2000319672A20006903031D6C2A01302000DA
:1014D200B40000307A2A220050035104031D7E2AF0
:1014E20020006908031D7E2A6B08031D7E2A003036
:1014F200B400B5009231132289317D0C2200031C05
:101502000D1103180D1500302000A200A3009E311A
:101512006726893100302000B400B5009F310627CC
:101522002100ED012200D301D001D1010130E600FA
:101532000030E7001930CE000030CF000800200054
:101542002A08B0002B08B1002C08B2000310310D9C
:10155200320DB3003308B6002D08B0002E08B100DA
:101562002F08B2000310310D320DB3003308B5005D
:1015720036080319C82A350836020318CF2A36035B
:10158200FF3A3507B00019303002031CCF2A2D086C
:10159200AA002E08AB002F08AC000800350803197A
:1015A2000800360835020318DE2A3503FF3A3607EB
:1015B200B00019303002031808000630B0003008BD
:1015C200B400AC1BB417AF1B3417AB17FF30AA051E
:1015D200FF30AB050030AC05AE17FF30AD05FF3074
:1015E200AE050030AF053508360203181A2B01305C
:1015F200AD35AE0DAF0D890BF92A0130B5023508B4
:1016020036060319152B0130B402340807390319C1
:10161200152BF82A0130AC36AB0CAA0C890B0C2B1B
:101622000130B0003008B6073608350603193F2BE3
:101632000B2B3608350203183F2B0130AA35AB0DB0
:10164200AC0D890B1F2B0130B60235083606031983
:101652003B2B0130B4023408073903193B2B1E2BF4
:101662000130AF36AE0CAD0C890B322B0130B0001D
:101672003008B50736083506031D312BB41F512B30
:10168200FF30AA06FF30AB06FF30AC060130AA07D6
:10169200003003180130AB07003003180130AC07EB
:1016A200341F632BFF30AD06FF30AE06FF30AF06AE
:1016B2000130AD07003003180130AE0700300318C7
:1016C2000130AF07B4012A08AD072B08AE3D2C0844
:1016D200AF3DAF1F7E2BFF30AD06FF30AE06FF30B1
:1016E200AF060130AD07003003180130AE070030FD
:1016F20003180130AF07B401B40A2D08A2002E0866
:10170200A3002F08A4003608B0003008A500340852
:10171200B1003108A60094317C2420002208AA00DE
:101722002308AB002408AC0008002000C5011018F3
:10173200A12B21006F080319AC2B0130EF02AC2B57
:10174200193021006F020318AC2B01302000BD00BC
:101752003D082100EF076F08031D652DE61B362C9F
:101762006608031DBD2B6508031DBD2B1B306302DC
:101772000630643B031C362C22005A030319FE2B4D
:10178200DA01DA0A00302100E6000030E50000301C
:10179200E4000030E30001302200E8000030E900FC
:1017A20000302300E3000030E2000030E1000030AE
:1017B200E0002200DE01DF010F102000C501C50A92
:1017C200450821005E02031CFE2B20004508BD00D7
:1017D2000130BD35FF3E031DEA2B3D35CC3E860070
:1017E200013087000030C03F0030C13FC23FC33FDD
:1017F2000130BD003D08C507E12B22005508031D3D
:10180200092CD501D50A2000EA012200C601C70130
:1018120021005A0822004702031D132C21005908F7
:1018220022004602031C080020006A08031D08006B
:1018320021005A082200C700210059082200C600D0
:101842000D1221006D0303192E2C01302000A2007D
:101852000030A3009E317E26080001302000B40033
:101862000030B5009F31062708002100E61B452CF9
:101872006608031D08006508031D08001B3063028B
:101882000630643B0318080020006A08031D0800A4
:1018920022005A0303190800DA01DA0A2100E61BC2
:1018A200662C6608031D5E2C6508031D5E2C9430B1
:1018B20063020430643B031C662C0030E6000030F7
:1018C200E5000430E4009430E3005E082000BD002F
:1018D200BE013D08C3003E08C40022006908803AE8
:1018E200803C031D772C680821005E02031CA92C92
:1018F200210063082300E007210064082300E13D82
:10190200210065082300E23D210066082300E33D33
:10191200220068082000BD000130BD35FF3E031DD6
:101922008E2C3D35CC3E86000130870021006308B5
:10193200C03F6408C13F6508C23F6608C33F22003A
:1019420069082000C400220068082000C300252D79
:1019520000302300E3000030E2000030E1000030FC
:10196200E0002000C501C50A21005E0820004502F2
:101972000318FF2C4508BD000130BD35FF3E031D95
:10198200BE2C3D35043ECC3E860001308700403FF0
:10199200BE00413FBF00423FC000433FC100450877
:1019A200C2000130C235FF3E031DD32C4235CC3E6E
:1019B2008600013087003E08C03F3F08C13F400813
:1019C200C23F4108C33F4508BD000130BD35FF3E5F
:1019D200031DE72C3D35CC3E860001308700403F99
:1019E2002300E007413FE13D423FE23D433FE33D0B
:1019F20001302000BD003D08C507B52C21005E085E
:101A02002000BD000130BD35FF3E031D042D3D35D4
:101A1200CC3E86000130870021006308C03F640885
:101A2200C13F6508C23F6608C33F63082300E00761
:101A3200210064082300E13D210065082300E23D06
:101A4200210066082300E33D20004308AE0044085D
:101A5200AF00890D893B8909B000B10023006308FA
:101A62002000B500230062082000B40023006108B2
:101A72002000B300230060082000B2009531C32586
:101A8200200031082100CC00200030082100CB00CA
:101A920020002F082100CA0020002E082100C900C2
:101AA20001302200DE000030DF0000302100E600BD
:101AB2000030E5000030E4000030E3000130220095
:101AC200E8070030E93D0800193021006F02031CCD
:101AD20008002200DA01EC0100302000A200A3007D
:101AE2009E317E262200C601C701D5011930200091
:101AF200BD003D082100EF00080022340834FC3408
:101B02000734D8340734B534073493340734723485
:101B12000734523407343434073416340734F93472
:101B22000634DD340634C2340634A83406348F3425
:101B32000634763406345E340634473406343034A0
:101B420006341A34063405340634F0340534DC34F1
:101B52000534C8340534B5340534A334053490341F
:101B620005347F3405346D3405345C3405344C342B
:101B720005343C3405342C3405341D3405340E341C
:101B82000534FF340434F1340434E2340434D534FB
:101B92000434C7340434BA340434AD340434A134C4
:101BA200043494340434883404347D340434713479
:101BB2000434663404345A3404345034043445341E
:101BC20004343A34043430340434263404341C34B7
:101BD20004341234043409340434FF340334F63444
:101BE2000334ED340334E4340334DC340334D334C7
:101BF2000334CB340334C2340334BA340334B2343E
:101C02000334AA340334A23403349B3403349334AC
:101C120003348C340334853403347E340334773410
:101C220003347034033469340334623403345C346F
:101C32000334553403344F340334483403344234C8
:101C420003343C34033436340334303403342A341A
:101C52000334243403341F34033419340334133467
:101C620003340E3403340934033403340334FE34AE
:101C72000234F9340234F4340234EF340234EA34F4
:101C82000234E5340234E0340234DB340234D73433
:101C92000234D2340234CD340234C9340234C4346E
:101CA2000234C0340234BC340234B7340234B334A4
:101CB2000234AF340234AB340234A6340234A234D8
:101CC20002349E3402349A34023497340234933408
:101CD20002348F3402348B34023487340234843435
:101CE2000234803402347C34023479340234753460
:101CF2000234723402346E3402346B340234673488
:101D0200023464340234613402345E3402345A34AC
:101D120002345734023454340234513402344E34CF
:101D220002344B34023448340234453402344234EF
:101D320002343F3402343C3402343934023436340F
:101D4200023433340234303402342E3402342B342D
:101D52000234283402342534023423340234203449
:101D620002341E3402341B34023418340234163462
:101D7200023413340234113402340E3402340C347B
:101D820002340A3402340734023405340234023491
:101D9200023400340234FE340134FB340134F934A9
:101DA2000134F7340134F5340134F2340134F034BF
:101DB2000134EE340134EC340134EA340134E834D1
:101DC2000134E6340134E3340134E1340134DF34E4
:101DD2000134DD340134DB340134D9340134D734F5
:101DE2000134D5340134D3340134D2340134D03403
:101DF2000134CE340134CC340134CA340134C83411
:101E02000134C6340134C4340134C3340134C1341E
:101E12000134BF340134BD340134BC340134BA342A
:101E22000134B8340134B6340134B5340134B33436
:101E32000134B1340134B0340134AE340134AC3441
:101E42000134AB340134A9340134A8340134A6344A
:101E52000134A4340134A3340134A1340134A03454
:101E620001349E3401349D3401349B3401349A345C
:101E72000134983401349734013495340134943464
:101E820001349234013491340134903401348E346B
:101E920001348D3401348B3401348A340134893471
:101EA2000134873401348634013485340134833477
:101EB200013482340134813401347F3401347E347C
:101EC20001347D3401347B3401347A340134793481
:101ED2000134783401347634013475340134743485
:101EE20001347334013471340134703401346F3489
:101EF20001346E34013400340034003400340034D0
:101F020000340034003400340034003400340A3425
:101F12000034143400341E34003428340034323493
:101F220000343A340034423400344A3400345034F9
:101F32000034563400345B3400345F34003461348E
:101F42000034633400346434003463340034613464
:101F520000345F3400345B3400345634003450347F
:101F620000344A340034423400343A3400343234D7
:101F72000034283400341E340034143400340A345B
:101F8200003400340034F634FF34EC34FF34E234ED
:101F9200FF34D834FF34CE34FF34C634FF34BE3479
:101FA200FF34B634FF34B034FF34AA34FF34A534DE
:101FB200FF34A134FF349F34FF349D34FF349C340A
:101FC200FF349D34FF349F34FF34A134FF34A534F1
:101FD200FF34AA34FF34B034FF34B634FF34BE3495
:101FE200FF34C634FF34CE34FF34D834FF34E23405
:0E1FF200FF34EC34FF34F634FF340034003496
:102006002000A5002508A400A40DA40D21001D088C
:10201600200024068339240621009D009D149D1866
:1020260012281C082000A30021001B082000A20083
:1020360008002000B1018E30AE002E08B000AD1FA2
:102046003128AA09AB09AC09AD09AA0A0319AB0ADA
:102056000319AC0A0319AD0AB101B10AFF302D0507
:10206600031941280130AD36AC0CAB0CAA0C890B18
:1020760036280130AE002E08B00731282A08A20003
:102086002B08A3002C08A4003008AE002E08A500DB
:102096003108AF002F08A60094317C2420002208C6
:1020A600AA002308AB002408AC0008000034003462
:1020B60015340034293400343B3400344A340034B7
:1020C600573400345F3400346334003463340034EE
:1020D6005F340034573400344A3400343B3400341F
:1020E600293400341534003400340034EB34FF3422
:1020F600D734FF34C534FF34B634FF34A934FF3443
:10210600A134FF349D34FF349D34FF34A134FF34B1
:10211600A934FF34B634FF34C534FF34D734FF3422
:10212600EB34FF3400340034643400346434003457
:102136006434003464340034643400346434003469
:102146006434003464340034643400346434003459
:102156006434003464340034643400346434003449
:10216600643400349C34FF349C34FF349C34FF3494
:102176009C34FF349C34FF349C34FF349C34FF344D
:102186009C34FF349C34FF349C34FF349C34FF343D
:102196009C34FF349C34FF349C34FF349C34FF342D
:1021A6006434003400340034073400340D34003411
:1021B600143400341B340034213400342834003401
:1021C6002F340034353400343C3400344334003486
:1021D6004934003450340034573400345D3400340C
:1021E6009C34FF34A334FF34A934FF34B034FF34B5
:1021F600B734FF34BD34FF34C434FF34CB34FF343A
:10220600D134FF34D834FF34DF34FF34E534FF34BF
:10221600EC34FF34F334FF34F934FF340034003443
:10222600003400340D3400341B34003428340034B8
:102236003534003443340034503400345D340034D3
:102246005D340034503400344334003435340034C3
:10225600283400341B3400340D3400340034003488
:10226600F334FF34E534FF34D834FF34CB34FF3451
:10227600BD34FF34B034FF34A334FF34A334FF3409
:10228600B034FF34BD34FF34CB34FF34D834FF349C
:10229600E534FF34F334FF34003400341E302000BC
:1022A600B4003408B6006430A2000030A300013048
:1022B600A4000030A5009431282491316430200018
:1022C600A2000030A3009F31C527913120003608B7
:1022D600B400B5013408AE003508AF009F3193272E
:1022E600913100302000A200A3000130A40000308C
:1022F600A50094312824913100302000A200A300CB
:102306009F31C527913120003608B400B501340845
:10231600AE003508AF009F319327080022001D103C
:1023260021000E118E1026000D108D110D122100A8
:10233600101390121012901110110F3025009304F3
:102346000F309A040F30260093040F309A040F3092
:102356009E040F302C0093040F3096040F3099041E
:102366000F309C040F309F0425009D019E019F01A4
:1023760000309200323091000030990064309800AD
:102386000030260092009630910000309900C83047
:1023960098009D31D52591319D31CE25080000301C
:1023A6002000B1000030B0000330AF00E830AE00CE
:1023B6000C30C500F230C6000130C7000030C8003E
:1023C6004408A5004308A4004208A3004108A2004F
:1023D6004008A9003F08A8003E08A7003D08A6003F
:1023E6009F316327913120002208C5072308C63D87
:1023F6002408C73D2508C83D4808B5004708B4006D
:102406004608B3004508B2009531C32520003108BF
:10241600C0003008BF002F08BE002E08BD0008000F
:102426007D082000B600B70135083706031D1D2AB2
:1024360034083606031908003408B6003608FD00CD
:10244600340C2200031C0D1103180D158D112000EC
:10245600340C2700031C0D1103180D152000340839
:102466003504031D392A27008D143B2A27008D10B9
:1024760014302000AE000030AF009F319327923118
:1024860027000D118D107D082000B600B701360813
:10249600A2003708A30080310220923114302000B8
:1024A600AE000030AF009F319327080020000F1BBD
:1024B600632A2200520803196E2A0130D2026E2ABC
:1024C60019302200520203186E2A01302000B4008F
:1024D60034082200D2075208031D080021005108C3
:1024E600013ED1000030523DD2005208803A200011
:1024F600B40080303402031D832A073021005102C4
:10250600031C8A2A01302100D1000030D2002100AC
:1025160052082000A300210051082000A2009F318C
:10252600C527923120000F1F952A1430AE000030C7
:10253600AF009F319327080027000C108C100C1158
:102546008C110C12CA2A720C031C0C1003180C14E2
:102556000800720C031C8C1003188C140800720CF3
:10256600031C0C1103180C150800720C031C8C11AB
:1025760003188C150800720C031C0C1203180C1699
:1025860008000C148C140C158C150C160800710818
:10259600003A0319CF2AE62A7008013A0319A62A37
:1025A600033A0319AC2A013A0319B22A073A031966
:1025B600B82A013A0319BE2A033A0319E62A623AEF
:1025C6000319C42AE62A080020008F1AF12A2200DD
:1025D6005B080319FC2A0130DB02FC2A19302200B1
:1025E6005B020318FC2A01302000B40034082200E4
:1025F600DB075B08031D080021005B08013EDB00CA
:1026060000305C3DDC005C08803A2000B40080307D
:102616003402031D112B073021005B02031C182B0B
:1026260001302100DB000030DC0021005C082000C6
:10263600A30021005B082000A2000130A4000030A6
:10264600A50094312824923101302200DE000030AA
:10265600DF0020008F1E2C2B1430AE000030AF00A0
:102666009F319327080007340034073400340B34B5
:1026760000340F3400341334003414340034153469
:10268600003415340034163400341734003418344A
:102696000034193400341A3400341B3400341C342A
:1026A60000341D3400341E34003420340034213408
:1026B60000342334003425340034273400342A34DB
:1026C60000342D340034303400343334003437349D
:1026D60000343C340034423400344834003450343E
:1026E60000345B34003467340034783400348E347C
:1026F6000034AE340034DF340034FF340034FF34A9
:102706000034FF340034FF340034FF340034FF3427
:102716000034DF340034AE3400348E340034783480
:102726000034673400345B340034503400344834A9
:102736000034423400343C3400343734003433340B
:102746000034303400342D3400342A340034273435
:10275600003425340034233400342134003420344A
:1027660000341E3400341D3400341C3400341B3451
:1027760000341A3400341934003418340034173451
:10278600003416340034153400341534003414344F
:102796000034133400340F3400340B34003407345F
:1027A6000034073400342000A801A31FE12BA2093E
:1027B600A309A20A0319A30AA801A80AA51FEC2BBC
:1027C600A409A509A40A0319A50A0130A60026082A
:1027D600A806A901AA012208230403191B2CA70194
:1027E600A70AA31B002C0130A235A30D890BF72BDA
:1027F6000130A6002608A707F42B0130A935AA0D3B
:10280600890B012C23082502031D0B2C2208240208
:10281600031C122C2208A4022308A53B291401300C
:10282600A336A20C890B132C0130A702031D002C22
:1028360028080319232CA909AA09A90A0319AA0A0F
:102846002A08A3002908A200080027000C108C10F3
:102856000C118C110C125E2C2000240C2700031C7A
:102866000C1003180C1408002000240C2700031C6D
:102876008C1003188C1408002000240C2700031C5D
:102886000C1103180C1508002000240C2700031C4B
:102896008C1103188C1508002000240C2700031C3B
:1028A6000C1203180C16080027000C148C140C15B7
:1028B6008C150C16080020002308003A0319642C16
:1028C6007B2C2208013A03192F2C033A0319372CC3
:1028D600013A03193F2C073A0319472C013A031909
:1028E6004F2C033A03197B2C623A0319572C7B2C85
:1028F6000800200025080319852C24082304220437
:10290600031D962C0030A2000030A3000030A40066
:1029160008000130A7002708A5070130A436A30C3C
:10292600A20C890B912CFE3024050319AF2C8C2C9C
:102936000130A7002708A5070130A20700300318B9
:102946000130A307003003180130A4070130A43674
:10295600A30CA20C890BAA2CFF3024050319BC2C4E
:102966009B2C0130A5020130A235A30DA40D890BC5
:10297600B72CA31BC22C023025020318B42C251831
:10298600CA2CFF30A2057F30A305FF30A405031033
:10299600A50C2508A700A801A9011030A735A80D88
:1029A600A90D890BD12C2708A2042808A3042908FD
:1029B600A404260803190800A41708002000B6007E
:1029C6003603031D162D0530B7000030B800B81BBE
:1029D60008003808A3003708A2000130A400003020
:1029E600A50094312824943120003709B400380911
:1029F600B500B40A0319B50A3408063EA200003031
:102A0600353DA3009F31C527943105302000AE0027
:102A16000030AF009F3193279431FF302000B70775
:102A2600FF30B83DEA2C0130B9000030BA003A0850
:102A3600803AB40080303402031D232D073039025A
:102A46000318080020003A08A3003908A200013044
:102A5600A4000030A50094312824943120003909BF
:102A6600B4003A09B500B40A0319B50A3408063E9B
:102A7600A2000030353DA3009F31C52794310530B3
:102A86002000AE000030AF009F3193279431013013
:102A96002000B9070030BA3D1A2D81302000A2006F
:102AA6001F30A3009E319526953120002308210072
:102AB600DC00200022082100DB0082302000A2007A
:102AC6001F30A3009E319526953120002308210052
:102AD600D200200022082100D1005C08803A2000A4
:102AE600A60080302602031D7B2D073021005B02E5
:102AF600031C822D06302100DB000030DC002100A3
:102B06005208803A2000A60080302602031D8E2D32
:102B1600073021005102031C952D06302100D100FB
:102B26000030D2007D08031D9B2D27008D149D2D9E
:102B360027008D107D0C031C0D1103180D152200A6
:102B46000D118D110D128D128D100D1021005C08C6
:102B56002000A30021005B082000A2000130A40091
:102B66000030A50094312824953121005208200018
:102B7600A300210051082000A2009F31C5270800AC
:102B86002000B801B11FD42DAE09AF09B009B109B3
:102B9600AE0A0319AF0A0319B00A0319B10AB8013C
:102BA600B80AB51FE52DB209B309B409B509B20AC9
:102BB6000319B30A0319B40A0319B50A0130B6009A
:102BC6003608B8060030BC000030BB000030BA0042
:102BD6000030B900310830042F042E0403192E2EBC
:102BE600B701B70AB11B032E0130AE35AF0DB00DDC
:102BF600B10D890BF82D0130B6003608B707F52D53
:102C06000130B935BA0DBB0DBC0D890B042E310848
:102C16003502031D182E30083402031D182E2F0806
:102C26003302031D182E2E083202031C232E2E08F3
:102C3600B2022F08B33B3008B43B3108B53B391418
:102C46000130B136B00CAF0CAE0C890B242E01301E
:102C5600B702031D032E380803193C2EB909BA0919
:102C6600BB09BC09B90A0319BA0A0319BB0A031935
:102C7600BC0A3C08B1003B08B0003A08AF0039086E
:102C8600AE00080021002008A4002108A5002208A3
:102C9600A6000310250D260DA7002708AD002D0858
:102CA600031D5E2E0030A3000030A2000030A100FC
:102CB6000030A00008002008A4002108A500220872
:102CC600A6001730A636A50CA40C890B652E240881
:102CD600A7002708A800A117FF30A005FF30A1050F
:102CE6000030A2052008A9002108AA002208AB008E
:102CF600AC018E30AD02AD1F9C2E2D08803A8F3E62
:102D060003188E2E0030A3000030A2000030A10070
:102D16000030A00008000130AC36AB0CAA0CA90CA0
:102D2600890B8F2E0130A4002408AD070319B52E98
:102D36008E2E18302D02031CB22E0030A300003058
:102D4600A2000030A1000030A00008000130A93523
:102D5600AA0DAB0DAC0D890BAA2E0130AD022D08C4
:102D6600031DA92E28080319C32EA909AA09AB0910
:102D7600AC09A90A0319AA0A0319AB0A0319AC0A72
:102D86002C08A3002B08A2002A08A1002908A000ED
:102D9600080020005D08AA005E08AB005F08AC00D2
:102DA6005A08A2005B08A3005C08A4009D31DE253A
:102DB600963120002208AD002308AE002408AF009B
:102DC6008A31A022963120002A08C7002B08C800A5
:102DD6002C08C9006308AA006408AB006508AC00AB
:102DE6006008A2006108A3006208A4009D31DE25E8
:102DF600963120002208AD002308AE002408AF005B
:102E06008A31A022963120002A08B7002B08B80084
:102E16002C08B9005708AA005808AB005908AC009E
:102E26005A08A2005B08A3005C08A4009D31DE25B9
:102E3600963120002208AD002308AE002408AF001A
:102E46008A31A022963120002A08BA002B08BB003E
:102E56002C08BC0088314220963120003708CA0071
:102E66003808CB003908CC00973157279631200017
:102E76004708E6004808E7004908E8006008AA0095
:102E86006108AB006208AC006608AD006708AE00DA
:102E96006808AF008A31A02220002A08D7002B0834
:102EA600D8002C08D900080020004A08CD004B089D
:102EB600CE004C08CF0003104E0D4F0DD000500829
:102EC600D5005508031D6E2F0030C7000030C8001E
:102ED6000030C90008004708CD004808CE00490860
:102EE600CF0003104E0D4F0DD0005008D6005608E7
:102EF600031D842F0030C7000030C8000030C90011
:102F060008000030D2000030D3000030D4008930F1
:102F16005607CD004D08D5024A08CD004B08CE0015
:102F26004C08CF001030CF36CE0CCD0C890B962F27
:102F36004D08D0005008D6004708CD004808CE00FE
:102F46004908CF001030CF36CE0CCD0C890BA62FFA
:102F56004D08D0005008D6068030CD004D08D60565
:102F6600CB17FF30CA05FF30CB050030CC05C8179C
:102F7600FF30C705FF30C8050030C9051830CD0041
:102F86004D08D1000130D235D30DD40D890BC62F93
:102F960049084C02031DD52F48084B02031DD52FA7
:102FA60047084A02031CDE2F4708CA024808CB3BE3
:102FB6004908CC3B52140130CA35CB0DCC0D890BD8
:102FC600DF2F0130D102031DC52F5208A20053087E
:102FD600A3005408A4005508CD004D08A5005608C6
:102FE600CE004E08A60094317C2420002208C7009B
:0A2FF6002308C8002408C9000800E1
:103B8C00FC302100990508002000A201A3010800C7
:103B9C0021009512951115109514151108008730F8
:103BAC0020009C05FC309C05FF309B001C15080078
:103BBC002000240823042204031908008030A406E2
:103BCC00080021009E171E088F3960389E00FC30BB
:103BDC009E051D140800FE0012001E000130FE029E
:103BEC000030FF3B7F087E0403190034F22D640083
:103BFC00800101310130FE020030FF3B7F087E0462
:103C0C0003190034FE2D9D31CA259E312000230856
:103C1C00B9002208B8003908B5003808B400923150
:103C2C00132208006434003401340034D0340734D7
:103C3C00D0340734D0340734013400340134003428
:103C4C000134FF34FF34003022000D1A0130A00083
:103C5C0000300D190130A20000308D1A0130A10086
:103C6C0000308D190130A30008002200200C031C29
:103C7C000D1203180D16220C031C0D1103180D1533
:103C8C00210C031C8D1203188D16230C031C8D1193
:103C9C0003188D150800D034073400340034D034A8
:103CAC0007340034003406340034D0340734D034B4
:103CBC000734D0340734E834033406340034143475
:103CCC00043420006908A400A50123082506031D5F
:103CDC00712E22082406031908002208A4002408C7
:103CEC00E900220C2200031C8D1103188D1508000D
:103CFC0020006A08A400A50123082506031D882EB0
:103D0C0022082406031908002208A4002408EA004B
:103D1C00220C2200031C8D1203188D160800003093
:103D2C008B1B01302000A4008B1322082300910070
:103D3C002000230823009200151315140000000026
:103D4C002000240C031C8B1303188B17230014085E
:103D5C002000A300230013082000A200080020006C
:103D6C00A301A4012408803AA20080302202031D82
:103D7C00C12E0C3023020318080020002308A200D7
:103D8C000130A235FF3E031DC72E2235A03E860012
:103D9C00013087000030C03F0030C13FC23FC33FFD
:103DAC000130A3070030A43DB82E9E3129269E3148
:103DBC0001302000BB003B082100EE0022000D1258
:103DCC000D118D128D110D108D1000309431E124D8
:103DDC009E3100309431E1249E3101309431E12444
:103DEC009E3101309431E1249E31913151219E312B
:103DFC00913151219E312100EE019E313B2608006C
:103E0C0020006B08B600B70135083706031D102FCC
:103E1C0034083606031908003408B6003608EB00DF
:103E2C0034033504031D1D2F22000D120D1120002B
:103E3C00340C2200031C8D1003188D142000340C3C
:103E4C002200031C0D1003180D1414302000AE00BA
:103E5C000030AF009F319327080021000D108D100A
:103E6C000D118D110D128D120E140E128E120F10CB
:103E7C008F100F118F110F128F160F178F17101421
:103E8C009014230010109010200010109010260099
:103E9C000C108C100C118C110C128C120C1728009D
:103EAC000C1326008D100D119D31E7259F3191319A
:103EBC0091218B178B160B11080000302000AD00E0
:103ECC000030AC000030AB000030AA00221C762F72
:103EDC002608AA072708AB3D2808AC3D2908AD3DAC
:103EEC000130A635A70DA80DA90D890B772F013030
:103EFC00A536A40CA30CA20C890B7E2F2508240438
:103F0C0023042204031D6C2F2D08A5002C08A400EB
:103F1C002B08A3002A08A200080000302000B300E0
:103F2C000030B2000030B1000030B0002E08A2000A
:103F3C002F08A300A401A5010030A9000030A8009F
:103F4C000330A700E830A6009F3163279F31200083
:103F5C002508B3002408B2002308B1002208B000E1
:103F6C00330832043104300403190800FF30B00761
:103F7C00FF30B13DFF30B23DFF30B33DB62F2200D4
:103F8C000F108F100F118F110F12E22F22000F1430
:103F9C00080022008F14080022000F1508002200D0
:103FAC008F15080022000F16080022000F148F1422
:103FBC000F158F150F16080020002308003A03195F
:103FCC00E82FFF2F2208013A0319CC2F033A0319CB
:103FDC00CF2F013A0319D22F073A0319D52F013AE3
:103FEC000319D82F033A0319FF2F623A0319DB2F59
:043FFC00FF2F08008B
:020000040001F9
:04000E00E2FFFFDF2F
:00000001FF
