:100000008131F029FF34FF347E14803120007F08D5
:10001000FC000B1D122921004E082000A100210028
:100020004D082000A0000130F4000030F500003041
:10003000F6000030F70021006508F4076608F53D7A
:100040006708F63D6808F73D7708E8007608E7009E
:100050007508E6007408E5000130F4000030F50092
:100060000030F6000030F7005D08F4075E08F53D4B
:100070005F08F63D6008F73D7708E0007608DF008E
:100080007508DE007408DD000130F4000030F50072
:100090000030F6000030F7006108F4076208F53D13
:1000A0006308F63D6408F73D7708E4007608E3004E
:1000B0007508E2007408E1000130F4000030F5003A
:1000C0000030F6000030F70022002408F40725086D
:1000D000F53D2608F63D2708F73D7708A700760886
:1000E000A6007508A5007408A40001302300E407E9
:1000F0000030E53D0030E63D0030E73D21006B0378
:10010000031D992801302200B8070030B93D390895
:1001100021005802031D90282200380821005702B0
:100120000318992858082200B90021005708220016
:10013000B80022005303031DB3280130C407003068
:10014000C53D450821005802031DAA282200440885
:10015000210057020318B32858082200C5002100C7
:1001600057082200C4000B1122002A032B04031D90
:10017000122921006008803AF4005008803A740285
:10018000031DCC284F085F02031DCC284E085E02D9
:10019000031DCC284D085D02031C12294908F400F8
:1001A0004A08F5004B08F6004C08F7006509F8000E
:1001B0006609F9006709FA006809FB00F80A0319E3
:1001C000F90A0319FA0A0319FB0A7808F4077908EF
:1001D000F53D7A08F63D7B08F73DF71BFC287708CC
:1001E000031D12297608031D12297508031D122903
:1001F00004307402031812296509F4006609F50039
:10020000F40A0319F50A49087407F6004A08753D0F
:10021000F7005D0876072000A00021005E08773D0A
:100220002000A10020006A08031D63296B08031D3C
:10023000632921006808803AF4004C08803A74026F
:10024000031D2C294B086702031D2C294A0866024E
:10025000031D2C2949086502031C512922000D1693
:1002600000302100E8000030E7000030E6000030F8
:10027000E50022004A034B04031D512935082500DF
:10028000920022003408250091002200CA01CB010F
:1002900021005008E0004F08DF004E08DE004D0846
:1002A000DD002100E81B63296808031D6129670838
:1002B000031D61296608031D61291E306502031CA8
:1002C000632922000D1220002008F4002108F50007
:1002D0000030F51BFF30F600F70021006008803A7F
:1002E000F8007708803A7802031D802976085F02BB
:1002F000031D802975085E02031D802974085D02B4
:10030000031CA1296C08031D90295A08F100590803
:10031000F0000130F2000030F3009231C42280314D
:1003200021004E082000A10021004D082000A0005F
:1003300000302100E0000030DF000030DE0000303F
:10034000DD00E01BBD296008031DB0295F08031D07
:10035000B0295E08031DB02914305D02031CBD29BD
:100360006C08031DBD295A08F1005908F00000303F
:10037000F200F3009231C422803122005703031DA2
:10038000E6290130F4007408D6075B08803A803C07
:10039000031DCC295A085602031CE42922008D149F
:1003A0005B08F5005A08F400F435F50D7508803A3D
:1003B000F60080307602031DDF2956087402031808
:1003C000EB292200D601EB292200EA29560803195D
:1003D000EB29D6018D107C082000FF007E1009005B
:1003E0008131F229EB01DD308400003085001130CD
:1003F000FE000030FF009E3107268131203084004E
:10040000013085003A30FE000030FF009E310726A3
:100410008131A0308400013085004830FE0000307A
:10042000FF009E3107268131A03084000430850012
:100430004030FE000030FF009E31072681317E30C3
:1004400084008D3085006E308600233087000230B6
:10045000FF0082309D31FB258131883100208131C0
:10046000FD00803102208131E9008031032081319B
:10047000EA00473084009E308500C9308600003095
:1004800087000030FF0014309D31FB25813134306E
:1004900084009E3085005A3086000130870000308D
:1004A000FF0013309D31FB2581317930840091307C
:1004B000850020308600023087000030FF003E308B
:1004C0009D31FB2581313B30840091308500A03087
:1004D0008600023087000030FF003E309D31FB2552
:1004E0008131FD308400903085002030860003305B
:1004F00087000030FF003E309D31FB258131F9300F
:10050000840093308500A0308600033087000030DF
:10051000FF0050309D31FB258131A930840093309C
:10052000850020308600043087000030FF00503006
:100530009D31FB258131BF30840090308500203013
:100540008600053087000030FF003E309D31FB25DE
:100550007E1020008231AC2A9D31D92582319F3115
:100560006E2782312000101490140F178F160E146E
:100570008F178731DA2782319E31132682319331EA
:100580000C23823192317E22823193315A2382317F
:1005900088310120823120008F1BEC2A013022009B
:1005A000B0070030B13D3108803A2100BA008030F8
:1005B0003A02031DDE2A1A3022003002031CEF2A01
:1005C00019302200B0000030B1009F31162782316F
:1005D00020008F1BEF2AE82A2200B001B1018931E7
:1005E000BE2182318B319623823100309E319F268D
:1005F0008231200023082200BB00200022082200B4
:10060000BA0001309E319F2682312000230822004B
:10061000BD00200022082200BC0002309E319F262F
:100620008231200023082200BF002000220822007F
:10063000BE0003309E319F26823120002308220015
:10064000C100200022082200C00004309E319F26F5
:100650008231200023082200C3002000220822004B
:10066000C2008D1021005309BA005409BB00BA0A18
:100670000319BB0A22003A0821003A07BC002200F5
:100680003B0821003B3DBD003D08803ABE00803064
:100690003E02031D4D2B04303C0203186C2B21003D
:1006A0005309BA005409BB00BA0A0319BB0A220055
:1006B0003A0821003A07BC0022003B0821003B3DDC
:1006C000BD003D08803ABE007F303E02031D6A2B0C
:1006D000FD303C020318C02B22003B082100D4004F
:1006E00022003A082100D30000302000E300483007
:1006F000E4004330E5008030E0009230E100443017
:10070000E200C030DD007F30DE004430DF0000302A
:10071000DA000030DB000030DC002100540820004B
:10072000AB00210053082000AA009E31F42682313C
:1007300020002A08D7002B08D8002C08D9009631B1
:10074000CC268231200057082100A0002000580844
:100750002100A100200059082100A2009631452661
:10076000823121002308CC002208CB002108CA00D6
:100770002008C90001302200DC000030DD008D14AB
:1007800021005509BA005609BB00BA0A0319BB0A71
:1007900022003C0821003A07BC0022003D0821004D
:1007A0003B3DBD003D08803ABE0080303E02031D47
:1007B000DB2B04303C020318FA2B21005509BA0048
:1007C0005609BB00BA0A0319BB0A22003C082100E3
:1007D0003A07BC0022003D0821003B3DBD003D081A
:1007E000803ABE007F303E02031DF82BFD303C02F4
:1007F00003185C2C22003D082100D60022003C0892
:100800002100D50000302000E3001C30E40042301D
:10081000E5000030E0000030E1000030E200C030D0
:10082000DD007F30DE004430DF000030DA000030D1
:10083000DB000030DC00210056082000AB00210066
:1008400055082000AA009E31F426823120002A0893
:10085000D7002B08D8002C08D9009631CC2682313D
:10086000200057082100A000200058082100A10006
:10087000200059082100A20096314526823121002E
:1008800021082300EB00210020082300EA006A353C
:10089000203E860004308700403F25009800413FFD
:1008A000990023006A35A03E860003308700403F50
:1008B00026009100413F920022005E092100BA000B
:1008C00022005F092100BB00BA0A0319BB0A2200FB
:1008D0003E0821003A07BC0022003F0821003B3DB2
:1008E000BD003D08803ABE0080303E02031D7A2CD8
:1008F00004303C0203189C2C22005E092100BA003F
:1009000022005F092100BB00BA0A0319BB0A2200BA
:100910003E0821003A07BC0022003F0821003B3D71
:10092000BD003D08803ABE007F303E02031D9A2C78
:10093000FD303C020318FB2C22003F08DF003E087C
:10094000DE0000302000E3000030E4000030E5006D
:100950000030E0008030E1004130E200C030DD00D6
:100960007F30DE004430DF000030DA000030DB0092
:100970000030DC0022005F082000AB0022005E088F
:100980002000AA009E31F426823120002A08D700D8
:100990002B08D8002C08D9009631CC2682312000B3
:1009A00057082100A000200058082100A1002000C5
:1009B00059082100A20096314526823121002108E4
:1009C0002300ED00210020082300EC006C35203EC0
:1009D000860004308700403F26009800413F990080
:1009E00023006C35A03E860003308700403F260080
:1009F0009C00413F9D00220060092100BA002200B6
:100A000061092100BB00BA0A0319BB0A2200400891
:100A100021003A07BC002200410821003B3DBD00F7
:100A20003D08803ABE0080303E02031D192D04307F
:100A30003C0203183B2D220060092100BA0022006D
:100A400061092100BB00BA0A0319BB0A2200400851
:100A500021003A07BC002200410821003B3DBD00B7
:100A60003D08803ABE007F303E02031D392DFD3027
:100A70003C020318852D22004108E1004008E000F7
:100A800000302000E3007A30E4004430E50000301C
:100A9000E0007030E1004230E200C030DD007F3025
:100AA000DE004430DF000030DA000030DB000030D0
:100AB000DC00220061082000AB002200600820005A
:100AC000AA009E31F426823120002A08D7002B0884
:100AD000D8002C08D9009631CC2682312000570846
:100AE0002100A000200058082100A1002000590882
:100AF0002100A200963145268231210021082200E2
:100B0000E500210020082200E40022006209210003
:100B1000BA00220063092100BB00BA0A0319BB0A0C
:100B20002200420821003A07BC00220043082100AD
:100B30003B3DBD003D08803ABE0080303E02031DB3
:100B4000A32D04303C020318C52D220062092100A8
:100B5000BA00220063092100BB00BA0A0319BB0ACC
:100B60002200420821003A07BC002200430821006D
:100B70003B3DBD003D08803ABE007F303E02031D74
:100B8000C32DFD303C020318CA2D22004308E300A8
:100B90004208E20022000D1064082100BA00220081
:100BA00065082100BB000030BB1BFF30BC00BD004E
:100BB00022002708803A2100BE003D08803A3E020C
:100BC0002200031DF32D21003C0822002602031DF4
:100BD000F32D21003B0822002502031DF32D2100E7
:100BE0003A0822002402031C1F2F0D14210069085B
:100BF000013EE90000306A3DEA0000302200A70013
:100C00000030A6000030A5000030A40021005103F0
:100C100052040319102E053051065204031D192EDB
:100C20006A08803ABA0080303A02031D222E3D3015
:100C3000212E6A08803ABA0080303A02031D222E23
:100C400020306902031C272E2100E901EA0100304F
:100C50002000E3000030E4000030E5006030E000F8
:100C60009F30E1004430E200C030DD007F30DE0024
:100C70004430DF000030DA000030DB000030DC0000
:100C8000220063082000AB00220062082000AA00B6
:100C90009E31F426823120002A08D7002B08D80084
:100CA0002C08D9009631CC2682312000570821002B
:100CB000A000200058082100A100200059082100B0
:100CC000A200963145268231210021082300E90047
:100CD000210020082300E800C92E21006A08BB007B
:100CE0006908BA00BA35BB0D7630BC002530BD00AE
:100CF0003A083C0786003B083D3D8700403F220004
:100D0000C800413FA32E21006935203E86000230F5
:100D10008700403F2200C800413FA32E21006935D3
:100D2000A03E860002308700403F2200C800413FBD
:100D3000A32E21006935203E860003308700403F06
:100D40002200C800413FC900C62E21006A08BB002E
:100D50006908BA00BA35BB0D7630BC002530BD003D
:100D60003A083C0786003B083D3D8700403F220093
:100D7000C800413FC900FB302300E8000430E9000F
:100D800020000E16E32E2200C801C90120000E1219
:100D9000E32E21005208003A0319CF2EE32E51080A
:100DA000013A03196D2E033A0319832E013A0319F0
:100DB0008E2E073A0319992E013A0319A52E033AEC
:100DC0000319C32EE32E220049082000B800220098
:100DD00048082000B700230069082000BA0023005B
:100DE00068082000B9009031812082312000380845
:100DF0002200C900200037082200C800023020006D
:100E0000A2000030A300220049082000A500220013
:100E100048082000A400943149248231200023088E
:100E20002C009B00200022082C009A000030220099
:100E3000A7000030A6000030A5000030A4005C032D
:100E40005D04031DC22A21004C08D0004B08CF00CE
:100E50004A08CE004908CD004A08AF004908AE0054
:100E60005A08B1005908B0008831F62082312100BB
:100E70002E08CD002F08CE00890D893B8909CF00AF
:100E8000D00001302200CA000030CB00B601B7010B
:100E9000B401B50136083704031D9D2F3508210024
:100EA000BB00220034082100BA00BA35BB0D6E30F9
:100EB000BC002330BD003A083C0786003B083D3D9E
:100EC0008700403FBE00413FBF003E08C0003F08D2
:100ED000C1000030C11BFF30C200C3004D08C40078
:100EE0004E08C5004F08C6005008C7000130C43581
:100EF000C50DC60DC70D890B772F4708803AC8006E
:100F00004308803A4802031D8F2F42084602031D02
:100F10008F2F41084502031D8F2F40084402031CF8
:100F2000972F01302200B6000030B7004A2F013061
:100F30002200B4070030B53D4A2F210050082000A0
:100F4000AD0021004F082000AC0021004E08200019
:100F5000AB0021004D082000AA00903144208231CE
:100F600020002A08CA002B08CB002C08CC00003037
:100F7000C700F030C8004030C90097315727823190
:100F8000200047082100A000200048082100A100FF
:100F9000200049082100A200963145268231210017
:100FA00021082200E500210020082200E400DC01E5
:100FB000DD01C22A2000A301A4012408803AA20076
:100FC00080302202031DE62F0C3023020318080094
:100FD00020002308A2000130A235FF3E031DEC2FA4
:100FE0002235A03E8600013087000030C03F00302F
:100FF000C13FC23FC33F0130A3070030A43DDD2FF6
:10100000FF3420000E183E2801302200B2070030C5
:10101000B33D3308803A2000A20080302202031D35
:1010200014281A3022003202031C08001930220052
:10103000B2000030B30001302000A20022082200DC
:10104000D50703305502031C2F28D5012F288D10FA
:101050002D288D100D143A288D140D103A2855089E
:10106000003A03192728013A03192928033A0319DA
:101070002C283A2820000E1808003A282200B20135
:10108000B301080020003708BD003808BE00390849
:10109000BF0003103E0D3F0DC0004008C1004108D5
:1010A000031D59280030B7000030B8000030B900E7
:1010B00008003A08BD003B08BE003C08BF00031012
:1010C0003E0D3F0DC0004008C6004608031D6F28B6
:1010D0000030B7000030B8000030B9000800460802
:1010E0007B3EBD003D08C1073708BD003808BE0083
:1010F0003908BF001030BF36BE0CBD0C890B7B28F1
:101100003D08C0004008C6003A08BD003B08BE00CC
:101110003C08BF001030BF36BE0CBD0C890B8B28BD
:101120003D08C0004008C6068030BD003D08C60529
:10113000B817BB17FF30BA05FF30BB050030BC0540
:101140000030C2000030C3000030C4000730BD00D2
:101150003D08C500371CB2283A08C2073B08C33D0A
:101160003C08C43D0130B936B80CB70C890BB32824
:101170000130BA35BB0DBC0D890BB9280130C50251
:10118000031DAA280930BD003D08C500371CCE2824
:101190003A08C2073B08C33D3C08C43D0130B9369C
:1011A000B80CB70C890BCF280130C436C30CC20C65
:1011B000890BD5280130C502031DC6284208A200AC
:1011C0004308A3004408A4004108BD003D08A50051
:1011D0004608BE003E08A6009431EF2420002208F5
:1011E000B7002308B8002408B90008002200AA01AB
:1011F000AB0121002F08B6002E08B5000030B70063
:101200008030B8003F30B9001E290030B7004030B0
:101210001029A630B7002A3010290030B70000305E
:10122000B8003F301C29A630B700AA301A29003078
:10123000B7008030B8003E30B90037293108003A95
:101240000319232937293008013A03190529033ADC
:1012500003190929013A03190D29073A031913291A
:10126000013A03191729033A031937293729360890
:101270002000AB00210035082000AA009E31F42692
:10128000883120002A08BA002B08BB002C08BC00BB
:10129000210037082000B700210038082000B800DE
:1012A000210039082000B90088314220883120000F
:1012B00037082100A000200038082100A1002000EC
:1012C00039082100A20096314526883121002108E5
:1012D000B6002008B50037082000C70021003808F4
:1012E0002000C800210039082000C900210036086C
:1012F0002000AB00210035082000AA009E31F42612
:10130000883120002A08CA002B08CB002C08CC000A
:10131000973157278831200047082100B20020006C
:1013200048082100B300200049082100B4002F081C
:101330002000AB0021002E082000AA009E31F426D8
:10134000883120002C0821003406031DB12920001B
:101350002B0821003306031DB12920002A08210093
:1013600032060319B82901302200AA000030AB0070
:1013700021003608AF003508AE00080020009018A4
:10138000D42922004D08803A2000B800803038026D
:10139000031DCD29013022004C02031CE729FF3038
:1013A0002200CC07FF30E62922004D08803A2000B9
:1013B000B80080303802031DE029193022004C02A9
:1013C0000318E72901302200CC070030CD3D220070
:1013D0004C084D04031D452A21006B08031DF52907
:1013E000EB01EB0A2200B801B901210058082200E4
:1013F0003902031DFF292100570822003802031C6F
:101400001E2A20006908031D1E2A6B08031D1E2AC0
:1014100022000D1153030319162A01302000A200E7
:101420000030A3009E31712689311E2A0130200030
:10143000B4000030B5009F314127893120006B088E
:10144000031D412A6908031D412A7D03031D342A17
:10145000220066036704031D412AEB01EB0A0130F9
:10146000CE000030CF00412A220051030319412A47
:10147000EB01D101D10ACE01CF012000E901210009
:10148000EB012200E601E70108004D08803A200048
:10149000B80080303802031D502A193022004C0257
:1014A000031C080020006B03031D5F2A22006B0849
:1014B0002000B800B9013808B40039087A2A22009F
:1014C00051030319672A20006903031D6C2A0130A8
:1014D0002000B40000307A2A22004E034F04031D7E
:1014E0007E2A20006908031D7E2A6B08031D7E2AC0
:1014F0000030B400B5009231382289317D0C2200D1
:10150000031C0D1103180D1500302000A200A300CC
:101510009E317126893100302000B400B5009F3122
:1015200041272100EB012200D101CE01CF01013082
:10153000E6000030E7001930CC000030CD00080094
:1015400020002A08B0002B08B1002C08B2000310BC
:10155000310D320DB3003308B6002D08B0002E084F
:10156000B1002F08B2000310310D320DB300330863
:10157000B50036080319C82A350836020318CF2AE1
:101580003603FF3A3507B00019303002031CCF2A6A
:101590002D08AA002E08AB002F08AC000800350863
:1015A00003190800360835020318DE2A3503FF3A0E
:1015B0003607B00019303002031808000630B000BA
:1015C0003008B400AC1BB417AF1B3417AB17FF3097
:1015D000AA05FF30AB050030AC05AE17FF30AD05F6
:1015E000FF30AE050030AF053508360203181A2B60
:1015F0000130AD35AE0DAF0D890BF92A0130B502C2
:10160000350836060319152B0130B40234080739A2
:101610000319152BF82A0130AC36AB0CAA0C890B38
:101620000C2B0130B0003008B60736083506031918
:101630003F2B0B2B3608350203183F2B0130AA3500
:10164000AB0DAC0D890B1F2B0130B60235083606E9
:1016500003193B2B0130B4023408073903193B2B23
:101660001E2B0130AF36AE0CAD0C890B322B013086
:10167000B0003008B50736083506031D312BB41FFE
:10168000512BFF30AA06FF30AB06FF30AC0601300D
:10169000AA07003003180130AB07003003180130EF
:1016A000AC07341F632BFF30AD06FF30AE06FF30B2
:1016B000AF060130AD07003003180130AE0700302F
:1016C00003180130AF07B4012A08AD072B08AE3D5F
:1016D0002C08AF3DAF1F7E2BFF30AD06FF30AE06AE
:1016E000FF30AF060130AD07003003180130AE0700
:1016F000003003180130AF07B401B40A2D08A2006E
:101700002E08A3002F08A4003608B0003008A5005A
:101710003408B1003108A6009431EF2420002208DB
:10172000AA002308AB002408AC0008002000C00178
:101730001018A12B21006D080319AC2B0130ED020C
:10174000AC2B193021006D020318AC2B01302000A6
:10175000B80038082100ED076D08031D652DE41B56
:10176000362C6408031DBD2B6308031DBD2B1B30E5
:1017700061020630623B031C362C22005803031919
:10178000FE2BD801D80A00302100E4000030E3002D
:101790000030E2000030E10001302200E8000030BB
:1017A000E90000302300E3000030E2000030E100F7
:1017B0000030E0002200DC01DD010F102000C0013C
:1017C000C00A400821005C02031CFE2B20004008D8
:1017D000B8000130B835FF3E031DEA2B3835CC3E4A
:1017E0008600013087000030C03F0030C13FC23F5B
:1017F000C33F0130B8003808C007E12B220053086E
:10180000031D092CD301D30A2000EA012200C401E0
:10181000C5012100580822004502031D132C210098
:10182000570822004402031C080020006A08031D18
:101830000800210058082200C50021005708220096
:10184000C4000D1221006B0303192E2C013020005F
:10185000A2000030A3009E3188260800013020003D
:10186000B4000030B5009F31412708002100E41B7F
:10187000452C6408031D08006308031D08001B3085
:1018800061020630623B0318080020006A08031D4D
:1018900008002200580303190800D801D80A2100C3
:1018A000E41B662C6408031D5E2C6308031D5E2C7C
:1018B000943061020430623B031C662C0030E4006B
:1018C0000030E3000430E2009430E1005C082000C6
:1018D000B800B9013808BE003908BF002200690805
:1018E000803A803C031D772C680821005C02031CB1
:1018F000A92C210061082300E007210062082300D1
:10190000E13D210063082300E23D2100640823003B
:10191000E33D220068082000B8000130B835FF3EE2
:10192000031D8E2C3835CC3E860001308700210007
:101930006108C03F6208C13F6308C23F6408C33FFB
:10194000220069082000BF00220068082000BE00B5
:10195000252D00302300E3000030E2000030E100DC
:101960000030E0002000C001C00A21005C08200017
:1019700040020318FF2C4008B8000130B835FF3E84
:10198000031DBE2C3835043ECC3E86000130870056
:10199000403FB900413FBA00423FBB00433FBC005B
:1019A0004008BD000130BD35FF3E031DD32C3D3541
:1019B000CC3E8600013087003908C03F3A08C13F5D
:1019C0003B08C23F3C08C33F4008B8000130B8356F
:1019D000FF3E031DE72C3835CC3E860001308700E2
:1019E000403F2300E007413FE13D423FE23D433FAE
:1019F000E33D01302000B8003808C007B52C2100B5
:101A00005C082000B8000130B835FF3E031D042DEE
:101A10003835CC3E86000130870021006108C03F88
:101A20006208C13F6308C23F6408C33F61082300E6
:101A3000E007210062082300E13D21006308230044
:101A4000E23D210064082300E33D20003E08A80099
:101A50003F08A900890D893B8909AA00AB00230032
:101A600063082000AF00230062082000AE002300BE
:101A700061082000AD00230060082000AC00953113
:101A8000C32520002B082100CC0020002A082100BB
:101A9000CB00200029082100CA00200028082100CE
:101AA000C90001302200DC000030DD0000302100E0
:101AB000E4000030E3000030E2000030E1000130DB
:101AC0002200E8070030E93D0800193021006D02CE
:101AD000031C08002200D801EC0100302000A20005
:101AE000A3009E3188262200C401C501D30119300C
:101AF0002000B80038082100ED0008002234083426
:101B0000FC340734D8340734B534073493340734FD
:101B100072340734523407343434073416340734FB
:101B2000F9340634DD340634C2340634A8340634BD
:101B30008F340634763406345E3406344734063443
:101B4000303406341A34063405340634F03405349F
:101B5000DC340534C8340534B5340534A3340534D5
:101B6000903405347F3405346D3405345C340534E9
:101B70004C3405343C3405342C3405341D340534E0
:101B80000E340534FF340434F1340434E2340434C4
:101B9000D5340434C7340434BA340434AD34043492
:101BA000A134043494340434883404347D3404344B
:101BB00071340434663404345A34043450340434F4
:101BC000453404343A340434303404342634043490
:101BD0001C3404341234043409340434FF34033420
:101BE000F6340334ED340334E4340334DC340334A6
:101BF000D3340334CB340334C2340334BA3403341F
:101C0000B2340334AA340334A23403349B3403348F
:101C1000933403348C340334853403347E340334F6
:101C20007734033470340334693403346234033456
:101C30005C340334553403344F34033448340334B0
:101C4000423403343C340334363403343034033404
:101C50002A340334243403341F3403341934033452
:101C6000133403340E34033409340334033403349B
:101C7000FE340234F9340234F4340234EF340234E2
:101C8000EA340234E5340234E0340234DB34023422
:101C9000D7340234D2340234CD340234C93402345D
:101CA000C4340234C0340234BC340234B734023495
:101CB000B3340234AF340234AB340234A6340234C9
:101CC000A23402349E3402349A34023497340234FB
:101CD000933402348F3402348B3402348734023428
:101CE00084340234803402347C3402347934023453
:101CF00075340234723402346E3402346B3402347C
:101D00006734023464340234613402345E340234A1
:101D10005A340234573402345434023451340234C5
:101D20004E3402344B3402344834023445340234E5
:101D3000423402343F3402343C3402343934023405
:101D40003634023433340234303402342E34023424
:101D50002B34023428340234253402342334023440
:101D6000203402341E3402341B340234183402345A
:101D70001634023413340234113402340E34023473
:101D80000C3402340A340234073402340534023489
:101D90000234023400340234FE340134FB340134A2
:101DA000F9340134F7340134F5340134F2340134B8
:101DB000F0340134EE340134EC340134EA340134CB
:101DC000E8340134E6340134E3340134E1340134DD
:101DD000DF340134DD340134DB340134D9340134EF
:101DE000D7340134D5340134D3340134D2340134FE
:101DF000D0340134CE340134CC340134CA3401340B
:101E0000C8340134C6340134C4340134C334013419
:101E1000C1340134BF340134BD340134BC34013425
:101E2000BA340134B8340134B6340134B534013431
:101E3000B3340134B1340134B0340134AE3401343C
:101E4000AC340134AB340134A9340134A834013446
:101E5000A6340134A4340134A3340134A134013450
:101E6000A03401349E3401349D3401349B34013458
:101E70009A34013498340134973401349534013460
:101E80009434013492340134913401349034013467
:101E90008E3401348D3401348B3401348A3401346E
:101EA0008934013487340134863401348534013473
:101EB0008334013482340134813401347F34013479
:101EC0007E3401347D3401347B3401347A3401347E
:101ED0007934013478340134763401347534013482
:101EE0007434013473340134713401347034013486
:101EF0006F3401346E340134003400340034003463
:101F00000034003400340034003400340034003431
:101F10000A340034143400341E34003428340034BD
:101F2000323400343A340034423400344A34003419
:101F300050340034563400345B3400345F340034A1
:101F40006134003463340034643400346334003466
:101F5000613400345F3400345B3400345634003470
:101F6000503400344A340034423400343A340034BB
:101F700032340034283400341E3400341434003435
:101F80000A34003400340034F634FF34EC34FF34C7
:101F9000E234FF34D834FF34CE34FF34C634FF3457
:101FA000BE34FF34B634FF34B034FF34AA34FF34C7
:101FB000A534FF34A134FF349F34FF349D34FF3403
:101FC0009C34FF349D34FF349F34FF34A134FF34FC
:101FD000A534FF34AA34FF34B034FF34B634FF34B0
:101FE000BE34FF34C634FF34CE34FF34D834FF342B
:101FF000E234FF34EC34FF34F634FF340034003480
:102000002000240823042204031908008030A406B9
:10201000080022000F108F100F118F110F122628A9
:1020200022000F14080022008F14080022000F1550
:10203000080022008F15080022000F160800220059
:102040000F148F140F158F150F160800200023088A
:10205000003A03192C2843282208013A03191028B2
:10206000033A03191328013A03191628073A0319EA
:102070001928013A03191C28033A03194328623A24
:1020800003191F28432808002000B1018E30AE003C
:102090002E08B000AD1F5928AA09AB09AC09AD093B
:1020A000AA0A0319AB0A0319AC0A0319AD0AB10154
:1020B000B10AFF302D05031969280130AD36AC0C8B
:1020C000AB0CAA0C890B5E280130AE002E08B007BD
:1020D00059282A08A2002B08A3002C08A4003008C5
:1020E000AE002E08A5003108AF002F08A6009431DD
:1020F000EF2420002208AA002308AB002408AC002B
:10210000080000302000AB000030AA000330A90016
:10211000E830A8000C30BB00F230BC000130BD003C
:102120000030BE003A08A3003908A2003808A50014
:102130003708A4009E31B826903120002208BF0045
:102140002308C0000030C01BFF30C100C2003F08A0
:10215000BB074008BC3D4108BD3D4208BE3D3E08AE
:10216000AF003D08AE003C08AD003B08AC00953127
:10217000C32520002908B8002808B700080000344B
:10218000003415340034293400343B3400344A34EC
:102190000034573400345F34003463340034633423
:1021A00000345F340034573400344A3400343B3454
:1021B0000034293400341534003400340034EB3456
:1021C000FF34D734FF34C534FF34B634FF34A93478
:1021D000FF34A134FF349D34FF349D34FF34A134E7
:1021E000FF34A934FF34B634FF34C534FF34D73458
:1021F000FF34EB34FF34003400346434003464348E
:10220000003464340034643400346434003464349E
:10221000003464340034643400346434003464348E
:10222000003464340034643400346434003464347E
:102230000034643400349C34FF349C34FF349C34C8
:10224000FF349C34FF349C34FF349C34FF349C3482
:10225000FF349C34FF349C34FF349C34FF349C3472
:10226000FF349C34FF349C34FF349C34FF349C3462
:10227000FF346434003400340034073400340D3447
:102280000034143400341B34003421340034283436
:1022900000342F340034353400343C3400344334BB
:1022A00000344934003450340034573400345D3441
:1022B00000349C34FF34A334FF34A934FF34B034E9
:1022C000FF34B734FF34BD34FF34C434FF34CB346F
:1022D000FF34D134FF34D834FF34DF34FF34E534F5
:1022E000FF34EC34FF34F334FF34F934FF3400347A
:1022F0000034003400340D3400341B3400342834EE
:1023000000343534003443340034503400345D3408
:1023100000345D34003450340034433400343534F8
:102320000034283400341B3400340D3400340034BD
:102330000034F334FF34E534FF34D834FF34CB3485
:10234000FF34BD34FF34B034FF34A334FF34A3343E
:10235000FF34B034FF34BD34FF34CB34FF34D834D1
:10236000FF34E534FF34F334FF34003400341E30DE
:102370002000B4003408B6006430A2000030A3008E
:102380000130A4000030A50094319B2491316430C9
:102390002000A2000030A3009031092091312000DC
:1023A0003608B400B5013408AE003508AF009F31DF
:1023B000CE27913100302000A200A3000130A400FC
:1023C0000030A50094319B24913100302000A20000
:1023D000A30090310920913120003608B400B501E6
:1023E0003408AE003508AF009F31CE270800220028
:1023F0001D1021000E118E1026000D108D110D12D2
:102400002100101390121012901110110F3025009E
:1024100093040F309A040F30260093040F309A046F
:102420000F309E040F302C0093040F3096040F30B1
:1024300099040F309C040F309F0425009D019E01DC
:102440009F010030920032309100003099006430DA
:1024500098000030260092009630910000309900DC
:10246000C83098009D31E82591319D31E125080063
:102470007D082000B600B70135083706031D422A43
:1024800034083606031908003408B6003608FD0083
:10249000340C2200031C0D1103180D158D112000A2
:1024A000340C2700031C0D1103180D1520003408EF
:1024B0003504031D5E2A27008D14602A27008D1025
:1024C00014302000AE000030AF009F31CE27923193
:1024D00027000D118D107D082000B600B7013608C9
:1024E000A2003708A3009D31D82592311430200076
:1024F000AE000030AF009F31CE27080020000F1B38
:10250000882A220050080319932A0130D002932A06
:102510001930220050020318932A01302000B40021
:1025200034082200D0075008031D0800210051087C
:10253000013ED1000030523DD2005208803A2000C6
:10254000B40080303402031DA82A07302100510254
:10255000031CAF2A01302100D1000030D20021003D
:1025600052082000A300210051082000A200903151
:102570000920923120000F1FBA2A1430AE0000301B
:10258000AF009F31CE27080027000C108C100C11D3
:102590008C110C12EF2A720C031C0C1003180C1473
:1025A0000800720C031C8C1003188C140800720CA9
:1025B000031C0C1103180C150800720C031C8C1161
:1025C00003188C150800720C031C0C1203180C164F
:1025D00008000C148C140C158C150C1608007108CE
:1025E000003A0319F42A0B2B7008013A0319CB2A7D
:1025F000033A0319D12A013A0319D72A073A0319D2
:10260000DD2A013A0319E32A033A03190B2B623A34
:102610000319E92A0B2B080081302000A2001F308B
:10262000A3009E31D4269331200023082100DA0034
:10263000200022082100D90082302000A2001F3093
:10264000A3009E31D4269331200023082100D2001C
:10265000200022082100D1007D08031D322B270015
:102660008D14342B27008D107D0C031C0D110318C5
:102670000D1522000D118D110D128D128D100D10E2
:1026800021005A082000A300210059082000A200C0
:102690000130A4000030A50094319B249331210027
:1026A00052082000A300210051082000A200903110
:1026B0000920080020008F1A642B220059080319F2
:1026C0006F2B0130D9026F2B1930220059020318E9
:1026D0006F2B01302000B40034082200D9075908BC
:1026E000031D080021005908013ED90000305A3D61
:1026F000DA005A08803A2000B40080303402031D0A
:10270000842B073021005902031C8B2B0130210040
:10271000D9000030DA0021005A082000A30021006F
:1027200059082000A2000130A4000030A500943117
:102730009B24933101302200DC000030DD002000BA
:102740008F1E9F2B1430AE000030AF009F31CE277C
:10275000080007340034073400340B3400340F34DD
:102760000034133400341434003415340034153478
:10277000003416340034173400341834003419345B
:1027800000341A3400341B3400341C3400341D343B
:1027900000341E3400342034003421340034233417
:1027A000003425340034273400342A3400342D34E6
:1027B00000343034003433340034373400343C34A3
:1027C00000344234003448340034503400345B3434
:1027D000003467340034783400348E340034AE343E
:1027E0000034DF340034FF340034FF340034FF346D
:1027F0000034FF340034FF340034FF340034DF345D
:102800000034AE3400348E3400347834003467340D
:1028100000345B34003450340034483400344234E3
:1028200000343C3400343734003433340034303432
:1028300000342D3400342A34003427340034253455
:1028400000342334003421340034203400341E3466
:1028500000341D3400341C3400341B3400341A346A
:10286000003419340034183400341734003416346A
:102870000034153400341534003414340034133467
:1028800000340F3400340B34003407340034073480
:1028900000342000A801A31F542CA209A309A20AF6
:1028A0000319A30AA801A80AA51F5F2CA409A5095A
:1028B000A40A0319A50A0130A6002608A806A90142
:1028C000AA012208230403198E2CA701A70AA31B1F
:1028D000732C0130A235A30D890B6A2C0130A600A0
:1028E0002608A707672C0130A935AA0D890B742C7F
:1028F00023082502031D7E2C22082402031C852C9C
:102900002208A4022308A53B29140130A336A20CF7
:10291000890B862C0130A702031D732C280803198C
:10292000962CA909AA09A90A0319AA0A2A08A30028
:102930002908A200080027000C108C100C118C1123
:102940000C12D12C2000240C2700031C0C1003189F
:102950000C1408002000240C2700031C8C10031802
:102960008C1408002000240C2700031C0C110318F1
:102970000C1508002000240C2700031C8C110318E0
:102980008C1508002000240C2700031C0C120318CF
:102990000C16080027000C148C140C158C150C1642
:1029A000080020002308003A0319D72CEE2C220837
:1029B000013A0319A22C033A0319AA2C013A03196C
:1029C000B22C073A0319BA2C013A0319C22C033A64
:1029D0000319EE2C623A0319CA2CEE2C08002000D1
:1029E00025080319F82C240823042204031D092DAB
:1029F0000030A2000030A3000030A4000800013025
:102A0000A7002708A5070130A436A30CA20C890B48
:102A1000042DFE3024050319222DFF2C0130A700C0
:102A20002708A5070130A207003003180130A307CB
:102A3000003003180130A4070130A436A30CA20C07
:102A4000890B1D2DFF30240503192F2D0E2D01306C
:102A5000A5020130A235A30DA40D890B2A2DA31BBD
:102A6000352D023025020318272D25183D2DFF3066
:102A7000A2057F30A305FF30A4050310A50C25088F
:102A8000A700A801A9011030A735A80DA90D890B31
:102A9000442D2708A2042808A3042908A404260812
:102AA00003190800A41708002000B6003603031D10
:102AB000892D0530B7000030B800B81B0800380871
:102AC000A3003708A2000130A4000030A500943113
:102AD0009B24953120003709B4003809B500B40AA9
:102AE0000319B50A3408063EA2000030353DA300A4
:102AF00090310920953105302000AE000030AF0044
:102B00009F31CE279531FF302000B707FF30B83D09
:102B10005D2D0130B9000030BA003A08803AB400A7
:102B200080303402031D962D073039020318080047
:102B300020003A08A3003908A2000130A4000030A8
:102B4000A50094319B24953120003909B4003A093D
:102B5000B500B40A0319B50A3408063EA2000030D5
:102B6000353DA30090310920953105302000AE009D
:102B70000030AF009F31CE27953101302000B907DA
:102B80000030BA3D8D2D2000B201AB1FD42DA80915
:102B9000A909AA09AB09A80A0319A90A0319AA0ACB
:102BA0000319AB0AB201B20AAF1FE52DAC09AD099A
:102BB000AE09AF09AC0A0319AD0A0319AE0A03192D
:102BC000AF0A0130B0003008B2060030B600003065
:102BD000B5000030B4000030B3002B082A042904EB
:102BE000280403192E2EB101B10AAB1B032E0130AC
:102BF000A835A90DAA0DAB0D890BF82D0130B00039
:102C00003008B107F52D0130B335B40DB50DB60D53
:102C1000890B042E2B082F02031D182E2A082E02C2
:102C2000031D182E29082D02031D182E28082C021A
:102C3000031C232E2808AC022908AD3B2A08AE3B12
:102C40002B08AF3B33140130AB36AA0CA90CA80CEF
:102C5000890B242E0130B102031D032E3208031903
:102C60003C2EB309B409B509B609B30A0319B40A6D
:102C70000319B50A0319B60A3608AB003508AA00CD
:102C80003408A9003308A800080021002008A40087
:102C90002108A5002208A6000310250D260DA70077
:102CA0002708AD002D08031D5E2E0030A300003064
:102CB000A2000030A1000030A00008002008A400FD
:102CC0002108A5002208A6001730A636A50CA40CE2
:102CD000890B652E2408A7002708A800A117FF303C
:102CE000A005FF30A1050030A2052008A900210899
:102CF000AA002208AB00AC018E30AD02AD1F9C2EA5
:102D00002D08803A8F3E03188E2E0030A30000302D
:102D1000A2000030A1000030A00008000130AC3655
:102D2000AB0CAA0CA90C890B8F2E0130A40024082F
:102D3000AD070319B52E8E2E18302D02031CB22EAE
:102D40000030A3000030A2000030A1000030A0003D
:102D500008000130A935AA0DAB0DAC0D890BAA2EC8
:102D60000130AD022D08031DA92E28080319C32E1A
:102D7000A909AA09AB09AC09A90A0319AA0A0319E6
:102D8000AB0A0319AC0A2C08A3002B08A2002A08DE
:102D9000A1002908A000080020005D08AA005E0824
:102DA000AB005F08AC005A08A2005B08A3005C08F7
:102DB000A40090310020963120002208AD002308A5
:102DC000AE002408AF008A31A022963120002A08E4
:102DD000C7002B08C8002C08C9006308AA006408B3
:102DE000AB006508AC006008A2006108A30062089F
:102DF000A40090310020963120002208AD00230865
:102E0000AE002408AF008A31A022963120002A08A3
:102E1000B7002B08B8002C08B9005708AA005808BA
:102E2000AB005908AC005A08A2005B08A3005C087C
:102E3000A40090310020963120002208AD00230824
:102E4000AE002408AF008A31A022963120002A0863
:102E5000BA002B08BB002C08BC00883142209631F8
:102E600020003708CA003808CB003908CC00973159
:102E70005727963120004708E6004808E700490830
:102E8000E8006008AA006108AB006208AC006608B0
:102E9000AD006708AE006808AF008A31A0222000AC
:102EA0002A08D7002B08D8002C08D90008002000D9
:102EB0004A08CD004B08CE004C08CF0003104E0D41
:102EC0004F0DD0005008D5005508031D6E2F00305F
:102ED000C7000030C8000030C90008004708CD0016
:102EE0004808CE004908CF0003104E0D4F0DD0000A
:102EF0005008D6005608031D842F0030C70000304C
:102F0000C8000030C90008000030D2000030D300F3
:102F10000030D40089305607CD004D08D5024A084C
:102F2000CD004B08CE004C08CF001030CF36CE0C71
:102F3000CD0C890B962F4D08D0005008D6004708BD
:102F4000CD004808CE004908CF001030CF36CE0C57
:102F5000CD0C890BA62F4D08D0005008D606803026
:102F6000CD004D08D605CB17FF30CA05FF30CB0585
:102F70000030CC05C817FF30C705FF30C80500304A
:102F8000C9051830CD004D08D1000130D235D30D20
:102F9000D40D890BC62F49084C02031DD52F4808B4
:102FA0004B02031DD52F47084A02031CDE2F47089A
:102FB000CA024808CB3B4908CC3B52140130CA3501
:102FC000CB0DCC0D890BDF2F0130D102031DC52F96
:102FD0005208A2005308A3005408A4005508CD00CD
:102FE0004D08A5005608CE004E08A6009431EF24E7
:102FF00020002208C7002308C8002408C9000800D0
:103BB0000800FC302100990508002000A201A301A3
:103BC0000800210095129511151095141511080083
:103BD000873020009C05FC309C05FF309B001C15A5
:103BE000080021009E171E088F3960389E00FC30A7
:103BF0009E051D140800FE0012001E000130FE028A
:103C00000030FF3B7F087E0403190034FC2D640064
:103C1000800101310130FE020030FF3B7F087E044D
:103C200003190034082E9D31DD259E312000230824
:103C3000B9002208B8003908B5003808B40092313C
:103C400038220800003022000D1A0130A000003098
:103C50000D190130A20000308D1A0130A100003092
:103C60008D190130A300080064340034013400349D
:103C7000D0340734D0340734D0340734D034073448
:103C800001340034013400340134FF34FF34D034C3
:103C9000073400340034D0340734003400340634A0
:103CA0000034D0340734D0340734E83403340634D5
:103CB0000034143404342200200C031C0D120318A9
:103CC0000D16220C031C0D1103180D15210C031CDD
:103CD0008D1203188D16230C031C8D1103188D15DE
:103CE000080020006908A400A50123082506031D7B
:103CF0007B2E22082406031908002208A4002408A9
:103D0000E900220C2200031C8D1103188D150800F8
:103D100020006A08A400A50123082506031D922E91
:103D200022082406031908002208A4002408EA0037
:103D3000220C2200031C8D1203188D16080020008F
:103D4000A5002508A400A40DA40D21001D08200035
:103D500024068339240621009D009D149D18AE2E53
:103D60001C082000A30021001B082000A20008005E
:103D70002000A601A701221CC12E2408A6072508A1
:103D8000A73D0130A435A50D890BC22E0130A33605
:103D9000A20C890BC72E22082304031DBB2E270863
:103DA000A3002608A200080000308B1B0130200071
:103DB000A4008B1322082300910020002308230075
:103DC000920015131514000000002000240C031CA1
:103DD0008B1303188B17230014082000A300230063
:103DE00013082000A20008002000AF01AB1FFF2E27
:103DF000AA09AB09AA0A0319AB0AAF01AF0A2A083C
:103E0000A2002B08A300A4018E30AD002D08A50050
:103E10002F08AE002E08A6009431EF2420002208BF
:103E2000AA002308AB002408AC0008009E3122261B
:103E30009F3101302000BB003B082100EC00220034
:103E40000D120D118D128D110D108D100030953148
:103E500054259F310030953154259F3101309531E3
:103E600054259F310130953154259F319131B7212F
:103E70009F319131B7219F312100EC019E315B26AA
:103E8000080020006B08B600B70135083706031D8F
:103E90004B2F34083606031908003408B6003608DC
:103EA000EB0034033504031D582F22000D120D11B1
:103EB0002000340C2200031C8D1003188D142000E8
:103EC000340C2200031C0D1003180D1414302000B4
:103ED000AE000030AF009F31CE27080021000D104A
:103EE0008D100D118D110D128D120E140E128E12D9
:103EF0000F108F100F118F110F128F160F178F17B2
:103F00001014901423001010901020001010901026
:103F100026000C108C100C118C110C128C120C172A
:103F200028000C1326008D100D119D31F1259F31B5
:103F30009131F7218B178B160B11080000302000F0
:103F4000AD000030AC000030AB000030AA00221CF5
:103F5000B12F2608AA072708AB3D2808AC3D290841
:103F6000AD3D0130A635A70DA80DA90D890BB22FC7
:103F70000130A536A40CA30CA20C890BB92F25087F
:103F8000240423042204031DA72F2D08A5002C08B8
:103F9000A4002B08A3002A08A2000800003020007B
:103FA000B3000030B2000030B1000030B0002E0885
:103FB000A2002F08A300A401A5010030A900003031
:103FC000A8000330A700E830A6009F319E279F314C
:103FD00020002508B3002408B2002308B1002208FD
:103FE000B000330832043104300403190800FF30F4
:103FF000B007FF30B13DFF30B23DFF30B33DF12F90
:020000040001F9
:04000E00E2FFFFDF2F
:00000001FF
