:100000008131E829FF34FF347E14803120007F08DD
:10001000FC000B1D122921004E082000A100210028
:100020004D082000A0000130F4000030F500003041
:10003000F6000030F70021006408F4076508F53D7C
:100040006608F63D6708F73D7708E7007608E600A2
:100050007508E5007408E4000130F4000030F50094
:100060000030F6000030F7005C08F4075D08F53D4D
:100070005E08F63D5F08F73D7708DF007608DE0092
:100080007508DD007408DC000130F4000030F50074
:100090000030F6000030F7006008F4076108F53D15
:1000A0006208F63D6308F73D7708E3007608E20052
:1000B0007508E1007408E0000130F4000030F5003C
:1000C0000030F6000030F70022002408F40725086D
:1000D000F53D2608F63D2708F73D7708A700760886
:1000E000A6007508A5007408A40001302300E007ED
:1000F0000030E13D0030E23D0030E33D21006A0385
:10010000031D992801302200BA070030BB3D3B088F
:1001100021005602031D902822003A0821005502B2
:100120000318992856082200BB0021005508220018
:10013000BA0022005503031DB3280130C607003062
:10014000C73D470821005602031DAA282200460881
:10015000210055020318B32856082200C7002100C9
:1001600055082200C6000B1122002C032D04031D8C
:10017000122921005F08803AF4005008803A740286
:10018000031DCC284F085E02031DCC284E085D02DB
:10019000031DCC284D085C02031C12294908F400F9
:1001A0004A08F5004B08F6004C08F7006409F8000F
:1001B0006509F9006609FA006709FB00F80A0319E6
:1001C000F90A0319FA0A0319FB0A7808F4077908EF
:1001D000F53D7A08F63D7B08F73DF71BFC287708CC
:1001E000031D12297608031D12297508031D122903
:1001F00004307402031812296409F4006509F5003B
:10020000F40A0319F50A49087407F6004A08753D0F
:10021000F7005C0876072000A00021005D08773D0C
:100220002000A10020006A08031D5B296B08031D44
:100230005B2921006708803AF4004C08803A740278
:10024000031D2C294B086602031D2C294A08650250
:10025000031D2C2949086402031C492922000D169C
:1002600000302100E7000030E6000030E5000030FB
:10027000E40022004C034D04031D4929CC01CD01AB
:1002800021005008DF004F08DE004E08DD004D0859
:10029000DC002100E71B5B296708031D592966085C
:1002A000031D59296508031D59291E306402031CCA
:1002B0005B2922000D1220002008F4002108F5001F
:1002C0000030F51BFF30F600F70021005F08803A90
:1002D000F8007708803A7802031D782976085E02D4
:1002E000031D782975085D02031D782974085C02D6
:1002F000031C99296B08031D88295808F100570829
:10030000F0000130F2000030F3009231CC22803155
:1003100021004E082000A10021004D082000A0006F
:1003200000302100DF000030DE000030DD00003052
:10033000DC00DF1BB5295F08031DA8295E08031D2B
:10034000A8295D08031DA82914305C02031CB529E7
:100350006B08031DB5295808F1005708F00000305C
:10036000F200F3009231CC22803122005903031DA8
:10037000DE290130F4007408D8075C08803A803C1C
:10038000031DC4295B085802031CDC2922008D14BC
:100390005C08F5005B08F400F435F50D7508803A4B
:1003A000F60080307602031DD7295808740203181E
:1003B000E3292200D801E3292200E2295808031981
:1003C000E329D8018D107C082000FF007E10090071
:1003D0008131EA29EB01DC308400003085001230E5
:1003E000FE000030FF009D31F72581312030840070
:1003F000013085003B30FE000030FF009D31F725C5
:100400008131A0308400013085004630FE0000308C
:10041000FF009D31F7258131A03084000430850034
:100420004030FE000030FF009D31F72581318830DB
:1004300084008D30850078308600233087000230BC
:10044000FF0078309D31EB2581319D31CF25813101
:10045000FD00803102208131E900803103208131AB
:10046000EA00243084009E308500C93086000030C8
:1004700087000030FF0013309D31EB25813137308C
:1004800084009E3085005B3086000130870000309C
:10049000FF0014309D31EB2581318630840091308E
:1004A000850020308600023087000030FF003E309B
:1004B0009D31EB2581314830840091308500A0309A
:1004C0008600023087000030FF003E309D31EB2572
:1004D00081310A308400913085002030860003305D
:1004E00087000030FF003E309D31EB2581314D30DB
:1004F000840094308500A0308600033087000030EF
:10050000FF0050309D31EB258131FD308400933068
:10051000850020308600043087000030FF00503016
:100520009D31EB258131CC30840090308500203026
:100530008600053087000030FF003E309D31EB25FE
:100540007E1020008231A42A9D31D02582319F3136
:100550006E2782312000101490140F178F160E147E
:100560008F179E31F02682319E31032682319331DE
:10057000AD23823192318622823193315E238231E2
:1005800092314522823120008F1BE42A0130220063
:10059000B2070030B33D3308803A2100BA00803002
:1005A0003A02031DD62A1A3022003202031CE72A1F
:1005B00019302200B2000030B3009F31162782317B
:1005C00020008F1BE72AE02A2200B201B301893103
:1005D000D42182318B31AE23823100309E31792695
:1005E0008231200023082200BD00200022082200C2
:1005F000BC0001309E317926823120002308220080
:10060000BF00200022082200BE0002309E31792661
:100610008231200023082200C1002000220822008D
:10062000C00003309E317926823120002308220049
:10063000C300200022082200C20004309E31792627
:100640008231200023082200C50020002208220059
:10065000C4008D1021005309BA005409BB00BA0A26
:100660000319BB0A22003C0821003A07BC00220003
:100670003D0821003B3DBD003D08803ABE00803072
:100680003E02031D452B04303C020318642B21005D
:100690005309BA005409BB00BA0A0319BB0A220065
:1006A0003C0821003A07BC0022003D0821003B3DE8
:1006B000BD003D08803ABE007F303E02031D622B24
:1006C000FD303C020318B82B22003D082100D40065
:1006D00022003C082100D30000302000E300483015
:1006E000E4004330E5008030E0009230E100443027
:1006F000E200C030DD007F30DE004430DF0000303B
:10070000DA000030DB000030DC002100540820005B
:10071000AB00210053082000AA009E31CE26823172
:1007200020002A08D7002B08D8002C08D9009631C1
:10073000CC268231200057082100A0002000580854
:100740002100A100200059082100A2009631452671
:10075000823121002308CC002208CB002108CA00E6
:100760002008C90001302200DD000030DE008D14B9
:1007700022005F092100BA00220060092100BB00AD
:10078000BA0A0319BB0A22003E0821003A07BC003E
:1007900022003F0821003B3DBD003D08803ABE00DD
:1007A00080303E02031DD62B04303C020318F82B88
:1007B00022005F092100BA00220060092100BB006D
:1007C000BA0A0319BB0A22003E0821003A07BC00FE
:1007D00022003F0821003B3DBD003D08803ABE009D
:1007E0007F303E02031DF62BFD303C020318572CD0
:1007F00022003F08E0003E08DF0000302000E30058
:100800001C30E4004230E5000030E0000030E10040
:100810000030E200C030DD007F30DE004430DF0019
:100820000030DA000030DB000030DC00220060081D
:100830002000AB0022005F082000AA009E31CE26D7
:10084000823120002A08D7002B08D8002C08D900B4
:100850009631CC268231200057082100A0002000CC
:1008600058082100A100200059082100A20096315B
:1008700045268231210021082300E90021002008BB
:100880002300E8006835203E860004308700403FA2
:1008900025009800413F990023006835A03E86005E
:1008A00003308700403F26009100413F9200220024
:1008B00061092100BA00220062092100BB00BA0AC6
:1008C0000319BB0A2200400821003A07BC0022009D
:1008D000410821003B3DBD003D08803ABE0080300C
:1008E0003E02031D752C04303C020318972C220095
:1008F00061092100BA00220062092100BB00BA0A86
:100900000319BB0A2200400821003A07BC0022005C
:10091000410821003B3DBD003D08803ABE007F30CC
:100920003E02031D952CFD303C020318F62C2200DC
:100930004108E2004008E10000302000E300003000
:10094000E4000030E5000030E0008030E10041309C
:10095000E200C030DD007F30DE004430DF000030D8
:10096000DA000030DB000030DC00220062082000EA
:10097000AB00220061082000AA009E31CE26823101
:1009800020002A08D7002B08D8002C08D90096315F
:10099000CC268231200057082100A00020005808F2
:1009A0002100A100200059082100A200963145260F
:1009B0008231210021082300EB00210020082300C0
:1009C000EA006A35203E860004308700403F26005A
:1009D0009800413F990023006A35A03E860003300D
:1009E0008700403F26009C00413F9D002200630994
:1009F0002100BA00220064092100BB00BA0A0319D1
:100A0000BB0A2200420821003A07BC00220043082A
:100A100021003B3DBD003D08803ABE0080303E02D3
:100A2000031D142D04303C020318362D22006309E7
:100A30002100BA00220064092100BB00BA0A031990
:100A4000BB0A2200420821003A07BC0022004308EA
:100A500021003B3DBD003D08803ABE007F303E0294
:100A6000031D342DFD303C020318802D2200430865
:100A7000E4004208E30000302000E3007A30E400A4
:100A80004430E5000030E0007030E1004230E20028
:100A9000C030DD007F30DE004430DF000030DA009F
:100AA0000030DB000030DC00220064082000AB00D6
:100AB000220063082000AA009E31CE268231200049
:100AC0002A08D7002B08D8002C08D9009631CC264C
:100AD0008231200057082100A00020005808210082
:100AE000A100200059082100A2009631452682313C
:100AF000210021082200E800210020082200E70050
:100B0000220065092100BA00220066092100BB000D
:100B1000BA0A0319BB0A2200440821003A07BC00A4
:100B20002200450821003B3DBD003D08803ABE0043
:100B300080303E02031D9E2D04303C020318C02D60
:100B4000220065092100BA00220066092100BB00CD
:100B5000BA0A0319BB0A2200440821003A07BC0064
:100B60002200450821003B3DBD003D08803ABE0003
:100B70007F303E02031DBE2DFD303C020318C52D03
:100B800022004508E6004408E50022006808803A93
:100B90002100BA0080303A02031DD12D64302200BA
:100BA00067020318D62D22000D14D82D22000D1037
:100BB00067082100BA00220068082100BB0000304D
:100BC000BB1BFF30BC00BD0022002708803A21007B
:100BD000BE003D08803A3E022200031DFF2D210089
:100BE0003C0822002602031DFF2D21003B082200A5
:100BF0002502031DFF2D21003A0822002402031CB8
:100C0000362F68084906031D072E67084806031992
:100C10000D2E6808C9006708C80021006808013E59
:100C2000E8000030693DE90000302200A7000030F4
:100C3000A6000030A5000030A4002100510352049A
:100C40000319272E053051065204031D302E690862
:100C5000803ABA0080303A02031D392E3D30382EDA
:100C60006908803ABA0080303A02031D392E2030DC
:100C70006802031C3E2E2100E801E901003020003B
:100C8000E3000030E4000030E5006030E0009F3019
:100C9000E1004430E200C030DD007F30DE0044304F
:100CA000DF000030DA000030DB000030DC00220022
:100CB00066082000AB00220065082000AA009E31D3
:100CC000CE26823120002A08D7002B08D8002C0815
:100CD000D9009631CC268231200057082100A0008F
:100CE000200058082100A100200059082100A2007E
:100CF000963145268231210021082300E70021009A
:100D000020082300E600E02E21006908BB006808E7
:100D1000BA00BA35BB0D7830BC002330BD003A08AC
:100D20003C0786003B083D3D8700403F2200CA004B
:100D3000413FBA2E21006835203E860002308700F0
:100D4000403F2200CA00413FBA2E21006835A03E34
:100D5000860002308700403F2200CA00413FBA2E81
:100D600021006835203E860003308700403F220086
:100D7000CA00413FCB00DD2E21006908BB00680896
:100D8000BA00BA35BB0D7830BC002330BD003A083C
:100D90003C0786003B083D3D8700403F2200CA00DB
:100DA000413FCB00FB302300E6000430E700200089
:100DB0000E16FA2E2200CA01CB0120000E12FA2EC6
:100DC00021005208003A0319E62EFA2E5108013A82
:100DD0000319842E033A03199A2E013A0319A52EFA
:100DE000073A0319B02E013A0319BC2E033A03192E
:100DF000DA2EFA2E22004B082000B80022004A0802
:100E00002000B700230067082000BA00230066080E
:100E10002000B90090318E20823120003808220055
:100E2000CB00200037082200CA0002302000A200B8
:100E30000030A30022004B082000A50022004A0831
:100E40002000A40094319D248231200023082C002E
:100E50009B00200022082C009A0000302200A700EE
:100E60000030A6000030A5000030A4005D035E0441
:100E7000031DBA2A21004C08D0004B08CF004A08B5
:100E8000CE004908CD004A08AF004908AE00580816
:100E9000B1005708B00089311121823121002E089C
:100EA000CD002F08CE00890D893B8909CF00D000E5
:100EB00001302200CC000030CD00B801B901B601EC
:100EC000B701220038083904031DBC2F3708210060
:100ED000BB00220036082100BA00BA35BB0DF23043
:100EE000BC002330BD003A083C0786003B083D3D6E
:100EF0008700403FBE00413FBF003E08C0003F08A2
:100F0000C1000030C11BFF30C200C3004D08C40047
:100F10004E08C5004F08C6005008C7000130C43550
:100F2000C50DC60DC70D890B8F2F4708803AC80025
:100F30004308803A4802031DA72F42084602031DBA
:100F4000A72F41084502031DA72F40084402031C98
:100F5000B62F01302200B8000030B9003708250054
:100F600092002200360825009100612F01302200F6
:100F7000B6070030B73D612F210050082000AD00BA
:100F800021004F082000AC0021004E082000AB00DB
:100F900021004D082000AA0090315120823120000C
:100FA0002A08CA002B08CB002C08CC000030C70050
:100FB000F030C8004030C9009731572782312000F7
:100FC00047082100A000200048082100A1002000BF
:100FD00049082100A20096314526823121002108CE
:100FE0002200E800210020082200E700DD01DE01E8
:100FF000BA2A2100951295111510951415110800A3
:101000002000240823042204031908008030A406C9
:10101000080027000C108C100C118C110C123F28AA
:101020002000240C2700031C0C1003180C140800CB
:101030002000240C2700031C8C1003188C140800BB
:101040002000240C2700031C0C1103180C150800A9
:101050002000240C2700031C8C1103188C15080099
:101060002000240C2700031C0C1203180C16080087
:1010700027000C148C140C158C150C16080020007D
:101080002308003A031945285C282208013A03196D
:101090001028033A03191828013A03192028073A9F
:1010A00003192828013A03193028033A03195C2848
:1010B000623A031938285C28080020003708BD0070
:1010C0003808BE003908BF0003103E0D3F0DC000B8
:1010D0004008C1004108031D74280030B7000030EB
:1010E000B8000030B90008003A08BD003B08BE0057
:1010F0003C08BF0003103E0D3F0DC0004008C60075
:101100004608031D8A280030B7000030B8000030C0
:10111000B900080046087B3EBD003D08C1073708FE
:10112000BD003808BE003908BF001030BF36BE0C05
:10113000BD0C890B96283D08C0004008C6003A083F
:10114000BD003B08BE003C08BF001030BF36BE0CDF
:10115000BD0C890BA6283D08C0004008C60680309B
:10116000BD003D08C605B817BB17FF30BA05FF30F4
:10117000BB050030BC050030C2000030C3000030A9
:10118000C4000730BD003D08C500371CCD283A0813
:10119000C2073B08C33D3C08C43D0130B936B80C1A
:1011A000B70C890BCE280130BA35BB0DBC0D890BAD
:1011B000D4280130C502031DC5280930BD003D08F3
:1011C000C500371CE9283A08C2073B08C33D3C0864
:1011D000C43D0130B936B80CB70C890BEA28013090
:1011E000C436C30CC20C890BF0280130C502031DA4
:1011F000E1284208A2004308A3004408A4004108D3
:10120000BD003D08A5004608BE003E08A60094317A
:10121000EF2420002208B7002308B8002408B900F2
:1012200008002200AC01AD0121002F08B6002E08F5
:10123000B5000030B7008030B8003F30B900392920
:101240000030B70040302B29A630B7002A302B29B8
:101250000030B7000030B8003F303729A630B70063
:10126000AA3035290030B7008030B8003E30B900D0
:1012700052293108003A03193E2952293008013A0F
:1012800003192029033A03192429013A03192829AB
:10129000073A03192E29013A03193229033A03198F
:1012A000522952292F082000AB0021002E082000CF
:1012B000AA009E31CE26893120002A08BA002B08C8
:1012C000BB002C08BC00210037082000B70021001B
:1012D00038082000B800210039082000B900883102
:1012E0005D208931200037082100A0002000380847
:1012F0002100A100200039082100A20096314526D6
:10130000893121002108AF002008AE0037082000F5
:10131000C700210038082000C8002100390820003B
:10132000C90021002F082000AB0021002E0820005A
:10133000AA009E31CE26893120002A08CA002B0837
:10134000CB002C08CC009731572789312000470863
:101350002100B200200048082100B3002000490805
:101360002100B40036082000AB0021003508200021
:10137000AA009E31CE26893120002C082100340697
:10138000031DCC2920002B0821003306031DCC2986
:1013900020002A082100320603190800013022002B
:1013A000AC000030AD00080020009018EA292200AF
:1013B0004F08803A2000B80080303802031DE3292E
:1013C000013022004E02031CFD29FF302200CE070F
:1013D000FF30FC2922004F08803A2000B8008030FE
:1013E0003802031DF629193022004E020318FD2988
:1013F00001302200CE070030CF3D22004E084F04BE
:10140000031D5C2A21006A08031D0B2AEA01EA0A6F
:101410002200BA01BB012100560822003B02031D35
:10142000152A2100550822003A02031C342A200004
:101430006908031D342A6B08031D342A22000D118C
:10144000550303192C2A01302000A2000030A3000C
:101450009E314B268931342A01302000B4000030FF
:10146000B5009F314127893120006B08031D582AA0
:101470006908031D582A21005A03031D4B2A220024
:1014800069036A04031D582AEE01EE0A0130D000F8
:101490000030D100582A220053030319582AEE01C4
:1014A000D301D30AD001D1012000E9012100EA01D2
:1014B0002200E901EA0108004F08803A2000B80044
:1014C00080303802031D672A193022004E02031CA7
:1014D000080020006B03031D762A22006E082000FE
:1014E000B800B9013808B4003908912A2200530322
:1014F00003197E2A20006903031D832A013020007E
:10150000B4000030912A220050035104031D952A93
:1015100020006908031D952A6B08031D952A0030D9
:10152000B400B50093311423893121005A0C2200F4
:10153000031C0D1103180D1500302000A200A3009C
:101540009E314B26893100302000B400B5009F3118
:1015500041272100EA012200D301D001D10101304D
:10156000E9000030EA001930CE000030CF0008005A
:1015700020002A08B0002B08B1002C08B20003108C
:10158000310D320DB3003308B6002D08B0002E081F
:10159000B1002F08B2000310310D320DB300330833
:1015A000B50036080319E02A350836020318E72A81
:1015B0003603FF3A3507B00019303002031CE72A22
:1015C0002D08AA002E08AB002F08AC000800350833
:1015D00003190800360835020318F62A3503FF3AC6
:1015E0003607B00019303002031808000630B0008A
:1015F0003008B400AC1BB417AF1B3417AB17FF3067
:10160000AA05FF30AB050030AC05AE17FF30AD05C5
:10161000FF30AE050030AF05350836020318322B17
:101620000130AD35AE0DAF0D890B112B0130B50278
:101630003508360603192D2B0130B402340807395A
:1016400003192D2B102B0130AC36AB0CAA0C890BD7
:10165000242B0130B0003008B607360835060319D0
:10166000572B232B360835020318572B0130AA3588
:10167000AB0DAC0D890B372B0130B60235083606A1
:101680000319532B0130B402340807390319532BC3
:10169000362B0130AF36AE0CAD0C890B4A2B013026
:1016A000B0003008B50736083506031D492BB41FB6
:1016B000692BFF30AA06FF30AB06FF30AC060130C5
:1016C000AA07003003180130AB07003003180130BF
:1016D000AC07341F7B2BFF30AD06FF30AE06FF306A
:1016E000AF060130AD07003003180130AE070030FF
:1016F00003180130AF07B4012A08AD072B08AE3D2F
:101700002C08AF3DAF1F962BFF30AD06FF30AE0665
:10171000FF30AF060130AD07003003180130AE07CF
:10172000003003180130AF07B401B40A2D08A2003D
:101730002E08A3002F08A4003608B0003008A5002A
:101740003408B1003108A6009431EF2420002208AB
:10175000AA002308AB002408AC0008002000C00148
:101760001018B92B21006D080319C42B0130ED02AC
:10177000C42B193021006D020318C42B0130200046
:10178000B80038082100ED076D08031D702DE31B1C
:10179000482C6308031DD52B6208031DD52B1B3075
:1017A00060020630613B031C482C6C030319102CAB
:1017B000EC01EC0A0030E3000030E2000030E10010
:1017C0000030E00001302200EB000030EC0000307F
:1017D000AB000030AA000030A9000030A800DD01F5
:1017E000DE010F102000C001C00A40087D02031C6A
:1017F000102C4008B8000130B835FF3E031DFC2B0B
:101800003835CC3E8600013087000030C03F0030C4
:10181000C13FC23FC33F0130B8003808C007F52BB5
:1018200022005508031D1B2CD501D50A2000EA0112
:101830002200C601C7012100560822004702031DED
:10184000252C2100550822004602031C0800200018
:101850006A08031D0800210056082200C700210065
:1018600055082200C6000D1221006A030319402CFE
:1018700001302000A2000030A3009E316226080043
:1018800001302000B4000030B5009F31412708002E
:101890002100E31B572C6308031D08006208031D89
:1018A00008001B3060020630613B0318080020006E
:1018B0006A08031D080021006C0303190800EC01ED
:1018C000EC0AE31B772C6308031D6F2C6208031DD1
:1018D0006F2C943060020430613B031C772C003085
:1018E000E3000030E2000430E1009430E0007D08C5
:1018F0002000B800B9013808BE003908BF00220036
:101900006C08803A803C031D872C6B087D02031C09
:10191000B82C210060082200A807210061082200DD
:10192000A93D210062082200AA3D2100630822008F
:10193000AB3D6B082000B8000130B835FF3E031DF9
:101940009D2C3835CC3E8600013087002100600890
:10195000C03F6108C13F6208C23F6308C33F220025
:101960006C082000BF0022006B082000BE00302D54
:1019700000302200AB000030AA000030A900003087
:10198000A8002000C001C00A7D08400203180C2DE9
:101990004008B8000130B835FF3E031DCB2C383568
:1019A000043ECC3E860001308700403FB900413FF5
:1019B000BA00423FBB00433FBC004008BD000130BD
:1019C000BD35FF3E031DE02C3D35CC3E8600013089
:1019D00087003908C03F3A08C13F3B08C23F3C0876
:1019E000C33F4008B8000130B835FF3E031DF42C5A
:1019F0003835CC3E860001308700403F2200A807E2
:101A0000413FA93D423FAA3D433FAB3D013020004D
:101A1000B8003808C007C42C7D08B8000130B835BC
:101A2000FF3E031D0F2D3835CC3E86000130870068
:101A300021006008C03F6108C13F6208C23F6308DF
:101A4000C33F60082200A807210061082200A93DC9
:101A5000210062082200AA3D210063082200AB3D5C
:101A600020003E08A8003F08A900890D893B89098C
:101A7000AA00AB0022002B082000AF0022002A0899
:101A80002000AE00220029082000AD002200280816
:101A90002000AC009531C32520002B082100CC008C
:101AA00020002A082100CB00200029082100CA00BC
:101AB000200028082100C90001302200DD0000308C
:101AC000DE0000302100E3000030E2000030E100E1
:101AD0000030E00001302200EB070030EC3D080050
:101AE000193021006D02031C0800EC01DB010030FD
:101AF0002000A200A3009E3162262200C601C70179
:101B0000D50119302000B80038082100ED00080088
:101B100022340834FC340734D8340734B53407345D
:101B2000933407347234073452340734343407346E
:101B300016340734F9340634DD340634C23406343E
:101B4000A83406348F340634763406345E340634D2
:101B500047340634303406341A3406340534063437
:101B6000F0340534DC340534C8340534B534053478
:101B7000A3340534903405347F3405346D34053492
:101B80005C3405344C3405343C3405342C34053491
:101B90001D3405340E340534FF340434F134043478
:101BA000E2340434D5340434C7340434BA3404344D
:101BB000AD340434A134043494340434883404340B
:101BC0007D34043471340434663404345A340434B7
:101BD00050340434453404343A3404343034043456
:101BE000263404341C3404341234043409340434E8
:101BF000FF340334F6340334ED340334E434033473
:101C0000DC340334D3340334CB340334C2340334EC
:101C1000BA340334B2340334AA340334A234033460
:101C20009B340334933403348C34033485340334C9
:101C30007E3403347734033470340334693403342A
:101C4000623403345C340334553403344F34033486
:101C500048340334423403343C34033436340334DC
:101C6000303403342A340334243403341F3403342B
:101C700019340334133403340E3403340934033475
:101C800003340334FE340234F9340234F4340234BD
:101C9000EF340234EA340234E5340234E0340234FE
:101CA000DB340234D7340234D2340234CD3402343B
:101CB000C9340234C4340234C0340234BC34023473
:101CC000B7340234B3340234AF340234AB340234A8
:101CD000A6340234A23402349E3402349A340234DC
:101CE00097340234933402348F3402348B34023408
:101CF0008734023484340234803402347C34023435
:101D00007934023475340234723402346E3402345D
:101D10006B34023467340234643402346134023484
:101D20005E3402345A3402345734023454340234A8
:101D3000513402344E3402344B34023448340234C9
:101D400045340234423402343F3402343C340234E9
:101D50003934023436340234333402343034023409
:101D60002E3402342B340234283402342534023425
:101D700023340234203402341E3402341B3402343F
:101D80001834023416340234133402341134023459
:101D90000E3402340C3402340A3402340734023470
:101DA000053402340234023400340234FE34013487
:101DB000FB340134F9340134F7340134F53401349F
:101DC000F2340134F0340134EE340134EC340134B3
:101DD000EA340134E8340134E6340134E3340134C4
:101DE000E1340134DF340134DD340134DB340134D7
:101DF000D9340134D7340134D5340134D3340134E7
:101E0000D2340134D0340134CE340134CC340134F2
:101E1000CA340134C8340134C6340134C434013402
:101E2000C3340134C1340134BF340134BD3401340E
:101E3000BC340134BA340134B8340134B63401341A
:101E4000B5340134B3340134B1340134B034013425
:101E5000AE340134AC340134AB340134A934013430
:101E6000A8340134A6340134A4340134A334013439
:101E7000A1340134A03401349E3401349D34013442
:101E80009B3401349A34013498340134973401344A
:101E90009534013494340134923401349134013452
:101EA000903401348E3401348D3401348B34013458
:101EB0008A3401348934013487340134863401345E
:101EC0008534013483340134823401348134013463
:101ED0007F3401347E3401347D3401347B34013469
:101EE0007A3401347934013478340134763401346D
:101EF0007534013474340134733401347134013471
:101F0000703401346F3401346E34013400340034E1
:101F10000A340034143400341E34003428340034BD
:101F2000323400343A340034423400344A34003419
:101F300050340034563400345B3400345F340034A1
:101F40006134003463340034643400346334003466
:101F5000613400345F3400345B3400345634003470
:101F6000503400344A340034423400343A340034BB
:101F700032340034283400341E3400341434003435
:101F80000A34003400340034F634FF34EC34FF34C7
:101F9000E234FF34D834FF34CE34FF34C634FF3457
:101FA000BE34FF34B634FF34B034FF34AA34FF34C7
:101FB000A534FF34A134FF349F34FF349D34FF3403
:101FC0009C34FF349D34FF349F34FF34A134FF34FC
:101FD000A534FF34AA34FF34B034FF34B634FF34B0
:101FE000BE34FF34C634FF34CE34FF34D834FF342B
:101FF000E234FF34EC34FF34F634FF340034003480
:102000002200200C031C0D1203180D16220C031CB9
:102010000D1103180D15210C031C8D1203188D16BC
:10202000230C031C8D1103188D15080022000F10BE
:102030008F100F118F110F12332822000F14080078
:1020400022008F14080022000F15080022008F15AF
:10205000080022000F16080022000F148F140F151D
:102060008F150F16080020002308003A031939289D
:1020700050282208013A03191D28033A0319202881
:10208000013A03192328073A03192628013A0319AC
:102090002928033A03195028623A03192C2850289A
:1020A00008002000B1018E30AE002E08B000AD1F38
:1020B0006628AA09AB09AC09AD09AA0A0319AB0A3B
:1020C0000319AC0A0319AD0AB101B10AFF302D059D
:1020D000031976280130AD36AC0CAB0CAA0C890B79
:1020E0006B280130AE002E08B00766282A08A2002F
:1020F0002B08A3002C08A4003008AE002E08A50071
:102100003108AF002F08A6009431EF2420002208E8
:10211000AA002308AB002408AC000800003020000F
:10212000AB000030AA000330A900E830A8000C3052
:10213000BB00F230BC000130BD000030BE003A08E8
:10214000A3003908A2003808A5003708A4009E3172
:102150009226903120002208BF002308C0000030E2
:10216000C01BFF30C100C2003F08BB074008BC3D98
:102170004108BD3D4208BE3D3E08AF003D08AE00EF
:102180003C08AD003B08AC009531C3252000290870
:10219000B8002808B70008000034003415340034B3
:1021A000293400343B3400344A340034573400348A
:1021B0005F34003463340034633400345F340034FB
:1021C000573400344A3400343B340034293400346A
:1021D0001534003400340034EB34FF34D734FF348A
:1021E000C534FF34B634FF34A934FF34A134FF348E
:1021F0009D34FF349D34FF34A134FF34A934FF34BF
:10220000B634FF34C534FF34D734FF34EB34FF34F5
:1022100000340034643400346434003464340034F2
:10222000643400346434003464340034643400347E
:10223000643400346434003464340034643400346E
:10224000643400346434003464340034643400345E
:102250009C34FF349C34FF349C34FF349C34FF3472
:102260009C34FF349C34FF349C34FF349C34FF3462
:102270009C34FF349C34FF349C34FF349C34FF3452
:102280009C34FF349C34FF349C34FF346434003479
:1022900000340034073400340D3400341434003476
:1022A0001B34003421340034283400342F340034FB
:1022B000353400343C340034433400344934003481
:1022C00050340034573400345D3400349C34FF34CF
:1022D000A334FF34A934FF34B034FF34B734FF34AF
:1022E000BD34FF34C434FF34CB34FF34D134FF3435
:1022F000D834FF34DF34FF34E534FF34EC34FF34BA
:10230000F334FF34F934FF34003400340034003443
:102310000D3400341B340034283400343534003498
:1023200043340034503400345D3400345D340034C0
:10233000503400344334003435340034283400340D
:102340001B3400340D34003400340034F334FF34D3
:10235000E534FF34D834FF34CB34FF34BD34FF349C
:10236000B034FF34A334FF34A334FF34B034FF342B
:10237000BD34FF34CB34FF34D834FF34E534FF347C
:10238000F334FF34003400341E302000B40034082D
:10239000B6006430A2000030A3000130A400003079
:1023A000A50088310920913164302000A20000305E
:1023B000A30090311620913120003608B400B501F9
:1023C0003408AE003508AF009F31CE279131003080
:1023D0002000A200A3000130A4000030A500883135
:1023E0000920913100302000A200A3009031162076
:1023F000913120003608B400B5013408AE0035082C
:10240000AF009F31CE27080022001D1021000E11C1
:102410008E1026000D108D110D1221001013901238
:102420001012901110110F30250093040F309A04F0
:102430000F30260093040F309A040F309E040F30A3
:102440002C0093040F3096040F3099040F309C0435
:102450000F309F0425009D019E019F0100309200D6
:10246000323091000030990064309800003026002E
:1024700092009630910000309900C83098009D314C
:10248000D82592318731F927080020000E18822ABA
:1024900001302200B4070030B53D3508803A2000F5
:1024A000A20080302202031D582A1A302200340272
:1024B000031C080019302200B4000030B5000130C0
:1024C0002000A20022082200D70703305702031C75
:1024D000732AD701732A8D10712A8D100D147E2A4C
:1024E0008D140D107E2A5708003A03196B2A013A01
:1024F00003196D2A033A0319702A7E2A20000E1848
:1025000008007E2A2200B401B501080020000F1B3C
:10251000902A2200520803199B2A0130D2029B2ADA
:1025200019302200520203189B2A01302000B40007
:1025300034082200D2075208031D08002100510868
:10254000013ED1000030523DD2005208803A2000B6
:10255000B40080303402031DB02A0730210051023C
:10256000031CB72A01302100D1000030D200210025
:1025700052082000A300210051082000A200903141
:102580001620923120000F1FC22A1430AE000030F6
:10259000AF009F31CE27080027000C108C100C11C3
:1025A0008C110C12F72A720C031C0C1003180C145B
:1025B0000800720C031C8C1003188C140800720C99
:1025C000031C0C1103180C150800720C031C8C1151
:1025D00003188C150800720C031C0C1203180C163F
:1025E00008000C148C140C158C150C1608007108BE
:1025F000003A0319FC2A132B7008013A0319D32A55
:10260000033A0319D92A013A0319DF2A073A0319B1
:10261000E52A013A0319EB2A033A0319132B623A0C
:102620000319F12A132B080021005A082000B600D4
:10263000B70135083706031D1F2B3408360603196A
:1026400008003408B60036082100DA002000340CF7
:102650002200031C0D1103180D158D112000340CE0
:102660002700031C0D1103180D1520003408350434
:10267000031D3D2B27008D143F2B27008D10143098
:102680002000AE000030AF009F31CE2793312700ED
:102690000D118D1021005A082000B600B701360830
:1026A000A2003708A3009D31CE25933114302000BD
:1026B000AE000030AF009F31CE27080020008F1AF7
:1026C000682B22005A080319732B0130DA02732B8E
:1026D000193022005A020318732B01302000B40075
:1026E00034082200DA075A08031D080021005708A1
:1026F000013ED7000030583DD8005808803A2000ED
:10270000B40080303402031D882B073021005702AB
:10271000031C8F2B01302100D7000030D80021008E
:1027200058082000A300210057082000A200013013
:10273000A4000030A5008831092093310130220027
:10274000DD000030DE0020008F1EA32B1430AE0011
:102750000030AF009F31CE27080081302000A2005A
:102760001F30A3009E31AE269331200023082100A4
:10277000D800200022082100D70082302000A200CB
:102780001F30A3009E31AE26933120002308210084
:10279000D200200022082100D1005A08031DD32BAB
:1027A00027008D14D52B27008D1021005A0C2700EF
:1027B000031C0D1103180D1522000D118D110D12A2
:1027C0008D128D100D10210058082000A30021004B
:1027D00057082000A2000130A4000030A500883175
:1027E00009209331210052082000A3002100510844
:1027F0002000A2009031162008000734003407346E
:1028000000340B3400340F340034133400341434E7
:1028100000341534003415340034163400341734C1
:10282000003418340034193400341A3400341B34A2
:1028300000341C3400341D3400341E340034203481
:102840000034213400342334003425340034273458
:1028500000342A3400342D3400343034003433341E
:102860000034373400343C340034423400344834CB
:102870000034503400345B3400346734003478342E
:1028800000348E340034AE340034DF340034FF348E
:102890000034FF340034FF340034FF340034FF349C
:1028A0000034FF340034DF340034AE3400348E346E
:1028B000003478340034673400345B3400345034EE
:1028C000003448340034423400343C34003437346B
:1028D000003433340034303400342D3400342A349E
:1028E00000342734003425340034233400342134B8
:1028F0000034203400341E3400341D3400341C34C1
:1029000000341B3400341A340034193400341834C1
:1029100000341734003416340034153400341534C0
:10292000003414340034133400340F3400340B34C6
:10293000003407340034073400342000A801A31FFA
:10294000A82CA209A309A20A0319A30AA801A80A8C
:10295000A51FB32CA409A509A40A0319A50A0130CF
:10296000A6002608A806A901AA0122082304031923
:10297000E22CA701A70AA31BC72C0130A235A30D87
:10298000890BBE2C0130A6002608A707BB2C0130FE
:10299000A935AA0D890BC82C23082502031DD22CAA
:1029A00022082402031CD92C2208A4022308A53BD8
:1029B00029140130A336A20C890BDA2C0130A702AE
:1029C000031DC72C28080319EA2CA909AA09A90A7A
:1029D0000319AA0A2A08A3002908A2000800200057
:1029E00025080319F82C240823042204031D092DAB
:1029F0000030A2000030A3000030A4000800013025
:102A0000A7002708A5070130A436A30CA20C890B48
:102A1000042DFE3024050319222DFF2C0130A700C0
:102A20002708A5070130A207003003180130A307CB
:102A3000003003180130A4070130A436A30CA20C07
:102A4000890B1D2DFF30240503192F2D0E2D01306C
:102A5000A5020130A235A30DA40D890B2A2DA31BBD
:102A6000352D023025020318272D25183D2DFF3066
:102A7000A2057F30A305FF30A4050310A50C25088F
:102A8000A700A801A9011030A735A80DA90D890B31
:102A9000442D2708A2042808A3042908A404260812
:102AA00003190800A41708002000B6003603031D10
:102AB000892D0530B7000030B800B81B0800380871
:102AC000A3003708A2000130A4000030A50088311F
:102AD0000920953120003709B4003809B500B40A3F
:102AE0000319B50A3408063EA2000030353DA300A4
:102AF00090311620953105302000AE000030AF0037
:102B00009F31CE279531FF302000B707FF30B83D09
:102B10005D2D0130B9000030BA003A08803AB400A7
:102B200080303402031D962D073039020318080047
:102B300020003A08A3003908A2000130A4000030A8
:102B4000A50088310920953120003909B4003A09DF
:102B5000B500B40A0319B50A3408063EA2000030D5
:102B6000353DA30090311620953105302000AE0090
:102B70000030AF009F31CE27953101302000B907DA
:102B80000030BA3D8D2D2000B201AB1FD42DA80915
:102B9000A909AA09AB09A80A0319A90A0319AA0ACB
:102BA0000319AB0AB201B20AAF1FE52DAC09AD099A
:102BB000AE09AF09AC0A0319AD0A0319AE0A03192D
:102BC000AF0A0130B0003008B2060030B600003065
:102BD000B5000030B4000030B3002B082A042904EB
:102BE000280403192E2EB101B10AAB1B032E0130AC
:102BF000A835A90DAA0DAB0D890BF82D0130B00039
:102C00003008B107F52D0130B335B40DB50DB60D53
:102C1000890B042E2B082F02031D182E2A082E02C2
:102C2000031D182E29082D02031D182E28082C021A
:102C3000031C232E2808AC022908AD3B2A08AE3B12
:102C40002B08AF3B33140130AB36AA0CA90CA80CEF
:102C5000890B242E0130B102031D032E3208031903
:102C60003C2EB309B409B509B609B30A0319B40A6D
:102C70000319B50A0319B60A3608AB003508AA00CD
:102C80003408A9003308A800080021002008A40087
:102C90002108A5002208A6000310250D260DA70077
:102CA0002708AD002D08031D5E2E0030A300003064
:102CB000A2000030A1000030A00008002008A400FD
:102CC0002108A5002208A6001730A636A50CA40CE2
:102CD000890B652E2408A7002708A800A117FF303C
:102CE000A005FF30A1050030A2052008A900210899
:102CF000AA002208AB00AC018E30AD02AD1F9C2EA5
:102D00002D08803A8F3E03188E2E0030A30000302D
:102D1000A2000030A1000030A00008000130AC3655
:102D2000AB0CAA0CA90C890B8F2E0130A40024082F
:102D3000AD070319B52E8E2E18302D02031CB22EAE
:102D40000030A3000030A2000030A1000030A0003D
:102D500008000130A935AA0DAB0DAC0D890BAA2EC8
:102D60000130AD022D08031DA92E28080319C32E1A
:102D7000A909AA09AB09AC09A90A0319AA0A0319E6
:102D8000AB0A0319AC0A2C08A3002B08A2002A08DE
:102D9000A1002908A000080020005D08AA005E0824
:102DA000AB005F08AC005A08A2005B08A3005C08F7
:102DB000A40088310020963120002208AD002308AD
:102DC000AE002408AF008A31B822963120002A08CC
:102DD000C7002B08C8002C08C9006308AA006408B3
:102DE000AB006508AC006008A2006108A30062089F
:102DF000A40088310020963120002208AD0023086D
:102E0000AE002408AF008A31B822963120002A088B
:102E1000B7002B08B8002C08B9005708AA005808BA
:102E2000AB005908AC005A08A2005B08A3005C087C
:102E3000A40088310020963120002208AD0023082C
:102E4000AE002408AF008A31B822963120002A084B
:102E5000BA002B08BB002C08BC0088315D209631DD
:102E600020003708CA003808CB003908CC00973159
:102E70005727963120004708E6004808E700490830
:102E8000E8006008AA006108AB006208AC006608B0
:102E9000AD006708AE006808AF008A31B822200094
:102EA0002A08D7002B08D8002C08D90008002000D9
:102EB0004A08CD004B08CE004C08CF0003104E0D41
:102EC0004F0DD0005008D5005508031D6E2F00305F
:102ED000C7000030C8000030C90008004708CD0016
:102EE0004808CE004908CF0003104E0D4F0DD0000A
:102EF0005008D6005608031D842F0030C70000304C
:102F0000C8000030C90008000030D2000030D300F3
:102F10000030D40089305607CD004D08D5024A084C
:102F2000CD004B08CE004C08CF001030CF36CE0C71
:102F3000CD0C890B962F4D08D0005008D6004708BD
:102F4000CD004808CE004908CF001030CF36CE0C57
:102F5000CD0C890BA62F4D08D0005008D606803026
:102F6000CD004D08D605CB17FF30CA05FF30CB0585
:102F70000030CC05C817FF30C705FF30C80500304A
:102F8000C9051830CD004D08D1000130D235D30D20
:102F9000D40D890BC62F49084C02031DD52F4808B4
:102FA0004B02031DD52F47084A02031CDE2F47089A
:102FB000CA024808CB3B4908CC3B52140130CA3501
:102FC000CB0DCC0D890BDF2F0130D102031DC52F96
:102FD0005208A2005308A3005408A4005508CD00CD
:102FE0004D08A5005608CE004E08A6009431EF24E7
:102FF00020002208C7002308C8002408C9000800D0
:103B9C0008000434FC302100990508002000A20123
:103BAC00A3010800873020009C05FC309C05FF30E9
:103BBC009B001C15080021009E171E088F396038C9
:103BCC009E00FC309E051D140800FE0012001E0015
:103BDC000130FE020030FF3B7F087E0403190034E5
:103BEC00EC2D6400800101310130FE020030FF3BFE
:103BFC007F087E0403190034F82D9D31D4259E31A5
:103C0C0020002308B9002208B8003908B50038088C
:103C1C00B400933114230800003022000D1A013037
:103C2C00A00000300D190130A20000308D1A0130B7
:103C3C00A10000308D190130A3000800D0340734E6
:103C4C0000340034D03407340034003406340034EB
:103C5C00D0340734E8340334063400341434FF34DD
:103C6C00FF346434003401340034D0340734D0349D
:103C7C000734D0340734D0340734D034073401340B
:103C8C000034013400340134FF3420006908A400EE
:103C9C00A50123082506031D552E22082406031909
:103CAC0008002208A4002408E900220C2200031CAE
:103CBC008D1103188D15080020006A08A400A501B9
:103CCC0023082506031D6C2E220824060319080060
:103CDC002208A4002408EA00220C2200031C8D12E6
:103CEC0003188D1608002000A5002508A400A40DBB
:103CFC00A40D21001D082000240683392406210070
:103D0C009D009D149D18882E1C082000A3002100E6
:103D1C001B082000A20008002000A601A701221CFD
:103D2C009B2E2408A6072508A73D0130A435A50D18
:103D3C00890B9C2E0130A336A20C890BA12E2208D4
:103D4C002304031D952E2708A3002608A2000800B3
:103D5C0000308B1B01302000A4008B1322082300A1
:103D6C009100200023082300920015131514000065
:103D7C0000002000240C031C8B1303188B1723004A
:103D8C0014082000A300230013082000A200080040
:103D9C002000AF01AB1FD92EAA09AB09AA0A03193F
:103DAC00AB0AAF01AF0A2A08A2002B08A300A4019A
:103DBC008E30AD002D08A5002F08AE002E08A600F1
:103DCC009431EF2420002208AA002308AB00240819
:103DDC00AC0008002000A301A4012408803AA20032
:103DEC0080302202031DFC2E0C3023020318080025
:103DFC0020002308A2000130A235FF3E031D022F34
:103E0C002235A03E8600013087000030C03F0030D4
:103E1C00C13FC23FC33F0130A3070030A43DF32E86
:103E2C009E3112269F3101302000BB003B0821003F
:103E3C00EB0022000D120D118D128D110D108D1035
:103E4C000030953154259F310030953154259F31E8
:103E5C000130953154259F310130953154259F31D6
:103E6C009131C4219F319131C4219F312100EB014B
:103E7C0090310020080020006B08B600B70135080F
:103E8C003706031D4B2F3408360603190800340877
:103E9C00B6003608EB0034033504031D582F2200FE
:103EAC000D120D112000340C2200031C8D10031870
:103EBC008D142000340C2200031C0D1003180D145B
:103ECC0014302000AE000030AF009F31CE27080028
:103EDC0021000D108D100D118D110D128D120E145F
:103EEC000E128E120F108F100F118F110F128F16C2
:103EFC000F178F171014901423001010901020001F
:103F0C001010901026000C108C100C118C110C122F
:103F1C008C120C1728000C1326008D100D119D31DE
:103F2C00E1259F31923104228B178B160B1108005F
:103F3C0000302000AD000030AC000030AB00003091
:103F4C00AA00221CB12F2608AA072708AB3D280877
:103F5C00AC3D2908AD3D0130A635A70DA80DA90D26
:103F6C00890BB22F0130A536A40CA30CA20C890B23
:103F7C00B92F2508240423042204031DA72F2D0880
:103F8C00A5002C08A4002B08A3002A08A2000800F6
:103F9C0000302000B3000030B2000030B10000301F
:103FAC00B0002E08A2002F08A300A401A501003028
:103FBC00A9000030A8000330A700E830A6009F310C
:103FCC009E279F3120002508B3002408B200230847
:103FDC00B1002208B0003308320431043004031954
:103FEC000800FF30B007FF30B13DFF30B23DFF306D
:043FFC00B33DF12FB1
:020000040001F9
:04000E00E2FFFFDF2F
:00000001FF
