:0400000081317329AE
:100008007E14803120007F08F8000B1DAD280130D8
:10001800F4000030F5000030F6000030F700210051
:100028006208F4076308F53D6408F63D6508F73D86
:100038007708E5007608E4007508E3007408E20034
:100048000130F4000030F5000030F6000030F70011
:100058005E08F4075F08F53D6008F63D6108F73D66
:100068007708E1007608E0007508DF007408DE0014
:100078000130F4000030F5000030F6000030F700E1
:100088007908F4077A08F53D7B08F63D7C08F73DCA
:100098007708FC007608FB007508FA007408F90078
:1000A8000130F4000030F5000030F6000030F700B1
:1000B80022003808F4073908F53D3A08F63D3B08B0
:1000C800F73D7708BB007608BA007508B9007408D0
:1000D800B80001302300CC070030CD3D0030CE3DC4
:1000E8000030CF3D21006903031D91280130220013
:1000F800CE070030CF3D4F0821003502031D882868
:1001080022004E08210034020318912835082200E5
:10011800CF00210034082200CE0021006A03031D0D
:10012800AC2801302200DA070030DB3D5B082100F3
:100138003502031DA32822005A082100340203189F
:10014800AC2835082200DB00210034082200DA0040
:100158000B1120006F08031DF4287D08031DF428E7
:10016800EE30210020060230031921062204230460
:10017800031DC12822008D14C32822008D102100E0
:100188006508803AF4002308803A7402031DD628D3
:1001980022086402031DD62821086302031DD628FD
:1001A80020086202031CE32822000D1600302100FB
:1001B800E5000030E4000030E3000030E200E51B19
:1001C800F4286508031DF2286408031DF228630853
:1001D800031DF22814306202031CF42822000D12B9
:1001E80021006108803AF4002708803A7402031D50
:1001F800072926086002031D072925085F02031D39
:10020800072924085E02031C20296D08031D1729ED
:100218003908F1003808F0000130F2000030F3002E
:1002280093315823803100302100E1000030E00094
:100238000030DF000030DE00E11B3C296108031DAF
:100248002F296008031D2F295F08031D2F2914304B
:100258005E02031C3C296D08031D3C293908F10086
:100268003808F0000030F200F30093315823803151
:1002780022006403031D67290130F400740821007B
:10028800EC0722006608803A803C031D4E29650869
:1002980021006C02031C6C2922008D146608F500ED
:1002A8006508F400F435F50D7508803AF6008030DD
:1002B8007602031D622921006C08740203186E2956
:1002C8002100EC016E2921006C0803196E29EC014C
:1002D80022008D1078082000FF007E10090081316F
:1002E8007529F901FA01FB01FC01FD01DE308400EA
:1002F800003085001230FE000030FF009E31B72626
:10030800813120308400013085004530FE00003006
:10031800FF009E31B7268131A0308400013085006E
:100328003030FE000030FF009E31B726813120308A
:100338008400053085004030FE000030FF009E310B
:10034800B7268131883084008D308500783086006A
:10035800233087000230FF0078309E31AB26813190
:100368008731FE278131EF004E3084009F308500B1
:10037800A0308600003087000030FF001F309E311B
:10038800AB268131A13084009E308500653086001F
:10039800013087000030FF000A309E31AB268131E2
:1003A800DF308400913085002030860002308700DD
:1003B8000030FF003A309E31AB268131A5308400F1
:1003C80091308500A0308600023087000030FF00A1
:1003D8003A309E31AB2681316B30840091308500F4
:1003E80020308600033087000030FF003A309E310D
:1003F800AB2681318A30840094308500A030860095
:10040800033087000030FF0050309E31AB26813129
:100418003A3084009430850020308600043087000C
:100428000030FF0050309E31AB26813131308400DE
:1004380091308500A0308600043087000030FF002E
:100448003A309E31AB267E10200082312B2A9E3115
:100458007D2682319031342082312000101490148E
:100468000F178F160E148F179F31AF2782319E31C9
:10047800C32682319331EA2382319031942082312C
:100488009031F720823193311323823120008F1B62
:100498006B2A01302200C6070030C73D4708803A62
:1004A8002100C90080304902031D5D2A1A3022004C
:1004B8004602031C6E2A19302200C6000030C7000D
:1004C8009F31D527823120008F1B6E2A672A220090
:1004D800C601C7018831E62082318B31B9238231C8
:1004E80000309E31FF268231200021082200D100F1
:1004F800200020082200D00001309E31FF268231E2
:10050800200021082200D300200020082200D20069
:1005180002309E31FF268231200021082200D500BA
:10052800200020082200D40003309E31FF268231AB
:10053800200021082200D700200020082200D60031
:1005480004309E31FF268231200021082200D90084
:10055800200020082200D80021002A09C9002B0900
:10056800CA00C90A0319CA0A22005008210049070B
:10057800CB002200510821004A3DCC004C08803AAB
:10058800CD0080304D02031DCB2A04304B020318E6
:10059800EA2A21002A09C9002B09CA00C90A031935
:1005A800CA0A2200500821004907CB00220051083E
:1005B80021004A3DCC004C08803ACD007F304D02E6
:1005C800031DE82AFD304B0203183F2B2200510877
:1005D8002100AB00220050082100AA0000302000B2
:1005E800E1004830E2004330E3008030DE00923022
:1005F800DF004430E000C030DB007F30DC004430F6
:10060800DD000030D8000030D9000030DA002100C9
:100618002B082000A90021002A082000A8009F31EB
:100628008D27823120002808D5002908D6002A08FD
:10063800D7009631D626823120005508E7005608A3
:10064800E8005708E90097316127823120006A08DD
:100658002100A300200069082100A20020006808EA
:100668002100A100200067082100A000013022001D
:10067800E7000030E80021002C09C9002D09CA0054
:10068800C90A0319CA0A2200520821004907CB00E7
:100698002200530821004A3DCC004C08803ACD0086
:1006A80080304D02031D5A2B04304B020318792B5E
:1006B80021002C09C9002D09CA00C90A0319CA0A50
:1006C8002200520821004907CB00220053082100CC
:1006D8004A3DCC004C08803ACD007F304D02031DC6
:1006E800772BFD304B020318D62B2200530821002C
:1006F800AD00220052082100AC0000302000E100CB
:100708001C30E2004230E3000030DE000030DF0041
:100718000030E000C030DB007F30DC004430DD001A
:100728000030D8000030D9000030DA0021002D0850
:100738002000A90021002C082000A8009F318D2747
:10074800823120002808D5002908D6002A08D700B9
:100758009631D626823120005508E7005608E80071
:100768005708E90097316127823120006808210085
:10077800DB00200067082100DA005A35203E860099
:1007880004308700403F25009800413F9900210030
:100798005A35A03E860003308700403F260091006E
:1007A800413F920021002E09C9002F09CA00C90A39
:1007B8000319CA0A2200540821004907CB00220065
:1007C800550821004A3DCC004C08803ACD008030C5
:1007D8004D02031DF12B04304B020318102C21008D
:1007E8002E09C9002F09CA00C90A0319CA0A22001A
:1007F800540821004907CB002200550821004A3D32
:10080800CC004C08803ACD007F304D02031D0E2CE1
:10081800FD304B0203186D2C220055082100AF0053
:10082800220054082100AE0000302000E100003012
:10083800E2000030E3000030DE008030DF004130AD
:10084800E000C030DB007F30DC004430DD000030E9
:10085800D8000030D9000030DA0021002F0820002D
:10086800A90021002E082000A8009F318D27823181
:1008780020002808D5002908D6002A08D700963174
:10088800D626823120005508E7005608E8005708A8
:10089800E900973161278231200068082100DD00D6
:1008A800200067082100DC005C35203E860004300B
:1008B8008700403F26009800413F990021005C35A1
:1008C800A03E860003308700403F26009C00413F41
:1008D8009D0021003009C9003109CA00C90A03195D
:1008E800CA0A2200560821004907CB0022005708EF
:1008F80021004A3DCC004C08803ACD0080304D02A2
:10090800031D882C04304B020318A72C2100300942
:10091800C9003109CA00C90A0319CA0A22005608BF
:1009280021004907CB002200570821004A3DCC008E
:100938004C08803ACD007F304D02031DA52CFD30B8
:100948004B020318EF2C220057082100B1002200A7
:1009580056082100B00000302000E1007A30E200A3
:100968004430E3000030DE007030DF004230E00049
:10097800C030DB007F30DC004430DD000030D800C0
:100988000030D9000030DA00210031082000A90029
:10099800210030082000A8009F318D2782312000D7
:1009A8002808D5002908D6002A08D7009631D62667
:1009B800823120005508E7005608E8005708E9008A
:1009C800973161278231200068082200EA00200060
:1009D80067082200E90021003209C9003309CA006A
:1009E800C90A0319CA0A2200580821004907CB007E
:1009F8002200590821004A3DCC004C08803ACD001D
:100A080080304D02031D0A2D04304B020318292D96
:100A180021003209C9003309CA00C90A0319CA0AE0
:100A28002200580821004907CB002200590821005C
:100A38004A3DCC004C08803ACD007F304D02031D62
:100A4800272DFD304B020318312D220059082100B3
:100A5800B300220058082100B200220069082100D2
:100A6800C90022006A082100CA000030CA1BFF30F2
:100A7800CB00CC0022003B08803A2100CD004C0876
:100A8800803A4D022200031D592D21004B082200F7
:100A98003A02031D592D21004A0822003902031D7C
:100AA800592D2100490822003802031C7E2E2100FE
:100AB8006608013EE6000030673DE700003022008E
:100AC800BB000030BA000030B9000030B800210087
:100AD800280329040319752D053028062904031D48
:100AE8007E2D6708803AC90080304902031D872D92
:100AF8003D30862D6708803AC90080304902031DC1
:100B0800872D20306602031C8C2D2100E601E701A9
:100B180000302000E1000030E2000030E3006030E7
:100B2800DE009F30DF004430E000C030DB007F3063
:100B3800DC004430DD000030D8000030D90000303F
:100B4800DA00210033082000A90021003208200023
:100B5800A8009F318D27823120002808D500290858
:100B6800D6002A08D7009631D626823120005508AB
:100B7800E7005608E8005708E900973161278231F5
:100B8800200068082100D900200067082100D8004B
:100B9800282E6708CA006608C900C935CA0D78300A
:100BA800CB002330CC0049084B0786004A084C3D4F
:100BB8008700403F2200DC00413F022E21006635BD
:100BC800203E860002308700403F2200DC00413F83
:100BD800022E21006635A03E860002308700403F85
:100BE8002200DC00413F022E21006635203E8600AF
:100BF80003308700403F2200DC00413FDD00252E06
:100C080021006708CA006608C900C935CA0D7830CE
:100C1800CB002330CC0049084B0786004A084C3DDE
:100C28008700403F2200DC00413FDD00FB3021000F
:100C3800D8000430D90020000E16422E2200DC0114
:100C4800DD0120000E12422E21002908003A031966
:100C58002E2E422E2808013A0319CD2D033A0319E6
:100C6800E22D013A0319ED2D073A0319F82D013A3F
:100C78000319042E033A0319222E422E22005D087E
:100C88002000B60022005C082000B50021005908A9
:100C98002000B800210058082000B70092315422E3
:100CA8008231200036082200DD00200035082200AD
:100CB800DC0002302000A0000030A10022005D0806
:100CC8002000A30022005C082000A2009431DA244E
:100CD8008231200021082C009B00200020082C00D5
:100CE8009A0000302200BB000030BA000030B90082
:100CF8000030B80067036804031D412A2100230857
:100D0800A7002208A6002108A5002008A4002108A1
:100D1800C6002008C5003908C8003808C7008A314D
:100D2800C022823121004508A4004608A500890D8B
:100D3800893B8909A600A7002200CC01CD01CA0180
:100D4800CB0122004C084D04031D002F4B08210045
:100D5800CA0022004A082100C900C935CA0DF2306C
:100D6800CB002330CC0049084B0786004A084C3D8D
:100D78008700403FCD00413FCE004D08CF004E08D0
:100D8800D0000030D01BFF30D100D2002408D3009F
:100D98002508D4002608D5002708D6000130D33509
:100DA800D40DD50DD60D890BD32E5608803AD70011
:100DB8005208803A5702031DEB2E51085502031DB5
:100DC800EB2E50085402031DEB2E4F085302031C50
:100DD800FA2E01302200CC000030CD004B0825004F
:100DE800920022004A0825009100A52E0130220019
:100DF800CA070030CB3DA52E210027082000AB00F4
:100E0800210026082000AA00210025082000A900AA
:100E1800210024082000A800883100208231200009
:100E28002808C8002908C9002A08CA000030C500D7
:100E3800F030C6004030C70088313D2082312000A4
:100E48004508E7004608E8004708E90097316127A8
:100E58008231200068082200EA002000670822008A
:100E6800E900E701E801412A20003508BB003608FF
:100E7800BC003708BD0003103C0D3D0DBE003E0808
:100E8800BF003F08031D4F2F0030B5000030B600EB
:100E98000030B70008003808BB003908BC003A0821
:100EA800BD0003103C0D3D0DBE003E08C4004408C3
:100EB800031D652F0030B5000030B6000030B700C4
:100EC800080044087B3EBB003B08BF073508BB0051
:100ED8003608BC003708BD001030BD36BC0CBB0C52
:100EE800890B712F3B08BE003E08C4003808BB00C0
:100EF8003908BC003A08BD001030BD36BC0CBB0C2C
:100F0800890B812F3B08BE003E08C4068030BB0019
:100F18003B08C405B617B917FF30B805FF30B90547
:100F28000030BA050030C0000030C1000030C200F7
:100F38000730BB003B08C300351CA82F3808C00782
:100F48003908C13D3A08C23D0130B736B60CB50C78
:100F5800890BA92F0130B835B90DBA0D890BAF2F00
:100F68000130C302031DA02F0930BB003B08C3009A
:100F7800351CC42F3808C0073908C13D3A08C23D9E
:100F88000130B736B60CB50C890BC52F0130C23607
:100F9800C10CC00C890BCB2F0130C302031DBC2F21
:100FA8004008A0004108A1004208A2003F08BB0079
:100FB8003B08A3004408BC003C08A40095318025E8
:100FC80020002008B5002108B6002208B700080054
:100FD800003022000D1A0130B40000300D19013024
:100FE800B60000308D1A0130B50000308D1901307F
:100FF800B7000800FF3408002000AF018E30AC00B5
:101008002C08AE00AB1F1528A809A909AA09AB0925
:10101800A80A0319A90A0319AA0A0319AB0AAF01F6
:10102800AF0AFF302B05031925280130AB36AA0C6F
:10103800A90CA80C890B1A280130AC002C08AE07A3
:1010480015282808A0002908A1002A08A2002E08AF
:10105800AC002C08A3002F08AD002D08A400953182
:10106800802520002008A8002108A9002208AA003D
:10107800080020004808CB004908CC004A08CD00E9
:1010880003104C0D4D0DCE004E08D3005308031D20
:1010980054280030C5000030C6000030C7000800E2
:1010A8004508CB004608CC004708CD0003104C0D7E
:1010B8004D0DCE004E08D4005408031D6A28003098
:1010C800C5000030C6000030C70008000030D0005E
:1010D8000030D1000030D20089305407CB004B08D3
:1010E800D3024808CB004908CC004A08CD0010308C
:1010F800CD36CC0CCB0C890B7C284B08CE004E0887
:10110800D4004508CB004608CC004708CD00103075
:10111800CD36CC0CCB0C890B8C284B08CE004E0856
:10112800D4068030CB004B08D405C917FF30C8055A
:10113800FF30C9050030CA05C617FF30C505FF30A6
:10114800C6050030C7051830CB004B08CF0001306A
:10115800D035D10DD20D890BAC2847084A02031DA2
:10116800BB2846084902031DBB2845084802031C42
:10117800C4284508C8024608C93B4708CA3B50145A
:101188000130C835C90DCA0D890BC5280130CF02F9
:10119800031DAB285008A0005108A1005208A20066
:1011A8005308CB004B08A3005408CC004C08A400FB
:1011B8009531802520002008C5002108C600220896
:1011C800C700080020009018FC2822005F08803A19
:1011D8002000B60080303602031DF52801302200B9
:1011E8005E02031C0F29FF302200DE07FF300E29A4
:1011F80022005F08803A2000B60080303602031DC6
:101208000829193022005E0203180F290130220034
:10121800DE070030DF3D22005E085F04031D7029F1
:1012280021006908031D1D29E901E90A2200CE01F0
:10123800CF012100350822004F02031D2729210074
:10124800340822004E02031C472921003B08031DD5
:1012580047297D08031D472922000D1121006A0333
:1012680003193F2901302000A0000030A1009F3160
:1012780018278831472901302000B2000030B30018
:101288009031072088317D08031D6C2921003B0817
:10129800031D6C293D03031D5D2922006B036C04AB
:1012A800031D6C29EE01EE0A0130E0000030E10078
:1012B8006C292100680303196C292200EE01210022
:1012C800E801E80A2200E001E1012100BB01E9018F
:1012D8002200EB01EC0108005F08803A2000B6000C
:1012E80080303602031D7B29193022005E02031C60
:1012F80008007D03031D892922006E082000B6001E
:10130800B7013608B2003708A32921006803031D76
:101318003B03031D942901302000B2000030A329AB
:10132800220060036104031DA72921003B08031D57
:10133800A7297D08031DA72900302000B200B300AB
:101348009331A023883121003D0C2200031C0D118C
:1013580003180D1500302000A000A1009F311827A8
:10136800883100302000B200B300903107202100FE
:10137800E901E8012200E001E1010130EB00003061
:10138800EC001930DE000030DF00080020002808DB
:10139800AE002908AF002A08B00003102F0D300D49
:1013A800B1003108B4002B08AE002C08AF002D089E
:1013B800B00003102F0D300DB1003108B300340810
:1013C8000319F229330834020318F9293403FF3AC0
:1013D8003307AE0019302E02031CF9292B08A80088
:1013E8002C08A9002D08AA000800330803190800D2
:1013F800340833020318082A3303FF3A3407AE00CF
:1014080019302E02031808000630AE002E08B2006C
:10141800AA1BB217AD1B3217A917FF30A805FF305A
:10142800A9050030AA05AC17FF30AB05FF30AC05A5
:101438000030AD05330834020318442A0130AB35B7
:10144800AC0DAD0D890B232A0130B30233083406E5
:1014580003193F2A0130B2023208073903193F2A1B
:10146800222A0130AA36A90CA80C890B362A013089
:10147800AE002E08B407340833060319692A352A42
:10148800340833020318692A0130A835A90DAA0DBA
:10149800890B492A0130B402330834060319652A36
:1014A8000130B202320807390319652A482A013087
:1014B800AD36AC0CAB0C890B5C2A0130AE002E08A3
:1014C800B30734083306031D5B2AB21F7B2AFF309B
:1014D800A806FF30A906FF30AA060130A807003089
:1014E80003180130A907003003180130AA07321F7A
:1014F8008D2AFF30AB06FF30AC06FF30AD06013059
:10150800AB07003003180130AC0700300318013076
:10151800AD07B2012808AB072908AC3D2A08AD3D44
:10152800AD1FA82AFF30AB06FF30AC06FF30AD0672
:101538000130AB07003003180130AC070030031846
:101548000130AD07B201B20A2B08A0002C08A10097
:101558002D08A2003408AE002E08A3003208AF0000
:101568002F08A4009531802520002008A800210814
:10157800A9002208AA0008009E2B21004608200086
:10158800A900210045082000A8009F318D278A3135
:1015980020002808B8002908B9002A08BA00003035
:1015A800B5004030B6003F30B700873138278A3160
:1015B80020003508E7003608E8003708E9009731C9
:1015C8006127200068082100C60020006708210064
:1015D800C500080046082000A90021004508200091
:1015E800A8009F318D278A3120002808B8002908D3
:1015F800B9002A08BA00AA30B5002A30B6003F3030
:10160800B700873138278A3120003508E7003608C7
:10161800E8003708E90097316127200068082100B1
:10162800C600200067082100C50008004608200001
:10163800A900210045082000A8009F318D278A3184
:1016480020002808B8002908B9002A08BA00003084
:10165800B5000030B6003F30B700873138278A31EF
:1016680020003508E7003608E8003708E900973118
:101678006127200068082100C600200067082100B3
:10168800C500080046082000A900210045082000E0
:10169800A8009F318D278A3120002808B800290822
:1016A800B9002A08BA00A630B500AA30B6003E3004
:1016B800B700873138278A3120003508E700360817
:1016C800E8003708E9009731612720006808210001
:1016D800C600200067082100C50008004608200051
:1016E800A900210045082000A8009F318D278A31D4
:1016F80020002808B8002908B9002A08BA000030D4
:10170800B5008030B6003E30B700873138278A31BF
:1017180020003508E7003608E8003708E900973167
:101728006127200068082100C60020006708210002
:10173800C500080021004808003A0319A42BB82B5B
:101748004708013A0319C12A033A0319EE2A013A54
:1017580003191A2B073A0319462B013A0319722B5E
:10176800033A0319B82BB82B08002000BE01101843
:10177800C42B21006F080319CF2B0130EF02CF2BA8
:10178800193021006F020318CF2B01302000B6005A
:1017980036082100EF076F08031D702DFC1B542C21
:1017A8007C08031DE02B7B08031DE02B1B3079020E
:1017B80006307A3B031C542C6E0303191D2CEE01D2
:1017C800EE0A0030FC000030FB000030FA00003068
:1017D800F9000130B6000030B70000302200BF0029
:1017E8000030BE000030BD000030BC00E701E80159
:1017F8000F102000BE01BE0A3E0821003C02031C57
:101808001D2C20003E08B6000130B635FF3E031DF2
:10181800092C3635203E8600013087000030C03F55
:101828000030C13FC23FC33F0130B6003608BE0793
:10183800002C6A08031D272CEA01EA0A2000EF01A0
:101848002200DA01DB012100350822005B02031DBA
:10185800312C2100340822005A02031C0800200001
:101868006F08031D0800210035082200DB00210055
:1018780034082200DA000D122100690303194C2CE8
:1018880001302000A0000030A1009E31E8260800A9
:1018980001302000B2000030B3009031072008006A
:1018A800FC1B622C7C08031D08007B08031D080034
:1018B8001B30790206307A3B0318080020006F08B5
:1018C800031D080021006E0303190800EE01EE0A4B
:1018D800FC1B822C7C08031D7A2C7B08031D7A2CA8
:1018E8009430790204307A3B031C822C0030FC00CF
:1018F8000030FB000430FA009430F9003C08200066
:10190800B600B7013608BC003708BD00210037080B
:10191800803A803C031D922C36083C02031CBC2CE8
:1019280079082200BC077A08BD3D7B08BE3D7C08CB
:10193800BF3D210036082000B6000130B635FF3E15
:10194800031DA22C3635203E860001308700790819
:10195800C03F7A08C13F7B08C23F7C08C33F2100D3
:1019680037082000BD00210036082000BC00312DBA
:1019780000302200BF000030BE000030BD00003043
:10198800BC002000BE01BE0A21003C0820003E0227
:101998000318122D3E08B6000130B635FF3E031D70
:1019A800D12C3635043E203E860001308700403F6A
:1019B800B700413FB800423FB900433FBA003E0874
:1019C800BB000130BB35FF3E031DE62C3B35203EF6
:1019D8008600013087003708C03F3808C13F390802
:1019E800C23F3A08C33F3E08B6000130B635FF3E55
:1019F800031DFA2C3635203E860001308700403F13
:101A08002200BC07413FBD3D423FBE3D433FBF3D75
:101A180001302000B6003608BE07C82C21003C085B
:101A28002000B6000130B635FF3E031D172D3635B0
:101A3800203E8600013087007908C03F7A08C13F00
:101A48007B08C23F7C08C33F79082200BC077A089C
:101A5800BD3D7B08BE3D7C08BF3D20003C08A6007C
:101A68003D08A700890D893B8909A800A900220023
:101A78003F082000AD0022003E082000AC002200F4
:101A88003D082000AB0022003C082000AA00963147
:101A98005426200029082100A3002000280821003E
:101AA800A200200027082100A1002000260821000C
:101AB800A00001302200E7000030E8000030FC0000
:101AC8000030FB000030FA000030F900013021003E
:101AD800B6070030B73D080019306F02031C080034
:101AE800EE01BE0100302000A000A1009E31E826D2
:101AF8002200DA01DB012100EA0119302000B600DA
:101B080036082100EF00080022340834FC3407347A
:101B1800D8340734B534073493340734723407346F
:101B2800523407343434073416340734F93406345D
:101B3800DD340634C2340634A83406348F3406340F
:101B4800763406345E34063447340634303406348A
:101B58001A34063405340634F0340534DC340534DC
:101B6800C8340534B5340534A33405349034053409
:101B78007F3405346D3405345C3405344C34053415
:101B88003C3405342C3405341D3405340E34053406
:101B9800FF340434F1340434E2340434D5340434E6
:101BA800C7340434BA340434AD340434A1340434AE
:101BB80094340434883404347D3404347134043463
:101BC800663404345A340434503404344534043408
:101BD8003A34043430340434263404341C340434A1
:101BE8001234043409340434FF340334F63403342F
:101BF800ED340334E4340334DC340334D3340334B1
:101C0800CB340334C2340334BA340334B234033427
:101C1800AA340334A23403349B3403349334033496
:101C28008C340334853403347E34033477340334FA
:101C38007034033469340334623403345C34033459
:101C4800553403344F3403344834033442340334B2
:101C58003C34033436340334303403342A34033404
:101C6800243403341F340334193403341334033451
:101C78000E3403340934033403340334FE34023499
:101C8800F9340234F4340234EF340234EA340234DE
:101C9800E5340234E0340234DB340234D73402341D
:101CA800D2340234CD340234C9340234C434023458
:101CB800C0340234BC340234B7340234B33402348E
:101CC800AF340234AB340234A6340234A2340234C2
:101CD8009E3402349A3402349734023493340234F2
:101CE8008F3402348B34023487340234843402341F
:101CF800803402347C34023479340234753402344A
:101D0800723402346E3402346B3402346734023471
:101D180064340234613402345E3402345A34023496
:101D28005734023454340234513402344E340234B9
:101D38004B340234483402344534023442340234D9
:101D48003F3402343C3402343934023436340234F9
:101D580033340234303402342E3402342B34023417
:101D68002834023425340234233402342034023433
:101D78001E3402341B34023418340234163402344C
:101D880013340234113402340E3402340C34023465
:101D98000A3402340734023405340234023402347B
:101DA80000340234FE340134FB340134F934013494
:101DB800F7340134F5340134F2340134F0340134A9
:101DC800EE340134EC340134EA340134E8340134BB
:101DD800E6340134E3340134E1340134DF340134CE
:101DE800DD340134DB340134D9340134D7340134DF
:101DF800D5340134D3340134D2340134D0340134ED
:101E0800CE340134CC340134CA340134C8340134FA
:101E1800C6340134C4340134C3340134C134013408
:101E2800BF340134BD340134BC340134BA34013414
:101E3800B8340134B6340134B5340134B334013420
:101E4800B1340134B0340134AE340134AC3401342B
:101E5800AB340134A9340134A8340134A634013434
:101E6800A4340134A3340134A1340134A03401343E
:101E78009E3401349D3401349B3401349A34013446
:101E8800983401349734013495340134943401344E
:101E98009234013491340134903401348E34013455
:101EA8008D3401348B3401348A340134893401345B
:101EB8008734013486340134853401348334013461
:101EC80082340134813401347F3401347E34013466
:101ED8007D3401347B3401347A340134793401346B
:101EE800783401347634013475340134743401346F
:101EF8007334013471340134703401346F34013473
:101F08006E340134003400340A340034143400349C
:101F18001E34003428340034323400343A34003467
:101F2800423400344A3400345034003456340034D7
:101F38005B3400345F34003461340034633400347B
:101F48006434003463340034613400345F34003462
:101F58005B34003456340034503400344A3400348E
:101F6800423400343A3400343234003428340034F3
:101F78001E340034143400340A340034003400347D
:101F8800F634FF34EC34FF34E234FF34D834FF3411
:101F9800CE34FF34C634FF34BE34FF34B634FF3495
:101FA800B034FF34AA34FF34A534FF34A134FF34ED
:101FB8009F34FF349D34FF349C34FF349D34FF3408
:101FC8009F34FF34A134FF34A534FF34AA34FF34DE
:101FD800B034FF34B634FF34BE34FF34C634FF3473
:101FE800CE34FF34D834FF34E234FF34EC34FF34D9
:101FF800F634FF3400340034210095129511151081
:102008009514151108007D082000B400B5013308A7
:102018003506031D11283208340603190800320852
:10202800B4003408FD0032033304031D1E282200C7
:102038000D120D112000320C2200031C8D10031804
:102048008D142000320C2200031C0D1003180D14EF
:1020580014302000AC000030AD009031C5200800DD
:1020680021000D108D100D118D110D128D120E14F1
:102078000E128E120F108F100F118F110F128F1654
:102088000F178F17101490142300101090102000B1
:102098001010901026000C108C100C118C110C12C2
:1020A8008C120C1728000C1326008D100D119E3170
:1020B800972690319231D2228B178B160B1108007C
:1020C80000302000AB000030AA000030A90000302A
:1020D800A800201C77282408A8072508A93D260859
:1020E800AA3D2708AB3D0130A435A50DA60DA70DC7
:1020F800890B78280130A336A20CA10CA00C890BFF
:102108007F282308220421042004031D6D282B089E
:10211800A3002A08A2002908A1002808A000080096
:1021280020000F1B080021002808013EA8000030ED
:10213800293DA9002908803A2000B20080303202E7
:10214800031DA928073021002802031CB0280130EC
:102158002100A8000030A900210029082000A100C2
:10216800210028082000A000923119229031200077
:102178000F1FBB281430AC000030AD009031C520D3
:10218800080000302000B1000030B0000030AF007F
:102198000030AE002C08A0002D08A100A201A30168
:1021A8000030A7000030A6000330A500E830A400E6
:1021B80090316420903120002308B1002208B0003B
:1021C8002108AF002008AE00310830042F042E0487
:1021D80003190800FF30AE07FF30AF3DFF30B03DB8
:1021E800FF30B13DE82820008F1A08002100380888
:1021F800013EB8000030393DB9003908803A200066
:10220800B20080303202031D0C2907302100380249
:10221800031C132901302100B8000030B900210047
:1022280039082000A100210038082000A000013052
:10223800A2000030A30095312C25903101302200F6
:10224800E7000030E80020008F1E27291430AC007A
:102258000030AD009031C52008000034003415343A
:102268000034283400343B3400344A3400345634C3
:1022780000345F34003463340034643400345F3431
:102288000034573400344B3400343C3400342A349E
:1022980000341634003402340034ED34FF34D934B9
:1022A800FF34C734FF34B734FF34AB34FF34A234BF
:1022B800FF349D34FF349C34FF34A834FF34B434E5
:1022C800FF34C334FF34D534FF34E834FF34643486
:1022D80000346434003464340034643400346434C6
:1022E80000346434003464340034643400346434B6
:1022F80000346434003464340034643400346434A6
:10230800003464340034643400349C34FF349C3426
:10231800FF349C34FF349C34FF349C34FF349C34A9
:10232800FF349C34FF349C34FF349C34FF349C3499
:10233800FF349C34FF349C34FF349C34FF349C3489
:10234800FF3400340034073400340D3400341434BE
:1023580000341B34003421340034283400342F3442
:102368000034353400343C340034433400344934C8
:10237800003450340034573400345D3400349C3415
:10238800FF34A334FF34A934FF34B034FF34B734F6
:10239800FF34BD34FF34C434FF34CB34FF34D1347C
:1023A800FF34D834FF34DF34FF34E534FF34EC3401
:1023B800FF34F334FF34003400340D3400341B345C
:1023C8000034283400343534003443340034503475
:1023D80000345D3400345D34003450340034433408
:1023E800003435340034283400341B3400340D34C0
:1023F800003400340034F334FF34E534FF34D83487
:10240800FF34CB34FF34BD34FF34B034FF34A3344D
:10241800FF34A334FF34B034FF34BD34FF34CB343D
:10242800FF34D834FF34E534FF3422000F108F1006
:102438000F118F110F12362A22000F1408002200E4
:102448008F14080022000F15080022008F150800BD
:1024580022000F16080022000F148F140F158F1575
:102468000F16080020002108003A03193C2A532AB5
:102478002008013A0319202A033A0319232A013AAA
:102488000319262A073A0319292A013A03192C2A7B
:10249800033A0319532A623A03192F2A532A0800C8
:1024A80000302000A9000030A8000330A700E83061
:1024B800A6000C30B900F230BA000130BB00003081
:1024C800BC003808A1003708A0003608A30035086A
:1024D800A2009F313227923120002008BD00210838
:1024E800BE000030BE1BFF30BF00C0003D08B9076A
:1024F8003E08BA3D3F08BB3D4008BC3D3C08AD0026
:102508003B08AC003A08AB003908AA0096315426BB
:1025180020002708B6002608B50008001E30200055
:10252800B2003208B4006430A0000030A1000130CD
:10253800A2000030A30095312C2592316430200090
:10254800A0000030A10092311922923120003408F5
:10255800B200B3013208AC003308AD009031C52099
:10256800923100302000A000A1000130A20000300C
:10257800A30095312C25923100302000A000A10045
:1025880092311922923120003408B200B301320886
:10259800AC003308AD009031C520080022001D10A2
:1025A80021000E118E1026000D108D110D12210024
:1025B800101390121012901110110F30250093046F
:1025C8000F309A040F30260093040F309A040F300E
:1025D8009E040F302C0093040F3096040F3099049A
:1025E8000F309C040F309F0425009D019E019F0120
:1025F8000030920032309100003099006430980029
:102608000030260092009630910000309900C830C2
:1026180098009E31852692319031002008002000D4
:102628000E18542B01302200C8070030C93D490854
:10263800803A2000A00080302002031D262B1A308B
:1026480022004802031C080019302200C80000308C
:10265800C90001302000A00020082100EB0703304A
:102668006B02031C442BEB01442B22008D10422BE0
:1026780022008D100D14502B22008D140D10502B9C
:1026880021006B08003A0319392B013A03193C2B36
:10269800033A0319402B502B20000E180800502B2A
:1026A8002200C801C901080027000C108C100C1169
:1026B8008C110C12832B720C031C0C1003180C14B5
:1026C8000800720C031C8C1003188C140800720C80
:1026D800031C0C1103180C150800720C031C8C1138
:1026E80003188C150800720C031C0C1203180C1626
:1026F80008000C148C140C158C150C1608007108A5
:10270800003A0319882B9F2B7008013A03195F2B95
:10271800033A0319652B013A03196B2B073A03197E
:10272800712B013A0319772B033A03199F2B623A4D
:1027380003197D2B9F2B080021003D082000B400C1
:10274800B50133083506031DAB2B320834060319CF
:1027580008003208B40034082100BD002000320C03
:102768002200031C0D1103180D158D112000320CC9
:102778002700031C0D1103180D152000320833041F
:10278800031DC92B27008D14CB2B27008D10143067
:102798002000AC000030AD009031C52093312700F7
:1027A8000D118D1021003D082000B400B50134083A
:1027B800A0003508A1008731FF279331143020008D
:1027C800AC000030AD009031C520080081302000F9
:1027D800A0001F30A1009F316D27933120002108F0
:1027E8002100B900200020082100B8008230200014
:1027F800A0001F30A1009F316D27933120002108D0
:102808002100A900200020082100A8003D08031D80
:10281800102C27008D14122C27008D1021003D0C40
:102828002700031C0D1103180D1522000D118D1121
:102838000D128D128D100D10210039082000A100F5
:10284800210038082000A0000130A2000030A300B9
:1028580095312C259331210029082000A100210061
:1028680028082000A00092311922080007340034FB
:10287800073400340B3400340F340034133400347C
:10288800143400341534003415340034163400344C
:102898001734003418340034193400341A3400342E
:1028A8001B3400341C3400341D3400341E3400340E
:1028B80020340034213400342334003425340034E7
:1028C800273400342A3400342D34003430340034B2
:1028D80033340034373400343C3400344234003468
:1028E80048340034503400345B34003467340034E6
:1028F800783400348E340034AE340034DF3400349D
:10290800FF340034FF340034FF340034FF34003423
:10291800FF340034FF340034DF340034AE34003484
:102928008E34003478340034673400345B34003437
:102938005034003448340034423400343C340034D9
:102948003734003433340034303400342D34003418
:102958002A34003427340034253400342334003436
:1029680021340034203400341E3400341D34003443
:102978001C3400341B3400341A3400341934003445
:102988001834003417340034163400341534003445
:102998001534003414340034133400340F34003444
:1029A8000B34003407340034073400342000A60107
:1029B800A11FE52CA009A109A00A0319A10AA601D3
:1029C800A60AA31FF02CA209A309A20A0319A30AA5
:1029D8000130A4002408A606A701A80120082104A4
:1029E80003191F2DA501A50AA11B042D0130A0352F
:1029F800A10D890BFB2C0130A4002408A507F82C95
:102A08000130A735A80D890B052D21082302031DC8
:102A18000F2D20082202031C162D2008A2022108CF
:102A2800A33B27140130A136A00C890B172D0130C8
:102A3800A502031D042D26080319272DA709A80997
:102A4800A70A0319A80A2808A1002708A000080057
:102A580027000C108C100C118C110C12622D200008
:102A6800220C2700031C0C1003180C14080020006B
:102A7800220C2700031C8C1003188C14080020005B
:102A8800220C2700031C0C1103180C150800200049
:102A9800220C2700031C8C1103188C150800200039
:102AA800220C2700031C0C1203180C160800270020
:102AB8000C148C140C158C150C1608002000210819
:102AC800003A0319682D7F2D2008013A0319332D88
:102AD800033A03193B2D013A0319432D073A031909
:102AE8004B2D013A0319532D033A03197F2D623AEE
:102AF80003195B2D7F2D0800200023080319892D59
:102B0800220821042004031D9A2D0030A000003063
:102B1800A1000030A20008000130A5002508A30785
:102B28000130A236A10CA00C890B952DFE30220590
:102B38000319B32D902D0130A5002508A3070130F6
:102B4800A007003003180130A10700300318013036
:102B5800A2070130A236A10CA00C890BAE2DFF30C4
:102B680022050319C02D9F2D0130A3020130A03585
:102B7800A10DA20D890BBB2DA11BC62D023023026E
:102B88000318B82D2318CE2DFF30A0057F30A105DE
:102B9800FF30A2050310A30C2308A500A601A70176
:102BA8001030A535A60DA70D890BD52D2508A00435
:102BB8002608A1042708A204240803190800A2175C
:102BC80008002000B4003403031D1A2E0530B50098
:102BD8000030B600B61B08003608A1003508A00072
:102BE8000130A2000030A30095312C25953120003A
:102BF8003509B2003609B300B20A0319B30A32081C
:102C0800063EA0000030333DA100923119229531D3
:102C180005302000AC000030AD009031C520953162
:102C2800FF302000B507FF30B63DEE2D0130B7006C
:102C38000030B8003808803AB20080303202031DF4
:102C4800272E073037020318080020003808A10093
:102C58003708A0000130A2000030A30095312C25D0
:102C6800953120003709B2003809B300B20A0319B8
:102C7800B30A3208063EA0000030333DA10092316D
:102C88001922953105302000AC000030AD0090319C
:102C9800C520953101302000B7070030B83D1E2E01
:102CA8002000B001A91F652EA609A709A809A9092E
:102CB800A60A0319A70A0319A80A0319A90AB00141
:102CC800B00AAD1F762EAA09AB09AC09AD09AA0A4C
:102CD8000319AB0A0319AC0A0319AD0A0130AE0097
:102CE8002E08B0060030B4000030B3000030B20047
:102CF8000030B10029082804270426040319BF2E30
:102D0800AF01AF0AA91B942E0130A635A70DA80D57
:102D1800A90D890B892E0130AE002E08AF07862E2B
:102D28000130B135B20DB30DB40D890B952E2908BC
:102D38002D02031DA92E28082C02031DA92E2708E1
:102D48002B02031DA92E26082A02031CB42E2608CE
:102D5800AA022708AB3B2808AC3B2908AD3B311435
:102D68000130A936A80CA70CA60C890BB52E01308A
:102D7800AF02031D942E30080319CD2EB109B209F4
:102D8800B309B409B10A0319B20A0319B30A03193A
:102D9800B40A3408A9003308A8003208A70031088B
:102DA800A600080020005B08A8005C08A9005D08D0
:102DB800AA005808A0005908A1005A08A2009E318C
:102DC8008E26963120002008AB002108AC0022088E
:102DD800AD008931CA21963120002808C50029088C
:102DE800C6002A08C7006108A8006208A90063088D
:102DF800AA005E08A0005F08A1006008A2009E313A
:102E08008E26963120002008AB002108AC0022084D
:102E1800AD008931CA21963120002808B50029085B
:102E2800B6002A08B7005508A8005608A900570890
:102E3800AA005808A0005908A1005A08A2009E310B
:102E48008E26963120002008AB002108AC0022080D
:102E5800AD008931CA21963120002808B800290818
:102E6800B9002A08BA00873138279631200035087A
:102E7800C8003608C9003708CA0088313D20963195
:102E880020004508E4004608E5004708E6005E081B
:102E9800A8005F08A9006008AA006408AB006508DC
:102EA800AC006608AD008931CA2120002808D50089
:102EB8002908D6002A08D700080020006708EB0078
:102EC8006808EC006908ED0003106C0D6D0DEE004C
:102ED8006E082100C4004408031D7C2F0030200028
:102EE800EA000030E9000030E8000030E7000800A0
:102EF80020006708EB006808EC006908ED0017304F
:102F0800ED36EC0CEB0C890B842F6B08EE006E0889
:102F18002100BF002000E817FF30E705FF30E80573
:102F28000030E90567082100C0002000680821007A
:102F3800C100200069082100C200C3018E30C4020C
:102F4800C41FC62F4408803A8F3E0318B52F00309F
:102F58002000EA000030E9000030E8000030E70017
:102F6800080001302100C336C20CC10CC00C890B0B
:102F7800B62F01302000EB006B082100C4070319AD
:102F8800E22FB52F18304402031CDE2F003020003A
:102F9800EA000030E9000030E8000030E7000800EF
:102FA80001302100C035C10DC20DC30D890BD52FCD
:102FB8000130C40221004408031DD42F3F0803191F
:102FC800F02FC009C109C209C309C00A0319C10AFF
:102FD8000319C20A0319C30A43082000EA002100A2
:102FE80042082000E900210041082000E8002100F3
:082FF80040082000E70008007A
:103CFA00FC302100990508002000A001A10108005C
:103D0A00873020009C05FC309C05FF309B001C1569
:103D1A00080020002208210420040319080080302A
:103D2A00A206080021009E171E088F3960389E00DF
:103D3A00FC309E051D14080064340034013400343C
:103D4A00D0340734013400340134FF34FE00120049
:103D5A001E000130FE020030FF3B7F087E0403197B
:103D6A000034AC2E6400800101310130FE020030C3
:103D7A00FF3B7F087E0403190034B82E9E3181264A
:103D8A009E3120002108B7002008B6003708B3008A
:103D9A003608B2009331A02308002200340C031C19
:103DAA000D1203180D16360C031C0D1103180D15F0
:103DBA00350C031C8D1203188D16370C031C8D113C
:103DCA0003188D15080020006F08A200A30121081E
:103DDA002306031DF22E20082206031908002008D4
:103DEA00A2002208EF00200C2200031C8D120318E7
:103DFA008D1608002000A3002308A200A20DA20D20
:103E0A0021001D08200022068339220621009D0078
:103E1A009D149D180E2F1C082000A10021001B08CC
:103E2A002000A000080021003B082000A200A301F6
:103E3A0021082306031D232F200822060319080040
:103E4A002008A20022082100BB002000200C22002A
:103E5A00031C8D1103188D1508002000A401A5016B
:103E6A00201C3B2F2208A4072308A53D0130A235B8
:103E7A00A30D890B3C2F0130A136A00C890B412FD1
:103E8A0020082104031D352F2508A1002408A000BD
:103E9A000800D034073400340034D03407340034F6
:103EAA00003406340034D0340734D0340734D034E4
:103EBA000734D0340734D0340734E83403340134B7
:103ECA000034063400341434FF340434FF34FF342D
:103EDA0000308B1B01302000A2008B132008230026
:103EEA0091002000210823009200151315140000E8
:103EFA0000002000220C031C8B1303188B172300CD
:103F0A0014082000A100230013082000A0000800C4
:103F1A002000AD01A91F982FA809A909A80A031909
:103F2A00A90AAD01AD0A2808A0002908A100A2012A
:103F3A008E30AB002B08A3002D08AC002C08A4007F
:103F4A009531802520002008A8002108A900220810
:103F5A00AA0008002000A101A2012208803AA000BC
:103F6A0080302002031DBB2F0C30210203180800E9
:103F7A0020002108A0000130A035FF3E031DC12FFB
:103F8A002035A03E8600013087000030C03F003057
:103F9A00C13FC23FC33F0130A1070030A23DB22F4B
:103FAA008731EC279F3101302000B9003908210000
:103FBA00ED0022000D120D118D128D110D108D10B4
:103FCA0000309531E5259F3100309531E5259F3147
:103FDA0001309531E5259F3101309531E5259F3135
:103FEA00923192229F31923192229F312100ED012A
:063FFA009E31D2260800F2
:020000040001F9
:04000E00E2FFFFDF2F
:00000001FF
