:040000008231E12A3E
:100008007E14803120007F08C2000B1D18295D086E
:10001800C4005C08C3000130BA000030BB000030E7
:10002800BC000030BD004D08BA074E08BB3D4F0864
:10003800BC3D5008BD3D3D08D0003C08CF003B0802
:10004800CE003A08CD000130BA000030BB000030C5
:10005800BC000030BD004508BA074608BB3D47084C
:10006800BC3D4808BD3D3D08C8003C08C7003B08EA
:10007800C6003A08C5000130BA000030BB000030A5
:10008800BC000030BD004908BA074A08BB3D4B0810
:10009800BC3D4C08BD3D3D08CC003C08CB003B08AE
:1000A800CA003A08C9000130BA000030BB0000306D
:1000B800BC000030BD00230038082000BA07230028
:1000C80039082000BB3D23003A082000BC3D23002E
:1000D8003B082000BD3D3D082300BB0020003C0834
:1000E8002300BA0020003B082300B90020003A088A
:1000F8002300B8000130C0070030C13D0030C23DC8
:100108000030C33D20005403031DA1280130220004
:10011800C8070030C93D490820006302031D98281C
:1001280022004808200062020318A1286308220060
:10013800C900200062082200C80020005503031DE2
:10014800BC2801302200CE070030CF3D4F082000E8
:100158006302031DB32822004E0820006202031820
:10016800BC2863082200CF00200062082200CE00CD
:100178000B11230044034504031D182920004808D7
:10018800803ABA005F08803A3A02031DD5285E0813
:100198004702031DD5285D084602031DD5285C08C3
:1001A8004502031C18295808BA005908BB005A0808
:1001B800BC005B08BD004D09BE004E09BF004F09D9
:1001C800C0005009C100BE0A0319BF0A0319C00ABA
:1001D8000319C10A3E08BA073F08BB3D4008BC3DA9
:1001E8004108BD3DBD1B05293D08031D18293C08D4
:1001F800031D18293B08031D182904303A02031867
:1002080018294D09BA004E09BB00BA0A0319BB0ADE
:1002180058083A07BC0059083B3DBD0045083C0753
:10022800C30046083D3DC40020006708031D75292A
:100238005308031D75295008803ABA005B08803AB4
:100248003A02031D31295A084F02031D3129590862
:100258004E02031D312958084D02031C6329220050
:100268000D1600302000D0000030CF000030CE0046
:100278000030CD0023005C035D04031D63292200C8
:10028800470825009200220046082500910020001A
:10029800D101D20123006508B8006608B900890DAC
:1002A800893B8909BA00BB00DC01DD0120005F0839
:1002B800C8005E08C7005D08C6005C08C5002000CD
:1002C800D01B75295008031D73294F08031D732976
:1002D8004E08031D73291E304D02031C7529220088
:1002E8000D1220004308BA004408BB000030BB1BB5
:1002F800FF30BC00BD004808803ABE003D08803A87
:100308003E02031D91293C084702031D91293B0821
:100318004602031D91293A084502031CAE295608D6
:10032800031DA1296508F1006408F0000130F200FE
:100338000030F3009231B822803120005D08C400FB
:100348005C08C3000030C8000030C7000030C60099
:100358000030C500C81BCA294808031DBD29470825
:10036800031DBD294608031DBD2914304502031C81
:10037800CA295608031DCA296508F1006408F00057
:100388000030F200F3009231B82280312300650872
:100398002000BA00230066082000BB000030BB1B09
:1003A800FF30BC00BD0023003B08803A2000BE009F
:1003B8003D08803A3E022300031DF22920003C0834
:1003C80023003A02031DF22920003B0823003902CA
:1003D800031DF22920003A0823003802031CA42A2E
:1003E8000030BB000030BA000030B9000030B8005F
:1003F80020005208803ABA0080303A02031D062ACB
:100408003C305102031C4A2A2000D101D2014A2A59
:100418005108203E112A5108A03E86000330182AB0
:100428005108203E86000430870001082300DA00C6
:10043800DB01DA1BDB03472A5208803ABA00803016
:100448003A02031D292A1F3051020318302A64304A
:100458002300DA000030342A9C302300DA00FF3011
:10046800DB00472A5108203E860003308700010838
:100478002300DA00DB01DA1BDB0320000E16612AF9
:100488002300DA01DB0120000E12612A2000610836
:10049800003A0319502A442A6008013A03190C2A21
:1004A800033A03190F2A013A0319142A073A0319C0
:1004B800202A013A0319362A442A23005A08200020
:1004C800AE0023005B082000AF00890D893B890935
:1004D800B000B100230046082000B20023004708FE
:1004E8002000B300890D893B8909B400B50091311A
:1004F800AE21803120002F082300DB0020002E08C9
:100508002300DA000230F0000030F1005B08F3004D
:100518005A08F2009331E523803171082C009B00C2
:1005280070089A0000302300BB000030BA00003089
:10053800B9000030B80001302000D1070030D23DAA
:1005480022005703031DD72A01302000BA003A08B9
:100558002200D60723006208803A803C031DB72A90
:10056800610822005602031CD52A22008D1423009C
:1005780062082000BB00230061082000BA00BA35D9
:10058800BB0D3B08803ABC0080303C02031DD02ADA
:100598002200560820003A020318DC2A2200D6015D
:1005A800DC2A2200DB2A56080319DC2AD6018D1022
:1005B80020004208FF007E1009008231E32A4530FE
:1005C8008400003085001330FE000030FF009D31AC
:1005D800F725823146308400013085001430FE0052
:1005E8000030FF009D31F7258231A03084000130B2
:1005F80085004130FE000030FF009D31F725823133
:10060800A0308400023085002C30FE000030FF004E
:100618009D31F7258231A0308400043085004030B8
:10062800FE000030FF009D31F7258231F83084004C
:100638008D308500E8308600233087000230FF00C7
:1006480008309D31EB2582318731FE278231FD004C
:100658000F3084009E3085005830860000308700B7
:100668000030FF0012309D31EB25823103308400C9
:100678009E3085005A308600013087000030FF0028
:100688000C309D31EB258231E03084009D308500AF
:10069800E1308600013087000030FF000B309D31CB
:1006A800EB258231EC3084009E30850020308600B6
:1006B800023087000030FF0028309D31EB25823161
:1006C8003130840091308500203086000330870067
:1006D8000030FF003D309D31EB258231F43084003D
:1006E80090308500A0308600033087000030FF007E
:1006F8003D309D31EB258231B73084009030850044
:1007080020308600043087000030FF003D309D31E6
:10071800EB257E1020008331912B28302300EC003C
:100728000030ED009D31B52583319F316E2783312F
:100738002000101490140F178F160E148F179E3167
:10074800C626833190310120833195315C25833170
:100758009231712283319331952383319231302242
:10076800833120008F1BD62B01302300CC070030AB
:10077800CD3D4D08803A2400C80080304802031D52
:10078800C82B1A3023004C02031CD92B1930230024
:10079800CC000030CD009F311427833120008F1BFF
:1007A800D92BD22B2300CC01CD018A3133228331BE
:1007B8008C311424833100309E312126833121006D
:1007C80021082200CB00210020082200CA000130A5
:1007D8009E3121268331210021082200CD002100ED
:1007E80020082200CC0002309E31212683312100CE
:1007F80021082300D500210020082300D40003305D
:100808009E3121268331210021082300D7002100B1
:1008180020082300D60004309E3121268331210090
:1008280021082300D900210020082300D800220035
:100838005A092400C80022005B092400C900C80A1C
:100848000319C90A22004A0824004807CA002200DE
:100858004B082400493DCB004B08803ACC0080303F
:100868004C02031D392C04304A0203185B2C220069
:100878005A092400C80022005B092400C900C80ADC
:100888000319C90A22004A0824004807CA0022009E
:100898004B082400493DCB004B08803ACC007F3000
:1008A8004C02031D592CFD304A020318AA2C2200C1
:1008B8004B08DB004A08DA0000302100E10048302C
:1008C800E2004330E3008030DE009230DF00443045
:1008D800E000C030DB007F30DC004430DD00003059
:1008E800D8000030D9000030DA0022005B0821006F
:1008F800A90022005A082100A8009E31A4268331AD
:1009080021002808D5002908D6002A08D7009631E2
:10091800D626833121005508E7005608E800570815
:10092800E900973161278331210067082000D8004A
:10093800210068082000D900890D893B8909DA005F
:10094800DB0001302300E3000030E40022005C09F2
:100958002400C80022005D092400C900C80A031940
:10096800C90A22004C0824004807CA0022004D0882
:100978002400493DCB004B08803ACC0080304C0223
:10098800031DC82C04304A020318EA2C22005C0913
:100998002400C80022005D092400C900C80A031900
:1009A800C90A22004C0824004807CA0022004D0842
:1009B8002400493DCB004B08803ACC007F304C02E4
:1009C800031DE82CFD304A020318552D22004D085E
:1009D800DD004C08DC0000302100E1001C30E200A2
:1009E8004230E3000030DE000030DF000030E0007D
:1009F800C030DB007F30DC004430DD000030D80040
:100A08000030D9000030DA0022005D082100A9007A
:100A180022005C082100A8009E31A4268331210011
:100A28002808D5002908D6002A08D7009631D626E6
:100A3800833121005508E7005608E8005708E90007
:100A4800973161278331210068082200C300210003
:100A580067082200C2004208013EFF3A013E230017
:100A68006C07203E86000230870001082400C80079
:100A7800C901480825009800240049082500990064
:100A880022004208203E8600023087000108240028
:100A9800C800C9014808260091002400490826001A
:100AA800920022005E092400C80022005F09240089
:100AB800C900C80A0319C90A2300540824004807B2
:100AC800CA00230055082400493DCB004B08803A52
:100AD800CC0080304C02031D732D04304A020318E9
:100AE800952D22005E092400C80022005F09240019
:100AF800C900C80A0319C90A230054082400480772
:100B0800CA00230055082400493DCB004B08803A11
:100B1800CC007F304C02031D932DFD304A02031890
:100B2800032E230055082200DF002300540822006A
:100B3800DE0000302100E1000030E2000030E30078
:100B48000030DE008030DF004130E000C030DB00E4
:100B58007F30DC004430DD000030D8000030D900A0
:100B68000030DA0022005F082100A90022005E0898
:100B78002100A8009E31A426833121002808D50031
:100B88002908D6002A08D7009631D62683312100B5
:100B98005508E7005608E8005708E900973161272B
:100BA8008331210068082200C5002100670822005F
:100BB800C4004408013EFF3A013E23006C07203E72
:100BC80086000230870001082400C800C9014808CF
:100BD80026009800240049082600990022004408AD
:100BE800203E86000230870001082400C800C901A1
:100BF800480826009C002400490826009D00220081
:100C080060092400C800220061092400C900C80A3C
:100C18000319C90A2300560824004807CA002300FC
:100C280057082400493DCB004B08803ACC0080305F
:100C38004C02031D212E04304A020318432E2200C1
:100C480060092400C800220061092400C900C80AFC
:100C58000319C90A2300560824004807CA002300BC
:100C680057082400493DCB004B08803ACC007F3020
:100C78004C02031D412EFD304A0203188B2E23001F
:100C880057082200E100230056082200E000003047
:100C98002100E1003C30E2004230E3000030DE0099
:100CA8004030DF004030E000C030DB007F30DC0047
:100CB8004430DD000030D8000030D9000030DA00C0
:100CC800220061082100A900220060082100A80074
:100CD8009E31A426833121002808D5002908D60092
:100CE8002A08D7009631D626833121005508E70017
:100CF8005608E8005708E900973161278331210039
:100D080068082300E600210067082300E5002200A8
:100D180062092400C800220063092400C900C80A27
:100D28000319C90A2300580824004807CA002300E9
:100D380059082400493DCB004B08803ACC0080304C
:100D48004C02031DA92E04304A020318CB2E2200A0
:100D580062092400C800220063092400C900C80AE7
:100D68000319C90A2300580824004807CA002300A9
:100D780059082400493DCB004B08803ACC007F300D
:100D88004C02031DC92EFD304A020318132F2300FD
:100D980059082200E300230058082200E20000302E
:100DA8002100E1000030E2000030E3006030DE00A6
:100DB8009F30DF004430E000C030DB007F30DC00D3
:100DC8004430DD000030D8000030D9000030DA00AF
:100DD800220063082100A900220062082100A8005F
:100DE8009E31A426833121002808D5002908D60081
:100DF8002A08D7009631D626833121005508E70006
:100E08005608E8005708E900973161278331210027
:100E180068082300C700210067082300C6002300D4
:100E280063036404031DAC2B20005B08DF005A0831
:100E3800DE005908DD005808DC0059082200B70018
:100E4800200058082200B600200065082200B900DA
:100E5800200064082200B8008931792183312200FA
:100E680036082000DC00220037082000DD00890D4C
:100E7800893B8909DE00DF0001302300DC000030F7
:100E8800DD00D001D1012200C601C70123005008AE
:100E98005104031DA72F220047082400C90022007F
:100EA80046082400C800C835C90DE830CA002330F8
:100EB800CB0048084A07860049084B3D8700403F59
:100EC800CC00413FCD004C08CE004D08CF0000308B
:100ED800CF1BFF30D000D10020005C082400D200D6
:100EE80020005D082400D30020005E082400D40000
:100EF80020005F082400D5000130D235D30DD40D71
:100F0800D50D890B812F5508803AD6005108803AB3
:100F18005602031D992F50085402031D992F4F089C
:100F28005302031D992F4E085202031CA12F0130B2
:100F38002300D0000030D1004A2F01302200C6071C
:100F48000030C73D4A2FE301E401AC2B27000C1009
:100F58008C100C118C110C12E02F2100220C270090
:100F6800031C0C1003180C1408002100220C270085
:100F7800031C8C1003188C1408002100220C270075
:100F8800031C0C1103180C1508002100220C270063
:100F9800031C8C1103188C1508002100220C270053
:100FA800031C0C1203180C16080027000C148C14D0
:100FB8000C158C150C16080021002108003A03199D
:100FC800E62FFD2F2008013A0319B12F033A031920
:100FD800B92F013A0319C12F073A0319C92F013A4A
:100FE8000319D12F033A0319FD2F623A0319D92F98
:080FF800FD2F0800143408006D
:10100400200067082100A200A30121082306031D74
:101014000D2820082206031908002008A20022082F
:101024002000E7002100200C2200031C8D1203186D
:101034008D16080021004808CB004908CC004A0856
:10104400CD0003104C0D4D0DCE004E08D3005308B7
:10105400031D33280030C5000030C6000030C7002F
:1010640008004508CB004608CC004708CD00031013
:101074004C0D4D0DCE004E08D4005408031D4928D4
:101084000030C5000030C6000030C7000800003042
:10109400D0000030D1000030D20089305407CB009A
:1010A4004B08D3024808CB004908CC004A08CD00BD
:1010B4001030CD36CC0CCB0C890B5B284B08CE0002
:1010C4004E08D4004508CB004608CC004708CD00A4
:1010D4001030CD36CC0CCB0C890B6B284B08CE00D2
:1010E4004E08D4068030CB004B08D405C917FF3016
:1010F400C805FF30C9050030CA05C617FF30C5054D
:10110400FF30C6050030C7051830CB004B08CF00B0
:101114000130D035D10DD20D890B8B2847084A02F6
:10112400031D9A2846084902031D9A2845084802C7
:10113400031CA3284508C8024608C93B4708CA3B04
:1011440050140130C835C90DCA0D890BA4280130CB
:10115400CF02031D8A285008A0005108A10052089C
:10116400A2005308CB004B08A3005408CC004C0841
:10117400A4009431882421002008C5002108C60059
:101184002208C700080021003508BB003608BC004F
:101194003708BD0003103C0D3D0DBE003E08BF00E6
:1011A4003F08031DDC280030B5000030B6000030D5
:1011B400B70008003808BB003908BC003A08BD0075
:1011C40003103C0D3D0DBE003E08C4004408031D41
:1011D400F2280030B5000030B6000030B700080037
:1011E40044087B3EBB003B08BF073508BB003608FC
:1011F400BC003708BD001030BD36BC0CBB0C890BDD
:10120400FE283B08BE003E08C4003808BB0039086D
:10121400BC003A08BD001030BD36BC0CBB0C890BB9
:101224000E293B08BE003E08C4068030BB003B08C4
:10123400C405B617B917FF30B805FF30B90500303B
:10124400BA050030C0000030C1000030C2000730D1
:10125400BB003B08C300351C35293808C0073908D2
:10126400C13D3A08C23D0130B736B60CB50C890B06
:1012740036290130B835B90DBA0D890B3C29013036
:10128400C302031D2D290930BB003B08C300351CD4
:1012940051293808C0073908C13D3A08C23D013018
:1012A400B736B60CB50C890B52290130C236C10CC5
:1012B400C00C890B58290130C302031D4929400879
:1012C400A0004108A1004208A2003F08BB003B085F
:1012D400A3004408BC003C08A400943188242100E5
:1012E4002008B5002108B6002208B7000800230032
:1012F400C401C50122003708C1003608C00000300F
:10130400BD008030BE003F30BF00A1290030BD00C9
:1013140040309329A630BD002A3093290030BD0007
:101324000030BE003F309F29A630BD00AA309D2961
:101334000030BD008030BE003E30BF00BA293908FD
:10134400003A0319A629BA293808013A0319882949
:10135400033A03198C29013A03199029073A03190E
:101364009629013A03199A29033A0319BA29BA2981
:1013740041082100A900220040082100A8009E3154
:10138400A426893121002808B8002908B9002A08B0
:10139400BA0022003D082100B50022003E082100C9
:1013A400B60022003F082100B7008831C5208931EA
:1013B40021003508E7003608E8003708E9009731CE
:1013C40061278931210068082200C10021006708D3
:1013D4002200C00041082100A90022004008210089
:1013E400A8009E31A4268931210028082200AE00DD
:1013F400210029082200AF0021002A082200B000A1
:1014040094313624893122002E08BA002F08BB00FB
:101414003008BC0041082100A90022004008210036
:10142400A8009E31A426893121002A0822003C0606
:10143400031D262A2100290822003B06031D262A13
:101444002100280822003A0603192D2A013023001E
:10145400C4000030C50022004108B7004008B600AF
:10146400080020009018492A22005108803A2100DF
:10147400B60080303602031D422A01302200500299
:10148400031C5C2AFF302200D007FF305B2A2200B5
:101494005108803A2100B60080303602031D552AD7
:1014A40019302200500203185C2A01302200D007B0
:1014B4000030D13D220050085104031DBD2A2000F4
:1014C4005408031D6A2AD401D40A2200C801C901A0
:1014D4002000630822004902031D742A20006208C8
:1014E40022004802031C942A20006608031D942A43
:1014F4005308031D942A22000D11200055030319DB
:101504008C2A01302100A0000030A1009E314D261C
:101514008A31942A01302100B2000030B3009031A6
:1015240010208A3120005308031DB92A6608031DC0
:10153400B92A6903031DAC2A230067036804031D49
:10154400B92A2200E401E40A01302300DE0000305D
:10155400DF00B92A220053030319B92AE401D30195
:10156400D30A2300DE01DF012000E601D4012300B9
:10157400E701E801080022005108803A2100B60082
:1015840080303602031DC92A193022005002031C80
:10159400080020005303031DD82A220064082100F8
:1015A400B600B7013608B2003708F52A2200530303
:1015B4000319E02A20006603031DE62A01302100F6
:1015C400B2000030B300F62A23005E035F04031D5B
:1015D400F92A20006608031DF92A5308031DF92A75
:1015E40000302100B200B300933100238A3120007F
:1015F400690C2200031C0D1103180D150030210085
:10160400A000A1009E314D268A3100302100B20095
:10161400B300903110202000D4012200D301230014
:10162400DE01DF010130E7000030E800193022005C
:10163400D0000030D100080021002808AE0029089D
:10164400AF002A08B00003102F0D300DB10031088F
:10165400B4002B08AE002C08AF002D08B000031016
:101664002F0D300DB1003108B30034080319462B97
:101674003308340203184D2B3403FF3A3307AE000A
:1016840019302E02031C4D2B2B08A8002C08A9008E
:101694002D08AA000800330803190800340833028F
:1016A40003185C2B3303FF3A3407AE0019302E02C3
:1016B400031808000630AE002E08B200AA1BB217A9
:1016C400AD1B3217A917FF30A805FF30A90500305C
:1016D400AA05AC17FF30AB05FF30AC050030AD05F3
:1016E400330834020318982B0130AB35AC0DAD0D23
:1016F400890B772B0130B302330834060319932B7B
:101704000130B202320807390319932B762B0130CA
:10171400AA36A90CA80C890B8A2B0130AE002E081E
:10172400B407340833060319BD2B892B340833025C
:101734000318BD2B0130A835A90DAA0D890B9D2BCB
:101744000130B402330834060319B92B0130B20254
:10175400320807390319B92B9C2B0130AD36AC0C78
:10176400AB0C890BB02B0130AE002E08B307340844
:101774003306031DAF2BB21FCF2BFF30A806FF305B
:10178400A906FF30AA060130A8070030031801306B
:10179400A907003003180130AA07321FE12BFF30DC
:1017A400AB06FF30AC06FF30AD060130AB070030AE
:1017B40003180130AC07003003180130AD07B20143
:1017C4002808AB072908AC3D2A08AD3DAD1FFC2B0A
:1017D400FF30AB06FF30AC06FF30AD060130AB077F
:1017E400003003180130AC07003003180130AD0796
:1017F400B201B20A2B08A0002C08A1002D08A200F7
:101804003408AE002E08A3003208AF002F08A4004D
:101814009431882421002008A8002108A900220866
:10182400AA0008002100BE01200010181F2C570830
:101834000319292C0130D702292C19305702031817
:10184400292C01302100B60036082000D70757089C
:10185400031DDE2DCC1BB12C4C08031D3A2C4B0868
:10186400031D3A2C1B30490206304A3B031CB12CA1
:10187400220058030319782CD801D80A003020001C
:10188400CC000030CB000030CA000030C900013069
:101894002300E9000030EA000030BF000030BE0041
:1018A4000030BD000030BC00E301E4012100BE01B2
:1018B400BE0A3E0820006802031C782C21003E0862
:1018C400B6000130B635FF3E031D642C3635A03E0C
:1018D4008600013087000030C03F0030C13FC23F66
:1018E400C33F0130B6003608BE075B2C2000550804
:1018F400031D822CD501D50AE7012200CE01CF01B8
:101904002000630822004F02031D8C2C2000620873
:1019140022004E02031C080020006708031D080073
:101924005308031D080063082200CF00200062084A
:101934002200CE000D12200054030319A92C0130FB
:101944002100A0000030A1008831022008000130ED
:101954002100B2000030B3009031102008002000B4
:10196400CC1BC02C4C08031D08004B08031D0800A9
:101974001B30490206304A3B031808006708031D60
:1019840008002200580303190800D801D80A2000CF
:10199400CC1BE02C4C08031DD82C4B08031DD82C61
:1019A4009430490204304A3B031CE02C0030CC0044
:1019B4000030CB000430CA009430C900680821000C
:1019C400B600B7013608BC003708BD0023006A081A
:1019D400803A803C031DF12C690820006802031C36
:1019E400222D200049082300BC0720004A082300B8
:1019F400BD3D20004B082300BE3D20004C082300C1
:101A0400BF3D69082100B6000130B635FF3E031D15
:101A1400072D3635A03E8600013087002000490896
:101A2400C03F4A08C13F4B08C23F4C08C33F230094
:101A34006A082100BD00230069082100BC009E2D16
:101A440000302300BF000030BE000030BD00003075
:101A5400BC002100BE01BE0A2000680821003E022D
:101A64000318782D3E08B6000130B635FF3E031D3D
:101A7400372D3635043EA03E860001308700403FB6
:101A8400B700413FB800423FB900433FBA003E08A7
:101A9400BB000130BB35FF3E031D4C2D3B35A03E42
:101AA4008600013087003708C03F3808C13F390835
:101AB400C23F3A08C33F3E08B6000130B635FF3E88
:101AC400031D602D3635A03E860001308700403F5F
:101AD4002300BC07413FBD3D423FBE3D433FBF3DA8
:101AE40001302100B6003608BE072E2D20006808FC
:101AF4002100B6000130B635FF3E031D7D2D36357D
:101B0400A03E86000130870020004908C03F4A08F3
:101B1400C13F4B08C23F4C08C33F49082300BC07E0
:101B240020004A082300BD3D20004B082300BE3D91
:101B340020004C082300BF3D21003C08A0003D08C4
:101B4400A100890D893B8909A200A30023003F0855
:101B54002100A70023003E082100A60023003D0821
:101B64002100A50023003C082100A400963154263E
:101B7400210023082000DB00210022082000DA00D5
:101B8400210021082000D900210020082000D800CD
:101B940001302300E3000030E40000302000CC00DA
:101BA4000030CB000030CA000030C90001302300EF
:101BB400E9070030EA3D0800193020005702031CF1
:101BC40008002200D801E50100302100A000A10096
:101BD400883102202200CE01CF012000D501193026
:101BE4002100B60036082000D7000800223408344B
:101BF400FC340734D8340734B53407349334073409
:101C04007234073452340734343407341634073406
:101C1400F9340634DD340634C2340634A8340634C8
:101C24008F340634763406345E340634473406344E
:101C3400303406341A34063405340634F0340534AA
:101C4400DC340534C8340534B5340534A3340534E0
:101C5400903405347F3405346D3405345C340534F4
:101C64004C3405343C3405342C3405341D340534EB
:101C74000E340534FF340434F1340434E2340434CF
:101C8400D5340434C7340434BA340434AD3404349D
:101C9400A134043494340434883404347D34043456
:101CA40071340434663404345A34043450340434FF
:101CB400453404343A34043430340434263404349B
:101CC4001C3404341234043409340434FF3403342B
:101CD400F6340334ED340334E4340334DC340334B1
:101CE400D3340334CB340334C2340334BA3403342A
:101CF400B2340334AA340334A23403349B3403349B
:101D0400933403348C340334853403347E34033401
:101D14007734033470340334693403346234033461
:101D24005C340334553403344F34033448340334BB
:101D3400423403343C34033436340334303403340F
:101D44002A340334243403341F340334193403345D
:101D5400133403340E3403340934033403340334A6
:101D6400FE340234F9340234F4340234EF340234ED
:101D7400EA340234E5340234E0340234DB3402342D
:101D8400D7340234D2340234CD340234C934023468
:101D9400C4340234C0340234BC340234B7340234A0
:101DA400B3340234AF340234AB340234A6340234D4
:101DB400A23402349E3402349A3402349734023406
:101DC400933402348F3402348B3402348734023433
:101DD40084340234803402347C340234793402345E
:101DE40075340234723402346E3402346B34023487
:101DF4006734023464340234613402345E340234AD
:101E04005A340234573402345434023451340234D0
:101E14004E3402344B3402344834023445340234F0
:101E2400423402343F3402343C3402343934023410
:101E34003634023433340234303402342E3402342F
:101E44002B3402342834023425340234233402344B
:101E5400203402341E3402341B3402341834023465
:101E64001634023413340234113402340E3402347E
:101E74000C3402340A340234073402340534023494
:101E84000234023400340234FE340134FB340134AD
:101E9400F9340134F7340134F5340134F2340134C3
:101EA400F0340134EE340134EC340134EA340134D6
:101EB400E8340134E6340134E3340134E1340134E8
:101EC400DF340134DD340134DB340134D9340134FA
:101ED400D7340134D5340134D3340134D234013409
:101EE400D0340134CE340134CC340134CA34013416
:101EF400C8340134C6340134C4340134C334013425
:101F0400C1340134BF340134BD340134BC34013430
:101F1400BA340134B8340134B6340134B53401343C
:101F2400B3340134B1340134B0340134AE34013447
:101F3400AC340134AB340134A9340134A834013451
:101F4400A6340134A4340134A3340134A13401345B
:101F5400A03401349E3401349D3401349B34013463
:101F64009A3401349834013497340134953401346B
:101F74009434013492340134913401349034013472
:101F84008E3401348D3401348B3401348A34013479
:101F9400893401348734013486340134853401347E
:101FA4008334013482340134813401347F34013484
:101FB4007E3401347D3401347B3401347A34013489
:101FC400793401347834013476340134753401348D
:101FD4007434013473340134713401347034013491
:101FE4006F3401346E34013400340034003400346E
:0C1FF400003400340034003400340034A9
:102002009D31B925903121002108B7002008B60082
:102012003708B3003608B2009331002308002000CD
:1020220053082100B400B50133083506031D1B28EF
:1020320032083406031908003208B40034082000BC
:10204200D300210032033304031D2C2822000D1279
:102052000D118D128D112100320C2200031C8D10E6
:1020620003188D142100320C2200031C0D100318DA
:102072000D1414302100AC000030AD009F31CE278A
:1020820008002100220821042004031D50282308EF
:102092008600013087000030C03FC13F080022089F
:1020A2007F39A400A501A435A50D230886000130BF
:1020B20087002408C03F2508C13F210D210D0139A9
:1020C200A400A501230886000130870024088104AA
:1020D20041312508810423088600013087008230BF
:1020E20081074131FF30813D7F31220880393F38FD
:1020F200A200A113080022000F108F100F118F11E0
:102102000F12992822000F14080022008F140800D1
:1021120022000F15080022008F15080022000F165A
:10212200080022000F148F140F158F150F160800C8
:1021320021002108003A03199F28B6282008013AF5
:1021420003198328033A03198628013A03198928B7
:10215200073A03198C28013A03198F28033A031905
:10216200B628623A03199228B628080000340334CC
:1021720007340A340D341134143417341B341E342A
:102182002134253428342B342F3432343534393445
:102192003C343F344334463449344D345034533460
:1021A20057345A345D34613464349F34A334A634D2
:1021B200A934AD34B034B334B734BA34BD34C134D5
:1021C200C434C734CB34CE34D134D534D834DB34F0
:1021D200DF34E234E534E934EC34EF34F334F6340A
:1021E200F934FD340034003407340D3414341B3414
:1021F200213428342F3435343C3443344934503478
:1022020057345D3464345D34573450344934433484
:102212003C3435342F34283421341B3414340D34F7
:1022220007340034F934F334EC34E534DF34D83491
:10223200D134CB34C434BD34B734B034A934A3342C
:102242009C34A334A934B034B734BD34C434CB3451
:10225200D134D834DF34E534EC34F334F934003497
:1022620000340A3414341E34283432343A344234BA
:102272004A34503456345B345F34613463346434EA
:10228200633461345F345B34563450344A344234FC
:102292003A34323428341E3414340A340034F634D6
:1022A200EC34E234D834CE34C634BE34B634B0342E
:1022B200AA34A534A1349F349D349C349D349F3478
:1022C200A134A534AA34B034B634BE34C634CE34C4
:1022D200D834E234EC34F63400341E302100B2003B
:1022E2003208B4006430A0000030A1000130A20026
:1022F2000030A3008731AA27913164302100A00069
:102302000030A10090317C20913121003408B200CC
:10231200B3013208AC003308AD009F31CE279131B2
:1023220000302100A000A1000130A2000030A30073
:102332008731AA27913100302100A000A1009031FD
:102342007C20913121003408B200B3013208AC0084
:102352003308AD009F31CE27080000302000A300D3
:102362000030A2000330A100E830A0000C30B6001B
:10237200F230B7000130B8000030B9003508F30080
:102382003408F2003308F1003208F0003108F70097
:102392003008F6002F08F5002E08F4009F313F2781
:1023A200913170082000B6077108B73D7208B83D38
:1023B2007308B93D3908A7003808A6003708A500F8
:1023C2003608A4009531D22520002308B100220846
:1023D200B0002108AF002008AE00080022001D1046
:1023E20021000E118E1026000D108D110D122100EC
:1023F200101390121012901110110F302500930437
:102402000F309A040F30260093040F309A040F30D5
:102412009E040F302C0093040F3096040F30990461
:102422000F309C040F309F0425009D019E019F01E7
:1024320000309200323091000030990064309800F0
:102442000030260092009630910000309900C8308A
:1024520098009D31C42591319D31BD250800200091
:102462000E186D2A01302300CE070030CF3D4F08F1
:10247200803A2100A00080302002031D432A1A3036
:1024820023004E02031C080019302300CE00003046
:10249200CF0001302100A00020082200D507033020
:1024A2005502031C5E2AD5015E2A8D105C2A8D100E
:1024B2000D14692A8D140D10692A5508003A031962
:1024C200562A013A0319582A033A03195B2A692A40
:1024D20020000E180800692A2300CE01CF0108004F
:1024E20020000F1B7B2A220052080319862A013082
:1024F200D202862A1930220052020318862A01309B
:102502002100B20032082200D2075208031D08003F
:1025120020006008013EE0000030613DE1006108FA
:10252200803A2100B20080303202031D9B2A07301C
:1025320020006002031CA22A01302000E0000030CB
:10254200E100200061082100A100200060082100B4
:10255200A00090317C20923120000F1FAD2A143050
:102562002100AC000030AD009F31CE2708002700CB
:102572000C108C100C118C110C12E32A720C031C1F
:102582000C1003180C140800720C031C8C10031896
:102592008C140800720C031C0C1103180C15080093
:1025A200720C031C8C1103188C150800720C031C8E
:1025B2000C1203180C1608000C148C140C158C1534
:1025C2000C1608007108003A0319E82AFF2A70085D
:1025D200013A0319BF2A033A0319C52A013A03191A
:1025E200CB2A073A0319D12A013A0319D72A033A07
:1025F2000319FF2A623A0319DD2AFF2A0800200084
:1026020069082100B400B50133083506031D0B2B00
:1026120032083406031908003208B40034082000D6
:10262200E9002100320C2200031C0D1103180D15C4
:102632008D112100320C2700031C0D1103180D15FA
:10264200210032083304031D292B27008D142B2B64
:1026520027008D1014302100AC000030AD009F31F6
:10266200CE27933127000D118D102000690821001B
:10267200B400B5013408A0003508A1008731FF2756
:10268200933114302100AC000030AD009F31CE27D1
:1026920008002200AD018E30AA002A08AC00A91F52
:1026A2005F2BA609A709A809A909A60A0319A70A5F
:1026B2000319A80A0319A90AAD01AD0AFF302905B9
:1026C20003196F2B0130A936A80CA70CA60C890B95
:1026D200642B0130AA002A08AC075F2B26082100D0
:1026E200A000220027082100A100220028082100C2
:1026F200A20022002C08AA002A082100A30022001E
:102702002D08AB002B082100A4009431882421005D
:1027120020082200A600210021082200A700210093
:1027220022082200A800080020008F1A9F2B2200F6
:1027320059080319AA2B0130D902AA2B19302200F9
:1027420059020318AA2B01302100B20032082200DC
:10275200D9075908031D080020006408013EE4005F
:102762000030653DE5006508803A2100B200803006
:102772003202031DBF2B073020006402031CC62B4C
:1027820001302000E4000030E5002000650821004F
:10279200A100200064082100A0000130A200003046
:1027A200A3008731AA27933101302300E3000030D0
:1027B200E40020008F1EDA2B14302100AC00003020
:1027C200AD009F31CE270800F601F11FEF2BF00973
:1027D200F109F00A0319F10AF601F60AF31FFA2BBE
:1027E200F209F309F20A0319F30A0130F40074083A
:1027F200F606F701F801700871040319292CF50196
:10280200F50AF11B0E2C0130F035F10D890B052C68
:102812000130F4007408F507022C0130F735F80D89
:10282200890B0F2C71087302031D192C7008720298
:10283200031C202C7008F2027108F33B771401305C
:10284200F136F00C890B212C0130F502031D0E2C00
:1028520076080319312CF709F809F70A0319F80A5F
:102862007808F1007708F000080022002E08210005
:10287200A00022002F082100A10022003008210020
:10288200A2003430EF006F08A3009031422094314F
:102892002200B51F532C0030AE000030AF000030D4
:1028A200B000080000303502153003193402031855
:1028B20008002E082100E70022002F082100E8006E
:1028C200220030082100E90097316127943121006C
:1028D2006A082200A900210069082200A80021003C
:1028E20068082200A700210067082200A600933191
:1028F2004A2322002608B1002708B2002808B300A4
:102902003108AE003208AF003308B00008002100E1
:1029120023080319912C220821042004031DA22C50
:102922000030A0000030A1000030A20008000130F9
:10293200A5002508A3070130A236A10CA00C890B23
:102942009D2CFE3022050319BB2C982C0130A500CA
:102952002508A3070130A007003003180130A107A2
:10296200003003180130A2070130A236A10CA00CDE
:10297200890BB62CFF3022050319C82CA72C013075
:10298200A3020130A035A10DA20D890BC32CA11BFE
:10299200CE2C023023020318C02C2318D62CFF3071
:1029A200A0057F30A105FF30A2050310A30C230868
:1029B200A500A601A7011030A535A60DA70D890B0C
:1029C200DD2C2508A0042608A1042708A204240857
:1029D20003190800A21708002100B4003403031DE4
:1029E200222D0530B5000030B600B61B08003608AF
:1029F200A1003508A0000130A2000030A3008731F9
:102A0200AA27943121003509B2003609B300B20A6F
:102A12000319B30A3208063EA0000030333DA1007C
:102A220090317C20943105302100AC000030AD00A3
:102A32009F31CE279431FF302100B507FF30B63DDC
:102A4200F62C0130B7000030B8003808803AB200E6
:102A520080303202031D2F2D073037020318080081
:102A620021003808A1003708A0000130A200003080
:102A7200A3008731AA27943121003709B20038090F
:102A8200B300B20A0319B30A3208063EA0000030AE
:102A9200333DA10090317C20943105302100AC00FF
:102AA2000030AD009F31CE27943101302100B707AD
:102AB2000030B83D262D81302100A0001F30A1003A
:102AC2009E3184269531210021082000E500210055
:102AD20020082000E40082302100A0001F30A10065
:102AE2009E3184269531210021082000E100210039
:102AF20020082000E0006508803A2100A400803010
:102B02002402031D872D073020006402031C8E2D32
:102B120006302000E4000030E50020006108803A21
:102B22002100A40080302402031D9A2D07302000CA
:102B32006002031CA12D06302000E0000030E100FD
:102B420020006908031DA82D27008D14AA2D270037
:102B52008D102000690C2700031C0D1103180D15A0
:102B620022000D118D110D128D128D100D102000ED
:102B720065082100A100200064082100A0000130A6
:102B8200A2000030A3008731AA27953120006108F6
:102B92002100A100200060082100A00090317C20CB
:102BA20008002000A901A31FE32DA009A109A20981
:102BB200A309A00A0319A10A0319A20A0319A30A65
:102BC200A901A90AA71FF42DA409A509A609A70905
:102BD200A40A0319A50A0319A60A0319A70A0130B0
:102BE200FC007C08A9060030AD000030AC000030CB
:102BF200AB000030AA002308220421042004031998
:102C02003D2EA801A80AA31B122E0130A035A10D4A
:102C1200A20DA30D890B072E0130FC007C08A8072A
:102C2200042E0130AA35AB0DAC0DAD0D890B132E60
:102C320023082702031D272E22082602031D272E02
:102C420021082502031D272E20082402031C322EF0
:102C52002008A4022108A53B2208A63B2308A73B83
:102C62002A140130A336A20CA10CA00C890B332E1E
:102C72000130A802031D122E290803194B2EAA099E
:102C8200AB09AC09AD09AA0A0319AB0A0319AC0ACC
:102C92000319AD0A2D08A3002C08A2002B08A100DD
:102CA2002A08A00008002100AA01A31F652EA0097E
:102CB200A109A209A309A00A0319A10A0319A20AD8
:102CC2000319A30AAA01AA0AA71F762EA409A50915
:102CD200A609A709A40A0319A50A0319A60A031932
:102CE200A70A0130A8002808AA060030AE0000306A
:102CF200AD000030AC000030AB00230822042104F8
:102D020020040319BF2EA901A90AA31B942E013086
:102D1200A035A10DA20DA30D890B892E0130A800AB
:102D22002808A907862E0130AB35AC0DAD0DAE0DCE
:102D3200890B952E23082702031DA92E220826029D
:102D4200031DA92E21082502031DA92E20082402F5
:102D5200031CB42E2008A4022108A53B2208A63B8E
:102D62002308A73B2B140130A336A20CA10CA00C04
:102D7200890BB52E0130A902031D942E2A080319CE
:102D8200CD2EAB09AC09AD09AE09AB0A0319AC0AE9
:102D92000319AD0A0319AE0A2E08A3002D08A200DA
:102DA2002C08A1002B08A000080021005B08A80045
:102DB2005C08A9005D08AA005808A0005908A100F3
:102DC2005A08A2009D31CD25963121002008AB0082
:102DD2002108AC002208AD008B311E239631210060
:102DE2002808C5002908C6002A08C7006108A800EB
:102DF2006208A9006308AA005E08A0005F08A1009B
:102E02006008A2009D31CD25963121002008AB003B
:102E12002108AC002208AD008B311E23963121001F
:102E22002808B5002908B6002A08B7005508A800E6
:102E32005608A9005708AA005808A0005908A1007E
:102E42005A08A2009D31CD25963121002008AB0001
:102E52002108AC002208AD008B311E2396312100DF
:102E62002808B8002908B9002A08BA008831C52004
:102E7200963121003508C8003608C9003708CA0053
:102E820088311C20963121004508E4004608E500FF
:102E92004708E6005E08A8005F08A9006008AA00CB
:102EA2006408AB006508AC006608AD008B311E23D8
:102EB20021002808D5002908D6002A08D7000800D2
:102EC20021006708EB006808EC006908ED000310B8
:102ED2006C0D6D0DEE006E082200A5002508031D85
:102EE2007C2F00302100EA000030E9000030E800C9
:102EF2000030E700080021006708EB006808EC00DA
:102F02006908ED001730ED36EC0CEB0C890B842FC1
:102F12006B08EE006E082200A0002100E817FF30C7
:102F2200E705FF30E8050030E90567082200A10047
:102F3200210068082200A200210069082200A300E3
:102F4200A4018E30A502A51FC62F2508803A8F3E08
:102F52000318B52F00302100EA000030E9000030EC
:102F6200E8000030E700080001302200A436A30C7C
:102F7200A20CA10C890BB62F01302100EB006B08CB
:102F82002200A5070319E22FB52F18302502031CD2
:102F9200DE2F00302100EA000030E9000030E800B6
:102FA2000030E700080001302200A135A20DA30D78
:102FB200A40D890BD52F0130A50222002508031D7F
:102FC200D42F20080319F02FA109A209A309A409EB
:102FD200A10A0319A20A0319A30A0319A40A2408BD
:102FE2002100EA00220023082100E9002200220831
:0E2FF2002100E800220021082100E70008006D
:103B6A00FC302100990508002100A001A1010800EC
:103B7A00210095129511151095141511080087301A
:103B8A0020009C05FC309C05FF309B001C1508009A
:103B9A002100220821042004031908008030A2060B
:103BAA00080021009E171E088F3960389E00FC30DD
:103BBA009E051D1408006434003401340034D034E6
:103BCA00073401340034013400340134FE00120099
:103BDA001E000130FE020030FF3B7F087E040319FD
:103BEA000034EC2D6400800101310130FE02003006
:103BFA00FF3B7F087E0403190034F82DD0340734C4
:103C0A00D0340734D0340734D0340734D0340734AE
:103C1A00FF34FF34D034073400340034D03407344E
:103C2A000034003406340034E834033406340034F3
:103C3A00FF34FF340434FF342100A3002308A20018
:103C4A00A20DA20D1D082206833922069D009D148D
:103C5A009D182D2E1C08A1001B08A000080000308A
:103C6A0022000D1A01302300B400003022000D1981
:103C7A0001302300B600003022008D1A01302300E3
:103C8A00B500003022008D1901302300B70008006A
:103C9A00200066082100A200A30121082306031DB3
:103CAA00582E20082206031908002008A20022081C
:103CBA002000E6002100200C2200031C8D110318AD
:103CCA008D1508002300340C2200031C0D12031862
:103CDA000D162300360C2200031C0D1103180D15B6
:103CEA002300350C2200031C8D1203188D162300A5
:103CFA00370C2200031C8D1103188D1508000030A3
:103D0A008B1B01302100A2008B1320082300910095
:103D1A002100210823009200151315140000000049
:103D2A002100220C031C8B1303188B172300140881
:103D3A002100A100230013082100A000080021008F
:103D4A00AD01A91FAF2EA809A909A80A0319A90A32
:103D5A00AD01AD0A2808A0002908A100A2018E30F1
:103D6A00AB002B08A3002D08AC002C08A40094314A
:103D7A00882421002008A8002108A9002208AA00F6
:103D8A0008002100A101A2012208803AA000803087
:103D9A002002031DD22E0C30210203180800210034
:103DAA002108A0000130A035FF3E031DD82E203582
:103DBA00A03E8600023087000030C03F0030C13F7D
:103DCA00C23FC33F0130A1070030A23DC92EFF34D4
:103DDA00FF34FF34DF34AE348E34783467345B34E6
:103DEA005034483442343C343734333430342D344C
:103DFA002A34273425342334213420341E341D3404
:103E0A001C341B341A341934183417341634153444
:103E1A001534143413340F340B34073407349E31F9
:103E2A0034269F3101302100B90039082000D6001C
:103E3A0022000D120D118D128D110D108D100030F2
:103E4A009431ED249F3100309431ED249F310130BB
:103E5A009431ED249F3101309431ED249F31913119
:103E6A006E219F3191316E219F312000D6019E3102
:103E7A00672608000030FB000030FA000030F90025
:103E8A000030F800701C512F7408F8077508F93DC6
:103E9A007608FA3D7708FB3D0130F435F50DF60D4D
:103EAA00F70D890B522F0130F336F20CF10CF00C9E
:103EBA00890B592F7308720471047004031D472F6C
:103ECA007B08F3007A08F2007908F1007808F0001C
:103EDA00080021000D108D100D118D110D128D127B
:103EEA000E140E128E120F108F100F118F110F1247
:103EFA008F160F178F17101490142300101090109C
:103F0A0020001010901026000C108C100C118C112F
:103F1A000C128C120C1728000C1326008D100D1190
:103F2A009D31D6259F319131EF218B178B160B11BD
:103F3A00080000302100AB000030AA000030A900C0
:103F4A000030A800201CB12F2408A8072508A93D85
:103F5A002608AA3D2708AB3D0130A435A50DA60DBC
:103F6A00A70D890BB22F0130A336A20CA10CA00C0D
:103F7A00890BB92F2308220421042004031DA72F2B
:103F8A002B08A3002A08A2002908A1002808A000DB
:103F9A00080000302100B1000030B0000030AF004E
:103FAA000030AE002C08A0002D08A100A201A30138
:103FBA000030A7000030A6000330A500E830A400B6
:103FCA009F319E279F3121002308B1002208B000AB
:103FDA002108AF002008AE00310830042F042E0457
:103FEA0003190800FF30AE07FF30AF3DFF30B03D88
:063FFA00FF30B13DF12F84
:020000040001F9
:04000E00E2FFFFDF2F
:00000001FF
