:1000000081312929143406347E14803120007F0880
:10001000F8000B1D6E280130F4000030F5000030B0
:10002000F6000030F70021004708F4074808F53DC6
:100030004908F63D4A08F73D7708CA007608C90026
:100040007508C8007408C7000130F4000030F500DE
:100050000030F6000030F7004308F4074408F53D8F
:100060004508F63D4608F73D7708C6007608C50006
:100070007508C4007408C3000130F4000030F500B6
:100080000030F6000030F7007908F4077A08F53DF3
:100090007B08F63D7C08F73D7708FC007608FB00FE
:1000A0007508FA007408F9000130F4000030F5001A
:1000B0000030F6000030F70022003808F407390855
:1000C000F53D3A08F63D3B08F73D7708BB0076085A
:1000D000BA007508B9007408B8000B1121004A086D
:1000E000803AF4006108803A7402031D8128600898
:1000F0004902031D81285F084802031D81285E080C
:100100004702031C91286F08031D882822000D1642
:1001100000302100CA000030C9000030C8000030A3
:10012000C700CA1BA5284A08031DA0284908031DAB
:10013000A0284808031DA02814304702031CA52846
:100140006F08031DA52822000D1221004608803AE1
:10015000F4006508803A7402031DB828640845025B
:10016000031DB82863084402031DB828620843022F
:10017000031CD4286F08031DCB287D08F400F5016B
:100180007408F0007508F1000130F2000030F3004F
:1001900094319A24803100302100C6000030C5001F
:1001A0000030C4000030C300C61BF3284608031DFE
:1001B000E3284508031DE3284408031DE328143001
:1001C0004302031CF3286F08031DF3287D08F40085
:1001D000F5017408F0007508F1000030F200F3003A
:1001E00094319A24803121005D03031D1D290130C3
:1001F000F4007408DC0722005F08803A803C031D8D
:1002000004295E0821005C02031C222922008D14AF
:100210005F08F5005E08F400F435F50D7508803AC6
:10022000F60080307602031D182921005C08740254
:10023000031824292100DC01242921005C0803196A
:100240002429DC0122008D1078082000FF007E1098
:10025000090081312B29F901FA01FB01FC01C330AE
:100260008400003085001B30FE000030FF009F310D
:10027000AB27813120308400013085003E30FE0004
:100280000030FF009F31AB278131A0308400013066
:1002900085004C30FE000030FF009F31AB278131DC
:1002A00020308400023085004030FE000030FF0026
:1002B0009F31AB278131E430840081308500783074
:1002C0008600233087000230FF0078309F319F275F
:1002D0008131803103208131FD0080310220813164
:1002E000EF00D83084009F308500DE30860000307B
:1002F00087000030FF0012309F319F278131B730D7
:1003000084009F3085005E30860001308700003019
:10031000FF000F309F319F2781315F308400923082
:100320008500A0308600023087000030FF003A30A0
:100330009F319F2781312530840092308500203005
:100340008600033087000030FF003A309F319F273E
:100350008131EB30840091308500A030860003307D
:1003600087000030FF003A309F319F2781317D3078
:1003700084009530850020308600043087000030EE
:10038000FF0050309F319F2781312D308400953000
:100390008500A0308600043087000030FF00503018
:1003A0009F319F278131B13084009130850020300A
:1003B0008600053087000030FF003A309F319F27CC
:1003C0007E10200089310D2922340834FC34073492
:1003D000D8340734B53407349334073472340734CF
:1003E000523407343434073416340734F9340634BD
:1003F000DD340634C2340634A83406348F3406346F
:10040000763406345E3406344734063430340634E9
:100410001A34063405340634F0340534DC3405343B
:10042000C8340534B5340534A33405349034053468
:100430007F3405346D3405345C3405344C34053474
:100440003C3405342C3405341D3405340E34053465
:10045000FF340434F1340434E2340434D534043445
:10046000C7340434BA340434AD340434A13404340D
:1004700094340434883404347D34043471340434C2
:10048000663404345A340434503404344534043467
:100490003A34043430340434263404341C34043400
:1004A0001234043409340434FF340334F63403348E
:1004B000ED340334E4340334DC340334D334033410
:1004C000CB340334C2340334BA340334B234033487
:1004D000AA340334A23403349B34033493340334F6
:1004E0008C340334853403347E340334773403345A
:1004F0007034033469340334623403345C340334B9
:10050000553403344F340334483403344234033411
:100510003C34033436340334303403342A34033463
:10052000243403341F3403341934033413340334B0
:100530000E3403340934033403340334FE340234F8
:10054000F9340234F4340234EF340234EA3402343D
:10055000E5340234E0340234DB340234D73402347C
:10056000D2340234CD340234C9340234C4340234B7
:10057000C0340234BC340234B7340234B3340234ED
:10058000AF340234AB340234A6340234A234023421
:100590009E3402349A340234973402349334023451
:1005A0008F3402348B34023487340234843402347E
:1005B000803402347C3402347934023475340234A9
:1005C000723402346E3402346B34023467340234D1
:1005D00064340234613402345E3402345A340234F6
:1005E0005734023454340234513402344E34023419
:1005F0004B34023448340234453402344234023439
:100600003F3402343C340234393402343634023458
:1006100033340234303402342E3402342B34023476
:100620002834023425340234233402342034023492
:100630001E3402341B3402341834023416340234AB
:1006400013340234113402340E3402340C340234C4
:100650000A340234073402340534023402340234DA
:1006600000340234FE340134FB340134F9340134F3
:10067000F7340134F5340134F2340134F034013408
:10068000EE340134EC340134EA340134E83401341A
:10069000E6340134E3340134E1340134DF3401342D
:1006A000DD340134DB340134D9340134D73401343E
:1006B000D5340134D3340134D2340134D03401344C
:1006C000CE340134CC340134CA340134C83401345A
:1006D000C6340134C4340134C3340134C134013468
:1006E000BF340134BD340134BC340134BA34013474
:1006F000B8340134B6340134B5340134B334013480
:10070000B1340134B0340134AE340134AC3401348A
:10071000AB340134A9340134A8340134A634013493
:10072000A4340134A3340134A1340134A03401349D
:100730009E3401349D3401349B3401349A340134A5
:1007400098340134973401349534013494340134AD
:100750009234013491340134903401348E340134B4
:100760008D3401348B3401348A34013489340134BA
:1007700087340134863401348534013483340134C0
:1007800082340134813401347F3401347E340134C5
:100790007D3401347B3401347A34013479340134CA
:1007A00078340134763401347534013474340134CE
:1007B0007334013471340134703401346F340134D2
:1007C0006E340134003400340A34003414340034FC
:1007D0001E34003428340034323400343A340034C7
:1007E000423400344A340034503400345634003437
:1007F0005B3400345F3400346134003463340034DB
:100800006434003463340034613400345F340034C1
:100810005B34003456340034503400344A340034ED
:10082000423400343A340034323400342834003452
:100830001E340034143400340A34003400340034DC
:10084000F634FF34EC34FF34E234FF34D834FF3470
:10085000CE34FF34C634FF34BE34FF34B634FF34F4
:10086000B034FF34AA34FF34A534FF34A134FF344C
:100870009F34FF349D34FF349C34FF349D34FF3467
:100880009F34FF34A134FF34A534FF34AA34FF343D
:10089000B034FF34B634FF34BE34FF34C634FF34D2
:1008A000CE34FF34D834FF34E234FF34EC34FF3438
:1008B000F634FF34003400343A2D2100270820009C
:1008C000A900210026082000A80090317A20843158
:1008D00020002808B8002908B9002A08BA0000300A
:1008E000B5004030B6003F30B70086314B2684312A
:1008F00020003508E7003608E8003708E9008831AD
:100900006E20200068082100A70020006708210051
:10091000A600080027082000A900210026082000C2
:10092000A80090317A20843120002808B8002908D6
:10093000B9002A08BA00AA30B5002A30B6003F3004
:10094000B70086314B26843120003508E700360891
:10095000E8003708E90088316E202000680821008F
:10096000A700200067082100A60008002708200033
:10097000A900210026082000A80090317A208431A7
:1009800020002808B8002908B9002A08BA00003059
:10099000B5000030B6003F30B70086314B268431B9
:1009A00020003508E7003608E8003708E9008831FC
:1009B0006E20200068082100A700200067082100A1
:1009C000A600080027082000A90021002608200012
:1009D000A80090317A20843120002808B800290826
:1009E000B9002A08BA00A630B500AA30B6003E30D9
:1009F000B70086314B26843120003508E7003608E1
:100A0000E8003708E90088316E20200068082100DE
:100A1000A700200067082100A60008002708200082
:100A2000A900210026082000A80090317A208431F6
:100A300020002808B8002908B9002A08BA000030A8
:100A4000B5008030B6003E30B70086314B26843189
:100A500020003508E7003608E8003708E90088314B
:100A60006E20200068082100A700200067082100F0
:100A7000A600080021002908003A0319402D542D32
:100A80002808013A03195D2C033A03198A2C013A0C
:100A90000319B62C073A0319E22C013A03190E2D5B
:100AA000033A0319542D542D080020002808AE00E5
:100AB0002908AF002A08B00003102F0D300DB10037
:100AC0003108B4002B08AE002C08AF002D08B00090
:100AD00003102F0D300DB1003108B3003408031995
:100AE0007D2D330834020318842D3403FF3A330775
:100AF000AE0019302E02031C842D2B08A8002C08F0
:100B0000A9002D08AA0008003308031908003408BA
:100B100033020318932D3303FF3A3407AE00193024
:100B20002E02031808000630AE002E08B200AA1BE1
:100B3000B217AD1B3217A917FF30A805FF30A90562
:100B40000030AA05AC17FF30AB05FF30AC05003014
:100B5000AD05330834020318CF2D0130AB35AC0D91
:100B6000AD0D890BAE2D0130B302330834060319E5
:100B7000CA2D0130B202320807390319CA2DAD2D32
:100B80000130AA36A90CA80C890BC12D0130AE008A
:100B90002E08B407340833060319F42DC02D340889
:100BA00033020318F42D0130A835A90DAA0D890BC5
:100BB000D42D0130B402330834060319F02D01306E
:100BC000B202320807390319F02DD32D0130AD36AA
:100BD000AC0CAB0C890BE72D0130AE002E08B3072F
:100BE00034083306031DE62DB21F062EFF30A8067B
:100BF000FF30A906FF30AA060130A807003003180D
:100C00000130A907003003180130AA07321F182E3F
:100C1000FF30AB06FF30AC06FF30AD060130AB074E
:100C2000003003180130AC07003003180130AD0765
:100C3000B2012808AB072908AC3D2A08AD3DAD1F1D
:100C4000332EFF30AB06FF30AC06FF30AD0601306F
:100C5000AB07003003180130AC0700300318013037
:100C6000AD07B201B20A2B08A0002C08A1002D0884
:100C7000A2003408AE002E08A3003208AF002F08EF
:100C8000A40096311F2620002008A8002108A900F2
:100C90002208AA00080020003508BB003608BC0066
:100CA0003708BD0003103C0D3D0DBE003E08BF00DF
:100CB0003F08031D622E0030B5000030B600003042
:100CC000B70008003808BB003908BC003A08BD006E
:100CD00003103C0D3D0DBE003E08C4004408031D3A
:100CE000782E0030B5000030B6000030B7000800A4
:100CF00044087B3EBB003B08BF073508BB003608F5
:100D0000BC003708BD001030BD36BC0CBB0C890BD5
:100D1000842E3B08BE003E08C4003808BB003908DA
:100D2000BC003A08BD001030BD36BC0CBB0C890BB2
:100D3000942E3B08BE003E08C4068030BB003B0832
:100D4000C405B617B917FF30B805FF30B905003034
:100D5000BA050030C0000030C1000030C2000730CA
:100D6000BB003B08C300351CBB2E3808C007390840
:100D7000C13D3A08C23D0130B736B60CB50C890BFF
:100D8000BC2E0130B835B90DBA0D890BC22E013019
:100D9000C302031DB32E0930BB003B08C300351C42
:100DA000D72E3808C0073908C13D3A08C23D013086
:100DB000B736B60CB50C890BD82E0130C236C10C33
:100DC000C00C890BDE2E0130C302031DCF2E40085C
:100DD000A0004108A1004208A2003F08BB003B0858
:100DE000A3004408BC003C08A40096311F26200044
:100DF0002008B5002108B6002208B700080020002E
:100E00004808CB004908CC004A08CD0003104C0D1F
:100E10004D0DCE004E08D3005308031D162F003091
:100E2000C5000030C6000030C70008004508CB00F0
:100E30004608CC004708CD0003104C0D4D0DCE00E8
:100E40004E08D4005408031D2C2F0030C50000307C
:100E5000C6000030C70008000030D0000030D100CC
:100E60000030D20089305407CB004B08D302480829
:100E7000CB004908CC004A08CD001030CD36CC0C50
:100E8000CB0C890B3E2F4B08CE004E08D4004508F2
:100E9000CB004608CC004708CD001030CD36CC0C36
:100EA000CB0C890B4E2F4B08CE004E08D406803059
:100EB000CB004B08D405C917FF30C805FF30C90562
:100EC0000030CA05C617FF30C505FF30C605003023
:100ED000C7051830CB004B08CF000130D035D10DFD
:100EE000D20D890B6E2F47084A02031D7D2F46083D
:100EF0004902031D7D2F45084802031C862F450823
:100F0000C8024608C93B4708CA3B50140130C835DF
:100F1000C90DCA0D890B872F0130CF02031D6D2F1C
:100F20005008A0005108A1005208A2005308CB00AD
:100F30004B08A3005408CC004C08A40096311F268F
:100F400020002008C5002108C6002208C7000800AC
:100F500027000C108C100C118C110C12DE2F2000AD
:100F6000220C2700031C0C1003180C14080020008E
:100F7000220C2700031C8C1003188C14080020007E
:100F8000220C2700031C0C1103180C15080020006C
:100F9000220C2700031C8C1103188C15080020005C
:100FA000220C2700031C0C1203180C160800270043
:100FB0000C148C140C158C150C160800200021083C
:100FC000003A0319E42FFB2F2008013A0319AF2F31
:100FD000033A0319B72F013A0319BF2F073A031930
:100FE000C72F013A0319CF2F033A0319FB2F623A97
:100FF0000319D72FFB2F0800FC30210099050800AA
:10100600E03020002305A9003F302405AA00003067
:101016008B1B0130AB002A082406031D142829085F
:101026002306031D08008B132408A1002308A00033
:1010360090315A2088312300151315159516200076
:10104600AC0120302C0203186528230823009100E8
:10105600200024082300920020002C352507A60036
:10106600260886000230870001082300930020002E
:101076002C352507A6002608860002308700403F4B
:10108600A700413FA8002808230094001F30200035
:101096002C06031D50282300951255302300960078
:1010A600AA30960095140000000001302000A30726
:1010B6000030A43D0130A6002608AC0720302C02E3
:1010C600031C28282300151120002B0C031C8B134E
:1010D60003188B17080020006708EB006808EC006F
:1010E6006908ED0003106C0D6D0DEE006E08210011
:1010F600A5002508031D892800302000EA000030DD
:10110600E9000030E8000030E7000800200067082A
:10111600EB006808EC006908ED001730ED36EC0CC2
:10112600EB0C890B91286B08EE006E082100A000DD
:101136002000E817FF30E705FF30E8050030E90535
:1011460067082100A100200068082100A2002000F5
:1011560069082100A300A4018E30A502A51FD3288B
:101166002508803A8F3E0318C22800302000EA0086
:101176000030E9000030E8000030E70008000130E8
:101186002100A436A30CA20CA10C890BC3280130A4
:101196002000EB006B082100A5070319EF28C228E1
:1011A60018302502031CEB2800302000EA0000302E
:1011B600E9000030E8000030E700080001302100B7
:1011C600A135A20DA30DA40D890BE2280130A502BD
:1011D60021002508031DE12820080319FD28A1097F
:1011E600A209A309A409A10A0319A20A0319A30AB9
:1011F6000319A40A24082000EA002100230820007D
:10120600E900210022082000E80021002108200032
:10121600E70008008731FC2789319031E8208931C1
:1012260090319C2089319431E224893191317921A0
:10123600893193314F2389319431552489312000E6
:101246008F1B432901302200D2070030D33D5308BB
:10125600803A2100AA0080302A02031D35291A305F
:1012660022005202031C462919302200D200003007
:10127600D3009031C220893120008F1B46293F2997
:101286002200D201D30120009018882901302200C3
:10129600CE070030CF3D4F08803A2100AA008030AB
:1012A6002A02031D59291A3022004E02031C8B29DB
:1012B60021005908031D6129013062290030AA0066
:1012C6002A08D9005908031D6B2927008D146D299A
:1012D60027008D102100590C2700031C0D1103183F
:1012E6000D152100590C2200031C0D1103180D15B4
:1012F60021005908031D822922008D158429220008
:101306008D11200090188B2984292200CE01CF014F
:10131600200010181A2B01302200D0070030D13DD2
:101326005108803A2100AA0080302A02031D9E2916
:101336001A3022005002031C1D2BFC1BF3297C08CB
:10134600031DAE297B08031DAE291B30790206302A
:101356007A3B031CF3290030FC000030FB00003010
:10136600FA000030F90001302100EC000030ED00F9
:1013760000302200C7000030C6000030C500003033
:10138600C400E001E10101302100CB000030CC00B7
:101396006B08803AAA004C08803A2A02031DD52918
:1013A6004B086A02031CEF2921004B08AA000130F2
:1013B600AA35FF3E031DDB292A35203E8600013073
:1013C60087000030C03F0030C13FC23FC33F0130FD
:1013D600CB070030CC3DCB29200010181D2BEF2960
:1013E600FC1B012A7C08031D1D2B7B08031D1D2BDE
:1013F6001B30790206307A3B03181D2B21006D083D
:10140600803AAA0080302A02031D0B2A05306C029E
:101416000318162BFC1B232A7C08031D1B2A7B089A
:10142600031D1B2A9430790204307A3B031C232ABD
:101436000030FC000030FB000430FA009430F90064
:1014460021006B08BC006A08BB006B08803AAA0042
:101456006D08803A2A02031D322A6C086A02031CB0
:10146600572A79082200C4077A08C53D7B08C63D7D
:101476007C08C73D21006C08AA000130AA35FF3E52
:10148600031D412A2A35203E86000130870079084F
:10149600C03F7A08C13F7B08C23F7C08C33F6D0846
:1014A600BC006C08BB00D42A00302200C700003004
:1014B600C6000030C5000030C40001302100CB005A
:1014C6000030CC004C08803AAA006B08803A2A0209
:1014D600031D6F2A6A084B020318B62A21004B081F
:1014E600AA000130AA35FF3E031D752A2A35043E9F
:1014F600203E860001308700403FAB00413FAC00F4
:10150600423FAD00433FAE004B08AF000130AF3560
:10151600FF3E031D8A2A2F35203E860001308700B4
:101526002B08C03F2C08C13F2D08C23F2E08C33FE1
:101536004B08AA000130AA35FF3E031D9E2A2A3514
:10154600203E860001308700403F2200C407413F0D
:10155600C53D423FC63D433FC73D01302100CB0755
:101566000030CC3D652A21006A08AA000130AA3560
:10157600FF3E031DBA2A2A35203E86000130870029
:101586007908C03F7A08C13F7B08C23F7C08C33F49
:1015960079082200C4077A08C53D7B08C63D7C0849
:1015A600C73D21003B082000A60021003C08200082
:1015B600A700890D893B8909A800A90022004708D0
:1015C6002000AD00220046082000AC00220045089D
:1015D6002000AB00220044082000AA009631F32622
:1015E6008931200029082100E10020002808210077
:1015F600E000200027082100DF0020002608210047
:10160600DE0001302200E0000030E1000030FC0086
:101616000030FB000030FA000030F90001302100F4
:10162600EC070030ED3D200010181D2B162B220074
:10163600D001D101003090310520893120002108E8
:101646002100CE00200020082100CD00013090317D
:1016560005208931200021082100D0002000200823
:101666002100CF0002309031052089312000210869
:101676002100D200200020082100D1000330903143
:1016860005208931200021082100D40020002008EF
:101696002100D30004309031052089312000210833
:1016A6002100D600200020082100D5006609AA00E6
:1016B6006709AB00AA0A0319AB0A4D082A07AC0052
:1016C6004E082B3DAD002D08803AAE0080302E022C
:1016D600031D6F2B04302C0203188A2B2100660988
:1016E600AA006709AB00AA0A0319AB0A4D082A0724
:1016F600AC004E082B3DAD002D08803AAE007F3081
:101706002E02031D882BFD302C0203181C2C2100F1
:101716004E08E7004D08E60000302000E1007F306B
:10172600E2004330E3000030DE000030DF0000302E
:10173600E000C030DB007F30DC004430DD000030EC
:10174600D8000030D9000030DA00210067082000F8
:10175600A900210066082000A80090317A2089316E
:1017660020002808D5002908D6002A08D700973176
:101776007527893120005508E7005608E800570804
:10178600E90088316E208931200068082100BA00FE
:10179600200067082100B90000302000E100483031
:1017A600E2004330E3008030DE009230DF00443058
:1017B600E000C030DB007F30DC004430DD0000306C
:1017C600D8000030D9000030DA0021006708200078
:1017D600A900210066082000A80090317A208931EE
:1017E60020002808D5002908D6002A08D7009731F6
:1017F6007527893120005508E7005608E800570884
:10180600E90088316E20893120006A082100E10054
:10181600200069082100E000200068082100DF00A0
:10182600200067082100DE0001302200E0000030C1
:10183600E10021006809AA006909AB00AA0A031998
:10184600AB0A4F082A07AC0050082B3DAD002D0807
:10185600803AAE0080302E02031D332C04302C0259
:1018660003184E2C21006809AA006909AB00AA0AD0
:101876000319AB0A4F082A07AC0050082B3DAD00F0
:101886002D08803AAE007F302E02031D4C2CFD3011
:101896002C020318A82C21005008E9004F08E80084
:1018A60000302000E1001C30E2004230E30000304E
:1018B600DE000030DF000030E000C030DB007F30AB
:1018C600DC004430DD000030D8000030D9000030A4
:1018D600DA00210069082000A9002100680820001C
:1018E600A80090317A20893120002808D5002908DF
:1018F600D6002A08D7009731752789312000550868
:10190600E7005608E8005708E90088316E2089315B
:10191600200068082100C000200067082100BF00E1
:101926003F35A03E860004308700403F25009800E2
:10193600413F990021003F35203E86000430870054
:10194600403F26009100413F920022006409210099
:10195600AA00220065092100AB00AA0A0319AB0AF6
:1019660051082A07AC0052082B3DAD002D08803ADD
:10197600AE0080302E02031DC22C04302C02031848
:10198600E02C220064092100AA002200650921003A
:10199600AB00AA0A0319AB0A51082A07AC00520881
:1019A6002B3DAD002D08803AAE007F302E02031D80
:1019B600DE2CFD302C0203183D2D2100520822009A
:1019C600E500210051082200E40000302000E1007B
:1019D6000030E2000030E3000030DE008030DF003F
:1019E6004130E000C030DB007F30DC004430DD00F9
:1019F6000030D8000030D9000030DA002200650837
:101A06002000A900220064082000A80090317A2056
:101A1600893120002808D5002908D6002A08D700D1
:101A260097317527893120005508E7005608E800E8
:101A36005708E90088316E208931200068082100A6
:101A4600C200200067082100C1004135A03E860083
:101A560004308700403F26009800413F990021004E
:101A66004135203E860004308700403F26009C001A
:101A7600413F9D00220066092100AA002200670955
:101A86002100AB00AA0A0319AB0A53082A07AC00C7
:101A960054082B3DAD002D08803AAE0080302E0252
:101AA600031D572D04302C020318752D22006609DC
:101AB6002100AA00220067092100AB00AA0A031927
:101AC600AB0A53082A07AC0054082B3DAD002D087D
:101AD600803AAE007F302E02031D732DFD302C029E
:101AE6000318BD2D210054082200E70021005308E9
:101AF6002200E60000302000E1007A30E2004430A7
:101B0600E3000030DE007030DF004230E000C0301D
:101B1600DB007F30DC004430DD000030D8000030D0
:101B2600D9000030DA00220067082000A900220050
:101B360066082000A80090317A2089312000280804
:101B4600D5002908D6002A08D7009731752789318C
:101B560020005508E7005608E8005708E9008831D4
:101B66006E208931200068082200EB0020006708FB
:101B76002200EA00220068092100AA002200690961
:101B86002100AB00AA0A0319AB0A55082A07AC00C4
:101B960056082B3DAD002D08803AAE0080302E024F
:101BA600031DD72D04302C020318F52D22006809D9
:101BB6002100AA00220069092100AB00AA0A031924
:101BC600AB0A55082A07AC0056082B3DAD002D0878
:101BD600803AAE007F302E02031DF32DFD302C021D
:101BE6000318FD2D210056082200E90021005508A2
:101BF6002200E80022006A082100AA0022006B08E1
:101C06002100AB000030AB1BFF30AC00AD00220062
:101C16003B08803A2100AE002D08803A2E022200B1
:101C2600031D252E21002C0822003A02031D252E15
:101C360021002B0822003902031D252E21002A0827
:101C460022003802031C432F21005708013ED7000B
:101C56000030583DD80000302200BB000030BA00EA
:101C66000030B9000030B80021006E0303193F2E82
:101C760005306E06031D482E5808803AAA008030AB
:101C86002A02031D512E3D30502E5808803AAA00D4
:101C960080302A02031D512E20305702031C562E77
:101CA6002100D701D80100302000E1000030E20019
:101CB6000030E3006030DE009F30DF004430E0009B
:101CC600C030DB007F30DC004430DD000030D8005F
:101CD6000030D9000030DA00220069082000A9008F
:101CE600220068082000A80090317A20893120005F
:101CF6002808D5002908D6002A08D7009731752765
:101D0600893120005508E7005608E8005708E90021
:101D160088316E208931200068082100BE0020002D
:101D260067082100BD00F22E5808AB005708AA002C
:101D3600AA35AB0D7830AC002330AD002A082C074D
:101D460086002B082D3D8700403F2200DA00413FE8
:101D5600CC2E21005735A03E860002308700403F3A
:101D66002200DA00413FCC2E21005735203E860066
:101D760003308700403F2200DA00413FCC2E21008D
:101D86005735A03E860003308700403F2200DA0028
:101D9600413FDB00EF2E21005808AB005708AA0090
:101DA600AA35AB0D7830AC002330AD002A082C07DD
:101DB60086002B082D3D8700403F2200DA00413F78
:101DC600DB00FB302100BD000430BE0020000E16F3
:101DD600072F2200DA01DB0120000E12072F210057
:101DE6006E08013A0319972E033A0319AC2E013AED
:101DF6000319B72E073A0319C22E013A0319CE2E3C
:101E0600033A0319EC2E072F22005B082000B600C8
:101E160022005A082000B50021003E082000B80024
:101E260021003D082000B70093311123893120009D
:101E360036082200DB00200035082200DA000230D6
:101E46002000A0000030A10022005B082000A300B3
:101E560022005A082000A2009531CD2589312000A4
:101E660021082C009B00200020082C009A0000303E
:101E76002200BB000030BA000030B9000030B800C4
:101E860060036104031D192921006108E50060084B
:101E9600E4005F08E3005E08E2005F08A7005E0852
:101EA600A6007D08AA00AB012A08A8002B08A900F5
:101EB60084315C24893121002608E2002708E300EA
:101EC600890D893B8909E400E5002200D801D90182
:101ED600D601D701220058085904031DC82F5708F8
:101EE6002100AB00220056082100AA00AA35AB0D3E
:101EF600F230AC002330AD002A082C0786002B08F0
:101F06002D3D8700403FAE00413FAF002E08B00098
:101F16002F08B1000030B11BFF30B200B3006208D9
:101F2600B4006308B5006408B6006508B700013060
:101F3600B435B50DB60DB70D890B9B2F3708803A12
:101F4600B8003308803A3802031DB32F3208360230
:101F5600031DB32F31083502031DB32F3008340299
:101F6600031CC22F01302200D8000030D9005708C8
:101F76002500920022005608250091006D2F0130A1
:101F86002200D6070030D73D6D2F210065082000BE
:101F9600AB00210064082000AA002100630820008D
:101FA600A900210062082000A8009231D4228931BC
:101FB60020002808C8002908C9002A08CA000030DD
:101FC600C500F030C6004030C7008631FF26893193
:101FD60020004508E7004608E8004708E900883180
:101FE6006E208931200068082200EB002000670877
:0A1FF6002200EA00E001E1011929D0
:10200A002000A3002308A200A20DA20D21001D0892
:10201A00200022068339220621009D009D149D1866
:10202A0014281C082000A10021001B082000A00081
:10203A0008002000A401A501201C27282208A407C3
:10204A002308A53D0130A235A30D890B28280130AC
:10205A00A136A00C890B2D2820082104031D212854
:10206A002508A1002408A000080000308B1B0130BD
:10207A002000A2008B1320082300910020002108D1
:10208A002300920015131514000000002000220CF2
:10209A00031C8B1303188B17230014082000A100BC
:1020AA00230013082000A000080000308B1B013019
:1020BA002000A2008B132008230091002000210891
:1020CA002300920015131516151555309600AA30DF
:1020DA009600951400000000230015112000220C20
:1020EA00031C8B1303188B1708002000AD01A91FCE
:1020FA008528A809A909A80A0319A90AAD01AD0AE0
:10210A002808A0002908A100A2018E30AB002B08E4
:10211A00A3002D08AC002C08A40096311F2620002D
:10212A002008A8002108A9002208AA000800200007
:10213A00A101A2012208803AA00080302002031DDA
:10214A00A8280C3021020318080020002108A0004A
:10215A000130A035FF3E031DAE282035A03E860083
:10216A00013087000030C03F0030C13FC23FC33F4B
:10217A000130A1070030A23D9F289F31C627903128
:10218A002100EF01EF0A22000D120D118D128D119F
:10219A000D108D1000309631842690310030963122
:1021AA00842690310130963184269031013096315F
:1021BA008426903193318F23903193318F2390313C
:1021CA009F31EA27080021000D108D100D118D1185
:1021DA000D128D120E140E128E120F108F100F1177
:1021EA008F110F128F160F178F17101490142300C8
:1021FA001010901020001010901026000C108C1057
:10220A000C118C110C128C120C1728000C132600BE
:10221A008D100D119F31952790319331CF238B1754
:10222A008B160B11080000302000AB000030AA000A
:10223A000030A9000030A800201C2B292408A80778
:10224A002508A93D2608AA3D2708AB3D0130A4353B
:10225A00A50DA60DA70D890B2C290130A336A20CBA
:10226A00A10CA00C890B3329230822042104200481
:10227A00031D21292B08A3002A08A2002908A1006E
:10228A002808A000080020002C08A0002D08A100A2
:10229A00A201A3010030A7000030A6000330A50068
:1022AA00E830A4009131182191312000230822003E
:1022BA00CB00200022082200CA00200021082200A8
:1022CA00C900200020082200C8004B084A0449041B
:1022DA00480403190800FF30C807FF30C93DFF3022
:1022EA00CA3DFF30CB3D6A2920000F1B0800013090
:1022FA00B70037082100EE0707306E02031C872952
:10230A00EE01EE0A6E082000B700B8013708A000F7
:10231A003808A10092319922913182302000AD0013
:10232A001F30AE002030B7003708AF0021006E081A
:10233A002000B800B9013808B0003908B10094315A
:10234A001024913120000F1FA7291430AC0000304F
:10235A00AD009131482108000034003415340034AE
:10236A00283400343B3400344A34003456340034C0
:10237A005F34003463340034643400345F3400342E
:10238A00573400344B3400343C3400342A3400349B
:10239A001634003402340034ED34FF34D934FF34B7
:1023AA00C734FF34B734FF34AB34FF34A234FF34BC
:1023BA009D34FF349C34FF34A834FF34B434FF34E2
:1023CA00C334FF34D534FF34E834FF346434003482
:1023DA0064340034643400346434003464340034C3
:1023EA0064340034643400346434003464340034B3
:1023FA0064340034643400346434003464340034A3
:10240A0064340034643400349C34FF349C34FF3424
:10241A009C34FF349C34FF349C34FF349C34FF34A6
:10242A009C34FF349C34FF349C34FF349C34FF3496
:10243A009C34FF349C34FF349C34FF349C34FF3486
:10244A0000340034073400340D34003414340034BA
:10245A001B34003421340034283400342F3400343F
:10246A00353400343C3400344334003449340034C5
:10247A0050340034573400345D3400349C34FF3413
:10248A00A334FF34A934FF34B034FF34B734FF34F3
:10249A00BD34FF34C434FF34CB34FF34D134FF3479
:1024AA00D834FF34DF34FF34E534FF34EC34FF34FE
:1024BA00F334FF34003400340D3400341B34003458
:1024CA002834003435340034433400345034003472
:1024DA005D3400345D340034503400344334003405
:1024EA0035340034283400341B3400340D340034BD
:1024FA0000340034F334FF34E534FF34D834FF3485
:10250A00CB34FF34BD34FF34B034FF34A334FF344A
:10251A00A334FF34B034FF34BD34FF34CB34FF343A
:10252A00D834FF34E534FF3422000F108F100F1116
:10253A008F110F12B62A22000F14080022008F14DE
:10254A00080022000F15080022008F15080022003B
:10255A000F16080022000F148F140F158F150F166F
:10256A00080020002108003A0319BC2AD32A2008AF
:10257A00013A0319A02A033A0319A32A013A0319B3
:10258A00A62A073A0319A92A013A0319AC2A033AD7
:10259A000319D32A623A0319AF2AD32A0800200062
:1025AA00AF018E30AC002C08AE00AB1FE92AA80997
:1025BA00A909AA09AB09A80A0319A90A0319AA0AA7
:1025CA000319AB0AAF01AF0AFF302B050319F92A29
:1025DA000130AB36AA0CA90CA80C890BEE2A0130E3
:1025EA00AC002C08AE07E92A2808A0002908A10097
:1025FA002A08A2002E08AC002C08A3002F08AD0060
:10260A002D08A40096311F2620002008A8002108C2
:10261A00A9002208AA00080000302000A900003002
:10262A00A8000330A700E830A6000C30B900F23049
:10263A00BA000130BB000030BC003808A1003708DE
:10264A00A0003608A3003508A20090311E2093315D
:10265A0020002008BD002108BE000030BE1BFF304C
:10266A00BF00C0003D08B9073E08BA3D3F08BB3D60
:10267A004008BC3D3C08AD003B08AC003A08AB0042
:10268A003908AA009631F32620002708B600260842
:10269A00B500080020008F1A08007D08013EB70027
:1026AA003708FD0007307D02031C5F2B0130B7009D
:1026BA003708FD007D08B700B8013708A0003808C0
:1026CA00A1000130A2000030A3008731A82793316E
:1026DA0001302200E0000030E10081302000AD002E
:1026EA001F30AE002030B7003708AF007D08B800B1
:1026FA00B9013808B0003908B10094311024933177
:10270A0020008F1E852B1430AC000030AD009131B3
:10271A00482108001E302000AE002E08B0006430A8
:10272A00A0000030A1000130A2000030A3008731D0
:10273A00A827933164302000A0000030A100923114
:10274A009922933120003008AE00AF012E08AC0068
:10275A002F08AD0091314821933100302000A000AC
:10276A00A1000130A2000030A3008731A8279331CD
:10277A0000302000A000A10092319922933120005C
:10278A003008AE00AF012E08AC002F08AD00913121
:10279A004821080022001D1021000E118E1026006B
:1027AA000D108D110D12210010139012101290119C
:1027BA0010110F30250093040F309A040F302600B1
:1027CA0093040F309A040F309E040F302C009304A8
:1027DA000F3096040F3099040F309C040F309F0479
:1027EA0025009D019E019F01003092003230910028
:1027FA00003099006430980000302600920096302C
:10280A00910000309900C83098009F318327933196
:10281A009F317C270800E03020002D05B4003F30AE
:10282A002E05B5002D081F39B2003208B300B601D3
:10283A002030360203183F2C36083407A00035082A
:10284A000318350AA10090313A2094312000363518
:10285A002F07B20032088600023087002008C03FE6
:10286A002108C13F0130B2003208B60720303602D3
:10287A00031C212C33352F07B200320886000230A0
:10288A0087003008C03F3108C13F3508A40034082A
:10289A00A3002F08B2003208A500883103200800DF
:1028AA0020000E18962C01302200D4070030D53DA6
:1028BA005508803A2000A00080302002031D682CB1
:1028CA001A3022005402031C080019302200D400D6
:1028DA000030D50001302000A00020082100DB07CD
:1028EA0003305B02031C862CDB01862C22008D1030
:1028FA00802C22008D140D10922C22008D100D14A4
:10290A00922C21005B08003A03197B2C013A031927
:10291A007E2C033A0319822C922C20000E180800F0
:10292A00922C2200D401D501080027000C108C102B
:10293A000C118C110C12C52C720C031C0C100318F0
:10294A000C140800720C031C8C1003188C14080059
:10295A00720C031C0C1103180C150800720C031CD2
:10296A008C1103188C150800720C031C0C12031826
:10297A000C1608000C148C140C158C150C16080077
:10298A007108003A0319CA2CE12C7008013A03199C
:10299A00A12C033A0319A72C013A0319AD2C073AC3
:1029AA000319B32C013A0319B92C033A0319E12C80
:1029BA00623A0319BF2CE12C080081302000A000E4
:1029CA001F30A10090313A20943120002008A40041
:1029DA002408FD008230A0001F30A10090313A2067
:1029EA00943120002008A40024082100EE00590890
:1029FA00031D022D27008D14042D27008D102100A0
:102A0A00590C2700031C0D1103180D1522000D1176
:102A1A008D110D128D128D100D107D082000A4004D
:102A2A00A5012408A0002508A1000130A200003059
:102A3A00A3008731A827943121006E082000A40042
:102A4A00A5012408A0002508A100923199220800B6
:102A5A0007340034073400340B3400340F340034A4
:102A6A00133400341434003415340034153400346B
:102A7A00163400341734003418340034193400344E
:102A8A001A3400341B3400341C3400341D3400342E
:102A9A001E3400342034003421340034233400340A
:102AAA0025340034273400342A3400342D340034D9
:102ABA003034003433340034373400343C34003496
:102ACA004234003448340034503400345B34003427
:102ADA0067340034783400348E340034AE34003431
:102AEA00DF340034FF340034FF340034FF34003460
:102AFA00FF340034FF340034FF340034DF34003450
:102B0A00AE3400348E340034783400346734003400
:102B1A005B340034503400344834003442340034D6
:102B2A003C34003437340034333400343034003425
:102B3A002D3400342A340034273400342534003448
:102B4A002334003421340034203400341E34003459
:102B5A001D3400341C3400341B3400341A3400345D
:102B6A00193400341834003417340034163400345D
:102B7A00153400341534003414340034133400345A
:102B8A000F3400340B340034073400340734003473
:102B9A002000A601A11FD82DA009A109A00A031986
:102BAA00A10AA601A60AA31FE32DA209A309A20A44
:102BBA000319A30A0130A4002408A606A701A80144
:102BCA00200821040319122EA501A50AA11BF72D1D
:102BDA000130A035A10D890BEE2D0130A400240887
:102BEA00A507EB2D0130A735A80D890BF82D210873
:102BFA002302031D022E20082202031C092E20088C
:102C0A00A2022108A33B27140130A136A00C890B8C
:102C1A000A2E0130A502031DF72D260803191A2EC4
:102C2A00A709A809A70A0319A80A2808A1002708BA
:102C3A00A0000800200023080319282E22082104D6
:102C4A002004031D392E0030A0000030A1000030FE
:102C5A00A20008000130A5002508A3070130A2360A
:102C6A00A10CA00C890B342EFE3022050319522E1A
:102C7A002F2E0130A5002508A3070130A007003038
:102C8A0003180130A107003003180130A2070130F0
:102C9A00A236A10CA00C890B4D2EFF302205031978
:102CAA005F2E3E2E0130A3020130A035A10DA20DE8
:102CBA00890B5A2EA11B652E023023020318572EA8
:102CCA0023186D2EFF30A0057F30A105FF30A20525
:102CDA000310A30C2308A500A601A7011030A535EF
:102CEA00A60DA70D890B742E2508A0042608A10499
:102CFA002708A204240803190800A21708002000C4
:102D0A00B0003003031DB92E0530B1000030B20007
:102D1A00B21B08003208A1003108A0000130A2004D
:102D2A000030A3008731A827963120003109AE0070
:102D3A003209AF00AE0A0319AF0A2E08063EA000F8
:102D4A0000302F3DA10092319922963105302000A2
:102D5A00AC000030AD00913148219631FF3020009F
:102D6A00B107FF30B23D8D2E0130B3000030B40000
:102D7A003408803AAE0080302E02031DC62E07307A
:102D8A0033020318080020003408A1003308A00009
:102D9A000130A2000030A3008731A8279631200015
:102DAA003309AE003409AF00AE0A0319AF0A2E0880
:102DBA00063EA00000302F3DA100923199229631A3
:102DCA0005302000AC000030AD0091314821963129
:102DDA0001302000B3070030B43DBD2E2000B00101
:102DEA00A91F042FA609A709A809A909A60A031950
:102DFA00A70A0319A80A0319A90AB001B00AAD1F44
:102E0A00152FAA09AB09AC09AD09AA0A0319AB0A1D
:102E1A000319AC0A0319AD0A0130AE002E08B00638
:102E2A000030B4000030B3000030B2000030B1000E
:102E3A00290828042704260403195E2FAF01AF0AC4
:102E4A00A91B332F0130A635A70DA80DA90D890B93
:102E5A00282F0130AE002E08AF07252F0130B135DB
:102E6A00B20DB30DB40D890B342F29082D02031DA1
:102E7A00482F28082C02031D482F27082B02031D60
:102E8A00482F26082A02031C532F2608AA022708BD
:102E9A00AB3B2808AC3B2908AD3B31140130A936BD
:102EAA00A80CA70CA60C890B542F0130AF02031DE6
:102EBA00332F300803196C2FB109B209B309B409C9
:102ECA00B10A0319B20A0319B30A0319B40A340876
:102EDA00A9003308A8003208A7003108A600080094
:102EEA0020005B08A8005C08A9005D08AA00580831
:102EFA00A0005908A1005A08A2009F318C279731D7
:102F0A0020002008AB002108AC002208AD00853162
:102F1A005525973120002808C5002908C6002A0827
:102F2A00C7006108A8006208A9006308AA005E0831
:102F3A00A0005F08A1006008A2009F318C2797318A
:102F4A0020002008AB002108AC002208AD00853122
:102F5A005525973120002808B5002908B6002A0807
:102F6A00B7005508A8005608A9005708AA0058082B
:102F7A00A0005908A1005A08A2009F318C27973156
:102F8A0020002008AB002108AC002208AD008531E2
:102F9A005525973120002808B8002908B9002A08C1
:102FAA00BA0086314B26973120003508C80036080A
:102FBA00C9003708CA008631FF2697312000450824
:102FCA00E4004608E5004708E6005E08A8005F0836
:102FDA00A9006008AA006408AB006508AC0066088E
:102FEA00AD008531552520002808D5002908D600CE
:062FFA002A08D7000800C0
:103EF8002100951295111510951415110800873099
:103F080020009C05FC309C05FF309B001C15080018
:103F18002000220821042004031908008030A2068A
:103F2800080021009E171E088F3960389E00FC305B
:103F38009E051D140800FE0012001E000130FE023E
:103F48000030FF3B7F087E0403190034A02F640073
:103F5800800101310130FE020030FF3B7F087E0402
:103F680003190034AC2F64340034013400340134B4
:103F78000034D0340734D0340734D0340734D03444
:103F880007340134003022000D1A0130B40000302B
:103F98000D190130B60000308D1A0130B50000301F
:103FA8008D190130B7000800D034073400340034CC
:103FB800D034073400340034D0340734D0340734D4
:103FC8000434003401340034063401342200340C43
:103FD800031C0D1203180D16360C031C0D110318C3
:103FE8000D15350C031C8D1203188D16370C031C88
:083FF8008D1103188D1508005E
:020000040001F9
:04000E00E2FFFFDF2F
:00000001FF
