:0400000083311E2BFF
:100008007E14803120007F08C2000B1D19295D086D
:10001800C4005C08C3000130BA000030BB000030E7
:10002800BC000030BD004D08BA074E08BB3D4F0864
:10003800BC3D5008BD3D3D08D0003C08CF003B0802
:10004800CE003A08CD000130BA000030BB000030C5
:10005800BC000030BD004508BA074608BB3D47084C
:10006800BC3D4808BD3D3D08C8003C08C7003B08EA
:10007800C6003A08C5000130BA000030BB000030A5
:10008800BC000030BD004908BA074A08BB3D4B0810
:10009800BC3D4C08BD3D3D08CC003C08CB003B08AE
:1000A800CA003A08C9000130BA000030BB0000306D
:1000B800BC000030BD00220020082000BA07220042
:1000C80021082000BB3D220022082000BC3D220060
:1000D80023082000BD3D3D082200A30020003C0865
:1000E8002200A20020003B082200A10020003A08BC
:1000F8002200A00001302300BC070030BD3D0030C5
:10010800BE3D0030BF3D20005403031DA22801302E
:100118002200A6070030A73D270820006302031D20
:10012800992822002608200062020318A2286308E2
:100138002200A700200062082200A6002000550324
:10014800031DBD2801302200B2070030B33D33083B
:1001580020006302031DB428220032082000620236
:100168000318BD2863082200B3002000620822009B
:10017800B2000B11230040034104031D192920007C
:100188004808803ABA005F08803A3A02031DD62828
:100198005E084702031DD6285D084602031DD628BF
:1001A8005C084502031C19295808BA005908BB0005
:1001B8005A08BC005B08BD004D09BE004E09BF00CF
:1001C8004F09C0005009C100BE0A0319BF0A03192C
:1001D800C00A0319C10A3E08BA073F08BB3D4008D8
:1001E800BC3D4108BD3DBD1B06293D08031D19291D
:1001F8003C08031D19293B08031D192904303A023C
:10020800031819294D09BA004E09BB00BA0A031987
:10021800BB0A58083A07BC0059083B3DBD004508D1
:100228003C07C30046083D3DC40020006708031D85
:100238007A295308031D7A295008803ABA005B08C6
:10024800803A3A02031D32295A084F02031D322907
:1002580059084E02031D322958084D02031C68290B
:1002680022000D1600302000D0000030CF000030F2
:10027800CE000030CD00230050035104031D68292F
:10028800220025082500920022002408250091005C
:100298002000D101D201230065082200A00023001C
:1002A80066082200A100890D893B8909A200A300E4
:1002B8002300D001D10120005F08C8005E08C700F4
:1002C8005D08C6005C08C5002000D01B7A295008CC
:1002D800031D78294F08031D78294E08031D782926
:1002E8001E304D02031C7A2922000D1220004308FB
:1002F800BA004408BB000030BB1BFF30BC00BD0087
:100308004808803ABE003D08803A3E02031D9629FF
:100318003C084702031D96293B084602031D9629FF
:100328003A084502031CB3295608031DA629650887
:10033800F1006408F0000130F2000030F30092315F
:100348000822803120005D08C4005C08C30000302A
:10035800C8000030C7000030C6000030C500C81B08
:10036800CF294808031DC2294708031DC22946088A
:10037800031DC22914304502031CCF295608031D4A
:10038800CF296508F1006408F0000030F200F3009E
:10039800923108228031230065082000BA0023002A
:1003A80066082000BB000030BB1BFF30BC00BD004E
:1003B80022002308803A2000BE003D08803A3E0211
:1003C8002200031DF72920003C0822002202031DF9
:1003D800F72920003B0822002102031DF7292000ED
:1003E8003A0822002002031CE42A0030A30000304F
:1003F800A2000030A1000030A000200060036104CA
:1004080003190B2A053060066104031D142A5208DB
:10041800803ABA0080303A02031D1D2A3D301C2A5A
:100428005208803ABA0080303A02031D1D2A1F3054
:100438005102031C752A2000D101D201752A5208E5
:10044800BB005108BA00BA35BB0D7630BC00253068
:10045800BD003A083C0786003B083D3D8700403F09
:100468002300CE00413F552A5135203E86000330F7
:100478008700403F2300CE00413F552A5135A03E1A
:10048800860003308700403F2300CE00413F552AB5
:100498005135203E860004308700403F2300CE00BF
:1004A800413FCF00722A5208BB005108BA00BA3542
:1004B800BB0D7630BC002530BD003A083C078600ED
:1004C8003B083D3D8700403F2300CE00413FCF0021
:1004D80020000E168F2A2300CE01CF0120000E1215
:1004E8008F2A20006108003A03197B2A8F2A6008A6
:1004F800013A0319232A033A0319382A013A03193E
:10050800422A073A03194C2A013A0319572A033A8F
:1005180003196F2A8F2A5208803ABA0080303A02AB
:10052800031D982A0530510203189D2A22000D1434
:100538009F2A22000D1023004E082000AE00230041
:100548004F082000AF00890D893B8909B000B10030
:10055800230042082000B200230043082000B30013
:10056800890D893B8909B400B5009031FE2080319E
:1005780020002F082300CF0020002E082300CE00E3
:100588000230F0000030F1004F08F3004E08F2008E
:1005980093313A23803171082C009B0070089A002F
:1005A80000302200A3000030A2000030A10000307B
:1005B800A00020005108013ED1000030523DD20079
:1005C80022003C03031D142B01302000BA003A0816
:1005D8002200BB075608803A803C031DF52A5508BF
:1005E8003B02031C122B22008D1456082000BB006E
:1005F800220055082000BA00BA35BB0D3B08803AE6
:10060800BC0080303C02031D0D2B22003B0820005B
:100618003A020318192B2200BB01192B2200182BB0
:100628003B080319192BBB018D1020004208FF005D
:100638007E1009008331202B45308400003085006E
:100648001330FE000030FF009D31AC25833120308F
:100658008400013085001F30FE000030FF009D310E
:10066800AC258331A0308400013085003430FE0091
:100678000030FF009D31AC258331203084000230EA
:1006880085002C30FE000030FF009D31AC25833101
:10069800A0308400043085004030FE000030FF00A8
:1006A8009D31AC2583317E3084008D3085006E30DD
:1006B8008600233087000230FF0082309D31A0255C
:1006C80083318731FE278331FD00D83084009D3087
:1006D800850058308600003087000030FF00123057
:1006E8009D31A0258331C73084009D308500553069
:1006F8008600013087000030FF0011309D31A025B1
:1007080083310030840090308500E330860001306A
:1007180087000030FF0006309D31A0258331EA3084
:10072800840092308500A0308600023087000030B7
:10073800FF0050309D31A0258331C03084009030B7
:10074800850020308600033087000030FF003E30EF
:100758009D31A02583318230840090308500A030FF
:100768008600033087000030FF003E309D31A02511
:100778008331443084009030850020308600043076
:1007880087000030FF003E309D31A02583310630C0
:1007980084009030850020308600053087000030C6
:1007A800FF003E309D31A0257E1020008331DC2BD8
:1007B80028302300E9000030EA009D317525833197
:1007C8009F31032783312000101490140F178F16C0
:1007D8000E148F178731D82783319D31B82583317F
:1007E8009431B32483319131C121833192319A22DA
:1007F800833191318021833120008F1B1F2C0130E0
:100808002300C8070030C93D4908803AD400803029
:100818005402031D112C1A304802031C222C1930D3
:100828002300C8000030C9009E31A926833120006A
:100838008F1B222C1B2C2300C801C9018931BA2126
:1008480083318B319B23833100309D31EA258331FD
:10085800210021082200A900210020082200A80068
:1008680001309D31EA258331210021082200AB00A7
:10087800210020082200AA0002309D31EA25833198
:10088800210021082200AD00210020082200AC0030
:1008980003309D31EA258331210021082200AF0071
:1008A800210020082200AE0004309D31EA25833162
:1008B800210021082200B100210020082200B000F8
:1008C8008D1057092300D400220058092300D500B1
:1008D800D40A0319D50A2200280823005407D60091
:1008E800220029082300553DD7005708803AD80030
:1008F80080305802031D822C043056020318A42CA1
:10090800220057092300D400220058092300D500EB
:10091800D40A0319D50A2200280823005407D60050
:10092800220029082300553DD7005708803AD800EF
:100938007F305802031DA22CFD3056020318F82CF4
:1009480022002908D8002808D70000302100E1003B
:100958004830E2004330E3008030DE009230DF00B0
:100968004430E000C030DB007F30DC004430DD0084
:100978000030D8000030D9000030DA0022005808D2
:100988002100A900220057082100A8009E318726CF
:10099800833121002808D5002908D6002A08D70065
:1009A80096312D26833121005508E7005608E800C6
:1009B8005708E9009631B826833121006A082000DB
:1009C800DB00210069082000DA0021006808200007
:1009D800D900210067082000D80001302300E30077
:1009E8000030E40022008D14220059092300D400AD
:1009F80022005A092300D500D40A0319D50A220077
:100A08002A0823005407D60022002B082300553D4E
:100A1800D7005708803AD80080305802031D162D99
:100A2800043056020318382D220059092300D40037
:100A380022005A092300D500D40A0319D50A220036
:100A48002A0823005407D60022002B082300553D0E
:100A5800D7005708803AD8007F305802031D362D3A
:100A6800FD3056020318982D22002B08DA002A08B8
:100A7800D90000302100E1001C30E2004230E300E0
:100A88000030DE000030DF000030E000C030DB0066
:100A98007F30DC004430DD000030D8000030D90061
:100AA8000030DA0022005A082100A9002200590863
:100AB8002100A8009E318726833121002808D5000F
:100AC8002908D6002A08D70096312D26833121001F
:100AD8005508E7005608E8005708E9009631B82697
:100AE8008331210068082200D20021006708220013
:100AF800D1005108013EFF3A013E2300690709076A
:100B0800A03E860002308700403F25009800413F04
:100B1800990022005135A03E860002308700403FF0
:100B280026009100413F920022005B092300D40077
:100B380022005C092300D500D40A0319D50A220033
:100B48002C0823005407D60022002D082300553D09
:100B5800D7005708803AD80080305802031DB62DB8
:100B6800043056020318D82D22005B092300D40054
:100B780022005C092300D500D40A0319D50A2200F3
:100B88002C0823005407D60022002D082300553DC9
:100B9800D7005708803AD8007F305802031DD62D59
:100BA800FD3056020318382E22002D08DC002C08D0
:100BB800DB0000302100E1000030E2000030E300FB
:100BC8000030DE008030DF004130E000C030DB0064
:100BD8007F30DC004430DD000030D8000030D90020
:100BE8000030DA0022005C082100A90022005B081E
:100BF8002100A8009E318726833121002808D500CE
:100C08002908D6002A08D70096312D2683312100DD
:100C18005508E7005608E8005708E9009631B82655
:100C28008331210068082200D400210067082200CF
:100C3800D3005308013EFF3A013E23006907090724
:100C4800A03E860002308700403F26009800413FC2
:100C5800990022005335A03E860002308700403FAD
:100C680026009C00413F9D0022005D092300D4001E
:100C780022005E092300D500D40A0319D50A2200F0
:100C88002E0823005407D60022002F082300553DC4
:100C9800D7005708803AD80080305802031D562ED6
:100CA800043056020318782E22005D092300D40070
:100CB80022005E092300D500D40A0319D50A2200B0
:100CC8002E0823005407D60022002F082300553D84
:100CD800D7005708803AD8007F305802031D762E77
:100CE800FD3056020318BD2E22002F08DE002E0804
:100CF800DD0000302100E1003C30E2004230E3003A
:100D08000030DE004030DF004030E000C030DB0063
:100D18007F30DC004430DD000030D8000030D900DE
:100D28000030DA0022005E082100A90022005D08D8
:100D38002100A8009E318726833121002808D5008C
:100D48002908D6002A08D70096312D26833121009C
:100D58005508E7005608E8005708E9009631B82614
:100D68008331210068082300E6002100670823007A
:100D7800E50022005F092300D40022006009230057
:100D8800D500D40A0319D50A2200300823005407D5
:100D9800D600220031082300553DD7005708803A75
:100DA800D80080305802031DDB2E04305602031889
:100DB800FD2E22005F092300D400220060092300D1
:100DC800D500D40A0319D50A220030082300540795
:100DD800D600220031082300553DD7005708803A35
:100DE800D8007F305802031DFB2EFD305602031831
:100DF800422F22003108E0003008DF0000302100D7
:100E0800E1000030E2000030E3006030DE009F3097
:100E1800DF004430E000C030DB007F30DC004430CD
:100E2800DD000030D8000030D9000030DA002200A0
:100E380060082100A90022005F082100A8009E3157
:100E48008726833121002808D5002908D6002A08DA
:100E5800D70096312D26833121005508E700560822
:100E6800E8005708E9009631B82683312100680860
:100E78002300C300210067082300C2002300630386
:100E88006404031DF72B20005B08DF005A08DE000E
:100E98005908DD005808DC0059082200C600200067
:100EA80058082200C500200065082200C80020005C
:100EB80064082200C7008831F420833122004508E5
:100EC8002000DC00220046082000DD00890D893B57
:100ED8008909DE00DF0001302300D0000030D10096
:100EE800CC01CD012200A401A50123004C084D042A
:100EF800031DD52F220025082300D5002200240831
:100F08002300D400D435D50D6E30D6002330D70059
:100F18005408560786005508573D8700403FD800BB
:100F2800413FD9005808DA005908DB000030DB1BC4
:100F3800FF30DC00DD0020005C082300DE0020001C
:100F48005D082300DF0020005E082300E000200089
:100F58005F082300E1000130DE35DF0DE00DE10D13
:100F6800890BB02F6108803AE2005D08803A62027E
:100F7800031DC82F5C086002031DC82F5B085F02B1
:100F8800031DC82F5A085E02031CCF2F0130CC0066
:100F98000030CD00792F01302200A4070030A53D94
:100FA800792FE301E401F72B2100A101A201220816
:100FB800803AA00080302002031DE42F0C3021026B
:100FC8000318080021002108A0000130A035FF3EC9
:100FD800031DEA2F2035203E8600023087000030AE
:100FE800C03F0030C13FC23FC33F0130A1070030BE
:100FF800A23DDB2F143408001E302100B200320855
:10100800B4006430A0000030A1000130A20000301C
:10101800A30093318B23883164302100A000003075
:10102800A1009F31C527883121003408B200B301DF
:101038003208AC003308AD009F3193278831003067
:101048002100A000A1000130A2000030A3009331CC
:101058008B23883100302100A000A1009F31C527D3
:10106800883121003408B200B3013208AC003308DB
:10107800AD009F319327080021003508BB003608D2
:10108800BC003708BD0003103C0D3D0DBE003E08F6
:10109800BF003F08031D57280030B5000030B600D8
:1010A8000030B70008003808BB003908BC003A080F
:1010B800BD0003103C0D3D0DBE003E08C4004408B1
:1010C800031D6D280030B5000030B6000030B700B1
:1010D800080044087B3EBB003B08BF073508BB003F
:1010E8003608BC003708BD001030BD36BC0CBB0C40
:1010F800890B79283B08BE003E08C4003808BB00AD
:101108003908BC003A08BD001030BD36BC0CBB0C19
:10111800890B89283B08BE003E08C4068030BB0006
:101128003B08C405B617B917FF30B805FF30B90535
:101138000030BA050030C0000030C1000030C200E5
:101148000730BB003B08C300351CB0283808C0076F
:101158003908C13D3A08C23D0130B736B60CB50C66
:10116800890BB1280130B835B90DBA0D890BB728EC
:101178000130C302031DA8280930BB003B08C30087
:10118800351CCC283808C0073908C13D3A08C23D8B
:101198000130B736B60CB50C890BCD280130C236F4
:1011A800C10CC00C890BD3280130C302031DC4280D
:1011B8004008A0004108A1004208A2003F08BB0067
:1011C8003B08A3004408BC003C08A4009331DF237B
:1011D80021002008B5002108B6002208B700080041
:1011E8002300C001C10122004608CD004508CC00FB
:1011F8000030CE008030CF003F30D0001C290030B6
:10120800CE0040300E29A630CE002A300E290030FC
:10121800CE000030CF003F301A29A630CE00AA30C9
:1012280018290030CE008030CF003E30D00035295C
:101238004808003A0319212935294708013A0319B2
:101248000329033A03190729013A03190B29073A15
:1012580003191129013A03191529033A03193529E4
:1012680035294D082100A90022004C082100A800BA
:101278009E318726883121002808B8002908B9003E
:101288002A08BA0022004E082100B50022004F08A3
:101298002100B600220050082100B7008831402004
:1012A800883121003508E7003608E8003708E900EA
:1012B8009631B8268831210068082200CD00210027
:1012C80067082200CC004E082100C50022004F0804
:1012D8002100C600220050082100C70022004D0846
:1012E8002100A90022004C082100A8009E31872671
:1012F800883121002808C8002908C9002A08CA001E
:10130800973157278831210045082200C90021005C
:1013180046082200CA00210047082200CB004608E0
:101328002100A900220045082100A8009E31872637
:10133800883121002A0822004B06031DAD2921000F
:10134800290822004A06031DAD2921002808220089
:1013580049060319B42901302300C0000030C10038
:1013680022004D08C6004C08C5000800200090184F
:10137800D02922003508803A2100B6008030360294
:10138800031DC929013022003402031CE329FF3060
:101398002200B407FF30E22922003508803A2100F4
:1013A800B60080303602031DDC29193022003402D1
:1013B8000318E32901302200B4070030B53D2200AC
:1013C80034083504031D442A20005408031DF1295C
:1013D800D401D40A2200A601A70120006308220034
:1013E8002702031DFB292000620822002602031C95
:1013F8001B2A20006608031D1B2A5308031D1B2AED
:1014080022000D11200055030319132A0130210071
:10141800A0000030A1009E31162689311B2A013018
:101428002100B2000030B3009F31632789312000CA
:101438005308031D402A6608031D402A6903031D3B
:10144800332A230067036804031D402A2200E401AD
:10145800E40A01302300D2000030D300402A2200E1
:1014680037030319402AE401B701B70A2300D20160
:10147800D3012000E601D4012300E701E8010800B8
:1014880022003508803A2100B60080303602031D5C
:10149800502A193022003402031C0800200053038C
:1014A800031D5F2A220064082100B600B701360830
:1014B800B20037087C2A220037030319672A200064
:1014C8006603031D6D2A01302100B2000030B3000D
:1014D8007D2A230052035304031D802A2000660836
:1014E800031D802A5308031D802A00302100B20002
:1014F800B3009231502289312000690C2200031C6C
:101508000D1103180D1500302100A000A1009E3117
:101518001626893100302100B200B3009F316327BD
:101528002000D4012200B7012300D201D3010130E9
:10153800E7000030E80019302200B4000030B500A0
:10154800080021002808AE002908AF002A08B000CA
:1015580003102F0D300DB1003108B4002B08AE0078
:101568002C08AF002D08B00003102F0D300DB1006E
:101578003108B30034080319CD2A3308340203189C
:10158800D42A3403FF3A3307AE0019302E02031C65
:10159800D42A2B08A8002C08A9002D08AA000800A6
:1015A800330803190800340833020318E32A330305
:1015B800FF3A3407AE0019302E020318080006302F
:1015C800AE002E08B200AA1BB217AD1B3217A9171E
:1015D800FF30A805FF30A9050030AA05AC17FF3079
:1015E800AB05FF30AC050030AD05330834020318F5
:1015F8001F2B0130AB35AC0DAD0D890BFE2A013028
:10160800B3023308340603191A2B0130B202320828
:10161800073903191A2BFD2A0130AA36A90CA80C80
:10162800890B112B0130AE002E08B407340833069D
:101638000319442B102B340833020318442B0130B0
:10164800A835A90DAA0D890B242B0130B402330843
:1016580034060319402B0130B20232080739031946
:10166800402B232B0130AD36AC0CAB0C890B372B40
:101678000130AE002E08B30734083306031D362B9D
:10168800B21F562BFF30A806FF30A906FF30AA0666
:101698000130A807003003180130A90700300318EB
:1016A8000130AA07321F682BFF30AB06FF30AC06AB
:1016B800FF30AD060130AB07003003180130AC072E
:1016C800003003180130AD07B2012808AB0729081C
:1016D800AC3D2A08AD3DAD1F832BFF30AB06FF3074
:1016E800AC06FF30AD060130AB07003003180130FF
:1016F800AC07003003180130AD07B201B20A2B085D
:10170800A0002C08A1002D08A2003408AE002E0865
:10171800A3003208AF002F08A4009331DF23210073
:101728002008A8002108A9002208AA000800210012
:10173800BE0120001018A62B57080319B02B013042
:10174800D702B02B193057020318B02B01302100F3
:10175800B60036082000D7075708031D642DCC1B98
:10176800362C4C08031DC12B4B08031DC12B1B3005
:10177800490206304A3B031C362C22003D0303195C
:10178800002CBD01BD0A00302000CC000030CB0089
:101798000030CA000030C90001302200E1000030EA
:1017A800E20000302300BB000030BA000030B9006E
:1017B8000030B800E301E4012100BE01BE0A3E0882
:1017C80020006802031C002C21003E08B6000130EE
:1017D800B635FF3E031DEC2B3635A03E86000130A2
:1017E80087000030C03F0030C13FC23FC33F0130D7
:1017F800B6003608BE07E32B20005508031D0A2C47
:10180800D501D50AE7012200B201B301200063081F
:1018180022003302031D142C200062082200320229
:10182800031C080020006708031D08006308220045
:10183800B300200062082200B2000D1220005403F9
:1018480003192E2C01302100A0000030A1009E3188
:101858003026080001302100B2000030B3009F316B
:10186800632708002000CC1B452C4C08031D0800EA
:101878004B08031D08001B30490206304A3B031879
:1018880008006708031D080022003D03031908002B
:10189800BD01BD0A2000CC1B652C4C08031D5D2C26
:1018A8004B08031D5D2C9430490204304A3B031C4D
:1018B800652C0030CC000030CB000430CA009430D6
:1018C800C90068082100B600B7013608BC0037080F
:1018D800BD0022006208803A803C031D762C610816
:1018E80020006802031CA82C200049082300B80720
:1018F80020004A082300B93D20004B082300BA3DC8
:1019080020004C082300BB3D220061082100B600DE
:101918000130B635FF3E031D8D2C3635A03E8600BE
:101928000130870020004908C03F4A08C13F4B08E2
:10193800C23F4C08C33F220062082100BD002200BC
:1019480061082100BC00242D00302300BB000030BA
:10195800BA000030B9000030B8002100BE01BE0A4C
:101968002000680821003E020318FE2C3E08B6003D
:101978000130B635FF3E031DBD2C3635043EA03E72
:10198800860001308700403FB700413FB800423F22
:10199800B900433FBA003E08BB000130BB35FF3EEB
:1019A800031DD22C3B35A03E860001308700370846
:1019B800C03F3808C13F3908C23F3A08C33F3E0814
:1019C800B6000130B635FF3E031DE62C3635A03E85
:1019D800860001308700403F2300B807413FB93DEA
:1019E800423FBA3D433FBB3D01302100B6003608B7
:1019F800BE07B42C200068082100B6000130B635B7
:101A0800FF3E031D032D3635A03E860001308700BA
:101A180020004908C03F4A08C13F4B08C23F4C0854
:101A2800C33F49082300B80720004A082300B93DEE
:101A380020004B082300BA3D20004C082300BB3D82
:101A480021003C08A0003D08A100890D893B8909B7
:101A5800A200A30023003B082100A70023003A08A6
:101A68002100A600230039082100A500230038081A
:101A78002100A4009531AB25210023082000DB00BC
:101A8800210022082000DA00210021082000D900C6
:101A9800210020082000D80001302300E300003096
:101AA800E40000302000CC000030CB000030CA0039
:101AB8000030C90001302200E1070030E23D080093
:101AC800193020005702031C08002200BD01E5015F
:101AD80000302100A000A1009E3130262200B20172
:101AE800B3012000D50119302100B60036082000C6
:101AF800D700080022340834FC340734D8340734BB
:101B0800B534073493340734723407345234073405
:101B18003434073416340734F9340634DD340634E3
:101B2800C2340634A83406348F3406347634063486
:101B38005E34063447340634303406341A340634F6
:101B480005340634F0340534DC340534C83405343F
:101B5800B5340534A3340534903405347F34053462
:101B68006D3405345C3405344C3405343C34053468
:101B78002C3405341D3405340E340534FF34043454
:101B8800F1340434E2340434D5340434C73404342E
:101B9800BA340434AD340434A134043494340434F1
:101BA800883404347D3404347134043466340434A1
:101BB8005A34043450340434453404343A34043444
:101BC80030340434263404341C34043412340434D9
:101BD80009340434FF340334F6340334ED34033465
:101BE800E4340334DC340334D3340334CB340334E3
:101BF800C2340334BA340334B2340334AA34033459
:101C0800A23403349B340334933403348C340334C4
:101C1800853403347E340334773403347034033426
:101C280069340334623403345C3403345534033484
:101C38004F34033448340334423403343C340334DB
:101C480036340334303403342A340334243403342C
:101C58001F34033419340334133403340E34033477
:101C68000934033403340334FE340234F9340234BF
:101C7800F4340234EF340234EA340234E534023402
:101C8800E0340234DB340234D7340234D234023440
:101C9800CD340234C9340234C4340234C03402347A
:101CA800BC340234B7340234B3340234AF340234AF
:101CB800AB340234A6340234A23402349E340234E3
:101CC8009A34023497340234933402348F34023411
:101CD8008B3402348734023484340234803402343E
:101CE8007C34023479340234753402347234023468
:101CF8006E3402346B340234673402346434023490
:101D0800613402345E3402345A34023457340234B3
:101D180054340234513402344E3402344B340234D5
:101D28004834023445340234423402343F340234F5
:101D38003C34023439340234363402343334023415
:101D4800303402342E3402342B3402342834023432
:101D58002534023423340234203402341E3402344D
:101D68001B34023418340234163402341334023467
:101D7800113402340E3402340C3402340A3402347E
:101D88000734023405340234023402340034023495
:101D9800FE340134FB340134F9340134F7340134AE
:101DA800F5340134F2340134F0340134EE340134C2
:101DB800EC340134EA340134E8340134E6340134D3
:101DC800E3340134E1340134DF340134DD340134E7
:101DD800DB340134D9340134D7340134D5340134F7
:101DE800D3340134D2340134D0340134CE34013404
:101DF800CC340134CA340134C8340134C634013413
:101E0800C4340134C3340134C1340134BF3401341F
:101E1800BD340134BC340134BA340134B83401342B
:101E2800B6340134B5340134B3340134B134013437
:101E3800B0340134AE340134AC340134AB34013441
:101E4800A9340134A8340134A6340134A43401344B
:101E5800A3340134A1340134A03401349E34013454
:101E68009D3401349B3401349A340134983401345C
:101E78009734013495340134943401349234013464
:101E880091340134903401348E3401348D3401346A
:101E98008B3401348A340134893401348734013471
:101EA8008634013485340134833401348234013476
:101EB800813401347F3401347E3401347D3401347B
:101EC8007B3401347A340134793401347834013480
:101ED8007634013475340134743401347334013484
:101EE80071340134703401346F3401346E34013488
:101EF800003400340034003400340034003400343A
:101F080000340034003400340A340034143400340B
:101F18001E34003428340034323400343A34003467
:101F2800423400344A3400345034003456340034D7
:101F38005B3400345F34003461340034633400347B
:101F48006434003463340034613400345F34003462
:101F58005B34003456340034503400344A3400348E
:101F6800423400343A3400343234003428340034F3
:101F78001E340034143400340A340034003400347D
:101F8800F634FF34EC34FF34E234FF34D834FF3411
:101F9800CE34FF34C634FF34BE34FF34B634FF3495
:101FA800B034FF34AA34FF34A534FF34A134FF34ED
:101FB8009F34FF349D34FF349C34FF349D34FF3408
:101FC8009F34FF34A134FF34A534FF34AA34FF34DE
:101FD800B034FF34B634FF34BE34FF34C634FF3473
:101FE800CE34FF34D834FF34E234FF34EC34FF34D9
:101FF800F634FF340034003401340034D03407346C
:1020080001340034003400341534003429340034E9
:102018003B3400344A340034573400345F340034DD
:1020280063340034633400345F340034573400348C
:102038004A3400343B340034293400341534003435
:1020480000340034EB34FF34D734FF34C534FF3464
:10205800B634FF34A934FF34A134FF349D34FF343F
:102068009D34FF34A134FF34A934FF34B634FF342F
:10207800C534FF34D734FF34EB34FF340034003434
:102088006434003464340034643400346434003418
:102098006434003464340034643400346434003408
:1020A80064340034643400346434003464340034F8
:1020B8006434003464340034643400349C34FF34B1
:1020C8009C34FF349C34FF349C34FF349C34FF34FC
:1020D8009C34FF349C34FF349C34FF349C34FF34EC
:1020E8009C34FF349C34FF349C34FF349C34FF34DC
:1020F8009C34FF349C34FF3464340034003400349E
:10210800073400340D340034143400341B340034E4
:1021180021340034283400342F340034353400346A
:102128003C340034433400344934003450340034EF
:10213800573400345D3400349C34FF34A334FF3406
:10214800A934FF34B034FF34B734FF34BD34FF341E
:10215800C434FF34CB34FF34D134FF34D834FF34A3
:10216800DF34FF34E534FF34EC34FF34F334FF3428
:10217800F934FF3400340034003400340D340034B2
:102188001B340034283400343534003443340034EC
:10219800503400345D3400345D340034503400343D
:1021A8004334003435340034283400341B340034CC
:1021B8000D34003400340034F334FF34E534FF3494
:1021C800D834FF34CB34FF34BD34FF34B034FF345B
:1021D800A334FF34A334FF34B034FF34BD34FF34A8
:1021E800CB34FF34D834FF34E534FF34F334FF34D0
:1021F8000034003400302000A3000030A200033077
:10220800A100E830A0000C30B600F230B700013071
:10221800B8000030B9003508F3003408F20033087C
:10222800F1003208F0003108F7003008F6002F08F6
:10223800F5002E08F4009E31D42690317008200055
:10224800B6077108B73D7208B83D7308B93D39083B
:10225800A7003808A6003708A5003608A40095315D
:10226800292520002308B1002208B0002108AF006A
:102278002008AE00080022001D1021000E118E104B
:1022880026000D108D110D1221001013901210123E
:10229800901110110F30250093040F309A040F305D
:1022A800260093040F309A040F309E040F302C0040
:1022B80093040F3096040F3099040F309C040F30AC
:1022C8009F0425009D019E019F010030920032303D
:1022D8009100003099006430980000302600920088
:1022E8009630910000309900C83098009D318425BF
:1022F80091319D317D25080020000E18BD2901303F
:102308002300CA070030CB3D4B08803A2100A000CB
:1023180080302002031D93291A3023004A02031C2F
:10232800080019302300CA000030CB00013021001A
:10233800A00020082200BA0703303A02031CAE2985
:10234800BA01AE298D10AC298D100D14B9298D1440
:102358000D10B9293A08003A0319A629013A0319B8
:10236800A829033A0319AB29B92920000E18080037
:10237800B9292300CA01CB01080020000F1BCB2973
:10238800220036080319D6290130B602D629193099
:10239800220036020318D62901302100B200320883
:1023A8002200B6073608031D080020006008013E19
:1023B800E0000030613DE1006108803A2100B20090
:1023C80080303202031DEB29073020006002031C15
:1023D800F22901302000E0000030E100200061080F
:1023E8002100A100200060082100A0009F31C5271E
:1023F800913120000F1FFD2914302100AC0000305E
:10240800AD009F319327080027000C108C100C1189
:102418008C110C12332A720C031C0C1003180C14A8
:102428000800720C031C8C1003188C140800720C22
:10243800031C0C1103180C150800720C031C8C11DA
:1024480003188C150800720C031C0C1203180C16C8
:1024580008000C148C140C158C150C160800710847
:10246800003A0319382A4F2A7008013A03190F2A2B
:10247800033A0319152A013A03191B2A073A0319C3
:10248800212A013A0319272A033A03194F2A623AE3
:1024980003192D2A4F2A0800200069082100B400DA
:1024A800B50133083506031D5B2A320834060319C3
:1024B80008003208B40034082000E9002100320C7A
:1024C8002200031C0D1103180D158D112100320C6B
:1024D8002700031C0D1103180D15210032083304C1
:1024E800031D792A27008D147B2A27008D101430AC
:1024F8002100AC000030AD009F31932792312700B6
:102508000D118D10200069082100B400B5013408B0
:10251800A0003508A1008731FF279231143021002F
:10252800AC000030AD009F319327080020008F1ABF
:10253800A42A22003E080319AF2A0130BE02AF2A9E
:10254800193022003E020318AF2A01302100B200E0
:1025580032082200BE073E08031D08002000640858
:10256800013EE4000030653DE5006508803A210041
:10257800B20080303202031DC42A073020006402F2
:10258800031CCB2A01302000E4000030E5002000C5
:1025980065082100A100200064082100A000013086
:1025A800A2000030A30093318B2392310130230025
:1025B800E3000030E40020008F1EDF2A14302100E1
:1025C800AC000030AD009F3193270800FF34003481
:1025D800FF340034FF340034DF340034AE340034C8
:1025E8008E34003478340034673400345B3400347B
:1025F8005034003448340034423400343C3400341D
:102608003734003433340034303400342D3400345B
:102618002A34003427340034253400342334003479
:1026280021340034203400341E3400341D34003486
:102638001C3400341B3400341A3400341934003488
:102648001834003417340034163400341534003488
:102658001534003414340034133400340F34003487
:102668000B3400340734003407340034F601F11F0A
:10267800442BF009F109F00A0319F10AF601F60AE8
:10268800F31F4F2BF209F309F20A0319F30A013079
:10269800F4007408F606F701F801700871040319CC
:1026A8007E2BF501F50AF11B632B0130F035F10D96
:1026B800890B5A2B0130F4007408F507572B0130A9
:1026C800F735F80D890B642B71087302031D6E2B07
:1026D80070087202031C752B7008F2027108F33B34
:1026E80077140130F136F00C890B762B0130F502A6
:1026F800031D632B76080319862BF709F809F70AD7
:102708000319F80A7808F1007708F0000800270094
:102718000C108C100C118C110C12C12B2100220CE6
:102728002700031C0C1003180C1408002100220CAD
:102738002700031C8C1003188C1408002100220C9D
:102748002700031C0C1103180C1508002100220C8B
:102758002700031C8C1103188C1508002100220C7B
:102768002700031C0C1203180C16080027000C1471
:102778008C140C158C150C16080021002108003A41
:102788000319C72BDE2B2008013A0319922B033AB1
:1027980003199A2B013A0319A22B073A0319AA2BFA
:1027A800013A0319B22B033A0319DE2B623A0319D3
:1027B800BA2BDE2B0800210023080319E82B220876
:1027C80021042004031DF92B0030A0000030A100D3
:1027D8000030A20008000130A5002508A307013039
:1027E800A236A10CA00C890BF42BFE30220503198C
:1027F800122CEF2B0130A5002508A3070130A007F4
:10280800003003180130A107003003180130A20777
:102818000130A236A10CA00C890B0D2CFF3022052B
:1028280003191F2CFE2B0130A3020130A035A10D86
:10283800A20D890B1A2CA11B252C02302302031888
:10284800172C23182D2CFF30A0057F30A105FF3051
:10285800A2050310A30C2308A500A601A7011030A8
:10286800A535A60DA70D890B342C2508A00426082C
:10287800A1042708A204240803190800A2170800C5
:102888002100B4003403031D792C0530B500003055
:10289800B600B61B08003608A1003508A0000130B4
:1028A800A2000030A30093318B2394312100350915
:1028B800B2003609B300B20A0319B30A3208063E59
:1028C800A0000030333DA1009F31C5279431053069
:1028D8002100AC000030AD009F3193279431FF30C8
:1028E8002100B507FF30B63D4D2C0130B700003050
:1028F800B8003808803AB20080303202031D862CB6
:10290800073037020318080021003808A1003708EB
:10291800A0000130A2000030A30093318B23943132
:1029280021003709B2003809B300B20A0319B30A03
:102938003208063EA0000030333DA1009F31C52774
:10294800943105302100AC000030AD009F31932751
:10295800943101302100B7070030B83D7D2C81301B
:102968002100A0001F30A1009E316726943121006C
:1029780021082000E500210020082000E400823022
:102988002100A0001F30A1009E316726943121004C
:1029980021082000E100210020082000E00065084F
:1029A800803A2100A40080302402031DDE2C073069
:1029B80020006402031CE52C06302000E4000030EF
:1029C800E50020006108803A2100A400803024023C
:1029D800031DF12C073020006002031CF82C063080
:1029E8002000E0000030E10020006908031DFF2CF2
:1029F80027008D14012D27008D102000690C270059
:102A0800031C0D1103180D1522000D118D110D1247
:102A18008D128D100D10200065082100A1002000E6
:102A280064082100A0000130A2000030A300933107
:102A38008B239431200061082100A1002000600848
:102A48002100A0009F31C52708002000A901A31F6D
:102A58003A2DA009A109A209A309A00A0319A10AEC
:102A68000319A20A0319A30AA901A90AA71F4B2D32
:102A7800A409A509A609A709A40A0319A50A0319FF
:102A8800A60A0319A70A0130FC007C08A906003031
:102A9800AD000030AC000030AB000030AA002308C5
:102AA8002204210420040319942DA801A80AA31BB9
:102AB800692D0130A035A10DA20DA30D890B5E2D46
:102AC8000130FC007C08A8075B2D0130AA35AB0D4E
:102AD800AC0DAD0D890B6A2D23082702031D7E2D31
:102AE80022082602031D7E2D21082502031D7E2DA6
:102AF80020082402031C892D2008A4022108A53BD4
:102B08002208A63B2308A73B2A140130A336A20CAF
:102B1800A10CA00C890B8A2D0130A802031D692D78
:102B280029080319A22DAA09AB09AC09AD09AA0AFB
:102B38000319AB0A0319AC0A0319AD0A2D08A3003F
:102B48002C08A2002B08A1002A08A00008002100D8
:102B5800AA01A31FBC2DA009A109A209A309A00AC3
:102B68000319A10A0319A20A0319A30AAA01AA0AA6
:102B7800A71FCD2DA409A509A609A709A40A031909
:102B8800A50A0319A60A0319A70A0130A8002808EC
:102B9800AA060030AE000030AD000030AC000030B6
:102BA800AB0023082204210420040319162EA901CE
:102BB800A90AA31BEB2D0130A035A10DA20DA30D71
:102BC800890BE02D0130A8002808A907DD2D013068
:102BD800AB35AC0DAD0DAE0D890BEC2D23082702DE
:102BE800031D002E22082602031D002E210825029F
:102BF800031D002E20082402031C0B2E2008A4020B
:102C08002108A53B2208A63B2308A73B2B1401302B
:102C1800A336A20CA10CA00C890B0C2E0130A90222
:102C2800031DEB2D2A080319242EAB09AC09AD09A5
:102C3800AE09AB0A0319AC0A0319AD0A0319AE0AA7
:102C48002E08A3002D08A2002C08A1002B08A00024
:102C5800080021005B08A8005C08A9005D08AA001C
:102C68005808A0005908A1005A08A2009D318D25D6
:102C7800963121002008AB002108AC002208AD00E5
:102C88008A31A522963121002808C5002908C600E6
:102C98002A08C7006108A8006208A9006308AA00FA
:102CA8005E08A0005F08A1006008A2009D318D2584
:102CB800963121002008AB002108AC002208AD00A5
:102CC8008A31A522963121002808B5002908B600C6
:102CD8002A08B7005508A8005608A9005708AA00EE
:102CE8005808A0005908A1005A08A2009D318D2556
:102CF800963121002008AB002108AC002208AD0065
:102D08008A31A522963121002808B8002908B9007F
:102D18002A08BA0088314020963121003508C800B9
:102D28003608C9003708CA0097315727963121005D
:102D38004508E4004608E5004708E6005E08A800E4
:102D48005F08A9006008AA006408AB006508AC0029
:102D58006608AD008A31A52221002808D500290877
:102D6800D6002A08D700080021006708EB00680889
:102D7800EC006908ED0003106C0D6D0DEE006E0897
:102D88002200C4004408031DD32E00302100EA00AD
:102D98000030E9000030E8000030E70008002100BA
:102DA8006708EB006808EC006908ED001730ED369D
:102DB800EC0CEB0C890BDB2E6B08EE006E08220086
:102DC800BF002100E817FF30E705FF30E8050030B5
:102DD800E90567082200C000210068082200C10038
:102DE800210069082200C200C3018E30C402C41F3A
:102DF8001D2F4408803A8F3E03180C2F0030210005
:102E0800EA000030E9000030E8000030E700080080
:102E180001302200C336C20CC10CC00C890B0D2F27
:102E280001302100EB006B082200C4070319392F79
:102E38000C2F18304402031C352F00302100EA0003
:102E48000030E9000030E8000030E70008000130F9
:102E58002200C035C10DC20DC30D890B2C2F0130C6
:102E6800C40222004408031D2B2F3F080319472FD3
:102E7800C009C109C209C309C00A0319C10A031953
:102E8800C20A0319C30A43082100EA0022004208C3
:102E98002100E900220041082100E8002200400842
:102EA8002100E700080021004808CB004908CC00B1
:102EB8004A08CD0003104C0D4D0DCE004E08D3002E
:102EC8005308031D6E2F0030C5000030C6000030C7
:102ED800C70008004508CB004608CC004708CD00CD
:102EE80003104C0D4D0DCE004E08D4005408031DA0
:102EF800842F0030C5000030C6000030C70008002D
:102F08000030D0000030D1000030D20089305407A2
:102F1800CB004B08D3024808CB004908CC004A082C
:102F2800CD001030CD36CC0CCB0C890B962F4B082E
:102F3800CE004E08D4004508CB004608CC00470810
:102F4800CD001030CD36CC0CCB0C890BA62F4B08FE
:102F5800CE004E08D4068030CB004B08D405C917E4
:102F6800FF30C805FF30C9050030CA05C617FF3055
:102F7800C505FF30C6050030C7051830CB004B0823
:102F8800CF000130D035D10DD20D890BC62F47089F
:102F98004A02031DD52F46084902031DD52F4508AF
:102FA8004802031CDE2F4508C8024608C93B4708EB
:102FB800CA3B50140130C835C90DCA0D890BDF2F23
:102FC8000130CF02031DC52F5008A0005108A100F1
:102FD8005208A2005308CB004B08A3005408CC00A9
:102FE8004C08A4009331DF2321002008C5002108E4
:082FF800C6002208C700080012
:103AEA00FC302100990508002100A001A10108006D
:103AFA00210095129511151095141511080087309B
:103B0A0020009C05FC309C05FF309B001C1508001A
:103B1A002100220821042004031908008030A2068B
:103B2A00080021009E171E088F3960389E00FC305D
:103B3A009E051D140800FE0012001E000130FE0240
:103B4A000030FF3B7F087E0403190034A12D640076
:103B5A00800101310130FE020030FF3B7F087E0404
:103B6A0003190034AD2D9D3179259D31210021089D
:103B7A00B7002008B6003708B3003608B200923101
:103B8A005022080064340034D0340734D034073467
:103B9A00D0340734D0340734D034073401340034F5
:103BAA000134FF34FF34D034073400340034D034C5
:103BBA0007340034003406340034E834033406345D
:103BCA000034FF34FF340434FF342100A3002308F7
:103BDA00A200A20DA20D1D082206833922069D000D
:103BEA009D149D18F62D1C08A1001B08A0000800B2
:103BFA00003022000D1A01302300B40000302200E8
:103C0A000D1901302300B600003022008D1A013050
:103C1A002300B500003022008D1901302300B700BF
:103C2A000800200066082100A200A301210823063B
:103C3A00031D212E20082206031908002008A200CD
:103C4A0022082000E6002100200C2200031C8D110E
:103C5A0003188D150800200067082100A200A3019F
:103C6A0021082306031D3B2E2008220603190800FB
:103C7A002008A20022082000E7002100200C2200D0
:103C8A00031C8D1203188D1608002300340C220021
:103C9A00031C0D1203180D162300360C2200031CF8
:103CAA000D1103180D152300350C2200031C8D126B
:103CBA0003188D162300370C2200031C8D110318DC
:103CCA008D15080000308B1B01302100A2008B13D8
:103CDA0020082300910021002108230092001513D7
:103CEA001514000000002100220C031C8B1303187A
:103CFA008B17230014082100A100230013082100B8
:103D0A00A00008002100AD01A91F922EA809A90947
:103D1A00A80A0319A90AAD01AD0A2808A0002908B2
:103D2A00A100A2018E30AB002B08A3002D08AC0025
:103D3A002C08A4009331DF2321002008A8002108C1
:103D4A00A9002208AA0008009D31FD259E310130F4
:103D5A002100B90039082000D60022000D120D11E9
:103D6A008D128D110D108D100030943144249E3126
:103D7A000030943144249E310130943144249E31E0
:103D8A000130943144249E31883100209E3188319B
:103D9A0000209E312000D6019E314A2608000030BC
:103DAA00FB000030FA000030F9000030F800701C07
:103DBA00E62E7408F8077508F93D7608FA3D770883
:103DCA00FB3D0130F435F50DF60DF70D890BE72EA5
:103DDA000130F336F20CF10CF00C890BEE2E73085D
:103DEA00720471047004031DDC2E7B08F3007A0848
:103DFA00F2007908F1007808F000080021000D109F
:103E0A008D100D118D110D128D120E140E128E12AF
:103E1A000F108F100F118F110F128F160F178F1788
:103E2A0010149014230010109010200010109010FD
:103E3A0026000C108C100C118C110C128C120C1701
:103E4A0028000C1326008D100D119D3196259F31E7
:103E5A0091313F218B178B160B110800003021007E
:103E6A00AB000030AA000030A9000030A800201CD6
:103E7A00462F2408A8072508A93D2608AA3D270891
:103E8A00AB3D0130A435A50DA60DA70D890B472F13
:103E9A000130A336A20CA10CA00C890B4E2F2308CB
:103EAA00220421042004031D3C2F2B08A3002A0806
:103EBA00A2002908A1002808A00008002000530831
:103ECA002100B400B50133083506031D6E2F3208F0
:103EDA003406031908003208B40034082000D3005D
:103EEA00210032033304031D7D2F22000D120D1110
:103EFA002100320C2200031C8D1003188D1421009E
:103F0A00320C2200031C0D1003180D14143021006A
:103F1A00AC000030AD009F3193270800003021002B
:103F2A00B1000030B0000030AF000030AE002C0805
:103F3A00A0002D08A100A201A3010030A7000030B3
:103F4A00A6000330A500E830A4009F3133279F3133
:103F5A0021002308B1002208B0002108AF00200880
:103F6A00AE00310830042F042E0403190800FF3074
:103F7A00AE07FF30AF3DFF30B03DFF30B13DB62F49
:103F8A0022000F108F100F118F110F12E22F220033
:103F9A000F14080022008F14080022000F150800D1
:103FAA0022008F15080022000F16080022000F14A5
:103FBA008F140F158F150F16080021002108003ADB
:103FCA000319E82FFF2F2008013A0319CC2F033ACF
:103FDA000319CF2F013A0319D22F073A0319D52F04
:103FEA00013A0319D82F033A0319FF2F623A03192A
:063FFA00DB2FFF2F080081
:020000040001F9
:04000E00E2FFFFDF2F
:00000001FF
