:040000008231F32A2C
:1000060008007E14803120007F08BF000B1DEE2AF9
:10001600230042080319ED2A200058085704560405
:100026005504031D1B2823005A08BF005908BE00AB
:1000360001302000BA000030BB000030BC000030A8
:10004600BD005508BA075608BB3D5708BC3D5808C1
:10005600BD3D3D08D8003C08D7003B08D6003A080D
:10006600D5000130BA000030BB000030BC000030C3
:10007600BD00230028082000BA0723002908200015
:10008600BB3D23002A082000BC3D23002B0820008E
:10009600BD3D3D082300AB0020003C082300AA001C
:1000A60020003B082300A90020003A082300A800EE
:1000B60001302000BA000030BB000030BC00003028
:1000C600BD005108BA075208BB3D5308BC3D540851
:1000D600BD3D3D08D4003C08D3003B08D2003A0899
:1000E600D1000130BA000030BB000030BC00003047
:1000F600BD00230024082000BA072300250820009D
:10010600BB3D230026082000BC3D23002708200015
:10011600BD3D3D082300A70020003C082300A600A3
:1001260020003B082300A50020003A082300A40075
:100136000130A0070030A13D0030A23D0030A33DB4
:10014600AE318026803170082000BA003A08FD00E2
:1001560023003E082000BA0023003F082000BB0011
:100166000030BB1BFF30BC00BD0023002708803ACF
:100176002000BE003D08803A3E022300031DD3281E
:1001860020003C0823002602031DD32820003B083C
:1001960023002502031DD32820003A082300240249
:1001A600031C01297D082000BA00BB012300580862
:1001B60020003B06031DE3282300570820003A06CB
:1001C600031D012923005A083F06031DEC28590880
:1001D6003E06031D012928092000BA00230029092B
:1001E6002000BB00BA0A0319BB0A44083A072300D9
:1001F600BE00200045083B3D2300BF0022006A03E5
:10020600031D1C2901302300B6070030B73D37080F
:1002160020004902031D1329230036082000480246
:1002260003181C2949082300B700200048082300AA
:10023600B60022006B03031D372901302300B807DF
:100246000030B93D390820004902031D2E2923003C
:100256003808200048020318372949082300B90046
:10026600200048082300B80020004D08031D9529EA
:100276005B08031D95295E08031D95295808803AD9
:10028600BA004308803A3A02031D5329420857022E
:10029600031D532941085602031D532940085502E0
:1002A600031C832922000D1600302000D8000030E0
:1002B600D7000030D6000030D50023004603031DCA
:1002C6008329C601E401200047082300AB00200073
:1002D60046082300AA00200045082300A9002000A4
:1002E60044082300A8005A08BF005908BE003E086B
:1002F600A4003F08A500890D893B8909A600A7002F
:100306002000D81B95295808031D93295708031D5B
:1003160093295608031D93291E305502031C95295F
:1003260022000D1220005E08031DEE295D08031D44
:10033600EE2923002B08803A2000BA004708803AAD
:100346003A022300031DB7292000460823002A028B
:10035600031DB7292000450823002902031DB729DC
:100366002000440823002802031CD12920005F082E
:10037600031DC8294B08F1004A08F0000130F200BD
:100386000030F300A231C322803100302300AB00DD
:100396000030AA000030A9000030A800AB1BEE29EF
:1003A6002B08031DE0292A08031DE0292908031D3F
:1003B600E02914302802031CEE2920005F08031DE3
:1003C600EE294B08F1004A08F0000030F200F30075
:1003D600A231C322803120005E03031D1E2A2300A2
:1003E600A31B0D2A2308031D022A2208031D022A25
:1003F6002108031D022AFA302002031C0D2A2200BE
:100406000D1400302300A3000030A2000030A1002C
:100416000030A000A31B1E2A2308031D1C2A220845
:10042600031D1C2A2108031D1C2A1E302002031C42
:100436001E2A22000D1023003E082000BA002300C9
:100446003F082000BB000030BB1BFF30BC00BD00D6
:1004560023002708803A2000BE003D08803A3E026D
:100466002300031D462A20003C0823002602031D04
:10047600462A20003B0823002502031D462A2000A9
:100486003A0823002402031CB62A0030A7000030D5
:10049600A6000030A5000030A4005808803A2000CD
:1004A600BA0080303A02031D5B2A7D0823005702FA
:1004B600031C642A2300D701D8015A08BF00590833
:1004C600BE00230058082000BB0023005708200068
:1004D600BA00BA35BB0D8A30BC002330BD003A08DD
:1004E6003C0786003B083D3D8700403F2400D30083
:1004F600413FD40053082000AE00240054082000D9
:10050600AF00890D893B8909B000B1002400450878
:100516002000B200240046082000B300890D893B64
:100526008909B400B500A131FD21803120002F08D2
:100536002400D40020002E082400D3000230F0004E
:100546000030F1005408F3005308F200A4313C24B3
:100556008031710826009200700891000130230056
:10056600D7070030D83D4803031DE62A0130200096
:10057600BA003A082300C70724006908803A803C7D
:10058600031DC82A680823004702031CEB2A220021
:100596008D14240069082000BB0024006808200090
:1005A600BA00BA35BB0D3B08803ABC0080303C022D
:1005B600031DE12A2300470820003A020318ED2A0A
:1005C6002300C701ED2A230047080319ED2AC701B6
:1005D60022008D100B1120003F08FF007E1009003D
:1005E6008231F52A8A308400233085006630FE0089
:1005F6000230FF00AC31D424823151308400003007
:1006060085000F30FE000030FF00AC31D42482316B
:100616002200EA01EB01EC01A030840001308500E4
:100626002B30FE000030FF00AC31D4248231203064
:100636008400023085004030FE000030FF00AC31FF
:10064600D4248231A0308400023085002C30FE0094
:100656000030FF00AC31D4248231203084000330D6
:1006660085004030FE000030FF00AC31D4248231DA
:10067600A0308400033085004030FE000030FF00CB
:10068600AC31D4248231EF308400AC308500403068
:100696008600003087000030FF001130AC31C824DE
:1006A6008231B3308400AD308500CB308600013016
:1006B60087000030FF001C30AC31C8248231A830DE
:1006C6008400AC3085006830860002308700003038
:1006D600FF000430AC31C8247E1020008B31642B1F
:1006E600AF3109278331210021082200D8002100DB
:1006F60020082200D7007A30860024308700403F49
:10070600D000413FD10023004C0822005106031DB2
:10071600902B23004B0822005006031DB62B7C307D
:10072600860024308700403FD000413FD10023009F
:100736005C0822005106031DA42B23005B0822003F
:100746005006031DB62B7E30860024308700403FBE
:10075600D000413FD10058085106031DB42B57085D
:1007660050060319080058082100A1002200570866
:100776002100A0006830A2000130A300A4318D241E
:100786008331210021082200D50021002008220003
:10079600D400DB015808803A803C031DD42B57084F
:1007A6005B0203187A2D22005B08D000D1015008A5
:1007B600AE005108AF005508B1005408B000AD3185
:1007C6005F25833122002F08DA002E08D9005D2D1F
:1007D60022005A082100A900220059082100A80079
:1007E600AE3110268331210028082200B4002100F2
:1007F60029082200B50021002A082200B60023009D
:100806005C082100A90023005B082100A800AE3186
:1008160010268331210028082200B700210029086C
:100826002200B80021002A082200B900943185244C
:10083600833122005B08D000D101D035D10D8A303A
:10084600D2002330D3005008520786005108533D8A
:1008560087003408C03F3508C13F742D22005A086E
:100866002100A900220059082100A800AE31102657
:100876008331210028082200AE0021002908220029
:10088600AF0021002A082200B00023005C082100E6
:10089600A90023005B082100A800AE311026833191
:1008A600210028082200B100210029082200B200F8
:1008B60021002A082200B3008931812183312200D8
:1008C6005B08D000D101D035D10D8A30D20023305B
:1008D600D3005008520786005108533D87002E0862
:1008E600C03F2F08C13F742D22005A082100A900DD
:1008F600220059082100A800AE31102683312100BC
:1009060028082200C800210029082200C900210069
:100916002A082200CA0023005C082100A90023003F
:100926005B082100A800AE3110268331210028087B
:100936002200CB00210029082200CC0021002A0831
:100946002200CD00A1310221833122005B08D000B4
:10095600D101D035D10D8A30D2002330D3005008D2
:10096600520786005108533D87004808C03F490892
:10097600C13F742D22005A082100A90022005908FF
:100986002100A800AE31102683312100280822005C
:10099600C200210029082200C30021002A082200E3
:1009A600C40023005C082100A90023005B08210085
:1009B600A800AE3110268331210028082200C50088
:1009C600210029082200C60021002A082200C700AB
:1009D600AD319725833122005B08D000D101D03597
:1009E600D10D8A30D2002330D3005008520786003A
:1009F6005108533D87004208C03F4308C13F742D4C
:100A060022005A082100A900220059082100A80046
:100A1600AE3110268331210028082200AE002100C5
:100A260029082200AF0021002A082200B000230076
:100A36005C082100A90023005B082100A800AE3154
:100A460010268331210028082200B1002100290840
:100A56002200B20021002A082200B3009231ED22C2
:100A6600833122005B08D000D101D035D10D8A3008
:100A7600D2002330D3005008520786005108533D58
:100A860087002E08C03F2F08C13F742D22005B0847
:100A9600D000D101D035D10D8A30D2002330D30019
:100AA6005008520786005108533D87000030C03F6A
:100AB600C13F742D23004C08003A0319632D492DBC
:100AC6004B08013A0319EB2B033A0319312C013A6F
:100AD6000319772C073A0319BD2C013A0319032D84
:100AE600492D01302200D0005008DB07CD2B220013
:100AF6005708D0005008D6007830560203189D2DAE
:100B06005608D000D101D035D10D8A30D20023301D
:100B1600D3005008520786005108533D8700003025
:100B2600C03FC13F0130D0005008D607783056028A
:100B3600031C832D7A3086002430870023004B085F
:100B4600C03F4C08C13F7C308600243087005B08DC
:100B5600C03F5C08C13F7E308600243087002200FB
:100B66005708C03F5808C13F08002100C4012000B3
:100B76001018C42D22006C080319CF2D0130EC0289
:100B8600CF2D193022006C020318CF2D0130210021
:100B9600BC003C082200EC076C08031D862F2000D1
:100BA600D41B5A2E5408031DE12D5308031DE12DB5
:100BB6001B3051020630523B031C5A2E23004903B8
:100BC6000319202EC901C90A00302000D4000030C4
:100BD600D3000030D2000030D10001302300DD0008
:100BE6000030DE0000302400C0000030BF000030BE
:100BF600BE000030BD002300E4012100C401C40A88
:100C0600440820004E02031C202E21004408BC008C
:100C16000130BC35FF3E031D0C2E3C35203E8600C0
:100C2600023087000030C03F0030C13FC23FC33FA3
:100C36000130BC003C08C407032E22006B08031DCC
:100C46002B2EEB01EB0A2000CD012300B801B901E0
:100C56002000490823003902031D352E20004808CC
:100C660023003802031C080020004D08031D08005D
:100C76005B08031D080049082300B9002000480846
:100C86002300B80022000D126A030319522E013008
:100C96002100A0000030A100AD314525080001303B
:100CA6002100B8000030B900A1313F210800200022
:100CB600D41B692E5408031D08005308031D0800A1
:100CC6001B3051020630523B031808004D08031D25
:100CD60008002300490303190800C901C90A2000B6
:100CE600D41B892E5408031D812E5308031D812E03
:100CF600943051020430523B031C892E0030D4003C
:100D06000030D3000430D2009430D1004E082100C8
:100D1600BC00BD013C08C2003D08C30023005E08BC
:100D2600803A803C031D9A2E5D0820004E02031C6B
:100D3600CC2E200051082400BD07200052082400B4
:100D4600BE3D200053082400BF3D20005408240067
:100D5600C03D23005D082100BC000130BC35FF3ECC
:100D6600031DB12E3C35203E860002308700200050
:100D76005108C03F5208C13F5308C23F5408C33F01
:100D860023005E082100C30023005D082100C20085
:100D9600482F00302400C0000030BF000030BE00E5
:100DA6000030BD002100C401C40A20004E08210005
:100DB60044020318222F4408BC000130BC35FF3E14
:100DC600031DE12E3C35043E203E8600023087009E
:100DD600403FBD00413FBE00423FBF00433FC00011
:100DE6004408C1000130C135FF3E031DF62E4135D2
:100DF600203E8600023087003D08C03F3E08C13FC6
:100E06003F08C23F4008C33F4408BC000130BC3520
:100E1600FF3E031D0A2F3C35203E86000230870028
:100E2600403F2400BD07413FBE3D423FBF3D433FDB
:100E3600C03D01302100BC003C08C407D82E20006C
:100E46004E082100BC000130BC35FF3E031D272F94
:100E56003C35203E86000230870020005108C03F06
:100E66005208C13F5308C23F5408C33F51082400EB
:100E7600BD07200052082400BE3D20005308240070
:100E8600BF3D200054082400C03D21004208A000B8
:100E96004308A100890D893B8909A200A30024000B
:100EA60040082100A70024003F082100A6002400D6
:100EB6003E082100A50024003D082100A400983129
:100EC6003820210023082000C3002100220820002A
:100ED600C200210021082000C100210020082000B6
:100EE600C0002300E401E40A00302000D4000030F2
:100EF600D3000030D2000030D10001302300DD07DE
:100F06000030DE3D0800193022006C02031C080088
:100F16002300C901E60100302100A000A100AD3187
:100F260045252300B801B9012200EB011930210043
:100F3600BC003C082200EC00080020005D08031DF0
:100F4600A72F5E03031D08008F1BF52F0130240019
:100F5600CB070030CC3D4C08803A2100A7008030FA
:100F66002702031DB92F1A3024004B02031C080068
:100F760019302400CB000030CC0020005D0823008F
:100F860065060319CA2F20005E03031DDB2F0130FF
:100F96002100A70027082000CF070B304F02031CB3
:100FA600D62FCF01CF0A4F08A03114208731F12F59
:100FB60020005D0823006206031DF12F0130210089
:100FC600A70027082300E30706306302031CED2F62
:100FD600E301E30A6308AD311325873120008F1B37
:100FE6000800F12F2400CB01CC0108002100951246
:0A0FF600951115109514151108004F
:101004002100A101A2012208803AA0008030200220
:10101400031D0E280C3021020318080021002108AA
:10102400A0000130A035FF3E031D14282035A03E4A
:101034008600023087000030C03F0030C13FC23F0D
:10104400C33F0130A1070030A23D052822004A0811
:1010540049044804031D35280030C8008030C90005
:101064003F30CA00080072302100A0003130A100D6
:101074004430A200220048082100A30022004908AD
:101084002100A40022004A082100A500A0318920E3
:10109400883103185A2822302400D1000030D200AD
:1010A400FF302200C8007F30C9007F30CA0008002A
:1010B400220048082100A000220049082100A100C4
:1010C40022004A082100A2004930A3003A30A400BB
:1010D400C430A500A0318920883103187E2822302D
:1010E4002400D1000030D20000302200C8000030BB
:1010F400C9000030CA000800220048082100A000EE
:10110400220049082100A10022004A082100A2006F
:101114000030A3000030A4000030A500A0318920D5
:101124008831031897280130982800302200CB001A
:101134004B08D40054080319B92848082100BE00FC
:10114400220049082100BF0022004A082100C000F3
:10115400AC31B524883121003E082200C8002100AA
:101164003F082200C900210040082200CA00AA301A
:101174002100AE00B830AF003F30B0002200480874
:101184002100B100220049082100B20022004A08CF
:101194002100B3009C31BA24883121002E0822009A
:1011A400C80021002F082200C900210030082200B5
:1011B400CA004808AE004908AF004A08B0009031A0
:1011C4000020883122002E08CC002F08CD003008E2
:1011D400CE004C08A0004D08A1004E08A200993191
:1011E4003F21883122002108D3002008D20053086F
:1011F4002100A900220052082100A800AE311026C7
:101204008831210028082200B70021002908220083
:10121400B80021002A082200B9004808BA00490889
:10122400BB004A08BC00AE31AC2688312200370826
:10123400C8003808C9003908CA004808B400490879
:10124400B5004A08B6000030B700A830B80009302D
:10125400B9000030BA00A53198258831220034083D
:10126400BE003508BF003608C0005308C20052084B
:10127400C1009A31DC22883122003E08C8003F08B0
:10128400C9004008CA00540803190800FF30CF0001
:101294007F30D0007F30D1004A085106031D582901
:1012A40049085006031D582948084F06031D6129A3
:1012B4000030C8000030C9000030CA0008004808E7
:1012C4002100CE00220049082100CF0022004A0854
:1012D4002100D0000030D1008030D2003F30D30054
:1012E4009C31112421004E082200C80021004F081F
:1012F4002200C900210050082200CA000800003062
:101304002200BA008030BB003F30BC000030B70080
:101314000030B8000030B90031082100A0002200DC
:1013240032082100A100220033082100A20022007B
:101334002E082100A30022002F082100A40022006F
:1013440030082100A500A03189208931031CB62969
:10135400220031082100CE00220032082100CF00F3
:10136400220033082100712A220031082100B10033
:10137400220032082100B200220033082100B30009
:101384000030AE000030AF004030B0009C31BA24D1
:10139400893121002E08BE002F08BF003008C0008C
:1013A400AC31B524893121003E08C4003F08C50092
:1013B4004008C6000030C100B430C2004330C3004E
:1013C4009F310A278931210041082200B4002100FD
:1013D40042082200B500210043082200B600340868
:1013E4002100BE00220035082100BF00220036087B
:1013F4002100C000AC31B524893121003E08AE0083
:101404003F08AF004008B0000030C100B430C20053
:101414004330C300220031082100BE0022003208FC
:101424002100BF00220033082100C000AC31B524E4
:10143400893121003E08C4003F08C5004008C600A9
:101444009F310A27893121004108CE004208CF008C
:101454004308D0000030D1003430D2004330D300F0
:101464009C311124893121004E08B1004F08B2008B
:101474005008B3009C31BA24893121002E0822007F
:10148400B70021002F082200B800210030082200F4
:10149400B90000302100C100B430C2004330C300A1
:1014A400220031082100BE00220032082100BF00C2
:1014B400220033082100C000AC31B5248931210059
:1014C4003E08C4003F08C5004008C6009F310A27F3
:1014D400893121004108CE004208CF004308D000E2
:1014E4000030D1003430D2004330D3009C31112479
:1014F400893121004E082200BA0021004F08220041
:10150400BB00210050082200BC0037082100BE00A7
:10151400220038082100BF00220039082100C00041
:10152400AC31B524893121003E08C1003F08C20016
:101534004008C30022002E082100AE0022002F081C
:101544002100AF00220030082100B00022003A0838
:101554002100B10022003B082100B20022003C0817
:101564002100B3009C31BA24893121002E08C40023
:101574002F08C5003008C6009F310A278931210091
:1015840041082200BD00210042082200BE002100C3
:1015940043082200BF0000302100A0003430A10025
:1015A4004330A20022003D082100A30022003E088F
:1015B4002100A40022003F082100A500A0318920B9
:1015C40089310318F82A00302100C1008730C20095
:1015D400C330C30022003D082100C40022003E089D
:1015E4002100C50022003F082100142B00302100F7
:1015F400C100B430C2004230C30022003D082100C3
:10160400BE0022003E082100BF0022003F08210046
:10161400C000AC31B524893121003E08C4003F0824
:10162400C5004008C6009F310A27893121004108BE
:101634002200BD00210042082200BE002100430810
:101644002200BF0000302100CE001030CF00413016
:10165400D0000030AE002030AF00C130B000220016
:101664003D082100B10022003E082100B200220002
:101674003F082100B3009C31BA24893121002E088F
:10168400D1002F08D2003008D3009C3111248931B5
:1016940021004E082200BD0021004F082200BE0098
:1016A400210050082200BF003D08A0003E08A10010
:1016B4003F08A20099313F2122002108AF002008F1
:1016C400AE00080022008D12A631FD268B311230A7
:1016D4002100A0007A30A100A2317F228B31AC31ED
:1016E400A0248B31AF3138278B3120001014901493
:1016F4000F178F160E148F17883102208B31AC31DF
:10170400E0248B31A6310A268B3122008D129831C8
:1017140000208B318731A0278B319131C9218B3146
:1017240020005E030319992B8531B8258B312000E5
:101734005E030319A82B5D08230065060319A82B73
:10174400A3310B238B31A3319E238B310030AD3178
:1017540000258B31210021082300AD002100200841
:101764002300AC000130AD3100258B31210021086C
:101774002300AF00210020082300AE000230AD3169
:1017840000258B31210021082300B100210020080D
:101794002300B0000330AD3100258B312100210836
:1017A4002300B300210020082300B2000430AD312F
:1017B40000258B31210021082300B50021002008D9
:1017C4002300B4004D092400E00023004E09240046
:1017D400E100E00A0319E10A23002C082400600751
:1017E400E20023002D082400613DE3006308803AF1
:1017F400E40080306402031D012C043062020318EB
:10180400232C23004D092400E00023004E0924006A
:10181400E100E00A0319E10A23002C082400600710
:10182400E20023002D082400613DE3006308803AB0
:10183400E4007F306402031D212CFD306202031892
:10184400812C23002D08CE002C08CD004E08210049
:10185400A90023004D082100A800AE3110268B31C9
:10186400210028082500CC00210029082500CD00EE
:1018740021002A082500CE004C082200E70025009C
:101884004D082200E80025004E082200E9009B31A3
:1018940073238B3122006808260099002200670810
:1018A4002600980023004E082100A90023004D08BB
:1018B4002100A800AE3110268B3121002808250014
:1018C400CF00210029082500D00021002A08250086
:1018D400D1004F082200E700250050082200E8004C
:1018E400250051082200E9009D316E258B3122002C
:1018F400680826009D002200670826009C0023003B
:101904004F092400E000230050092400E100E00A0C
:101914000319E10A23002E0824006007E2002300D3
:101924002F082400613DE3006308803AE40080301E
:101934006402031D9F2C043062020318C12C23008F
:101944004F092400E000230050092400E100E00ACC
:101954000319E10A23002E0824006007E200230093
:101964002F082400613DE3006308803AE4007F30DF
:101974006402031DBF2CFD3062020318372D2300BF
:101984002F08D0002E08CF004F092400E0002300C8
:1019940050092400E100E00A0319E10A6008FF3E4F
:1019A4002100A80003302400613D2100A900AE31CC
:1019B40010268B31210028082500D2002100290897
:1019C4002500D30021002A082500D4005208220053
:1019D400E700250053082200E800250054082200EF
:1019E400E9009831BA208B31220068082500920062
:1019F400220067082500910023004F092400E0001D
:101A0400230050092400E100E00A0319E10A6008F8
:101A1400FF3E2100A80003302400613D2100A900FD
:101A2400AE3110268B31210028082500D200210078
:101A340029082500D30021002A082500D4005208D3
:101A44002200E700250053082200E800250054087E
:101A54002200E9009831BA208B3122006808250061
:101A64009900220067082500980023005C082400E0
:101A7400D80023005B082400D70023005109240068
:101A8400E000230052092400E100E00A0319E10AFE
:101A94002300300824006007E200230031082400FA
:101AA400613DE3006308803AE40080306402031D72
:101AB4005D2D0430620203187F2D23005109240098
:101AC400E000230052092400E100E00A0319E10ABE
:101AD4002300300824006007E200230031082400BA
:101AE400613DE3006308803AE4007F306402031D33
:101AF4007D2DFD3062020318C92D23003108D20068
:101B04003008D10080302100EA009D30EB004330E2
:101B1400EC000030E7003430E8004230E900C03027
:101B2400E4007F30E5004430E6000030E10000309E
:101B3400E2000030E300230052082100A900230042
:101B440051082100A800AE3110268B31210028084D
:101B5400DE002908DF002A08E0009931C6218B3114
:101B640021005E082200A00021005F082200A100DD
:101B7400210060082200A20099313F218B3122000C
:101B840021082300DC00220020082300DB002300BE
:101B94005B092400E00023005C092400E100E00A62
:101BA4000319E10A57086007E2005808613DE300A1
:101BB4006308803AE40080306402031DE32D0230A0
:101BC40062020318012E23005B092400E0002300B5
:101BD4005C092400E100E00A0319E10A57086007E0
:101BE400E2005808613DE3006308803AE4007F3076
:101BF4006402031DFF2DFF3062020318042E23002C
:101C0400C601C60A200041082400D600200040086E
:101C14002400D500230053092400E00023005409C4
:101C24002400E100E00A0319E10A23003208240039
:101C34006007E200230033082400613DE3006308E9
:101C4400803AE40080306402031D2A2E04306202CC
:101C540003184C2E230053092400E00023005409E8
:101C64002400E100E00A0319E10A230032082400F9
:101C74006007E200230033082400613DE3006308A9
:101C8400803AE4007F306402031D4A2EFD30620274
:101C940003189B2E23003308D4003208D3004030AD
:101CA4002100EA003030EB004530EC000030E70062
:101CB4003430E8004330E900C030E4007F30E50010
:101CC4004430E6000030E1000030E2000030E30080
:101CD400230054082100A900230053082100A80070
:101CE400AE3110268B3121002808DE002908DF00E0
:101CF4002A08E0009931C6218B3121005E082200B8
:101D0400A00021005F082200A10021006008220039
:101D1400A20099313F218B31220020082000C0000D
:101D2400220021082000C100890D893B8909C200D5
:101D3400C300200040092400E000200041092400E1
:101D4400E100200042092400E200200043092400AD
:101D5400E300E00A0319E10A0319E20A0319E30A9A
:101D64005508E4005608E5000030E51BFF30E600A6
:101D7400E7006408E0076508E13D6608E23D67089E
:101D8400E33DE31BD22E6308031DFC2E6208031DF2
:101D9400FC2E6108031DFC2E013060020318FC2E8A
:101DA400200040092400E000200041092400E10053
:101DB400200042092400E200200043092400E3003B
:101DC400E00A0319E10A0319E20A0319E30A5508B0
:101DD400E4005608E5000030E51BFF30E600E700AC
:101DE4006408E0076508E13D6608E23D6708E33DF5
:101DF400E31FFF2E2300E401E40A23005509240015
:101E0400E000230056092400E100E00A0319E10A76
:101E14002300340824006007E2002300350824006E
:101E2400613DE3006308803AE40080306402031DEE
:101E34001D2F0430620203183F2F2300550924008C
:101E4400E000230056092400E100E00A0319E10A36
:101E54002300340824006007E2002300350824002E
:101E6400613DE3006308803AE4007F306402031DAF
:101E74003D2FFD3062020318892F23003508D60058
:101E84003408D50000302100EA000030EB000030B7
:101E9400EC006030E7009F30E8004430E900C030D7
:101EA400E4007F30E5004430E6000030E10000301B
:101EB400E2000030E300230056082100A9002300BB
:101EC40055082100A800AE3110268B3121002808C6
:101ED400DE002908DF002A08E0009931C6218B3191
:101EE40021005E082200A00021005F082200A1005A
:101EF400210060082200A20099313F218B31220089
:101F040021082400C600220020082400C500230064
:101F14006403031DBC2F20004308C7004208C60009
:101F24004108C5004008C40041082200AF00200059
:101F340040082200AE0020004B082200B10020001F
:101F44004A082200B0009A3151228B3122002E0817
:101F54002000C40022002F082000C500890D893B01
:101F64008909C600C700A33153238B312300C6015E
:101F7400C60AE4017A30860024308700403F2400FA
:101F8400E000413FE10023004C0824006106031DEA
:101F9400CF2F23004B0824006006031DF92F7C304B
:101FA400860024308700403FE000413FE1002300E9
:101FB4005C0824006106031DE32F23005B08240052
:101FC4006006031DF92F7E30860024308700403FD1
:101FD400E000413FE10023003B0824006106031DAB
:101FE400F72F23003A08240060060319892B833154
:101FF40073238B312300C201C20A892B22002E08CD
:102004002100A00022002F082100A1002200300896
:102014002100A20035302200B10031082100A300C4
:10202400A1317D2190312200B61F3E282E082100C7
:10203400A00022002F082100A10022003008210066
:10204400A2000030A3000030A4000030A500A0319D
:10205400892090310318362800302200AE008030E9
:10206400AF00BF30B000080000302200AE000030E6
:10207400AF000030B00008000030360215300319FC
:102084003502031808002E08A0002F08A10030080C
:10209400A20099313F219031220023082100AB0096
:1020A400220022082100AA00220021082100A90000
:1020B400220020082100A800A031C5209031210071
:1020C40028082200B200210029082200B3002100C0
:1020D4002A082200B4002E082100A00022002F08A4
:1020E4002100A100220030082100A20022003208B1
:1020F4002100A300220033082100A4002200340898
:102104002100A500A031892090310318AB280030AC
:102114002100C1008030C200BF30C3002200320859
:102124002100C400220033082100C5002200340825
:102134002100C6009F310A27210041082200AE0079
:10214400210042082200AF00210043082200B00011
:10215400080022003208AE003308AF003408B00093
:1021640008002200E201570856045504031DDF2825
:1021740000302100A0000030A1000030A2002200A5
:1021840058082100A300220059082100A4002200BD
:102194005A082100A500A03189209031031CD728BA
:1021A40021302400D1000030D20000302200D500BC
:1021B4000030D6000030D70008005A0859045804EB
:1021C400031DEB280030D5008030D6003F30D70007
:1021D400080055082100A000220056082100A10093
:1021E400220057082100A2000030A3000030A40000
:1021F4000030A500A0318920903103186529220000
:102204005808A0005908A1005A08A20099313F219A
:10221400903122002308E6002208E5002108E400AA
:102224002008E30066082100AB00220065082100B5
:10223400AA00220064082100A900220063082100EA
:10224400A800AE315626903122005A0821002A06F1
:10225400031D36292200590821002906031D3629A9
:10226400220058082100280603194529213024009A
:10227400D1000030D20000302200D5000030D6005A
:102284000030D7000800220063080139DB005B0836
:10229400E20055082100BE00220056082100BF00BC
:1022A400220057082100C000AC31B5249031210030
:1022B4003E082200D50021003F082200D60021005C
:1022C40040082200D70022005508BE005608BF006F
:1022D4005708C0009E313926903122003E08DC00A8
:1022E4003F08DD004008DE0058082100AE0022004F
:1022F40059082100AF0022005A082100B000220032
:102304005C082100B10022005D082100B200220017
:102314005E082100B3009C31BA24903121002E08BC
:102324002200DF0021002F082200E00021003008F5
:102334002200E1005F08C8006008C9006108CA0003
:1023440088312820903122004808D5004908D60059
:102354004A08D70062080319080055082100BE0086
:10236400220056082100BF00220057082100C000A7
:10237400AC31B52421003E082200D50021003F08DD
:102384002200D600210040082200D70008002000C7
:102394009018DF2923003D08803A2100BC008030DA
:1023A4003C02031DD829013023003C02031CF229FE
:1023B400FF302300BC07FF30F12923003D08803A99
:1023C4002100BC0080303C02031DEB29193023009E
:1023D4003C020318F22901302300BC070030BD3D44
:1023E40023003C083D04031D7B2A22006A08031DC8
:1023F400002AEA01EA0A2300B601B70120004908CD
:1024040023003702031D0A2A20004808230036024D
:10241400031C482A4308031D482A20005B08031DA7
:10242400482A22000D116B030319402A200050038F
:10243400031D482A2300C301C30A20005C08031DAE
:102444002E2A22000D1101302100A0000030A1002D
:10245400AD31EF259131482A01302100B60000301A
:10246400B700AD317B25913100302100A000A100DF
:10247400AD31EF25913122000D15482A013021009C
:10248400B8000030B900A1313F21913120005B0830
:10249400031D772A23004308031D772A20005003D5
:1024A400031D622A24006A036B04031D772A230098
:1024B400E001E00A01302400D9000030DA00772A74
:1024C400230041030319772AE001C101C10A240052
:1024D400D901DA0120005C082100BC003C0823007B
:1024E400C4002000DC012200EA012400EA01EB011F
:1024F400080023003D08803A2100BC0080303C02E3
:10250400031D872A193023003C02031C0800200005
:102514005B03031D962A230060082100BC00BD0153
:102524003C08B6003D08C62A23004103031DB62A11
:102534004403031DB02A22000D1101302100A00024
:102544000030A100AD31EF25913101302100B200FE
:102554000030B300AF31CA279131CA2A01302100BB
:10256400B6000030B700C72A240059035A04031DDB
:10257400CA2A23004308031DCA2A20005B08031D3E
:10258400CA2A00302100B600B700AD317B25913155
:102594002300C30120005C08031DD62A500C22002E
:1025A400031C0D1103180D1500302100B800B900EB
:1025B400A1313F212200EA012300C1012400D901F5
:1025C400DA010130EA000030EB0019302300BC00CE
:1025D4000030BD00080000302200BF008030C00081
:1025E4003F30C1000030BC000030BD000030BE00F0
:1025F40031082100A000220032082100A10022009D
:1026040033082100A20022002E082100A30022008A
:102614002F082100A400220030082100A500A031C9
:1026240089209231031C222B220031082100CE0084
:10263400220032082100CF00220033082100DD2BC4
:10264400220031082100B100220032082100B2002A
:10265400220033082100B3000030AE000030AF0088
:102664004030B0009C31BA24923121002E08BE00C3
:102674002F08BF003008C000AC31B52492312100CE
:102684003E08C4003F08C5004008C6000030C10031
:10269400B430C2004330C3009F310A279231210075
:1026A40041082200B400210042082200B5002100A4
:1026B40043082200B60034082100BE002200350879
:1026C4002100BF00220036082100C000AC31B5242F
:1026D400923121003E08AE003F08AF004008B00030
:1026E4000030C100B430C2004330C30022003108BE
:1026F4002100BE00220032082100BF00220033085E
:102704002100C000AC31B524923121003E08C40040
:102714003F08C5004008C6009F310A2792312100B6
:102724004108CE004208CF004308D0000030D10059
:102734003430D2004330D3009C3111249231210033
:102744004E08B1004F08B2005008B3009C31BA24BF
:10275400923121002E082200BC0021002F08220003
:10276400BD00210030082200BE0000302100C1005D
:10277400B430C2004330C300220031082100BE003F
:10278400220032082100BF00220033082100C000CB
:10279400AC31B524923121003E08C4003F08C50085
:1027A4004008C6009F310A27923121004108CE001B
:1027B4004208CF004308D0000030D1003430D200AA
:1027C4004330D3009C311124923121004E08220061
:1027D400BF0021004F082200C00021005008220041
:1027E400C1003F082100B100220040082100B200CE
:1027F400220041082100B30022002E082100AE006F
:1028040022002F082100AF00220030082100B00070
:102814009C31BA24923121002E08C4002F08C5002F
:102824003008C60022003C082100BE0022003D08FA
:102834002100BF0022003E082100C000AC31B524B5
:10284400923121003E08C1003F08C2004008C30085
:102854009F310A279231210041082200B70021004C
:1028640042082200B800210043082200B9003708BA
:102874002100C400220038082100C50022003908C4
:102884002100C6000030C1003430C200C330C30090
:102894009F310A27923121004108B1004208B20059
:1028A4004308B3000030AE00A030AF004030B000A9
:1028B4009C31BA24923121002E08D1002F08D20075
:1028C4003008D3000030CE001030CF004130D000AB
:1028D4009C311124923121004E082200A0002100D5
:1028E4004F082200A100210050082200A2009931C3
:1028F4003F2122002108BB002008BA003B08AF009A
:102904003A08AE00080000302200C2008030C30044
:102914003F30C4000030BF000030C0000030C100B0
:1029240037082100A000220038082100A10022005D
:1029340039082100A200220034082100A30022004B
:1029440035082100A400220036082100A500A0318A
:1029540089209431031CBA2C220037082100CE00B0
:10296400220038082100CF00220039082100752DEB
:10297400220037082100B100220038082100B200EB
:10298400220039082100B3000030AE000030AF004F
:102994004030B0009C31BA24943121002E08BE008E
:1029A4002F08BF003008C000AC31B5249431210099
:1029B4003E08C4003F08C5004008C6000030C100FE
:1029C400B430C2004330C3009F310A279431210040
:1029D40041082200BC00210042082200BD00210061
:1029E40043082200BE003C082100BE0022003D082E
:1029F4002100BF0022003E082100C000AC31B524F4
:102A0400943121003E08AE003F08AF004008B000FA
:102A14000030C100B430C2004330C3002200370884
:102A24002100BE00220038082100BF00220039081E
:102A34002100C000AC31B524943121003E08C4000B
:102A44003F08C5004008C6009F310A279431210081
:102A54004108CE004208CF004308D0000030D10026
:102A64003430D2004330D3009C31112494312100FE
:102A74004E08B1004F08B2005008B3009C31BA248C
:102A8400943121002E082200BF0021002F082200CB
:102A9400C000210030082200C10000302100C10024
:102AA400B430C2004330C300220037082100BE0006
:102AB400220038082100BF00220039082100C0008C
:102AC400AC31B524943121003E08C4003F08C50050
:102AD4004008C6009F310A27943121004108CE00E6
:102AE4004208CF004308D0000030D1003430D20077
:102AF4004330D3009C311124943121004E0822002C
:102B0400C20021004F082200C30021005008220007
:102B1400C40000302100CE004030CF004030D0004F
:102B240022003F082100BE00220040082100BF000F
:102B3400220041082100C000AC31B52494312100A9
:102B44003E08C1003F08C2004008C3002200340808
:102B54002100AE00220035082100AF002200360813
:102B64002100B000220042082100B10022004308E5
:102B74002100B200220044082100B3009C31BA2491
:102B8400943121002E08C4002F08C5003008C60067
:102B94009F310A27943121004108D1004208D20014
:102BA4004308D3009C311124943121004E082200A3
:102BB400C50021004F082200C60021005008220051
:102BC400C7004508A0004608A1004708A2009931A3
:102BD4003F21943122002108AF002008AE000330C9
:102BE400B0000030B100AD315F2594318230220055
:102BF400BA002430BB002E083A0786002F083B3D5C
:102C04008700403FC500413FC600423FC70045081A
:102C14002100B100220046082100B200220047082A
:102C24002100B3000030AE00C830AF00C230B000A5
:102C34009C31BA24943121002E082200A0002100E6
:102C44002F082200A100210030082200A20099319F
:102C54003F2122002108B5002008B400080022000A
:102C6400CB013E082100A00022003F082100A10062
:102C7400220040082100A2000030A3000030A4007C
:102C84000030A500A031892096310318662E220059
:102C94003E082100BE0022003F082100BF002200A0
:102CA40040082100C000AC31B524963121003E0813
:102CB4002200BE0021003F082200BF00210040087E
:102CC4002200C000CB01CB0AFA302100AE00223032
:102CD400AF003E30B00022003E082100B1002200C7
:102CE4003F082100B200220040082100B3009C31BB
:102CF400BA24963121002E082200BE0021002F089C
:102D04002200BF00210030082200C0003E08AE00AF
:102D14003F08AF004008B0009031002096312200F7
:102D24002E08B7002F08B8003008B9003E08BA00D2
:102D34003F08BB004008BC00AE31AC2696312200EF
:102D44003708BE003808BF003908C0000030210031
:102D5400AE008030AF004030B00022003E082100B9
:102D6400B10022003F082100B200220040082100E7
:102D7400B3009C31BA24963121002E082200BE00F3
:102D840021002F082200BF00210030082200C000CB
:102D940000302100A0000030A1004030A200220039
:102DA4003E082100A30022003F082100A4002200C5
:102DB40040082100A500A031892096310318022F74
:102DC40000302200B7000030B8004030B9003E089F
:102DD400BA003F08BB004008BC00AE31AC269631B7
:102DE40022003708BE003808BF003908C0004B086D
:102DF400031DFE2E0130FF2E0030C1004108CB0020
:102E040000302100A0008030A1003F30A200220049
:102E14003E082100A30022003F082100A400220054
:102E240040082100A500A031892096310318462FBF
:102E340000302100C1000030C2004030C300220035
:102E44003E082100BE0022003F082100BF002200EE
:102E540040082100C000AC31B524963121003E0861
:102E6400C4003F08C5004008C6009F310A279631B8
:102E7400210041082200BE00210042082200BF00B8
:102E8400210043082200C00022003E082100AE00B9
:102E940022003F082100AF00220040082100B000BA
:102EA40022003E082100B10022003F082100B200A8
:102EB400220040082100B3009C31BA24963121003D
:102EC4002E082200C80021002F082200C90021007A
:102ED40030082200CA004808B4004908B5004A086E
:102EE400B6004830B700A830B8000330B90000304D
:102EF400BA00A5319825963122003408C20035085D
:102F0400C3003608C4000430B9000030BA003930B8
:102F1400B700A830B8004808B4004908B5004A080A
:102F2400B600A53198259631220034082100D1003D
:102F3400220035082100D200220036082100D300E7
:102F4400220042082100CE00220043082100CF00C5
:102F5400220044082100D0009C3111249631210024
:102F64004E082200C50021004F082200C60021009F
:102F740050082200C70045082100AE002200460880
:102F84002100AF00220047082100B00022003E08C3
:102F94002100B10022003F082100B20022004008B5
:102FA4002100B3009C31BA24963121002E0822005E
:102FB400BE0021002F082200BF002100300822009B
:102FC400C0004B08031908003E082100BE0022007F
:102FD4003F082100BF00220040082100C000AC319E
:102FE400B52421003E082200BE0021003F08220033
:102FF400BF00210040082200C000080020000E1875
:10300400342801302400CD070030CE3D4E08803AEC
:103014002100A70080302702031D13281A30240042
:103024004D02031C080019302400CD000030CE00EE
:1030340020005E03031D2328DE01AD312B259831CA
:103044002D2801302100A70027082000DD070330C8
:103054005D020318DD01AE313226983120000E18CE
:10306400080030282400CD01CE0108002100AA0167
:10307400A31F4928A009A109A209A309A00A0319A9
:10308400A10A0319A20A0319A30AAA01AA0AA71FDB
:103094005A28A409A509A609A709A40A0319A50A77
:1030A4000319A60A0319A70A0130A8002808AA06CA
:1030B4000030AE000030AD000030AC000030AB009A
:1030C40023082204210420040319A328A901A90A1E
:1030D400A31B78280130A035A10DA20DA30D890BE7
:1030E4006D280130A8002808A9076A280130AB35EB
:1030F400AC0DAD0DAE0D890B792823082702031DF5
:103104008D2822082602031D8D2821082502031D6F
:103114008D2820082402031C98282008A4022108D2
:10312400A53B2208A63B2308A73B2B140130A3365A
:10313400A20CA10CA00C890B99280130A902031D33
:1031440078282A080319B128AB09AC09AD09AE09DE
:10315400AB0A0319AC0A0319AD0A0319AE0A2E0807
:10316400A3002D08A2002C08A1002B08A000080031
:103174002200690868046704031DC6280030E700BC
:103184008030E8003F30E900C0302100CE007F30BD
:10319400CF004430D000220067082100D100220073
:1031A40068082100D200220069082100D3009C3164
:1031B4001124983121004E082300EA0021004F0811
:1031C4002300EB00210050082300EC0056302200BD
:1031D400D8008E30D900BF30DA0023006A082200FC
:1031E400D50023006B082200D60023006C082200BF
:1031F400D7009031B3209831220055082300ED0008
:10320400220056082300EE00220057082300EF0096
:103214009F302100AE006830AF004030B000230082
:103224006D082100B10023006E082100B2002300C4
:103234006F082100B3009C31BA24983121002E0874
:103244002300E70021002F082300E80021003008B4
:103254002300E90067082200A00023006808220078
:10326400A100230069082200A20099313F21220015
:103274002108E8002008E700080022002008A40034
:103284002108A5002208A6000310250D260DA7007D
:103294002708AD002D08031D58290030A300003075
:1032A400A2000030A1000030A00008002008A40003
:1032B4002108A5002208A6001730A636A50CA40CE8
:1032C400890B5F292408A7002708A800A117FF304D
:1032D400A005FF30A1050030A2052008A90021089F
:1032E400AA002208AB00AC018E30AD02AD1F9629B6
:1032F4002D08803A8F3E031888290030A30000303F
:10330400A2000030A1000030A00008000130AC365B
:10331400AB0CAA0CA90C890B89290130A400240840
:10332400AD070319AF29882918302D02031CAC29D5
:103334000030A3000030A2000030A1000030A00043
:1033440008000130A935AA0DAB0DAC0D890BA429D9
:103354000130AD022D08031DA32928080319BD2936
:10336400A909AA09AB09AC09A90A0319AA0A0319EC
:10337400AB0A0319AC0A2C08A3002B08A2002A08E4
:10338400A1002908A000080021006408C100650804
:10339400C2006608C3006108BE006208BF0063087B
:1033A400C000AC31B524993121003E08C4003F0867
:1033B400C5004008C6009F310A2799312100410801
:1033C400CE004208CF004308D0006A08C1006B0851
:1033D400C2006C08C3006708BE006808BF00690823
:1033E400C000AC31B524993121003E08C4003F0827
:1033F400C5004008C6009F310A27993121004108C1
:10340400AE004208AF004308B0005E08C1005F0888
:10341400C2006008C3006108BE006208BF00630800
:10342400C000AC31B524993121003E08C4003F08E6
:10343400C5004008C6009F310A2799312100410880
:10344400B1004208B2004308B3009C31BA24993158
:1034540021002E08D1002F08D2003008D3009C315F
:103464001124993121004E08ED004F08EE00500858
:10347400EF006708C1006808C2006908C3006D084E
:10348400C4006E08C5006F08C6009F310A272100DA
:103494004108DE004208DF004308E0000800240081
:1034A400DD0122002F08B6002E08B5000030B2005E
:1034B4008030B3003F30B4007E2A0030B2000030C8
:1034C400B30040307C2AA630B2002A307A2A003079
:1034D400B20000307A2AA630B200AA30742A003032
:1034E400B2008030B3003E307C2A0030B20080301D
:1034F400B3003F30B400972A3108003A0319832AF5
:10350400972A3008013A03195F2A033A0319652AF6
:10351400013A0319692A073A03196D2A013A031972
:10352400712A033A0319772A972A36082100A90039
:10353400220035082100A800AE3110269A3121005E
:103544002808B1002908B2002A08B3002200320872
:103554002100AE00220033082100AF00220034080D
:103564002100B0009C31BA249A3121002E08220097
:10357400A00021002F082200A10021003008220011
:10358400A20099313F219A3122002108B600200877
:10359400B50036083606031DD12A35083506031949
:1035A400D62A2400DD01DD0A22003608AF003508E2
:1035B400AE000800220040083F043E04031DE92A2F
:1035C4000030BE000030BF000030C00008004008DA
:1035D4007F39C300C401C335C40D4308C10744087F
:1035E400C23D3F0D3F0D0139C300C4014308C1076B
:1035F4004408C23DC21F0B2B22302400D1000030EE
:10360400D20000302200BE000030BF000030C000F5
:1036140008004208803AC30081304302031D142B82
:1036240000304102031C5B2B22302400D100003007
:10363400D20022003E082100A00022003F08210001
:10364400A100220040082100A2000030A3000030A5
:10365400A4000030A500A03189209A310318532B0F
:10366400FF302200C5007F30C6007F30C700450808
:103674002100BE00220046082100BF0022004708A6
:103684002100C000AC31B52421003E082200BE0058
:1036940021003F082200BF00210040082200C00092
:1036A4000800FF302200BE007F30BF007F30C00022
:1036B400080022004208C4004108C300440DC40CA1
:1036C400C30C4008430680394306C0004108013951
:1036D400C300C30CC30C3F0843067F394306BF0035
:1036E40008002200690868046704031D7E2BFF306C
:1036F400E7000030E800080067082100A00022006D
:1037040068082100A100220069082100A20080307D
:10371400A3007F30A4004430A500A03189209B3150
:10372400031C982B2200E701E8010800C0302100A7
:10373400CE007F30CF004430D00022006708210043
:10374400D100220068082100D2002200690821006B
:10375400D3009C3111249B3121004E082300EA0040
:1037640021004F082300EB00210050082300EC0047
:103774006A302200D8009C30D900BF30DA00230020
:103784006A082200D50023006B082200D60023001B
:103794006C082200D7009031B3209B3122005508D9
:1037A4002300ED00220056082300EE0022005708F3
:1037B4002300EF00E3302100AE000B30AF004130B6
:1037C400B00023006D082100B10023006E08210021
:1037D400B20023006F082100B3009C31BA249B314E
:1037E40021002E082300E70021002F082300E80011
:1037F400210030082300E90067082200A00023000C
:1038040068082200A100230069082200A20099315F
:103814003F2122002108E8002008E70008002100D9
:103824005108D4005208D5005308D6000310550D92
:10383400560DD7005708DC005C08031D282C003007
:10384400CE000030CF000030D00008004E08D40075
:103854004F08D5005008D6000310550D560DD7005B
:103864005708DD005D08031D3E2C0030CE000030FB
:10387400CF000030D00008000030D9000030DA005A
:103884000030DB0089305D07D4005408DC025108A5
:10389400D4005208D5005308D6001030D636D50CC3
:1038A400D40C890B502C5408D7005708DD004E085F
:1038B400D4004F08D5005008D6001030D636D50CA9
:1038C400D40C890B602C5408D7005708DD068030CF
:1038D400D4005408DD05D217FF30D105FF30D205DE
:1038E4000030D305CF17FF30CE05FF30CF050030B1
:1038F400D0051830D4005408D8000130D935DA0D79
:10390400DB0D890B802C50085302031D8F2C4F08AC
:103914005202031D8F2C4E085102031C982C4E0892
:10392400D1024F08D23B5008D33B59140130D13552
:10393400D20DD30D890B992C0130D802031D7F2C95
:103944005908A0005A08A1005B08A2005C08D40032
:103954005408A3005D08D5005508A400A5313325FB
:1039640021002008CE002108CF002208D000080042
:1039740021002E08B4002F08B5003008B60003104B
:10398400350D360DB7003708B8003808031DD12CA3
:103994000030AE000030AF000030B0000800310845
:1039A400B4003208B5003308B6000310350D360DE7
:1039B400B7003708BD003D08031DE72C0030AE00FA
:1039C4000030AF000030B00008003D087B3EB4007A
:1039D4003408B8072E08B4002F08B5003008B60024
:1039E4001030B636B50CB40C890BF32C3408B70080
:1039F4003708BD003108B4003208B5003308B600FA
:103A04001030B636B50CB40C890B032D3408B7004E
:103A14003708BD068030B4003408BD05AF17B217AF
:103A2400FF30B105FF30B2050030B3050030B900F6
:103A34000030BA000030BB000730B4003408BC00CA
:103A44002E1C2A2D3108B9073208BA3D3308BB3D74
:103A54000130B036AF0CAE0C890B2B2D0130B135D3
:103A6400B20DB30D890B312D0130BC02031D222D83
:103A74000930B4003408BC002E1C462D3108B907A7
:103A84003208BA3D3308BB3D0130B036AF0CAE0C42
:103A9400890B472D0130BB36BA0CB90C890B4D2D5F
:103AA4000130BC02031D3E2D3908A0003A08A100D4
:103AB4003B08A2003808B4003408A3003D08B50050
:103AC4003508A400A531332521002008AE002108C3
:103AD400AF002208B0000800220067082100A000FF
:103AE400220068082100A100220069082100A20028
:103AF4000030A3008030A4003F30A500A03189200D
:103B04009D310318892D2200E701E80108002200F5
:103B140067082100A000220068082100A1002200FB
:103B240069082100A2008030A3007F30A400443043
:103B3400A500A03189209D31031CA62DFF30220051
:103B4400E7000030E800080000302100C1008030A8
:103B5400C2003F30C300220067082100D1002200C8
:103B640068082100D200220069082100D300C03077
:103B7400CE007F30CF004430D0009C3111249D31E1
:103B840021004E08BE004F08BF005008C000AC31F1
:103B9400B5249D3121003E08C4003F08C5004008FB
:103BA400C6009F310A279D31210041082300EA0005
:103BB400210042082300EB00210043082300EC000D
:103BC4006A302200D8009C30D900BF30DA002300CC
:103BD4006A082200D50023006B082200D6002300C7
:103BE4006C082200D7009031B3209D312200550883
:103BF4002300ED00220056082300EE00220057089F
:103C04002300EF00E3302100AE000B30AF00413061
:103C1400B00023006D082100B10023006E082100CC
:103C2400B20023006F082100B3009C31BA249D31F7
:103C340021002E082300E70021002F082300E800BC
:103C4400210030082300E90067082200A0002300B7
:103C540068082200A100230069082200A20099310B
:103C64003F2122002108E8002008E7000800220084
:103C74003E082100A00022003F082100A1002200EC
:103C840040082100A2000030A3000030A40000304E
:103C9400A500A03189209E3103185D2E2130240017
:103CA400D1000030D20000302200BE000030BF003E
:103CB4000030C0000800220040083F043E04031DF9
:103CC400702E22302400D1000030D20000302200B7
:103CD400BE000030BF000030C000080000302100EA
:103CE400C1008030C200BF30C3000030AE000030DD
:103CF400AF004030B00042302200C1004108210032
:103D0400A30022003E082100A00022003F08210059
:103D1400A100220040082100A200A1317D219E3192
:103D240021002008B1002108B2002208B3009C3110
:103D3400BA249E3121002E08C4002F08C500300883
:103D4400C6009F310A279E31210041082200BE008F
:103D5400210042082200BF00210043082200C000C5
:103D6400FF30C207FF30C33D3E08B4003F08B50032
:103D74004008B6001E30B700A830B8000830B900BB
:103D84000030BA00A53198259E3122003408BE00C7
:103D94003508BF003608C0003E082100C1002200DB
:103DA4003F082100C200220040082100C3007230F5
:103DB400AE003130AF003F30B00022004308210094
:103DC400A900220042082100A800AE3110269E312D
:103DD40021002808B1002908B2002A08B3009C3148
:103DE400BA249E3121002E08C4002F08C5003008D3
:103DF400C6009F310A27210041082200BE0021008D
:103E040042082200BF00210043082200C00008002D
:103E140021004108C7004208C8004308C900031034
:103E2400480D490DCA004A08CD004408C70045089A
:103E3400C8004608C9000310480D490DCA004A08C5
:103E4400CC004D080319322F4C084D020318392FAA
:103E54004D03FF3A4C07C70019304702031C392FA2
:103E64004408C1004508C2004608C30008004C08C5
:103E7400031908004D084C020318482F4C03FF3A5D
:103E84004D07C70019304702031808000630C70061
:103E94004708CB00C31BCB17C61B4B17C217FF30F9
:103EA400C105FF30C2050030C305C517FF30C40586
:103EB400FF30C5050030C6054C084D020318842F99
:103EC4000130C435C50DC60D890B632F0130CC02FA
:103ED4004C084D0603197F2F0130CB024B080739DC
:103EE40003197F2F622F0130C336C20CC10C890B1A
:103EF400762F0130C7004708CD074D084C0603193B
:103F0400A92F752F4D084C020318A92F0130C13574
:103F1400C20DC30D890B892F0130CD024C084D060B
:103F24000319A52F0130CB024B0807390319A52F1C
:103F3400882F0130C636C50CC40C890B9C2F013068
:103F4400C7004708CC074D084C06031D9B2FCB1F09
:103F5400BB2FFF30C106FF30C206FF30C30601305D
:103F6400C107003003180130C207003003180130C4
:103F7400C3074B1FCD2FFF30C406FF30C506FF30EB
:103F8400C6060130C407003003180130C5070030ED
:103F940003180130C607CB014108C4074208C53DD8
:103FA4004308C63DC61FE82FFF30C406FF30C506D0
:103FB400FF30C6060130C407003003180130C507BE
:103FC400003003180130C607CB01CB0A4408A00017
:103FD4004508A1004608A2004D08C7004708A300F1
:103FE4004B08C8004808A400A53133252100200847
:103FF400C1002108C2002208C300080001302100CA
:10400400B70037082000DF00A331EC23A031A3312F
:10401400EC23A031A131BD21A031A131BD2120006B
:10402400DF0108002100A60006302602031830280C
:104034002608A400A5012408A0002508A100013039
:10404400A2000030A300A431DF24A03106302100F7
:10405400A0000030A100A0314E200800063021004D
:10406400A0000030A1000130A2000030A300A43160
:10407400DF24A03121002608A400A501A409A50974
:10408400A40A0319A50A24080B3EA0000030253D0C
:10409400A100A0314E20080022000F108F100F1134
:1040A4008F110F126B2822000F14080022008F14A6
:1040B400080022000F15080022008F1508002200B6
:1040C4000F16080022000F148F140F158F150F16EA
:1040D400080021002108003A0319712888282008C3
:1040E400013A03195528033A03195828013A0319C8
:1040F4005B28073A03195E28013A03196128033A39
:1041040003198828623A03196428882808002100C2
:10411400A21FA0282009A6002109A7002209A8009F
:10412400A60A0319A70A0319A80A00302607A00043
:104134000030273DA1008030283DA200A51FB628ED
:104144002309A6002409A7002509A800A60A031923
:10415400A70A0319A80A00302607A3000030273D48
:10416400A4008030283DA5008030A2068030A5063A
:1041740025082202031D080024082102031D08004B
:104184002308200208002100AF018E30AC002C0867
:10419400AE00AB1FDA28A809A909AA09AB09A80A25
:1041A4000319A90A0319AA0A0319AB0AAF01AF0A32
:1041B400FF302B050319EA280130AB36AA0CA90CF1
:1041C400A80C890BDF280130AC002C08AE07DA28D4
:1041D4002808A0002908A1002A08A2002E08AC0083
:1041E4002C08A3002F08AD002D08A400A531332509
:1041F40021002008A8002108A9002208AA0008001C
:1042040022004808B4004908B5004A08B6004B0823
:10421400B7004C08B8004D08B90094318524A13189
:1042240022003508CF003408CE004B082100A0003E
:1042340022004C082100A10022004D082100A20008
:10424400220048082100A300220049082100A400FC
:1042540022004A082100A500A0318920A1310318B9
:10426400392964302200C8000030C90008009C309D
:104274002200C800FF30C900080020005B082100AC
:10428400BA00BB0139083B06031D4A2938083A061F
:10429400031908003808BA003A082000DB0021009E
:1042A40038033904031D592922000D128D122000F0
:1042B4005B03031D75295E08031D6A29DE01DE0AFE
:1042C40022008D1020004F08A0311420A13175293F
:1042D4002000DE01AE313226A131AD312B25A131D2
:1042E400A0310020A13114302100AC000030AD0019
:1042F400AF31982708002100220821042004031D5F
:10430400912923088600013087000030C03FC13F57
:104314000030A0000030A1000030A20008002208F4
:104324007F39A400A501A435A50D2308860001301A
:1043340087002408C03F2508C13F210D210D013904
:10434400A400A50123088600013087002408810405
:10435400413125088104230886000130870082301A
:1043640081074131FF30813D7F31220880393F3858
:10437400A200A11308001E302100B2003208B400CC
:104384006430A0000030A1000130A2000030A3007E
:10439400A431DF24A13164302100A0000030A10049
:1043A400A0314E20A13121003408B200B3013208FB
:1043B400AC003308AD00AF319827A13100302100A3
:1043C400A000A1000130A2000030A300A431DF242A
:1043D400A13100302100A000A100A0314E20A13164
:1043E40021003408B200B3013208AC003308AD0038
:1043F400AF319827080000302000A3000030A2004D
:104404000330A100E830A0000C30B600F230B70051
:104414000130B8000030B9003508F3003408F20068
:104424003308F1003208F0003108F7003008F600D4
:104434002F08F5002E08F400AE31DA26A1317008F9
:104444002000B6077108B73D7208B83D7308B93D3E
:104454003908A7003808A6003708A5003608A400C4
:10446400A7317E2720002308B1002208B0002108CC
:10447400AF002008AE00080022001D1021000E111C
:104484008E1026000D108D110D12210010139012A4
:104494001012901110110F30250093040F309A045C
:1044A4000F30260093040F309A040F309E040F300F
:1044B4002C0093040F3096040F3099040F309C04A1
:1044C4000F309F0425009D019E019F010030920042
:1044D400323091000030990064309800003026009A
:1044E40092009630910000309900C8309800AC31A9
:1044F400AC24A2318731F9270800FF302000D9000D
:104504002100A20022082000DA00922A67308F2AB4
:1045140033308F2A1F308F2A193023009B00B52A8D
:1045240021002108253A0319A12A6E3A0319A62A63
:10453400313A0319AB2AEC3A0319B02AB52A2008F8
:10454400803A0319882AB52A2008003A03198A2ACE
:10455400B52A2008123A03198C2AB52A2008003AF1
:1045640003198E2AB52A23001E139E161E121E1529
:104574009D171D131D169D11210091160B178B17E6
:10458400080027000C108C100C118C110C12EE2A50
:10459400720C031C0C1003180C140800720C031C7E
:1045A4008C1003188C140800720C031C0C110318D3
:1045B4000C150800720C031C8C1103188C150800D0
:1045C400720C031C0C1203180C1608000C148C1427
:1045D4000C158C150C1608007108003A0319F32AFF
:1045E4000A2B7008013A0319CA2A033A0319D02A7C
:1045F400013A0319D62A073A0319DC2A013A0319A6
:10460400E22A033A03190A2B623A0319E82A0A2B0D
:10461400080020000F1B152B230040080319202B32
:104624000130C002202B4B30230040020318202B02
:1046340001302100B20032082300C0074008031DE6
:1046440008004B08013ECB0000304C3DCC004C0828
:10465400803A2100B20080303202031D342B063030
:1046640023004B02031C3B2B01302300CB00003002
:10467400CC002300C601C60A4C082100A100230077
:104684004B082100A000A0314E20A33120000F1FB1
:10469400482B14302100AC000030AD00AF31982716
:1046A40008002400DD01AF310927A33120004708A9
:1046B4002100AB00200046082100AA002000450884
:1046C4002100A900200044082100A800A031C52031
:1046D400A33121002808D1002908D2002A08D300D8
:1046E40023003B082100A90023003A082100A80068
:1046F400AE311026A33121002808CE002908CF00AE
:104704002A08D0009C311124A33121004E08220034
:10471400A00021004F082200A1002100500822001F
:10472400A20099313F21220021082300DA0022004F
:1047340020082300D900080020008F1AA82B23008A
:104744004A080319B32B0130CA02B32B4B302300A0
:104754004A020318B32B01302100B20032082300AF
:10476400CA074A08031D080020004A08013ECA007F
:1047740000304B3DCB004B08803A2100B200803022
:104784003202031DC82B073020004A02031CCF2B22
:1047940001302000CA000030CB0020004B0821006B
:1047A400A10020004A082100A0000130A20000302E
:1047B400A300A431DF24A3312300E401E40A200090
:1047C4008F1EE12B14302100AC000030AD00AF315E
:1047D4009827080001302100B3000030B4003408E9
:1047E400803AB20080303202031DFA2B07303302C4
:1047F4000318202C21003408A1003308A000013044
:10480400A2000030A300A431DF24A331053021002D
:10481400AC000030AD00AF319827A3310130210046
:10482400B3070030B43D3408803AB200803032021D
:10483400031D1E2C07303302031CFC2B0530210002
:10484400B5000030B600B61B08003608A1003508D4
:10485400A000A0314E20A33105302100AC0000306F
:10486400AD00AF319827A331FF302100B507FF30E9
:10487400B63D252CF601F11F462CF009F109F00A8A
:104884000319F10AF601F60AF31F512CF209F30990
:10489400F20A0319F30A0130F4007408F606F7016A
:1048A400F801700871040319802CF501F50AF11B55
:1048B400652C0130F035F10D890B5C2C0130F400CE
:1048C4007408F507592C0130F735F80D890B662C5F
:1048D40071087302031D702C70087202031C772C7C
:1048E4007008F2027108F33B77140130F136F00CD2
:1048F400890B782C0130F502031D652C7608031909
:10490400882CF709F809F70A0319F80A7808F1005E
:104914007708F00008002100A601A11F982CA00927
:10492400A109A00A0319A10AA601A60AA31FA32C80
:10493400A209A309A20A0319A30A0130A4002408A6
:10494400A606A701A801200821040319D22CA50159
:10495400A50AA11BB72C0130A035A10D890BAE2CE3
:104964000130A4002408A507AB2C0130A735A80DFD
:10497400890BB82C21082302031DC22C2008220213
:10498400031CC92C2008A2022108A33B27140130D0
:10499400A136A00C890BCA2C0130A502031DB72C2B
:1049A40026080319DA2CA709A809A70A0319A80AD3
:1049B4002808A1002708A000080027000C108C106C
:1049C4000C118C110C12152D2100220C2700031C34
:1049D4000C1003180C1408002100220C2700031CDF
:1049E4008C1003188C1408002100220C2700031CCF
:1049F4000C1103180C1508002100220C2700031CBD
:104A04008C1103188C1508002100220C2700031CAC
:104A14000C1203180C16080027000C148C140C1527
:104A24008C150C16080021002108003A03191B2DCF
:104A3400322D2008013A0319E62C033A0319EE2C0F
:104A4400013A0319F62C073A0319FE2C013A03190B
:104A5400062D033A0319322D623A03190E2D322D15
:104A640008002100230803193C2D220821042004F6
:104A7400031D4D2D0030A0000030A1000030A20025
:104A840008000130A5002508A3070130A236A10CB7
:104A9400A00C890B482DFE3022050319662D432DE9
:104AA4000130A5002508A3070130A0070030031832
:104AB4000130A107003003180130A2070130A236EB
:104AC400A10CA00C890B612DFF3022050319732D55
:104AD400522D0130A3020130A035A10DA20D890B86
:104AE4006E2DA11B792D0230230203186B2D231880
:104AF400812DFF30A0057F30A105FF30A2050310F2
:104B0400A30C2308A500A601A7011030A535A60D06
:104B1400A70D890B882D2508A0042608A1042708C1
:104B2400A204240803190800A217080022003A0866
:104B3400AF003908AE000330B0000030B100AD3131
:104B44005F25A531220037082E07840038082F3D41
:104B54008500003FBB00013FBC00023FBD00390897
:104B64003A040319032EFF30B907FF30BA3D3A085F
:104B7400AF003908AE000330B0000030B100AD31F1
:104B84005F25A531220037082E07840038082F3D01
:104B94008500003F2100C100013FC200023FC30065
:104BA40022003B082100AE0022003C082100AF0097
:104BB40022003D082100B000220034082100B10089
:104BC400220035082100B200220036082100B3007B
:104BD4009C31BA24A53121002E08C4002F08C50039
:104BE4003008C6009F310A27A53121004108220060
:104BF400BB00210042082200BC002100430822001F
:104C0400B02D3B08B4003C08B5003D08B6000800D0
:104C140081302100A0001F30A100AD31CF25A63185
:104C2400210021082000CB00210020082000CA0018
:104C340082302100A0001F30A100AD31CF25A63164
:104C4400210021082300CC00210020082300CB00F0
:104C540020004B08803A2100A40080302402031D68
:104C6400362E073020004A02031C3D2E0630200059
:104C7400CA000030CB0023004C08803A2100A40075
:104C840080302402031D492E063023004B02031CEE
:104C9400502E01302300CB000030CC0020005008FF
:104CA400031D572E27008D14592E27008D10200028
:104CB400500C2700031C0D1103180D1522000D11B3
:104CC4008D110D128D128D100D1020004B08210036
:104CD400A10020004A082100A0000130A2000030F9
:104CE400A300A431DF24A63123004C082100A10035
:104CF40023004B082100A000A0314E2008001030F2
:104D04002100A0004930A1004030A20022004C083C
:104D14002100A30022004D082100A40022004E0817
:104D24002100A500A0318920A6310318CB2ECC3058
:104D34002100C1009630C200C030C30022004C08DC
:104D44002100C40022004D082100C50022004E08A5
:104D54002100C6009F310A27A63121004108220004
:104D6400CF00210042082200D00021004308220085
:104D7400D1004F08BE005008BF005108C000963152
:104D8400312622003E08CC003F08CD004008CE006A
:104D9400080010302100C100C930C2003F30C300F8
:104DA40022004C082100C40022004D082100C50047
:104DB40022004E082100C6009F310A27A631210097
:104DC40041082200CF00210042082200D000210027
:104DD40043082200D1004F08BE005008BF0051080C
:104DE400C0009631312622003E08CC003F08CD0099
:104DF4004008CE0008002200D90178305902031877
:104E0400080000302100CE003430CF004330D00001
:104E14001030AE004930AF004030B00022005908D5
:104E2400D200D3015208AE005308AF000330B000E3
:104E34000030B100AD315F25A63122002F082100DA
:104E4400A90022002E082100A800AE311026A631A8
:104E540021002808B1002908B2002A08B3009C31B7
:104E6400BA24A63121002E08D1002F08D200300820
:104E7400D3009C311124A63121004E082200D60013
:104E840021004F082200D700210050082200D8003A
:104E94005608CC005708CD005808CE00A63181260C
:104EA400A63122004C08D6004D08D7004E08D80081
:104EB4005908D200D3015208AE005308AF000330A2
:104EC400B0000030B100AD315F25A6318230220040
:104ED400D4002430D5002E08540786002F08553DF1
:104EE40087005608C03F5708C13F5808C23F0130E9
:104EF400D2005208D907FF2E2000A901A31F8F2F2B
:104F0400A009A109A209A309A00A0319A10A031966
:104F1400A20A0319A30AA901A90AA71FA02FA40979
:104F2400A509A609A709A40A0319A50A0319A60A2B
:104F34000319A70A0130FC007C08A9060030AD0063
:104F44000030AC000030AB000030AA00230822047B
:104F5400210420040319E92FA801A80AA31BBE2FCA
:104F64000130A035A10DA20DA30D890BB32F013083
:104F7400FC007C08A807B02F0130AA35AB0DAC0D9E
:104F8400AD0D890BBF2F23082702031DD32F220841
:104F94002602031DD32F21082502031DD32F200829
:104FA4002402031CDE2F2008A4022108A53B2208AA
:104FB400A63B2308A73B2A140130A336A20CA10C5C
:104FC400A00C890BDF2F0130A802031DBE2F290876
:104FD4000319F72FAA09AB09AC09AD09AA0A0319E9
:104FE400AB0A0319AC0A0319AD0A2D08A3002C0857
:104FF400A2002B08A1002A08A00008000034803475
:105004003F34723431343F34FE3475343E345834D2
:1050140063343D3495341D343C34C534AE343A34B1
:105024007934213439349434803437349334A73484
:1050340035345634153434340034003400340034F8
:1050440080343F34F034FF34BE34E234A9343E3487
:1050540083347634BE34AE342B343E343C34C334DF
:10506400BD34D23413343D347834D334BB34F434C3
:105074004A34483495349534C734C134DC34453427
:10508400DC346D34C334B334333440343434013415
:1050940048349D34B03445340034DA344234003476
:0450A40080343F34E1
:10594000FC302100990508002100A001A1010800F8
:105950006434003401340034873020009C05FC306E
:105960009C05FF309B001C150800210040083F04E7
:105970003E04031908008030C006080021009E176D
:105980001E088F3960389E00FC309E051D140800EB
:10599000FE0012001E000130FE020030FF3B7F08B7
:1059A0007E0403190034C92C6400800101310130E8
:1059B000FE020030FF3B7F087E0403190034D52C23
:1059C000AC31A424AC3121002108BB002008BA006E
:1059D0003B08B7003A08B600AD317B250800D0344B
:1059E000073400340034D034073400340034E83451
:1059F0000334063400341434FF3404340134FF34E7
:105A00002100A3002308A200A20DA20D1D0822065A
:105A1000833922069D009D149D180C2D1C08A100A1
:105A20001B08A00008002100A6002608A400A5016C
:105A30002408A0002508A1000130A2000030A30026
:105A4000A431DF24AD3106302100A0000030A100D8
:105A5000A0314E20080020004B082100A1002000AA
:105A60004A082100A0000130A2000030A300A431A8
:105A7000DF24AD3123004C082100A10023004B0896
:105A80002100A000A0314E20080020004D08210078
:105A9000A200A30121082306031D502D2008220681
:105AA000031908002008A20022082000CD002100D0
:105AB000200C2200031C8D1203188D1608002200F2
:105AC000B201B3012E1C682D3008B2073108B33D76
:105AD0000130B035B10D890B692D0130AF36AE0CF8
:105AE000890B6E2D2E082F04031D622D3308AF0085
:105AF0003208AE000800200050082100B800B901AB
:105B000037083906031D862D3608380603190800A4
:105B1000360C2200031C0D1103180D158D112100E8
:105B20003708B3003608B200AF31CA270800220098
:105B30004208AE004308AF004408B0004508B10079
:105B40004608B2004708B3009231ED2222002E0928
:105B5000C8002F09C900C80A0319C90A4808C200A9
:105B60004908C300080001340034D0340734D0346D
:105B70000734D0340734D0340734D03407340134F8
:105B80000034D0340734B4340034013400340134E8
:105B9000FF34FF340234013401340134FF34003067
:105BA0008B1B01302100A2008B13200823009100E1
:105BB0002100210823009200151315140000000095
:105BC0002100220C031C8B1303188B1723001408CD
:105BD0002100A100230013082100A00008002000DC
:105BE0005C082100A200A30121082306031DFA2D51
:105BF00020082206031908002008A200220820001D
:105C0000DC002100200C2200031C8D1103188D15CF
:105C10002100200C2000031C0E1203180E16080091
:105C20002100AD01A91F1B2EA809A909A80A031963
:105C3000A90AAD01AD0A2808A0002908A100A20107
:105C40008E30AB002B08A3002D08AC002C08A4005C
:105C5000A531332521002008A8002108A900220829
:105C6000AA000800492E22008D100D10AD312B2501
:105C7000080022008D100D1420004F08A0311420C0
:105C8000080022008D140D1023006308AD31132588
:105C9000080020005D08003A0319332E013A031969
:105CA000392E033A0319412E552E08008E3021005B
:105CB000AC002C08AD00FF302B0503196B2E013012
:105CC000AB36AA0CA90CA80C890B602E0130AC00D5
:105CD0002C08AD075B2E2808A0002908A1002A087F
:105CE000A2002D08AC002C08A300A401A531332587
:105CF00021002008A8002108A9002208AA00080005
:105D00002000C71B912E4708031D8F2E4608031D38
:105D10008F2E603044020930453B031C912E7830B1
:105D2000A32E2000C71BA22E4708031DA02E460845
:105D3000031DA02E583044020230453B031CA22E06
:105D40003C30A32E1E302300BA000030BB003B08BD
:105D5000F1003A08F000080022003908380437043E
:105D60000319B42E8030B9063A082100C100220080
:105D70003B082100C20022003C082100C300220091
:105D800037082100C400220038082100C500220085
:105D900039082100C6009F310A272100410822004E
:105DA000B700210042082200B80021004308220069
:105DB000B90008000030FB000030FA000030F900A4
:105DC0000030F800701CEC2E7408F8077508F93DD7
:105DD0007608FA3D7708FB3D0130F435F50DF60DF8
:105DE000F70D890BED2E0130F336F20CF10CF00CAF
:105DF000890BF42E7308720471047004031DE22EE3
:105E00007B08F3007A08F2007908F1007808F000C6
:105E100008002000C71B1A2F4708031D182F46082B
:105E2000031D182F603044020930453B031C1A2F14
:105E300078302C2F2000C71B2B2F4708031D292F3C
:105E40004608031D292F583044020230453B031CED
:105E50002B2F3C302C2F1E302300BA000030BB000B
:105E60003B082100A10023003A082100A0000800FF
:105E700021000D108D100D118D110D128D120E14AB
:105E80000E128E120F108F100F118F110F128F160E
:105E90000F178F171014901423001010901020006B
:105EA0001010901026000C108C100C118C110C127C
:105EB0008C120C1728000C1326008D100D11AC311C
:105EC000BE24AF31A2313E228B178B160B11080076
:105ED00000302100AB000030AA000030A9000030E3
:105EE000A800201C7B2F2408A8072508A93D260808
:105EF000AA3D2708AB3D0130A435A50DA60DA70D81
:105F0000890B7C2F0130A336A20CA10CA00C890BAD
:105F1000832F2308220421042004031D712F2B0842
:105F2000A3002A08A2002908A1002808A000080050
:105F300000302100B1000030B0000030AF00003070
:105F4000AE002C08A0002D08A100A201A301003082
:105F5000A7000030A6000330A500E830A400AF3150
:105F60006827AF3121002308B1002208B0002108C2
:105F7000AF002008AE00310830042F042E040319AE
:105F80000800FF30AE07FF30AF3DFF30B03DFF30BF
:105F9000B13DBB2F21003208B40034082000D000EE
:105FA0002100320C2700031C0D1103180D152100D0
:105FB00032083304031DDF2F27008D14E12F270043
:105FC0008D1014302100AC000030AD00AF319827A7
:105FD000AF3127000D118D10200050082100B400B2
:105FE000B5013408A0003508A10080310320AF318D
:105FF00014302100AC000030AD00AF31982708000C
:020000040001F9
:04000E00E2FFFFDF2F
:00000001FF
