:0600000000008331442BD7
:100008007E14803120007F08D7002100911E12281D
:100018002000911E1228A831FE2080310B1D3F2B95
:100028002000620803193E2B24002F082E042D04FB
:100038002C04031D23286408C5006308C40001308C
:100048002000D2000030D3000030D4000030D500AA
:1000580024002C082000D20724002D082000D33DBE
:1000680024002E082000D43D24002F082000D53D70
:1000780055082400AF00200054082400AE002000DA
:1000880053082400AD00200052082400AC000130C1
:100098002000D2000030D3000030D4000030D5005A
:1000A800240028082000D207240029082000D33D76
:1000B80024002A082000D43D24002B082000D53D28
:1000C80055082400AB00200054082400AA00200092
:1000D80053082400A900200052082400A800013079
:1000E8002000D2000030D3000030D4000030D5000A
:1000F8005908D2075A08D33D5B08D43D5C08D53D62
:100108005508DC005408DB005308DA005208D9000F
:100118000130D2000030D3000030D4000030D500C8
:10012800240024082000D207240025082000D33DFD
:10013800240026082000D43D240027082000D53DAF
:1001480055082400A700200054082400A600200019
:1001580053082400A500200052082400A400013000
:10016800A0070030A13D0030A23D0030A33D013082
:100178002500D2070030D33D0030D43D0030D53DB6
:100188000130CE070030CF3D0030D03D0030D13DAA
:10019800B331FE23803170082000D2005208D80005
:1001A8002500D11BF1285108031DE3285008031D21
:1001B800E328E3304E0204304F3B031CF128BF31E3
:1001C800C027803100302500D1000030D000003039
:1001D800CF000030CE0022000D140A3025004E0654
:1001E8004F0450045104031DFB2822000D10240065
:1001F80044082000D200240045082000D300003025
:10020800D31BFF30D400D50024002708803A2000F3
:10021800D6005508803A56022400031D23292000E1
:10022800540824002602031D232920005308240013
:100238002502031D23292000520824002402031C40
:10024800512920005808D200D30124006208200058
:100258005306031D33292400610820005206031D9C
:100268005129240064084506031D3C2963084406F7
:10027800031D512928092000D20024002909200043
:10028800D300D20A0319D30A660852072400C4000F
:1002980020006708533D2400C50024004B03031DBC
:1002A80065290130BA070030BB3D3B086002031DD9
:1002B8005F293A085F02031865296008BB005F08D8
:1002C800BA004C03031D78290130BC070030BD3D3E
:1002D8003D086002031D72293C085F020318782953
:1002E8006008BD005F08BC0020006F08031DE629F8
:1002F8006108031DE6296508031DE6296A08D2007E
:100308006B08D3000030D31BFF30D400D500240085
:100318002F08803A2000D6005508803A560224005B
:10032800031DA6292000540824002E02031DA62917
:100338002000530824002D02031DA629200052087E
:1003480024002C02031CD52922000D16003024009D
:10035800AF000030AE000030AD000030AC004E03FE
:10036800031DD529CE01EC01200069082400AB004B
:10037800200068082400AA00200067082400A900BB
:10038800200066082400A8006408C5006308C400AB
:100398004408A4004508A500890D893B8909A600E1
:1003A800A700AF1BE6292F08031DE4292E08031D0B
:1003B800E4292D08031DE4291E302C02031CE6291C
:1003C80022000D1220006508031D412A6408031D40
:1003D800412A24002B08803A2000D2006908803A7C
:1003E80052022400031D082A2000680824002A025B
:1003F800031D082A2000670824002902031D082A73
:100408002000660824002802031C232A22006F0803
:10041800031D1A2A20006D08F1006C08F000013055
:10042800F2000030F300A93185218031003024002A
:10043800AB000030AA000030A9000030A800AB1BB8
:10044800412A2B08031D322A2A08031D322A2908AB
:10045800031D322A14302802031C412A22006F0887
:10046800031D412A20006D08F1006C08F0000030DF
:10047800F200F300A9318521803120006503031DB6
:10048800712A2400A31B602A2308031D552A220869
:10049800031D552A2108031D552AFA302002031C82
:1004A800602A22000D1400302400A3000030A200AE
:1004B8000030A1000030A000A31B712A2308031DEF
:1004C8006F2A2208031D6F2A2108031D6F2A1E3078
:1004D8002002031C712A22000D1024004408200069
:1004E800D200240045082000D3000030D31BFF3081
:1004F800D400D50024002708803A2000D6005508EB
:10050800803A56022400031D992A2000540824002A
:100518002602031D992A2000530824002502031DE2
:10052800992A2000520824002402031C092B0030B9
:10053800A7000030A6000030A5000030A400620823
:10054800803A2000D20080305202031DAE2A58089B
:1005580024006102031CB72A2400E101E2016408B7
:10056800C5006308C400240062082000D3002400EA
:1005780061082000D200D235D30D8A30D400233050
:10058800D5005208540786005308553D8700403F60
:100598002400C000413FC10040082000AE002400F4
:1005A80041082000AF00890D893B8909B000B100DE
:1005B80025005A082000B20025005B082000B3007F
:1005C800890D893B8909B400B500A8317C208031A8
:1005D80020002F082400C10020002E082400C0009D
:1005E8000230F0000030F1004108F3004008F2004A
:1005F800AB314B23803171082600920070089100BE
:1006080001302400E1070030E23D5103031D372B80
:1006180001302000D20052082400D0075A08803A3E
:10062800803C031D192B59085002031C3C2B220047
:100638008D1424005A082000D300240059082000F3
:10064800D200D235D30D5308803AD40080305402FA
:10065800031D322B240050082000520203183E2BA1
:100668002400D0013E2B2400500803193E2BD00152
:1006780022008D100B1120005708FF007E10090082
:100688008331462B8A308400233085006630FE0093
:100698000230FF00B031942083315930840000309B
:1006A80085000D30FE000030FF00B031942083310A
:1006B8002200EF012300EF01203084000230850082
:1006C8003930FE000030FF00B03194208331A03073
:1006D8008400023085004E30FE000030FF00B0314B
:1006E8009420833120308400033085004030FE00A0
:1006F8000030FF00B03194208331A03084000330F3
:1007080085002C30FE000030FF00B031942083318A
:1007180020308400043085004030FE000030FF00A7
:10072800B03194208331A0308400043085004030FB
:10073800FE000030FF00B031942083315C3084002B
:10074800B030850066308600003087000030FF003A
:100758000A30B03188208331A0308400B030850061
:10076800E2308600013087000030FF000D30B031E4
:10077800882083316C308400B13085005930860080
:10078800023087000030FF001730B03188207E101B
:10079800200098311028B4318724833121002108A2
:1007A8002200D800210020082200D7007A308600D5
:1007B80024308700403FD000413FD1002300630828
:1007C80022005106031DEC2B23006208220050066C
:1007D800031D122C7C30860024308700403FD00057
:1007E800413FD10023006B0822005106031D002C55
:1007F80023006A0822005006031D122C7E30860052
:1008080024308700403FD000413FD10058085106AE
:10081800031D102C5708500603190800580821001A
:10082800A100220057082100A0006830A200013072
:10083800A300AB31EE238331210021082200D5002B
:10084800210020082200D400DB015808803A803CAF
:10085800031D302C57085B020318D62D22005B08B5
:10086800D000D1015008AE005108AF005508B100C2
:100878005408B000B2313822833122002F08DA0040
:100888002E08D900B92D22005A082100A9002200FB
:1008980059082100A800B231EC2283312100280830
:1008A8002200B400210029082200B50021002A08EE
:1008B8002200B60023006B082100A90023006A0863
:1008C8002100A800B231EC2283312100280822003F
:1008D800B700210029082200B80021002A082200B8
:1008E800B9009031EC20833122005B08D000D1019F
:1008F800D035D10D8A30D2002330D30050085207AA
:1009080086005108533D87003408C03F3508C13F71
:10091800D02D22005A082100A900220059082100E0
:10092800A800B231EC228331210028082200AE0051
:10093800210029082200AF0021002A082200B00067
:1009480023006B082100A90023006A082100A800E1
:10095800B231EC228331210028082200B1002100A5
:1009680029082200B20021002A082200B30086319B
:100978001426833122005B08D000D101D035D10D77
:100988008A30D2002330D30050085207860051081D
:10099800533D87002E08C03F2F08C13FD02D2200AD
:1009A8005A082100A900220059082100A800B231E4
:1009B800EC228331210028082200C80021002908E0
:1009C8002200C90021002A082200CA0023006B085F
:1009D8002100A90023006A082100A800B231EC22F6
:1009E8008331210028082200CB0021002908220099
:1009F800CC0021002A082200CD00B73145278331D9
:100A080022005B08D000D101D035D10D8A30D20048
:100A18002330D3005008520786005108533D870001
:100A28004808C03F4908C13FD02D22005A0821007C
:100A3800A900220059082100A800B231EC22833114
:100A4800210028082200C200210029082200C30032
:100A580021002A082200C40023006B082100A900F5
:100A680023006A082100A800B231EC22833121005A
:100A780028082200C500210029082200C6002100FC
:100A88002A082200C700B2317022833122005B0895
:100A9800D000D101D035D10D8A30D2002330D30017
:100AA8005008520786005108533D87004208C03F4E
:100AB8004308C13FD02D22005A082100A900220076
:100AC80059082100A800B231EC22833121002808FE
:100AD8002200AE00210029082200AF0021002A08C8
:100AE8002200B00023006B082100A90023006A0837
:100AF8002100A800B231EC2283312100280822000D
:100B0800B100210029082200B20021002A08220091
:100B1800B3009D31E825833122005B08D000D10164
:100B2800D035D10D8A30D2002330D3005008520777
:100B380086005108533D87002E08C03F2F08C13F4B
:100B4800D02D22005B08D000D101D035D10D8A30DC
:100B5800D2002330D3005008520786005108533D75
:100B680087000030C03FC13FD02D23006308003A02
:100B78000319BF2DA52D6208013A0319472C033A22
:100B880003198D2C013A0319D32C073A0319192D8F
:100B9800013A03195F2DA52D01302200D00050081D
:100BA800DB07292C22005708D0005008D6007830DF
:100BB80056020318F92D5608D000D101D035D10DB1
:100BC8008A30D2002330D3005008520786005108DB
:100BD800533D87000030C03FC13F0130D00050086E
:100BE800D60778305602031CDF2D7A308600243071
:100BF800870023006208C03F6308C13F7C3086003D
:100C0800243087006A08C03F6B08C13F7E308600E9
:100C18002430870022005708C03F5808C13F080009
:100C280000302200BA008030BB003F30BC000030EA
:100C3800B7000030B8000030B90031082100A0002A
:100C4800220032082100A100220033082100A2005E
:100C580022002E082100A30022002F082100A40052
:100C6800220030082100A500A83100208631031C8D
:100C7800492E220031082100CE002200320821002E
:100C8800CF00220033082100042F22003108210060
:100C9800B100220032082100B200220033082100EE
:100CA800B3000030AE000030AF004030B000A531D6
:100CB8009025863121002E08BE002F08BF0030087D
:100CC800C000BF31D227863121003E08C4003F084A
:100CD800C5004008C6000030C100B430C20043302F
:100CE800C300993104218631210041082200B40053
:100CF800210042082200B500210043082200B60066
:100D080034082100BE00220035082100BF0022005F
:100D180036082100C000BF31D227863121003E08A5
:100D2800AE003F08AF004008B0000030C100B4304A
:100D3800C2004330C300220031082100BE00220057
:100D480032082100BF00220033082100C000BF3153
:100D5800D227863121003E08C4003F08C50040085C
:100D6800C60099310421863121004108CE0042088D
:100D7800CF004308D0000030D1003430D2004330D7
:100D8800D300A4313424863121004E08B1004F0825
:100D9800B2005008B300A5319025863121002E08F5
:100DA8002200B70021002F082200B80021003008D7
:100DB8002200B90000302100C100B430C200433025
:100DC800C300220031082100BE00220032082100A1
:100DD800BF00220033082100C000BF31D22786316E
:100DE80021003E08C4003F08C5004008C6009931EC
:100DF8000421863121004108CE004208CF00430873
:100E0800D0000030D1003430D2004330D300A431B8
:100E18003424863121004E082200BA0021004F08F0
:100E28002200BB00210050082200BC003708210026
:100E3800BE00220038082100BF0022003908210026
:100E4800C000BF31D227863121003E08C1003F08CB
:100E5800C2004008C30022002E082100AE00220074
:100E68002F082100AF00220030082100B000220026
:100E78003A082100B10022003B082100B2002200FC
:100E88003C082100B300A5319025863121002E08A9
:100E9800C4002F08C5003008C600993104218631E6
:100EA800210041082200BD00210042082200BE00A6
:100EB800210043082200BF0000302100A000343088
:100EC800A1004330A20022003D082100A300220017
:100ED8003E082100A40022003F082100A500A831F7
:100EE8000020863103188B2F00302100C100873085
:100EF800C200C330C30022003D082100C400220004
:100F08003E082100C50022003F082100A72F00301D
:100F18002100C100B430C2004230C30022003D08A5
:100F28002100BE0022003E082100BF0022003F0829
:100F38002100C000BF31D227863121003E08C400FD
:100F48003F08C5004008C6009931042186312100B8
:100F580041082200BD00210042082200BE002100F5
:100F680043082200BF0000302100CE001030CF001F
:100F78004130D0000030AE002030AF00C130B000AA
:100F880022003D082100B10022003E082100B200E5
:100F980022003F082100B300A531902586312100A9
:100FA8002E08D1002F08D2003008D300A4313424F1
:100FB800863121004E082200BD0021004F08220082
:100FC800BE00210050082200BF003D08A0003E08D6
:100FD800A1003F08A200A131582122002108AF003A
:100FE8002008AE00080020006B082500B60020008D
:080FF8006A082500B50008009D
:101004002400C60122002F08B6002E08B5000030C7
:10101400B2008030B3003F30B4002F280030B2005B
:101024000030B30040302D28A630B2002A302B28DF
:101034000030B20000302B28A630B200AA30252898
:101044000030B2008030B3003E302D280030B200B2
:101054008030B3003F30B40048283108003A031907
:10106400342848283008013A03191028033A031990
:101074001628013A03191A28073A03191E28013AB7
:1010840003192228033A031928284828360821007E
:10109400A900220035082100A800B231EC228831D1
:1010A40021002808B1002908B2002A08B300220050
:1010B40032082100AE00220033082100AF002200D4
:1010C40034082100B000A5319025883121002E0874
:1010D4002200A00021002F082200A10021003008D6
:1010E4002200A200A1315821883122002108B60033
:1010F4002008B50036083606031D82283508350653
:10110400031987282400C601C60A22003608AF0046
:101114003508AE00080040302600220203189A2841
:1011240000302100B500B600B23154228831952C2C
:1011340001302100B5000030B600B23154228831AC
:10114400952C2000DC1BE8285C08031DB2285B08F2
:10115400031DB2281B30590206305A3B031CE828F1
:101164000030DC000030DB000030DA000030D90051
:1011740001302400E5000030E60000302500D900ED
:101184000030D8000030D7000030D6002400EC0135
:101194002300EF01EF0A6F086C02031C952C6F0803
:1011A400D1000130D135FF3E031DD4285135A03E76
:1011B4008600023087000030C03F0030C13FC23F8C
:1011C400C33F0130D1005108EF07CD282000DC1BBC
:1011D400FF285C08031DF7285B08031DF7289430DB
:1011E400590204305A3B031CFF280030DC00003055
:1011F400DB000430DA009430D90023006C08D100FD
:10120400D2015108DD005208DE0024006608803A4D
:10121400803C031D1029650823006C02031C42292D
:10122400200059082500D60720005A082500D73D7C
:1012340020005B082500D83D20005C082500D93D2E
:10124400240065082300D1000130D135FF3E031D81
:1012540027295135A03E8600023087002000590816
:10126400C03F5A08C13F5B08C23F5C08C33F24002B
:1012740066082300DE00240065082300DD00BA2987
:1012840000302500D9000030D8000030D7000030ED
:10129400D6002300EF01EF0A6C086F0203189629A9
:1012A4006F08D1000130D135FF3E031D552951355A
:1012B400043EA03E860002308700403FD200413FFA
:1012C400D300423FD400433FD5006F08D60001301D
:1012D400D635FF3E031D6A295635A03E86000230EE
:1012E40087005208C03F5308C13F5408C23F550805
:1012F400C33F6F08D1000130D135FF3E031D7E2965
:101304005135A03E860002308700403F2500D607B5
:10131400413FD73D423FD83D433FD93D01302300B3
:10132400D1005108EF074E296C08D1000130D135A6
:10133400FF3E031D99295135A03E860002308700E7
:1013440020005908C03F5A08C13F5B08C23F5C08EF
:10135400C33F59082500D60720005A082500D73D69
:1013640020005B082500D83D20005C082500D93DFD
:1013740023005D082100A00023005E082100A100D5
:10138400890D893B8909A200A30025005908210081
:10139400A700250058082100A600250057082100B1
:1013A400A500250056082100A400A0315120883151
:1013B400210021082000EB00210020082000EA0081
:1013C4002400EC01EC0A00302000DC000030DB00DB
:1013D4000030DA000030D9008731F7278831952CA6
:1013E400C0302100EA007F30EB004430EC000030D4
:1013F400E7000030E8000030E9000030E40000308D
:10140400E5000030E6000030E100FE30E20042304A
:10141400E3002600220890310020883121002808AA
:10142400DE002908DF002A08E000A131DF2188312D
:1014340021005E082200A00021005F082200A10014
:10144400210060082200A200A13158218831220025
:1014540021082400BF00220020082400BE003F0809
:101464002100A90024003E082100A800B231EC228A
:101474008831210028082300D700210029082300EF
:10148400D80021002A082300D90057082200E700C9
:10149400230058082200E800230059082200E9002C
:1014A400A33196238831220068082600990022007F
:1014B40067082600980024003F082100A9002400A2
:1014C4003E082100A800B231EC228831210028080E
:1014D4002300DA00210029082300DB0021002A0868
:1014E4002300DC005A082200E70023005B082200E6
:1014F400E80023005C082200E900A6314426883174
:101504002200680826009D002200670826009C002F
:10151400952CC0302100EA007F30EB004430EC0011
:101524000030E7000030E8000030E9000030E4005B
:101534000030E5000030E6000030E100FE30E2005B
:101544004230E30026002208903100208831210037
:101554002808DE002908DF002A08E000A131DF2185
:10156400883121005E082200A00021005F082200CB
:10157400A100210060082200A200A1315821883175
:10158400220021082400BF00220020082400BE00FD
:101594003E092300D10024003F092300D200D10AD0
:1015A4000319D20A5108FF3E2100A800033023008A
:1015B400523D2100A900B231EC22883121002808D3
:1015C4002300DF00210029082300E00021002A086D
:1015D4002300E1005F082200E700230060082200E6
:1015E400E800230061082200E900A031D3208831FB
:1015F4002200680825009200220067082500910057
:1016040024003E092300D10024003F092300D20016
:10161400D10A0319D20A5108FF3E2100A800033061
:101624002300523D2100A900B231EC22883121006F
:1016340028082300DF00210029082300E0002100FE
:101644002A082300E1005F082200E7002300600865
:101654002200E800230061082200E900A031D32021
:1016640088312200680825009900220067082500B7
:101674009800952C80302100EA009D30EB00433027
:10168400EC000030E7003430E8004230E90000307C
:10169400E4000030E5000030E6000030E100FE30F8
:1016A400E2004230E3002600220890310020883115
:1016B40021002808DE002908DF002A08E000A13103
:1016C400DF21883121005E082200A00021005F088C
:1016D4002200A100210060082200A200A1315821AB
:1016E4008831220021082300EB0022002008230077
:1016F400EA00952C40302100EA003030EB00453000
:10170400EC000030E7003430E8004330E9000030FA
:10171400E4000030E5000030E6000030E100FE3077
:10172400E2004230E3002600220890310020883194
:1017340021002808DE002908DF002A08E000A13182
:10174400DF21883121005E082200A00021005F080B
:101754002200A100210060082200A200A13158212A
:101764008831220021082000EB00220020082000FC
:10177400EA008731F7278831952C00302100EA00F0
:101784000030EB000030EC006030E7009F30E800F0
:101794004430E9000030E4000030E5000030E600A9
:1017A4000030E100FE30E2004230E300260022086F
:1017B40090310020883121002808DE002908DF004C
:1017C4002A08E000A131DF21883121005E082200CF
:1017D400A00021005F082200A1002100600822006F
:1017E400A200A13158218831220021082500DB0004
:1017F400220020082500DA00952C26002208230068
:10180400D100D20151082000EC002300520820002E
:10181400ED006D08803A2300D10080305102031D91
:10182400162C063020006C02031C1D2C06302000F0
:10183400EC000030ED0020006C086D04031D262C24
:101844000630EC000030ED006D082100A1002000FE
:101854006C082100A0000130A2000030A300AC31CC
:10186400402488312400EC01EC0ABF31B8278831C8
:10187400952C2400CE01CE0A260022082300D10094
:10188400D2015108E2005208E3006308803AD10013
:1018940080305102031D502C06306202031C572C69
:1018A40001302300E2000030E30023006308803AA3
:1018B400D10080305102031D612C013062020318F3
:1018C400682C01302300E2000030E30023006308A9
:1018D4002100A100230062082100A000B631902657
:1018E4008831BF31B0278831952C260021080E3A63
:1018F4000319F229013A03198B2A1F3A03193C2BC5
:10190400013A03197C2B033A0319BF2B013A03193B
:10191400FF2B073A03193B2C493A0319A3283B3AF6
:101924000319FE2F952CB531E5258831AC31E82417
:101934008831A7310F278831200065030319A52CAE
:10194400963123268831200065030319B42C6408DA
:1019540024006D060319B42CAA3160228831A03109
:10196400002088310030B13145218831210021081F
:101974002400B100210020082400B0000130B1315E
:1019840045218831210021082400B30021002008CA
:101994002400B2000230B1314521883121002108F0
:1019A4002400B500210020082400B4000330B13124
:1019B40045218831210021082400B7002100200896
:1019C4002400B6000430B1314521883121002108BA
:1019D4002400B900210020082400B8002000620877
:1019E400031D092D240031082300E50024003008DC
:1019F4002300E400240033082300E7002400320815
:101A04002300E60024003908DE003808DD00230046
:101A14006409D1006509D200D10A0319D20A24004D
:101A2400300823005107D300240031082300523D1D
:101A3400D4005408803AD50080305502031D242D6B
:101A4400043053020318432D23006409D1006509AF
:101A5400D200D10A0319D20A240030082300510706
:101A6400D300240031082300523DD4005408803AA6
:101A7400D5007F305502031D412DFD30530203185C
:101A8400552D240031082300E500240030082300EC
:101A9400E40065082200EB00230064082200EA0049
:101AA400AD31A625883123006609D1006709D2002B
:101AB400D10A0319D20A2400320823005107D300A3
:101AC400240033082300523DD4005408803AD50042
:101AD40080305502031D702D0430530203188F2DDE
:101AE40023006609D1006709D200D10A0319D20A7A
:101AF4002400320823005107D300240033082300B4
:101B0400523DD4005408803AD5007F305502031D5D
:101B14008D2DFD3053020318A12D2400330823001A
:101B2400E700240032082300E60067082200EB00E7
:101B3400230066082200EA00A2316A2288312300C9
:101B44006809D1006909D200D10A0319D20A240014
:101B5400340823005107D300240035082300523DE4
:101B6400D4005408803AD50080305502031DBC2DA2
:101B7400043053020318DB2D23006809D1006909DE
:101B8400D200D10A0319D20A2400340823005107D1
:101B9400D300240035082300523DD4005408803A71
:101BA400D5007F305502031DD92DFD305302031893
:101BB400ED2D240035082300E90024003408230017
:101BC400E80069082200AF00230068082200AE0084
:101BD400AC319424883123006A09D1006B09D20006
:101BE400D10A0319D20A25006A0823005107D30039
:101BF40025006B082300523DD4005408803AD500D8
:101C040080305502031D082E023053020318272E7C
:101C140023006A09D1006B09D200D10A0319D20A40
:101C240025006A0823005107D30025006B08230010
:101C3400523DD4005408803AD5007F305502031D2C
:101C4400252EFF30530203182A2E2400CE01CE0A7B
:101C540020006208031D332E24003708DC003608F8
:101C6400DB0024005B092300D10024005C0923006D
:101C7400D200D10A0319D20A2400360823005107DE
:101C8400D300240037082300523DD4005408803A7E
:101C9400D50080305502031D512E04305302031821
:101CA400732E24005B092300D10024005C09230067
:101CB400D200D10A0319D20A24003608230051079E
:101CC400D300240037082300523DD4005408803A3E
:101CD400D5007F305502031D712EFD3053020318C9
:101CE400C02E24003708DC003608DB004030210019
:101CF400EA003030EB004530EC000030E7003430CF
:101D0400E8004330E900C030E4007F30E5004430AF
:101D1400E6000030E1000030E2000030E30024007F
:101D24005C082100A90024005B082100A800B2314E
:101D3400EC22883121002808DE002908DF002A0867
:101D4400E000A131DF21883121005E082200A000DB
:101D540021005F082200A100210060082200A200E7
:101D6400A13158218831220021082000EB002200F3
:101D740020082000EA008731F727883120006A090B
:101D84002300D10020006B092300D200D10A0319DB
:101D9400D20A2500680823005107D30025006908EA
:101DA4002300523DD4005408803AD50080305502B7
:101DB400031DDE2E013053020318F62E20006A099B
:101DC4002300D10020006B092300D200D10A03199B
:101DD400D20A250068082300510752080318520A42
:101DE40025006907891FF92E2400EC01EC0A240060
:101DF4005D092300D10024005E092300D200D10A2A
:101E04000319D20A2400380823005107D300240000
:101E140039082300523DD4005408803AD50080305C
:101E24005502031D172F043053020318392F2400C1
:101E34005D092300D10024005E092300D200D10AE9
:101E44000319D20A2400380823005107D3002400C0
:101E540039082300523DD4005408803AD5007F301D
:101E64005502031D372FFD30530203188E2F240013
:101E74003908DE003808DD0000302100EA000030B7
:101E8400EB000030EC006030E7009F30E8004430A5
:101E9400E900C030E4007F30E5004430E600003063
:101EA400E1000030E2000030E30024005E0821007D
:101EB400A90024005D082100A800B231EC22883179
:101EC40021002808DE002908DF002A08E000A131EB
:101ED400DF21883121005E082200A00021005F0874
:101EE4002200A100210060082200A200A131582193
:101EF4008831220021082500DB002200200825006B
:101F0400DA0024005E082100A30024005D082100FB
:101F1400A200B0317C20883124006C03031DC22F41
:101F240020006A08E6006B08E700890D893B8909EF
:101F3400E800E9006B082200AF0020006A082200D4
:101F4400AE0020006D082200B10020006C082200C1
:101F5400B00088310220883122002E082000E600DB
:101F640022002F082000E700890D893B8909E80039
:101F7400E900AA31152288312400CE01CE0AEC01F1
:101F84007A30860024308700403F2300D100413F4F
:101F9400D20063085206031DD12F62085106031DA7
:101FA400F72F7C30860024308700403FD100413F2A
:101FB400D2006B085206031DE12F6A085106031D67
:101FC400F72F7E30860024308700403FD100413F08
:101FD400D2002400430823005206031DF52F2400D9
:101FE4004208230051060319FC2F8331CF2320001C
:101FF400E201E20A98318E289831D3282100AF00FB
:102004002F08AB00AC01AD012B08A0002C08A100E7
:102014002D08A2008E30AE002E08A300A401AD311D
:10202400412521002008A8002108A9002208AA00AF
:10203400080022003E082100A00022003F082100E1
:10204400A100220040082100A2000030A3000030BB
:10205400A4000030A500A8310020903103183F28C7
:1020640021302500E6000030E70000302200BE00E9
:102074000030BF000030C0000800220040083F04C8
:102084003E04031D522822302500E6000030E700FC
:1020940000302200BE000030BF000030C000080045
:1020A40000302100C1008030C200BF30C3000030C6
:1020B400AE000030AF004030B00042302200C1001A
:1020C40041082100A30022003E082100A0002200B4
:1020D4003F082100A100220040082100A200B731DE
:1020E400C027903121002008B1002108B200220845
:1020F400B300A5319025903121002E08C4002F088B
:10210400C5003008C60099310421903121004108EE
:102114002200BE00210042082200BF002100430823
:102124002200C000FF30C207FF30C33D3E08B400A8
:102134003F08B5004008B6001E30B700B030B80004
:102144000830B9000030BA00AE310F2690312200B9
:102154003408BE003508BF003608C0003E08210020
:10216400C10022003F082100C200220040082100D3
:10217400C3007230AE003130AF003F30B0002200F7
:1021840043082100A900220042082100A800B2311E
:10219400EC22903121002808B1002908B2002A0855
:1021A400B300A5319025903121002E08C4002F08DA
:1021B400C5003008C60099310421210041082200DD
:1021C400BE00210042082200BF0021004308220073
:1021D400C000080000302200C2008030C3003F303D
:1021E400C4000030BF000030C0000030C100370818
:1021F4002100A000220038082100A1002200390893
:102204002100A200220034082100A3002200350886
:102214002100A400220036082100A500A8310020D6
:102224009031031C2129220037082100CE0022000E
:1022340038082100CF00220039082100DC292200BF
:1022440037082100B100220038082100B200220022
:1022540039082100B3000030AE000030AF00403038
:10226400B000A5319025903121002E08BE002F0822
:10227400BF003008C000BF31D227903121003E0892
:10228400C4003F08C5004008C6000030C100B43097
:10229400C2004330C3009931042190312100410828
:1022A4002200BC00210042082200BD002100430896
:1022B4002200BE003C082100BE0022003D0821008F
:1022C400BF0022003E082100C000BF31D227903158
:1022D40021003E08AE003F08AF004008B0000030C7
:1022E400C100B430C2004330C300220037082100CB
:1022F400BE00220038082100BF0022003908210056
:10230400C000BF31D227903121003E08C4003F08ED
:10231400C5004008C60099310421903121004108CC
:10232400CE004208CF004308D0000030D100343042
:10233400D2004330D300A4313424903121004E081C
:10234400B1004F08B2005008B300A5319025903178
:1023540021002E082200BF0021002F082200C00007
:10236400210030082200C10000302100C100B43037
:10237400C2004330C300220037082100BE002200FF
:1023840038082100BF00220039082100C000BF31F5
:10239400D227903121003E08C4003F08C500400800
:1023A400C60099310421903121004108CE00420831
:1023B400CF004308D0000030D1003430D200433085
:1023C400D300A4313424903121004E082200C200ED
:1023D40021004F082200C300210050082200C4003D
:1023E40000302100CE004030CF004030D000220029
:1023F4003F082100BE00220040082100BF00220047
:1024040041082100C000BF31D227903121003E088D
:10241400C1003F08C2004008C30022003408210064
:10242400AE00220035082100AF002200360821004A
:10243400B000220042082100B1002200430821001C
:10244400B200220044082100B300A5319025903148
:1024540021002E08C4002F08C5003008C600993199
:102464000421903121004108D1004208D2004308E0
:10247400D300A4313424903121004E082200C50039
:1024840021004F082200C600210050082200C70086
:102494004508A0004608A1004708A200A131582120
:1024A400903122002108AF002008AE000330B000B4
:1024B4000030B100B2313822903182302200BA00AB
:1024C4002430BB002E083A0786002F083B3D8700C6
:1024D400403FC500413FC600423FC70045082100B8
:1024E400B100220046082100B20022004708210062
:1024F400B3000030AE00C830AF00C230B000A53128
:102504009025903121002E082200A00021002F08E0
:102514002200A100210030082200A200A13158218C
:1025240022002108B5002008B40008002300A100FF
:1025340003302100A0000030A10023002108220064
:10254400CF00D0014F082100A20022005008210032
:10255400A300AB31EE239231210020082200D100E8
:1025640051082300A20003302200CF004F082100AD
:10257400A00023002208B13121219231FF3A013E0B
:10258400230021072200D00050082300C100A330FB
:102594002100A3000130A400230022082200CF0060
:1025A4004F082100A5001E302200D0005008210051
:1025B400A600B531AD2592312200D1005108230087
:1025C400A0000A302200CF004F082100A000230001
:1025D4004108B13121219231A33E860001308700A8
:1025E400403F2200B400413FB500B6010430D000A2
:1025F4005008B700A931CD21923122003408D1000E
:1026040051082300D0000A302200CF004F082100D7
:10261400A00023004108B13121219231A33E86005C
:1026240001308700403F2200B400413FB500B601AD
:10263400B60A0430D0005008B700A931CD21923138
:1026440022003408D10051082300C5000A302200BA
:10265400CF004F082100A00023004108B1312121FF
:102664009231A33E860001308700403F2200B4002F
:10267400413FB5000230D0005008B6000430D1000C
:102684005108B700A931CD21923122003408D2007B
:1026940052082300C6000A302200CF004F08210050
:1026A400A00023004108B13121219231A33E8600CC
:1026B40001308700403F2200B400413FB5000330A1
:1026C400D0005008B6000430D1005108B700A93139
:1026D400CD21923122003408D20052082300C700D1
:1026E4000A302200CF004F082100A0002300410837
:1026F400B13121219231023EA33E86000130870090
:10270400403F2300C300413FC4000A302200CF00F1
:102714004F082100A00023004108B131212192314A
:10272400043EA33E860001308700403F2300C800DA
:10273400413FC9000A302200CF004F082100A00009
:1027440023004108B13121219231063EA33E860087
:1027540001308700403F2300CA00413FCB000A30CC
:102764002200CF004F082100A00023004108B1310E
:1027740021219231083EA33E8600013087000108E2
:102784002200D000D101D035D10DD035D10D500863
:102794002300CC00220051082300CD000A3022007F
:1027A400CF004F082100A00023004108B1312121AE
:1027B4009231093EA33E86000130870001082200C1
:1027C400D000D101D035D10DD035D10D5008230022
:1027D400CE00220051082300CF004203031DC20192
:1027E4004503031DC50107304602031CFF2B0630B9
:1027F4002200CF004F082300C60047080319062C07
:1028040006304702031C082CC701C70A48084904BC
:102814000319132C04304902003003194802031C25
:10282400172CE830C8000330C9004A084B040319C8
:10283400222C04304B02003003194A02031C262CBC
:10284400E830CA000330CB004C084D040319312C86
:1028540004304D02003003194C02031C352CE830BF
:10286400CC000330CD004E084F040319402C043033
:102874004F02003003194E02031C442CE830CE00F2
:102884000330CF00C230860001308700403084001E
:10289400013085000F302200CF0016001A00CF0B44
:1028A4004F2C08002200CB013E082100A00022008A
:1028B4003F082100A100220040082100A2000030AE
:1028C400A3000030A4000030A500A83100209431FA
:1028D4000318892C22003E082100BE0022003F0874
:1028E4002100BF00220040082100C000BF31D227D0
:1028F400943121003E082200BE0021003F0822003E
:10290400BF00210040082200C000CB01CB0AFA30EE
:102914002100AE002230AF003E30B00022003E085D
:102924002100B10022003F082100B200220040082B
:102934002100B300A5319025943121002E082200F6
:10294400BE0021002F082200BF0021003008220011
:10295400C0003E08AE003F08AF004008B000A431FC
:10296400DD24943122002E08B7002F08B800300867
:10297400B9003E08BA003F08BB004008BC00B431AF
:102984002A24943122003708BE003808BF003908D1
:10299400C00000302100AE008030AF004030B000F5
:1029A40022003E082100B10022003F082100B200AD
:1029B400220040082100B300A53190259431210064
:1029C4002E082200BE0021002F082200BF00210093
:1029D40030082200C00000302100A0000030A10017
:1029E4004030A20022003E082100A30022003F083C
:1029F4002100A400220040082100A500A8310020E5
:102A040094310318252D00302200B7000030B8009F
:102A14004030B9003E08BA003F08BB004008BC0083
:102A2400B4312A24943122003708BE003808BF008C
:102A34003908C0004B08031D212D0130222D003020
:102A4400C1004108CB0000302100A0008030A1006B
:102A54003F30A20022003E082100A30022003F08CC
:102A64002100A400220040082100A500A831002074
:102A740094310318692D00302100C1000030C200D8
:102A84004030C30022003E082100BE0022003F085F
:102A94002100BF00220040082100C000BF31D2271E
:102AA400943121003E08C4003F08C5004008C60018
:102AB400993104219431210041082200BE002100F3
:102AC40042082200BF00210043082200C000220067
:102AD4003E082100AE0022003F082100AF00220082
:102AE40040082100B00022003E082100B10022006D
:102AF4003F082100B200220040082100B300A531A4
:102B04009025943121002E082200C80021002F08AE
:102B14002200C900210030082200CA004808B4007D
:102B24004908B5004A08B6004830B700B030B800CC
:102B34000330B9000030BA00AE310F2694312200C0
:102B44003408C2003508C3003608C4000430B90094
:102B54000030BA003930B700B030B8004808B400CB
:102B64004908B5004A08B600AE310F269431220058
:102B740034082100D100220035082100D2002200AF
:102B840036082100D300220042082100CE00220092
:102B940043082100CF00220044082100D000A431C2
:102BA4003424943121004E082200C50021004F082E
:102BB4002200C600210050082200C7004508210059
:102BC400AE00220046082100AF0022004708210081
:102BD400B00022003E082100B10022003F0821007D
:102BE400B200220040082100B300A53190259431A1
:102BF40021002E082200BE0021002F082200BF0061
:102C0400210030082200C0004B08031908003E08C8
:102C14002100BE0022003F082100BF00220040081E
:102C24002100C000BF31D22721003E082200BE008F
:102C340021003F082200BF00210040082200C000FC
:102C440008002100C401200010182F2E240056086B
:102C540003193A2E0130D6023A2E193024005602B6
:102C640003183A2E01302100BC003C082400D6078A
:102C74005608031DE82F2000DC1BC02E5C08031D32
:102C84004C2E5B08031D4C2E1B30590206305A3B58
:102C9400031CC02E2400550303198B2ED501D50A1D
:102CA40000302000DC000030DB000030DA000030AF
:102CB400D90001302400E5000030E6000030250092
:102CC400D9000030D8000030D7000030D6002400EE
:102CD400EC012100C401C40A440823006C02031C53
:102CE4008B2E21004408BC000130BC35FF3E031D7F
:102CF400772E3C35A03E8600023087000030C03F6E
:102D04000030C13FC23FC33F0130BC003C08C40790
:102D14006E2E24004C08031D962ECC01CC0A2000F4
:102D2400EF012400BC01BD0160083D02031D9C2E7F
:102D34005F083C02031C080020006F08031D080004
:102D44006108031D080024006008BD005F08BC0082
:102D540022000D1224004B030319B82E0130210068
:102D6400A0000030A100B131E721080001302100AA
:102D7400B8000030B900B731822708002000DC1BFE
:102D8400CF2E5C08031D08005B08031D08001B30E0
:102D9400590206305A3B031808006F08031D080047
:102DA4002400550303190800D501D50A2000DC1BB3
:102DB400EF2E5C08031DE72E5B08031DE72E9430FD
:102DC400590204305A3B031CEF2E0030DC00003063
:102DD400DB000430DA009430D90023006C082100B1
:102DE400BC00BD013C08C2003D08C30024006608C5
:102DF400803A803C031D012F650823006C02031CEC
:102E0400332F200059082500D60720005A08250032
:102E1400D73D20005B082500D83D20005C08250034
:102E2400D93D240065082100BC000130BC35FF3EBB
:102E3400031D182F3C35A03E860002308700200079
:102E44005908C03F5A08C13F5B08C23F5C08C33FF2
:102E5400240066082100C300240065082100C20084
:102E6400AF2F00302500D9000030D8000030D70043
:102E74000030D6002100C401C40A23006C082100DC
:102E840044020318892F4408BC000130BC35FF3EBE
:102E9400031D482F3C35043EA03E860002308700C7
:102EA400403FBD00413FBE00423FBF00433FC00022
:102EB4004408C1000130C135FF3E031D5D2F41357B
:102EC400A03E8600023087003D08C03F3E08C13F57
:102ED4003F08C23F4008C33F4408BC000130BC3532
:102EE400FF3E031D712F3C35A03E86000230870053
:102EF400403F2500D607413FD73D423FD83D433FA1
:102F0400D93D01302100BC003C08C4073F2F2300F9
:102F14006C082100BC000130BC35FF3E031D8E2F20
:102F24003C35A03E86000230870020005908C03F8F
:102F34005A08C13F5B08C23F5C08C33F59082500DB
:102F4400D60720005A082500D73D20005B0825003D
:102F5400D83D20005C082500D93D21004208A0008E
:102F64004308A100890D893B8909A200A30025001B
:102F740059082100A700250058082100A6002500B3
:102F840057082100A500250056082100A400A031FF
:102F940051209631210021082000EB002100200857
:102FA4002000EA002400EC01EC0A00302000DC00E0
:102FB4000030DB000030DA000030D900013024009A
:102FC400E5070030E63D8731F72708001930240073
:102FD4005602031C0800D501EF0100302100A000B7
:102FE400A100B131E7212400BC01BD01CC0119309D
:102FF4002100BC003C082400D600080020005D032A
:103004005E0403190728BF31A32725003B082200CB
:10301400D50025003A082200D400080022008D12B1
:10302400AE31FD26983112302100A0007A30A10083
:10303400A93141219831BF319F279831B431E5241A
:10304400983122000D108D100D128D1220001014D5
:1030540090140F178F160E148F17B03171209831FA
:10306400B6311D269831B631CB269831B331302391
:103074009831B131332198319831002098312200B0
:1030840055082300E500220054082300E400B03171
:10309400BD209831220055082300E700220054087F
:1030A4002300E600B031CD209831220055082300DA
:1030B400E900220054082300E800B031AD20983123
:1030C400220055082400DE00220054082400DD00FC
:1030D40023006908803AD10084305102031D74280A
:1030E40000306802031C782822008D142300650830
:1030F4002200EB00230064082200EA00AD31A6257B
:103104009831230067082200EB00230066082200A0
:10311400EA00A2316A22983123006B082500EB00F3
:1031240023006A082500EA0020006B082500E90056
:1031340020006A082500E800B331D3239831230026
:10314400D10051082400CF0003304F02031CD128C2
:1031540022008D1424004F082300D100D20151080D
:103164002100A200230052082100A3002030B23124
:103174008C229831033024004F02031CD128B03034
:1031840026002002031CD128C03020020318D128B5
:10319400AF30A0020E3020068C310319772C8C310D
:1031A400952C7F302206031DEE2823006E08031D94
:1031B400E32801302100B5000030B600B2315422BA
:1031C400983122000D1101302100A0000030A1002F
:1031D400B231CB229831D1287E30260022068831A4
:1031E400031D8D2801302100B5000030B600B23136
:1031F4005422983100302100A000A100B231CB222A
:103204009831D12821004108C7004208C80043086A
:10321400C9000310480D490DCA004A08CD004408EE
:10322400C7004508C8004608C9000310480D490DE9
:10323400CA004A08CC004D0803192C294C084D0239
:10324400031833294D03FF3A4C07C70019304702CE
:10325400031C33294408C1004508C2004608C300C2
:1032640008004C08031908004D084C0203184229B1
:103274004C03FF3A4D07C7001930470203180800F2
:103284000630C7004708CB00C31BCB17C61B4B1720
:10329400C217FF30C105FF30C2050030C305C51792
:1032A400FF30C405FF30C5050030C6054C084D028B
:1032B40003187E290130C435C50DC60D890B5D295F
:1032C4000130CC024C084D06031979290130CB0298
:1032D4004B080739031979295C290130C336C20C1C
:1032E400C10C890B70290130C7004708CD074D0870
:1032F4004C060319A3296F294D084C020318A3296E
:103304000130C135C20DC30D890B83290130CD02B3
:103314004C084D0603199F290130CB024B0807398D
:1033240003199F2982290130C636C50CC40C890BA8
:1033340096290130C7004708CC074D084C06031DE9
:103344009529CB1FB529FF30C106FF30C206FF30D7
:10335400C3060130C107003003180130C207003032
:1033640003180130C3074B1FC729FF30C406FF30C1
:10337400C506FF30C6060130C4070030031801300B
:10338400C507003003180130C607CB014108C40744
:103394004208C53D4308C63DC61FE229FF30C406A6
:1033A400FF30C506FF30C6060130C40700300318DD
:1033B4000130C507003003180130C607CB01CB0A22
:1033C4004408A0004508A1004608A2004D08C70013
:1033D4004708A3004B08C8004808A400AD314125A4
:1033E40021002008C1002108C2002208C3000800EF
:1033F4002200E201570856045504031D262A003012
:103404002100A0000030A1000030A20022005808D2
:103414002100A300220059082100A40022005A0818
:103424002100A500A83100209931031C1E2A213057
:103434002500E6000030E70000302200D50000300F
:10344400D6000030D70008005A0859045804031D58
:10345400322A0030D5008030D6003F30D700080033
:1034640055082100A000220056082100A1002200D6
:1034740057082100A2000030A3000030A40000304F
:10348400A500A831002099310318AC2A220058085D
:10349400A0005908A1005A08A200A131582199316D
:1034A40022002308E6002208E5002108E4002008A1
:1034B400E30066082100AB00220065082100AA0091
:1034C400220064082100A900220063082100A8004A
:1034D400B331A923993122005A0821002A06031D79
:1034E4007D2A2200590821002906031D7D2A220075
:1034F40058082100280603198C2A21302500E600EB
:103504000030E70000302200D5000030D600003043
:10351400D7000800220063080139DB005B08E200E1
:1035240055082100BE00220056082100BF002200D9
:1035340057082100C000BF31D227993121003E082D
:103544002200D50021003F082200D60021004008B7
:103554002200D70022005508BE005608BF005708B5
:10356400C00090311B20993122003E08DC003F0846
:10357400DD004008DE0058082100AE002200590892
:103584002100AF0022005A082100B00022005C088C
:103594002100B10022005D082100B20022005E0873
:1035A4002100B300A5319025993121002E08220075
:1035B400DF0021002F082200E00021003008220053
:1035C400E1005F08C8006008C9006108CA009B31B7
:1035D4001023993122004808D5004908D6004A082A
:1035E400D70062080319080055082100BE00220014
:1035F40056082100BF00220057082100C000BF3137
:10360400D22721003E082200D50021003F082200D5
:10361400D600210040082200D700080022004A08F2
:1036240049044804031D1D2B0030C8008030C90024
:103634003F30CA00080072302100A0003130A100E0
:103644004430A200220048082100A30022004908B7
:103654002100A40022004A082100A500A83100206E
:103664009B310318422B22302500E6000030E7008E
:10367400FF302200C8007F30C9007F30CA00080034
:10368400220048082100A000220049082100A100CE
:1036940022004A082100A2004930A3003A30A400C5
:1036A400C430A500A83100209B310318662B2230BA
:1036B4002500E6000030E70000302200C80000309A
:1036C400C9000030CA000800220048082100A000F8
:1036D400220049082100A10022004A082100A2007A
:1036E4000030A3000030A4000030A500A831002061
:1036F4009B3103187F2B0130802B00302200CB003C
:103704004B08D40054080319A12B48082100BE001B
:10371400220049082100BF0022004A082100C000FD
:10372400BF31D2279B3121003E082200C80021006E
:103734003F082200C900210040082200CA00AA3024
:103744002100AE00B830AF003F30B000220048087E
:103754002100B100220049082100B20022004A08D9
:103764002100B300A53190259B3121002E082200B1
:10377400C80021002F082200C900210030082200BF
:10378400CA004808AE004908AF004A08B000A43196
:10379400DD249B3122002E08CC002F08CD003008F8
:1037A400CE004C08A0004D08A1004E08A200A13193
:1037B40058219B3122002108D3002008D20053084D
:1037C4002100A900220052082100A800B231EC22F5
:1037D4009B31210028082200B7002100290822007B
:1037E400B80021002A082200B9004808BA00490894
:1037F400BB004A08BC00B4312A249B31220037089C
:10380400C8003808C9003908CA004808B400490883
:10381400B5004A08B6000030B700B030B80009302F
:10382400B9000030BA00AE310F269B3122003408B3
:10383400BE003508BF003608C0005308C200520855
:10384400C100A231FF229B3122003E08C8003F087C
:10385400C9004008CA00540803190800FF30CF000B
:103864007F30D0007F30D1004A085106031D402C20
:1038740049085006031D402C48084F06031D492CD7
:103884000030C8000030C9000030CA0008004808F1
:103894002100CE00220049082100CF0022004A085E
:1038A4002100D0000030D1008030D2003F30D3005E
:1038B400A431342421004E082200C80021004F08FE
:1038C4002200C900210050082200CA00080020007C
:1038D400B1000330F0000030F1003108AA00AB0160
:1038E4002A08F2002B08F300AB314B239C317008FB
:1038F4002000AC002C08B2000330AA002A08F00013
:103904003208B031DD209C31FF3A013E20003107FE
:10391400AB002B08D1003330F3000030F400320840
:10392400AA002A08F5001E30AB002B08F600B531BA
:1039340077259C312000AC002C08AE000A30AA0088
:103944002A08F0005108B031DD209C31333E860056
:1039540087010030F600F700250042082000AB0084
:10396400AC012B08F8002C08F9000030FA00FB0029
:103974000430FC000030FD00AA31AD229C317608F1
:10398400C03F7708C13F0A302000AA002A08F0008F
:103994005108B031DD209C31333E860087010A3066
:1039A4002000AB002B08F0005108B031DD209C3121
:1039B400333E84008501003FF600013FF7002500F7
:1039C40037082000AC00AD012C08F8002D08F900E0
:1039D4000130FA000030FB000430FC000030FD0030
:1039E400AA31AD229C317608C03F7708C13F0A3026
:1039F4002000AA002A08F0005108B031DD209C31D3
:103A0400333E860087010A302000AB002B08F0000B
:103A14005108B031DD209C31333E84008501003FE4
:103A2400F600013FF700250038082000AC00AD0186
:103A34002C08F8002D08F9000230FA000030FB00D1
:103A44000430FC000030FD00AA31AD229C31760820
:103A5400C03F7708C13F0A302000AA002A08F000BE
:103A64005108B031DD209C31333E860087010A3095
:103A74002000AB002B08F0005108B031DD209C3150
:103A8400333E84008501003FF600013FF700250026
:103A940039082000AC00AD012C08F8002D08F9000D
:103AA4000330FA000030FB000430FC000030FD005D
:103AB400AA31AD229C317608C03F7708C13F0A3055
:103AC4002000AA002A08F0005108B031DD209C3102
:103AD400023E333E8600870125003508C03F360884
:103AE400C13F0A302000AA002A08F0005108B03172
:103AF400DD209C31043E333E8600870125003A08D0
:103B0400C03F3B08C13F0A302000AA002A08F00049
:103B14005108B031DD209C31063E333E86008701DA
:103B240025003C08C03F3D08C13F0A30B43E860032
:103B340002308700403F2000AA00413FAB00AB3673
:103B4400AA0CAB36AA0C2A08AC002C08AF000C3027
:103B5400B43E860002308700403FAA00413FAB00DC
:103B6400AB36AA0CAB36AA0C2A08AC002C08B00061
:103B74002F08AA000A30AB002B08F0005108B0311E
:103B8400DD209C31083E333E8600870120002A0850
:103B940081003008AA000A30AB002B08F00051085D
:103BA400B031DD209C31093E333E86008701200080
:103BB4002A0881003330AA002A08F3001E30AB0023
:103BC4002B08F4003208AB319C230800003022009B
:103BD400BF008030C0003F30C1000030BC00003066
:103BE400BD000030BE0031082100A00022003208D0
:103BF4002100A100220033082100A20022002E0887
:103C04002100A30022002F082100A4002200300874
:103C14002100A500A83100209D31031C1D2E220087
:103C240031082100CE00220032082100CF002200FA
:103C340033082100D82E220031082100B1002200CF
:103C440032082100B200220033082100B300003002
:103C5400AE000030AF004030B000A53190259D315A
:103C640021002E08BE002F08BF003008C000BF315D
:103C7400D2279D3121003E08C4003F08C5004008FA
:103C8400C6000030C100B430C2004330C3009931D3
:103C940004219D31210041082200B4002100420882
:103CA4002200B500210043082200B6003408210098
:103CB400BE00220035082100BF0022003608210082
:103CC400C000BF31D2279D3121003E08AE003F081D
:103CD400AF004008B0000030C100B430C20043302F
:103CE400C300220031082100BE0022003208210056
:103CF400BF00220033082100C000BF31D2279D310C
:103D040021003E08C4003F08C5004008C6009931A0
:103D140004219D3121004108CE004208CF00430810
:103D2400D0000030D1003430D2004330D300A4316D
:103D340034249D3121004E08B1004F08B2005008D0
:103D4400B300A53190259D3121002E082200BC002E
:103D540021002F082200BD00210030082200BE00EF
:103D640000302100C100B430C2004330C30022003F
:103D740031082100BE00220032082100BF002200C9
:103D840033082100C000BF31D2279D3121003E08F5
:103D9400C4003F08C5004008C600993104219D3184
:103DA40021004108CE004208CF004308D000003073
:103DB400D1003430D2004330D300A43134249D31B7
:103DC40021004E082200BF0021004F082200C0003D
:103DD400210050082200C1003F082100B100220048
:103DE40040082100B200220041082100B300220053
:103DF4002E082100AE0022002F082100AF0022006F
:103E040030082100B000A53190259D3121002E08F5
:103E1400C4002F08C5003008C60022003C08210059
:103E2400BE0022003D082100BF0022003E08210000
:103E3400C000BF31D2279D3121003E08C1003F0898
:103E4400C2004008C300993104219D31210041087A
:103E54002200B700210042082200B80021004308D4
:103E64002200B90037082100C400220038082100CC
:103E7400C500220039082100C6000030C1003430DA
:103E8400C200C330C300993104219D31210041088F
:103E9400B1004208B2004308B3000030AE00A030C5
:103EA400AF004030B000A53190259D3121002E088F
:103EB400D1002F08D2003008D3000030CE001030DB
:103EC400CF004130D000A43134249D3121004E086C
:103ED4002200A00021004F082200A1002100500868
:103EE4002200A200A131582122002108BB00200891
:0C3EF400BA003B08AF003A08AE0008001E
:1040000020008F1A0A2824005708031915280130A8
:10401000D70215284B302400570203181528013009
:104020002100B20032082400D7075708031D0800FA
:1040300020006C08013EEC0000306D3DED006D0885
:10404000803A2100B20080303202031D2A28073056
:1040500020006C02031C312801302000EC000030ED
:10406000ED00BF31B827A03120006D082100A1006C
:1040700020006C082100A0000130A2000030A30045
:10408000AC314024A0312400EC01EC0A20008F1E4A
:10409000462814302100AC000030AD00B531452574
:1040A00008002100AA01A31F6228A009A109A209F2
:1040B000A309A00A0319A10A0319A20A0319A30A52
:1040C000AA01AA0AA71F7328A409A509A609A70976
:1040D000A40A0319A50A0319A60A0319A70A01309D
:1040E000A8002808AA060030AE000030AD0000305D
:1040F000AC000030AB002308220421042004031983
:10410000BC28A901A90AA31B91280130A035A10D43
:10411000A20DA30D890B86280130A8002808A90745
:1041200083280130AB35AC0DAD0DAE0D890B922857
:1041300023082702031DA62822082602031DA628FD
:1041400021082502031DA62820082402031CB128EB
:104150002008A4022108A53B2208A63B2308A73B70
:104160002B140130A336A20CA10CA00C890BB22891
:104170000130A902031D91282A080319CA28AB0996
:10418000AC09AD09AE09AB0A0319AC0A0319AD0AB3
:104190000319AE0A2E08A3002D08A2002C08A100C6
:1041A0002B08A00008002200690868046704031DAA
:1041B000DF280030E7008030E8003F30E900C03001
:1041C0002100CE007F30CF004430D00022006708AD
:1041D0002100D100220068082100D20022006908D5
:1041E0002100D300A4313424A03121004E08230043
:1041F000A30021004F082300A40021005008230041
:10420000A50056302200D8008E30D900BF30DA0029
:10421000230023082200D500230024082200D60012
:10422000230025082200D7009931FA21A03122006D
:1042300055082300A600220056082300A7002200EC
:1042400057082300A8009F302100AE006830AF005F
:104250004030B000230026082100B10023002708C9
:104260002100B200230028082100B300A5319025C9
:10427000A03121002E082300A00021002F082300D8
:10428000A100210030082300A20020082200A00085
:10429000230021082200A100230022082200A200FE
:1042A000A131582122002108E8002008E700080079
:1042B00022002008A4002108A5002208A60003105F
:1042C000250D260DA7002708AD002D08031D712917
:1042D0000030A3000030A2000030A1000030A00098
:1042E00008002008A4002108A5002208A600173015
:1042F000A636A50CA40C890B78292408A70027084A
:10430000A800A117FF30A005FF30A1050030A205CD
:104310002008A9002108AA002208AB00AC018E30B9
:10432000AD02AD1FAF292D08803A8F3E0318A12999
:104330000030A3000030A2000030A1000030A00037
:1043400008000130AC36AB0CAA0CA90C890BA229D1
:104350000130A4002408AD070319C829A129183089
:104360002D02031CC5290030A3000030A20000303C
:10437000A1000030A00008000130A935AA0DAB0D46
:10438000AC0D890BBD290130AD022D08031DBC29E0
:1043900028080319D629A909AA09AB09AC09A90A51
:1043A0000319AA0A0319AB0A0319AC0A2C08A300C3
:1043B0002B08A2002A08A1002908A000080021005B
:1043C0006408C1006508C2006608C3006108BE0039
:1043D0006208BF006308C000BF31D227A1312100AD
:1043E0003E08C4003F08C5004008C60099310421BA
:1043F000A13121004108CE004208CF004308D0007F
:104400006A08C1006B08C2006C08C3006708BE00E0
:104410006808BF006908C000BF31D227A131210060
:104420003E08C4003F08C5004008C6009931042179
:10443000A13121004108AE004208AF004308B0009E
:104440005E08C1005F08C2006008C3006108BE00CA
:104450006208BF006308C000BF31D227A13121002C
:104460003E08C4003F08C5004008C6009931042139
:10447000A13121004108B1004208B2004308B30055
:10448000A5319025A13121002E08D1002F08D2009E
:104490003008D300A4313424A13121004E08ED00AE
:1044A0004F08EE005008EF006708C1006808C2001E
:1044B0006908C3006D08C4006E08C5006F08C60017
:1044C0009931042121004108DE004208DF00430841
:1044D000E0000800C0302100C1007F30C20044303D
:1044E000C30022006B082100A90022006A082100F5
:1044F000A800B231EC22A23121002808BE00290810
:10450000BF002A08C000BF31D227A23121003E08D7
:10451000C4003F08C5004008C60099310421A231FB
:10452000210041082200EC00210042082200ED0099
:10453000210043082200EE006C08E7006D08E80047
:104540006E08E900A031D320A231220068082500BE
:1045500092002200670825009100C0302100C100B0
:104560007F30C2004430C30022006B082100A90044
:1045700022006A082100A800B231EC22A2312100F9
:104580002808BE002908BF002A08C000BF31D22772
:10459000A23121003E08C4003F08C5004008C60003
:1045A00099310421A231210041082200EC002100B0
:1045B00042082200ED00210043082200EE006C08B2
:1045C000E7006D08E8006E08E900A031D320A231B1
:1045D000220068082500990022006708250098003D
:1045E00020006203031D080022006B082100A100C7
:1045F00022006A082100A000BF31E4270800220041
:1046000040083F043E04031D0C2B0030BE00003068
:10461000BF000030C000080040087F39C300C4015B
:10462000C335C40D4308C1074408C23D3F0D3F0DCB
:104630000139C300C4014308C1074408C23DC21F79
:104640002E2B22302500E6000030E700003022004B
:10465000BE000030BF000030C00008004208803AB1
:10466000C30081304302031D372B00304102031C7D
:104670007E2B22302500E6000030E70022003E08B5
:104680002100A00022003F082100A10022004008D4
:104690002100A2000030A3000030A4000030A500DB
:1046A000A8310020A2310318762BFF302200C5006C
:1046B0007F30C6007F30C70045082100BE002200C1
:1046C00046082100BF00220047082100C000BF317A
:1046D000D22721003E082200BE0021003F08220010
:1046E000BF00210040082200C0000800FF30220067
:1046F000BE007F30BF007F30C000080022004208AB
:10470000C4004108C300440DC40CC30C4008430658
:1047100080394306C00041080139C300C30CC30CF3
:104720003F0843067F394306BF000800220069089E
:1047300068046704031DA12BFF30E7000030E80088
:10474000080067082100A000220068082100A100DD
:10475000220069082100A2008030A3007F30A4005D
:104760004430A500A8310020A331031CBB2B22003C
:10477000E701E8010800C0302100CE007F30CF0003
:104780004430D000220067082100D10022006808D0
:104790002100D200220069082100D300A431342472
:1047A000A33121004E082300A30021004F0823005D
:1047B000A400210050082300A5006A302200D80080
:1047C0009C30D900BF30DA00230023082200D50036
:1047D000230024082200D600230025082200D70049
:1047E0009931FA21A331220055082300A6002200A6
:1047F00056082300A700220057082300A800E33032
:104800002100AE000B30AF004130B000230026087D
:104810002100B100230027082100B200230028084E
:104820002100B300A5319025A33121002E082300DB
:10483000A00021002F082300A10021003008230040
:10484000A20020082200A000230021082200A100CD
:10485000230022082200A200A131582122002108B1
:10486000E8002008E700080021005108D4005208A1
:10487000D5005308D6000310550D560DD700570824
:10488000DC005C08031D4B2C0030CE000030CF0054
:104890000030D00008004E08D4004F08D500500862
:1048A000D6000310550D560DD7005708DD005D08E2
:1048B000031D612C0030CE000030CF000030D0004E
:1048C00008000030D9000030DA000030DB00893009
:1048D0005D07D4005408DC025108D4005208D5000A
:1048E0005308D6001030D636D50CD40C890B732C57
:1048F0005408D7005708DD004E08D4004F08D500F3
:104900005008D6001030D636D50CD40C890B832C29
:104910005408D7005708DD068030D4005408DD0560
:10492000D217FF30D105FF30D2050030D305CF17A5
:10493000FF30CE05FF30CF050030D0051830D40051
:104940005408D8000130D935DA0DDB0D890BA32CC2
:1049500050085302031DB22C4F085202031DB22C03
:104960004E085102031CBB2C4E08D1024F08D23B0B
:104970005008D33B59140130D135D20DD30D890BDA
:10498000BC2C0130D802031DA22C5908A0005A08E3
:10499000A1005B08A2005C08D4005408A3005D08D5
:1049A000D5005508A400AD31412521002008CE00D6
:1049B0002108CF002208D000080022002E08210084
:1049C000A00022002F082100A100220030082100B1
:1049D000A20035302200B10031082100A300B73118
:1049E000C027A4312200B61F1B2D2E082100A000D5
:1049F00022002F082100A100220030082100A2007F
:104A00000030A3000030A4000030A500A831002031
:104A1000A4310318132D00302200AE008030AF0007
:104A2000BF30B000080000302200AE000030AF0000
:104A30000030B0000800003036021530031935028E
:104A4000031808002E08A0002F08A1003008A200BB
:104A5000A1315821A431220023082100AB002200FB
:104A600022082100AA00220021082100A90022001A
:104A700020082100A800B7310827A4312100280808
:104A80002200B200210029082200B30021002A08D8
:104A90002200B4002E082100A00022002F082100CF
:104AA000A100220030082100A200220032082100CB
:104AB000A300220033082100A400220034082100B2
:104AC000A500A8310020A4310318882D0030210052
:104AD000C1008030C200BF30C30022003208210074
:104AE000C400220033082100C50022003408210040
:104AF000C60099310421210041082200AE002100A6
:104B000042082200AF00210043082200B000080044
:104B100022003208AE003308AF003408B0000800AD
:104B200021002E08B4002F08B5003008B60003108D
:104B3000350D360DB7003708B8003808031DA72D0E
:104B40000030AE000030AF000030B0000800310887
:104B5000B4003208B5003308B6000310350D360D29
:104B6000B7003708BD003D08031DBD2D0030AE0065
:104B70000030AF000030B00008003D087B3EB400BC
:104B80003408B8072E08B4002F08B5003008B60066
:104B90001030B636B50CB40C890BC92D3408B700EB
:104BA0003708BD003108B4003208B5003308B6003C
:104BB0001030B636B50CB40C890BD92D3408B700BB
:104BC0003708BD068030B4003408BD05AF17B217F2
:104BD000FF30B105FF30B2050030B3050030B90039
:104BE0000030BA000030BB000730B4003408BC000D
:104BF0002E1C002E3108B9073208BA3D3308BB3DE0
:104C00000130B036AF0CAE0C890B012E0130B1353E
:104C1000B20DB30D890B072E0130BC02031DF82D18
:104C20000930B4003408BC002E1C1C2E3108B90712
:104C30003208BA3D3308BB3D0130B036AF0CAE0C84
:104C4000890B1D2E0130BB36BA0CB90C890B232EF3
:104C50000130BC02031D142E3908A0003A08A1003F
:104C60003B08A2003808B4003408A3003D08B50092
:104C70003508A400AD31412521002008AE002108EF
:104C8000AF002208B0000800220067082100A00041
:104C9000220068082100A100220069082100A2006A
:104CA0000030A3008030A4003F30A500A8310020D0
:104CB000A63103185F2E2200E701E8010800220058
:104CC00067082100A000220068082100A10022003E
:104CD00069082100A2008030A3007F30A400443086
:104CE000A500A8310020A631031C7C2EFF30220035
:104CF000E7000030E800080000302100C1008030EB
:104D0000C2003F30C300220067082100D10022000A
:104D100068082100D200220069082100D300C030B9
:104D2000CE007F30CF004430D000A4313424A631EF
:104D300021004E08BE004F08BF005008C000BF3120
:104D4000D227A63121003E08C4003F08C500400814
:104D5000C60099310421A631210041082300A30097
:104D6000210042082300A400210043082300A500DD
:104D70006A302200D8009C30D900BF30DA0023000E
:104D800023082200D500230024082200D600230097
:104D900025082200D7009931FA21A63122005508B2
:104DA0002300A600220056082300A700220057086F
:104DB0002300A800E3302100AE000B30AF004130EB
:104DC000B000230026082100B1002300270821009D
:104DD000B200230028082100B300A5319025A63198
:104DE00021002E082300A00021002F082300A1008D
:104DF000210030082300A20020082200A000230088
:104E000021082200A100230022082200A200A131D3
:104E1000582122002108E8002008E70008002000AF
:104E20009018192F240053080319242F0130D3029E
:104E3000242F1930240053020318242F013021009D
:104E4000BC003C082400D3075308031D9E2F4B08C9
:104E5000031D2E2FCB01CB0ABA01BB0160083B0218
:104E6000031D342F5F083A02031C732F4908031DEA
:104E7000732F20006108031D732F22000D112400E1
:104E80004C0303196B2F23006E03031D732F2400A3
:104E9000C901C90A20006308031D592F22000D1102
:104EA00001302100A0000030A100B231CB22A73197
:104EB000732F01302100B5000030B600B23154220A
:104EC000A73100302100A000A100B231CB22A731D0
:104ED00022000D15732F01302100B8000030B900F9
:104EE000B7318227A73120006108031D9B2F2400C2
:104EF0004908031D9B2F23006E03031D882F2400E8
:104F00006E03031D9B2FE801E80AD401D40A9B2FEE
:104F10002400480303199B2FE801C801C80AD401E3
:104F2000200063082100BC003C082400CA002000C7
:104F3000E3012400CB012400EE01080019305302E4
:104F4000031C080020006103031DAE2F2400680825
:104F50002100B500B601B51BB603DD2F24004803C0
:104F6000031DCE2F4A03031DC82F22000D1101304F
:104F70002100A0000030A100B231CB22A7310130C6
:104F80002100B2000030B300B431B624A731E02FC5
:104F900001302100B5000030B600DD2F240054039D
:104FA000031DE02F4908031DE02F20006108031DA9
:104FB000E02F00302100B500B600B2315422A731F5
:104FC0002400C90120006308031DED2F23006E0C8F
:104FD0002200031C0D1103180D1500302100B8002C
:104FE000B900B73182272400CB01C801D401EE01FA
:104FF000EE0A19302100BC003C082400D300080050
:105000002100A21F17282009A6002109A7002209B4
:10501000A800A60A0319A70A0319A80A0030260740
:10502000A0000030273DA1008030283DA200A51F30
:105030002D282309A6002409A7002509A800A60AEF
:105040000319A70A0319A80A00302607A300003095
:10505000273DA4008030283DA5008030A206803086
:10506000A50625082202031D080024082102031DAD
:1050700008002308200208001E302100B200320878
:10508000B4006430A0000030A1000130A200003064
:10509000A300AC314024A83164302100A0000030CE
:1050A000A100B6319026A83121003408B200B30126
:1050B0003208AC003308AD00B5314525A8310030C9
:1050C0002100A000A1000130A2000030A300AC31FB
:1050D0004024A83100302100A000A100B631902664
:1050E000A83121003408B200B3013208AC00330803
:1050F000AD00B5314525080000302000A300003088
:10510000A2000330A100E830A0000C30B600F2305D
:10511000B7000130B8000030B9003508F30034089A
:10512000F2003308F1003208F0003108F7003008CF
:10513000F6002F08F5002E08F400B4315824A831E9
:1051400070082000B6077108B73D7208B83D7308B3
:10515000B93D3908A7003808A6003708A500360869
:10516000A400AF317E2720002308B1002208B00040
:105170002108AF002008AE00080022001D10210009
:105180000E118E1026000D108D110D12210010131E
:1051900090121012901110110F30250093040F304F
:1051A0009A040F30260093040F309A040F309E04A7
:1051B0000F302C0093040F3096040F3099040F30F9
:1051C0009C040F309F0425009D019E019F0100302B
:1051D0009200323091000030990064309800003025
:1051E000260092009630910000309900C830980057
:1051F000BF31C927A831BF31A927080023001908EA
:10520000F0007008F4003F3020005F0603196008CA
:1052100003191F296008F000F101F01BF1030130B0
:105220005F07F200F3010318F30ADF1BF3037108B1
:105230007306031D1D2970087206031D28290130FD
:10524000F00070082000E007403060060319E0011C
:105250003F3020005F06031D2F29DF013329013075
:10526000F0007008DF077408F0005F08203E860039
:105270000430870070088100600A031D0800E00107
:105280000800FF302000DF002100A20022082000DB
:10529000E000542967305129333051291F305129FA
:1052A000193023009B00772921002108253A031992
:1052B00063296E3A03196829313A03196D29EC3ACA
:1052C0000319722977292008803A03194A29772976
:1052D0002008003A03194C2977292008123A0319AB
:1052E0004E2977292008003A0319502977292300ED
:1052F0001E139E161E121E159D171D131D169D11A1
:10530000210091160B178B17080027000C108C102A
:105310000C118C110C12B029720C031C0C10031808
:105320000C140800720C031C8C1003188C14080059
:10533000720C031C0C1103180C150800720C031CD2
:105340008C1103188C150800720C031C0C12031826
:105350000C1608000C148C140C158C150C16080077
:105360007108003A0319B529CC297008013A0319CC
:105370008C29033A03199229013A03199829073A0B
:1053800003199E29013A0319A429033A0319CC29C8
:10539000623A0319AA29CC29080022003608B8006D
:1053A000B9013808AE003908AF003708BA00BB01B0
:1053B0003A08B0003B08B100B2313822A9312200CE
:1053C0002F08BF002E08BE000F30B8000030B90013
:1053D0003E0AEC29B835B90D890BEA293808BC001A
:1053E0003908BD0008303706031D042AFF30B80015
:1053F0000030B9003E0AFE29B835B90D890BFC29E9
:105400003808BC003908BD0034083C05B800350830
:105410003D05B9003E0A0E2AB936B80C890B0C2A94
:105420003808B4003908B50008002400C601B431BA
:105430008724AA31200069082100AB0020006808F9
:105440002100AA00200067082100A90020006608AA
:105450002100A800B7310827AA3121002808D1006F
:105460002908D2002A08D300240043082100A900FB
:10547000240042082100A800B231EC22AA31210008
:105480002808CE002908CF002A08D000A4313424EF
:10549000AA3121004E082200A00021004F0822005E
:1054A000A100210050082200A200A13158212200B1
:1054B00021082400E400220020082400E300080062
:1054C00020000F1B6A2A240047080319752A01309F
:1054D000C702752A4B30240047020318752A013091
:1054E0002100B20032082400C7074708031D080046
:1054F00023006208013EE2000030633DE3006308E0
:10550000803A2100B20080303202031D8A2A063020
:1055100023006202031C912A01302300E2000030C4
:10552000E3002400CE01CE0A230063082100A1007D
:10553000230062082100A000B6319026AA31BF31B5
:10554000B027AA3120000F1FA22A14302100AC007E
:105550000030AD00B531452508007B08F1007A0820
:10556000F0007D08F3007C08F200B2310122AA317C
:1055700071082000A9007008A8000F30A0000030BA
:10558000A100280AC52AA035A10D890BC32A20082D
:10559000A6002108A70008307C067D04031DDE2A32
:1055A000FF30A0000030A100280AD82AA035A10DA4
:1055B000890BD62A2008A6002108A7007908A10097
:1055C0007808A000280AE62AA035A10D890BE42A54
:1055D0002708A3002608A200A209A309760822052D
:1055E000A40077082305A50020082404F60021085C
:1055F0002504F700080001302100B3000030B4009A
:105600003408803AB20080303202031D092B073083
:10561000330203182F2B21003408A1003308A00007
:105620000130A2000030A300AC314024AA31053083
:105630002100AC000030AD00B5314525AA31013064
:105640002100B3070030B43D3408803AB200803006
:105650003202031D2D2B07303302031C0B2B0530A8
:105660002100B5000030B600B61B08003608A100C6
:105670003508A000B6319026AA3105302100AC00D3
:105680000030AD00B5314525AA31FF302100B50706
:10569000FF30B63D342BF601F11F552BF009F1090F
:1056A000F00A0319F10AF601F60AF31F602BF2095A
:1056B000F309F20A0319F30A0130F4007408F6063C
:1056C000F701F8017008710403198F2BF501F50A31
:1056D000F11B742B0130F035F10D890B6B2B013070
:1056E000F4007408F507682B0130F735F80D890BC5
:1056F000752B71087302031D7F2B70087202031C47
:10570000862B7008F2027108F33B77140130F136F2
:10571000F00C890B872B0130F502031D742B7608E2
:105720000319972BF709F809F70A0319F80A7808FB
:10573000F1007708F0000800F80000308B1B013002
:10574000F7000430780203180800213074020318AF
:1057500008007808F500F6010530F535F60D890BDF
:10576000AD2B7508803EF9003F30763DFA008B1373
:105770007A08F1007908F000B2311C22AB31230025
:1057800015131515951674080319E62B7A082300CE
:105790009200790891000130F9070030FA3D730852
:1057A00086008701010893000130F5007508F307B2
:1057B000940174030319951255309600AA3096008F
:1057C0009514000000000130F402C32B23001511D2
:1057D000770C031C8B1303188B1708002100A601FC
:1057E000A11FF92BA009A109A00A0319A10AA6016A
:1057F000A60AA31F042CA209A309A20A0319A30A3B
:105800000130A4002408A606A701A801200821044D
:105810000319332CA501A50AA11B182C0130A035B2
:10582000A10D890B0F2C0130A4002408A5070C2C16
:105830000130A735A80D890B192C21082302031D5F
:10584000232C20082202031C2A2C2008A202210853
:10585000A33B27140130A136A00C890B2B2C01305F
:10586000A502031D182C260803193B2CA709A8091B
:10587000A70A0319A80A2808A1002708A000080001
:1058800027000C108C100C118C110C12762C21009E
:10589000220C2700031C0C1003180C140800210014
:1058A000220C2700031C8C1003188C140800210004
:1058B000220C2700031C0C1103180C1508002100F2
:1058C000220C2700031C8C1103188C1508002100E2
:1058D000220C2700031C0C1203180C1608002700CA
:1058E0000C148C140C158C150C16080021002108C2
:1058F000003A03197C2C932C2008013A0319472CF9
:10590000033A03194F2C013A0319572C073A03198C
:105910005F2C013A0319672C033A0319932C623A5E
:1059200003196F2C932C080080302100EA009D3071
:10593000EB004330EC000030E7003430E800423048
:10594000E900C030E4007F30E5004430E60000307C
:10595000E1000030E2000030E30022002F082100C7
:10596000A90022002E082100A800B231EC22AC319F
:1059700021002808DE002908DF002A08E000A13104
:10598000DF21AC3121005E082200A00021005F0869
:105990002200A100210060082200A200A1315821AC
:1059A000AC31220021082300EB0022002008230054
:1059B000EA0020006203031D080022002F082100D6
:1059C000A10022002E082100A000BF31E42708001A
:1059D00020006408031DEF2C6503031D08008F1BC6
:1059E0003D2D01302500E0070030E13D6108803A9F
:1059F0002100A70080302702031D012D1A30250049
:105A00006002031C080019302500E0000030E100AE
:105A10002000640824006D060319122D2000650380
:105A2000031D232D01302100A70027082300ED07C7
:105A30000B306D02031C1E2DED01ED0A6D08B63111
:105A40005626AC31392D2000640824006A06031D57
:105A5000392D01302100A70027082400EB0706306C
:105A60006B02031C352DEB01EB0A6B08B13183216E
:105A7000AC3120008F1B0800392D2500E001E10129
:105A800008002100230803194A2D220821042004BC
:105A9000031D5B2D0030A0000030A1000030A200EB
:105AA00008000130A5002508A3070130A236A10C8B
:105AB000A00C890B562DFE3022050319742D512D93
:105AC0000130A5002508A3070130A0070030031806
:105AD0000130A107003003180130A2070130A236BF
:105AE000A10CA00C890B6F2DFF3022050319812D0D
:105AF000602D0130A3020130A035A10DA20D890B4C
:105B00007C2DA11B872D023023020318792D231829
:105B10008F2DFF30A0057F30A105FF30A2050310B7
:105B2000A30C2308A500A601A7011030A535A60DDA
:105B3000A70D890B962D2508A0042608A104270887
:105B4000A204240803190800A217080022006B0809
:105B50002100A90022006A082100A800B231EC222D
:105B6000AD31210028082300A900210029082300C5
:105B7000AA0021002A082300AB0029082200E70020
:105B800023002A082200E80023002B082200E90055
:105B9000A3319623AD312200680826009900220027
:105BA00067082600980022006B082100A900220047
:105BB0006A082100A800B231EC22AD31210028088A
:105BC0002300AC00210029082300AD0021002A0891
:105BD0002300AE002C082200E70023002D0822003D
