:100000008231DF2A013400347E14803120007F08E1
:10001000C2000B1D212901302400C1070030C23D60
:100020000030C33D0030C43D20004A08C4004908E8
:10003000C3000130BA000030BB000030BC0000300B
:10004000BD006008BA076108BB3D6208BC3D63089B
:10005000BD3D3D08E3003C08E2003B08E1003A08F2
:10006000E0000130BA000030BB000030BC000030BE
:10007000BD005808BA075908BB3D5A08BC3D5B088B
:10008000BD3D3D08DB003C08DA003B08D9003A08DA
:10009000D8000130BA000030BB000030BC00003096
:1000A000BD005C08BA075D08BB3D5E08BC3D5F084B
:1000B000BD3D3D08DF003C08DE003B08DD003A089E
:1000C000DC000130BA000030BB000030BC00003062
:1000D000BD00230024082000BA07230025082000C3
:1000E000BB3D230026082000BC3D2300270820003C
:1000F000BD3D3D082300A70020003C082300A600CA
:1001000020003B082300A50020003A082300A4009B
:100110000130A0070030A13D0030A23D0030A33DDA
:1001200022006A03031DAB2801302300B207003010
:10013000B33D330820005002031DA22823003208DB
:1001400020004F020318AB2850082300B300200002
:100150004F082300B20022006B03031DC6280130A4
:100160002300B4070030B53D350820005002031DC0
:10017000BD282300340820004F020318C628500869
:100180002300B50020004F082300B4000B1123000A
:100190003C03031D212920005B08803ABA004C086B
:1001A000803A3A02031DDE284B085A02031DDE285E
:1001B0004A085902031DDE2849085802031C212958
:1001C0004508BA004608BB004708BC004808BD0007
:1001D0006009BE006109BF006209C0006309C10077
:1001E000BE0A0319BF0A0319C00A0319C10A3E084F
:1001F000BA073F08BB3D4008BC3D4108BD3DBD1BA3
:100200000E293D08031D21293C08031D21293B0817
:10021000031D212904303A02031821296009BA007C
:100220006109BB00BA0A0319BB0A45083A07BC00BA
:1002300046083B3DBD0058083C07C30059083D3DFA
:10024000C40020005408031D78296508031D78297F
:100250006808031D78296308803ABA004808803A84
:100260003A02031D3D2947086202031D3D29460845
:100270006102031D3D2945086002031C6629220016
:100280000D1600302000E3000030E2000030E100F5
:100290000030E00023004503031D4203031D6629CF
:1002A000B601B701C2015408A4005508A500890D84
:1002B000893B8909A600A700C50120004C08DB0086
:1002C0004B08DA004A08D9004908D8002000E31B8F
:1002D00078296308031D76296208031D76296108C1
:1002E000031D76291E306002031C782922000D129E
:1002F00020006803031DA8292300A31B97292308B6
:10030000031D8C292208031D8C292108031D8C291B
:10031000FA302002031C972922000D14003023001C
:10032000A3000030A2000030A1000030A000A31BF9
:10033000A8292308031DA6292208031DA629210890
:10034000031DA6291E302002031CA82922000D101F
:1003500020006808031D032A6708031D032A4308B9
:10036000BA004408BB000030BB1BFF30BC00BD001E
:100370005B08803ABE003D08803A3E02031DCA2950
:100380003C085A02031DCA293B085902031DCA2909
:100390003A085802031CE7296908031DDA295208A4
:1003A000F1005108F0000130F2000030F300A431F8
:1003B000D724803120004A08C4004908C300003017
:1003C000DB000030DA000030D9000030D800DB1B41
:1003D000032A5B08031DF6295A08031DF62959084C
:1003E000031DF62914305802031C032A6908031D53
:1003F000032A5208F1005108F0000030F200F30027
:10040000A431D7248031230054082000BA002300EF
:1004100055082000BB000030BB1BFF30BC00BD00F6
:1004200023002708803A2000BE003D08803A3E02A3
:100430002300031D2B2A20003C0823002602031D55
:100440002B2A20003B0823002502031D2B2A200015
:100450003A0823002402031CA52A0030A70000301C
:10046000A6000030A5000030A4003708803A200024
:10047000BA0080303A02031D402A3C302300360285
:10048000031C512A2300B601B70100302400C40028
:100490000030C3000030C2000030C10022000D1443
:1004A000532A22000D10230037082000BB00230030
:1004B00036082000BA00BA35BB0D8E30BC002330A0
:1004C000BD003A083C0786003B083D3D8700403FA1
:1004D0002300B800413FB90038082000AE002300D7
:1004E00039082000AF00890D893B8909B000B100AF
:1004F000240045082000B200240046082000B30074
:10050000890D893B8909B400B500A43112248031DA
:1005100020002F082300B90020002E082300B80077
:100520000230F0000030F1003908F3003808F20022
:10053000A631E426803171082600920070089100EF
:1005400001302300B6070030B73D4403031DD32A12
:1005500001302000BA003A082300C3074908803A56
:10056000803C031DB52A48084302031CD82A2200F8
:100570008D14230049082000BB00230048082000F8
:10058000BA00BA35BB0D3B08803ABC0080303C0253
:10059000031DCE2A2300430820003A020318DA2A5A
:1005A0002300C301DA2A230043080319DA2AC3010E
:1005B00022008D1020004208FF007E1009008231C9
:1005C000E12A8E308400233085006230FE00023044
:1005D000FF00AF3182278231FD01583084000030A6
:1005E00085001230FE000030FF00AF3182278231DB
:1005F0002200EA01EB01EC01A0308400013085000B
:100600002830FE000030FF00AF31822782312030D9
:100610008400023085003930FE000030FF00AF3129
:1006200082278231A0308400023085002C30FE0009
:100630000030FF00AF318227823120308400033048
:1006400085004030FE000030FF00AF31822782314C
:10065000A0308400033085004030FE000030FF00F1
:10066000AF3182278231A1308400AF308500453020
:100670008600003087000030FF001330AF3176274E
:10068000823116308400A0308500C83086000130E9
:1006900087000030FF001A30AF3176278231240006
:1006A000803102208231E20080310320E3007E109D
:1006B000200083315B2B9A315C2283311230210080
:1006C000A0007A30A100A43194248331AF314F27A8
:1006D0008331A1319C2183312000101490140F1715
:1006E0008F160E148F17A031EF2083318731F12739
:1006F00083319831582083318A3136228331A231B7
:100700002E228331A731352783319231492283311B
:100710002000680303198F2B8C311D2483312000A6
:10072000680303199E2B67082300600603199E2B9C
:10073000A531B1258331A631462683310030AF3152
:100740008E278331210021082300A90021002008E1
:100750002300A8000130AF318E278331210021080A
:100760002300AB00210020082300AA000230AF3193
:100770008E278331210021082300AD0021002008AD
:100780002300AC000330AF318E27833121002108D4
:100790002300AF00210020082300AE000430AF3159
:1007A0008E278331210021082300B1002100200879
:1007B0002300B0004A09EB004B09EC00EB0A0319D7
:1007C000EC0A28086B07ED0029086C3DEE006E0866
:1007D000803AEF0080306F02031DF02B04306D0271
:1007E00003180B2C23004A09EB004B09EC00EB0A21
:1007F0000319EC0A28086B07ED0029086C3DEE0090
:100800006E08803AEF007F306F02031D092CFD3027
:100810006D020318692C23002908CB002808CA00A0
:100820004B082100A90023004A082100A800A0319C
:10083000A9208331210028082400D900210029089B
:100840002400DA0021002A082400DB0059082200D5
:10085000E70024005A082200E80024005B08220078
:10086000E9009B316E23833122006808260099003D
:10087000220067082600980023004B082100A900E9
:1008800023004A082100A800A031A92083312100BB
:1008900028082400DC00210029082400DD002100B4
:1008A0002A082400DE005C082200E70024005D081E
:1008B0002200E80024005E082200E9009D31E625C0
:1008C00083312200680826009D0022006708260068
:1008D0009C0023004C09EB004D09EC00EB0A0319C6
:1008E000EC0A2A086B07ED002B086C3DEE006E0841
:1008F000803AEF0080306F02031D802C04306D02BF
:1009000003189B2C23004C09EB004D09EC00EB0A6B
:100910000319EC0A2A086B07ED002B086C3DEE006A
:100920006E08803AEF007F306F02031D992CFD3076
:100930006D0203180B2D23002B08CD002A08CC00D4
:100940004C09EB004D09EC00EB0A0319EC0A6B08AB
:10095000FF3E2100A800033023006C3D2100A900C8
:10096000A031A9208331210028082400DF002100C4
:1009700029082400E00021002A082400E1005F0883
:100980002200E700240060082200E800240061083B
:100990002200E900993150218331220068082500A6
:1009A0009200220067082500910023004C09EB000B
:1009B0004D09EC00EB0A0319EC0A6B08FF3E21001D
:1009C000A800033023006C3D2100A900A031A9201C
:1009D0008331210028082400DF0021002908240099
:1009E000E00021002A082400E1005F082200E7005F
:1009F000240060082200E800240061082200E900C9
:100A00009931502183312200680825009900220085
:100A100067082500980023004E09EB004F09EC0001
:100A2000EB0A0319EC0A2C086B07ED002D086C3D4E
:100A3000EE006E08803AEF0080306F02031D222D19
:100A400004306D0203183D2D23004E09EB004F09C1
:100A5000EC00EB0A0319EC0A2C086B07ED002D08DB
:100A60006C3DEE006E08803AEF007F306F02031D90
:100A70003B2DFD306D020318A52D23002D08CF005E
:100A80002C08CE0080302100EA009D30EB0043307E
:100A9000EC000030E7003430E8004230E900C030BC
:100AA000E4007F30E5004430E6000030E100003033
:100AB000E2000030E30023004F082100A9002300DA
:100AC0004E082100A800A031A92083312100280868
:100AD000DE002908DF002A08E0009A31E322833192
:100AE00021005E082200A00021005F082200A10072
:100AF000210060082200A2009931D5218331220013
:100B000021082300D700220020082300D600C201BC
:100B1000C20A5708803AEB0080306B02031D922D09
:100B2000AF305602031CA32D23005708803AEB0078
:100B300080306B02031D9E2DB93056020318A32D81
:100B400022008D14A52D22008D1023005009EB00EA
:100B50005109EC00EB0A0319EC0A2E086B07ED00B3
:100B60002F086C3DEE006E08803AEF0080306F0277
:100B7000031DBC2D04306D020318D72D230050092E
:100B8000EB005109EC00EB0A0319EC0A2E086B0785
:100B9000ED002F086C3DEE006E08803AEF007F30CC
:100BA0006F02031DD52DFD306D020318212E230089
:100BB0002F08D1002E08D00000302100EA003C3080
:100BC000EB004230EC000030E7004030E8004030FD
:100BD000E900C030E4007F30E5004430E60000303A
:100BE000E1000030E2000030E30023005108210062
:100BF000A900230050082100A800A031A9208331BA
:100C000021002808DE002908DF002A08E0009A31C8
:100C1000E322833121005E082200A00021005F084A
:100C20002200A100210060082200A2009931D521F4
:100C30008331220021082300D50022002008230050
:100C4000D40023005209EB005309EC00EB0A03190E
:100C5000EC0A30086B07ED0031086C3DEE006E08C1
:100C6000803AEF0080306F02031D382E04306D0291
:100C70000318532E23005209EB005309EC00EB0A32
:100C80000319EC0A30086B07ED0031086C3DEE00EB
:100C90006E08803AEF007F306F02031D512EFD3049
:100CA0006D0203189D2E23003108D3003008D200B6
:100CB00000302100EA000030EB000030EC00603032
:100CC000E7009F30E8004430E900C030E4007F30A6
:100CD000E5004430E6000030E1000030E200003082
:100CE000E300230053082100A9002300520821003B
:100CF000A800A031A920833121002808DE0029089E
:100D0000DF002A08E0009A31E322833121005E08E7
:100D10002200A00021005F082200A100210060083D
:100D20002200A2009931D52183312200210824001C
:100D3000C600220020082400C50023004203031D32
:100D4000A42E8A313622833123005C03031D7F2BBE
:100D500020004808CC004708CB004608CA004508D8
:100D6000C90046082200C000200045082200BF003C
:100D7000200052082200C200200051082200C100B9
:100D80009F314527833122003F082000C9002200FF
:100D900040082000CA00890D893B8909CB00CC009E
:100DA0002300C501C50A2400D101D201CF01D00121
:100DB0002300DC017F2B2200E20157085604550472
:100DC000031D072F00302100A0000030A1000030DB
:100DD000A200220058082100A30022005908210087
:100DE000A40022005A082100A500A231DB2286318E
:100DF000031CFF2E21302400D3000030D40000302B
:100E00002200D5000030D6000030D70008005A0874
:100E100059045804031D132F0030D5008030D6002C
:100E20003F30D700080055082100A00022005608D6
:100E30002100A100220057082100A2000030A300D9
:100E40000030A4000030A500A231DB228631031857
:100E50008D2F22005808A0005908A1005A08A200AE
:100E60009931D521863122002308E6002208E500C9
:100E70002108E4002008E30066082100AB002200FE
:100E800065082100AA00220064082100A9002200B0
:100E900063082100A800A1311521863122005A08DB
:100EA00021002A06031D5E2F220059082100290671
:100EB000031D5E2F220058082100280603196D2FFC
:100EC00021302400D3000030D40000302200D500AF
:100ED0000030D6000030D700080022006308013936
:100EE000DB005B08E20055082100BE002200560826
:100EF0002100BF00220057082100C000AF31632746
:100F0000863121003E082200D50021003F08220042
:100F1000D600210040082200D70022005508BE005C
:100F20005608BF005708C000903182208631220049
:100F30003E08DC003F08DD004008DE0058082100C4
:100F4000AE00220059082100AF0022005A082100FB
:100F5000B00022005C082100B10022005D082100E1
:100F6000B20022005E082100B3009E319126863136
:100F700021002E082200DF0021002F082200E000BF
:100F8000210030082200E1005F08C8006008C900A5
:100F90006108CA0093315123863122004808D500E8
:100FA0004908D6004A08D700620803190800550806
:100FB0002100BE00220056082100BF002200570871
:100FC0002100C000AF31632721003E082200D50078
:100FD00021003F082200D600210040082200D7004F
:100FE000080098310020873121002108B70020082F
:100FF000B6003708B3003608B200A53167250800EF
:1010020008002100230803190B28220821042004C8
:10101200031D1C280030A0000030A1000030A200F7
:1010220008000130A5002508A3070130A236A10C53
:10103200A00C890B1728FE30220503193528122827
:101042000130A5002508A3070130A00700300318CE
:101052000130A107003003180130A2070130A23687
:10106200A10CA00C890B3028FF302205031942285D
:1010720021280130A3020130A035A10DA20D890B58
:101082003D28A11B48280230230203183A282318BE
:101092005028FF30A0057F30A105FF30A2050310C4
:1010A200A30C2308A500A601A7011030A535A60DA3
:1010B200A70D890B57282508A0042608A104270894
:1010C200A204240803190800A21708002200D20172
:1010D20045082100A000220046082100A1002200AC
:1010E20047082100A2000030A3000030A400003015
:1010F200A500A231DB22883103189C282200450872
:101102002100BE00220046082100BF00220047083D
:101112002100C000AF316327883121003E08220040
:10112200C50021003F082200C6002100400822001D
:10113200C700D201D20AFA302100AE002230AF003D
:101142003E30B000220045082100B10022004608CE
:101152002100B200220047082100B3009E319126EF
:10116200883121002E082200C50021002F0822000C
:10117200C600210030082200C7004508B600460814
:10118200B7004708B8009C319624883122003608FF
:10119200BF003708C0003808C1004508C200460831
:1011A200C3004708C400A1313F21883122003F0813
:1011B200C5004008C6004108C70000302100AE004B
:1011C2008030AF004030B000220045082100B1005D
:1011D200220046082100B200220047082100B30085
:1011E2009E319126883121002E082200C50021005F
:1011F2002F082200C600210030082200C70000305C
:101202002100A0000030A1004030A20022004508C9
:101212002100A300220046082100A4002200470862
:101222002100A500A231DB228831031838290030C1
:101232002200BF000030C0004030C1004508C2009B
:101242004608C3004708C400A1313F21883122006B
:101252003F08C5004008C6004108C7005208031DE8
:101262003429013035290030C8004808D200003046
:101272002100A0008030A1003F30A20022004508DA
:101282002100A300220046082100A40022004708F2
:101292002100A500A231DB22883103187C2900300D
:1012A2002100C1000030C2004030C30022004508C6
:1012B2002100BE00220046082100BF00220047088C
:1012C2002100C000AF316327883121003E08C400ED
:1012D2003F08C5004008C6009131532188312100E2
:1012E20041082200C500210042082200C600210058
:1012F20043082200C700220045082100AE00220058
:1013020046082100AF00220047082100B000220059
:1013120045082100B100220046082100B200220047
:1013220047082100B3009E319126883121002E0802
:101332002200CF0021002F082200D0002100300817
:101342002200D1004F08B4005008B5005108B60081
:101352004830B700A830B8000330B9000030BA00F6
:10136200A7318E27883122003408C9003508CA0007
:101372003608CB000430B9000030BA003930B7006B
:10138200A830B8004F08B4005008B5005108B600A4
:10139200A7318E278831220034082100D100220093
:1013A20035082100D200220036082100D300220095
:1013B20049082100CE0022004A082100CF00220065
:1013C2004B082100D0009D313D25883121004E0877
:1013D2002200CC0021004F082200CD00210050083D
:1013E2002200CE004C082100AE0022004D08210050
:1013F200AF0022004E082100B00022004508210063
:10140200B100220046082100B20022004708210054
:10141200B3009E319126883121002E082200C5009A
:1014220021002F082200C600210030082200C70038
:1014320052080319080045082100BE002200460890
:101442002100BF00220047082100C000AF316327FE
:1014520021003E082200C50021003F082200C600EC
:10146200210040082200C70008007E308600243098
:101472008700403F2200D000413FD10020004E08AB
:1014820022005106031D492A20004D082200500661
:10149200031D5F2A8030860024308700403FD00041
:1014A200413FD1002300570822005106031D5D2A47
:1014B200230056082200500603190800D6013C30CA
:1014C200560203180A2C5608D000D1015008AE006B
:1014D2005108AF000630B0000030B100A03130201A
:1014E2008A3122002F08D5002E08D400EA2B2200D0
:1014F20055082100A900220054082100A800A031AB
:10150200A9208A31210028082200B40021002908DC
:101512002200B50021002A082200B6002300570845
:101522002100A900230056082100A800A031A9200B
:101532008A31210028082200B70021002908220050
:10154200B80021002A082200B900963154268A31B7
:1015520022005608D000D101D035D10D8E30D200F4
:101562002330D3005008520786005108533D8700AC
:101572003408C03F3508C13F012C22005508210024
:10158200A900220054082100A800A031A9208A3114
:10159200210028082200AE00210029082200AF0005
:1015A20021002A082200B000230057082100A900C8
:1015B200230056082100A800A031A9208A31210069
:1015C20028082200B100210029082200B2002100CF
:1015D2002A082200B3008E3105268A3122005608DD
:1015E200D000D101D035D10D8E30D2002330D300BE
:1015F2005008520786005108533D87002E08C03F0D
:101602002F08C13F012C220055082100A900220009
:1016120054082100A800A031A9208A3121002808FD
:101622002200C800210029082200C90021002A083E
:101632002200CA00230057082100A90023005608EF
:101642002100A800A031A9208A3121002808220007
:10165200CB00210029082200CC0021002A08220008
:10166200CD00A33117238A3122005608D000D101C0
:10167200D035D10D8E30D2002330D300500852071E
:1016820086005108533D87004808C03F4908C13FC2
:10169200012C220055082100A90022005408210033
:1016A200A800A031A9208A31210028082200AE001A
:1016B200210029082200AF0021002A082200B000E0
:1016C200230057082100A900230056082100A80082
:1016D200A031A9208A31210028082200B10021006E
:1016E20029082200B20021002A082200B300943106
:1016F200AA248A3122005608D000D101D035D10D5A
:101702008E30D2002330D300500852078600510891
:10171200533D87002E08C03F2F08C13F012C2200F5
:1017220055082100A900220054082100A800A03178
:10173200A9208A31210028082200C5002100290899
:101742002200C60021002A082200C70023005708F1
:101752002100A900230056082100A800A031A920D9
:101762008A31210028082200C8002100290822000D
:10177200C90021002A082200CA00A0314C208A3167
:1017820022005608D000D101D035D10D8E30D200C2
:101792002330D3005008520786005108533D87007A
:1017A2004508C03F4608C13F012C22005608D00020
:1017B200D101D035D10D8E30D2002330D300500864
:1017C200520786005108533D87000030C03FC13F99
:1017D200012C20004E08003A0319F02BD62B4D089D
:1017E200013A0319782A033A0319BE2A013A031966
:1017F200042B073A03194A2B013A0319902BD62BD3
:1018020001302200D0005008D6073C305602031C9B
:10181200642A7E3086002430870020004D08C03FB5
:101822004E08C13F803086002430870023005608CE
:10183200C03F5708C13F08002100C4012000101812
:10184200292C22006C080319342C0130EC02342CB0
:10185200193022006C020318342C01302100BC0024
:101862003C082200EC076C08031DEB2D2000DF1B57
:10187200BF2C5F08031D462C5E08031D462C1B303F
:101882005C0206305D3B031CBF2C23004603031998
:10189200852CC601C60A00302000DF000030DE00C1
:1018A2000030DD000030DC0001302300D8000030C1
:1018B200D90000302400C0000030BF000030BE005C
:1018C2000030BD002300DC012100C401C40A440829
:1018D20020005502031C852C21004408BC00013065
:1018E200BC35FF3E031D712C3C35203E8600023084
:1018F20087000030C03F0030C13FC23FC33F0130CC
:10190200BC003C08C407682C22006B08031D902C05
:10191200EB01EB0A2000D4012300B401B501200041
:10192200500823003502031D9A2C20004F08230083
:101932003402031C080020005408031D0800650837
:10194200031D080050082300B50020004F082300A3
:10195200B40022000D126A030319B72C01302100D2
:10196200A0000030A100AF31E627080001302100BD
:10197200B8000030B900A331542308002000DF1B57
:10198200CE2C5F08031D08005E08031D08001B30F3
:101992005C0206305D3B031808005408031D080072
:1019A2002300460303190800C601C60A2000DF1BF4
:1019B200EE2C5F08031DE62C5E08031DE62C943016
:1019C2005C0204305D3B031CEE2C0030DF00003073
:1019D200DE000430DD009430DC0055082100BC003C
:1019E200BD013C08C2003D08C30023005908803AEB
:1019F200803C031DFF2C580820005502031C312D8A
:101A020020005C082400BD0720005D082400BE3DC4
:101A120020005E082400BF3D20005F082400C03D76
:101A2200230058082100BC000130BC35FF3E031DD5
:101A3200162D3C35203E86000230870020005C08CF
:101A4200C03F5D08C13F5E08C23F5F08C33F23003D
:101A520059082100C300230058082100C200AD2DFF
:101A620000302400C0000030BF000030BE00003053
:101A7200BD002100C401C40A20005508210044020F
:101A82000318872D4408BC000130BC35FF3E031DFE
:101A9200462D3C35043E203E860002308700403F02
:101AA200BD00413FBE00423FBF00433FC00044086B
:101AB200C1000130C135FF3E031D5B2D4135203E83
:101AC2008600023087003D08C03F3E08C13F3F0804
:101AD200C23F4008C33F4408BC000130BC35FF3E52
:101AE200031D6F2D3C35203E860002308700403FAB
:101AF2002400BD07413FBE3D423FBF3D433FC03D85
:101B020001302100BC003C08C4073D2D20005508CF
:101B12002100BC000130BC35FF3E031D8C2D3C353D
:101B2200203E86000230870020005C08C03F5D082E
:101B3200C13F5E08C23F5F08C33F5C082400BD0787
:101B420020005D082400BE3D20005E082400BF3D49
:101B520020005F082400C03D21004208A000430885
:101B6200A100890D893B8909A200A3002400400835
:101B72002100A70024003F082100A60024003E08FF
:101B82002100A50024003D082100A400903100207E
:101B9200210023082000C800210022082000C700DD
:101BA200210021082000C600210020082000C500D5
:101BB2002300DC01DC0A00302000DF000030DE0000
:101BC2000030DD000030DC0001302300D807003097
:101BD200D93D0800193022006C02031C08002300C2
:101BE200C601E10100302100A000A100AF31E627CB
:101BF2002300B401B5012200EB0119302100BC0021
:101C02003C082200EC00080000302200BA008030BC
:101C1200BB003F30BC000030B7000030B8000030DD
:101C2200B90031082100A000220032082100A100E1
:101C3200220033082100A20022002E082100A30066
:101C420022002F082100A400220030082100A50054
:101C5200A231DB228E31031C3A2E220031082100F0
:101C6200CE00220032082100CF00220033082100DA
:101C7200F52E220031082100B10022003208210095
:101C8200B200220033082100B3000030AE00003061
:101C9200AF004030B0009E3191268E3121002E08D7
:101CA200BE002F08BF003008C000AF3163278E315D
:101CB20021003E08C4003F08C5004008C6000030AD
:101CC200C100B430C2004330C300913153218E3180
:101CD200210041082200B400210042082200B50080
:101CE200210043082200B60034082100BE00220071
:101CF20035082100BF00220036082100C000AF31A4
:101D020063278E3121003E08AE003F08AF00400835
:101D1200B0000030C100B430C2004330C300220022
:101D220031082100BE00220032082100BF0022003B
:101D320033082100C000AF3163278E3121003E08F5
:101D4200C4003F08C5004008C600913153218E31BE
:101D520021004108CE004208CF004308D0000030E5
:101D6200D1003430D2004330D3009D313D258E3135
:101D720021004E08B1004F08B2005008B3009E3156
:101D820091268E3121002E082200B70021002F0853
:101D92002200B800210030082200B90000302100E2
:101DA200C100B430C2004330C30022003108210018
:101DB200BE00220032082100BF00220033082100A9
:101DC200C000AF3163278E3121003E08C4003F08B6
:101DD200C5004008C600913153218E3121004108CF
:101DE200CE004208CF004308D0000030D10034308A
:101DF200D2004330D3009D313D258E3121004E0863
:101E02002200BA0021004F082200BB002100500826
:101E12002200BC0037082100BE0022003808210041
:101E2200BF00220039082100C000AF3163278E3184
:101E320021003E08C1003F08C2004008C300220042
:101E42002E082100AE0022002F082100AF00220040
:101E520030082100B00022003A082100B10022001F
:101E62003B082100B20022003C082100B3009E3151
:101E720091268E3121002E08C4002F08C50030089B
:101E8200C600913153218E31210041082200BD004C
:101E9200210042082200BE00210043082200BF00A8
:101EA20000302100A0008730A1004330A2002200B0
:101EB2003D082100A30022003E082100A4002200C8
:101EC2003F082100A500A231DB228E3103187C2FAE
:101ED20000302100C100B430C200C330C300220070
:101EE2003D082100C40022003E082100C500220056
:101EF2003F082100B02F00302100A000B430A10023
:101F02004230A20022003D082100A30022003E0828
:101F12002100A40022003F082100A500A231DB22FB
:101F22008E310318C02F00302100C1003430C200AE
:101F32004330C30022003D082100BE0022003E08BB
:101F42002100BF0022003F082100C000AF316327FB
:101F52008E3121003E08C4003F08C5004008C6007B
:101F6200913153218E31210041082200BD00210010
:101F720042082200BE00210043082200BF000030B8
:101F82002100CE001030CF004130D0000030AE0032
:101F92002030AF004130B00022003D082100B100E6
:101FA20022003E082100B20022003F082100B300B7
:101FB2009E3191268E3121002E08D1002F08D200A9
:101FC2003008D3009D313D258E3121004E0822007C
:101FD200BD0021004F082200BE002100500822004F
:101FE200BF003D08A0003E08A1003F08A2009931B1
:101FF200D52122002108AF002008AE0008002100F0
:10200200AA01A31F1128A009A109A209A309A00AD4
:102012000319A10A0319A20A0319A30AAA01AA0A07
:10202200A71F2228A409A509A609A709A40A03191A
:10203200A50A0319A60A0319A70A0130A80028084D
:10204200AA060030AE000030AD000030AC00003017
:10205200AB00230822042104200403196B28A901E0
:10206200A90AA31B40280130A035A10DA20DA30D82
:10207200890B35280130A8002808A9073228013029
:10208200AB35AC0DAD0DAE0D890B412823082702EF
:10209200031D552822082602031D55282108250262
:1020A200031D552820082402031C60282008A402CE
:1020B2002108A53B2208A63B2308A73B2B1401308D
:1020C200A336A20CA10CA00C890B61280130A90235
:1020D200031D40282A0803197928AB09AC09AD0968
:1020E200AE09AB0A0319AC0A0319AD0A0319AE0A09
:1020F2002E08A3002D08A2002C08A1002B08A00086
:10210200080022003E082100A00022003F08210012
:10211200A100220040082100A2000030A3000030EC
:10212200A4000030A500A231DB2290310318A628BA
:1021320021302400D3000030D40000302200BE0041
:102142000030BF000030C0000800220040083F04F9
:102152003E04031DB92822302400D3000030D400ED
:1021620000302200BE000030BF000030C000080076
:1021720000302100C1008030C200BF30C3000030F7
:10218200AE000030AF004030B00042302200C1004B
:1021920041082100A30022003E082100A0002200E5
:1021A2003F082100A100220040082100A200A33123
:1021B2009223903121002008B1002108B2002208A8
:1021C200B3009E319126903121002E08C4002F08C1
:1021D200C5003008C60091315321903121004108D9
:1021E2002200BE00210042082200BF002100430855
:1021F2002200C000FF30C207FF30C33D3E08B400DA
:102202003F08B5004008B6001E30B700A830B8003D
:102212000830B9000030BA00A7318E279031220071
:102222003408BE003508BF003608C0003E08210051
:10223200C10022003F082100C20022004008210004
:10224200C3007230AE003130AF003F30B000220028
:1022520043082100A900220042082100A800A03161
:10226200A920903121002808B1002908B2002A08CB
:10227200B3009E319126903121002E08C4002F0810
:10228200C5003008C60091315321210041082200C7
:10229200BE00210042082200BF00210043082200A4
:1022A200C000080021004108C7004208C8004308D6
:1022B200C9000310480D490DCA004A08CD00440860
:1022C200C7004508C8004608C9000310480D490D5B
:1022D200CA004A08CC004D0803197B294C084D025C
:1022E200031882294D03FF3A4C07C70019304702F1
:1022F200031C82294408C1004508C2004608C300E5
:1023020008004C08031908004D084C0203189129D3
:102312004C03FF3A4D07C700193047020318080063
:102322000630C7004708CB00C31BCB17C61B4B1791
:10233200C217FF30C105FF30C2050030C305C51703
:10234200FF30C405FF30C5050030C6054C084D02FC
:102352000318CD290130C435C50DC60D890BAC2932
:102362000130CC024C084D060319C8290130CB02BA
:102372004B0807390319C829AB290130C336C20CEF
:10238200C10C890BBF290130C7004708CD074D0892
:102392004C060319F229BE294D084C020318F229F2
:1023A2000130C135C20DC30D890BD2290130CD02D6
:1023B2004C084D060319EE290130CB024B080739B0
:1023C2000319EE29D1290130C636C50CC40C890B7C
:1023D200E5290130C7004708CC074D084C06031D0C
:1023E200E429CB1F042AFF30C106FF30C206FF30AA
:1023F200C3060130C107003003180130C2070030A4
:1024020003180130C3074B1F162AFF30C406FF30E2
:10241200C506FF30C6060130C4070030031801307C
:10242200C507003003180130C607CB014108C407B5
:102432004208C53D4308C63DC61F312AFF30C406C7
:10244200FF30C506FF30C6060130C407003003184E
:102452000130C507003003180130C607CB01CB0A93
:102462004408A0004508A1004608A2004D08C70084
:102472004708A3004B08C8004808A400883102207E
:1024820021002008C1002108C2002208C300080060
:10249200200090185F2A23003B08803A2100BC00EC
:1024A20080303C02031D582A013023003A02031CEB
:1024B200722AFF302300BA07FF30712A23003B083B
:1024C200803A2100BC0080303C02031D6B2A193087
:1024D20023003A020318722A01302300BA0700309F
:1024E200BB3D23003A083B04031DF22A22006A087E
:1024F200031D802AEA01EA0A2300B201B301200087
:10250200500823003302031D8A2A20004F082300AB
:102512003202031CC82A4008031DC82A200065088D
:10252200031DC82A22000D116B030319C02A2000C3
:102532005703031DC82A2300C001C00A20006608F1
:10254200031DAE2A22000D1101302100A00000302F
:10255200A100A03188209231C82A01302100B200A6
:102562000030B300A5316725923100302100A00070
:10257200A100A0318820923122000D15C82A013015
:102582002100B8000030B900A33154239231200059
:102592006508031DEE2A6608031DEE2A5703031D74
:1025A200E02A240062036304031DEE2A2300DB01F8
:1025B200DB0A01302400D5000030D600EE2A2300C9
:1025C2003E030319EE2ADB01BE01BE0A2400D50137
:1025D200D6012000E6012200EA012400E201E30123
:1025E200080023003B08803A2100BC0080303C02F6
:1025F200031DFE2A193023003A02031C08002000A2
:102602006503031D0D2B23005B082100BC00BD01E7
:102612003C08B2003D082A2B23003E030319152B68
:1026220020006603031D1B2B01302100B200003085
:10263200B3002B2B240055035604031D2E2B200020
:102642006608031D2E2B6508031D2E2B003021006A
:10265200B200B300A531672592312300C0012000EA
:102662006608031D3A2B570C2200031C0D11031898
:102672000D1500302100B800B900A3315423220007
:10268200EA012300BE012400D501D6010130E20097
:102692000030E30019302300BA000030BB0008000C
:1026A20022004A0849044804031D5E2B0030C8007A
:1026B2008030C9003F30CA00080072302100A000FB
:1026C2003130A1004430A200220048082100A300BA
:1026D200220049082100A40022004A082100A50086
:1026E200A231DB2293310318832B22302400D30042
:1026F2000030D400FF302200C8007F30C9007F3094
:10270200CA000800220048082100A000220049084F
:102712002100A10022004A082100A2004930A300A2
:102722003A30A400C430A500A231DB229331031851
:10273200A72B22302400D3000030D4000030220026
:10274200C8000030C9000030CA0008002200480852
:102752002100A000220049082100A10022004A080D
:102762002100A2000030A3000030A4000030A50028
:10277200A231DB2293310318C02B0130C12B003070
:102782002200CB004B08D40054080319E22B48085E
:102792002100BE00220049082100BF0022004A0891
:1027A2002100C000AF316327933121003E0822008F
:1027B200C80021003F082200C90021004008220071
:1027C200CA00AA302100AE00B830AF003F30B000DE
:1027D200220048082100B100220049082100B2006D
:1027E20022004A082100B3009E3191269331210034
:1027F2002E082200C80021002F082200C900210053
:1028020030082200CA004808B6004908B7004A0842
:10281200B8009C319624933122003608CC00370848
:10282200CD003808CE004C08A0004D08A1004E088B
:10283200A2009931D521933122002108D30020082A
:10284200D20053082100A900220052082100A8004A
:10285200A031A9209331210028082200BF002100C5
:1028620029082200C00021002A082200C1004808CD
:10287200C2004908C3004A08C400A1313F21933174
:1028820022003F08C8004008C9004108CA004808A1
:10289200B4004908B5004A08B6000030B700A830B5
:1028A200B8000930B9000030BA00A7318E27933141
:1028B20022003408BE003508BF003608C0005308A5
:1028C200C2005208C1009B31FF23933122003E080F
:1028D200C8003F08C9004008CA005408031908008C
:1028E200FF30CF007F30D0007F30D1004A08510640
:1028F200031D812C49085006031D812C48084F06F0
:10290200031D8A2C0030C8000030C9000030CA0004
:10291200080048082100CE00220049082100CF000B
:1029220022004A082100D0000030D1008030D200BD
:102932003F30D3009D313D2521004E082200C800C2
:1029420021004F082200C900210050082200CA00BD
:10295200080000302200C2008030C3003F30C400B3
:102962000030BF000030C0000030C100310821003B
:10297200A000220032082100A10022003308210019
:10298200A20022002E082100A30022002F0821000D
:10299200A400220030082100A500A231DB229431DC
:1029A200031CDF2C220031082100CE002200320855
:1029B2002100CF00220033082100BC2D2200310863
:1029C2002100B100220032082100B20022003308A7
:1029D2002100B3000030AE000030AF004030B00044
:1029E2009E319126943121002E08BE002F08BF008F
:1029F2003008C000AF316327943121003E08C40083
:102A02003F08C5004008C6000030C100B430C20013
:102A12004330C300913153219431210041082200F7
:102A2200B400210042082200B50021004308220020
:102A3200B60034082100BE00220035082100BF0084
:102A4200220036082100C000AF31632794312100F3
:102A52003E08AE003F08AF004008B0000030C100A1
:102A6200B430C2004330C300220031082100BE004E
:102A7200220032082100BF00220033082100C000DA
:102A8200AF316327943121003E08C4003F08C500DE
:102A92004008C60091315321943121004108CE00F3
:102AA2004208CF004308D0000030D1003430D200B9
:102AB2004330D3009D313D25943121004E08B100B1
:102AC2004F08B2005008B3009E3191269431210084
:102AD2002E082200B70021002F082200B800210092
:102AE20030082200B90000302100C100B430C20019
:102AF2004330C300220037082100C40022003808F6
:102B02002100C500220039082100C600913153215D
:102B12009431210041082200BF0021004208220016
:102B2200C000210043082200C10000302100C10082
:102B3200B430C2004330C300220031082100BE007D
:102B4200220032082100BF00220033082100C00009
:102B5200AF316327943121003E08C4003F08C5000D
:102B62004008C60091315321943121004108CE0022
:102B72004208CF004308D0000030D1003430D200E8
:102B82004330D3009D313D25943121004E0822006F
:102B9200C20021004F082200C30021005008220079
:102BA200C40042082100B100220043082100B20003
:102BB200220044082100B30022002E082100AE00AA
:102BC20022002F082100AF00220030082100B000AF
:102BD2009E319126943121002E08C4002F08C50091
:102BE2003008C60022003F082100BE002200400833
:102BF2002100BF00220041082100C000AF3163273D
:102C0200943121003E08C1003F08C2004008C300C1
:102C1200913153219431210041082200BA00210050
:102C220042082200BB00210043082200BC003A08EF
:102C32002100B10022003B082100B20022003C0822
:102C42002100B3000030AE00A030AF004030B00031
:102C52009E319126943121002E08D1002F08D200F6
:102C62003008D3000030CE001030CF004130D00009
:102C72009D313D25943121004E082200A000210003
:102C82004F082200A100210050082200A200993121
:102C9200D52122002108BE002008BD003E08AF0059
:102CA2003D08AE00080000302200C2008030C300A0
:102CB2003F30C4000030BF000030C0000030C1000F
:102CC20037082100A000220038082100A1002200BC
:102CD20039082100A200220034082100A3002200AA
:102CE20035082100A400220036082100A500A231E7
:102CF200DB229631031C892E220037082100CE00E8
:102D0200220038082100CF00220039082100442F78
:102D1200220037082100B100220038082100B20049
:102D2200220039082100B3000030AE000030AF00AD
:102D32004030B0009E319126963121002E08BE000F
:102D42002F08BF003008C000AF3163279631210041
:102D52003E08C4003F08C5004008C6000030C1005C
:102D6200B430C2004330C300913153219631210067
:102D720041082200BC00210042082200BD002100BF
:102D820043082200BE003C082100BE0022003D088C
:102D92002100BF0022003E082100C000AF3163279E
:102DA200963121003E08AE003F08AF004008B00057
:102DB2000030C100B430C2004330C30022003708E3
:102DC2002100BE00220038082100BF00220039087D
:102DD2002100C000AF316327963121003E08C400B4
:102DE2003F08C5004008C6009131532196312100A9
:102DF2004108CE004208CF004308D0000030D10085
:102E02003430D2004330D3009D313D25963121002C
:102E12004E08B1004F08B2005008B3009E3191260F
:102E2200963121002E082200BF0021002F08220027
:102E3200C000210030082200C10000302100C10082
:102E4200B430C2004330C300220037082100BE0064
:102E5200220038082100BF00220039082100C000EA
:102E6200AF316327963121003E08C4003F08C500F8
:102E72004008C60091315321963121004108CE000D
:102E82004208CF004308D0000030D1003430D200D5
:102E92004330D3009D313D25963121004E0822005A
:102EA200C20021004F082200C30021005008220066
:102EB200C40000302100CE004030CF004030D000AE
:102EC20022003F082100BE00220040082100BF006E
:102ED200220041082100C000AF3163279631210052
:102EE2003E08C1003F08C2004008C3002200340867
:102EF2002100AE00220035082100AF002200360872
:102F02002100B000220042082100B1002200430843
:102F12002100B200220044082100B3009E31912614
:102F2200963121002E08C4002F08C5003008C600C3
:102F320091315321963121004108D1004208D2003B
:102F42004308D3009D313D25963121004E082200D1
:102F5200C50021004F082200C600210050082200AF
:102F6200C7004508A0004608A1004708A200993101
:102F7200D521963122002108AF002008AE0003308F
:102F8200B0000030B100A0313020963182302200F2
:102F9200BA002430BB002E083A0786002F083B3DBA
:102FA2008700403FC500413FC600423FC700450879
:102FB2002100B100220046082100B2002200470889
:102FC2002100B3000030AE00C830AF004230B00084
:102FD2009E319126963121002E082200A000210068
:102FE2002F082200A100210030082200A2009931FE
:102FF200D52122002108B5002008B40008002100D4
:10300200A001A101080027000C108C100C118C11DA
:103012000C123A282100220C2700031C0C10031862
:103022000C1408002100220C2700031C8C1003182A
:103032008C1408002100220C2700031C0C11031819
:103042000C1508002100220C2700031C8C11031808
:103052008C1508002100220C2700031C0C120318F7
:103062000C16080027000C148C140C158C150C1669
:10307200080021002108003A031940285728200897
:10308200013A03190B28033A03191328013A0319C9
:103092001B28073A03192328013A03192B28033A5C
:1030A20003195728623A0319332857280800813038
:1030B2002100A0001F30A100A0316820983121001A
:1030C20021082000D200210020082000D1008230F7
:1030D2002100A0001F30A100A031682098312100FA
:1030E20021082000CE00210020082000CD00520837
:1030F200803A2100A40080302402031D8328073077
:1031020020005102031C8A2806302000D100003022
:10311200D20020004E08803A2100A4008030240210
:10312200031D9628063020004D02031C9D28013005
:103132002000CD000030CE0020005708031DA42837
:1031420027008D14A62827008D102000570C270079
:10315200031C0D1103180D1522000D118D110D12F6
:103162008D128D100D10200052082100A1002000A8
:1031720051082100A0000130A2000030A3009831C4
:103182000420983120004E082100A10020004D08A3
:103192002100A000A231A02208002000A901A31F43
:1031A200DF28A009A109A209A309A00A0319A10AFB
:1031B2000319A20A0319A30AA901A90AA71FF02841
:1031C200A409A509A609A709A40A0319A50A0319AE
:1031D200A60A0319A70A0130FC007C08A9060030E0
:1031E200AD000030AC000030AB000030AA00230874
:1031F20022042104200403193929A801A80AA31BC7
:103202000E290130A035A10DA20DA30D890B0329B2
:103212000130FC007C08A80700290130AA35AB0D5B
:10322200AC0DAD0D890B0F2923082702031D23299D
:1032320022082602031D232921082502031D232912
:1032420020082402031C2E292008A4022108A53BE1
:103252002208A63B2308A73B2A140130A336A20C5E
:10326200A10CA00C890B2F290130A802031D0E29E5
:10327200290803194729AA09AB09AC09AD09AA0A09
:103282000319AB0A0319AC0A0319AD0A2D08A300EE
:103292002C08A2002B08A1002A08A0000800220086
:1032A200690868046704031D5C290030E700803068
:1032B200E8003F30E900C0302100CE007F30CF006F
:1032C2004430D000220067082100D10022006808A3
:1032D2002100D200220069082100D3009D313D2542
:1032E200993121004E082300E50021004F082300F8
:1032F200E600210050082300E70056302200D800E3
:103302008E30D900BF30DA00230065082200D500D4
:10331200230066082200D600230067082200D70097
:103322008631DB269931220055082300E80022006D
:1033320056082300E900220057082300EA009F30C4
:103342002100AE006830AF004030B00023006808B2
:103352002100B100230069082100B20023006A089D
:103362002100B3009E319126993121002E082300BD
:10337200E20021002F082300E3002100300823008F
:10338200E40062082200A000230063082200A100DA
:10339200230064082200A2009931D52122002108CD
:1033A200E8002008E700080022002008A400210805
:1033B200A5002208A6000310250D260DA700270848
:1033C200AD002D08031DEE290030A3000030A2003D
:1033D2000030A1000030A00008002008A40021084D
:1033E200A5002208A6001730A636A50CA40C890B4E
:1033F200F5292408A7002708A800A117FF30A00577
:10340200FF30A1050030A2052008A9002108AA006A
:103412002208AB00AC018E30AD02AD1F2C2A2D0864
:10342200803A8F3E03181E2A0030A3000030A2000B
:103432000030A1000030A00008000130AC36AB0C17
:10344200AA0CA90C890B1F2A0130A4002408AD077D
:103452000319452A1E2A18302D02031C422A003065
:10346200A3000030A2000030A1000030A00008003C
:103472000130A935AA0DAB0DAC0D890B3A2A0130EA
:10348200AD022D08031D392A28080319532AA90958
:10349200AA09AB09AC09A90A0319AA0A0319AB0ABA
:1034A2000319AC0A2C08A3002B08A2002A08A100C9
:1034B2002908A00008002200DB0178305B02031813
:1034C200E02A00302100CE003430CF004330D0005B
:1034D2001030AE004930AF004030B00022005B082F
:1034E200D300D4015308AE005408AF000330B0003B
:1034F2000030B100A03130209A3122002F08210083
:10350200A90022002E082100A800A031A9209A318A
:1035120021002808B1002908B2002A08B3009E3110
:1035220091269A3121002E08D1002F08D2003008AE
:10353200D3009D313D259A3121004E082200D8004A
:1035420021004F082200D900210050082200DA0091
:103552005808C5005908C6005A08C70088316720B4
:103562009A3122004508D8004608D9004708DA00F7
:103572005B08D300D4015308AE005408AF000330F7
:10358200B0000030B100A03130209A3182302200E8
:10359200D5002430D6002E08550786002F08563D48
:1035A20087005808C03F5908C13F5A08C23F01303E
:1035B200D3005308DB0778305B02031C622AD70171
:1035C200D70A080021006408C1006508C200660825
:1035D200C3006108BE006208BF006308C000AF31CB
:1035E20063279A3121003E08C4003F08C500400805
:1035F200C600913153219A3121004108CE00420880
:10360200CF004308D0006A08C1006B08C2006C08F2
:10361200C3006708BE006808BF006908C000AF3178
:1036220063279A3121003E08C4003F08C5004008C4
:10363200C600913153219A3121004108AE0042085F
:10364200AF004308B0005E08C1005F08C200600816
:10365200C3006108BE006208BF006308C000AF314A
:1036620063279A3121003E08C4003F08C500400884
:10367200C600913153219A3121004108B10042081C
:10368200B2004308B3009E3191269A3121002E08E0
:10369200D1002F08D2003008D3009D313D259A3148
:1036A20021004E08ED004F08EE005008EF006708B9
:1036B200C1006808C2006908C3006D08C4006E0832
:1036C200C5006F08C6009131532121004108DE0078
:1036D2004208DF004308E00008002200690868048D
:1036E2006704031D792BFF30E7000030E800080073
:1036F200C03067067F300319680644300319690633
:10370200031D862BE701E8010800C0302100CE002E
:103712007F30CF004430D000220067082100D10062
:10372200220068082100D200220069082100D3008B
:103732009D313D259B3121004E082300E5002100EB
:103742004F082300E600210050082300E7006A30FA
:103752002200D8009C30D900BF30DA00230065086F
:103762002200D500230066082200D6002300670845
:103772002200D7008631DB269B3122005508230028
:10378200E800220056082300E9002200570823001F
:10379200EA00E3302100AE000B30AF004130B00050
:1037A200230068082100B100230069082100B2004B
:1037B20023006A082100B3009E3191269B3121002B
:1037C2002E082300E20021002F082300E30021003D
:1037D20030082300E40062082200A00023006308EE
:1037E2002200A100230064082200A2009931D52101
:1037F20022002108E8002008E70008002200400813
:103802003F043E04031D0C2C0030BE000030BF00FC
:103812000030C000080040087F39C300C401C3352E
:10382200C40D4308C1074408C23D3F0D3F0D013995
:10383200C300C4014308C1074408C23DC21F2E2C65
:1038420022302400D3000030D40000302200BE0019
:103852000030BF000030C00008004208803AC300B8
:1038620081304302031D372C00304102031C7E2CA1
:1038720022302400D3000030D40022003E08210070
:10388200A00022003F082100A100220040082100E0
:10389200A2000030A3000030A4000030A500A23135
:1038A200DB229B310318762CFF302200C5007F30CB
:1038B200C6007F30C70045082100BE00220046082E
:1038C2002100BF00220047082100C000AF3163275A
:1038D20021003E082200BE0021003F082200BF0056
:1038E200210040082200C0000800FF302200BE0074
:1038F2007F30BF007F30C000080022004208C400B1
:103902004108C300440DC40CC30C4008430680396F
:103912004306C00041080139C300C30CC30C3F0871
:1039220043067F394306BF00080022003608210003
:10393200A000220037082100A1002200380821003F
:10394200A2003D302200B90039082100A300A331B2
:1039520092239C312200BE1FD42C36082100A000E5
:10396200220037082100A100220038082100A2000D
:103972000030A3000030A4000030A500A231DB22F9
:103982009C310318CC2C00302200B6008030B700E6
:10399200BF30B800080000302200B6000030B70087
:1039A2000030B800080000303E02153003193D0215
:1039B200031808003608A0003708A1003808A20042
:1039C2009931D5219C3122002308B1002208B00090
:1039D2002108AF002008AE00A531FB259C31220052
:1039E2002E08BA002F08BB003008BC0036082100A0
:1039F200A000220037082100A1002200380821007F
:103A0200A20022003A082100A30022003B08210064
:103A1200A40022003C082100A500A231DB229C3137
:103A22000318352D00302100C1008030C200BF30A4
:103A3200C30022003A082100C40022003B082100F2
:103A4200C50022003C082100C6009131532121000B
:103A520041082200B600210042082200B7002100DE
:103A620043082200B800080022003A08B6003B08CA
:103A7200B7003C08B800080021005108D4005208E1
:103A8200D5005308D6000310550D560DD700570820
:103A9200DC005C08031D542D0030CE000030CF0046
:103AA2000030D00008004E08D4004F08D50050085E
:103AB200D6000310550D560DD7005708DD005D08DE
:103AC200031D6A2D0030CE000030CF000030D00040
:103AD20008000030D9000030DA000030DB00893005
:103AE2005D07D4005408DC025108D4005208D50006
:103AF2005308D6001030D636D50CD40C890B7C2D49
:103B02005408D7005708DD004E08D4004F08D500EE
:103B12005008D6001030D636D50CD40C890B8C2D1B
:103B22005408D7005708DD068030D4005408DD055C
:103B3200D217FF30D105FF30D2050030D305CF17A1
:103B4200FF30CE05FF30CF050030D0051830D4004D
:103B52005408D8000130D935DA0DDB0D890BAC2DB4
:103B620050085302031DBB2D4F085202031DBB2DEB
:103B72004E085102031CC42D4E08D1024F08D23BFD
:103B82005008D33B59140130D135D20DD30D890BD6
:103B9200C52D0130D802031DAB2D5908A0005A08CB
:103BA200A1005B08A2005C08D4005408A3005D08D1
:103BB200D5005508A4008831022021002008CE003B
:103BC2002108CF002208D0000800220069086804FA
:103BD2006704031DEF2DE701E8010800C030670606
:103BE2007F3003196806443003196906031DFE2D50
:103BF200FF30E7000030E800080000302100C1007B
:103C02008030C2003F30C300220067082100D1008B
:103C1200220068082100D200220069082100D30096
:103C2200C030CE007F30CF004430D0009D313D25E2
:103C32009D3121004E08BE004F08BF005008C00051
:103C4200AF3163279D3121003E08C4003F08C50003
:103C52004008C600913153219D31210041082300C3
:103C6200E500210042082300E6002100430823006A
:103C7200E7006A302200D8009C30D900BF30DA0059
:103C8200230065082200D500230066082200D60022
:103C9200230067082200D7008631DB269D312200EF
:103CA20055082300E800220056082300E9002200FC
:103CB20057082300EA00E3302100AE000B30AF00CA
:103CC2004130B000230068082100B10023006908D8
:103CD2002100B20023006A082100B3009E31912620
:103CE2009D3121002E082300E20021002F0823002D
:103CF200E300210030082300E40062082200A00053
:103D0200230063082200A100230064082200A2000D
:103D12009931D52122002108E8002008E700080097
:103D220021002E08B4002F08B5003008B600031099
:103D3200350D360DB7003708B8003808031DA82E18
:103D42000030AE000030AF000030B0000800310893
:103D5200B4003208B5003308B6000310350D360D35
:103D6200B7003708BD003D08031DBE2E0030AE006F
:103D72000030AF000030B00008003D087B3EB400C8
:103D82003408B8072E08B4002F08B5003008B60072
:103D92001030B636B50CB40C890BCA2E3408B700F5
:103DA2003708BD003108B4003208B5003308B60048
:103DB2001030B636B50CB40C890BDA2E3408B700C5
:103DC2003708BD068030B4003408BD05AF17B217FE
:103DD200FF30B105FF30B2050030B3050030B90045
:103DE2000030BA000030BB000730B4003408BC0019
:103DF2002E1C012F3108B9073208BA3D3308BB3DEA
:103E02000130B036AF0CAE0C890B022F0130B13548
:103E1200B20DB30D890B082F0130BC02031DF92E20
:103E22000930B4003408BC002E1C1D2F3108B9071C
:103E32003208BA3D3308BB3D0130B036AF0CAE0C90
:103E4200890B1E2F0130BB36BA0CB90C890B242FFB
:103E52000130BC02031D152F3908A0003A08A10049
:103E62003B08A2003808B4003408A3003D08B5009E
:103E72003508A4008831022021002008AE00210864
:103E8200AF002208B00008002300BC012200400855
:103E9200CA003F08C9000030C6008030C7003F306A
:103EA200C8006E2F0030C6000030C70040306C2FB3
:103EB200A630C6002A30602F0030C6000030C7008E
:103EC2003F306C2FA630C600AA306A2F0030C600E1
:103ED2008030C7003E30C800872F4208003A0319DD
:103EE200732F872F4108013A0319532F033A0319FD
:103EF200592F013A03195D2F073A0319632F013A2B
:103F02000319672F033A0319872F872F4A082100C5
:103F1200A900220049082100A800A031A9209F3150
:103F220021002808B1002908B2002A08B3002200A3
:103F320046082100AE00220047082100AF002200FF
:103F420048082100B0009E3191269F3121002E08A1
:103F52002200A00021002F082200A1002100300829
:103F62002200A2009931D5219F3122002108CA00E6
:103F72002008C9004A082100A9002200490821009E
:103F8200A800A031A9209F31210028082200B600F4
:103F9200210029082200B70021002A082200B800C7
:103FA200A5311F259F3122003608C3003708C400FF
:103FB2003808C5004A082100A9002200490821004A
:103FC200A800A031A9209F3121002A08220045061D
:103FD200031DF52F2100290822004406031DF52F99
:103FE20021002808220043060319FA2F2300BC01EE
:0E3FF200BC0A22004A08C0004908BF000800AF
:1040040001302100B70037082000E900A6319426CA
:10401400A031A6319426A031A331D223A031A331FB
:10402400D2232000E901080064340034D03407347A
:10403400D0340734D0340734D0340734D034073480
:10404400D0340734B4340034013400340134FF3440
:104054000134FF34023401340134FF342200B2014C
:10406400B3012E1C39283008B2073108B33D0130A2
:10407400B035B10D890B3A280130AF36AE0C890B3F
:104084003F282E082F04031D33283308AF003208BD
:10409400AE00080022004508AE004608AF004708FD
:1040A400B0004808B1004908B2004A08B30094318E
:1040B400AA2422002E09CB002F09CC00CB0A031915
:1040C400CC0A4B08C5004C08C600080000308B1B06
:1040D40001302100A2008B1320082300910021004D
:1040E400210823009200151315140000000021007C
:1040F400220C031C8B1303188B17230014082100B4
:10410400A100230013082100A00008002000660875
:104114002100A200A30121082306031D93282008DF
:104124002206031908002008A20022082000E60045
:104134002100200C2200031C8D1103188D15210071
:10414400200C2000031C0E1203180E160800210078
:10415400AD01A91FB428A809A909A80A0319A90A25
:10416400AD01AD0A2808A0002908A100A2018E30E3
:10417400AB002B08A3002D08AC002C08A400883148
:10418400022021002008A8002108A9002208AA0072
:104194000800E22822008D100D10AF31CC27080052
:1041A40022008D100D1420005608A231662208004A
:1041B40022008D140D1023005F08AF31B4270800CE
:1041C40020006708003A0319CC28013A0319D228C1
:1041D400033A0319DA28EE2808002100A101A201FC
:1041E4002208803AA00080302002031DFB280C30F6
:1041F40021020318080021002108A0000130A03585
:10420400FF3E031D01292035A03E860002308700B1
:104214000030C03F0030C13FC23FC33F0130A1075F
:104224000030A23DF2288E302100AC002C08AD00F5
:10423400FF302B0503192A290130AB36AA0CA90C2F
:10424400A80C890B1F290130AC002C08AD071A29D2
:104254002808A0002908A1002A08A2002D08AC0003
:104264002C08A300A4018831022021002008A80002
:104274002108A9002208AA000800220041084004DD
:104284003F04031947298030C10642082100C100B8
:10429400220043082100C200220044082100C30078
:1042A40022003F082100C400220040082100C5006C
:1042B400220041082100C600913153212100410808
:1042C4002200BF00210042082200C0002100430850
:1042D4002200C10008000030FB000030FA0000306A
:1042E400F9000030F800701C7F297408F80775087D
:1042F400F93D7608FA3D7708FB3D0130F435F50DBC
:10430400F60DF70D890B80290130F336F20CF10C10
:10431400F00C890B87297308720471047004031D5F
:1043240075297B08F3007A08F2007908F10078080F
:10433400F000080021000D108D100D118D110D12CB
:104344008D120E140E128E120F108F100F118F116A
:104354000F128F160F178F171014901423001010BC
:10436400901020001010901026000C108C100C11CE
:104374008C110C128C120C1728000C1326008D10B3
:104384000D11AF316C27A131A43153248B178B1637
:104394000B11080000302100AB000030AA000030EF
:1043A400A9000030A800201CDF292408A80725083C
:1043B400A93D2608AA3D2708AB3D0130A435A50D2B
:1043C400A60DA70D890BE0290130A336A20CA10C80
:1043D400A00C890BE7292308220421042004031DCF
:1043E400D5292B08A3002A08A2002908A10028081F
:1043F400A000080000302100B1000030B0000030FF
:10440400AF000030AE002C08A0002D08A100A201CE
:10441400A3010030A7000030A6000330A500E83057
:10442400A400A131CC21A13121002308B10022082C
:10443400B0002108AF002008AE00310830042F047A
:104444002E0403190800FF30AE07FF30AF3DFF30E4
:10445400B03DFF30B13D1F2A20000E18622A013002
:104464002400CD070030CE3D4E08803A2100A7003D
:1044740080302702031D412A1A3024004D02031CF8
:10448400080019302400CD000030CE00200068035D
:10449400031D512AE801AF31CC27A2315B2A013038
:1044A4002100A70027082000E7070330670203184C
:1044B400E701A031CB20A23120000E1808005E2AAB
:1044C4002400CD01CE0108002100A60006302602FA
:1044D4000318822A2608A400A5012408A0002508A0
:1044E400A1000130A2000030A30098310420A231C1
:1044F40006302100A0000030A100A231A022080053
:1045040006302100A0000030A1000130A2000030DC
:10451400A30098310420A23121002608A400A5019B
:10452400A409A509A40A0319A50A24080B3EA0009E
:104534000030253DA100A231A022080022000F1066
:104544008F100F118F110F12BD2A22000F140800B3
:1045540022008F14080022000F15080022008F1576
:10456400080022000F16080022000F148F140F15E4
:104574008F150F16080021002108003A0319C32AD9
:10458400DA2A2008013A0319A72A033A0319AA2AA6
:10459400013A0319AD2A073A0319B02A013A03195B
:1045A400B32A033A0319DA2A623A0319B62ADA2A31
:1045B40008002100A21FF22A2009A6002109A70051
:1045C4002209A800A60A0319A70A0319A80A003099
:1045D4002607A0000030273DA1008030283DA2001E
:1045E400A51F082B2309A6002409A7002509A80054
:1045F400A60A0319A70A0319A80A00302607A3006C
:104604000030273DA4008030283DA5008030A2065C
:104614008030A50625082202031D08002408210273
:10462400031D080023082002080022004808B400E3
:104634004908B5004A08B6004B08B7004C08B80052
:104644004D08B90096315426A33122003508CF0015
:104654003408CE004B082100A00022004C082100A1
:10466400A10022004D082100A200220048082100D8
:10467400A300220049082100A40022004A082100C6
:10468400A500A231DB22A33103184E2B9C3022005B
:10469400C800FF30C900080064302200C8000030A0
:1046A400C9000800200065082100BA00BB013908D0
:1046B4003B06031D5F2B38083A0603190800380827
:1046C400BA003A082000E500210038033904031D2C
:1046D4006E2B22000D128D1220006503031D8A2B00
:1046E4006808031D7F2BE801E80A22008D102000D2
:1046F4005608A2316622A3318A2B2000E801A0319A
:10470400CB20A331AF31CC27A331A0310220A33178
:1047140014302100AC000030AD00A131FC210800B0
:104724002100220821042004031DA62B230886004F
:10473400013087000030C03FC13F0030A00000308E
:10474400A1000030A200080022087F39A400A501BE
:10475400A435A50D23088600013087002408C03F36
:104764002508C13F210D210D0139A400A50123080D
:104774008600013087002408810441312508810422
:104784002308860001308700823081074131FF30E1
:10479400813D7F31220880393F38A200A1130800EF
:1047A4001E302100B2003208B4006430A000003092
:1047B400A1000130A2000030A30098310420A331ED
:1047C40064302100A0000030A100A231A022A33156
:1047D40021003408B200B3013208AC003308AD0044
:1047E400A131FC21A33100302100A000A10001303F
:1047F400A2000030A30098310420A331003021002E
:10480400A000A100A231A022A33121003408B200EB
:10481400B3013208AC003308AD00A131FC2108001B
:1048240000302000A3000030A2000330A100E830D3
:10483400A0000C30B600F230B7000130B8000030F0
:10484400B9003508F3003408F2003308F1003208E7
:10485400F0003108F7003008F6002F08F5002E08A4
:10486400F400A1316D21A43170082000B60771084D
:10487400B73D7208B83D7308B93D3908A700380838
:10488400A6003708A5003608A4009831CE202000E1
:104894002308B1002208B0002108AF002008AE00B0
:1048A400080022001D1021000E118E1026000D108C
:1048B4008D110D122100101390121012901110116D
:1048C4000F30250093040F309A040F302600930410
:1048D4000F309A040F309E040F302C0093040F30D5
:1048E40096040F3099040F309C040F309F04250068
:1048F4009D019E019F0100309200323091000030F2
:10490400990064309800003026009200963091009F
:1049140000309900C8309800AF315A27A431AF3124
:1049240053270800FF302000E4002100A2002208E1
:10493400FD00A62C6730A32C3330A32C1F30A32CEE
:10494400193023009B00C92C21002108253A0319A2
:10495400B52C6E3A0319BA2C313A0319BF2CEC3A30
:104964000319C42CC92C2008803A03199C2CC92C87
:104974002008003A03199E2CC92C2008123A031966
:10498400A02CC92C2008003A0319A22CC92C2300FE
:104994001E139E161E121E159D171D131D169D1106
:1049A400210091160B178B17080027000C108C1090
:1049B4000C118C110C12022D720C031C0C10031818
:1049C4000C140800720C031C8C1003188C140800BF
:1049D400720C031C0C1103180C150800720C031C38
:1049E4008C1103188C150800720C031C0C1203188C
:1049F4000C1608000C148C140C158C150C160800DD
:104A04007108003A0319072D1E2D7008013A031985
:104A1400DE2C033A0319E42C013A0319EA2C073A71
:104A24000319F02C013A0319F62C033A03191E2D2D
:104A3400623A0319FC2C1E2D0800220036082100BE
:104A4400A000220037082100A1002200380821001C
:104A5400A2003D302200B90039082100A300A3318F
:104A64009223A5312200BE1F3E2D0030B600003037
:104A7400B7000030B800080000303E0215300319BA
:104A84003D02031808003608A0003708A1003808C2
:104A9400A2009931D521A53122002308B1002208B2
:104AA400B0002108AF002008AE00A531FB2522008C
:104AB4002E08BA002F08BB003008BC003A08B60024
:104AC4003B08B7003C08B800080020005708210044
:104AD400B400B50133083506031D722D32083406BF
:104AE400031908003208B40034082000D70021005C
:104AF400320C2200031C0D1103180D158D11210019
:104B0400320C2700031C0D1103180D152100320867
:104B14003304031D902D27008D14922D27008D1032
:104B240014302100AC000030AD00A131FC21A531CE
:104B340027000D118D10200057082100B400B50185
:104B44003408A0003508A10088310120A5311430B3
:104B54002100AC000030AD00A131FC210800200090
:104B64000F1BBB2D23003D080319C62D0130BD02C8
:104B7400C62D193023003D020318C62D0130210033
:104B8400B20032082300BD073D08031D08002000C1
:104B94004D08013ECD0000304E3DCE004E08803A17
:104BA4002100B20080303202031DDB2D06302000CC
:104BB4004D02031CE22D01302000CD000030CE0058
:104BC4002300C201C20A20004E082100A1002000D7
:104BD4004D082100A000A231A022A53120000F1F02
:104BE400F02D14302100AC000030AD00A131FC21C7
:104BF40008002200B5018E30B2003208B400B11FA3
:104C0400102EAE09AF09B009B109AE0A0319AF0AF3
:104C14000319B00A0319B10AB501B50AFF30310509
:104C24000319202E0130B136B00CAF0CAE0C890B39
:104C3400152E0130B2003208B407102E2E082100C0
:104C4400A00022002F082100A1002200300821002A
:104C5400A20022003408B20032082100A30022007E
:104C64003508B30033082100A40088310220210054
:104C740020082200AE00210021082200AF002100FC
:104C840022082200B000080020008F1A502E2300B2
:104C9400470803195B2E0130C7025B2E193023002D
:104CA400470203185B2E01302100B20032082300B2
:104CB400C7074708031D080020005108013ED10022
:104CC4000030523DD2005208803A2100B2008030B8
:104CD4003202031D702E073020005102031C772E70
:104CE40001302000D1000030D20020005208210001
:104CF400A100200051082100A0000130A2000030D2
:104D0400A30098310420A6312300DC01DC0A200032
:104D14008F1E892E14302100AC000030AD00A1316B
:104D2400FC21080001302100B3000030B400340835
:104D3400803AB20080303202031DA22E07303302C3
:104D44000318C82E21003408A1003308A000013044
:104D5400A2000030A30098310420A63105302100C0
:104D6400AC000030AD00A131FC21A631013021009E
:104D7400B3070030B43D3408803AB20080303202C8
:104D8400031DC62E07303302031CA42E0530210058
:104D9400B5000030B600B61B08003608A10035087F
:104DA400A000A231A022A63105302100AC000030C1
:104DB400AD00A131FC21A631FF302100B507FF3041
:104DC400B63DCD2EF601F11FEE2EF009F109F00AE1
:104DD4000319F10AF601F60AF31FF92EF209F30991
:104DE400F20A0319F30A0130F4007408F606F70115
:104DF400F801700871040319282FF501F50AF11B55
:104E04000D2F0130F035F10D890B042F0130F40022
:104E14007408F507012F0130F735F80D890B0E2FB3
:104E240071087302031D182F70087202031C1F2FD0
:104E34007008F2027108F33B77140130F136F00C7C
:104E4400890B202F0130F502031D0D2F760803195D
:104E5400302FF709F809F70A0319F80A7808F1005E
:104E64007708F000080020006708031D3C2F680342
:104E7400031D08008F1B8A2F01302400CB0700304C
:104E8400CC3D4C08803A2100A70080302702031D46
:104E94004E2F1A3024004B02031C08001930240042
:104EA400CB000030CC002000670823006006031903
:104EB4005F2F20006803031D702F01302100A7001D
:104EC40027082000D6070B305602031C6B2FD6018F
:104ED400D60A5608A2316622A731862F2000670819
:104EE40023005E06031D862F01302100A70027083A
:104EF4002300DF0706305F02031C822FDF01DF0A75
:104F04005F08AF31B427A73120008F1B0800862F1C
:104F14002400CB01CC01080022003A08AF00390874
:104F2400AE000330B0000030B100A0313020A73112
:104F3400220037082E07840038082F3D8500003FE3
:104F4400BB00013FBC00023FBD0039083A0403190D
:104F5400F92FFF30B907FF30BA3D3A08AF003908DE
:104F6400AE000330B0000030B100A0313020A731D2
:104F7400220037082E07840038082F3D8500003FA3
:104F84002100C100013FC200023FC30022003B08D0
:104F94002100AE0022003C082100AF0022003D08A1
:104FA4002100B000220034082100B100220035089D
:104FB4002100B200220036082100B3009E31912660
:104FC400A73121002E08C4002F08C5003008C600F0
:104FD40091315321A731210041082200BB00210057
:104FE40042082200BC00210043082200A62F3B08EF
:104FF400B4003C08B5003D08B60008000034803415
:105004003F34723431343F34FE3475343E345834D2
:1050140063343D3495341D343C34C534AE343A34B1
:105024007934213439349434803437349334A73484
:1050340035345634153434340034003400340034F8
:1050440080343F34F034FF34BE34E234A9343E3487
:1050540083347634BE34AE342B343E343C34C334DF
:10506400BD34D23413343D347834D334BB34F434C3
:105074004A34483495349534C734C134DC34453427
:10508400DC346D34C334B334333440343434013415
:1050940048349D34B03445340034DA344234003476
:0450A40080343F34E1
:105E9E00FC3021009905080021009512951115106E
:105EAE00951415110800873020009C05FC309C05C8
:105EBE00FF309B001C150800210040083F043E04E3
:105ECE00031908008030C006080021009E171E0826
:105EDE008F3960389E00FC309E051D140800FE00B0
:105EEE0012001E000130FE020030FF3B7F087E04D0
:105EFE0003190034772F6400800101310130FE0256
:105F0E000030FF3B7F087E0403190034832F2100ED
:105F1E00A3002308A200A20DA20D1D08220683399C
:105F2E0022069D009D149D189A2F1C08A1001B0887
:105F3E00A0000800D034073400340034D0340734C5
:105F4E000034003401340034E834033406340034B1
:105F5E001434FF3404340134FF342100A600260823
:105F6E00A400A5012408A0002508A1000130A2006C
:105F7E000030A30098310420AF3106302100A0007C
:105F8E000030A100A231A0220800200052082100FA
:105F9E00A100200051082100A0000130A200003015
:105FAE00A30098310420AF3120004E082100A1003B
:105FBE0020004D082100A000A231A02208002000E0
:105FCE0054082100A200A30121082306031DF12F6E
:105FDE0020082206031908002008A200220820002B
:105FEE00D4002100200C2200031C8D1203188D16E4
:025FFE00080099
:020000040001F9
:04000E00E2FFFFDF2F
:00000001FF
