:1000000084312E2C013400347E14803120007F088E
:100010002100BB000B1D212901302500C107003044
:10002000C23D0030C33D0030C43D21004908C3003B
:100030004808C2000130B3000030B4000030B50001
:100040000030B6005F08B3076008B43D6108B53DF5
:100050006208B63D3608E2003508E1003408E000E9
:100060003308DF000130B3000030B4000030B500C9
:100070000030B6005708B3075808B43D5908B53DDD
:100080005A08B63D3608DA003508D9003408D800D9
:100090003308D7000130B3000030B4000030B500A1
:1000A0000030B6005B08B3075C08B43D5D08B53DA1
:1000B0005E08B63D3608DE003508DD003408DC0099
:1000C0003308DB000130B3000030B4000030B5006D
:1000D0000030B600240024082100B30724002508BE
:1000E0002100B43D240026082100B53D2400270846
:1000F0002100B63D36082400A70021003508240061
:10010000A600210034082400A500210033082400A3
:10011000A4000130A0070030A13D0030A23D003016
:10012000A33D23006C03031DAC2801302400AC0761
:100130000030AD3D2D0821004F02031DA3282400EF
:100140002C0821004E020318AC284F082400AD00F3
:1001500021004E082400AC0024004403031DC628DF
:100160000130B8070030B93D390821004F02031DA6
:10017000BD282400380821004E020318C6284F0865
:100180002400B90021004E082400B8000B112400FF
:100190004003031D212921005A08803AB3004B086F
:1001A000803A3302031DDE284A085902031DDE2867
:1001B00049085802031DDE2848085702031C21295C
:1001C0004408B3004508B4004608B5004708B60027
:1001D0005F09B7006009B8006109B9006209BA0097
:1001E000B70A0319B80A0319B90A0319BA0A370872
:1001F000B3073808B43D3908B53D3A08B63DB61BDB
:100200000E293608031D21293508031D212934082C
:10021000031D212904303302031821295F09B3008B
:100220006009B400B30A0319B40A44083307B500DF
:100230004508343DB60057083507C2005808363D1A
:10024000C30021005408031D78296508031D78297F
:100250006708031D78296208803AB3004708803A8E
:100260003302031D3D2946086102031D3D2945084F
:100270006002031D3D2944085F02031C6629220019
:100280000D1600302100E2000030E1000030E000F7
:100290000030DF0024004903031D4603031D6629C7
:1002A000BA01BB01C6015808A4005908A500890D70
:1002B000893B8909A600A700C90121004B08DA0083
:1002C0004A08D9004908D8004808D7002100E21B95
:1002D00078296208031D76296108031D76296008C4
:1002E000031D76291E305F02031C782922000D129F
:1002F00021006703031DA8292400A31B97292308B5
:10030000031D8C292208031D8C292108031D8C291B
:10031000FA302002031C972922000D14003024001B
:10032000A3000030A2000030A1000030A000A31BF9
:10033000A8292308031DA6292208031DA629210890
:10034000031DA6291E302002031CA82922000D101F
:1003500021006708031D072A6608031D072A4208B3
:10036000B3004308B4000030B41BFF30B500B60042
:100370005A08803AB7003608803A3702031DCA2966
:1003800035085902031DCA2934085802031DCA2919
:1003900033085702031CE92923006D08031DDC29DB
:1003A00021005108F1005008F0000130F200003047
:1003B000F300A231AD22803121004908C300480872
:1003C000C2000030DA000030D9000030D800003020
:1003D000D700DA1B072A5A08031DF8295908031DFC
:1003E000F8295808031DF82914305702031C072A5E
:1003F00023006D08031D072A21005108F100500851
:10040000F0000030F200F300A231AD228031240070
:1004100058082100B300240059082100B40000301E
:10042000B41BFF30B500B60024002708803A210035
:10043000B7003608803A37022400031D2F2A210016
:10044000350824002602031D2F2A21003408240029
:100450002502031D2F2A2100330824002402031C37
:10046000F32B0030A7000030A6000030A5000030BC
:10047000A4003B08803A2100B30080303302031D02
:10048000442A3C3024003A02031C552A2400BA01B5
:10049000BB0100302500C4000030C3000030C200A2
:1004A0000030C10022000D14572A22000D10200038
:1004B0000E12A22B24003B082000D90024003A0889
:1004C0002000D8000630DA000030DB00AD31DA253C
:1004D000803120005908DF005808DE00AE31542674
:1004E000803120005E082100BC0020005F08210050
:1004F000BD00200060082100BE003C082000E40090
:1005000021003D082000E50021003E082000E60013
:1005100024005B082000DF0024005A082000DE00D1
:10052000AE315426803120005E08E7005F08E80005
:100530006008E90096318826803120006508240093
:10054000BD00200064089B2B24003B082000D9003C
:1005500024003A082000D8000630DA000030DB0022
:10056000AD31DA25803120005908DF005808DE005F
:10057000AE315426803120005E08E4005F08E500BB
:100580006008E60024005B082000DF0024005A0811
:100590002000DE00AE315426803120005E08E700E6
:1005A0005F08E8006008E9008831B9208031200048
:1005B00065082400BD00200064089B2B24003B0834
:1005C0002000D90024003A082000D8000630DA00C4
:1005D0000030DB00AD31DA25803120005908DF0022
:1005E0005808DE00AE315426803120005E0821001C
:1005F000BF0020005F082100C0002000600821002B
:10060000C1003F08AC004008AD004108AE00240026
:100610005B082000DF0024005A082000DE00AE3115
:100620005426803120005E082100AF0020005F08C2
:100630002100B000200060082100B100A0310A2094
:10064000803121002D082400BD0021002C089B2BA7
:1006500024003B082000D90024003A082000D800DC
:100660000630DA000030DB00AD31DA2580312000C1
:100670005908DF005808DE00AE31542680312000D2
:100680005E08E4005F08E5006008E60024005B08FF
:100690002000DF0024005A082000DE00AE3154267E
:1006A000803120005E08E7005F08E8006008E9008C
:1006B000953111258031200065082400BD002000FF
:1006C00064089B2B24003B082000D90024003A0832
:1006D0002000D8000630DA000030DB00AD31DA252A
:1006E000803120005908DF005808DE00AE31542662
:1006F000803120005E08EA005F08EB006008EC0033
:1007000024005B082000DF0024005A082000DE00DF
:10071000AE315426803120005E08ED005F08EE0007
:100720006008EF00AE313226803120006B082400D3
:10073000BD0020006A082400BC00B92B2400BC01C5
:10074000BD01B92B21004D08003A0319A82B9E2B9F
:100750004C08013A03195A2A033A0319A42A013A08
:100760000319DE2A073A0319282B013A0319622BD1
:100770009E2B24003C082000AE0024003D082000F1
:10078000AF00890D893B8909B000B10025004508FB
:100790002000B200250046082000B300890D893BE7
:1007A0008909B400B500A131E721803120002F086C
:1007B0002400BD0020002E082400BC000230F00000
:1007C0000030F1003D08F3003C08F200A431B824E9
:1007D00080317108260092007008910001302400D9
:1007E000BA070030BB3D4803031D212C0130210016
:1007F000B30033082400C7074D08803A803C031D2E
:10080000032C4C084702031C262C22008D142400C4
:100810004D082100B40024004C082100B300B3357A
:10082000B40D3408803AB50080303502031D1C2C0D
:1008300024004708210033020318282C2400C70194
:10084000282C240047080319282CC70122008D10EA
:1008500021003B082000FF007E1009008431302C6D
:100860000830840024308500E830FE000130FF00AD
:10087000AD3101258431D73084000030850011303E
:10088000FE000030FF00AD31012584312300EC0172
:10089000ED01EE0120308400023085002C30FE0096
:1008A0000030FF00AD3101258431A03084000230DA
:1008B00085003530FE000030FF00AD310125843168
:1008C00020308400033085002C30FE000030FF0013
:1008D000AD3101258431A0308400033085004030E3
:1008E000FE000030FF00AD3101258431203084004E
:1008F000043085004030FE000030FF00AD3101259E
:1009000084311C308400AD308500C4308600003056
:1009100087000030FF001330AC31F524843188317A
:1009200000208431EF00C0308400AD3085004C30B1
:100930008600023087000030FF001A30AC31F52409
:1009400084312500803102208431DE008031032093
:10095000DF007E1020008C31522C2200C4012000C8
:100960001018B92C23006E080319C42C0130EE02B4
:10097000C42C193023006E020318C42C013022004D
:10098000BC003C082300EE076E08031D7C2E2100EE
:10099000DE1B502D5E08031DD62C5D08031DD62CD2
:1009A0001B305B0206305C3B031C502D24004A03C5
:1009B0000319152DCA01CA0A00302100DE000030DB
:1009C000DD000030DC000030DB0001302400DC0002
:1009D0000030DD0000302500C0000030BF000030D6
:1009E000BE000030BD002400E0012200C401C40AA2
:1009F000440821005502031C152D22004408BC00A8
:100A00000130BC35FF3E031D012D3C35A03E860064
:100A1000023087000030C03F0030C13FC23FC33FBB
:100A20000130BC003C08C407F82C24004408031D16
:100A3000202DC401C40A2100D4012400B801B90149
:100A400021004F0824003902031D2A2D21004E08E1
:100A500024003802031C080021005408031D08006C
:100A60006508031D08004F082400B90021004E0846
:100A70002400B80022000D1223006C030319482D36
:100A800001302200A0000030A100AD318D2508000A
:100A900001302200B8000030B900A1312A2108003D
:100AA0002100DE1B5F2D5E08031D08005D08031D8D
:100AB00008001B305B0206305C3B0318080054083A
:100AC000031D080024004A0303190800CA01CA0ACA
:100AD0002100DE1B7F2D5E08031D772D5D08031DA1
:100AE000772D94305B0204305C3B031C7F2D00307B
:100AF000DE000030DD000430DC009430DB005508FF
:100B00002200BC00BD013C08C2003D08C300240017
:100B10005D08803A803C031D902D5C082100550241
:100B2000031CC22D21005B082500BD0721005C08C5
:100B30002500BE3D21005D082500BF3D21005E0867
:100B40002500C03D24005C082200BC000130BC35FB
:100B5000FF3E031DA72D3C35A03E860002308700D6
:100B600021005B08C03F5C08C13F5D08C23F5E08D2
:100B7000C33F24005D082200C30024005C0822005B
:100B8000C2003E2E00302500C0000030BF00003003
:100B9000BE000030BD002200C401C40A2100550877
:100BA000220044020318182E4408BC000130BC3552
:100BB000FF3E031DD72D3C35043EA03E860002308B
:100BC0008700403FBD00413FBE00423FBF00433F62
:100BD000C0004408C1000130C135FF3E031DEC2DAB
:100BE0004135A03E8600023087003D08C03F3E08E8
:100BF000C13F3F08C23F4008C33F4408BC0001302A
:100C0000BC35FF3E031D002E3C35A03E8600023061
:100C10008700403F2500BD07413FBE3D423FBF3DED
:100C2000433FC03D01302200BC003C08C407CE2D2C
:100C3000210055082200BC000130BC35FF3E031DD9
:100C40001D2E3C35A03E86000230870021005B0847
:100C5000C03F5C08C13F5D08C23F5E08C33F5B0800
:100C60002500BD0721005C082500BE3D21005D0870
:100C70002500BF3D21005E082500C03D220042083E
:100C8000A0004308A100890D893B8909A200A300A7
:100C9000250040082200A70025003F082200A600EA
:100CA00025003E082200A50025003D082200A400E2
:100CB000A7317E27220023082100C7002200220836
:100CC0002100C600220021082100C50022002008C2
:100CD0002100C4002400E001E00A00302100DE0011
:100CE0000030DD000030DC000030DB00013024008B
:100CF000DC070030DD3D0800193023006E02031CC4
:100D000008002400CA01E50100302200A000A10073
:100D1000AD318D252400B801B901C401193022007C
:100D2000BC003C082300EE000800230047084604EE
:100D30004504031DA22E0030C5008030C6003F30A0
:100D4000C700080072302200A0003130A1004430FA
:100D5000A200230045082200A30023004608220029
:100D6000A400230047082200A500A031EE20863110
:100D70000318C72E22302500CF000030D000FF30EE
:100D80002300C5007F30C6007F30C7000800230065
:100D900045082200A000230046082200A1002300ED
:100DA00047082200A2004930A3003A30A400C43012
:100DB000A500A031EE2086310318EB2E223025004D
:100DC000CF000030D00000302300C5000030C60046
:100DD0000030C7000800230045082200A0002300BF
:100DE00046082200A100230047082200A20000308C
:100DF000A3000030A4000030A500A031EE20863111
:100E00000318042F0130052F00302300C8004808C4
:100E1000D10051080319262F45082200BE002300E7
:100E200046082200BF00230047082200C000AC3162
:100E3000EC24863122003E082300C50022003F0832
:100E40002300C600220040082300C700AA30220069
:100E5000CE00B830CF003F30D0002300450822003C
:100E6000D100230046082200D200230047082200B8
:100E7000D30088310520863122004E082300C500AA
:100E800022004F082300C600220050082300C7009C
:100E90004508B6004608B7004708B8009B31F9235B
:100EA000863123003608C9003708CA003808CB004D
:100EB0004908A0004A08A1004B08A20099313B2133
:100EC000863123002108D0002008CF0050082200DE
:100ED000A90023004F082200A800AE3176268631F3
:100EE000220028082300BF00220029082300C00098
:100EF00022002A082300C1004508C2004608C3009A
:100F00004708C400AF310C27863123003F08C500D5
:100F10004008C6004108C70045082200DE00230043
:100F200046082200DF00230047082200E0000030CE
:100F3000E100A830E2000930E3000030E400A53110
:100F40005D25863122005E08E8005F08E900600840
:100F5000EA00230050082200EC0023004F08220082
:100F6000EB009A314D228631220068082300C5002B
:100F7000220069082300C60022006A082300C70077
:100F8000510803190800FF30CC007F30CD007F30BE
:100F9000CE0047084E06031DD32F46084D06031DFD
:100FA000D32F45084C06031DDC2F0030C500003050
:100FB000C6000030C700080045082200AE0023002C
:100FC00046082200AF00230047082200B00000308E
:100FD000B1008030B2003F30B3009D31492522007E
:100FE0002E082300C50022002F082300C60022007F
:100FF00030082300C70008002200A001A10108005A
:101000000134FC3021009905080022004E08D4006C
:101010004F08D5005008D6000310550D560DD700C7
:101020005708D8005808031D1C280030CE00003097
:10103000CF000030D00008005108D4005208D5007D
:101040005308D6000310550D560DD7005708DD0084
:101050005D08031D32280030CE000030CF00003084
:10106000D00008005D087B3ED4005408D8074E0825
:10107000D4004F08D5005008D6001030D636D50C15
:10108000D40C890B3E285408D7005708DD005108BE
:10109000D4005208D5005308D6001030D636D50CEF
:1010A000D40C890B4E285408D7005708DD06803031
:1010B000D4005408DD05CF17D217FF30D105FF301B
:1010C000D2050030D3050030D9000030DA000030FE
:1010D000DB000730D4005408DC004E1C7528510892
:1010E000D9075208DA3D5308DB3D0130D036CF0C2A
:1010F000CE0C890B76280130D135D20DD30D890B5A
:101100007C280130DC02031D6D280930D40054080E
:10111000DC004E1C91285108D9075208DA3D5308CB
:10112000DB3D0130D036CF0CCE0C890B922801303C
:10113000DB36DA0CD90C890B98280130DC02031D50
:1011400089285908A0005A08A1005B08A200580885
:10115000D4005408A3005D08D5005508A400A631AA
:10116000212622002008CE002108CF002208D0002E
:10117000080000302100A6008030A7003F30A80002
:101180000030A3000030A4000030A5002000670854
:10119000F0006808F1006908F2006408F3006508CF
:1011A000F4006608F500A031B3208831031CDF2865
:1011B00020006708BA006808BB006908842920007D
:1011C0006708FB006808FC006908FD000030F800B3
:1011D0000030F9004030FA009F314D2788317808FF
:1011E0002000AA007908AB007A08AC00AC31DA2400
:1011F000883120002A08B0002B08B1002C08B2006A
:101200000030AD00B430AE004330AF009231052263
:10121000883120002D082100A00020002E08210088
:10122000A10020002F082100A20020082000AA0011
:10123000210021082000AB00210022082000AC0082
:10124000AC31DA24883120002A08F8002B08F90094
:101250002C08FA000030AD00B430AE004330AF00CF
:101260006708AA006808AB006908AC00AC31DA2452
:10127000883120002A08B0002B08B1002C08B200E9
:1012800092310522883120002D08BA002E08BB00BB
:101290002F08BC000030BD003430BE004330BF001A
:1012A0009C31A024883120003A08FB003B08FC0058
:1012B0003C08FD009F314D27883178082100A300AC
:1012C0007908A4007A08A50000302000AD00B430F1
:1012D000AE004330AF006708AA006808AB00690899
:1012E000AC00AC31DA24883120002A08B0002B0889
:1012F000B1002C08B20092310522883120002D085F
:10130000BA002E08BB002F08BC000030BD003430EE
:10131000BE004330BF009C31A024883120003A0831
:101320002100A60020003B082100A70020003C0867
:101330002100A80023082000AA0021002408200082
:10134000AB00210025082000AC00AC31DA24883144
:1013500020002A08AD002B08AE002C08AF0064085E
:10136000F8006508F9006608FA0021002608FB006D
:101370002708FC002808FD009F314D278831780898
:101380002000B0007908B1007A08B200923105223D
:10139000883120002D082100A90020002E082100FE
:1013A000AA0020002F082100AB000030F000873099
:1013B000F1004330F2002908F3002A08F4002B085A
:1013C000F500A031B32088310318F929003020003E
:1013D000AD00B430AE00C330AF00210029082000BA
:1013E000B00021002A082000B10021002B082000B5
:1013F000272A0030F000B430F1004230F200210022
:101400002908F3002A08F4002B08F500A031B320C6
:1014100088310318372A00302000AD003430AE0088
:101420004330AF00210029082000AA0021002A082B
:101430002000AB0021002B082000AC00AC31DA24E6
:10144000883120002A08B0002B08B1002C08B20017
:1014500092310522883120002D082100A9002000AA
:101460002E082100AA0020002F082100AB00003028
:101470002000BA001030BB004130BC000030F80042
:101480002030F9004130FA0021002908FB002A0829
:10149000FC002B08FD009F314D2788317808200083
:1014A000BD007908BE007A08BF009C31A0248831B5
:1014B00020003A082100A90020003B082100AA00D2
:1014C00020003C082100AB0029082000CA002100B0
:1014D0002A082000CB0021002B082000CC009831E6
:1014E000B42020004B08E5004A08E400080023006F
:1014F000D20145082200A000230046082200A100D6
:10150000230047082200A2000030A3000030A400FE
:101510000030A500A031EE208A310318AC2A230048
:1015200045082200BE00230046082200BF00230019
:1015300047082200C000AC31EC248A3122003E086A
:101540002300C50022003F082300C60022004008F7
:101550002300C700D201D20AFA302200CE00223086
:10156000CF003E30D000230045082200D1002300E8
:1015700046082200D200230047082200D300883109
:1015800005208A3122004E082300C50022004F08A2
:101590002300C600220050082300C7004508B600FB
:1015A0004608B7004708B8009B31F9238A31230069
:1015B0003608BF003708C0003808C1004508C2001F
:1015C0004608C3004708C400AF310C278A31230006
:1015D0003F08C5004008C6004108C700003022008F
:1015E000CE008030CF004030D000230045082200DC
:1015F000D100230046082200D20023004708220021
:10160000D300883105208A3122004E082300C5000E
:1016100022004F082300C600220050082300C70004
:1016200000302200A0000030A1004030A2002300C2
:1016300045082200A300230046082200A40023003E
:1016400047082200A500A031EE208A310318482B5C
:1016500000302300BF000030C0004030C10045080A
:10166000C2004608C3004708C400AF310C278A31C6
:1016700023003F08C5004008C6004108C7005208C3
:10168000031D442B0130452B0030C8004808D20010
:1016900000302200A0008030A1003F30A2002300D3
:1016A00045082200A300230046082200A4002300CE
:1016B00047082200A500A031EE208A3103188C2BA8
:1016C00000302200C1000030C2004030C3002300BF
:1016D00045082200BE00230046082200BF00230068
:1016E00047082200C000AC31EC248A3122003E08B9
:1016F000C4003F08C5004008C6009231FB228A3171
:10170000220041082300C500220042082300C60031
:10171000220043082300C700230045082200CE0012
:10172000230046082200CF00230047082200D000F3
:10173000230045082200D100230046082200D200E1
:10174000230047082200D300883105208A31220077
:101750004E082300CF0022004F082300D0002200B3
:1017600050082300D1004F082200DE00230050085B
:101770002200DF00230051082200E0004830E10091
:10178000A830E2000330E3000030E400A5315D251D
:101790008A3122005E082300C90022005F0823006E
:1017A000CA00220060082300CB0004302200E300BE
:1017B0000030E4003930E100A830E20023004F0897
:1017C0002200DE00230050082200DF002300510821
:1017D0002200E000A5315D258A3122005E08B100BB
:1017E0005F08B2006008B300230049082200AE0081
:1017F00023004A082200AF0023004B082200B0005B
:101800009D3149258A3122002E082300CC00220078
:101810002F082300CD00220030082300CE004C0802
:101820002200CE0023004D082200CF0023004E08E6
:101830002200D000230045082200D10023004608E2
:101840002200D200230047082200D300883105205F
:101850008A3122004E082300C50022004F082300D1
:10186000C600220050082300C700520803190800D0
:1018700045082200BE00230046082200BF002300C6
:1018800047082200C000AC31EC2422003E082300AF
:10189000C50022003F082300C600220040082300A4
:1018A000C70008009A31DA228C3112302200A000E1
:1018B0007A30A100A23169228C31883101208C312B
:1018C000AF313A278C312000101490140F178F1667
:1018D0000E148F17AE31BC268C31AD310D258C31F5
:1018E000A63186268C31A03141208C3190310520E3
:1018F0008C3191311A218C31210067030319832C1B
:101900008431AD248C31210067030319922C6608C1
:10191000240064060319922CA33185238C31A43151
:101920001A248C310030AD315B258C312200210826
:101930002400AF00220020082400AE000130AD31A9
:101940005B258C31220021082400B10022002008F0
:101950002400B0000230AD315B258C31220021081B
:101960002400B300220020082400B2000330AD316F
:101970005B258C31220021082400B50022002008BC
:101980002400B4000430AD315B258C3122002108E5
:101990002400B700220020082400B6004E092300CE
:1019A000E70024004F092300E800E70A0319E80ACA
:1019B00024002E0823006707E90024002F082300D5
:1019C000683DEA006A08803AEB0080306B02031D34
:1019D000EB2C0430690203180D2D24004E0923005E
:1019E000E70024004F092300E800E70A0319E80A8A
:1019F00024002E0823006707E90024002F08230095
:101A0000683DEA006A08803AEB007F306B02031DF4
:101A10000B2DFD30690203186B2D24002F08CF0019
:101A20002E08CE004F082200A90024004E082200F4
:101A3000A800AE3176268C31220028082500D5007A
:101A4000220029082500D60022002A082500D700F8
:101A500055082300E400250056082300E500250072
:101A600057082300E6009B3168238C31230065086A
:101A700026009900230064082600980024004F08DF
:101A80002200A90024004E082200A800AE317626CC
:101A90008C31220028082500D800220029082500C2
:101AA000D90022002A082500DA0058082300E400A3
:101AB000250059082300E50025005A082300E60008
:101AC0009D31F2258C312300650826009D002300FE
:101AD000640826009C00240050092300E70024002D
:101AE00051092300E800E70A0319E80A2400300836
:101AF00023006707E900240031082300683DEA005D
:101B00006A08803AEB0080306B02031D892D043097
:101B100069020318AB2D240050092300E7002400BC
:101B200051092300E800E70A0319E80A24003008F5
:101B300023006707E900240031082300683DEA001C
:101B40006A08803AEB007F306B02031DA92DFD303F
:101B500069020318212E24003108D1003008D0007A
:101B600050092300E700240051092300E800E70A98
:101B70000319E80A6708FF3E2200A800033023008B
:101B8000683D2200A900AE3176268C31220028085B
:101B90002500DB00220029082500DC0022002A089D
:101BA0002500DD005B082300E40025005C0823001D
:101BB000E50025005D082300E60098312F208C31D8
:101BC0002300650825009200230064082500910089
:101BD000240050092300E700240051092300E800F5
:101BE000E70A0319E80A6708FF3E2200A80003304D
:101BF0002300683D2200A900AE3176268C312200F8
:101C000028082500DB00220029082500DC0022002E
:101C10002A082500DD005B082300E40025005C089D
:101C20002300E50025005D082300E60098312F2001
:101C30008C312300650825009900230064082500E5
:101C40009800240052092300E700240053092300D0
:101C5000E800E70A0319E80A2400320823006707AE
:101C6000E900240033082300683DEA006A08803A4E
:101C7000EB0080306B02031D3F2E04306902031815
:101C8000612E240052092300E70024005309230099
:101C9000E800E70A0319E80A24003208230067076E
:101CA000E900240033082300683DEA006A08803A0E
:101CB000EB007F306B02031D5F2EFD3069020318BD
:101CC000B52E24003308D3003208D2008030220021
:101CD000EA009D30EB004330EC000030E700343088
:101CE000E8004230E900C030E4007F30E5004430D5
:101CF000E6000030E1000030E2000030E3002400A4
:101D000053082200A900240052082200A800AE3186
:101D100076268C3122002808DE002908DF002A08F8
:101D2000E0009931C2218C3122005E082300A0001E
:101D300022005F082300A100220060082300A20007
:101D400099313B218C31230021082400DB00230042
:101D500020082400DA00B4305A065B04031DB32EB9
:101D600022008D14B52E22008D102400540923006A
:101D7000E700240055092300E800E70A0319E80AF0
:101D80002400340823006707E900240035082300F5
:101D9000683DEA006A08803AEB0080306B02031D60
:101DA000D32E043069020318F52E240054092300B1
:101DB000E700240055092300E800E70A0319E80AB0
:101DC0002400340823006707E900240035082300B5
:101DD000683DEA006A08803AEB007F306B02031D21
:101DE000F32EFD30690203183F2F24003508D5007B
:101DF0003408D40000302200EA003C30EB004230CE
:101E0000EC000030E7004030E8004030E900C0302E
:101E1000E4007F30E5004430E6000030E1000030AF
:101E2000E2000030E300240055082200A90024004D
:101E300054082200A800AE3176268C3122002808F2
:101E4000DE002908DF002A08E0009931C2218C3128
:101E500022005E082300A00022005F082300A100EA
:101E6000220060082300A20099313B218C3123001D
:101E700021082400D900230020082400D8002400D1
:101E800056092300E700240057092300E800E70A69
:101E90000319E80A2400360823006707E900240034
:101EA00037082300683DEA006A08803AEB0080307A
:101EB0006B02031D5D2F0430690203187F2F24007D
:101EC00056092300E700240057092300E800E70A29
:101ED0000319E80A2400360823006707E9002400F4
:101EE00037082300683DEA006A08803AEB007F303B
:101EF0006B02031D7D2FFD3069020318C92F2400DA
:101F00003708D7003608D60000302200EA0000303B
:101F1000EB000030EC006030E7009F30E800443018
:101F2000E900C030E4007F30E5004430E6000030D6
:101F3000E1000030E2000030E300240057082200F6
:101F4000A900240056082200A800AE3176268C3164
:101F500022002808DE002908DF002A08E000993165
:101F6000C2218C3122005E082300A00022005F08FD
:101F70002300A100220060082300A20099313B2128
:101F80008C31230021082500C600230020082500ED
:101F9000C50024006003031D732C21004708CB00FB
:101FA0004608CA004508C9004408C800450823007F
:101FB000C000210044082300BF0021005108230075
:101FC000C200210050082300C10090315F208C31F5
:101FD00023003F082100C800230040082100C90059
:101FE000890D893B8909CA00CB002400C901C90AAF
:101FF0002500CD01CE01CB01CC012400E001732CE2
:10200800080021006608031D0C286703031D08004B
:1020180020008F1B5B2801302400A8070030A93D51
:102028002908803A2200A70080302702031D1F28B4
:102038001A3024002802031C080019302400A800C4
:102048000030A9002100660824006406031930281E
:1020580021006703031D412801302200A70027083B
:102068002300EF070B306F02031C3C28EF01EF0A37
:102078006F08A03179209031572821006608240084
:102088006206031D572801302200A70027082400F4
:10209800E30706306302031C5328E301E30A6308DD
:1020A800AD314325903120008F1B080057282400AC
:1020B800A801A90108002400C00123004008CA00A3
:1020C8003F08C9000030C6008030C7003F30C80054
:1020D80088280030C6000030C70040308628A63067
:1020E800C6002A307A280030C6000030C7003F30CA
:1020F8008628A630C600AA3084280030C600803062
:10210800C7003E30C800A1284208003A03198D28AC
:10211800A1284108013A03196D28033A03197328C5
:10212800013A03197728073A03197D28013A031958
:102138008128033A0319A128A1284A082200A900E6
:10214800230049082200A800AE31762690312200EB
:102158002808D1002908D2002A08D30023004608FD
:102168002200CE00230047082200CF0023004808A1
:102178002200D00088310520903122004E0823002B
:10218800A00022004F082300A100220050082300CD
:10219800A20099313B21903123002108CA00200870
:1021A800C9004A082200A900230049082200A80003
:1021B800AE3176269031220028082300B60022008E
:1021C80029082300B70022002A082300B800A331F9
:1021D8003D23903123003608C3003708C40038086F
:1021E800C5004A082200A900230049082200A800C7
:1021F800AE317626903122002A0823004506031DB9
:102208000F292200290823004406031D0F29220054
:10221800280823004306031914292400C001C00A12
:1022280023004A08C0004908BF0008002000901891
:10223800302924003F08803A2200BC0080303C024C
:10224800031D2929013024003E02031C4329FF30C5
:102258002400BE07FF30422924003F08803A2200AC
:10226800BC0080303C02031D3C29193024003E028A
:102278000318432901302400BE070030BF3D240065
:102288003E083F04031DA52923006C08031D51299E
:10229800EC01EC0A2400AC01AD0121004F08240038
:1022A8002D02031D5B2921004E0824002C02031C6B
:1022B8007B2921005308031D7B296508031D7B2901
:1022C80022000D1124004403031973290130220050
:1022D800A0000030A100AD31742591317B29013077
:1022E8002200B8000030B900A1312A219131210023
:1022F8006508031DA1295308031DA1295603031DC1
:10230800932925005E035F04031DA1292400DF0132
:10231800DF0A01302500D1000030D200A1292400B5
:1023280042030319A129DF01C201C20A2500D10114
:10233800D2012100D3012300EC012500DE01DF01D9
:10234800080024003F08803A2200BC0080303C028C
:10235800031DB129193024003E02031C0800210086
:102368006503031DC02924005F082200BC00BD01CD
:102378003C08B2003D08DD29240042030319C8299E
:1023880021005303031DCE2901302200B200003082
:10239800B300DE29250051035204031DE129210061
:1023A8005308031DE1296508031DE12900302200B7
:1023B800B200B300A231F52291312100560C22005F
:1023C800031C0D1103180D150030A000A100AD313C
:1023D8007425913100302200B800B900A1312A21BA
:1023E8002300EC012400C2012500D101D2010130F3
:1023F800DE000030DF0019302400BE000030BF00CE
:10240800080020002D08B3002E08B4002F08B500DE
:102418000310340D350DB6003608B9003008B30086
:102428003108B4003208B5000310340D350DB6007C
:102438003608B800390803192D2A38083902031854
:10244800342A3903FF3A3807B30019303302031C22
:10245800342A3008AD003108AE003208AF00080059
:10246800380803190800390838020318432A3803C2
:10247800FF3A3907B3001930330203180800063051
:10248800B3003308B700AF1BB717B21B3717AE1727
:10249800FF30AD05FF30AE050030AF05B117FF3096
:1024A800B005FF30B1050030B2053808390203180D
:1024B8007F2A0130B035B10DB20D890B5E2A01308B
:1024C800B8023808390603197A2A0130B7023708E2
:1024D800073903197A2A5D2A0130AF36AE0CAD0CE4
:1024E800890B712A0130B3003308B9073908380657
:1024F8000319A42A702A390838020318A42A0130BB
:10250800AD35AE0DAF0D890B842A0130B9023808FC
:1025180039060319A02A0130B70237080739031909
:10252800A02A832A0130B236B10CB00C890B972A45
:102538000130B3003308B80739083806031D962A56
:10254800B71FB62AFF30AD06FF30AE06FF30AF0624
:102558000130AD07003003180130AE070030031812
:102568000130AF07371FC82AFF30B006FF30B10669
:10257800FF30B2060130B007003003180130B10750
:10258800003003180130B207B7012D08B0072E0834
:10259800B13D2F08B23DB21FE32AFF30B006FF302D
:1025A800B106FF30B2060130B00700300318013021
:1025B800B107003003180130B207B701B70A300875
:1025C800F0003108F1003208F2003908B30033088E
:1025D800F3003708B4003408F400A531BD257008AD
:1025E8002000AD007108AE007208AF00080022009C
:1025F8004108C7004208C8004308C9000310480D35
:10260800490DCA004A08CD004408C7004508C8005B
:102618004608C9000310480D490DCA004A08CC00F5
:102628004D080319232B4C084D0203182A2B4D0380
:10263800FF3A4C07C70019304702031C2A2B4408ED
:10264800C1004508C2004608C30008004C08031929
:1026580008004D084C020318392B4C03FF3A4D076C
:10266800C70019304702031808000630C70047089A
:10267800CB00C31BCB17C61B4B17C217FF30C105B6
:10268800FF30C2050030C305C517FF30C405FF3051
:10269800C5050030C6054C084D020318752B0130DE
:1026A800C435C50DC60D890B542B0130CC024C081E
:1026B8004D060319702B0130CB024B08073903195B
:1026C800702B532B0130C336C20CC10C890B672BFE
:1026D8000130C7004708CD074D084C0603199A2B4F
:1026E800662B4D084C0203189A2B0130C135C20DD8
:1026F800C30D890B7A2B0130CD024C084D06031906
:10270800962B0130CB024B0807390319962B792BEE
:102718000130C636C50CC40C890B8D2B0130C7009F
:102728004708CC074D084C06031D8C2BCB1FAC2B40
:10273800FF30C106FF30C206FF30C3060130C107B3
:10274800003003180130C207003003180130C307F6
:102758004B1FBE2BFF30C406FF30C506FF30C60630
:102768000130C407003003180130C50700300318D2
:102778000130C607CB014108C4074208C53D4308DC
:10278800C63DC61FD92BFF30C406FF30C506FF3033
:10279800C6060130C407003003180130C5070030F1
:1027A80003180130C607CB01CB0A4408A00045082E
:1027B800A1004608A2004D08C7004708A3004B081F
:1027C800C8004808A400A631212622002008C1001C
:1027D8002108C2002208C30008002300DF015408B2
:1027E80053045204031D1D2C00302200A0000030A9
:1027F800A1000030A200230055082200A3002300F6
:1028080056082200A400230057082200A500A03182
:10281800EE209331031C152C21302500CF00003009
:10282800D00000302300D2000030D3000030D400A4
:102838000800570856045504031D292C0030D200FF
:102848008030D3003F30D400080052082200A00096
:10285800230053082200A100230054082200A200EC
:102868000030A3000030A4000030A500A031EE2005
:1028780093310318A32C23005508A0005608A10083
:102888005708A20099313B21933123002308E30024
:102898002208E2002108E1002008E0006308220085
:1028A800AB00230062082200AA002300610822006E
:1028B800A900230060082200A800AE31E226933167
:1028C8002300570822002A06031D742C23005608EB
:1028D80022002906031D742C23005508220028060F
:1028E8000319832C21302500CF000030D0000030A0
:1028F8002300D2000030D3000030D40008002300A9
:1029080060080139D8005808DF0052082200BE00CC
:10291800230053082200BF00230054082200C000EF
:10292800AC31EC24933122003E082300D20022006F
:102938003F082300D300220040082300D4002300CE
:1029480052082200E800230053082200E90023006F
:1029580054082200EA009E319D269331220068081F
:102968002300D900220069082300DA0022006A083F
:102978002300DB0055082200CE0023005608220061
:10298800CF00230057082200D00023005908220056
:10299800D10023005A082200D20023005B0822003D
:1029A800D30088310520933122004E082300DC0033
:1029B80022004F082300DD00220050082300DE001B
:1029C8005C08C5005D08C6005E08C700863195260C
:1029D800933123004508D2004608D3004708D400A5
:1029E8005F080319080052082200BE00230053089C
:1029F8002200BF00230054082200C000AC31EC24A0
:102A080022003E082300D20022003F082300D30002
:102A1800220040082300D400080000302100AE0046
:102A28008030AF003F30B0000030AB000030AC0069
:102A38000030AD0020006708F0006808F100690860
:102A4800F2006408F3006508F4006608F500A03198
:102A5800B3209531031C372D20006708BA00680899
:102A6800BB006908FE2D20006708FB006808FC0011
:102A78006908FD000030F8000030F9004030FA0025
:102A88009F314D27953178082000AA007908AB00BE
:102A98007A08AC00AC31DA24953120002A08B0005D
:102AA8002B08B1002C08B2000030AD00B430AE00E5
:102AB8004330AF0092310522953120002D082100C6
:102AC800A00020002E082100A10020002F082100CE
:102AD800A20020082000AA00210021082000AB0045
:102AE800210022082000AC00AC31DA249531200006
:102AF8002A08F8002B08F9002C08FA000030AD006D
:102B0800B430AE004330AF006708AA006808AB00D5
:102B18006908AC00AC31DA24953120002A08B000ED
:102B28002B08B1002C08B200923105229531200003
:102B38002D08BA002E08BB002F08BC000030BD00CD
:102B48003430BE004330BF009C31A02495312000B2
:102B58003A08FB003B08FC003C08FD009F314D276C
:102B6800953178082100A3007908A4007A08A50007
:102B780000302000AD00B430AE004330AF0021007B
:102B880023082000B000210024082000B100210003
:102B980025082000B20092310522953120002D0829
:102BA8002100AB0020002E082100AC0020002F08D7
:102BB8002100AD0000302000AD00B430AE0043303D
:102BC800AF006708AA006808AB006908AC00AC3120
:102BD800DA24953120002A08B0002B08B1002C080F
:102BE800B20092310522953120002D08BA002E0836
:102BF800BB002F08BC000030BD003430BE0043309D
:102C0800BF009C31A024953120003A082100AE0075
:102C180020003B082100AF0020003C082100B00044
:102C28002E08FB002F08FC003008FD002000640877
:102C3800F8006508F9006608FA009F314D279531BC
:102C480078082000B0007908B1007A08B2002100A5
:102C58002B082000AA0021002C082000AB0021002E
:102C68002D082000AC00AC31DA24953120002A0868
:102C7800AD002B08AE002C08AF009231052295312B
:102C880020002D082100A60020002E082100A70002
:102C980020002F082100A8002608FB002708FC00B8
:102CA8002808FD000030F800A030F9004030FA0094
:102CB8009F314D27953178082000BD007908BE0066
:102CC8007A08BF000030BA001030BB004130BC00A9
:102CD8009C31A024953120003A08CA003B08CB005B
:102CE8003C08CC009831B42020004B082100AA00F1
:102CF80020004A082100A9002A082000E500210038
:102D080029082000E400080000302100A6008030D7
:102D1800A7003F30A8000030A3000030A400003016
:102D2800A50020006708F0006808F1006908F200B3
:102D38006408F3006508F4006608F500A031B320C4
:102D48009631031CAE2E20006708BA006808BB0045
:102D58006908532F20006708FB006808FC00690811
:102D6800FD000030F8000030F9004030FA009F31D3
:102D78004D27963178082000AA007908AB007A0818
:102D8800AC00AC31DA24963120002A08B0002B08B8
:102D9800B1002C08B2000030AD00B430AE004330B2
:102DA800AF0092310522963120002D082100A000A5
:102DB80020002E082100A10020002F082100A200D9
:102DC80020082000AA00210021082000AB002100D3
:102DD80022082000AC00AC31DA24963120002A0801
:102DE800F8002B08F9002C08FA000030AD00B430C8
:102DF800AE004330AF006708AA006808AB00690856
:102E0800AC00AC31DA24963120002A08B0002B0837
:102E1800B1002C08B20092310522963120002D080D
:102E2800BA002E08BB002F08BC000030BD003430AB
:102E3800BE004330BF009C31A024963120003A08E0
:102E4800FB003B08FC003C08FD009F314D279631F4
:102E580078082100A3007908A4007A08A5000030AA
:102E68002000AD00B430AE004330AF006708AA00C0
:102E78006808AB006908AC00AC31DA249631200050
:102E88002A08B0002B08B1002C08B20092310522A4
:102E9800963120002D08BA002E08BB002F08BC0070
:102EA8000030BD003430BE004330BF009C31A02448
:102EB800963120003A082100A60020003B08210096
:102EC800A70020003C082100A80000302000BA001C
:102ED8004030BB004030BC00210023082000AA007D
:102EE800210024082000AB00210025082000AC00A8
:102EF800AC31DA24963120002A08AD002B08AE0048
:102F08002C08AF006408F8006508F9006608FA00A4
:102F180021002608FB002708FC002808FD009F3137
:102F28004D27963178082000B0007908B1007A085A
:102F3800B20092310522963120002D08BD002E08DE
:102F4800BE002F08BF009C31A024963120003A080B
:102F58002100A90020003B082100AA0020003C080D
:102F68002100AB0029082000CA0021002A082000FF
:102F7800CB0021002B082000CC009831B4209631DA
:102F880020004B08D9004A08D8000330DA00003086
:102F9800DB00AD31DA25963182302000EA0024309A
:102FA800EB0058086A07860059086B3D8700403FC8
:102FB8002100A900413FAA00423FAB002908FB00BD
:102FC8002A08FC002B08FD000030F800C830F90082
:102FD8004230FA009F314D27963178082000CA0008
:102FE8007908CB007A08CC009831B42020004B082F
:102FF800E5004A08E40008000030FB000030FA0051
:103008000030F9000030F800701C12287408F80726
:103018007508F93D7608FA3D7708FB3D0130F4352F
:10302800F50DF60DF70D890B13280130F336F20C68
:10303800F10CF00C890B1A287308720471047004DF
:10304800031D08287B08F3007A08F2007908F100CC
:103058007808F00008002300660865046404031D6E
:103068003B280030E4008030E5003F30E600C03007
:103078002200AE007F30AF004430B0002300640867
:103088002200B100230065082200B2002300660870
:103098002200B3009D314925983122002E082400D2
:1030A800E90022002F082400EA002200300824004A
:1030B800EB0056302300D5008E30D600BF30D70045
:1030C800240069082300D20024006A082300D300E2
:1030D80024006B082300D4009331F1239831230096
:1030E80052082400EC00230053082400ED002300BC
:1030F80054082400EE009F302200CE006830CF0034
:103108004030D00024006C082200D10024006D0853
:103118002200D20024006E082200D3008831052046
:10312800983122004E082400E60022004F082400AF
:10313800E700220050082400E80066082300A000E9
:10314800240067082300A100240068082300A200C7
:1031580099313B2123002108E5002008E4000800FC
:1031680020004A08CE004B08CF004C08D0000310BE
:103178004F0D500DD1005108D7005708031DCD2819
:103188000030CD000030CC000030CB000030CA0049
:1031980008004A08CE004B08CF004C08D000173072
:1031A800D036CF0CCE0C890BD4284E08D10051084C
:1031B800D200CB17FF30CA05FF30CB050030CC0555
:1031C8004A08D3004B08D4004C08D500D6018E30ED
:1031D800D702D71F0B295708803A8F3E0318FD28BE
:1031E8000030CD000030CC000030CB000030CA00E9
:1031F80008000130D636D50CD40CD30C890BFE2828
:103208000130CE004E08D70703192429FD281830AD
:103218005702031C21290030CD000030CC000030BB
:10322800CB000030CA0008000130D335D40DD50DCD
:10323800D60D890B19290130D7025708031D182903
:10324800520803193229D309D409D509D609D30A52
:103258000319D40A0319D50A0319D60A5608CD004A
:103268005508CC005408CB005308CA0008002300B6
:103278002008A4002108A5002208A6000310250D97
:10328800260DA7002708AD002D08031D542900307E
:10329800A3000030A2000030A1000030A000080008
:1032A8002008A4002108A5002208A6001730A63689
:1032B800A50CA40C890B5B292408A7002708A800E3
:1032C800A117FF30A005FF30A1050030A205200896
:1032D800A9002108AA002208AB00AC018E30AD027B
:1032E800AD1F92292D08803A8F3E0318842900309B
:1032F800A3000030A2000030A1000030A0000800A8
:103308000130AC36AB0CAA0CA90C890B852901300D
:10331800A4002408AD070319AB29842918302D020D
:10332800031CA8290030A3000030A2000030A1002F
:103338000030A00008000130A935AA0DAB0DAC0D76
:10334800890BA0290130AD022D08031D9F292808EB
:103358000319B929A909AA09AB09AC09A90A0319CA
:10336800AA0A0319AB0A0319AC0A2C08A3002B08F4
:10337800A2002A08A1002908A00008002200640869
:10338800C1006508C2006608C3006108BE00620883
:10339800BF006308C000AC31EC24993122003E081C
:1033A800C4003F08C5004008C6009231FB2299318D
:1033B80022004108AE004208AF004308B0006A0886
:1033C800C1006B08C2006C08C3006708BE0068082B
:1033D800BF006908C000AC31EC24993122003E08D6
:1033E800C4003F08C5004008C6009231FB2299314D
:1033F80022004108CE004208CF004308D0005E08F2
:10340800C1005F08C2006008C3006108BE0062080E
:10341800BF006308C000AC31EC24993122003E089B
:10342800C4003F08C5004008C6009231FB2299310C
:1034380022004108D1004208D2004308D300883155
:103448000520993122004E08B1004F08B2005008FB
:10345800B3009D314925993122002E08ED002F082F
:10346800EE003008EF006708C1006808C20069086C
:10347800C3006D08C4006E08C5006F08C60092310D
:10348800FB2222004108DE004208DF004308E0007A
:10349800080022006A0869046804031D5A2A0030DB
:1034A800E8000030E9000030EA0008006A087F39C7
:1034B800ED00EE01ED35EE0D6D08EB076E08EC3D05
:1034C800690D690D0139ED00EE016D08EB076E0815
:1034D800EC3DEC1F7C2A22302500CF000030D000C4
:1034E80000302200E8000030E9000030EA0008005F
:1034F8006C08803AED0081306D02031D852A00308A
:103508006B02031CC22A22302500CF000030D000F5
:1035180022006808A0006908A1006A08A20000301B
:10352800A3000030A4000030A500A031EE209A319D
:103538000318BA2AFF302300A0007F30A1007F3093
:10354800A20020082200BE00230021082200BF009C
:10355800230022082200C000AC31EC2422003E08DF
:10356800E8003F08E9004008EA000800FF302200B0
:10357800E8007F30E9007F30EA00080022006C088C
:10358800EE006B08ED006E0DEE0CED0C6A086D0692
:1035980080396D06EA006B080139ED00ED0CED0C81
:1035A80069086D067F396D06E90008002300DB0114
:1035B80078305B020318652B00302200AE003430EF
:1035C800AF004330B0001030CE004930CF0040305B
:1035D800D00023005B08D300D40153082200A000C8
:1035E800230054082200A1000330A2000030A300E9
:1035F800AD31F6259A3122002108A9002008A8003B
:10360800AE3176269A3122002808D1002908D20046
:103618002A08D300883105209A3122004E08B100CB
:103628004F08B2005008B3009D3149259A31220055
:103638002E082300D80022002F082300D9002200DA
:1036480030082300DA005808C5005908C6005A088F
:10365800C7008A3177229A3123004508D8004608E6
:10366800D9004708DA005B08D300D40153082200C8
:10367800A000230054082200A1000330A20000305B
:10368800A300AD31F6259A3182302300D5002430CD
:10369800D6002200200823005507860022002108B2
:1036A8002300563D87005808C03F5908C13F5A08B3
:1036B800C23F0130D3005308DB0778305B02031C9C
:1036C800E02AD701D70A08002300660865046404C5
:1036D800031D732BFF30E4000030E5000800C03004
:1036E80064067F3003196506443003196606031D16
:1036F800802BE401E5010800C0302200AE007F30D5
:10370800AF004430B000230064082200B100230059
:1037180065082200B200230066082200B3009D312C
:1037280049259B3122002E082400E90022002F0899
:103738002400EA00220030082400EB006A3023004D
:10374800D5009C30D600BF30D7002400690823007C
:10375800D20024006A082300D30024006B08230049
:10376800D4009331F1239B31230052082400EC004C
:10377800230053082400ED00230054082400EE0021
:10378800E3302200CE000B30CF004130D0002400BF
:103798006C082200D10024006D082200D200240009
:1037A8006E082200D300883105209B3122004E0884
:1037B8002400E60022004F082400E70022005008F9
:1037C8002400E80066082300A000240067082300FE
:1037D800A100240068082300A20099313B2123009E
:1037E8002108E5002008E40008002300360822002C
:1037F800A000230037082200A10023003808220077
:10380800A200BD302300B90039082200A300A1316D
:1038180067219B312300BE1F372C36082200A000E9
:10382800230037082200A100230038082200A20044
:103838000030A3000030A4000030A500A031EE2025
:103848009B3103182F2C00302300B6008030B700BE
:10385800BF30B800080000302300B6000030B700C1
:103868000030B800080000303E02153003193D0250
:10387800031808003608A0003708A1003808A2007D
:1038880099313B219B3123002308B1002208B00065
:103898002108AF002008AE00A331CF239B312300BD
:1038A8002E08BA002F08BB003008BC0036082200DA
:1038B800A000230037082200A100230038082200B6
:1038C800A20023003A082200A30023003B0822009C
:1038D800A40023003C082200A500A031EE209B3163
:1038E8000318982C00302200C1008030C200BF307D
:1038F800C30023003A082200C40023003B0822002A
:10390800C50023003C082200C6009231FB22220099
:1039180041082300B600220042082300B700220015
:1039280043082300B800080023003A08B6003B0803
:10393800B7003C08B800080020003D08C0003E0859
:10394800C1003F08C2000310410D420DC3004308E7
:10395800C8004808031DB72C0030BA000030BB006F
:103968000030BC0008003A08C0003B08C1003C0811
:10397800C2000310410D420DC3004308C9004908A5
:10398800031DCD2C0030BA000030BB000030BC0055
:1039980008000030C5000030C6000030C70089307C
:1039A8004907C0004008C8023D08C0003E08C100E1
:1039B8003F08C2001030C236C10CC00C890BDF2C86
:1039C8004008C3004308C9003A08C0003B08C100CA
:1039D8003C08C2001030C236C10CC00C890BEF2C59
:1039E8004008C3004308C9068030C0004008C90524
:1039F800BE17FF30BD05FF30BE050030BF05BB1741
:103A0800FF30BA05FF30BB050030BC051830C000D8
:103A18004008C4000130C535C60DC70D890B0F2DF0
:103A28003C083F02031D1E2D3B083E02031D1E2DB0
:103A38003A083D02031C272D3A08BD023B08BE3B4D
:103A48003C08BF3B45140130BD35BE0DBF0D890B89
:103A5800282D0130C402031D0E2D4508F00046082C
:103A6800F1004708F2004808C0004008F300490880
:103A7800C1004108F400A531BD2570082000BA0036
:103A88007108BB007208BC00080022003108B400AD
:103A98003208B5003308B6000310350D360DB700EF
:103AA8003708BC003C08031D602D0030AE00003014
:103AB800AF000030B00008002E08B4002F08B50091
:103AC8003008B6000310350D360DB7003708BD00B5
:103AD8003D08031D762D0030AE000030AF000030E9
:103AE800B00008000030B9000030BA000030BB0058
:103AF80089303D07B4003408BC023108B4003208EC
:103B0800B5003308B6001030B636B50CB40C890BC6
:103B1800882D3408B7003708BD002E08B4002F08D8
:103B2800B5003008B6001030B636B50CB40C890BA9
:103B3800982D3408B7003708BD068030B400340823
:103B4800BD05B217FF30B105FF30B2050030B3052F
:103B5800AF17FF30AE05FF30AF050030B0051830A5
:103B6800B4003408B8000130B935BA0DBB0D890B63
:103B7800B82D30083302031DC72D2F083202031D4C
:103B8800C72D2E083102031CD02D2E08B1022F0894
:103B9800B23B3008B33B39140130B135B20DB30D27
:103BA800890BD12D0130B802031DB72D3908A000AB
:103BB8003A08A1003B08A2003C08B4003408A3005E
:103BC8003D08B5003508A400A631212622002008AA
:103BD800AE002108AF002208B000080023006608E4
:103BE80065046404031DFB2DE401E5010800C030F1
:103BF80064067F3003196506443003196606031D01
:103C08000A2EFF30E4000030E500080000302200F2
:103C1800C1008030C2003F30C30023006408220086
:103C2800B100230065082200B200230066082200C4
:103C3800B300C030AE007F30AF004430B0009D31DB
:103C480049259D3122002E08BE002F08BF003008EC
:103C5800C000AC31EC249D3122003E08C4003F086E
:103C6800C5004008C6009231FB229D312200410860
:103C78002400E900220042082400EA002200430848
:103C88002400EB006A302300D5009C30D600BF30FA
:103C9800D700240069082300D20024006A08230002
:103CA800D30024006B082300D4009331F1239D3105
:103CB800230052082400EC00230053082400ED00E0
:103CC800230054082400EE00E3302200CE000B301D
:103CD800CF004130D00024006C082200D10024001D
:103CE8006D082200D20024006E082200D30088311B
:103CF80005209D3122004E082400E60022004F08CE
:103D08002400E700220050082400E8006608230089
:103D1800A000240067082300A100240068082300ED
:103D2800A20099313B2123002108E5002008E40086
:103D3800080022006808A0006908A1006A08A2001B
:103D48000030A3000030A4000030A500A031EE2010
:103D58009E310318BC2E21302500CF000030D00042
:103D680000302200E8000030E9000030EA000800D6
:103D780022006A0869046804031DCF2E223025003A
:103D8800CF000030D00000302200E8000030E90009
:103D98000030EA0008000030C1008030C200BF30A7
:103DA800C3000030CE000030CF004030D0006C306F
:103DB800EB006B08A3006808A0006908A1006A0866
:103DC800A200A13167219E3122002008D1002108DC
:103DD800D2002208D300883105209E3122004E08E7
:103DE800C4004F08C5005008C6009231FB229E311E
:103DF80022004108E8004208E9004308EA00FF30D1
:103E0800EC07FF30ED3D6808DE006908DF006A084E
:103E1800E0001E30E100A830E2000830E300003086
:103E2800E400A5315D259E3122005E08E8005F08A8
:103E3800E9006008EA006808C1006908C2006A0869
:103E4800C3007230CE003130CF003F30D0006D0853
:103E5800A9006C08A800AE3176269E3122002808F9
:103E6800D1002908D2002A08D300883105209E31C4
:103E780022004E08C4004F08C5005008C600923101
:103E8800FB2222004108E8004208E9004308EA0052
:103E9800080078082000A0007908A1007A08A2008C
:103EA8000310210D220DA3002308A4002408031DDC
:103EB800642F0030F8000030F9000030FA000800E4
:103EC8007B08A0007C08A1007D08A2000310210D3A
:103ED800220DA3002308A9002908031D7A2F00300A
:103EE800F8000030F9000030FA00080029087B3E8D
:103EF800A0002008A4077808A0007908A1007A0883
:103F0800A2001030A236A10CA00C890B862F200825
:103F1800A3002308A9007B08A0007C08A1007D0855
:103F2800A2001030A236A10CA00C890B962F2008F5
:103F3800A3002308A9068030A0002008A905F917C6
:103F4800FC17FF30FB05FF30FC050030FD05003095
:103F5800A5000030A6000030A7000730A000200808
:103F6800A800781CBD2F7B08A5077C08A63D7D0806
:103F7800A73D0130FA36F90CF80C890BBE2F013039
:103F8800FB35FC0DFD0D890BC42F0130A802031D64
:103F9800B52F0930A0002008A800781CD92F7B086D
:103FA800A5077C08A63D7D08A73D0130FA36F90C27
:103FB800F80C890BDA2F0130A736A60CA50C890B53
:103FC800E02F0130A802031DD12F2508F000260894
:103FD800F1002708F2002408A0002008F3002908AF
:103FE800A1002108F400A531BD257008F80071086A
:103FF800F9007208FA00080021009E171E088F3980
:1040080060389E00FC309E051D14080021002C0815
:104018002000E40021002D082000E50021002E08E2
:104028002000E60021002F082000E70021003008CA
:104038002000E800210031082000E9009631882698
:10404800A03120006508EE006408ED006E08803A93
:10405800EC0080306C02031D332801306D02031818
:104068003B289C302100AC00FF30AD0008006430D4
:104078002100AC000030AD00080020000E187528A3
:1040880001302400AA070030AB3D2B08803A2200FB
:10409800A70080302702031D54281A3024002A0262
:1040A800031C080019302400AA000030AB002100CE
:1040B8006703031D6428E701AD31A625A0316E28EA
:1040C80001302200A70027082100E6070330660216
:1040D8000318E601AE319826A03120000E1808001A
:1040E80071282400AA01AB0108002200A6000630AE
:1040F8002602031895282608A400A5012408A00074
:104108002508A1000130A2000030A300A53109252F
:10411800A03106302200A0000030A100AF31CC272A
:10412800080006302200A0000030A1000130A200E3
:104138000030A300A5310925A03122002608A400DB
:10414800A501A409A509A40A0319A50A24080B3E78
:10415800A0000030253DA100AF31CC270800F21F98
:10416800C9287009F6007109F7007209F800F60A03
:104178000319F70A0319F80A00307607F00000302F
:10418800773DF1008030783DF200F51FDF28730994
:10419800F6007409F7007509F800F60A0319F70A1A
:1041A8000319F80A00307607F3000030773DF40071
:1041B8008030783DF5008030F2068030F5067508CD
:1041C8007202031D080074087102031D08007308B9
:1041D800700208002200A21F05292009A600210953
:1041E800A7002209A800A60A0319A70A0319A80A02
:1041F80000302607A0000030273DA1008030283D70
:10420800A200A51F1B292309A6002409A700250928
:10421800A800A60A0319A70A0319A80A0030260746
:10422800A3000030273DA4008030283DA500803041
:10423800A2068030A50625082202031D08002408CE
:104248002102031D08002308200208002100650838
:104258002200BA00BB0139083B06031D352938087E
:104268003A06031908003808BA003A082100E500A0
:10427800220038033904031D43290D128D12210031
:104288006503031D5F296708031D5429E701E70A31
:1042980022008D1023006F08A0317920A1315F29F9
:1042A8002100E701AE319826A131AD31A625A13113
:1042B800AD312F25A13114302200AC000030AD0003
:1042C800AF319A2708002200220821042004031D88
:1042D8007B2923088600013087000030C03FC13F9A
:1042E8000030A0000030A1000030A2000800220821
:1042F8007F39A400A501A435A50D23088600013047
:1043080087002408C03F2508C13F210D210D013930
:10431800A400A50123088600013087002408810431
:104328004131250881042308860001308700823046
:1043380081074131FF30813D7F31220880393F3884
:10434800A200A11308001E302200B2003208B400F7
:104358006430A0000030A1000130A2000030A300AA
:10436800A5310925A13164302200A0000030A10048
:10437800AF31CC27A13122003408B200B301320892
:10438800AC003308AD00AF319A27A13100302200CC
:10439800A000A1000130A2000030A300A53109252A
:1043A800A13100302200A000A100AF31CC27A131FB
:1043B80022003408B200B3013208AC003308AD0063
:1043C800AF319A27080000302000A3000030A20077
:1043D8000330A100E830A0000C30B600F230B7007E
:1043E8000130B8000030B9003508F3003408F20095
:1043F8003308F1003208F0003108F7003008F60001
:104408002F08F5002E08F40098310020A13170081B
:104418002000B6077108B73D7208B83D7308B93D6A
:104428003908A7003808A6003708A5003608A400F0
:10443800A631FC2620002308B1002208B00021087C
:10444800AF002008AE00080022001D1021000E1148
:104458008E1026000D108D110D12210010139012D0
:104468001012901110110F30250093040F309A0488
:104478000F30260093040F309A040F309E040F303B
:104488002C0093040F3096040F3099040F309C04CD
:104498000F309F0425009D019E019F01003092006E
:1044A80032309100003099006430980000302600C6
:1044B80092009630910000309900C8309800AC31D5
:1044C800E324A231AC31D3240800FF302100E300FB
:1044D8002200A20022082100E4007C2A6730792A01
:1044E8003330792A1F30792A193023009B009F2AFC
:1044F80022002108253A03198B2A6E3A0319902ABB
:10450800313A0319952AEC3A03199A2A9F2A200866
:10451800803A0319722A9F2A2008003A0319742A3C
:104528009F2A2008123A0319762A9F2A2008003A5F
:104538000319782A9F2A23001E139E161E121E1581
:104548009D171D131D169D11210091160B178B1712
:10455800080027000C108C100C118C110C12D82A92
:10456800720C031C0C1003180C140800720C031CAA
:104578008C1003188C140800720C031C0C110318FF
:104588000C150800720C031C8C1103188C150800FC
:10459800720C031C0C1203180C1608000C148C1453
:1045A8000C158C150C1608007108003A0319DD2A41
:1045B800F42A7008013A0319B42A033A0319BA2AEB
:1045C800013A0319C02A073A0319C62A013A0319FE
:1045D800CC2A033A0319F42A623A0319D22AF42A94
:1045E8000800210056082200B400B501330835063A
:1045F800031D002B32083406031908003208B400E2
:1046080034082100D6002200320C031C0D110318B7
:104618000D158D11320C2700031C0D1103180D15F3
:10462800220032083304031D1C2B27008D141E2B77
:1046380027008D1014302200AC000030AD00AF31DF
:104648009A27A23127000D118D102100560822004B
:10465800B400B5013408A0003508A1009031042049
:10466800A23114302200AC000030AD00AF319A27DF
:104678000800230036082200A00023003708220083
:10468800A100230038082200A200BD302300B90091
:1046980039082200A300A1316721A3312300BE1FDE
:1046A8005C2B0030B6000030B7000030B8000800BE
:1046B80000303E02153003193D0203180800360881
:1046C800A0003708A1003808A20099313B21A33186
:1046D80023002308B1002208B0002108AF002008F9
:1046E800AE00A331CF2323002E08BA002F08BB0049
:1046F8003008BC003A08B6003B08B7003C08B800D0
:10470800080020000F1B8F2B2400410803199A2B47
:104718000130C1029A2B19302400410203189A2B48
:1047280001302200B20032082400C1074108031DED
:10473800080021004C08013ECC0000304D3DCD0062
:104748004D08803A2200B20080303202031DAF2BA0
:10475800063021004C02031CB62B01302100CC008E
:104768000030CD002400C601C60A21004D082200F1
:10477800A10021004C082200A000AF31CC27A331B2
:1047880020000F1FC42B14302200AC000030AD00F5
:10479800AF319A2708002300B5018E30B2003208E5
:1047A800B400B11FE42BAE09AF09B009B109AE0AD4
:1047B8000319AF0A0319B00A0319B10AB501B50AFA
:1047C800FF3031050319F42B0130B136B00CAF0CB2
:1047D800AE0C890BE92B0130B2003208B407E42B88
:1047E8002E082200A00023002F082200A100230089
:1047F80030082200A20023003408B2003208220048
:10480800A30023003508B30033082200A400A63112
:104818002126220020082300AE00220021082300C0
:10482800AF00220022082300B000080020008F1AE1
:10483800242C24004B0803192F2C0130CB022F2CD9
:10484800193024004B0203182F2C01302200B2002B
:1048580032082400CB074B08031D0800210050082C
:10486800013ED0000030513DD1005108803A22006D
:10487800B20080303202031D442C07302100500260
:10488800031C4B2C01302100D0000030D100210046
:1048980051082200A100210050082200A000013088
:1048A800A2000030A300A5310925A4312400E001AD
:1048B800E00A20008F1E5D2C14302200AC0000306E
:1048C800AD00AF319A27080001302200B300003054
:1048D800B4003408803AB20080303202031D762CCE
:1048E8000730330203189C2C22003408A100330837
:1048F800A0000130A2000030A300A5310925A43191
:1049080005302200AC000030AD00AF319A27A43149
:1049180001302200B3070030B43D3408803AB200B9
:1049280080303202031D9A2C07303302031C782C86
:1049380005302200B5000030B600B61B0800360866
:10494800A1003508A000AF31CC27A43105302200E2
:10495800AC000030AD00AF319A27A431FF302200FF
:10496800B507FF30B63DA12CF601F11FC22CF009A6
:10497800F109F00A0319F10AF601F60AF31FCD2C22
:10498800F209F309F20A0319F30A0130F400740872
:10499800F606F701F801700871040319FC2CF501FB
:1049A800F50AF11BE12C0130F035F10D890BD82CFB
:1049B8000130F4007408F507D52C0130F735F80DEF
:1049C800890BE22C71087302031DEC2C700872022B
:1049D800031CF32C7008F2027108F33B77140130C2
:1049E800F136F00C890BF42C0130F502031DE12C93
:1049F80076080319042DF709F809F70A0319F80AC4
:104A08007808F1007708F000080027000C108C10D7
:104A18000C118C110C123F2D2200220C2700031CB4
:104A28000C1003180C1408002200220C2700031C89
:104A38008C1003188C1408002200220C2700031C79
:104A48000C1103180C1508002200220C2700031C67
:104A58008C1103188C1508002200220C2700031C57
:104A68000C1203180C16080027000C148C140C15D3
:104A78008C150C16080022002108003A0319452D50
:104A88005C2D2008013A0319102D033A0319182D3B
:104A9800013A0319202D073A0319282D013A031961
:104AA800302D033A03195C2D623A0319382D5C2D19
:104AB800080022006408A1006308A0000330A200D7
:104AC8000030A300AD31F625A5312200610820078A
:104AD80084006208213D8500003FE500013FE600B3
:104AE800023FE700630864040319B62DFF30E307AB
:104AF800FF30E43D6408A1006308A0000330A20071
:104B08000030A300AD31F625A53122006108200749
:104B180084006208213D8500003FC100013FC200BA
:104B2800023FC3006508CE006608CF006708D000C2
:104B38005E08D1005F08D2006008D30088310520E4
:104B4800A53122004E08C4004F08C5005008C60011
:104B58009231FB22A53122004108E5004208E60017
:104B68004308752D6508DE006608DF006708E00069
:104B7800080073080319C52D720871047004031D19
:104B8800D62D0030F0000030F1000030F2000800AF
:104B98000130F5007508F3070130F236F10CF00C1E
:104BA800890BD12DFE3072050319EF2DCC2D013064
:104BB800F5007508F3070130F007003003180130DD
:104BC800F107003003180130F2070130F236F10C1A
:104BD800F00C890BEA2DFF3072050319FC2DDB2D33
:104BE8000130F3020130F035F10DF20D890BF72D8C
:104BF800F11B022E023073020318F42D73180A2ECB
:104C0800FF30F0057F30F105FF30F2050310F30C9B
:104C18007308F500F601F7011030F535F60DF70DBC
:104C2800890B112E7508F0047608F1047708F20450
:104C3800740803190800F217080022002308031952
:104C48002A2E220821042004031D3B2E0030A00038
:104C58000030A1000030A20008000130A50025089E
:104C6800A3070130A236A10CA00C890B362EFE300A
:104C780022050319542E312E0130A5002508A3075B
:104C88000130A007003003180130A10700300318D5
:104C98000130A2070130A236A10CA00C890B4F2EBF
:104CA800FF3022050319612E402E0130A302013086
:104CB800A035A10DA20D890B5C2EA11B672E023019
:104CC80023020318592E23186F2EFF30A0057F30BA
:104CD800A105FF30A2050310A30C2308A500A60117
:104CE800A7011030A535A60DA70D890B762E25082E
:104CF800A0042608A1042708A20424080319080010
:104D0800A217080081302200A0001F30A100AE3198
:104D18001226A631220021082100D10022002008F5
:104D28002100D00082302200A0001F30A100AE3147
:104D38001226A631220021082100CD0022002008D9
:104D48002100CC005108803A2200A40080302402BF
:104D5800031DB12E073021005002031CB82E063067
:104D68002100D0000030D10021004D08803A2200F7
:104D7800A40080302402031DC42E063021004C02FA
:104D8800031CCB2E01302100CC000030CD002100C7
:104D98005608031DD22E27008D14D42E27008D10FF
:104DA8002100560C2700031C0D1103180D152200B5
:104DB8000D118D110D128D128D100D10210051083D
:104DC8002200A100210050082200A0000130A2000A
:104DD8000030A300A5310925A63121004D08220085
:104DE800A10021004C082200A000AF31CC27080008
:104DF8002000A901A31F0D2FA009A109A209A30939
:104E0800A00A0319A10A0319A20A0319A30AA901EE
:104E1800A90AA71F1E2FA409A509A609A709A40A5C
:104E28000319A50A0319A60A0319A70A0130FC00E9
:104E38007C08A9060030AD000030AC000030AB00A3
:104E48000030AA0023082204210420040319672F34
:104E5800A801A80AA31B3C2F0130A035A10DA20D63
:104E6800A30D890B312F0130FC007C08A8072E2FD9
:104E78000130AA35AB0DAC0DAD0D890B3D2F2308C4
:104E88002702031D512F22082602031D512F210836
:104E98002502031D512F20082402031C5C2F200823
:104EA800A4022108A53B2208A63B2308A73B2A14F5
:104EB8000130A336A20CA10CA00C890B5D2F013088
:104EC800A802031D3C2F29080319752FAA09AB094D
:104ED800AC09AD09AA0A0319AB0A0319AC0A0319EC
:104EE800AD0A2D08A3002C08A2002B08A1002A084F
:104EF800A00008002200AA01A31F8F2FA009A10962
:104F0800A209A309A00A0319A10A0319A20A0319ED
:104F1800A30AAA01AA0AA71FA02FA409A509A609DE
:104F2800A709A40A0319A50A0319A60A0319A70AB7
:104F38000130A8002808AA060030AE000030AD00F5
:104F48000030AC000030AB00230822042104200408
:104F58000319E92FA901A90AA31BBE2F0130A03507
:104F6800A10DA20DA30D890BB32F0130A8002808AD
:104F7800A907B02F0130AB35AC0DAD0DAE0D890BC7
:104F8800BF2F23082702031DD32F22082602031D43
:104F9800D32F21082502031DD32F20082402031C28
:104FA800DE2F2008A4022108A53B2208A63B2308DF
:104FB800A73B2B140130A336A20CA10CA00C890B23
:104FC800DF2F0130A902031DBE2F2A080319F72F6E
:104FD800AB09AC09AD09AE09AB0A0319AC0A031950
:104FE800AD0A0319AE0A2E08A3002D08A2002C084A
:104FF800A1002B08A0000800003480343F3472342C
:1050080031343F34FE3475343E34583463343D34DF
:1050180095341D343C34C534AE343A3479342134B3
:1050280039349434803437349334A734353456348F
:1050380015343434003400340034003480343F34C0
:10504800F034FF34BE34E234A9343E348334763449
:10505800BE34AE342B343E343C34C334BD34D23445
:1050680013343D347834D334BB34F4344A344834BC
:1050780095349534C734C134DC344534DC346D346C
:10508800C334B334333440343434013448349D3475
:10509800B03445340034DA344234003480343F3498
:1059A6002100951295111510951415110800200067
:1059B6002C082B042A04031908008030AC060800C2
:1059C600873020009C05FC309C05FF309B001C1591
:1059D6000800220040083F043E04031908008030F6
:1059E600C0060800FE0012001E000130FE02003054
:1059F600FF3B7F087E0403190034F62C6400800107
:105A060001310130FE020030FF3B7F087E0403199E
:105A16000034022D8731FC27AD3122002108B70062
:105A26002008B6003708B3003608B200A231F522C6
:105A36000800D034073400340034D034073400343E
:105A4600003401340034E8340334063400341434AA
:105A5600FF34FF340434FF3401302200B700370826
:105A66002300ED00A4316824AD31A4316824AD31A2
:105A7600A131A721AD31A131A7212300ED010800F5
:105A86002200A6002608A400A5012408A0002508D7
:105A9600A1000130A2000030A300A5310925AD31D7
:105AA60006302200A0000030A100AF31CC2708004C
:105AB6002200A3002308A200A20DA20D21001D08AA
:105AC600220022068339220621009D009D149D187E
:105AD6006A2D1C082200A10021001B082200A0003C
:105AE6000800210053082200A200A3012108230672
:105AF600031D7F2D20082206031908002008A20096
:105B060022082100D3002200200C031C8D1103184B
:105B16008D150800210054082200A200A3012108C7
:105B26002306031D982D20082206031908002008C5
:105B3600A20022082100D4002200200C031C8D1292
:105B460003188D160800210051082200A10021002B
:105B560050082200A0000130A2000030A300A531A9
:105B66000925AD3121004D082200A10021004C0875
:105B76002200A000AF31CC27080064340034D034B2
:105B86000734D0340734D0340734D0340734D03413
:105B96000734D0340734B4340034013400340134CB
:105BA600FF340134FF34023401340134FF34200061
:105BB600DC01DD01581CE32D5A08DC075B08DD3DDE
:105BC6000130DA35DB0D890BE42D0130D936D80CDE
:105BD600890BE92D58085904031DDD2D5D08D900F0
:105BE6005C08D80008002200A401A501201CFF2D96
:105BF6002208A4072308A53D0130A235A30D890B71
:105C0600002E0130A136A00C890B052E2008210498
:105C1600031DF92D2508A1002408A0000800003066
:105C26008B1B01302200A2008B1320082300910059
:105C3600220021082300920015131514000000000D
:105C46002200220C031C8B1303188B172300140845
:105C56002200A100230013082200A0000800200053
:105C66006A08E4006B08E5006C08E6006D08E700CA
:105C76006E08E8006F08E9009531112520006409D7
:105C86002100B100200065092100B200B10A031904
:105C9600B20A31082000EA00210032082000EB0099
:105CA60008002000E301DF1F5F2EDE09DF09DE0AA0
:105CB6000319DF0AE301E30A5E08F0005F08F1005A
:105CC600F2018E30E1006108F3006308E200620829
:105CD600F400A531BD2570082000DE007108DF0044
:105CE6007208E00008002200AD01A91F812EA80954
:105CF600A909A80A0319A90AAD01AD0A2808A00036
:105D06002908A100A2018E30AB002B08A3002D08A4
:105D1600AC002C08A400A631212622002008A800E9
:105D26002108A9002208AA000800AF2E22008D1023
:105D36000D10AD31A625080022008D100D1423008C
:105D46006F08A0317920080022008D140D10240060
:105D56006308AD314325080021006608003A03199F
:105D6600992E013A03199F2E033A0319A72EBB2E2B
:105D760008002200A101A2012208803AA00080307A
:105D86002002031DC82E0C30210203180800220031
:105D96002108A0000130A035FF3E031DCE2E203580
:105DA600203E8600033087000030C03F0030C13FF0
:105DB600C23FC33F0130A1070030A23DBF2E8E3047
:105DC6002200AC002C08AD00FF302B050319F72E7E
:105DD6000130AB36AA0CA90CA80C890BEC2E0130AD
:105DE600AC002C08AD07E72E2808A0002908A10062
:105DF6002A08A2002D08AC002C08A300A401A63195
:105E0600212622002008A8002108A9002208AA00AD
:105E160008002300410840043F040319142F803072
:105E2600C10642082200C100230043082200C20026
:105E3600230044082200C30023003F082200C400B8
:105E4600230040082200C500230041082200C600A6
:105E56009231FB22220041082300BF0022004208A3
:105E66002300C000220043082300C10008002100CF
:105E76000D108D100D118D110D128D120E140E12A6
:105E86008E120F108F100F118F110F128F160F1702
:105E96008F1710149014230010109010200010106B
:105EA600901026000C108C100C118C110C128C12F8
:105EB6000C1728000C1326008D100D11A0310020A0
:105EC600AF31A23128228B178B160B110800003038
:105ED6002200AB000030AA000030A9000030A80064
:105EE600201C7D2F2408A8072508A93D2608AA3DC1
:105EF6002708AB3D0130A435A50DA60DA70D890BCE
:105F06007E2F0130A336A20CA10CA00C890B852F85
:105F16002308220421042004031D732F2B08A30049
:105F26002A08A2002908A1002808A00008000030BD
:105F36002200B1000030B0000030AF000030AE00EB
:105F46002C08A0002D08A100A201A3010030A70083
:105F56000030A6000330A500E830A400AF316A2760
:105F6600AF3122002308B1002208B0002108AF009B
:105F76002008AE00310830042F042E04031908004F
:105F8600FF30AE07FF30AF3DFF30B03DFF30B13DD3
:105F9600BD2F22000F108F100F118F110F12E32F3C
:105FA6000F1408008F1408000F1508008F1508003D
:105FB6000F1608000F148F140F158F150F160800F3
:105FC6002108003A0319E82FFF2F2008013A031988
:105FD600D32F033A0319D52F013A0319D72F073ABE
:105FE6000319D92F013A0319DB2F033A0319FF2F9F
:0A5FF600623A0319DD2FFF2F0800A7
:020000040001F9
:04000E00E2FFFFDF2F
:00000001FF
