:040000008331202BFD
:100008007E14803120007F08C2000B1D1E294A087B
:10001800C4004908C3000130BA000030BB000030FA
:10002800BC000030BD006008BA076108BB3D62082B
:10003800BC3D6308BD3D3D08E3003C08E2003B08C9
:10004800E1003A08E0000130BA000030BB0000309F
:10005800BC000030BD005808BA075908BB3D5A0813
:10006800BC3D5B08BD3D3D08DB003C08DA003B08B1
:10007800D9003A08D8000130BA000030BB0000307F
:10008800BC000030BD005C08BA075D08BB3D5E08D7
:10009800BC3D5F08BD3D3D08DF003C08DE003B0875
:1000A800DD003A08DC000130BA000030BB00003047
:1000B800BC000030BD0023002D082000BA07230033
:1000C8002E082000BB3D23002F082000BC3D230044
:1000D80030082000BD3D3D082300B00020003C084A
:1000E8002300AF0020003B082300AE0020003A08A0
:1000F8002300AD000130A5070030A63D0030A73D24
:100108000030A83D0130B5070030B63D0030B73D9E
:100118000030B83D22005B03031DA8280130D30737
:100128000030D43D540820005002031D9F282200AF
:10013800530820004F020318A82850082200D400B2
:1001480020004F082200D30022005C03031DC228B0
:100158000130D5070030D63D560820005002031D57
:10016800B9282200550820004F020318C228500859
:100178002200D60020004F082200D5000B112300D2
:1001880039033A04031D1E2920005B08803ABA008F
:100198004C08803A3A02031DDB284B085A02031D1B
:1001A800DB284A085902031DDB2849085802031CAA
:1001B8001E294508BA004608BB004708BC00480885
:1001C800BD006009BE006109BF006209C000630983
:1001D800C100BE0A0319BF0A0319C00A0319C10ADC
:1001E8003E08BA073F08BB3D4008BC3D4108BD3D3D
:1001F800BD1B0B293D08031D1E293C08031D1E2994
:100208003B08031D1E2904303A0203181E29600901
:10021800BA006109BB00BA0A0319BB0A45083A07C4
:10022800BC0046083B3DBD0058083C07C3005908C0
:100238003D3DC40020005408031D7E296408031DA9
:100248007E296608031D7E296308803ABA0048089B
:10025800803A3A02031D3A2947086202031D3A29E7
:1002680046086102031D3A2945086002031C6C29EF
:1002780022000D1600302000E3000030E2000030BC
:10028800E1000030E000230055035604031D6C29EB
:1002980022005208250092002200510825009100F2
:1002A8002200D701D80123006208AD006308AE0020
:1002B800890D893B8909AF00B000D501D60120001E
:1002C8004C08DB004B08DA004A08D9004908D80076
:1002D8002000E31B7E296308031D7C296208031D97
:1002E8007C296108031D7C291E306002031C7E29BD
:1002F80022000D1220006603031DAE292300A81B4F
:100308009D292808031D92292708031D92292608DC
:10031800031D9229FA302502031C9D2922000D1481
:1003280000302300A8000030A7000030A6000030ED
:10033800A500A81BAE292808031DAC292708031D02
:10034800AC292608031DAC291E302502031CAE2942
:1003580022000D1020006608031D092A6508031DE8
:10036800092A4308BA004408BB000030BB1BFF3011
:10037800BC00BD005B08803ABE003D08803A3E02E2
:10038800031DD0293C085A02031DD0293B085902F5
:10039800031DD0293A085802031CED296708031DDC
:1003A800E0295208F1005108F0000130F200003055
:1003B800F3009131DA21803120004A08C40049084D
:1003C800C3000030DB000030DA000030D900003014
:1003D800D800DB1B092A5B08031DFC295A08031DEA
:1003E800FC295908031DFC2914305802031C092A4A
:1003F8006708031D092A5208F1005108F00000306F
:10040800F200F3009131DA218031230062082000E4
:10041800BA00230063082000BB000030BB1BFF307C
:10042800BC00BD0023003008803A2000BE003D0813
:10043800803A3E022300031D312A20003C08230095
:100448002F02031D312A20003B0823002E02031D22
:10045800312A20003A0823002D02031CE32A003029
:10046800B0000030AF000030AE000030AD00220018
:100478005808803A2000BA0080303A02031D472A03
:100488003C3022005702031C4C2A2200D701D80115
:1004980020000E12892A22005708A03E8600033049
:1004A8007D2A22005708203E7B2A22005808803ADD
:1004B8002000BA0080303A02031D652A1F3022004E
:1004C800570203186C2A64302300D3000030702AC6
:1004D8009C302300D300FF30D400A02A2200570804
:1004E800203E860005307D2A22005708A03E86005F
:1004F8000430870001082300D300D401D31BD403A0
:10050800A02A2300D301D401A02A20004E08003AD3
:1005180003198F2A852A4D08013A03194F2A033AED
:100528000319552A013A0319592A073A0319722A55
:10053800013A0319782A852A230053082000AE00BF
:10054800230054082000AF00890D893B8909B000B9
:10055800B10023003B082000B20023003C08200023
:10056800B300890D893B8909B400B5009031CE20CC
:10057800803120002F082300D40020002E082300FB
:10058800D3000230F0000030F1005408F3005308A3
:10059800F20093315723803171082C009B007008BA
:1005A8009A0000302300B0000030AF000030AE00E9
:1005B8000030AD0001302200D7070030D83D2200BE
:1005C8005E03031D162B01302000BA003A082200F2
:1005D800DD0723005F08803A803C031DF62A5E0889
:1005E80022005D02031C142B22008D1423005F08D7
:1005F8002000BB0023005E082000BA00BA35BB0DFE
:100608003B08803ABC0080303C02031D0F2B2200BF
:100618005D0820003A0203181B2B2200DD011B2B6A
:1006280022001A2B5D0803191B2BDD018D102000F9
:100638004208FF007E1009008331222B58308400C5
:10064800003085001130FE000030FF009C314D2441
:10065800833151308400013085001030FE000030B5
:10066800FF009C314D248331A03084000130850087
:100678003E30FE000030FF009C314D24833148306D
:100688008400023085001430FE000030FF009C31E9
:100698004D248331A0308400023085002C30FE00C8
:1006A8000030FF009C314D2483312030840003301A
:1006B80085004030FE000030FF009C314D2483311E
:1006C800A0308400053085004030FE000030FF0077
:1006D8009C314D248331F030840083308500E8302C
:1006E8008600233087000230FF0008309C31412407
:1006F800833100308400903085004530860000301A
:1007080087000030FF0013309C314124833167306B
:1007180084009C30850061308600013087000030FD
:10072800FF000E309C3141248331593084009C30C5
:100738008500DE308600013087000030FF000E3073
:100748009C3141248331793084009D3085002030EC
:100758008600023087000030FF0028309C31412499
:1007680083311330840090308500A0308600033038
:1007780087000030FF003D309C3141248331C33075
:1007880084009F30850020308600043087000030C8
:10079800FF003D309C3141248331863084009F30F6
:1007A8008500A0308600043087000030FF003D300F
:1007B8009C3141248331493084009F3085002030AA
:1007C8008600053087000030FF003D309C31412411
:1007D8007E1020008B31A52B22340834FC340734DA
:1007E800D8340734B53407349334073472340734B3
:1007F800523407343434073416340734F9340634A1
:10080800DD340634C2340634A83406348F34063452
:10081800763406345E3406344734063430340634CD
:100828001A34063405340634F0340534DC3405341F
:10083800C8340534B5340534A3340534903405344C
:100848007F3405346D3405345C3405344C34053458
:100858003C3405342C3405341D3405340E34053449
:10086800FF340434F1340434E2340434D534043429
:10087800C7340434BA340434AD340434A1340434F1
:1008880094340434883404347D34043471340434A6
:10089800663404345A34043450340434453404344B
:1008A8003A34043430340434263404341C340434E4
:1008B8001234043409340434FF340334F634033472
:1008C800ED340334E4340334DC340334D3340334F4
:1008D800CB340334C2340334BA340334B23403346B
:1008E800AA340334A23403349B34033493340334DA
:1008F8008C340334853403347E340334773403343E
:100908007034033469340334623403345C3403349C
:10091800553403344F3403344834033442340334F5
:100928003C34033436340334303403342A34033447
:10093800243403341F340334193403341334033494
:100948000E3403340934033403340334FE340234DC
:10095800F9340234F4340234EF340234EA34023421
:10096800E5340234E0340234DB340234D734023460
:10097800D2340234CD340234C9340234C43402349B
:10098800C0340234BC340234B7340234B3340234D1
:10099800AF340234AB340234A6340234A234023405
:1009A8009E3402349A340234973402349334023435
:1009B8008F3402348B340234873402348434023462
:1009C800803402347C34023479340234753402348D
:1009D800723402346E3402346B34023467340234B5
:1009E80064340234613402345E3402345A340234DA
:1009F8005734023454340234513402344E340234FD
:100A08004B3402344834023445340234423402341C
:100A18003F3402343C34023439340234363402343C
:100A280033340234303402342E3402342B3402345A
:100A38002834023425340234233402342034023476
:100A48001E3402341B34023418340234163402348F
:100A580013340234113402340E3402340C340234A8
:100A68000A340234073402340534023402340234BE
:100A780000340234FE340134FB340134F9340134D7
:100A8800F7340134F5340134F2340134F0340134EC
:100A9800EE340134EC340134EA340134E8340134FE
:100AA800E6340134E3340134E1340134DF34013411
:100AB800DD340134DB340134D9340134D734013422
:100AC800D5340134D3340134D2340134D034013430
:100AD800CE340134CC340134CA340134C83401343E
:100AE800C6340134C4340134C3340134C13401344C
:100AF800BF340134BD340134BC340134BA34013458
:100B0800B8340134B6340134B5340134B334013463
:100B1800B1340134B0340134AE340134AC3401346E
:100B2800AB340134A9340134A8340134A634013477
:100B3800A4340134A3340134A1340134A034013481
:100B48009E3401349D3401349B3401349A34013489
:100B58009834013497340134953401349434013491
:100B68009234013491340134903401348E34013498
:100B78008D3401348B3401348A340134893401349E
:100B880087340134863401348534013483340134A4
:100B980082340134813401347F3401347E340134A9
:100BA8007D3401347B3401347A34013479340134AE
:100BB80078340134763401347534013474340134B2
:100BC8007334013471340134703401346F340134B6
:100BD8006E340134003400340034003400340034FE
:100BE80000340034003400342100C40120001018FF
:100BF800032E680803190D2E0130E8020D2E193056
:100C0800680203180D2E01302100BC003C082000AA
:100C1800E8076808031DC22FDF1B952E5F08031D18
:100C28001E2E5E08031D1E2E1B305C0206305D3B27
:100C3800031C952E22005F0303195C2EDF01DF0AD7
:100C480000302000DF000030DE000030DD00003022
:100C5800DC0001302300E6000030E7000030B4007B
:100C68000030B3000030B2000030B100E001E10113
:100C78002100C401C40A440820005502031C5C2E4C
:100C880021004408BC000130BC35FF3E031D482E3E
:100C98003C35483E8600023087000030C03F0030B7
:100CA800C13FC23FC33F0130BC003C08C4073F2ED0
:100CB80022005C08031D672EDC01DC0A2000D40139
:100CC8002200D501D6012000500822005602031D3B
:100CD800712E20004F0822005502031C0800200036
:100CE8005408031D08006408031D0800500822006A
:100CF800D60020004F082200D5000D125B0303190F
:100D08008D2E01302100A0000030A1009C31F72475
:100D1800080001302100B8000030B900903150209F
:100D280008002000DF1BA42E5F08031D08005E08D2
:100D3800031D08001B305C0206305D3B03180800E9
:100D48005408031D080022005F0303190800DF018F
:100D5800DF0A2000DF1BC42E5F08031DBC2E5E08BF
:100D6800031DBC2E94305C0204305D3B031CC42E72
:100D78000030DF000030DE000430DD009430DC009D
:100D880055082100BC00BD013C08C2003D08C30055
:100D980023006708803A803C031DD52E6608200092
:100DA8005502031C062F20005C082300B107200011
:100DB8005D082300B23D20005E082300B33D2000FB
:100DC8005F082300B43D66082100BC000130BC3533
:100DD800FF3E031DEB2E3C35483E8600023087005F
:100DE80020005C08C03F5D08C13F5E08C23F5F0845
:100DF800C33F230067082100C300230066082100C1
:100E0800C200822F00302300B4000030B30000304D
:100E1800B2000030B1002100C401C40A2000550806
:100E28002100440203185C2F4408BC000130BC3583
:100E3800FF3E031D1B2F3C35043E483E8600023012
:100E48008700403FBD00413FBE00423FBF00433FD7
:100E5800C0004408C1000130C135FF3E031D302FDA
:100E68004135483E8600023087003D08C03F3E08B5
:100E7800C13F3F08C23F4008C33F4408BC0001309F
:100E8800BC35FF3E031D442F3C35483E86000230EA
:100E98008700403F2300B107413FB23D423FB33D89
:100EA800433FB43D01302100BC003C08C407122F69
:100EB800200055082100BC000130BC35FF3E031D51
:100EC800612F3C35483E86000230870020005C08D0
:100ED800C03F5D08C13F5E08C23F5F08C33F5C0872
:100EE8002300B10720005D082300B23D20005E0802
:100EF8002300B33D20005F082300B43D21004208D1
:100F0800A0004308A100890D893B8909A200A3001C
:100F1800230034082100A700230033082100A6007D
:100F2800230032082100A500230031082100A40075
:100F38009531AB25210023082000C8002100220894
:100F48002000C700210021082000C6002100200839
:100F58002000C50001302300E0000030E10000302F
:100F68002000DF000030DE000030DD000030DC0053
:100F780001302300E6070030E73D08001930200063
:100F88006802031C08002200DF01EE010030210086
:100F9800A000A1009C31F7242200D501D601DC0174
:100FA80019302100BC003C082000E8000800F12F9F
:100FB80022008D100D109C31C324080022008D10D2
:100FC8000D14200056089E31D426080022008D14E6
:100FD8000D106B089C31AB24080020006508003A0E
:100FE8000319DC2F013A0319E22F033A0319EA2FF8
:060FF800FD2F08000800B7
:1010020020006508031D08286603031D08008F1BC6
:10101200562801302300C1070030C23D4208803A01
:101022002100A70080302702031D1A281A3023004E
:101032004102031C080019302300C1000030C20025
:101042002000650822006D0603192B282000660384
:10105200031D3C2801302100A70027082000D607E5
:101062000B305602031C3728D601D60A56089E3189
:10107200D426883152282000650823006B06031D00
:10108200522801302100A70027082200EB07063072
:101092006B02031C4E28EB01EB0A6B089C31AB245C
:1010A200883120008F1B080052282300C101C20191
:1010B200080021003508BB003608BC003708BD0017
:1010C20003103C0D3D0DBE003E08BF003F08031D4E
:1010D20071280030B5000030B6000030B7000800BB
:1010E2003808BB003908BC003A08BD0003103C0DAB
:1010F2003D0DBE003E08C4004408031D8728003091
:10110200B5000030B6000030B700080044087B3E4E
:10111200BB003B08BF073508BB003608BC003708D8
:10112200BD001030BD36BC0CBB0C890B93283B08AC
:10113200BE003E08C4003808BB003908BC003A08AB
:10114200BD001030BD36BC0CBB0C890BA3283B087C
:10115200BE003E08C4068030BB003B08C405B6177B
:10116200B917FF30B805FF30B9050030BA050030B5
:10117200C0000030C1000030C2000730BB003B0895
:10118200C300351CCA283808C0073908C13D3A08CF
:10119200C23D0130B736B60CB50C890BCB280130F5
:1011A200B835B90DBA0D890BD1280130C302031D20
:1011B200C2280930BB003B08C300351CE6283808AA
:1011C200C0073908C13D3A08C23D0130B736B60CF6
:1011D200B50C890BE7280130C236C10CC00C890B53
:1011E200ED280130C302031DDE284008A00041089B
:1011F200A1004208A2003F08BB003B08A30044082C
:10120200BC003C08A40094314E2421002008B50003
:101212002108B6002208B70008002300B901BA016C
:1012220022003708C1003608C0000030BD008030FF
:10123200BE003F30BF0036290030BD0040302829B3
:10124200A630BD002A3028290030BD000030BE0083
:101252003F303429A630BD00AA3032290030BD000B
:101262008030BE003E30BF004F293908003A0319D2
:101272003B294F293808013A03191D29033A03195A
:101282002129013A03192529073A03192B29013A81
:1012920003192F29033A03194F294F294108210025
:1012A200A900220040082100A8009D313125893182
:1012B20021002808B8002908B9002A08BA0022002B
:1012C2003D082100B50022003E082100B6002200A0
:1012D2003F082100B70088315A20893121003508A2
:1012E200E7003608E8003708E9009631B826893168
:1012F200210068082200C100210067082200C00006
:1013020041082100A900220040082100A8009D31C7
:1013120031258931210028082200AE002100290848
:101322002200AF0021002A082200B0009331A82336
:10133200893122002E08BA002F08BB003008BC00F9
:1013420041082100A900220040082100A8009D3187
:101352003125893121002A0822003C06031DBB29C0
:101362002100290822003B06031DBB292100280871
:1013720022003A060319C22901302300B9000030C5
:10138200BA0022004108B7004008B6000800200059
:101392009018DE2923005808803A2100BC008030D2
:1013A2003C02031DD729013023005702031CF129F7
:1013B200FF302300D707FF30F02923005808803A76
:1013C2002100BC0080303C02031DEA2919302300B1
:1013D20057020318F12901302300D7070030D83D06
:1013E200230057085804031D522A22005B08031DDC
:1013F200FE29DB01DB0AD301D401200050082200C0
:101402005402031D082A20004F0822005302031C25
:10141200272A6C08031D272A20006408031D272A97
:1014220022000D115C0303191F2A01302100A000C4
:101432000030A1009C31DD248931272A01302100AE
:10144200B8000030B9009031502089312000640882
:10145200031D4E2A22006C08031D4E2A200057034A
:10146200031D3F2A230064036504031D4E2AE9017C
:10147200E90A0130D9000030DA004E2A22005A036C
:1014820003194E2A2300E9012200DA01DA0A2300B5
:10149200D901DA012200EC01DB012300E401E501BC
:1014A20008005808803A2100BC0080303C02031D2D
:1014B2005D2A193023005702031C08002000640330
:1014C200031D6C2A230069082100BC00BD013C08F1
:1014D200B2003D08882A22005A03031D6C03031D33
:1014E200782A01302100B2000030B300892A23009B
:1014F20059035A04031D8C2A22006C08031D8C2AEE
:1015020020006408031D8C2A00302100B200B300C1
:101512009231222289312000570C2200031C0D1126
:1015220003180D1500302100A000A1009C31DD241C
:10153200893100302100B800B900903150202200DA
:10154200DB01DA012300D901DA010130E4000030C5
:10155200E5001930D7000030D80008002100280823
:10156200AE002908AF002A08B00003102F0D300D7D
:10157200B1003108B4002B08AE002C08AF002D08D2
:10158200B00003102F0D300DB1003108B300340844
:101592000319D72A330834020318DE2A3403FF3A28
:1015A2003307AE0019302E02031CDE2A2B08A800D6
:1015B2002C08A9002D08AA00080033080319080006
:1015C200340833020318ED2A3303FF3A3407AE001E
:1015D20019302E02031808000630AE002E08B200A1
:1015E200AA1BB217AD1B3217A917FF30A805FF308F
:1015F200A9050030AA05AC17FF30AB05FF30AC05DA
:101602000030AD05330834020318292B0130AB3505
:10161200AC0DAD0D890B082B0130B3023308340633
:101622000319242B0130B202320807390319242B83
:10163200072B0130AA36A90CA80C890B1B2B0130F1
:10164200AE002E08B4073408330603194E2B1A2BAA
:101652003408330203184E2B0130A835A90DAA0D08
:10166200890B2E2B0130B4023308340603194A2B9E
:101672000130B2023208073903194A2B2D2B0130EF
:10168200AD36AC0CAB0C890B412B0130AE002E08F1
:10169200B30734083306031D402BB21F602BFF3003
:1016A200A806FF30A906FF30AA060130A8070030BD
:1016B20003180130A907003003180130AA07321FAE
:1016C200722BFF30AB06FF30AC06FF30AD060130A7
:1016D200AB07003003180130AC07003003180130AB
:1016E200AD07B2012808AB072908AC3D2A08AD3D79
:1016F200AD1F8D2BFF30AB06FF30AC06FF30AD06C1
:101702000130AB07003003180130AC07003003187A
:101712000130AD07B201B20A2B08A0002C08A100CB
:101722002D08A2003408AE002E08A3003208AF0034
:101732002F08A40094314E2421002008A80021087B
:10174200A9002208AA00080028302300EC0000307B
:10175200ED0012302100A0007A30A1009131502119
:101762008B319C3116248B319D31D0258B31200059
:10177200101490140F178F160E148F179D315325C6
:101782008B319C3175248B319431B3248B319E3152
:1017920062268B31883101208B318931C8218B310E
:1017A200200066030319D82B8531F8258B312000E0
:1017B20066030319E72B650822006D060319E72B60
:1017C200913193218B319231B7228B3100309C3190
:1017D20084248B31210021082300CA002100200823
:1017E2002300C90001309C3184248B31210021085F
:1017F2002300CC00210020082300CB0002309C31C2
:1018020084248B31210021082300CE0021002008EE
:101812002300CD0003309C3184248B312100210828
:101822002300D000210020082300CF0004309C3187
:1018320084248B31210021082300D20021002008BA
:101842002300D10022006109C2006209C300C20A5A
:101852000319C30A2300490822004207C4002300D7
:101862004A082200433DC5004508803AC600803040
:101872004602031D3E2C0430440203185D2C220054
:101882006109C2006209C300C20A0319C30A230024
:10189200490822004207C40023004A082200433DAF
:1018A200C5004508803AC6007F304602031D5B2C06
:1018B200FD3044020318AF2C23004A082200E20044
:1018C200230049082200E10000302100E1004830F5
:1018D200E2004330E3008030DE009230DF0044302B
:1018E200E000C030DB007F30DC004430DD0000303F
:1018F200D8000030D9000030DA002200620821004E
:10190200A900220061082100A8009D3131258B31F8
:1019120021002808D5002908D6002A08D7009631C8
:101922002D268B3121005508E7005608E80057089C
:10193200E9009631B8268B31210067082000C500E6
:10194200210068082000C600890D893B8909C7006B
:10195200C80001302300E0000030E10022006309EA
:10196200C2006409C300C20A0319C30A23004B0858
:1019720022004207C40023004C082200433DC50058
:101982004508803AC60080304602031DCA2C043046
:1019920044020318E92C22006309C2006409C3004F
:1019A200C20A0319C30A23004B0822004207C400DB
:1019B20023004C082200433DC5004508803AC6007A
:1019C2007F304602031DE72CFD3044020318572DD9
:1019D20023004C082200E40023004B082200E3000D
:1019E20000302100E1001C30E2004230E300003010
:1019F200DE000030DF000030E000C030DB007F306E
:101A0200DC004430DD000030D8000030D900003066
:101A1200DA00220064082100A900220063082100E4
:101A2200A8009D3131258B3121002808D5002908D5
:101A3200D6002A08D70096312D268B312100550871
:101A4200E7005608E8005708E9009631B8268B31BE
:101A5200210068082400DD00210067082400DC0062
:101A62005C08013EFF3A013E23006C07203E8600DF
:101A72000230870001082200C200C301420825008B
:101A82009800220043082500990024005C08203EAB
:101A920086000230870001082200C200C30142080A
:101AA20026009100220043082600920022006C03C7
:101AB200031DBC2D650866040319682EE501E601C5
:101AC2002300DB01DB0A00302100E1000030E200EC
:101AD2000030E3000030DE00C830DF004130E000BB
:101AE200C030DB007F30DC004430DD000030D80045
:101AF2000030D9000030DA00220066082100A90077
:101B0200220065082100A8009D3131258B3121007A
:101B12002808D5002908D6002A08D70096312D2694
:101B22008B3121005508E7005608E8005708E90004
:101B32009631B8268B31210068082400DF0021008D
:101B420067082400DE005E08013EFF3A013E2300E2
:101B52006C07203E86000230870001082200C20086
:101B6200C30142082600980022004308260099007B
:101B720024005E08592E22006509C2006609C300CE
:101B8200C20A0319C30A23004D0822004207C400F7
:101B920023004E082200433DC5004508803AC60096
:101BA20080304602031DD72D043044020318FA2D5B
:101BB20022006509C2006609C300C20A0319C30AEA
:101BC20023004D0822004207C40023004E082200D1
:101BD200433DC5004508803AC6007F304602031DDA
:101BE200F42DFD304402031CFA2D23005B03031D78
:101BF200682E23004E082200E60023004D08220032
:101C0200E50000302100E1000030E2000030E30096
:101C12000030DE009030DF004130E000C030DB00F9
:101C22007F30DC004430DD000030D8000030D900C5
:101C32000030DA00220066082100A90022006508AF
:101C42002100A8009D3131258B3121002808D500C3
:101C52002908D6002A08D70096312D268B3121007B
:101C62005508E7005608E8005708E9009631B826FB
:101C72008B31210068082400E1002100670824005C
:101C8200E0006008013EFF3A013E23006C07203E5F
:101C920086000230870001082200C200C301420808
:101CA20026009800220043082600990024006008BC
:101CB200203E86000230870001082200C200C301D4
:101CC200420826009C002200430826009D002200B4
:101CD2006709C2006809C300C20A0319C30A2300C4
:101CE2004F0822004207C400230050082200433D4F
:101CF200C5004508803AC60080304602031D832E87
:101D0200043044020318A22E22006709C2006809A7
:101D1200C300C20A0319C30A23004F082200420764
:101D2200C400230050082200433DC5004508803A04
:101D3200C6007F304602031DA02EFD304402031868
:101D4200EA2E230050082200E80023004F08220058
:101D5200E70000302100E1003C30E2004230E300C5
:101D62000030DE004030DF004030E000C030DB00F9
:101D72007F30DC004430DD000030D8000030D90074
:101D82000030DA00220068082100A900220067085A
:101D92002100A8009D3131258B3121002808D50072
:101DA2002908D6002A08D70096312D268B3121002A
:101DB2005508E7005608E8005708E9009631B826AA
:101DC2008B31210068082300E3002100670823000B
:101DD200E20022006909C2006A09C300C20A0319AB
:101DE200C30A2300510822004207C40023005208FC
:101DF2002200433DC5004508803AC60080304602B5
:101E0200031D052F043044020318242F2200690900
:101E1200C2006A09C300C20A0319C30A2300510897
:101E220022004207C400230052082200433DC5009D
:101E32004508803AC6007F304602031D222FFD303E
:101E4200440203186C2F230052082200EA002300E8
:101E520051082200E90000302100E1000030E200D8
:101E62000030E3006030DE009F30DF004430E000ED
:101E7200C030DB007F30DC004430DD000030D800B1
:101E82000030D9000030DA0022006A082100A900DF
:101E9200220069082100A8009D3131258B312100E3
:101EA2002808D5002908D6002A08D70096312D2601
:101EB2008B3121005508E7005608E8005708E90071
:101EC2009631B8268B31210068082300BC0021001E
:101ED20067082300BB00230060036104031DC82BB5
:101EE20020004808CC004708CB004608CA00450835
:101EF200C90046082200B700200045082200B600AB
:101F0200200052082200B900200051082200B80027
:101F120089310E218B31220036082000C9002200AF
:101F220037082000CA00890D893B8909CB00CC0003
:101F320001302300D5000030D600C501C6012200C1
:101F4200D101D201230045084604031DFD2F2200C2
:101F52005208C3005108C200C235C30DE830C400A4
:101F62002330C5004208440786004308453D8700E8
:101F7200403FC600413FC7004608C8004708C900A5
:101F82000030C91BFF30CA00CB00200049082200E4
:101F9200CC0020004A082200CD0020004B0822007D
:101FA200CE0020004C082200CF000130CC35CD0DF0
:101FB200CE0DCF0D890BD72F4F08803AD0004B089A
:101FC200803A5002031DEF2F4A084E02031DEF2FE5
:101FD20049084D02031DEF2F48084C02031CF72F3E
:101FE20001302300C5000030C600A32F01302200BB
:101FF200D1070030D23DA32FE001E101C82BD0343C
:10200200073400340034D03407340034003406344A
:102012000034E8340334063400341434FF34043416
:102022000134FF3400340A3414341E342834323478
:102032003A3442344A34503456345B345F34613477
:1020420063346434633461345F345B345634503403
:102052004A3442343A34323428341E3414340A3482
:102062000034F634EC34E234D834CE34C634BE34E0
:10207200B634B034AA34A534A1349F349D349C3490
:102082009D349F34A134A534AA34B034B634BE345E
:10209200C634CE34D834E234EC34F6340034200082
:1020A20064082100BA00BB0139083B06031D5B2806
:1020B20038083A06031908003808BA003A0820001E
:1020C200E400210038033904031D6A2822000D129E
:1020D2008D1220006403031D86286608031D7B28D9
:1020E200E601E60A22008D10200056089E31D42611
:1020F200903186282000E6018731DB2790319C3120
:10210200C32490319C319724903114302100AC00CB
:102112000030AD009E31302608001E302100B20092
:102122003208B4006430A0000030A1000130A200E7
:102132000030A3009331FA23903164302100A000D3
:102142000030A1009F310E27903121003408B200E7
:10215200B3013208AC003308AD009E313026903115
:1021620000302100A000A1000130A2000030A30035
:102172009331FA23903100302100A000A1009F3159
:102182000E27903121003408B200B3013208AC00AE
:102192003308AD009E313026080000302000A30035
:1021A2000030A2000330A100E830A0000C30B600DD
:1021B200F230B7000130B8000030B9003508F30042
:1021C2003408F2003308F1003208F0003108F70059
:1021D2003008F6002F08F5002E08F4009D31A125E5
:1021E200903170082000B6077108B73D7208B83DFB
:1021F2007308B93D3908A7003808A6003708A500BA
:102202003608A4009531292520002308B1002208B0
:10221200B0002108AF002008AE00080022001D1007
:1022220021000E118E1026000D108D110D122100AD
:10223200101390121012901110110F3025009304F8
:102242000F309A040F30260093040F309A040F3097
:102252009E040F302C0093040F3096040F30990423
:102262000F309C040F309F0425009D019E019F01A9
:1022720000309200323091000030990064309800B2
:102282000030260092009630910000309900C8304C
:1022920098009C31252491319C311E240800FF3086
:1022A2002000E9002100A2002208FD006229673017
:1022B2005F2933305F291F305F29193023009B00CB
:1022C200852921002108253A031971296E3A03193B
:1022D2007629313A03197B29EC3A03198029852999
:1022E2002008803A0319582985292008003A031941
:1022F2005A2985292008123A03195C2985292008C0
:10230200003A03195E29852923001E139E161E1208
:102312001E159D171D131D169D11210091160B17D9
:102322008B17080020000F1B9D2922005908031952
:10233200A8290130D902A82919302200590203180C
:10234200A82901302100B20032082200D907590819
:10235200031D080020004D08013ECD0000304E3D17
:10236200CE004E08803A2100B20080303202031DB6
:10237200BD29073020004D02031CC4290130200072
:10238200CD000030CE0020004E082100A100200028
:102392004D082100A0009F310E27913120000F1F10
:1023A200CF2914302100AC000030AD009E31302620
:1023B200080027000C108C100C118C110C12052A2D
:1023C200720C031C0C1003180C140800720C031C72
:1023D2008C1003188C140800720C031C0C110318C7
:1023E2000C150800720C031C8C1103188C150800C4
:1023F200720C031C0C1203180C1608000C148C141B
:102402000C158C150C1608007108003A03190A2ADB
:10241200212A7008013A0319E129033A0319E7292D
:10242200013A0319ED29073A0319F329013A03196D
:10243200F929033A0319212A623A0319FF29212AA9
:102442000800200057082100B400B5013308350602
:10245200031D2D2A32083406031908003208B4007D
:1024620034082000D7002100320C2200031C0D1179
:1024720003180D158D112100320C2700031C0D11BC
:1024820003180D15210032083304031D4B2A2700BF
:102492008D144D2A27008D1014302100AC0000301D
:1024A200AD009E313026923127000D118D10200093
:1024B20057082100B400B5013408A0003508A10076
:1024C2008731FE27923114302100AC000030AD007C
:1024D2009E31302608002200AD018E30AA002A0863
:1024E200AC00A91F812AA609A709A809A909A60A59
:1024F2000319A70A0319A80A0319A90AAD01AD0A0B
:10250200FF3029050319912A0130A936A80CA70C1E
:10251200A60C890B862A0130AA002A08AC07812A58
:1025220026082100A000220027082100A100220085
:1025320028082100A20022002C08AA002A08210053
:10254200A30022002D08AB002B082100A400943127
:102552004E24210020082200A6002100210822008A
:10256200A700210022082200A800080020008F1ADC
:10257200C12A220060080319CC2A0130E002CC2AC9
:102582001930220060020318CC2A01302100B20067
:1025920032082200E0076008031D080020005108ED
:1025A200013ED1000030523DD2005208803A210053
:1025B200B20080303202031DE12A073020005102AE
:1025C200031CE82A01302000D1000030D200200094
:1025D20052082100A100200051082100A000013072
:1025E200A2000030A3009331FA239231013023007C
:1025F200E0000030E10020008F1EFC2A1430210090
:10260200AC000030AD009E313026080001302100C0
:10261200B3000030B4003408803AB2008030320295
:10262200031D152B0730330203183B2B21003408FE
:10263200A1003308A0000130A2000030A3009331B2
:10264200FA23933105302100AC000030AD009E31F9
:102652003026933101302100B3070030B43D3408F5
:10266200803AB20080303202031D392B0730330228
:10267200031C172B05302100B5000030B600B61B35
:1026820008003608A1003508A0009F310E279331BB
:1026920005302100AC000030AD009E313026933170
:1026A200FF302100B507FF30B63D402BF601F11F88
:1026B200612BF009F109F00A0319F10AF601F60A91
:1026C200F31F6C2BF209F309F20A0319F30A013022
:1026D200F4007408F606F701F80170087104031992
:1026E2009B2BF501F50AF11B802B0130F035F10D22
:1026F200890B772B0130F4007408F507742B013035
:10270200F735F80D890B812B71087302031D8B2B92
:1027120070087202031C922B7008F2027108F33BDC
:1027220077140130F136F00C890B932B0130F5024E
:10273200031D802B76080319A32BF709F809F70A62
:102742000319F80A7808F1007708F000080022005F
:102752002E082100A00022002F082100A100220043
:1027620030082100A2003430EF006F08A3009E3130
:102772009A2693312200B51FC52B0030AE000030DF
:10278200AF000030B00008000030350215300319E8
:102792003402031808002E082100E70022002F0847
:1027A2002100E800220030082100E9009631B82615
:1027B200933121006A082200A90021006908220041
:1027C200A800210068082200A70021006708220053
:1027D200A60092316C2222002608B1002708B2001E
:1027E2002808B3003108AE003208AF003308B00049
:1027F200080027000C108C100C118C110C12302CBC
:102802002100220C2700031C0C1003180C140800D2
:102812002100220C2700031C8C1003188C140800C2
:102822002100220C2700031C0C1103180C150800B0
:102832002100220C2700031C8C1103188C150800A0
:102842002100220C2700031C0C1203180C1608008E
:1028520027000C148C140C158C150C160800210082
:102862002108003A0319362C4D2C2008013A03198D
:10287200012C033A0319092C013A0319112C073AC6
:102882000319192C013A0319212C033A03194D2C6F
:10289200623A0319292C4D2C080021002308031940
:1028A200572C220821042004031D682C0030A000AC
:1028B2000030A1000030A20008000130A500250868
:1028C200A3070130A236A10CA00C890B632CFE30A9
:1028D20022050319812C5E2C0130A5002508A307CF
:1028E2000130A007003003180130A107003003189F
:1028F2000130A2070130A236A10CA00C890B7C2C5E
:10290200FF30220503198E2C6D2C0130A3020130F9
:10291200A035A10DA20D890B892CA11B942C02308C
:1029220023020318862C23189C2CFF30A0057F302D
:10293200A105FF30A2050310A30C2308A500A601E0
:10294200A7011030A535A60DA70D890BA32C2508CC
:10295200A0042608A1042708A204240803190800D9
:10296200A217080081302100A0001F30A1009D3174
:1029720011259431210021082000D20021002008D5
:102982002000D10082302100A0001F30A1009D3123
:1029920011259431210021082000CE0021002008B9
:1029A2002000CD005208803A2100A4008030240289
:1029B200031DDE2C073020005102031CE52C0630DB
:1029C2002000D1000030D20020004E08803A2100C1
:1029D200A40080302402031DF12C073020004D0298
:1029E200031CF82C06302000CD000030CE00200061
:1029F2005708031DFF2C27008D14012D27008D1071
:102A02002000570C2700031C0D1103180D1522007E
:102A12000D118D110D128D128D100D102000520806
:102A22002100A100200051082100A0000130A200D5
:102A32000030A3009331FA23943120004E08210084
:102A4200A10020004D082100A0009F310E270800A0
:102A52002000A901A31F3A2DA009A109A209A309D7
:102A6200A00A0319A10A0319A20A0319A30AA901B8
:102A7200A90AA71F4B2DA409A509A609A709A40AFB
:102A82000319A50A0319A60A0319A70A0130FC00B3
:102A92007C08A9060030AD000030AC000030AB006D
:102AA2000030AA0023082204210420040319942DD3
:102AB200A801A80AA31B692D0130A035A10DA20D02
:102AC200A30D890B5E2D0130FC007C08A8075B2D4D
:102AD2000130AA35AB0DAC0DAD0D890B6A2D230863
:102AE2002702031D7E2D22082602031D7E2D2108AA
:102AF2002502031D7E2D20082402031C892D200897
:102B0200A4022108A53B2208A63B2308A73B2A14BE
:102B12000130A336A20CA10CA00C890B8A2D013026
:102B2200A802031D692D29080319A22DAA09AB09C0
:102B3200AC09AD09AA0A0319AB0A0319AC0A0319B5
:102B4200AD0A2D08A3002C08A2002B08A1002A0818
:102B5200A00008002100AA01A31FBC2DA009A10901
:102B6200A209A309A00A0319A10A0319A20A0319B7
:102B7200A30AAA01AA0AA71FCD2DA409A509A6097D
:102B8200A709A40A0319A50A0319A60A0319A70A81
:102B92000130A8002808AA060030AE000030AD00BF
:102BA2000030AC000030AB002308220421042004D2
:102BB2000319162EA901A90AA31BEB2D0130A0357A
:102BC200A10DA20DA30D890BE02D0130A80028084C
:102BD200A907DD2D0130AB35AC0DAD0DAE0D890B66
:102BE200EC2D23082702031D002E22082602031DB6
:102BF200002E21082502031D002E20082402031C9A
:102C02000B2E2008A4022108A53B2208A63B23087C
:102C1200A73B2B140130A336A20CA10CA00C890BEC
:102C22000C2E0130A902031DEB2D2A080319242EB4
:102C3200AB09AC09AD09AE09AB0A0319AC0A031919
:102C4200AD0A0319AE0A2E08A3002D08A2002C0813
:102C5200A1002B08A000080021005B08A8005C0866
:102C6200A9005D08AA005808A0005908A1005A0846
:102C7200A2009C312E24963121002008AB002108AD
:102C8200AC002208AD008A31AF229631210028081B
:102C9200C5002908C6002A08C7006108A800620802
:102CA200A9006308AA005E08A0005F08A1006008EE
:102CB200A2009C312E24963121002008AB0021086D
:102CC200AC002208AD008A31AF22963121002808DB
:102CD200B5002908B6002A08B7005508A80056080A
:102CE200A9005708AA005808A0005908A1005A08CC
:102CF200A2009C312E24963121002008AB0021082D
:102D0200AC002208AD008A31AF229631210028089A
:102D1200B8002908B9002A08BA0088315A20963129
:102D220021003508C8003608C9003708CA009731A3
:102D32005727963121004508E4004608E500470878
:102D4200E6005E08A8005F08A9006008AA006408FF
:102D5200AB006508AC006608AD008A31AF222100E5
:102D62002808D5002908D6002A08D7000800210023
:102D72006708EB006808EC006908ED0003106C0DB1
:102D82006D0DEE006E082200A5002508031DD32E4E
:102D920000302100EA000030E9000030E800003095
:102DA200E700080021006708EB006808EC006908EA
:102DB200ED001730ED36EC0CEB0C890BDB2E6B08BB
:102DC200EE006E082200A0002100E817FF30E705A0
:102DD200FF30E8050030E90567082200A100210064
:102DE20068082200A200210069082200A300A401B1
:102DF2008E30A502A51F1D2F2508803A8F3E03188D
:102E02000C2F00302100EA000030E9000030E80019
:102E12000030E700080001302200A436A30CA20C07
:102E2200A10C890B0D2F01302100EB006B08220051
:102E3200A5070319392F0C2F18302502031C352F33
:102E420000302100EA000030E9000030E8000030E4
:102E5200E700080001302200A135A20DA30DA40D48
:102E6200890B2C2F0130A50222002508031D2B2FD0
:102E720020080319472FA109A209A309A409A10A3D
:102E82000319A20A0319A30A0319A40A2408210098
:102E9200EA00220023082100E90022002208210082
:102EA200E800220021082100E7000800210048086C
:102EB200CB004908CC004A08CD0003104C0D4D0D43
:102EC200CE004E08D3005308031D6E2F0030C500FC
:102ED2000030C6000030C70008004508CB00460895
:102EE200CC004708CD0003104C0D4D0DCE004E080E
:102EF200D4005408031D842F0030C5000030C600E2
:102F02000030C70008000030D0000030D10000308F
:102F1200D20089305407CB004B08D3024808CB00BB
:102F22004908CC004A08CD001030CD36CC0CCB0C71
:102F3200890B962F4B08CE004E08D4004508CB00D3
:102F42004608CC004708CD001030CD36CC0CCB0C57
:102F5200890BA62F4B08CE004E08D4068030CB003A
:102F62004B08D405C917FF30C805FF30C90500302A
:102F7200CA05C617FF30C505FF30C6050030C705B4
:102F82001830CB004B08CF000130D035D10DD20D17
:102F9200890BC62F47084A02031DD52F460849024E
:102FA200031DD52F45084802031CDE2F4508C80221
:102FB2004608C93B4708CA3B50140130C835C90D01
:102FC200CA0D890BDF2F0130CF02031DC52F500818
:102FD200A0005108A1005208A2005308CB004B08E0
:102FE200A3005408CC004C08A40094314E242100C4
:0E2FF2002008C5002108C6002208C7000800FC
:10382C00FC302100990508002100A001A10108002D
:10383C00210095129511151095141511080087305B
:10384C0020009C05FC309C05FF309B001C150800DB
:10385C002100220821042004031908008030A2064C
:10386C00080021009E171E088F3960389E00FC301E
:10387C009E051D140800FE0012001E000130FE0201
:10388C000030FF3B7F087E0403190034422C640097
:10389C00800101310130FE020030FF3B7F087E04C5
:1038AC00031900344E2C6434003401340034D03409
:1038BC00073401340034013400340134FF34FF3454
:1038CC000234D0340734D0340734D0340734D034F5
:1038DC000734D03407340134FF340134FF349C31C5
:1038EC001A249C3121002108B7002008B6003708A3
:1038FC00B3003608B2009231222208002100A30046
:10390C002308A200A20DA20D1D082206833922064F
:10391C009D009D149D18902C1C08A1001B08A00054
:10392C00080001302100B70037082000E700933170
:10393C0007239C31933107239C3190318E209C318D
:10394C0090318E202000E70108002100A6002608F7
:10395C00A400A5012408A0002508A1000130A200A4
:10396C000030A3009331FA239C3106302100A000D3
:10397C000030A1009F310E270800200052082100C2
:10398C00A100200051082100A0000130A20000304D
:10399C00A3009331FA239C3120004E082100A10092
:1039AC0020004D082100A0009F310E2708002200A6
:1039BC006C082100A200A30121082306031DE82C9A
:1039CC0020082206031908002008A2002208220061
:1039DC00EC002100200C2200031C8D1103188D1506
:1039EC000800200054082100A200A301210823068E
:1039FC00031D022D20082206031908002008A2002E
:103A0C0022082000D4002100200C2200031C8D125F
:103A1C0003188D16080000308B1B01302100A2000A
:103A2C008B13200823009100210021082300920011
:103A3C0015131514000000002100220C031C8B131D
:103A4C0003188B17230014082100A100230013086E
:103A5C002100A00008002100AD01A91F3C2DA809E0
:103A6C00A909A80A0319A90AAD01AD0A2808A000E2
:103A7C002908A100A2018E30AB002B08A3002D0851
:103A8C00AC002C08A40094314E2421002008A8007E
:103A9C002108A9002208AA0008002100A101A20106
:103AAC002208803AA00080302002031D5F2D0C30CC
:103ABC0021020318080021002108A0000130A035C4
:103ACC00FF3E031D652D2035A03E86000230870089
:103ADC000030C03F0030C13FC23FC33F0130A1079F
:103AEC000030A23D562DFF34FF34FF34DF34AE34AA
:103AFC008E34783467345B345034483442343C343C
:103B0C003734333430342D342A34273425342334A9
:103B1C00213420341E341D341C341B341A34193413
:103B2C0018341734163415341534143413340F3444
:103B3C000B34073407340030FB000030FA0000303F
:103B4C00F9000030F800701CB32D7408F8077508E4
:103B5C00F93D7608FA3D7708FB3D0130F435F50D5B
:103B6C00F60DF70D890BB42D0130F336F20CF10C78
:103B7C00F00C890BBB2D7308720471047004031DC7
:103B8C00A92D7B08F3007A08F2007908F100780877
:103B9C00F000080021000D108D100D118D110D126B
:103BAC008D120E140E128E120F108F100F118F110A
:103BBC000F128F160F178F1710149014230010105C
:103BCC00901020001010901026000C108C100C116E
:103BDC008C110C128C120C1728000C1326008D1053
:103BEC000D119C3137249D3191310F218B178B1680
:103BFC000B11080000302100AB000030AA0000308F
:103C0C00A9000030A800201C132E2408A8072508A2
:103C1C00A93D2608AA3D2708AB3D0130A435A50DCA
:103C2C00A60DA70D890B142E0130A336A20CA10CE6
:103C3C00A00C890B1B2E2308220421042004031D35
:103C4C00092E2B08A3002A08A2002908A100280885
:103C5C00A000080000302100B1000030B00000309E
:103C6C00AF000030AE002C08A0002D08A100A2016E
:103C7C00A3010030A7000030A6000330A500E830F7
:103C8C00A4009E3100269E3121002308B100220899
:103C9C00B0002108AF002008AE00310830042F041A
:103CAC002E0403190800FF30AE07FF30AF3DFF3084
:103CBC00B03DFF30B13D532E20000E18962E013032
:103CCC002300C3070030C43D4408803A2100A700FC
:103CDC0080302702031D752E1A3023004302031C6B
:103CEC00080019302300C3000030C4002000660314
:103CFC00031D852EE6019C31C3249E318F2E01308D
:103D0C002100A70027082000E507033065020318EF
:103D1C00E5018731DB279E3120000E180800922E1A
:103D2C002300C301C401080021002208210420043F
:103D3C00031DA82E23088600013087000030C03FE9
:103D4C00C13F080022087F39A400A501A435A50DA8
:103D5C0023088600013087002408C03F2508C13F96
:103D6C00210D210D0139A400A50123088600013085
:103D7C00870024088104413125088104230886002A
:103D8C0001308700823081074131FF30813D7F3126
:103D9C00220880393F38A200A11308002100A60098
:103DAC00063026020318F02E2608A400A5012408CC
:103DBC00A0002508A1000130A2000030A30093311F
:103DCC00FA239E3106302100A0000030A1009F3163
:103DDC000E27080006302100A0000030A1000130A1
:103DEC00A2000030A3009331FA239E312100260853
:103DFC00A400A501A409A509A40A0319A50A24086D
:103E0C000B3EA0000030253DA1009F310E2708007D
:103E1C0022000F108F100F118F110F122B2F220059
:103E2C000F14080022008F14080022000F15080040
:103E3C0022008F15080022000F16080022000F1414
:103E4C008F140F158F150F16080021002108003A4A
:103E5C000319312F482F2008013A0319152F033A63
:103E6C000319182F013A03191B2F073A03191E2F98
:103E7C00013A0319212F033A0319482F623A031907
:103E8C00242F482F08000034033407340A340D342F
:103E9C001134143417341B341E3421342534283493
:103EAC002B342F343234353439343C343F344334AE
:103EBC00463449344D345034533457345A345D34C9
:103ECC00613464349F34A334A634A934AD34B03493
:103EDC00B334B734BA34BD34C134C434C734CB343E
:103EEC00CE34D134D534D834DB34DF34E234E53459
:103EFC00E934EC34EF34F334F634F934FD34003473
:103F0C000034FD34F934F634F334EF34EC34E93462
:103F1C00E534E234DF34DB34D834D534D134CE3428
:103F2C00CB34C734C434C134BD34BA34B734B334ED
:103F3C00B034AD34A934A634A3349F349C346134EA
:103F4C005D345A345734533450344D344934463438
:103F5C0043343F343C343934353432342F342B34FD
:103F6C002834253421341E341B34173414341134C2
:103F7C000D340A34073403340034003407340D3460
:103F8C0014341B34213428342F3435343C3443342A
:103F9C004934503457345D3464345D3457345034C0
:103FAC00493443343C3435342F34283421341B34D5
:103FBC0014340D3407340034F934F334EC34E53470
:103FCC00DF34D834D134CB34C434BD34B734B0340A
:103FDC00A934A3349C34A334A934B034B734BD34DD
:103FEC00C434CB34D134D834DF34E534EC34F3344A
:043FFC00F934003460
:020000040001F9
:04000E00E2FFFFDF2F
:00000001FF
