:100000008231E12A013400347E14803120007F08DF
:10001000C2000B1D212901302400C1070030C23D60
:100020000030C33D0030C43D20004A08C4004908E8
:10003000C3000130BA000030BB000030BC0000300B
:10004000BD006108BA076208BB3D6308BC3D640897
:10005000BD3D3D08E4003C08E3003B08E2003A08EF
:10006000E1000130BA000030BB000030BC000030BD
:10007000BD005908BA075A08BB3D5B08BC3D5C0887
:10008000BD3D3D08DC003C08DB003B08DA003A08D7
:10009000D9000130BA000030BB000030BC00003095
:1000A000BD005D08BA075E08BB3D5F08BC3D600847
:1000B000BD3D3D08E0003C08DF003B08DE003A089B
:1000C000DD000130BA000030BB000030BC00003061
:1000D000BD00230024082000BA07230025082000C3
:1000E000BB3D230026082000BC3D2300270820003C
:1000F000BD3D3D082300A70020003C082300A600CA
:1001000020003B082300A50020003A082300A4009B
:100110000130A0070030A13D0030A23D0030A33DDA
:1001200022006A03031DAB2801302300A80700301A
:10013000A93D290820005002031DA22823002808F9
:1001400020004F020318AB2850082300A90020000C
:100150004F082300A80022006B03031DC6280130AE
:100160002300B4070030B53D350820005002031DC0
:10017000BD282300340820004F020318C628500869
:100180002300B50020004F082300B4000B1123000A
:100190003C03031D212920005C08803ABA004C086A
:1001A000803A3A02031DDE284B085B02031DDE285D
:1001B0004A085A02031DDE2849085902031C212956
:1001C0004508BA004608BB004708BC004808BD0007
:1001D0006109BE006209BF006309C0006409C10073
:1001E000BE0A0319BF0A0319C00A0319C10A3E084F
:1001F000BA073F08BB3D4008BC3D4108BD3DBD1BA3
:100200000E293D08031D21293C08031D21293B0817
:10021000031D212904303A02031821296109BA007B
:100220006209BB00BA0A0319BB0A45083A07BC00B9
:1002300046083B3DBD0059083C07C3005A083D3DF8
:10024000C40020005508031D78296608031D78297D
:100250006808031D78296408803ABA004808803A83
:100260003A02031D3D2947086302031D3D29460844
:100270006202031D3D2945086102031C6629220014
:100280000D1600302000E4000030E3000030E200F2
:100290000030E10023004403031D4103031D6629D0
:1002A000B601B701C1015308A4005408A500890D87
:1002B000893B8909A600A700C40120004C08DC0086
:1002C0004B08DB004A08DA004908D9002000E41B8B
:1002D00078296408031D76296308031D76296208BE
:1002E000031D76291E306102031C782922000D129D
:1002F00020006803031DA8292300A31B97292308B6
:10030000031D8C292208031D8C292108031D8C291B
:10031000FA302002031C972922000D14003023001C
:10032000A3000030A2000030A1000030A000A31BF9
:10033000A8292308031DA6292208031DA629210890
:10034000031DA6291E302002031CA82922000D101F
:1003500020006808031D032A6708031D032A4308B9
:10036000BA004408BB000030BB1BFF30BC00BD001E
:100370005C08803ABE003D08803A3E02031DCA294F
:100380003C085B02031DCA293B085A02031DCA2907
:100390003A085902031CE7296908031DDA295208A3
:1003A000F1005108F0000130F2000030F300A431F8
:1003B000F524803120004A08C4004908C3000030F9
:1003C000DC000030DB000030DA000030D900DC1B3C
:1003D000032A5C08031DF6295B08031DF6295A0849
:1003E000031DF62914305902031C032A6908031D52
:1003F000032A5208F1005108F0000030F200F30027
:10040000A431F5248031230053082000BA002300D2
:1004100054082000BB000030BB1BFF30BC00BD00F7
:1004200023002708803A2000BE003D08803A3E02A3
:100430002300031D2B2A20003C0823002602031D55
:100440002B2A20003B0823002502031D2B2A200015
:100450003A0823002402031CA72A0030A70000301A
:10046000A6000030A5000030A4003708803A200024
:10047000BA0080303A02031D402A3C302300360285
:10048000031C512A2300B601B70100302400C40028
:100490000030C3000030C2000030C10022000D1443
:1004A000532A22000D1020000E12230037082000CE
:1004B000BB00230036082000BA00BA35BB0D8E30D1
:1004C000BC002330BD003A083C0786003B083D3D98
:1004D0008700403F2300B800413FB90038082000A2
:1004E000AE00230039082000AF00890D893B89093F
:1004F000B000B100240045082000B20024004608E6
:100500002000B300890D893B8909B400B500A431EE
:100510003024803120002F082300B90020002E084D
:100520002300B8000230F0000030F1003908F30079
:100530003808F200A73102278031710826009200A6
:100540007008910001302300B6070030B73D430327
:10055000031DD52A01302000BA003A082300C20743
:100560004808803A803C031DB72A47084202031C12
:10057000DA2A22008D14230048082000BB00230043
:1005800047082000BA00BA35BB0D3B08803ABC00D2
:1005900080303C02031DD02A2300420820003A028A
:1005A0000318DC2A2300C201DC2A230042080319B5
:1005B000DC2AC20122008D1020004208FF007E10BC
:1005C00009008231E32A8E308400233085006230B6
:1005D000FE000230FF00903102208231FD015930CF
:1005E0008400003085001130FE000030FF009031A3
:1005F000022082312200EA01EB01EC01A0308400EC
:10060000013085002730FE000030FF0090310220CD
:10061000823120308400023085003930FE00003005
:10062000FF00903102208231A0308400023085002A
:100630002C30FE000030FF0090310220823120304B
:100640008400033085004030FE000030FF00903110
:1006500002208231A0308400033085004030FE004B
:100660000030FF0090310220823101308400A03040
:10067000850045308600003087000030FF001430D0
:10068000AF31CD2782317B308400A0308500C73068
:100690008600013087000030FF001A30AF31CD27CF
:1006A00082312400803102208231E2008031032037
:1006B000E3007E10200083315D2B9B318423833146
:1006C00012302100A0007A30A100A431B22483317D
:1006D000AF31A9278331A131BA2183312000101411
:1006E00090140F178F160E148F1798310120833135
:1006F0008731F02783319831FE208331A2314C229B
:100700008331A731A72783319131702183312000B4
:10071000680303198E2B8C311D248331200068035C
:1007200003199D2B670823005F0603199D2BA53134
:10073000CF258331A631642683310030AF31D927EC
:100740008331210021082300AB0021002008230071
:10075000AA000130AF31D9278331210021082300BD
:10076000AD00210020082300AC000230AF31D927B2
:100770008331210021082300AF002100200823003D
:10078000AE000330AF31D927833121002108230087
:10079000B100210020082300B0000430AF31D92778
:1007A0008331210021082300B30021002008230009
:1007B000B2004909EA004A09EB00EA0A0319EB0A08
:1007C0002A086A07EC002B086B3DED006D08803AA3
:1007D000EE0080306E02031DEF2B04306C02031814
:1007E0000A2C23004909EA004A09EB00EA0A031926
:1007F000EB0A2A086A07EC002B086B3DED006D0838
:10080000803AEE007F306E02031D082CFD306C0232
:100810000318682C23002B08CA002A08C9004A08BC
:100820002100A900230049082100A800A031ED20E3
:100830008331210028082400D90021002908240040
:10084000DA0021002A082400DB0059082200E70012
:1008500024005A082200E80024005B082200E90076
:1008600090310E2083312200680826009900220072
:1008700067082600980023004A082100A9002300E9
:1008800049082100A800A031ED208331210028086B
:100890002400DC00210029082400DD0021002A08B2
:1008A0002400DE005C082200E70024005D0822002E
:1008B000E80024005E082200E9009D31E62583312E
:1008C0002200680826009D002200670826009C0080
:1008D00023004B09EA004C09EB00EA0A0319EB0A72
:1008E0002C086A07EC002D086B3DED006D08803A7E
:1008F000EE0080306E02031D7F2C04306C02031862
:100900009A2C23004B09EA004C09EB00EA0A031970
:10091000EB0A2C086A07EC002D086B3DED006D0812
:10092000803AEE007F306E02031D982CFD306C0281
:1009300003180A2D23002D08CC002C08CB004B09EE
:10094000EA004C09EB00EA0A0319EB0A6A08FF3EC9
:100950002100A800033023006B3D2100A900A03135
:10096000ED208331210028082400DF002100290820
:100970002400E00021002A082400E1005F08220092
:10098000E700240060082200E8002400610822003B
:10099000E9009A317822833122006808250092000C
:1009A000220067082500910023004B09EA004C094A
:1009B000EB00EA0A0319EB0A6A08FF3E2100A800CF
:1009C000033023006B3D2100A900A031ED208331CD
:1009D000210028082400DF00210029082400E0006D
:1009E00021002A082400E1005F082200E70024001B
:1009F00060082200E800240061082200E9009A3122
:100A000078228331220068082500990022006708B7
:100A10002500980023004D09EA004E09EB00EA0A80
:100A20000319EB0A2E086A07EC002F086B3DED0056
:100A30006D08803AEE0080306E02031D212D0430D7
:100A40006C0203183C2D23004D09EA004E09EB000F
:100A5000EA0A0319EB0A2E086A07EC002F086B3D1F
:100A6000ED006D08803AEE007F306E02031D3A2DD6
:100A7000FD306C020318A42D23002F08CE002E0891
:100A8000CD0080302100EA009D30EB004330EC00C7
:100A90000030E7003430E8004230E900C030E400C4
:100AA0007F30E5004430E6000030E1000030E20035
:100AB0000030E30023004E082100A90023004D0868
:100AC0002100A800A031ED20833121002808DE009C
:100AD0002908DF002A08E0009C310B248331210023
:100AE0005E082200A00021005F082200A100210072
:100AF00060082200A2009A31FD22833122002108E1
:100B00002300D600220020082300D500C101C10A1D
:100B10005608803AEA0080306A02031D912DB230F7
:100B20005502031CA22D23005608803AEA008030AB
:100B30006A02031D9D2DB63055020318A22D220016
:100B40008D14A42D22008D1023004F09EA005009B6
:100B5000EB00EA0A0319EB0A30086A07EC003108D7
:100B60006B3DED006D08803AEE0080306E02031D93
:100B7000BB2D04306C020318D62D23004F09EA0068
:100B80005009EB00EA0A0319EB0A30086A07EC0087
:100B900031086B3DED006D08803AEE007F306E024B
:100BA000031DD42DFD306C020318202E23003108C4
:100BB000D0003008CF0000302100EA003C30EB00CC
:100BC0004230EC000030E7004030E8004030E900FF
:100BD000C030E4007F30E5004430E6000030E10042
:100BE0000030E2000030E300230050082100A9009B
:100BF00023004F082100A800A031ED2083312100FF
:100C00002808DE002908DF002A08E0009C310B24B8
:100C1000833121005E082200A00021005F0822002D
:100C2000A100210060082200A2009A31FD22833138
:100C3000220021082300D400220020082300D30032
:100C400023005109EA005209EB00EA0A0319EB0AF2
:100C500032086A07EC0033086B3DED006D08803AFE
:100C6000EE0080306E02031D372E04306C02031834
:100C7000522E23005109EA005209EB00EA0A031937
:100C8000EB0A32086A07EC0033086B3DED006D0893
:100C9000803AEE007F306E02031D502EFD306C0254
:100CA00003189C2E23003308D2003208D1000030F4
:100CB0002100EA000030EB000030EC006030E7007B
:100CC0009F30E8004430E900C030E4007F30E500A8
:100CD0004430E6000030E1000030E2000030E30084
:100CE000230052082100A900230051082100A80078
:100CF000A031ED20833121002808DE002908DF0023
:100D00002A08E0009C310B24833121005E08220078
:100D1000A00021005F082200A1002100600822003D
:100D2000A2009A31FD228331220021082400C6004E
:100D3000220020082400C50023004103031DA32E28
:100D400088319F20833123005B03031D7E2B20000D
:100D50004808CC004708CB004608CA004508C9002F
:100D600046082200C000200045082200BF002000E5
:100D700052082200C200200051082200C1009F3109
:100D80004527833122003F082000C9002200400887
:100D90002000CA00890D893B8909CB00CC002300C3
:100DA000C401C40A2400D101D201CF01D001230023
:100DB000DB017E2B2200E201570856045504031D77
:100DC000062F00302100A0000030A1000030A2005A
:100DD000220058082100A300220059082100A40085
:100DE00022005A082100A500A231F9228631031CF5
:100DF000FE2E21302400D3000030D4000030220029
:100E0000D5000030D6000030D70008005A08590439
:100E10005804031D122F0030D5008030D6003F301B
:100E2000D700080055082100A00022005608210024
:100E3000A100220057082100A2000030A3000030CA
:100E4000A4000030A500A231F922863103188C2FAE
:100E500022005808A0005908A1005A08A2009A319F
:100E6000FD22863122002308E6002208E500210841
:100E7000E4002008E30066082100AB0022006508BA
:100E80002100AA00220064082100A90022006308B2
:100E90002100A800A1313321863122005A08210007
:100EA0002A06031D5D2F2200590821002906031D73
:100EB0005D2F220058082100280603196C2F2130CD
:100EC0002400D3000030D40000302200D5000030D0
:100ED000D6000030D7000800220063080139DB008B
:100EE0005B08E20055082100BE00220056082100E0
:100EF000BF00220057082100C000AF31BA27863159
:100F000021003E082200D50021003F082200D60023
:100F1000210040082200D70022005508BE005608D4
:100F2000BF005708C00090319F20863122003E0844
:100F3000DC003F08DD004008DE0058082100AE005C
:100F4000220059082100AF0022005A082100B000F9
:100F500022005C082100B10022005D082100B200DF
:100F600022005E082100B3009E31912686312100C7
:100F70002E082200DF0021002F082200E0002100BF
:100F800030082200E1005F08C8006008C90061085D
:100F9000CA0093315123863122004808D500490800
:100FA000D6004A08D7006208031908005508210036
:100FB000BE00220056082100BF0022005708210071
:100FC000C000AF31BA2721003E082200D500210021
:100FD0003F082200D600210040082200D700080068
:100FE000AF31AD27873121002108B7002008B600B6
:100FF0003708B3003608B200A5318525080008007F
:101002002100951295111510951415110800220052
:1010120040083F043E04031D15280030BE00003086
:10102200BF000030C000080040087F39C300C4017F
:10103200C335C40D4308C1074408C23D3F0D3F0DEF
:101042000139C300C4014308C1074408C23DC21F9D
:10105200372822302400D3000030D4000030220090
:10106200BE000030BF000030C00008004208803AD5
:10107200C30081304302031D402800304102031C9B
:10108200872822302400D3000030D40022003E08FA
:101092002100A00022003F082100A10022004008F8
:1010A2002100A2000030A3000030A4000030A500FF
:1010B200A231F922883103187F28FF302200C500AF
:1010C2007F30C6007F30C70045082100BE002200E5
:1010D20046082100BF00220047082100C000AF31AE
:1010E200BA2721003E082200BE0021003F0822004C
:1010F200BF00210040082200C0000800FF3022008B
:10110200BE007F30BF007F30C000080022004208CE
:10111200C4004108C300440DC40CC30C400843067C
:1011220080394306C00041080139C300C30CC30C17
:101132003F0843067F394306BF0008002200D7015B
:101142003C30570203184B2A5708D000D1015008EF
:10115200AE005108AF000630B0000030B100A0313F
:101162009520883122002F08D6002E08D5002B2A80
:10117200220056082100A900220055082100A800DB
:10118200A031ED208831210028082200B40021007E
:1011920029082200B50021002A082200B6002300F7
:1011A20056082100A900230055082100A800A031FB
:1011B200ED208831210028082200B70021002908EB
:1011C2002200B80021002A082200B90096315426D4
:1011D200883122005708D000D101D035D10D8E3090
:1011E200D2002330D3005008520786005108533DE5
:1011F20087003408C03F3508C13F422A2200560802
:101202002100A900220055082100A800A031ED20EC
:101212008831210028082200AE002100290822007E
:10122200AF0021002A082200B00023005608210046
:10123200A900230055082100A800A031ED20883123
:10124200210028082200B100210029082200B20052
:1012520021002A082200B3008E310526883122009F
:101262005708D000D101D035D10D8E30D2002330B5
:10127200D3005008520786005108533D87002E08BC
:10128200C03F2F08C13F422A220056082100A90070
:10129200220055082100A800A031ED20883121004C
:1012A20028082200C800210029082200C9002100C4
:1012B2002A082200CA00230056082100A9002300A0
:1012C20055082100A800A031ED208831210028080E
:1012D2002200CB00210029082200CC0021002A088C
:1012E2002200CD00A3313523883122005708D000D7
:1012F200D101D035D10D8E30D2002330D300500829
:10130200520786005108533D87004808C03F4908EC
:10131200C13F422A220056082100A9002200550896
:101322002100A800A031ED208831210028082200E8
:10133200AE00210029082200AF0021002A08220065
:10134200B000230056082100A900230055082100FF
:10135200A800A031ED208831210028082200B10028
:10136200210029082200B20021002A082200B3002D
:101372009431AA24883122005708D000D101D035F7
:10138200D10D8E30D2002330D30050085207860090
:101392005108533D87002E08C03F2F08C13F422A03
:1013A200220056082100A900220055082100A800A9
:1013B200A031ED208831210028082200C50021003B
:1013C20029082200C60021002A082200C7002300A3
:1013D20056082100A900230055082100A800A031C9
:1013E200ED208831210028082200C80021002908A8
:1013F2002200C90021002A082200CA00A031B1201F
:10140200883122005708D000D101D035D10D8E305D
:10141200D2002330D3005008520786005108533DB2
:1014220087004508C03F4608C13F422A22005708AC
:10143200D000D101D035D10D8E30D2002330D3006F
:101442005008520786005108533D87000030C03FC4
:10145200C13F422A20004E08003A0319312A172AB6
:101462004D08013A0319B928033A0319FF28013A32
:1014720003194529073A03198B29013A0319D1297E
:10148200172A01302200D0005008D7073C305702FB
:10149200031CA528D401D40A08002200D201450861
:1014A2002100A000220046082100A10022004708D6
:1014B2002100A2000030A3000030A4000030A500EB
:1014C200A231F9228A310318832A22004508210019
:1014D200BE00220046082100BF002200470821006A
:1014E200C000AF31BA278A3121003E082200C50070
:1014F20021003F082200C600210040082200C70048
:10150200D201D20AFA302100AE002230AF003E30C2
:10151200B000220045082100B10022004608210047
:10152200B200220047082100B3009E3191268A3181
:1015320021002E082200C50021002F082200C6002B
:10154200210030082200C7004508B6004608B7004F
:101552004708B8009C3196248A3122003608BF0021
:101562003708C0003808C1004508C2004608C30059
:101572004708C400A1315D218A3122003F08C5001D
:101582004008C6004108C70000302100AE0080308C
:10159200AF004030B000220045082100B100220017
:1015A20046082100B200220047082100B3009E3104
:1015B20091268A3121002E082200C50021002F0821
:1015C2002200C600210030082200C700003021009E
:1015D200A0000030A1004030A200220045082100F6
:1015E200A300220046082100A4002200470821008F
:1015F200A500A231F9228A3103181F2B00302200E4
:10160200BF000030C0004030C1004508C20046089B
:10161200C3004708C400A1315D218A3122003F087E
:10162200C5004008C6004108C7005208031D1B2B15
:1016320001301C2B0030C8004808D20000302100C5
:10164200A0008030A1003F30A20022004508210006
:10165200A300220046082100A4002200470821001E
:10166200A500A231F9228A310318632B0030210030
:10167200C1000030C2004030C300220045082100F2
:10168200BE00220046082100BF00220047082100B8
:10169200C000AF31BA278A3121003E08C4003F089A
:1016A200C5004008C60092315B228A312100410800
:1016B2002200C500210042082200C6002100430882
:1016C2002200C700220045082100AE002200460881
:1016D2002100AF00220047082100B0002200450887
:1016E2002100B100220046082100B2002200470872
:1016F2002100B3009E3191268A3121002E0822005A
:10170200CF0021002F082200D00021003008220043
:10171200D1004F08B4005008B5005108B600483057
:10172200B700A830B8000330B9000030BA009831D1
:101732008C208A3122003408C9003508CA003608D4
:10174200CB000430B9000030BA003930B700A830FD
:10175200B8004F08B4005008B5005108B6009831DF
:101762008C208A31220034082100D1002200350861
:101772002100D200220036082100D30022004908AD
:101782002100CE0022004A082100CF0022004B088F
:101792002100D0009D313D258A3121004E082200D2
:1017A200CC0021004F082200CD0021005008220069
:1017B200CE004C082100AE0022004D082100AF00EF
:1017C20022004E082100B000220045082100B1008D
:1017D200220046082100B200220047082100B3007F
:1017E2009E3191268A3121002E082200C500210057
:1017F2002F082200C600210030082200C70052082C
:101802000319080045082100BE00220046082100F5
:10181200BF00220047082100C000AF31BA272100D3
:101822003E082200C50021003F082200C600210018
:1018320040082200C70008002100C401200010183F
:10184200292C22006C080319342C0130EC02342CB0
:10185200193022006C020318342C01302100BC0024
:101862003C082200EC076C08031DEB2D2000E01B56
:10187200BF2C6008031D462C5F08031D462C1B303D
:101882005D0206305E3B031CBF2C23004503031997
:10189200852CC501C50A00302000E0000030DF00C1
:1018A2000030DE000030DD0001302300D7000030C0
:1018B200D80000302400C0000030BF000030BE005D
:1018C2000030BD002300DB012100C401C40A44082A
:1018D20020005602031C852C21004408BC00013064
:1018E200BC35FF3E031D712C3C35203E8600023084
:1018F20087000030C03F0030C13FC23FC33F0130CC
:10190200BC003C08C407682C22006B08031D902C05
:10191200EB01EB0A2000D5012300B401B501200040
:10192200500823003502031D9A2C20004F08230083
:101932003402031C080020005508031D0800660835
:10194200031D080050082300B50020004F082300A3
:10195200B40022000D126A030319B72C01302100D2
:10196200A0000030A100A031612008000130210058
:10197200B8000030B900A331722308002000E01B38
:10198200CE2C6008031D08005F08031D08001B30F1
:101992005D0206305E3B031808005508031D08006F
:1019A2002300450303190800C501C50A2000E01BF6
:1019B200EE2C6008031DE62C5F08031DE62C943014
:1019C2005D0204305E3B031CEE2C0030E000003070
:1019D200DF000430DE009430DD0056082100BC0038
:1019E200BD013C08C2003D08C30023005808803AEC
:1019F200803C031DFF2C570820005602031C312D8A
:101A020020005D082400BD0720005E082400BE3DC2
:101A120020005F082400BF3D200060082400C03D74
:101A2200230057082100BC000130BC35FF3E031DD6
:101A3200162D3C35203E86000230870020005D08CE
:101A4200C03F5E08C13F5F08C23F6008C33F23003A
:101A520058082100C300230057082100C200AD2D01
:101A620000302400C0000030BF000030BE00003053
:101A7200BD002100C401C40A20005608210044020E
:101A82000318872D4408BC000130BC35FF3E031DFE
:101A9200462D3C35043E203E860002308700403F02
:101AA200BD00413FBE00423FBF00433FC00044086B
:101AB200C1000130C135FF3E031D5B2D4135203E83
:101AC2008600023087003D08C03F3E08C13F3F0804
:101AD200C23F4008C33F4408BC000130BC35FF3E52
:101AE200031D6F2D3C35203E860002308700403FAB
:101AF2002400BD07413FBE3D423FBF3D433FC03D85
:101B020001302100BC003C08C4073D2D20005608CE
:101B12002100BC000130BC35FF3E031D8C2D3C353D
:101B2200203E86000230870020005D08C03F5E082C
:101B3200C13F5F08C23F6008C33F5D082400BD0784
:101B420020005E082400BE3D20005F082400BF3D47
:101B5200200060082400C03D21004208A000430884
:101B6200A100890D893B8909A200A3002400400835
:101B72002100A70024003F082100A60024003E08FF
:101B82002100A50024003D082100A4009931F6217E
:101B9200210023082000C800210022082000C700DD
:101BA200210021082000C600210020082000C500D5
:101BB2002300DB01DB0A00302000E0000030DF0000
:101BC2000030DE000030DD0001302300D707003096
:101BD200D83D0800193022006C02031C08002300C3
:101BE200C501E00100302100A000A100A031612068
:101BF2002300B401B5012200EB0119302100BC0021
:101C02003C082200EC00080000302200BA008030BC
:101C1200BB003F30BC000030B7000030B8000030DD
:101C2200B90031082100A000220032082100A100E1
:101C3200220033082100A20022002E082100A30066
:101C420022002F082100A400220030082100A50054
:101C5200A231F9228E31031C3A2E220031082100D2
:101C6200CE00220032082100CF00220033082100DA
:101C7200F52E220031082100B10022003208210095
:101C8200B200220033082100B3000030AE00003061
:101C9200AF004030B0009E3191268E3121002E08D7
:101CA200BE002F08BF003008C000AF31BA278E3106
:101CB20021003E08C4003F08C5004008C6000030AD
:101CC200C100B430C2004330C30092315B228E3176
:101CD200210041082200B400210042082200B50080
:101CE200210043082200B60034082100BE00220071
:101CF20035082100BF00220036082100C000AF31A4
:101D0200BA278E3121003E08AE003F08AF004008DE
:101D1200B0000030C100B430C2004330C300220022
:101D220031082100BE00220032082100BF0022003B
:101D320033082100C000AF31BA278E3121003E089E
:101D4200C4003F08C5004008C60092315B228E31B4
:101D520021004108CE004208CF004308D0000030E5
:101D6200D1003430D2004330D3009D313D258E3135
:101D720021004E08B1004F08B2005008B3009E3156
:101D820091268E3121002E082200B70021002F0853
:101D92002200B800210030082200B90000302100E2
:101DA200C100B430C2004330C30022003108210018
:101DB200BE00220032082100BF00220033082100A9
:101DC200C000AF31BA278E3121003E08C4003F085F
:101DD200C5004008C60092315B228E3121004108C5
:101DE200CE004208CF004308D0000030D10034308A
:101DF200D2004330D3009D313D258E3121004E0863
:101E02002200BA0021004F082200BB002100500826
:101E12002200BC0037082100BE0022003808210041
:101E2200BF00220039082100C000AF31BA278E312D
:101E320021003E08C1003F08C2004008C300220042
:101E42002E082100AE0022002F082100AF00220040
:101E520030082100B00022003A082100B10022001F
:101E62003B082100B20022003C082100B3009E3151
:101E720091268E3121002E08C4002F08C50030089B
:101E8200C60092315B228E31210041082200BD0042
:101E9200210042082200BE00210043082200BF00A8
:101EA20000302100A0008730A1004330A2002200B0
:101EB2003D082100A30022003E082100A4002200C8
:101EC2003F082100A500A231F9228E3103187C2F90
:101ED20000302100C100B430C200C330C300220070
:101EE2003D082100C40022003E082100C500220056
:101EF2003F082100B02F00302100A000B430A10023
:101F02004230A20022003D082100A30022003E0828
:101F12002100A40022003F082100A500A231F922DD
:101F22008E310318C02F00302100C1003430C200AE
:101F32004330C30022003D082100BE0022003E08BB
:101F42002100BF0022003F082100C000AF31BA27A4
:101F52008E3121003E08C4003F08C5004008C6007B
:101F620092315B228E31210041082200BD00210006
:101F720042082200BE00210043082200BF000030B8
:101F82002100CE001030CF004130D0000030AE0032
:101F92002030AF004130B00022003D082100B100E6
:101FA20022003E082100B20022003F082100B300B7
:101FB2009E3191268E3121002E08D1002F08D200A9
:101FC2003008D3009D313D258E3121004E0822007C
:101FD200BD0021004F082200BE002100500822004F
:101FE200BF003D08A0003E08A1003F08A2009A31B0
:0E1FF200FD2222002108AF002008AE000800EA
:102004006400800101310130FE020030FF3B7F0893
:102014007E04031900340328220069086804670455
:10202400031D1928FF30E7000030E8000800C03025
:1020340067067F3003196806443003196906031DD7
:102044002628E701E8010800C0302100CE007F30D7
:10205400CF004430D000220067082100D1002200C4
:1020640068082100D200220069082100D3009D31B4
:102074003D25903121004E082300E40021004F0843
:102084002300E500210050082300E6006A30220006
:10209400D8009C30D900BF30DA0023006408220045
:1020A400D500230065082200D6002300660822001C
:1020B400D7008631DA269031220055082300E70044
:1020C400220056082300E800220057082300E900F4
:1020D400E3302100AE000B30AF004130B0002300EC
:1020E40067082100B100230068082100B200230022
:1020F40069082100B3009E319126903121002E08F9
:102104002300E10021002F082300E2002100300811
:102114002300E30061082200A000230062082200DB
:10212400A100230063082200A2009A31FD222200AC
:102134002108E8002008E700080022003E082100EA
:10214400A00022003F082100A10022004008210035
:10215400A2000030A3000030A4000030A500A2318A
:10216400F92290310318C32821302400D300003011
:10217400D40000302200BE000030BF000030C00098
:102184000800220040083F043E04031DD6282230E4
:102194002400D3000030D40000302200BE00003000
:1021A400BF000030C000080000302100C1008030B2
:1021B400C200BF30C3000030AE000030AF0040307A
:1021C400B00042302200C10041082100A3002200D7
:1021D4003E082100A00022003F082100A1002200A7
:1021E40040082100A200A331B0239031210020082F
:1021F400B1002108B2002208B3009E31912690312B
:1022040021002E08C4002F08C5003008C6009231F2
:102214005B229031210041082200BE0021004208C7
:102224002200BF00210043082200C000FF30C20783
:10223400FF30C33D3E08B4003F08B5004008B60077
:102244001E30B700A830B8000830B9000030BA001A
:1022540098318C20903122003408BE003508BF002C
:102264003608C0003E082100C10022003F082100BA
:10227400C200220040082100C3007230AE00313099
:10228400AF003F30B000220043082100A900220023
:1022940042082100A800A031ED2090312100280837
:1022A400B1002908B2002A08B3009E31912690316A
:1022B40021002E08C4002F08C5003008C600923142
:1022C4005B22210041082200BE00210042082200B6
:1022D400BF00210043082200C0000800200090181D
:1022E400862923003B08803A2100BC0080303C0250
:1022F400031D7F29013023003A02031C9929FF3072
:102304002300BA07FF30982923003B08803A2100B4
:10231400BC0080303C02031D9229193023003A028C
:102324000318992901302300BA070030BB3D23006C
:102334003A083B04031DFA2922006A08031DA72951
:10234400EA01EA0A2300A801A90120005008230099
:102354002902031DB12920004F0823002802031C71
:10236400D02920005408031DD0296608031DD02954
:1023740022000D116B030319C82901302100A000AC
:102384000030A100A03147209131D0290130210033
:10239400B8000030B900A3317223913120006608DF
:1023A400031DF6295408031DF6295803031DE829C3
:1023B400240062036304031DF6292300DA01DA0A08
:1023C40001302400D5000030D600F62923003E0356
:1023D4000319F629DA01BE01BE0A2400D501D6018B
:1023E4002000D4012200EA012400E201E3010800F4
:1023F40023003B08803A2100BC0080303C02031DCE
:10240400062A193023003A02031C08002000660340
:10241400031D152A23005A082100BC00BD013C08F5
:10242400B2003D08322A23003E0303191D2A20006E
:102434005403031D232A01302100B2000030B300ED
:10244400332A240055035604031D362A2000540859
:10245400031D362A6608031D362A00302100B20007
:10246400B300A531852591312000580C2200031CAE
:102474000D1103180D1500302100A000A100A0319A
:102484004720913100302100B800B900A3317223F4
:102494002200EA012300BE012400D501D601013047
:1024A400E2000030E30019302300BA000030BB0022
:1024B400080021004108C7004208C8004308C900B9
:1024C4000310480D490DCA004A08CD004408C7004E
:1024D4004508C8004608C9000310480D490DCA0044
:1024E4004A08CC004D080319832A4C084D020318EE
:1024F4008A2A4D03FF3A4C07C70019304702031CD0
:102504008A2A4408C1004508C2004608C3000800DE
:102514004C08031908004D084C020318992A4C036F
:10252400FF3A4D07C7001930470203180800063068
:10253400C7004708CB00C31BCB17C61B4B17C217DA
:10254400FF30C105FF30C2050030C305C517FF3099
:10255400C405FF30C5050030C6054C084D020318FC
:10256400D52A0130C435C50DC60D890BB42A0130F6
:10257400CC024C084D060319D02A0130CB024B087B
:1025840007390319D02AB32A0130C336C20CC10C4F
:10259400890BC72A0130C7004708CD074D084C06F0
:1025A4000319FA2AC62A4D084C020318FA2A0130E4
:1025B400C135C20DC30D890BDA2A0130CD024C0896
:1025C4004D060319F62A0130CB024B0807390319CB
:1025D400F62AD92A0130C636C50CC40C890BED2A5B
:1025E4000130C7004708CC074D084C06031DEC2AF0
:1025F400CB1F0C2BFF30C106FF30C206FF30C306D1
:102604000130C107003003180130C207003003183D
:102614000130C3074B1F1E2BFF30C406FF30C50615
:10262400FF30C6060130C407003003180130C50767
:10263400003003180130C607CB014108C407420823
:10264400C53D4308C63DC61F392BFF30C406FF30C5
:10265400C506FF30C6060130C40700300318013038
:10266400C507003003180130C607CB01CB0A440864
:10267400A0004508A1004608A2004D08C70047086D
:10268400A3004B08C8004808A40098312720210063
:102694002008C1002108C2002208C300080022004B
:1026A4004A0849044804031D5E2B0030C8008030EA
:1026B400C9003F30CA00080072302100A000313048
:1026C400A1004430A200220048082100A3002200F7
:1026D40049082100A40022004A082100A500A231D3
:1026E400F92293310318832B22302400D3000030C5
:1026F400D400FF302200C8007F30C9007F30CA00F8
:102704000800220048082100A000220049082100F6
:10271400A10022004A082100A2004930A3003A3057
:10272400A400C430A500A231F92293310318A72BC9
:1027340022302400D3000030D40000302200C8002E
:102744000030C9000030CA000800220048082100F7
:10275400A000220049082100A10022004A0821000B
:10276400A2000030A3000030A4000030A500A23174
:10277400F92293310318C02B0130C12B0030220001
:10278400CB004B08D40054080319E22B480821005D
:10279400BE00220049082100BF0022004A0821008F
:1027A400C000AF31BA27933121003E082200C8008F
:1027B40021003F082200C900210040082200CA006D
:1027C400AA302100AE00B830AF003F30B000220084
:1027D40048082100B100220049082100B20022006B
:1027E4004A082100B3009E319126933121002E081E
:1027F4002200C80021002F082200C900210030084F
:102804002200CA004808B6004908B7004A08B800C0
:102814009C319624933122003608CC003708CD0031
:102824003808CE004C08A0004D08A1004E08A200B4
:102834009A31FD22933122002108D3002008D200CE
:1028440053082100A900220052082100A800A03149
:10285400ED209331210028082200BF00210029081F
:102864002200C00021002A082200C1004808C2003A
:102874004908C3004A08C400A1315D2193312200F4
:102884003F08C8004008C9004108CA004808B4000D
:102894004908B5004A08B6000030B700A830B800AF
:1028A4000930B9000030BA0098318C2093312200ED
:1028B4003408BE003508BF003608C0005308C20003
:1028C4005208C10088310820933122003E08C80014
:1028D4003F08C9004008CA00540803190800FF3023
:1028E400CF007F30D0007F30D1004A085106031D4D
:1028F400812C49085006031D812C48084F06031DEE
:102904008A2C0030C8000030C9000030CA0008001A
:1029140048082100CE00220049082100CF002200EF
:102924004A082100D0000030D1008030D2003F306E
:10293400D3009D313D2521004E082200C80021000E
:102944004F082200C900210050082200CA000800D4
:1029540000302200C2008030C3003F30C400003089
:10296400BF000030C0000030C10031082100A000C9
:10297400220032082100A100220033082100A20015
:1029840022002E082100A30022002F082100A40009
:10299400220030082100A500A231F9229431031C41
:1029A400DF2C220031082100CE0022003208210051
:1029B400CF00220033082100BC2D22003108210061
:1029C400B100220032082100B200220033082100A5
:1029D400B3000030AE000030AF004030B0009E3194
:1029E4009126943121002E08BE002F08BF00300824
:1029F400C000AF31BA27943121003E08C4003F081B
:102A0400C5004008C6000030C100B430C2004330E5
:102A1400C30092315B229431210041082200B400AA
:102A2400210042082200B500210043082200B6001C
:102A340034082100BE00220035082100BF00220016
:102A440036082100C000AF31BA27943121003E0876
:102A5400AE003F08AF004008B0000030C100B43001
:102A6400C2004330C300220031082100BE0022000E
:102A740032082100BF00220033082100C000AF311A
:102A8400BA27943121003E08C4003F08C50040081D
:102A9400C60092315B22943121004108CE004208E5
:102AA400CF004308D0000030D1003430D20043308E
:102AB400D3009D313D25943121004E08B1004F08CB
:102AC400B2005008B3009E319126943121002E08A3
:102AD4002200B70021002F082200B800210030088E
:102AE4002200B90000302100C100B430C2004330DC
:102AF400C300220037082100C40022003808210046
:102B0400C500220039082100C60092315B229431AD
:102B1400210041082200BF00210042082200C00019
:102B2400210043082200C10000302100C100B4305C
:102B3400C2004330C300220031082100BE0022003D
:102B440032082100BF00220033082100C000AF3149
:102B5400BA27943121003E08C4003F08C50040084C
:102B6400C60092315B22943121004108CE00420814
:102B7400CF004308D0000030D1003430D2004330BD
:102B8400D3009D313D25943121004E082200C2001E
:102B940021004F082200C300210050082200C40075
:102BA40042082100B100220043082100B2002200A3
:102BB40044082100B30022002E082100AE002200A8
:102BC4002F082100AF00220030082100B0009E3100
:102BD4009126943121002E08C4002F08C500300826
:102BE400C60022003F082100BE0022004008210048
:102BF400BF00220041082100C000AF31BA27943140
:102C040021003E08C1003F08C2004008C3009231C1
:102C14005B229431210041082200BA0021004208BD
:102C24002200BB00210043082200BC003A08210016
:102C3400B10022003B082100B20022003C08210020
:102C4400B3000030AE00A030AF004030B0009E3181
:102C54009126943121002E08D1002F08D20030088B
:102C6400D3000030CE001030CF004130D0009D3171
:102C74003D25943121004E082200A00021004F0878
:102C84002200A100210050082200A2009A31FD2256
:102C940022002108BE002008BD003E08AF003D0808
:102CA400AE00080000302200C2008030C3003F3074
:102CB400C4000030BF000030C0000030C10037083D
:102CC4002100A000220038082100A10022003908B8
:102CD4002100A200220034082100A30022003508AC
:102CE4002100A400220036082100A500A231F92207
:102CF4009631031C892E220037082100CE002200C1
:102D040038082100CF00220039082100442F220076
:102D140037082100B100220038082100B200220047
:102D240039082100B3000030AE000030AF0040305D
:102D3400B0009E319126963121002E08BE002F0846
:102D4400BF003008C000AF31BA27963121003E08D9
:102D5400C4003F08C5004008C6000030C100B430BC
:102D6400C2004330C30092315B22963121004108F6
:102D74002200BC00210042082200BD0021004308BB
:102D84002200BE003C082100BE0022003D082100B4
:102D9400BF0022003E082100C000AF31BA2796319F
:102DA40021003E08AE003F08AF004008B0000030EC
:102DB400C100B430C2004330C300220037082100F0
:102DC400BE00220038082100BF002200390821007B
:102DD400C000AF31BA27963121003E08C4003F0835
:102DE400C5004008C60092315B229631210041089B
:102DF400CE004208CF004308D0000030D100343068
:102E0400D2004330D3009D313D25963121004E0838
:102E1400B1004F08B2005008B3009E31912696319C
:102E240021002E082200BF0021002F082200C0002C
:102E3400210030082200C10000302100C100B4305C
:102E4400C2004330C300220037082100BE00220024
:102E540038082100BF00220039082100C000AF312A
:102E6400BA27963121003E08C4003F08C500400837
:102E7400C60092315B22963121004108CE004208FF
:102E8400CF004308D0000030D1003430D2004330AA
:102E9400D3009D313D25963121004E082200C20009
:102EA40021004F082200C300210050082200C40062
:102EB40000302100CE004030CF004030D00022004E
:102EC4003F082100BE00220040082100BF0022006C
:102ED40041082100C000AF31BA27963121003E08D5
:102EE400C1003F08C2004008C3002200340821008A
:102EF400AE00220035082100AF0022003608210070
:102F0400B000220042082100B10022004308210041
:102F1400B200220044082100B3009E31912696316C
:102F240021002E08C4002F08C5003008C6009231C5
:102F34005B22963121004108D1004208D2004308A7
:102F4400D3009D313D25963121004E082200C50055
:102F540021004F082200C600210050082200C700AB
:102F64004508A0004608A1004708A2009A31FD22A6
:102F7400963122002108AF002008AE000330B000D3
:102F84000030B100A0319520963182302200BA0081
:102F94002430BB002E083A0786002F083B3D8700EB
:102FA400403FC500413FC600423FC70045082100DD
:102FB400B100220046082100B20022004708210087
:102FC400B3000030AE00C830AF004230B0009E31D4
:102FD4009126963121002E082200A00021002F08FE
:102FE4002200A100210030082200A2009A31FD2213
:0C2FF40022002108B5002008B4000800ED
:103002002100A101A2012208803AA0008030200202
:10301200031D0D280C30210203180800210021088D
:10302200A0000130A035FF3E031D13282035A03E2D
:103032008600023087000030C03F0030C13FC23FEF
:10304200C33F0130A1070030A23D0428210023081C
:1030520003193028220821042004031D41280030CE
:10306200A0000030A1000030A20008000130A5003D
:103072002508A3070130A236A10CA00C890B3C281D
:10308200FE30220503195A2837280130A5002508E9
:10309200A3070130A007003003180130A107003058
:1030A20003180130A2070130A236A10CA00C890B33
:1030B2005528FF3022050319672846280130A3024C
:1030C2000130A035A10DA20D890B6228A11B6D282C
:1030D2000230230203185F2823187528FF30A00549
:1030E2007F30A105FF30A2050310A30C2308A50021
:1030F200A601A7011030A535A60DA70D890B7C28C6
:103102002508A0042608A1042708A20424080319FC
:103112000800A217080022003A08AF003908AE00E2
:103122000330B0000030B100A03195209831220068
:1031320037082E07840038082F3D8500003FBB006A
:10314200013FBC00023FBD0039083A040319F728C9
:10315200FF30B907FF30BA3D3A08AF003908AE0078
:103162000330B0000030B100A03195209831220028
:1031720037082E07840038082F3D8500003F2100C4
:10318200C100013FC200023FC30022003B082100F0
:10319200AE0022003C082100AF0022003D082100C1
:1031A200B000220034082100B100220035082100BD
:1031B200B200220036082100B3009E3191269831D8
:1031C20021002E08C4002F08C5003008C600923125
:1031D2005B229831210041082200BB0021004208F5
:1031E2002200BC00210043082200A4283B08B400AE
:1031F2003C08B5003D08B600080081302100A0005F
:103202001F30A100A031CD209831210021082000DB
:10321200D200210020082000D10082302100A0002D
:103222001F30A100A031CD209831210021082000BB
:10323200CE00210020082000CD005208803A210053
:10324200A40080302402031D2929073020005102E6
:10325200031C302906302000D1000030D2002000AB
:103262004E08803A2100A40080302402031D3C292C
:10327200063020004D02031C432901302000CD00FE
:103282000030CE0020005808031D4A2927008D1463
:103292004C2927008D102000580C2700031C0D110B
:1032A20003180D1522000D118D110D128D128D10A6
:1032B2000D10200052082100A10020005108210019
:1032C200A0000130A2000030A300A731532798319B
:1032D20020004E082100A10020004D082100A0007E
:1032E200A231BE2208002000A901A31F8529A0093E
:1032F200A109A209A309A00A0319A10A0319A20A92
:103302000319A30AA901A90AA71F9629A409A509B5
:10331200A609A709A40A0319A50A0319A60A0319EB
:10332200A70A0130FC007C08A9060030AD0000307D
:10333200AC000030AB000030AA00230822042104B4
:1033420020040319DF29A801A80AA31BB42901300C
:10335200A035A10DA20DA30D890BA9290130FC00F6
:103362007C08A807A6290130AA35AB0DAC0DAD0D1E
:10337200890BB52923082702031DC9292208260221
:10338200031DC92921082502031DC9292008240279
:10339200031CD4292008A4022108A53B2208A63B2D
:1033A2002308A73B2A140130A336A20CA10CA00CBF
:1033B200890BD5290130A802031DB4292908031954
:1033C200ED29AA09AB09AC09AD09AA0A0319AB0A8E
:1033D2000319AC0A0319AD0A2D08A3002C08A20098
:1033E2002B08A1002A08A00008002100AA01A31F9F
:1033F200072AA009A109A209A309A00A0319A10A7F
:103402000319A20A0319A30AAA01AA0AA71F182AC2
:10341200A409A509A609A709A40A0319A50A03195B
:10342200A60A0319A70A0130A8002808AA06003034
:10343200AE000030AD000030AC000030AB0023081D
:103442002204210420040319612AA901A90AA31B49
:10345200362A0130A035A10DA20DA30D890B2B2A0E
:103462000130A8002808A907282A0130AB35AC0D85
:10347200AD0DAE0D890B372A23082702031D4B2AF7
:1034820022082602031D4B2A21082502031D4B2A6E
:1034920020082402031C562A2008A4022108A53B66
:1034A2002208A63B2308A73B2B140130A336A20C0B
:1034B200A10CA00C890B572A0130A902031D362A40
:1034C2002A0803196F2AAB09AC09AD09AE09AB0A88
:1034D2000319AC0A0319AD0A0319AE0A2E08A30098
:1034E2002D08A2002C08A1002B08A0000800220031
:1034F200690868046704031D842A0030E7008030ED
:10350200E8003F30E900C0302100CE007F30CF001C
:103512004430D000220067082100D1002200680850
:103522002100D200220069082100D3009D313D25EF
:103532009A3121004E082300E40021004F082300A5
:10354200E500210050082300E60056302200D80092
:103552008E30D900BF30DA00230064082200D50083
:10356200230065082200D600230066082200D70047
:103572008631DA269A31220055082300E70022001C
:1035820056082300E800220057082300E9009F3074
:103592002100AE006830AF004030B0002300670861
:1035A2002100B100230068082100B200230069084D
:1035B2002100B3009E3191269A3121002E0823006A
:1035C200E10021002F082300E2002100300823003F
:1035D200E30061082200A000230062082200A1008B
:1035E200230063082200A2009A31FD222200210852
:1035F200E8002008E700080022002008A4002108B3
:10360200A5002208A6000310250D260DA7002708F5
:10361200AD002D08031D162B0030A3000030A200C0
:103622000030A1000030A00008002008A4002108FA
:10363200A5002208A6001730A636A50CA40C890BFB
:103642001D2B2408A7002708A800A117FF30A005FA
:10365200FF30A1050030A2052008A9002108AA0018
:103662002208AB00AC018E30AD02AD1F542B2D08E9
:10367200803A8F3E0318462B0030A3000030A20090
:103682000030A1000030A00008000130AC36AB0CC5
:10369200AA0CA90C890B472B0130A4002408AD0702
:1036A20003196D2B462B18302D02031C6A2B003098
:1036B200A3000030A2000030A1000030A0000800EA
:1036C2000130A935AA0DAB0DAC0D890B622B01306F
:1036D200AD022D08031D612B280803197B2BA909B4
:1036E200AA09AB09AC09A90A0319AA0A0319AB0A68
:1036F2000319AC0A2C08A3002B08A2002A08A10077
:103702002908A00008002200DB0178305B020318C0
:10371200082C00302100CE003430CF004330D000DE
:103722001030AE004930AF004030B00022005B08DC
:10373200D300D4015308AE005408AF000330B000E8
:103742000030B100A03195209B3122002F082100CA
:10375200A90022002E082100A800A031ED209B31F3
:1037620021002808B1002908B2002A08B3009E31BE
:1037720091269B3121002E08D1002F08D20030085B
:10378200D3009D313D259B3121004E082200D800F7
:1037920021004F082200D900210050082200DA003F
:1037A2005808C5005908C6005A08C7008A314E2277
:1037B2009B3122004508D8004608D9004708DA00A4
:1037C2005B08D300D4015308AE005408AF000330A5
:1037D200B0000030B100A03195209B318230220030
:1037E200D5002430D6002E08550786002F08563DF6
:1037F20087005808C03F5908C13F5A08C23F0130EC
:10380200D3005308DB0778305B02031C8A2BD701F5
:10381200D70A080021006408C1006508C2006608D2
:10382200C3006108BE006208BF006308C000AF3178
:10383200BA279C3121003E08C4003F08C500400859
:10384200C60092315B229C3121004108CE00420821
:10385200CF004308D0006A08C1006B08C2006C08A0
:10386200C3006708BE006808BF006908C000AF3126
:10387200BA279C3121003E08C4003F08C500400819
:10388200C60092315B229C3121004108AE00420801
:10389200AF004308B0005E08C1005F08C2006008C4
:1038A200C3006108BE006208BF006308C000AF31F8
:1038B200BA279C3121003E08C4003F08C5004008D9
:1038C200C60092315B229C3121004108B1004208BE
:1038D200B2004308B3009E3191269C3121002E088C
:1038E200D1002F08D2003008D3009D313D259C31F4
:1038F20021004E08ED004F08EE005008EF00670867
:10390200C1006808C2006908C3006D08C4006E08DF
:10391200C5006F08C60092315B2221004108DE001B
:103922004208DF004308E0000800220036082100B8
:10393200A000220037082100A1002200380821003F
:10394200A2003D302200B90039082100A300A331B2
:10395200B0239C312200BE1FD42C36082100A000C7
:10396200220037082100A100220038082100A2000D
:103972000030A3000030A4000030A500A231F922DB
:103982009C310318CC2C00302200B6008030B700E6
:10399200BF30B800080000302200B6000030B70087
:1039A2000030B800080000303E02153003193D0215
:1039B200031808003608A0003708A1003808A20042
:1039C2009A31FD229C3122002308B1002208B00066
:1039D2002108AF002008AE00A63119269C31220032
:1039E2002E08BA002F08BB003008BC0036082100A0
:1039F200A000220037082100A1002200380821007F
:103A0200A20022003A082100A30022003B08210064
:103A1200A40022003C082100A500A231F9229C3119
:103A22000318352D00302100C1008030C200BF30A4
:103A3200C30022003A082100C40022003B082100F2
:103A4200C50022003C082100C60092315B22210001
:103A520041082200B600210042082200B7002100DE
:103A620043082200B800080022003A08B6003B08CA
:103A7200B7003C08B800080021005108D4005208E1
:103A8200D5005308D6000310550D560DD700570820
:103A9200DC005C08031D542D0030CE000030CF0046
:103AA2000030D00008004E08D4004F08D50050085E
:103AB200D6000310550D560DD7005708DD005D08DE
:103AC200031D6A2D0030CE000030CF000030D00040
:103AD20008000030D9000030DA000030DB00893005
:103AE2005D07D4005408DC025108D4005208D50006
:103AF2005308D6001030D636D50CD40C890B7C2D49
:103B02005408D7005708DD004E08D4004F08D500EE
:103B12005008D6001030D636D50CD40C890B8C2D1B
:103B22005408D7005708DD068030D4005408DD055C
:103B3200D217FF30D105FF30D2050030D305CF17A1
:103B4200FF30CE05FF30CF050030D0051830D4004D
:103B52005408D8000130D935DA0DDB0D890BAC2DB4
:103B620050085302031DBB2D4F085202031DBB2DEB
:103B72004E085102031CC42D4E08D1024F08D23BFD
:103B82005008D33B59140130D135D20DD30D890BD6
:103B9200C52D0130D802031DAB2D5908A0005A08CB
:103BA200A1005B08A2005C08D4005408A3005D08D1
:103BB200D5005508A4009831272021002008CE0006
:103BC2002108CF002208D0000800220069086804FA
:103BD2006704031DEF2DE701E8010800C030670606
:103BE2007F3003196806443003196906031DFE2D50
:103BF200FF30E7000030E800080000302100C1007B
:103C02008030C2003F30C300220067082100D1008B
:103C1200220068082100D200220069082100D30096
:103C2200C030CE007F30CF004430D0009D313D25E2
:103C32009D3121004E08BE004F08BF005008C00051
:103C4200AF31BA279D3121003E08C4003F08C500AC
:103C52004008C60092315B229D31210041082300B9
:103C6200E400210042082300E5002100430823006C
:103C7200E6006A302200D8009C30D900BF30DA005A
:103C8200230064082200D500230065082200D60024
:103C9200230066082200D7008631DA269D312200F1
:103CA20055082300E700220056082300E8002200FE
:103CB20057082300E900E3302100AE000B30AF00CB
:103CC2004130B000230067082100B10023006808DA
:103CD2002100B200230069082100B3009E31912621
:103CE2009D3121002E082300E10021002F0823002E
:103CF200E200210030082300E30061082200A00056
:103D0200230062082200A100230063082200A2000F
:103D12009A31FD2222002108E8002008E70008006D
:103D220021002E08B4002F08B5003008B600031099
:103D3200350D360DB7003708B8003808031DA82E18
:103D42000030AE000030AF000030B0000800310893
:103D5200B4003208B5003308B6000310350D360D35
:103D6200B7003708BD003D08031DBE2E0030AE006F
:103D72000030AF000030B00008003D087B3EB400C8
:103D82003408B8072E08B4002F08B5003008B60072
:103D92001030B636B50CB40C890BCA2E3408B700F5
:103DA2003708BD003108B4003208B5003308B60048
:103DB2001030B636B50CB40C890BDA2E3408B700C5
:103DC2003708BD068030B4003408BD05AF17B217FE
:103DD200FF30B105FF30B2050030B3050030B90045
:103DE2000030BA000030BB000730B4003408BC0019
:103DF2002E1C012F3108B9073208BA3D3308BB3DEA
:103E02000130B036AF0CAE0C890B022F0130B13548
:103E1200B20DB30D890B082F0130BC02031DF92E20
:103E22000930B4003408BC002E1C1D2F3108B9071C
:103E32003208BA3D3308BB3D0130B036AF0CAE0C90
:103E4200890B1E2F0130BB36BA0CB90C890B242FFB
:103E52000130BC02031D152F3908A0003A08A10049
:103E62003B08A2003808B4003408A3003D08B5009E
:103E72003508A4009831272021002008AE0021082F
:103E8200AF002208B00008002300BC012200400855
:103E9200CA003F08C9000030C6008030C7003F306A
:103EA200C8006E2F0030C6000030C70040306C2FB3
:103EB200A630C6002A30602F0030C6000030C7008E
:103EC2003F306C2FA630C600AA306A2F0030C600E1
:103ED2008030C7003E30C800872F4208003A0319DD
:103EE200732F872F4108013A0319532F033A0319FD
:103EF200592F013A03195D2F073A0319632F013A2B
:103F02000319672F033A0319872F872F4A082100C5
:103F1200A900220049082100A800A031ED209F310C
:103F220021002808B1002908B2002A08B3002200A3
:103F320046082100AE00220047082100AF002200FF
:103F420048082100B0009E3191269F3121002E08A1
:103F52002200A00021002F082200A1002100300829
:103F62002200A2009A31FD229F3122002108CA00BC
:103F72002008C9004A082100A9002200490821009E
:103F8200A800A031ED209F31210028082200B600B0
:103F9200210029082200B70021002A082200B800C7
:103FA200A5313D259F3122003608C3003708C400E1
:103FB2003808C5004A082100A9002200490821004A
:103FC200A800A031ED209F3121002A0822004506D9
:103FD200031DF52F2100290822004406031DF52F99
:103FE20021002808220043060319FA2F2300BC01EE
:0E3FF200BC0A22004A08C0004908BF000800AF
:10400200D034073400340034D03407340034003460
:1040120001340034E8340334063400341434FF34F9
:10402200FF3404340134FF342100A6002608A40022
:10403200A5012408A0002508A1000130A20000303B
:10404200A300A7315327A03106302100A000003081
:10405200A100A231BE220800200052082100A100C6
:10406200200051082100A0000130A2000030A3006E
:10407200A7315327A03120004E082100A1002000C3
:104082004D082100A000A231BE22080020005408E1
:104092002100A200A30121082306031D52282008A3
:1040A2002206031908002008A20022082000D400DA
:1040B2002100200C2200031C8D1103188D1508000D
:1040C200200055082100A200A30121082306031D98
:1040D2006C2820082206031908002008A2002208E2
:1040E2002000D5002100200C2200031C8D12031891
:1040F2008D16080064340034D0340734D0340734C9
:10410200D0340734D0340734D0340734D0340734B1
:10411200B4340034013400340134FF340134FF3448
:10412200023401340134FF342200B201B3012E1CE7
:104132009E283008B2073108B33D0130B035B10DC9
:10414200890B9F280130AF36AE0C890BA4282E08AC
:104152002F04031D98283308AF003208AE00080070
:1041620022004508AE004608AF004708B0004808E4
:10417200B1004908B2004A08B3009431AA242200CF
:104182002E09CB002F09CC00CB0A0319CC0A4B080D
:10419200C5004C08C600080000308B1B013021000E
:1041A200A2008B1320082300910021002108230084
:1041B200920015131514000000002100220C031CAC
:1041C2008B1303188B17230014082100A10023006E
:1041D20013082100A00008002100AD01A91FF82842
:1041E200A809A909A80A0319A90AAD01AD0A280854
:1041F200A0002908A100A2018E30AB002B08A30069
:104202002D08AC002C08A40098312720210020089A
:10421200A8002108A9002208AA00080026292200D5
:104222008D100D10A0312D20080022008D100D14CC
:1042320020005708A2318422080022008D140D109C
:1042420023005E08A0311520080020006708003A0C
:1042520003191029013A03191629033A03191E29D1
:10426200322908008E302100AC002C08AD00FF304E
:104272002B05031948290130AB36AA0CA90CA80C4E
:10428200890B3D290130AC002C08AD0738292808DC
:10429200A0002908A1002A08A2002D08AC002C08C1
:1042A200A300A4019831272021002008A80021089A
:1042B200A9002208AA0008002200410840043F0485
:1042C200031965298030C10642082100C10022007D
:1042D20043082100C200220044082100C30022003A
:1042E2003F082100C400220040082100C50022002E
:1042F20041082100C60092315B22210041082200C0
:10430200BF00210042082200C00021004308220011
:10431200C10008000030FB000030FA000030F90054
:104322000030F800701C9D297408F8077508F93DE3
:104332007608FA3D7708FB3D0130F435F50DF60DB0
:10434200F70D890B9E290130F336F20CF10CF00CBB
:10435200890BA5297308720471047004031D932943
:104362007B08F3007A08F2007908F1007808F0007F
:10437200080021000D108D100D118D110D128D12DE
:104382000E140E128E120F108F100F118F110F12AA
:104392008F160F178F1710149014230010109010FF
:1043A20020001010901026000C108C100C118C1193
:1043B2000C128C120C1728000C1326008D100D11F4
:1043C200AF31C327A131A43171248B178B160B1186
:1043D200080000302100AB000030AA000030A90024
:1043E2000030A800201CFD292408A8072508A93DA3
:1043F2002608AA3D2708AB3D0130A435A50DA60D20
:10440200A70D890BFE290130A336A20CA10CA00C2A
:10441200890B052A2308220421042004031DF32901
:104422002B08A3002A08A2002908A1002808A0003E
:10443200080000302100B1000030B0000030AF00B1
:104442000030AE002C08A0002D08A100A201A3019B
:104452000030A7000030A6000330A500E830A40019
:10446200A131EA21A23121002308B1002208B000C3
:104472002108AF002008AE00310830042F042E04BA
:1044820003190800FF30AE07FF30AF3DFF30B03DEB
:10449200FF30B13D3D2A20000E18802A0130240051
:1044A200CD070030CE3D4E08803A2100A700803073
:1044B2002702031D5F2A1A3024004D02031C080044
:1044C20019302400CD000030CE0020006803031D07
:1044D2006F2AE801A0312D20A231792A0130210072
:1044E200A70027082000E707033067020318E70147
:1044F200A1310F21A23120000E1808007C2A2400CD
:10450200CD01CE0108002100A600063026020318C4
:10451200A02A2608A400A5012408A0002508A100BD
:104522000130A2000030A300A7315327A231063088
:104532002100A0000030A100A231BE2208000630F6
:104542002100A0000030A1000130A2000030A30031
:10455200A7315327A23121002608A400A501A409EE
:10456200A509A40A0319A50A24080B3EA0000030DD
:10457200253DA100A231BE22080022000F108F109B
:104582000F118F110F12DB2A22000F1408002200D4
:104592008F14080022000F15080022008F15080052
:1045A20022000F16080022000F148F140F158F150A
:1045B2000F16080021002108003A0319E12AF82AFF
:1045C2002008013A0319C52A033A0319C82A013AF5
:1045D2000319CB2A073A0319CE2A013A0319D12A21
:1045E200033A0319F82A623A0319D42AF82A08006E
:1045F2002100A21F102B2009A6002109A7002209D1
:10460200A800A60A0319A70A0319A80A0030260758
:10461200A0000030273DA1008030283DA200A51F48
:10462200262B2309A6002409A7002509A800A60A0B
:104632000319A70A0319A80A00302607A3000030AD
:10464200273DA4008030283DA5008030A20680309E
:10465200A50625082202031D080024082102031DC5
:10466200080023082002080022004808B400490874
:10467200B5004A08B6004B08B7004C08B8004D0810
:10468200B90096315426A33122003508CF003408F0
:10469200CE004B082100A00022004C082100A100FE
:1046A20022004D082100A200220048082100A30098
:1046B200220049082100A40022004A082100A50086
:1046C200A231F922A33103186C2B9C302200C800BE
:1046D200FF30C900080064302200C8000030C90061
:1046E2000800200066082100BA00BB0139083B0619
:1046F200031D7D2B38083A06031908003808BA0052
:104702003A082000E600210038033904031D8C2BEF
:1047120022000D128D1220006603031DA82B6808CB
:10472200031D9D2BE801E80A22008D102000570886
:10473200A2318422A331A82B2000E801A1310F214C
:10474200A331A0312D20A331AF31EC27A331143096
:104752002100AC000030AD00A2311A220800210075
:10476200220821042004031DC42B230886000130E3
:1047720087000030C03FC13F0030A0000030A100E0
:104782000030A200080022087F39A400A501A43548
:10479200A50D23088600013087002408C03F2508A4
:1047A200C13F210D210D0139A400A5012308860076
:1047B200013087002408810441312508810423083F
:1047C200860001308700823081074131FF30813D10
:1047D2007F31220880393F38A200A11308001E3021
:1047E2002100B2003208B4006430A0000030A10001
:1047F2000130A2000030A300A7315327A331643057
:104802002100A0000030A100A231BE22A33121006C
:104812003408B200B3013208AC003308AD00A23153
:104822001A22A33100302100A000A1000130A20011
:104832000030A300A7315327A33100302100A0008C
:10484200A100A231BE22A33121003408B200B3017B
:104852003208AC003308AD00A2311A220800003041
:104862002000A3000030A2000330A100E830A00025
:104872000C30B600F230B7000130B8000030B90099
:104882003508F3003408F2003308F1003208F00072
:104892003108F7003008F6002F08F5002E08F40062
:1048A200A1318B21A43170082000B6077108B73DF1
:1048B2007208B83D7308B93D3908A7003808A60048
:1048C2003708A5003608A400993174212000230876
:1048D200B1002208B0002108AF002008AE00080095
:1048E20022001D1021000E118E1026000D108D11B8
:1048F2000D122100101390121012901110110F308E
:10490200250093040F309A040F30260093040F30D1
:104912009A040F309E040F302C0093040F3096043B
:104922000F3099040F309C040F309F0425009D0125
:104932009E019F01003092003230910000309900B8
:1049420064309800003026009200963091000030CA
:104952009900C8309800AF31B127A43188310120C5
:104962000800FF302000E5002100A2002208FD001F
:10497200C42C6730C12C3330C12C1F30C12C1930EC
:1049820023009B00E72C21002108253A0319D32C90
:104992006E3A0319D82C313A0319DD2CEC3A03197B
:1049A200E22CE72C2008803A0319BA2CE72C2008C5
:1049B200003A0319BC2CE72C2008123A0319BE2C2A
:1049C200E72C2008003A0319C02CE72C23001E1301
:1049D2009E161E121E159D171D131D169D112100D8
:1049E20091160B178B17080027000C108C100C1156
:1049F2008C110C12202D720C031C0C1003180C14B9
:104A02000800720C031C8C1003188C140800720C22
:104A1200031C0C1103180C150800720C031C8C11DA
:104A220003188C150800720C031C0C1203180C16C8
:104A320008000C148C140C158C150C160800710847
:104A4200003A0319252D3C2D7008013A0319FC2C5C
:104A5200033A0319022D013A0319082D073A0319E3
:104A62000E2D013A0319142D033A03193C2D623A13
:104A720003191A2D3C2D0800220036082100A0003F
:104A8200220037082100A100220038082100A200DC
:104A92003D302200B90039082100A300A331B02320
:104AA200A5312200BE1F5C2D0030B6000030B700D9
:104AB2000030B800080000303E02153003193D02F4
:104AC200031808003608A0003708A1003808A20021
:104AD2009A31FD22A53122002308B1002208B0003C
:104AE2002108AF002008AE00A631192622002E08A8
:104AF200BA002F08BB003008BC003A08B6003B08D9
:104B0200B7003C08B8000800200058082100B40093
:104B1200B50133083506031D902D320834060319FA
:104B220008003208B40034082000D8002100320CFA
:104B32002200031C0D1103180D158D112100320CDA
:104B42002700031C0D1103180D1521003208330430
:104B5200031DAE2D27008D14B02D27008D101430AB
:104B62002100AC000030AD00A2311A22A53127008D
:104B72000D118D10200058082100B400B501340831
:104B8200A0003508A1008731FF27A531143021008C
:104B9200AC000030AD00A2311A22080020000F1B29
:104BA200D92D23003D080319E42D0130BD02E42D67
:104BB200193023003D020318E42D01302100B20018
:104BC20032082300BD073D08031D080020004D08E0
:104BD200013ECD0000304E3DCE004E08803A21000D
:104BE200B20080303202031DF92D063020004D0242
:104BF200031C002E01302000CD000030CE00230027
:104C0200C101C10A20004E082100A10020004D0868
:104C12002100A000A231BE22A53120000F1F0E2EBE
:104C220014302100AC000030AD00A2311A2208007D
:104C32002200B5018E30B2003208B400B11F2E2E10
:104C4200AE09AF09B009B109AE0A0319AF0A0319D7
:104C5200B00A0319B10AB501B50AFF3031050319CB
:104C62003E2E0130B136B00CAF0CAE0C890B332E98
:104C72000130B2003208B4072E2E2E082100A00007
:104C820022002F082100A100220030082100A200EA
:104C920022003408B20032082100A30022003508A5
:104CA200B30033082100A4009831272021002008F6
:104CB2002200AE00210021082200AF0021002208BC
:104CC2002200B000080020008F1A6E2E2300460832
:104CD2000319792E0130C602792E193023004602BB
:104CE2000318792E01302100B20032082300C607D2
:104CF2004608031D080020005108013ED100003083
:104D0200523DD2005208803A2100B2008030320275
:104D1200031D8E2E073020005102031C952E0130F8
:104D22002000D1000030D200200052082100A10052
:104D3200200051082100A0000130A2000030A30091
:104D4200A7315327A6312300DB01DB0A20008F1E87
:104D5200A72E14302100AC000030AD00A2311A227F
:104D6200080001302100B3000030B4003408803A5A
:104D7200B20080303202031DC02E07303302031806
:104D8200E62E21003408A1003308A0000130A20061
:104D92000030A300A7315327A63105302100AC0013
:104DA2000030AD00A2311A22A63101302100B30732
:104DB2000030B43D3408803AB20080303202031D24
:104DC200E42E07303302031CC22E05302100B50049
:104DD2000030B600B61B08003608A1003508A00056
:104DE200A231BE22A63105302100AC000030AD0058
:104DF200A2311A22A631FF302100B507FF30B63D9D
:104E0200EB2EF601F11F0C2FF009F109F00A03193C
:104E1200F10AF601F60AF31F172FF209F309F20A53
:104E22000319F30A0130F4007408F606F701F801D9
:104E3200700871040319462FF501F50AF11B2B2F97
:104E42000130F035F10D890B222F0130F400740886
:104E5200F5071F2F0130F735F80D890B2C2F71083C
:104E62007302031D362F70087202031C3D2F700857
:104E7200F2027108F33B77140130F136F00C890B22
:104E82003E2F0130F502031D2B2F760803194E2FFA
:104E9200F709F809F70A0319F80A7808F100770800
:104EA200F000080027000C108C100C118C110C1251
:104EB200892F2100220C2700031C0C1003180C144C
:104EC20008002100220C2700031C8C1003188C14EC
:104ED20008002100220C2700031C0C1103180C15DA
:104EE20008002100220C2700031C8C1103188C15CA
:104EF20008002100220C2700031C0C1203180C16B8
:104F0200080027000C148C140C158C150C160800C4
:104F120021002108003A03198F2FA62F2008013AF9
:104F220003195A2F033A0319622F013A03196A2F00
:104F3200073A0319722F013A03197A2F033A031918
:104F4200A62F623A0319822FA62F080020006708B5
:104F5200031DAE2F6803031D08008F1BFC2F0130B9
:104F62002400CB070030CC3D4C08803A2100A7003A
:104F720080302702031DC02F1A3024004B02031C6D
:104F8200080019302400CB000030CC002000670854
:104F920023005F060319D12F20006803031DE22FAF
:104FA20001302100A70027082000D7070B30570245
:104FB200031CDD2FD701D70A5708A2318422A7315B
:104FC200F82F2000670823005D06031DF82F01302B
:104FD2002100A70027082300DE0706305E02031C1B
:104FE200F42FDE01DE0A5E08A0311520A731200071
:104FF2008F1B0800F82F2400CB01CC0108000034DD
:1050020080343F34723431343F34FE3475343E34AC
:10501200583463343D3495341D343C34C534AE3495
:105022003A347934213439349434803437349334F3
:10503200A734353456341534343400340034003453
:10504200003480343F34F034FF34BE34E234A934C7
:105052003E3483347634BE34AE342B343E343C3466
:10506200C334BD34D23413343D347834D334BB34F6
:10507200F4344A34483495349534C734C134DC347A
:105082004534DC346D34C334B334333440343434D3
:10509200013448349D34B03445340034DA34423477
:0650A200003480343F34AD
:105F5200FC302100990508002100A001A1010800E0
:105F6200873020009C05FC309C05FF309B001C15EF
:105F72000800210040083F043E0403190800803055
:105F8200C006080021009E171E088F3960389E0047
:105F9200FC309E051D140800FE0012001E00013098
:105FA200FE020030FF3B7F087E0403190034CE2F2F
:105FB2002100A3002308A200A20DA20D1D082206A3
:105FC200833922069D009D149D18E52F1C08A1000F
:105FD2001B08A000080001302100B700370820008C
:105FE200E900A631B226AF31A631B226AF31A331D4
:0E5FF200F023AF31A331F0232000E9010800B5
:020000040001F9
:04000E00E2FFFFDF2F
:00000001FF
