:1000000083311F2BD03407347E14803120007F08C9
:10001000C2000B1D1F294A08C4004908C300013053
:10002000BA000030BB000030BC000030BD006208E8
:10003000BA076308BB3D6408BC3D6508BD3D3D088B
:10004000E5003C08E4003B08E3003A08E200013028
:10005000BA000030BB000030BC000030BD005A08C0
:10006000BA075B08BB3D5C08BC3D5D08BD3D3D0873
:10007000DD003C08DC003B08DB003A08DA00013018
:10008000BA000030BB000030BC000030BD005E088C
:10009000BA075F08BB3D6008BC3D6108BD3D3D0837
:1000A000E1003C08E0003B08DF003A08DE000130D8
:1000B000BA000030BB000030BC000030BD0023009F
:1000C00024082000BA07230025082000BB3D230098
:1000D00026082000BC3D230027082000BD3D3D0828
:1000E0002300A70020003C082300A60020003B08B6
:1000F0002300A50020003A082300A4000130A00737
:100100000030A13D0030A23D0030A33D013024006D
:10011000C1070030C23D0030C33D0030C43D230064
:100120004003031DA9280130AA070030AB3D2B086E
:1001300020005202031DA02823002A08200051029B
:100140000318A92852082300AB00200051082300FF
:10015000AA0023004203031DC3280130B607003064
:10016000B73D370820005202031DBA282300360885
:10017000200051020318C32852082300B7002000B2
:1001800051082300B6000B11240045034604031D4B
:100190001F2920005D08803ABA004C08803A3A02D4
:1001A000031DDC284B085C02031DDC284A085B02A7
:1001B000031DDC2849085A02031C1F294508BA0000
:1001C0004608BB004708BC004808BD006209BE00E5
:1001D0006309BF006409C0006509C100BE0A0319B4
:1001E000BF0A0319C00A0319C10A3E08BA073F082B
:1001F000BB3D4008BC3D4108BD3DBD1B0C293D0831
:10020000031D1F293C08031D1F293B08031D1F292F
:1002100004303A0203181F296209BA006309BB00BF
:10022000BA0A0319BB0A45083A07BC0046083B3D19
:10023000BD005A083C07C3005B083D3DC4002000D8
:100240005708031D7F296608031D7F296808031DC1
:100250007F296508803ABA004808803A3A02031DAF
:100260003B2947086402031D3B2946086302031D1E
:100270003B2945086202031C6D2922000D1600303F
:100280002000E5000030E4000030E3000030E20030
:10029000240055035604031D6D2923002908250059
:1002A000920023002808250091002300B801B9011D
:1002B0005408A4005508A500890D893B8909A600AA
:1002C000A7002400D501D60120004C08DD004B0812
:1002D000DC004A08DB004908DA002000E51B7F2922
:1002E0006508031D7D296408031D7D296308031D1E
:1002F0007D291E306202031C7F2922000D1220007E
:100300006803031DAF292300A31B9E292308031D97
:1003100093292208031D93292108031D9329FA30EC
:100320002002031C9E2922000D1400302300A3008C
:100330000030A2000030A1000030A000A31BAF29B4
:100340002308031DAD292208031DAD292108031D23
:10035000AD291E302002031CAF2922000D10200001
:100360006808031D0E2A6708031D0E2A4308BA00F9
:100370004408BB000030BB1BFF30BC00BD005D0863
:10038000803ABE003D08803A3E02031DD1293C0858
:100390005C02031DD1293B085B02031DD1293A08E9
:1003A0005A02031CF02923004608031DE3292000FC
:1003B0005408F1005308F0000130F2000030F3005F
:1003C00090310120803120004A08C4004908C30050
:1003D0000030DD000030DC000030DB000030DA00EF
:1003E000DD1B0E2A5D08031DFF295C08031DFF2984
:1003F0005B08031DFF2914305A02031C0E2A230038
:100400004608031D0E2A20005408F1005308F0008E
:100410000030F200F30090310120803123005408B5
:100420002000BA00230055082000BB000030BB1B91
:10043000FF30BC00BD0023002708803A2000BE002A
:100440003D08803A3E022300031D362A20003C0866
:1004500023002602031D362A20003B082300250224
:10046000031D362A20003A0823002402031CE52A33
:100470000030A7000030A6000030A5000030A40026
:100480003908803A2000BA0080303A02031D4B2A16
:100490003C3023003802031C502A2300B801B90164
:1004A00020000E128C2A23003808A03E860003305C
:1004B000812A23003808203E7F2A23003908803A09
:1004C0002000BA0080303A02031D692A1F30230041
:1004D00038020318702A64302300BA000030742AEE
:1004E0009C302300BA00FF30BB00A32A2300380849
:1004F000203E86000530812A23003808A03E860071
:10050000043087000108BA00BB01BA1BBB03A32A51
:100510002300BA01BB01A32A20004E08003A0319A8
:10052000922A882A4D08013A0319532A033A0319DB
:10053000592A013A03195D2A073A0319762A013A22
:1005400003197C2A882A23003A082000AE002300E1
:100550003B082000AF00890D893B8909B000B1003C
:10056000240047082000B200240048082000B300FF
:10057000890D893B8909B400B5009A31A6228031E2
:1005800020002F082300BB0020002E082300BA0003
:100590000230F0000030F1003B08F3003A08F200AE
:1005A0009C31EB24803171082C009B0070089A006C
:1005B00000302300A7000030A6000030A500003066
:1005C000A4000130B8070030B93D4503031D132BCB
:1005D00001302000BA003A082300C4074B08803AD3
:1005E000803C031DF52A4A084402031C182B2200F4
:1005F0008D1423004B082000BB0023004A08200074
:10060000BA00BA35BB0D3B08803ABC0080303C02D2
:10061000031D0E2B2300440820003A0203181A2B56
:100620002300C4011A2B2300440803191A2BC40108
:1006300022008D1020004208FF007E100900833147
:10064000212B5A308400003085000F30FE0000302E
:10065000FF00A5317B258331A03084000130850067
:100660002A30FE000030FF00A5317B258331203089
:100670008400023085003930FE000030FF00A531D3
:100680007B258331A0308400023085002C30FE00B1
:100690000030FF00A5317B258331203084000330FA
:1006A00085004030FE000030FF00A5317B258331FE
:1006B000A0308400053085004030FE000030FF008F
:1006C000A5317B258331F83084008D308500E830FA
:1006D0008600233087000230FF000830A5316F25E7
:1006E0008331BD308400A530850045308600003060
:1006F00087000030FF001530A5316F2583312200BF
:10070000803102208331E600803103208331E7000D
:10071000D2308400A5308500CA30860001308700C1
:100720000030FF001730A5316F2583312400883158
:1007300000208331E500883101208331E600AB30B1
:10074000840099308500A030860003308700003097
:10075000FF003D30A5316F2583316E308400993024
:10076000850020308600043087000030FF003D30D7
:10077000A5316F2583313130840099308500A03058
:100780008600043087000030FF003D30A5316F2522
:100790008331F430840098308500203086000530A5
:1007A00087000030FF003D30A5316F257E1020000E
:1007B0008331DA2B12302100A0007A30A1009B3166
:1007C00028238331A5314E258331A7316E2783310C
:1007D0002000101490140F178F160E148F17A631C7
:1007E000EF268331A531872583318831022083317B
:1007F00098310B2083319D31E225833197311727C2
:100800008331200068030319082C8C310F248331B5
:10081000200068030319172C670823005E060319DC
:10082000172C9B316B2383319C314B248331003057
:10083000A53196258331210021082300AD00210038
:1008400020082300AC000130A5319625833121001A
:1008500021082300AF00210020082300AE00023051
:10086000A53196258331210021082300B100210004
:1008700020082300B0000330A531962583312100E4
:1008800021082300B300210020082300B200043017
:10089000A53196258331210021082300B5002100D0
:1008A00020082300B400220066092300E100220092
:1008B00067092300E200E10A0319E20A2C08610734
:1008C000E3002D08623DE4006408803AE5008030D2
:1008D0006502031D6D2C0430630203188B2C22006B
:1008E00066092300E100220067092300E200E10A13
:1008F0000319E20A2C086107E3002D08623DE400B9
:100900006408803AE5007F306502031D892CFD30C4
:1009100063020318EC2C23002D082200E7002300BB
:100920002C082200E60067082100A90022006608C2
:100930002100A800A631A92683312100280824001F
:10094000D900210029082400DA0021002A08240007
:10095000DB0059082200D70024005A082200D800E2
:1009600024005B082200D9009F31802783312200B8
:1009700058082500990022005708250098002200F9
:1009800067082100A900220066082100A800A631FE
:10099000A9268331210028082400DC002100290831
:1009A0002400DD0021002A082400DE005C0822006B
:1009B000D70024005D082200D80024005E08220031
:1009C000D90092315E22833122005808260092001D
:1009D000220057082600910020004F092300E10063
:1009E000200050092300E200E10A0319E20A2E0860
:1009F0006107E3002F08623DE4006408803AE500E7
:100A000080306502031D062D043063020318242D77
:100A100020004F092300E100200050092300E200DC
:100A2000E10A0319E20A2E086107E3002F08623D7C
:100A3000E4006408803AE5007F306502031D222D42
:100A4000FD3063020318852D23002F082000D000FD
:100A500023002E082000CF0050082100A90020000C
:100A60004F082100A800A631A926833121002808BB
:100A70002400DF00210029082400E00021002A08CA
:100A80002400E1005F082200D70024006008220053
:100A9000D800240061082200D9009F31002783314B
:100AA00022005808260099002200570826009800C6
:100AB000200050082100A90020004F082100A800B4
:100AC000A631A9268331210028082400E200210054
:100AD00029082400E30021002A082400E400620819
:100AE0002200D700240063082200D80024006408F4
:100AF0002200D90090314920833122005808260075
:100B00009D002200570826009C0023004E09E100AA
:100B10004F09E200E10A0319E20A30086107E30025
:100B20003108623DE4006408803AE50080306502E7
:100B3000031D9C2D043063020318B72D23004E09BA
:100B4000E1004F09E200E10A0319E20A30086107F7
:100B5000E3003108623DE4006408803AE5007F303C
:100B60006502031DB52DFD3063020318FA2D230025
:100B70003108CF003008CE0000302100E400B4304E
:100B8000E5004330E6000030E1000030E2000030D4
:100B9000E300C030DE007F30DF004430E000003092
:100BA000DB000030DC000030DD0023004F082100B6
:100BB000A90023004E082100A800A631A9268331F0
:100BC00021002808D8002908D9002A08DA00913124
:100BD000D321833121005808EA005908EB005A0854
:100BE000EC009231F822833121006A082300E100F1
:100BF0006108E00023005009E1005109E200E10A28
:100C00000319E20A32086107E3003308623DE40099
:100C10006408803AE50080306502031D112E04301F
:100C2000630203182C2E23005009E1005109E20051
:100C3000E10A0319E20A32086107E3003308623D62
:100C4000E4006408803AE5007F306502031D2A2E27
:100C5000FD3063020318712E23003308D1003208DF
:100C6000D00000302100E4003C30E5004230E600D6
:100C70000030E1004030E2004030E300C030DE00F0
:100C80007F30DF004430E0000030DB000030DC006B
:100C90000030DD00230051082100A9002300500886
:100CA0002100A800A631A926833121002808D800F8
:100CB0002908D9002A08DA009131D3218331210093
:100CC0005808EA005908EB005A08EC009231F82263
:100CD000833121006B082300D50021006A0823001E
:100CE000D40023005209E1005309E200E10A03198C
:100CF000E20A34086107E3003508623DE400640855
:100D0000803AE50080306502031D882E04306302BE
:100D10000318A32E23005209E1005309E200E10A5F
:100D20000319E20A34086107E3003508623DE40074
:100D30006408803AE5007F306502031DA12EFD3076
:100D400063020318E82E23003508D3003408D200CC
:100D500000302100E4000030E5000030E6006030A3
:100D6000E1009F30E2004430E300C030DE007F301D
:100D7000DF004430E0000030DB000030DC000030F9
:100D8000DD00230053082100A900230052082100A0
:100D9000A800A631A926833121002808D8002908F7
:100DA000D9002A08DA009131D32183312100580873
:100DB000EA005908EB005A08EC009231F82283311E
:100DC00021006B082400C80021006A082400C70025
:100DD00023004C034D04031DF82B20004808CC00D1
:100DE0004708CB004608CA004508C900460822004B
:100DF000B900200045082200B80020005408220055
:100E0000BB00200053082200BA0096315B268331D4
:100E1000220038082000C900220039082000CA003A
:100E2000890D893B8909CB00CC0001302400D50015
:100E30000030D600D101D2012300A801A90124006D
:100E400051085204031D792F23002908E2002808C5
:100E5000E100E135E20DE830E3002330E400610811
:100E6000630786006208643D8700403FE500413F1C
:100E7000E6006508E7006608E8000030E81BFF3080
:100E8000E900EA00200049082300EB0020004A089E
:100E90002300EC0020004B082300ED0020004C084C
:100EA0002300EE000130EB35EC0DED0DEE0D890B5E
:100EB000532F6E08803AEF006A08803A6F02031DD4
:100EC0006B2F69086D02031D6B2F68086C02031DF0
:100ED0006B2F67086B02031C732F01302400D100B5
:100EE0000030D2001F2F01302300A8070030A93D99
:100EF0001F2F2300CC01CD01F82B2100AA01A31F35
:100F00008E2FA009A109A209A309A00A0319A10A09
:100F10000319A20A0319A30AAA01AA0AA71F9F2F4D
:100F2000A409A509A609A709A40A0319A50A031972
:100F3000A60A0319A70A0130A8002808AA0600304B
:100F4000AE000030AD000030AC000030AB00230834
:100F50002204210420040319E82FA901A90AA31BD4
:100F6000BD2F0130A035A10DA20DA30D890BB22F0D
:100F70000130A8002808A907AF2F0130AB35AC0D10
:100F8000AD0DAE0D890BBE2F23082702031DD22FF6
:100F900022082602031DD22F21082502031DD22F6D
:100FA00020082402031CDD2F2008A4022108A53BF1
:100FB0002208A63B2308A73B2B140130A336A20C22
:100FC000A10CA00C890BDE2F0130A902031DBD2F3F
:100FD0002A080319F62FAB09AC09AD09AE09AB0A13
:100FE0000319AC0A0319AD0A0319AE0A2E08A300AF
:100FF0002D08A2002C08A1002B08A0000800080062
:101000000134003481302100A0001F30A100A6313E
:1010100089268831210021082000D40021002008E1
:101020002000D30082302100A0001F30A100A63193
:1010300089268831210021082000CE0021002008C7
:101040002000CD005408803A2100A4008030240202
:10105000031D2D28073020005302031C34280630BE
:101060002000D3000030D40020004E08803A210038
:10107000A40080302402031D4028073020004D02C8
:10108000031C472806302000CD000030CE00200091
:101090005908031D4E2827008D14502827008D1055
:1010A0002000590C2700031C0D1103180D152200F8
:1010B0000D118D110D128D128D100D102000540880
:1010C0002100A100200053082100A0000130A2004F
:1010D0000030A3009D318E25883120004E0821006C
:1010E000A10020004D082100A00098317D200800BB
:1010F00021003B08C1003C08C2003D08C3000310AA
:10110000420D430DC4004408C7003E08C1003F081B
:10111000C2004008C3000310420D430DC400440840
:10112000C60047080319A028460847020318A72845
:101130004703FF3A4607C10019304102031CA728A4
:101140003E08BB003F08BC004008BD000800460840
:1011500003190800470846020318B6284603FF3A59
:101160004707C10019304102031808000630C100CA
:101170004108C500BD1BC517C01B4517BC17FF3074
:10118000BB05FF30BC050030BD05BF17FF30BE05F5
:10119000FF30BF050030C005460847020318F2289B
:1011A0000130BE35BF0DC00D890BD1280130C602FC
:1011B000460847060319ED280130C50245080739DE
:1011C0000319ED28D0280130BD36BC0CBB0C890BAF
:1011D000E4280130C1004108C70747084606031943
:1011E0001729E32847084602031817290130BB35A1
:1011F000BC0DBD0D890BF7280130C7024608470614
:10120000031913290130C5024508073903191329A9
:10121000F6280130C036BF0CBE0C890B0A290130FC
:10122000C1004108C60747084606031D0929C51F16
:101230002929FF30BB06FF30BC06FF30BD06013058
:10124000BB07003003180130BC0700300318013021
:10125000BD07451F3B29FF30BE06FF30BF06FF30EC
:10126000C0060130BE07003003180130BF07003050
:1012700003180130C007C5013B08BE073C08BF3D4D
:101280003D08C03DC01F5629FF30BE06FF30BF06D7
:10129000FF30C0060130BE07003003180130BF0721
:1012A000003003180130C007C501C50A3E08A00080
:1012B0003F08A1004008A2004708C1004108A30060
:1012C0004508C2004208A4009E319B262100200848
:1012D000BB002108BC002208BD0008002200D2018A
:1012E000470846044504031D9A2900302100A00048
:1012F0000030A1000030A200220048082100A30015
:10130000220049082100A40022004A082100A5006B
:101310009831B8208931031C922921302400D30050
:101320000030D40000302200C5000030C60000307C
:10133000C70008004A0849044804031DA6290030D4
:10134000C5008030C6003F30C700080045082100B6
:10135000A000220046082100A10022004708210029
:10136000A2000030A3000030A4000030A500983196
:10137000B820893103182C2A220048082100EA00ED
:10138000220049082100EB0022004A082100EC005D
:101390009231F822893121006D082200D600210007
:1013A0006C082200D50021006B082200D400210027
:1013B0006A082200D30056082100AB00220055081D
:1013C0002100AA00220054082100A900220053088D
:1013D0002100A800A7311527893122004A082100E1
:1013E0002A06031DFD292200490821002906031DA4
:1013F000FD29220048082100280603190C2A213063
:101400002400D3000030D40000302200C50000309A
:10141000C6000030C7000800220053080139CB0085
:101420004B08D20045082100B800220046082100E0
:10143000B900220047082100BA00A531662589318C
:10144000210038082200C500210039082200C6000A
:1014500021003A082200C700220045082100E200CE
:10146000220046082100E300220047082100E40092
:10147000943146248931210062082200CC002100E9
:1014800063082200CD00210064082200CE00480835
:101490002100C800220049082100C90022004A0892
:1014A0002100CA0022004C082100CB0022004D0878
:1014B0002100CC0022004E082100CD009531A72547
:1014C0008931210048082200CF002100490822006C
:1014D000D00021004A082200D1004F08B80050086F
:1014E000B9005108BA008A319A228931220038089D
:1014F000C5003908C6003A08C70052080319080099
:1015000045082100B800220046082100B900220049
:1015100047082100BA00A5316625210038082200BD
:10152000C500210039082200C60021003A08220027
:10153000C700080022003A0839043804031DA72A0E
:101540000030B8008030B9003F30BA000800723077
:101550002100A0003130A1004430A2002200380850
:101560002100A300220039082100A40022003A082B
:101570002100A5009831B8208A310318CC2A2230E6
:101580002400D3000030D400FF302200B8007F30A8
:10159000B9007F30BA000800220038082100A000FE
:1015A000220039082100A10022003A082100A200EF
:1015B0004930A3003A30A400C430A5009831B820C7
:1015C0008A310318F02A22302400D3000030D400DE
:1015D00000302200B8000030B9000030BA00080026
:1015E000220038082100A000220039082100A100B3
:1015F00022003A082100A2000030A3000030A4001D
:101600000030A5009831B8208A310318092B013029
:101610000A2B00302200BB003B08C4004408031919
:101620002B2B38082100B800220039082100B9000E
:1016300022003A082100BA00A53166258A3121002E
:1016400038082200B800210039082200B900210022
:101650003A082200BA00AA302100C800B830C900F8
:101660003F30CA00220038082100CB002200390890
:101670002100CC0022003A082100CD009531A72599
:101680008A31210048082200B800210049082200C0
:10169000B90021004A082200BA003808B000390811
:1016A000B1003A08B2009431F6248A3122003008A1
:1016B000BC003108BD003208BE003C082100EA0031
:1016C00022003D082100EB0022003E082100EC0032
:1016D0009231F8228A3121006B082200C3002100D8
:1016E0006A082200C20043082100A9002200420823
:1016F0002100A800A631A9268A3121002808C800A7
:101700002908C9002A08CA00220038082100CB0095
:10171000220039082100CC0022003A082100CD0027
:10172000A6316B268A31210048082200B80021002A
:1017300049082200B90021004A082200BA003808EE
:101740002100D800220039082100D90022003A08DF
:101750002100DA000030DB00A030DC000930DD00C1
:101760000030DE009E313B268A3121005808E2001D
:101770005908E3005A08E400220043082100E6006B
:10178000220042082100E50091314B218A312100DD
:1017900062082200B800210063082200B90021007D
:1017A00064082200BA00440803190800FF30BF0093
:1017B0007F30C0007F30C1003A084106031DE62B90
:1017C00039084006031DE62B38083F06031DEF2BA2
:1017D0000030B8000030B9000030BA000800380806
:1017E0002100A800220039082100A90022003A089F
:1017F0002100AA000030AB008030AC003F30AD00CB
:1018000093319D23210028082200B80021002908D7
:101810002200B90021002A082200BA000800210095
:10182000C401200010181B2C230048080319262C83
:101830000130C802262C1930230048020318262C38
:1018400001302100BC003C082300C8074808031DE4
:10185000E12D2000E11BB32C6108031D382C60082A
:10186000031D382C1B305E0206305F3B031CB32C7B
:10187000230047030319782CC701C70A0030200052
:10188000E1000030E0000030DF000030DE00013019
:101890002300D6000030D70000302400C000003004
:1018A000BF000030BE000030BD002300CC01CD01E0
:1018B0002100C401C40A440820005802031C782CEB
:1018C00021004408BC000130BC35FF3E031D642CE0
:1018D0003C35203E8600023087000030C03F00309B
:1018E000C13FC23FC33F0130BC003C08C4075B2C72
:1018F00023004208031D832CC201C20A2000D70125
:101900002300B601B7012000520823003702031D4F
:101910008D2C2000510823003602031C08002000F3
:101920005708031D08006608031D0800520823001D
:10193000B700200051082300B60022000D1223003A
:1019400040030319AB2C01302100A0000030A1009E
:10195000A6313526080001302100B8000030B9005A
:101960009931E82108002000E11BC22C6108031D09
:1019700008006008031D08001B305E0206305F3B54
:10198000031808005708031D080023004703031924
:101990000800C701C70A2000E11BE22C6108031DF3
:1019A000DA2C6008031DDA2C94305E0204305F3BB1
:1019B000031CE22C0030E1000030E0000430DF00C6
:1019C0009430DE0058082100BC00BD013C08C20074
:1019D0003D08C30023005708803A803C031DF32CC8
:1019E000560820005802031C252D20005E08240004
:1019F000BD0720005F082400BE3D200060082400D1
:101A0000BF3D200061082400C03D2300560821008E
:101A1000BC000130BC35FF3E031D0A2D3C35203E85
:101A200086000230870020005E08C03F5F08C13F8B
:101A30006008C23F6108C33F230057082100C3006C
:101A4000230056082100C200A12D00302400C00050
:101A50000030BF000030BE000030BD002100C401D6
:101A6000C40A200058082100440203187B2D4408B2
:101A7000BC000130BC35FF3E031D3A2D3C35043E11
:101A8000203E860002308700403FBD00413FBE003F
:101A9000423FBF00433FC0004408C1000130C13590
:101AA000FF3E031D4F2D4135203E8600023087004A
:101AB0003D08C03F3E08C13F3F08C23F4008C33F0A
:101AC0004408BC000130BC35FF3E031D632D3C358E
:101AD000203E860002308700403F2400BD07413F82
:101AE000BE3D423FBF3D433FC03D01302100BC00F1
:101AF0003C08C407312D200058082100BC000130EB
:101B0000BC35FF3E031D802D3C35203E8600023053
:101B1000870020005E08C03F5F08C13F6008C23FE9
:101B20006108C33F5E082400BD0720005F08240051
:101B3000BE3D200060082400BF3D20006108240055
:101B4000C03D21004208A0004308A100890D893B47
:101B50008909A200A300240040082100A700240056
:101B60003F082100A60024003E082100A500240013
:101B70003D082100A40087317D2721002308200093
:101B8000C800210022082000C700210021082000F1
:101B9000C600210020082000C50001302300CC0031
:101BA0000030CD0000302000E1000030E0000030C7
:101BB000DF000030DE0001302300D6070030D73DC3
:101BC000080019304802031C0800C701DF0100307B
:101BD0002100A000A100A63135262300B601B701DF
:101BE000C20119302100BC003C082300C8000800D5
:101BF00022340834FC340734D8340734B53407347D
:101C0000933407347234073452340734343407348D
:101C100016340734F9340634DD340634C23406345D
:101C2000A83406348F340634763406345E340634F1
:101C300047340634303406341A3406340534063456
:101C4000F0340534DC340534C8340534B534053497
:101C5000A3340534903405347F3405346D340534B1
:101C60005C3405344C3405343C3405342C340534B0
:101C70001D3405340E340534FF340434F134043497
:101C8000E2340434D5340434C7340434BA3404346C
:101C9000AD340434A134043494340434883404342A
:101CA0007D34043471340434663404345A340434D6
:101CB00050340434453404343A3404343034043475
:101CC000263404341C340434123404340934043407
:101CD000FF340334F6340334ED340334E434033492
:101CE000DC340334D3340334CB340334C23403340C
:101CF000BA340334B2340334AA340334A234033480
:101D00009B340334933403348C34033485340334E8
:101D10007E34033477340334703403346934033449
:101D2000623403345C340334553403344F340334A5
:101D300048340334423403343C34033436340334FB
:101D4000303403342A340334243403341F3403344A
:101D500019340334133403340E3403340934033494
:101D600003340334FE340234F9340234F4340234DC
:101D7000EF340234EA340234E5340234E03402341D
:101D8000DB340234D7340234D2340234CD3402345A
:101D9000C9340234C4340234C0340234BC34023492
:101DA000B7340234B3340234AF340234AB340234C7
:101DB000A6340234A23402349E3402349A340234FB
:101DC00097340234933402348F3402348B34023427
:101DD0008734023484340234803402347C34023454
:101DE0007934023475340234723402346E3402347D
:101DF0006B340234673402346434023461340234A4
:101E00005E3402345A3402345734023454340234C7
:101E1000513402344E3402344B34023448340234E8
:101E200045340234423402343F3402343C34023408
:101E30003934023436340234333402343034023428
:101E40002E3402342B340234283402342534023444
:101E500023340234203402341E3402341B3402345E
:101E60001834023416340234133402341134023478
:101E70000E3402340C3402340A340234073402348F
:101E8000053402340234023400340234FE340134A6
:101E9000FB340134F9340134F7340134F5340134BE
:101EA000F2340134F0340134EE340134EC340134D2
:101EB000EA340134E8340134E6340134E3340134E3
:101EC000E1340134DF340134DD340134DB340134F6
:101ED000D9340134D7340134D5340134D334013406
:101EE000D2340134D0340134CE340134CC34013412
:101EF000CA340134C8340134C6340134C434013422
:101F0000C3340134C1340134BF340134BD3401342D
:101F1000BC340134BA340134B8340134B634013439
:101F2000B5340134B3340134B1340134B034013444
:101F3000AE340134AC340134AB340134A93401344F
:101F4000A8340134A6340134A4340134A334013458
:101F5000A1340134A03401349E3401349D34013461
:101F60009B3401349A340134983401349734013469
:101F70009534013494340134923401349134013471
:101F8000903401348E3401348D3401348B34013477
:101F90008A3401348934013487340134863401347D
:101FA0008534013483340134823401348134013482
:101FB0007F3401347E3401347D3401347B34013488
:101FC0007A3401347934013478340134763401348C
:101FD0007534013474340134733401347134013490
:101FE000703401346F3401346E3401340034003401
:101FF0000034003400340034003400340034003441
:1020020027000C108C100C118C110C122C28720C45
:10201200031C0C1003180C140800720C031C8C1007
:1020220003188C140800720C031C0C1103180C15F5
:102032000800720C031C8C1103188C150800720C1A
:10204200031C0C1203180C1608000C148C140C152B
:102052008C150C1608007108003A0319312848281B
:102062007008013A03190828033A03190E28013AA5
:1020720003191428073A03191A28013A03192028C8
:10208200033A03194828623A031926284828080007
:10209200C0302100A8007F30A9004430AA002200ED
:1020A20057082100AB00220058082100AC00220092
:1020B20059082100AD0093319D2390312100280859
:1020C2002200DD00210029082200DE0021002A086A
:1020D2002200DF005630C8008E30C900BF30CA006F
:1020E2005D08C5005E08C6005F08C70089316E2121
:1020F200903122004508E0004608E1004708E2006E
:10210200D5302100C8006430C9004030CA00220026
:1021120060082100CB00220061082100CC002200CF
:1021220062082100CD009531A72590312100480891
:102132002200DA00210049082200DB0021004A08BF
:102142002200DC005A08B0005B08B1005C08B20053
:102152009D313C25903122003008E3003108E40033
:102162003208E50063082100EA0022006408210029
:10217200EB00220065082100EC009231F8222100D8
:102182006B082200D80021006A082200D70008004C
:102192002000A901A31FDA28A009A109A209A30905
:1021A200A00A0319A10A0319A20A0319A30AA90181
:1021B200A90AA71FEB28A409A509A609A709A40A29
:1021C2000319A50A0319A60A0319A70A0130FC007C
:1021D2007C08A9060030AD000030AC000030AB0036
:1021E2000030AA0023082204210420040319342900
:1021F200A801A80AA31B09290130A035A10DA20D2F
:10220200A30D890BFE280130FC007C08A807FB28DF
:102212000130AA35AB0DAC0DAD0D890B0A2923088F
:102222002702031D1E2922082602031D1E2921083A
:102232002502031D1E2920082402031C2929200827
:10224200A4022108A53B2208A63B2308A73B2A1487
:102252000130A336A20CA10CA00C890B2A29013053
:10226200A802031D0929290803194229AA09AB0951
:10227200AC09AD09AA0A0319AB0A0319AC0A03197E
:10228200AD0A2D08A3002C08A2002B08A1002A08E1
:10229200A00008002100640863046204031D582999
:1022A2000030E2000030E3000030E400080064087F
:1022B2007F39E700E801E735E80D6708E5076808B8
:1022C200E63D630D630D0139E700E8016708E507A4
:1022D2006808E63DE61F7A2922302400D300003048
:1022E200D40000302100E2000030E3000030E400BE
:1022F20008006608803AE70081306702031D8329DF
:1023020000306502031CBB2922302400D3000030B8
:10231200D40021006208A0006308A1006408A200A2
:102322000030A3000030A4000030A5009831B8208E
:1023320091310318B329FF302100E9007F30EA0010
:102342007F30EB006908B8006A08B9006B08BA0070
:10235200A531662521003808E2003908E3003A0871
:10236200E4000800FF302100E2007F30E3007F300C
:10237200E400080021006608E8006508E700680D2F
:10238200E80CE70C6408670680396706E400650814
:102392000139E700E70CE70C630867067F39670637
:1023A200E300080021005E08BB005F08BC00600873
:1023B200BD005B08B8005C08B9005D08BA00A53131
:1023C2006625913121003808BE003908BF003A085D
:1023D200C00088317820913121003B08A8003C08D8
:1023E200A9003D08AA006408BB006508BC00660895
:1023F200BD006108B8006208B9006308BA00A531DF
:102402006625913121003808BE003908BF003A081C
:10241200C00088317820913121003B08C8003C0877
:10242200C9003D08CA005808BB005908BC005A0838
:10243200BD005B08B8005C08B9005D08BA00A531B0
:102442006625913121003808BE003908BF003A08DC
:10245200C00088317820913121003B08CB003C0834
:10246200CC003D08CD009531A725913121004808C7
:10247200AB004908AC004A08AD0093319D2391316D
:1024820021002808E7002908E8002A08E900610875
:10249200BB006208BC006308BD006708BE00680894
:1024A200BF006908C0008831782021003B08D800AD
:1024B2003C08D9003D08DA00080000302100BB00CA
:1024C2008030BC003F30BD00220057082100AB0025
:1024D200220058082100AC00220059082100AD005A
:1024E200C030A8007F30A9004430AA0093319D2358
:1024F200923121002808B8002908B9002A08BA0038
:10250200A5316625923121003808BE003908BF0086
:102512003A08C00088317820923121003B0822001D
:10252200DD0021003C082200DE0021003D082200DF
:10253200DF006A30C8009C30C900BF30CA005D08A5
:10254200C5005E08C6005F08C70089316E2192315E
:1025520022004508E0004608E1004708E200E330B7
:102562002100C8000B30C9004130CA0022006008B7
:102572002100CB00220061082100CC002200620869
:102582002100CD009531A725923121004808220073
:10259200DA00210049082200DB0021004A0822005B
:1025A200DC005A08B0005B08B1005C08B2009D3143
:1025B2003C25923122003008E3003108E400320861
:1025C200E50063082100EA00220064082100EB0014
:1025D200220065082100EC009231F82221006B08EC
:1025E2002200D80021006A082200D700080021003A
:1025F2006A082200A00021006B082200A10021002D
:102602006C082200A2000310210D220DA300230852
:10261200A9002908031D172B00302100ED0000300E
:10262200EC000030EB000030EA00080021006A08EC
:102632002200A00021006B082200A10021006C08EA
:102642002200A2001730A236A10CA00C890B242B69
:102652002008A3002308A4002100EB17FF30EA059D
:10266200FF30EB050030EC056A082200A5002100CE
:102672006B082200A60021006C082200A700A80116
:102682008E30A902A91F632B2908803A8F3E0318B6
:10269200542B00302100ED000030EC000030EB0044
:1026A2000030EA00080001302200A836A70CA60C70
:1026B200A50C890B552B0130A0002008A90703198E
:1026C2007F2B542B18302902031C7B2B0030210056
:1026D200ED000030EC000030EB000030EA000800B2
:1026E20001302200A535A60DA70DA80D890B722B6E
:1026F2000130A90222002908031D712B24080319A5
:102702008D2BA509A609A709A809A50A0319A60AD6
:102712000319A70A0319A80A28082100ED002200BC
:1027220027082100EC00220026082100EB002200ED
:1027320025082100EA00080021002B08AE002C0821
:10274200AF002D08B00003102F0D300DB10031087D
:10275200B6003608031DB42B0030A8000030A900D3
:102762000030AA0008002808AE002908AF002A0895
:10277200B00003102F0D300DB1003108B70037083B
:10278200031DCA2B0030A8000030A9000030AA00A7
:1027920008000030B3000030B4000030B5008930CA
:1027A2003707AE002E08B6022B08AE002C08AF0089
:1027B2002D08B0001030B036AF0CAE0C890BDC2BFC
:1027C2002E08B1003108B7002808AE002908AF0072
:1027D2002A08B0001030B036AF0CAE0C890BEC2BCF
:1027E2002E08B1003108B7068030AE002E08B705BA
:1027F200AC17FF30AB05FF30AC050030AD05A917B3
:10280200FF30A805FF30A9050030AA051830AE0038
:102812002E08B2000130B335B40DB50D890B0C2C66
:102822002A082D02031D1B2C29082C02031D1B2C18
:1028320028082B02031C242C2808AB022908AC3BD5
:102842002A08AD3B33140130AB35AC0DAD0D890B0D
:10285200252C0130B202031D0B2C3308A0003408D2
:10286200A1003508A2003608AE002E08A3003708E2
:10287200AF002F08A4009E319B2621002008A8004B
:102882002108A9002208AA00080021006208A0006D
:102892006308A1006408A2000030A3000030A40075
:1028A2000030A5009831B82094310318652C2130EE
:1028B2002400D3000030D40000302100E2000030B8
:1028C200E3000030E40008002100640863046204AD
:1028D200031D782C22302400D3000030D4000030B5
:1028E2002100E2000030E3000030E4000800003084
:1028F200BB008030BC00BF30BD000030C8000030DB
:10290200C9004030CA00E530A3000030A4006208CC
:10291200A0006308A1006408A2009A312622943123
:1029220021002008CB002108CC002208CD009531DF
:10293200A725943121004808BE004908BF004A0873
:10294200C00088317820943121003B08E2003C0825
:10295200E3003D08E400FF30E507FF30E63D620892
:10296200D8006308D9006408DA001E30DB00A0300A
:10297200DC000830DD000030DE009E313B26943161
:1029820021005808E2005908E3005A08E4006208EE
:10299200BB006308BC006408BD007230C80031305F
:1029A200C9003F30CA006608A9006508A800A63120
:1029B200A926943121002808CB002908CC002A0836
:1029C200CD009531A725943121004808BE00490861
:1029D200BF004A08C0008831782021003B08E2008D
:1029E2003C08E3003D08E400080022003008210012
:1029F200A000220031082100A1002200320821009B
:102A0200A2003630A3000130A4009A31262294316C
:102A12002200B71F322D30082100A0002200310809
:102A22002100A100220032082100A2000030A300F0
:102A32000030A4000030A5009831B820943103186A
:102A42002A2D00302200B0008030B100BF30B20029
:102A5200080000302200B0000030B1000030B200A7
:102A62000800003037021530031936020318080037
:102A720030082100EA00220031082100EB00220088
:102A820032082100EC009231F822943121006D08C5
:102A92002200AD0021006C082200AC0021006B086E
:102AA2002200AB0021006A082200AA009B31FC230D
:102AB200943122002A08B3002B08B4002C08B50078
:102AC20030082100A000220031082100A1002200CC
:102AD20032082100A200220033082100A3002200B4
:102AE20034082100A400220035082100A5009831F5
:102AF200B820943103189F2D00302100BB00803094
:102B0200BC00BF30BD00220033082100BE002200FD
:102B120034082100BF00220035082100C00088319E
:102B2200782021003B082200B00021003C0822004E
:102B3200B10021003D082200B20008002200330843
:102B4200B0003408B1003508B2000800210048087E
:102B5200CE004908CF004A08D00003104F0D500D97
:102B6200D1005108D2005208031DBE2D0030C8000A
:102B72000030C9000030CA0008004B08CE004C08E3
:102B8200CF004D08D00003104F0D500DD100510859
:102B9200D7005708031DD42D0030C8000030C900EB
:102BA2000030CA00080057087B3ECE004E08D2070C
:102BB2004808CE004908CF004A08D0001030D0366D
:102BC200CF0CCE0C890BE02D4E08D1005108D70056
:102BD2004B08CE004C08CF004D08D0001030D03644
:102BE200CF0CCE0C890BF02D4E08D1005108D70620
:102BF2008030CE004E08D705C917CC17FF30CB0561
:102C0200FF30CC050030CD050030D3000030D400B9
:102C12000030D5000730CE004E08D600481C172ED3
:102C22004B08D3074C08D43D4D08D53D0130CA3678
:102C3200C90CC80C890B182E0130CB35CC0DCD0D2B
:102C4200890B1E2E0130D602031D0F2E0930CE0035
:102C52004E08D600481C332E4B08D3074C08D43DEF
:102C62004D08D53D0130CA36C90CC80C890B342E2B
:102C72000130D536D40CD30C890B3A2E0130D60252
:102C8200031D2B2E5308A0005408A1005508A200D2
:102C92005208CE004E08A3005708CF004F08A400E8
:102CA2009E319B2621002008C8002108C900220865
:102CB200CA0008002400C501C60122003908C30069
:102CC2003808C2000030BF008030C0003F30C10071
:102CD200852E0030BF000030C0004030832EA63069
:102CE200BF002A30772E0030BF000030C0003F30D6
:102CF200832EA630BF00AA30812E0030BF00803064
:102D0200C0003E30C1009E2E3B08003A03198A2EB5
:102D12009E2E3A08013A03196A2E033A0319702EBD
:102D2200013A0319742E073A03197A2E013A03194C
:102D32007E2E033A03199E2E9E2E43082100A900DF
:102D4200220042082100A800A631A92696312100BE
:102D52002808CB002908CC002A08CD0022003F0811
:102D62002100C800220040082100C90022004108B9
:102D72002100CA009531A725963121004808EA00B2
:102D82004908EB004A08EC009231F8229631210002
:102D92006B082200C30021006A082200C200430817
:102DA2002100A900220042082100A800A631A9267C
:102DB2009631210028082200B000210029082200B3
:102DC200B10021002A082200B2009D313C25963133
:102DD20022003008BC003108BD003208BE004308A2
:102DE2002100A900220042082100A800A631A9263C
:102DF200963121002A0822003E06031D0A2F2100D7
:102E0200290822003D06031D0A2F2100280822005E
:102E12003C060319112F01302400C5000030C60002
:102E220022004308B9004208B800080020009018A8
:102E32002D2F23003D08803A2100BC0080303C0247
:102E4200031D262F013023003C02031C402FFF30BC
:102E52002300BC07FF303F2F23003D08803A2100AA
:102E6200BC0080303C02031D392F193023003C0284
:102E72000318402F01302300BC070030BD3D230062
:102E82003C083D04031DA02F4008031D4C2FC00128
:102E9200C00AAA01AB012000520823002B02031D25
:102EA200562F2000510823002A02031C762F2000EF
:102EB2005608031D762F6608031D762F22000D117A
:102EC2002300420303196E2F01302100A0000030BD
:102ED200A100A6311B269731762F01302100B800C0
:102EE2000030B9009931E821973120006608031DAE
:102EF2009C2F5608031D9C2F5903031D8E2F24005F
:102F020065036604031D9C2F2300D901D90A0130F1
:102F12002400D7000030D8009C2F23003F03031960
:102F22009C2FD901BF01BF0A2400D701D80120007C
:102F3200D6012300C0012400E501E60108002300B8
:102F42003D08803A2100BC0080303C02031DAC2FBA
:102F5200193023003C02031C080020006603031DF5
:102F6200BB2F230059082100BC00BD013C08B20060
:102F72003D08D82F23003F030319C32F2000560317
:102F8200031DC92F01302100B2000030B300D92F38
:102F9200240057035804031DDC2F20005608031D8C
:102FA200DC2F6608031DDC2F00302100B200B300C5
:102FB2009B31B22397312000590C2200031C0D11C2
:102FC20003180D1500302100A000A100A6311B2618
:102FD200973100302100B800B9009931E82123006F
:102FE200C001BF012400D701D8010130E500003043
:0E2FF200E60019302300BC000030BD000800CE
:1030020021009E171E088F3960389E00FC309E05F5
:103012001D14080020000E183F2801302400CF079D
:103022000030D03D5008803A2100A70080302702AE
:10303200031D1E281A3024004F02031C08001930F9
:103042002400CF000030D00020006803031D2E288A
:10305200E801A63101269831382801302100A70065
:1030620027082000E707033067020318E701A631AB
:10307200CB26983120000E1808003B282400CF01EF
:10308200D00108002100A6000630260203185F289E
:103092002608A400A5012408A0002508A1000130EB
:1030A200A2000030A3009D318E2598310630210008
:1030B200A0000030A10098317D20080006302100D8
:1030C200A0000030A1000130A2000030A3009D3119
:1030D2008E25983121002608A400A501A409A5097E
:1030E200A40A0319A50A24080B3EA0000030253DBE
:1030F200A10098317D20080022000F108F100F11BF
:103102008F110F129A2822000F14080022008F1428
:10311200080022000F15080022008F150800220067
:103122000F16080022000F148F140F158F150F169B
:10313200080021002108003A0319A028B728200816
:10314200013A03198428033A03198728013A03191B
:103152008A28073A03198D28013A03199028033A5D
:103162000319B728623A03199328B72808002100E7
:10317200A21FCF282009A6002109A7002209A80022
:10318200A60A0319A70A0319A80A00302607A000F5
:103192000030273DA1008030283DA200A51FE52870
:1031A2002309A6002409A7002509A800A60A0319D5
:1031B200A70A0319A80A00302607A3000030273DFA
:1031C200A4008030283DA5008030A2068030A506EC
:1031D20025082202031D080024082102031D0800FD
:1031E2002308200208000034033407340A340D3463
:1031F2001134143417341B341E342134253428344A
:103202002B342F343234353439343C343F34433464
:10321200463449344D345034533457345A345D347F
:10322200613464349F34A334A634A934AD34B03449
:10323200B334B734BA34BD34C134C434C734CB34F4
:10324200CE34D134D534D834DB34DF34E234E5340F
:10325200E934EC34EF34F334F634F934FD34003429
:103262000034FD34F934F634F334EF34EC34E93419
:10327200E534E234DF34DB34D834D534D134CE34DF
:10328200CB34C734C434C134BD34BA34B734B334A4
:10329200B034AD34A934A634A3349F349C346134A1
:1032A2005D345A345734533450344D3449344634EF
:1032B20043343F343C343934353432342F342B34B4
:1032C2002834253421341E341B3417341434113479
:1032D2000D340A34073403340034003407340D3417
:1032E20014341B34213428342F3435343C344334E1
:1032F2004934503457345D3464345D345734503477
:10330200493443343C3435342F34283421341B348B
:1033120014340D3407340034F934F334EC34E53426
:10332200DF34D834D134CB34C434BD34B734B034C0
:10333200A934A3349C34A334A934B034B734BD3493
:10334200C434CB34D134D834DF34E534EC34F33400
:10335200F934003400340A3414341E34283432343C
:103362003A3442344A34503456345B345F34613434
:1033720063346434633461345F345B3456345034C0
:103382004A3442343A34323428341E3414340A343F
:103392000034F634EC34E234D834CE34C634BE349D
:1033A200B634B034AA34A534A1349F349D349C344D
:1033B2009D349F34A134A534AA34B034B634BE341B
:1033C200C634CE34D834E234EC34F634003420003F
:1033D20066082100BA00BB0139083B06031DF32928
:1033E20038083A06031908003808BA003A082000DB
:1033F200E600210038033904031D022A22000D12BF
:103402008D1220006603031D1E2A6808031D132A5D
:10341200E801E80A22008D1023005D08983143205C
:1034220099311E2A2000E801A631CB269931A63116
:1034320001269931A531A925993114302100AC001A
:103442000030AD00A731CE27080021002208210458
:103452002004031D3A2A230886002408870000302E
:10346200C03FC13F0030A0000030A1000030A200E8
:10347200080022087F39A500A601A535A60D23085C
:103482008600240887002508C03F2608C13F210D79
:10349200210D0139A500A601230886002408870012
:1034A2002508810441312608810423088600240866
:1034B2008700823081074131FF30813D7F31220810
:1034C20080393F38A200A11308001E302100B2004B
:1034D2003208B4006430A0000030A1000130A20024
:1034E2000030A3009D318E259A3164302100A00066
:1034F2000030A10098317D209A3121003408B200B9
:10350200B3013208AC003308AD00A731CE279A319F
:1035120000302100A000A1000130A2000030A30071
:103522009D318E259A3100302100A000A1009831F2
:103532007D209A3121003408B200B3013208AC0078
:103542003308AD00A731CE27080000302000A300C9
:103552000030A2000330A100E830A0000C30B60019
:10356200F230B7000130B8000030B9003508F3007E
:103572003408F2003308F1003208F0003108F70095
:103582003008F6002F08F5002E08F400A7313F2777
:103592009A3170082000B6077108B73D7208B83D2D
:1035A2007308B93D3908A7003808A6003708A500F6
:1035B2003608A4009031C92020002308B100220857
:1035C200B0002108AF002008AE00080022001D1044
:1035D20021000E118E1026000D108D110D122100EA
:1035E200101390121012901110110F302500930435
:1035F2000F309A040F30260093040F309A040F30D4
:103602009E040F302C0093040F3096040F3099045F
:103612000F309C040F309F0425009D019E019F01E5
:1036220000309200323091000030990064309800EE
:103632000030260092009630910000309900C83088
:103642009800A5315D259A31A53156250800FF3035
:103652002000E9002100A2002208FD003A2B673079
:10366200372B3330372B1F30372B193023009B0079
:103672005D2B21002108253A0319492B6E3A0319C3
:103682004E2B313A0319532BEC3A0319582B5D2B6D
:103692002008803A0319302B5D2B2008003A0319C9
:1036A200322B5D2B2008123A0319342B5D2B200894
:1036B200003A0319362B5D2B23001E139E161E1291
:1036C2001E159D171D131D169D11210091160B1716
:1036D2008B17080020000F1B752B23003E080319CF
:1036E200802B0130BE02802B193023003E020318CA
:1036F200802B01302100B20032082300BE073E08B1
:10370200031D080020004D08013ECD0000304E3D53
:10371200CE004E08803A2100B20080303202031DF2
:10372200952B073020004D02031C9C2B01302000FA
:10373200CD000030CE0020004E082100A100200064
:103742004D082100A00098317D209B3120000F1FE1
:10375200A72B14302100AC000030AD00A731CE27DA
:103762000800200059082100B400B50133083506CD
:10377200031DBD2B32083406031908003208B400B9
:1037820034082000D9002100320C2200031C0D1144
:1037920003180D158D112100320C2700031C0D1189
:1037A20003180D15210032083304031DDB2B2700FB
:1037B2008D14DD2B27008D1014302100AC00003059
:1037C200AD00A731CE279B3127000D118D102000AF
:1037D20059082100B400B5013408A0003508A10041
:1037E2008731FF279B3114302100AC000030AD003F
:1037F200A731CE2708002200AF018E302100EE0053
:103802006E082200AE00AD1F132CAA09AB09AC0949
:10381200AD09AA0A0319AB0A0319AC0A0319AD0AC6
:10382200AF01AF0AFF302D050319252C0130AD364B
:10383200AC0CAB0CAA0C890B182C01302100EE0049
:103842006E082200AE07132C2A082100A0002200D5
:103852002B082100A10022002C082100A200220036
:103862002E082100EE006E08A30022002F0821007E
:10387200EF006F08A4009E319B2621002008220041
:10388200AA00210021082200AB0021002208220008
:10389200AC00080020008F1A552C23004908031998
:1038A200602C0130C902602C193023004902031830
:1038B200602C01302100B20032082300C9074908F8
:1038C200031D080020005308013ED3000030543D80
:1038D200D4005408803A2100B20080303202031D25
:1038E200752C073020005302031C7C2C0130200071
:1038F200D3000030D400200054082100A100200091
:1039020053082100A0000130A2000030A3009D3125
:103912008E259C3101302300CC000030CD002000E8
:103922008F1E902C14302100AC000030AD00A73166
:10393200CE27080001302100B3000030B400340863
:10394200803AB20080303202031DA92C07303302C4
:103952000318CF2C21003408A1003308A000013045
:10396200A2000030A3009D318E259C31053021003C
:10397200AC000030AD00A731CE279C3101302100D0
:10398200B3070030B43D3408803AB20080303202CE
:10399200031DCD2C07303302031CAB2C0530210054
:1039A200B5000030B600B61B08003608A100350885
:1039B200A00098317D209C3105302100AC00003000
:1039C200AD00A731CE279C31FF302100B507FF3073
:1039D200B63DD42CF601F11FF52CF009F109F00ADD
:1039E2000319F10AF601F60AF31F002DF209F30991
:1039F200F20A0319F30A0130F4007408F606F7011B
:103A0200F8017008710403192F2DF501F50AF11B55
:103A1200142D0130F035F10D890B0B2D0130F4001E
:103A22007408F507082D0130F735F80D890B152DAF
:103A320071087302031D1F2D70087202031C262DCC
:103A42007008F2027108F33B77140130F136F00C82
:103A5200890B272D0130F502031D142D7608031959
:103A6200372DF709F809F70A0319F80A7808F1005F
:103A72007708F0000800220030082100A000220090
:103A820031082100A100220032082100A2003630B4
:103A9200A3000130A4009A3126229D312200B71FD3
:103AA200592D0030B0000030B1000030B2000800E3
:103AB20000303702153003193602031808003008A7
:103AC2002100EA00220031082100EB002200320826
:103AD2002100EC009231F8229D3121006D08220074
:103AE200AD0021006C082200AC0021006B0822000E
:103AF200AB0021006A082200AA009B31FC232200AD
:103B02002A08B3002B08B4002C08B5003308B00013
:103B12003408B1003508B200080027000C108C10E0
:103B22000C118C110C12C42D2100220C2700031C35
:103B32000C1003180C1408002100220C2700031C8F
:103B42008C1003188C1408002100220C2700031C7F
:103B52000C1103180C1508002100220C2700031C6D
:103B62008C1103188C1508002100220C2700031C5D
:103B72000C1203180C16080027000C148C140C15D8
:103B82008C150C16080021002108003A0319CA2DD1
:103B9200E12D2008013A0319952D033A03199D2DB1
:103BA200013A0319A52D073A0319AD2D013A03195C
:103BB200B52D033A0319E12D623A0319BD2DE12D0A
:103BC200080020006708031DE92D6803031D080093
:103BD2008F1B372E01302400CD070030CE3D4E081A
:103BE200803A2100A70080302702031DFB2D1A30E6
:103BF20024004D02031C080019302400CD000030BF
:103C0200CE002000670823005E0603190C2E200058
:103C12006803031D1D2E01302100A7002708230081
:103C2200DD070B305D02031C182EDD01DD0A5D0885
:103C3200983143209D31332E2000670823005B0614
:103C4200031D332E01302100A70027082300DC07C3
:103C520006305C02031C2F2EDC01DC0A5C08A53155
:103C6200E9259D3120008F1B0800332E2400CD0151
:103C7200CE01080021005E08A1005D08A00003300B
:103C8200A2000030A300A6314F269E3121005B081E
:103C9200200784005C08213D8500003FDF00013FD2
:103CA200E000023FE1005D085E040319942EFF303C
:103CB200DD07FF30DE3D5E08A1005D08A000033095
:103CC200A2000030A300A6314F269E3121005B08DE
:103CD200200784005C08213D8500003FBB00013FB6
:103CE200BC00023FBD005F08C8006008C90061084F
:103CF200CA005808CB005908CC005A08CD009531AB
:103D0200A7259E3121004808BE004908BF004A0885
:103D1200C000883178209E3121003B08DF003C083A
:103D2200E0003D08532E5F08D8006008D900610802
:103D3200DA000800210023080319A42E2208210416
:103D42002004031DB52E0030A0000030A100003079
:103D5200A20008000130A5002508A3070130A23601
:103D6200A10CA00C890BB02EFE3022050319CE2E19
:103D7200AB2E0130A5002508A3070130A0070030B3
:103D820003180130A107003003180130A2070130E7
:103D9200A236A10CA00C890BC92EFF3022050319F3
:103DA200DB2EBA2E0130A3020130A035A10DA20DE7
:103DB200890BD62EA11BE12E023023020318D32E2B
:103DC2002318E92EFF30A0057F30A105FF30A205A0
:103DD2000310A30C2308A500A601A7011030A535E6
:103DE200A60DA70D890BF02E2508A0042608A10414
:103DF2002708A204240803190800A2170800C030EB
:103E02002100A8007F30A9004430AA0022005708F0
:103E12002100AB00220058082100AC002200590802
:103E22002100AD0093319D239F31210028082200FB
:103E3200DD00210029082200DE0021002A082200DC
:103E4200DF005630C8008E30C900BF30CA005D089E
:103E5200C5005E08C6005F08C70089316E219F3128
:103E620022004508E0004608E1004708E2009F30D2
:103E72002100C8006830C9004030CA002200600832
:103E82002100CB00220061082100CC002200620840
:103E92002100CD009531A7259F312100480822003D
:103EA200DA00210049082200DB0021004A08220032
:103EB200DC005A08B0005B08B1005C08B2009D311A
:103EC2003C259F3122003008E3003108E40032082B
:103ED200E50063082100EA00220064082100EB00EB
:103EE200220065082100EC009231F82221006B08C3
:103EF2002200D80021006A082200D7000800C03042
:103F02002100A8007F30A9004430AA0022005708EF
:103F12002100AB00220058082100AC002200590801
:103F22002100AD0093319D239F31210028082200FA
:103F3200DD00210029082200DE0021002A082200DB
:103F4200DF006A30C8009C30C900BF30CA005D087B
:103F5200C5005E08C6005F08C70089316E219F3127
:103F620022004508E0004608E1004708E200E3308D
:103F72002100C8000B30C9004130CA00220060088D
:103F82002100CB00220061082100CC00220062083F
:103F92002100CD009531A7259F312100480822003C
:103FA200DA00210049082200DB0021004A08220031
:103FB200DC005A08B0005B08B1005C08B2009D3119
:103FC2003C259F3122003008E3003108E40032082A
:103FD200E50063082100EA00220064082100EB00EA
:103FE200220065082100EC009231F82221006B08C2
:103FF2002200D80021006A082200D70008000034FD
:1040020080343F34723431343F34FE3475343E34BC
:10401200583463343D3495341D343C34C534AE34A5
:104022003A34793421343934943480343734933403
:10403200A734353456341534343400340034003463
:10404200003480343F34F034FF34BE34E234A934D7
:104052003E3483347634BE34AE342B343E343C3476
:10406200C334BD34D23413343D347834D334BB3406
:104A9C00FC302100990508002100A001A1010800AB
:104AAC0021009512951115109514151108008730D9
:104ABC0020009C05FC309C05FF309B001C15080059
:104ACC0021003A0839043804031908008030BA066A
:104ADC000800FE0012001E000130FE020030FF3BF9
:104AEC007F087E0403190034702D640080010131AD
:104AFC000130FE020030FF3B7F087E0403190034B6
:104B0C007C2DA5315225A53121002108B7002008A4
:104B1C00B6003708B3003608B2009B31B223080048
:104B2C002100A3002308A200A20DA20D1D0822063D
:104B3C00833922069D009D149D18A22D1C08A100EE
:104B4C001B08A000080001302100B7003708230023
:104B5C00C6009C319B24A5319C319B24A5319A31F4
:104B6C006622A5319A3166222300C6010800D03492
:104B7C00073400340034D0340734003400340634A5
:104B8C000034D0340734E83403340634003414349D
:104B9C00FF34FF340434FF34643400340134003403
:104BAC00D0340734D0340734D0340734D0340734FD
:104BBC00013400340134FF34FF3402340134013445
:104BCC000134FF34B4342100A6002608A400A5014A
:104BDC002408A0002508A1000130A2000030A30089
:104BEC009D318E25A53106302100A0000030A1009A
:104BFC0098317D200800200054082100A1002000DD
:104C0C0053082100A0000130A2000030A3009D3108
:104C1C008E25A63120004E082100A10020004D0851
:104C2C002100A00098317D200800200056082100AA
:104C3C00A200A30121082306031D262E200822060C
:104C4C00031908002008A20022082000D600210029
:104C5C00200C2200031C8D1103188D150800200058
:104C6C0057082100A200A30121082306031D402E92
:104C7C0020082206031908002008A20022082000A0
:104C8C00D7002100200C2200031C8D1203188D1656
:104C9C0008002100A401A501201C582E2208A407FD
:104CAC002308A53D0130A235A30D890B592E0130E7
:104CBC00A136A00C890B5E2E20082104031D522E58
:104CCC002508A1002408A000080021004A08490476
:104CDC0048040319732E8030CA064B08BB004C08DD
:104CEC00BC004D08BD004808BE004908BF004A087A
:104CFC00C0008831782021003B08C8003C08C9005E
:104D0C003D08CA00080000308B1B01302100A200B6
:104D1C008B1320082300910021002108230092000E
:104D2C0015131514000000002100220C031C8B131A
:104D3C0003188B17230014082100A100230013086B
:104D4C002100A00008002100AD01A91FB42EA80964
:104D5C00A909A80A0319A90AAD01AD0A2808A000DF
:104D6C002908A100A2018E30AB002B08A3002D084E
:104D7C00AC002C08A4009E319B2621002008A80022
:104D8C002108A9002208AA000800E22E22008D109A
:104D9C000D10A6310126080022008D100D142300E1
:104DAC005D0898314320080022008D140D1023005B
:104DBC005C08A531E925080020006708003A0319B2
:104DCC00CC2E013A0319D22E033A0319DA2EEE2E09
:104DDC0008002100A101A2012208803AA000803025
:104DEC002002031DFB2E0C302102031808002100A9
:104DFC002108A0000130A035FF3E031D012F2035F6
:104E0C00A03E8600023087000030C03F0030C13F1A
:104E1C00C23FC33F0130A1070030A23DF22E8E30BD
:104E2C002100AC002C08AD00FF302B0503192A2FF4
:104E3C000130AB36AA0CA90CA80C890B1F2F013022
:104E4C00AC002C08AD071A2F2808A0002908A100D7
:104E5C002A08A2002D08AC002C08A300A4019E3146
:104E6C009B2621002008A8002108A9002208AA00DE
:104E7C0008000030FB000030FA000030F900003070
:104E8C00F800701C512F7408F8077508F93D760866
:104E9C00FA3D7708FB3D0130F435F50DF60DF70DB5
:104EAC00890B522F0130F336F20CF10CF00C890BFC
:104EBC00592F7308720471047004031D472F7B086B
:104ECC00F3007A08F2007908F1007808F000080085
:104EDC0021000D108D100D118D110D128D120E144F
:104EEC000E128E120F108F100F118F110F128F16B2
:104EFC000F178F171014901423001010901020000F
:104F0C001010901026000C108C100C118C110C121F
:104F1C008C120C1728000C1326008D100D119831D3
:104F2C000120A7319A31E7228B178B160B11080041
:104F3C0000302100AB000030AA000030A900003086
:104F4C00A800201CB12F2408A8072508A93D260875
:104F5C00AA3D2708AB3D0130A435A50DA60DA70D24
:104F6C00890BB22F0130A336A20CA10CA00C890B1B
:104F7C00B92F2308220421042004031DA72F2B087A
:104F8C00A3002A08A2002908A1002808A0000800F4
:104F9C0000302100B1000030B0000030AF00003014
:104FAC00AE002C08A0002D08A100A201A301003026
:104FBC00A7000030A6000330A500E830A400A731FC
:104FCC009E27A73121002308B1002208B000210838
:104FDC00AF002008AE00310830042F042E04031952
:104FEC000800FF30AE07FF30AF3DFF30B03DFF3063
:044FFC00B13DF12FA3
:020000040001F9
:04000E00E2FFFFDF2F
:00000001FF
