:040000008431552CC6
:1000060008007E14803120007F082200C3000B1DEB
:100016001E29250021082200D700250020082200DD
:10002600D6000130BB000030BC000030BD000030FF
:10003600BE006008BB076108BC3D6208BD3D6308A1
:10004600BE3D3E08E3003D08E2003C08E1003B08F7
:10005600E0000130BB000030BC000030BD000030C5
:10006600BE005808BB075908BC3D5A08BD3D5B0891
:10007600BE3D3E08DB003D08DA003C08D9003B08DF
:10008600D8000130BB000030BC000030BD0000309D
:10009600BE005C08BB075D08BC3D5E08BD3D5F0851
:1000A600BE3D3E08DF003D08DE003C08DD003B08A3
:1000B600DC000130BB000030BC000030BD00003069
:1000C600BE00260041082200BB0726004208220087
:1000D600BC3D260043082200BD3D26004408220000
:1000E600BE3D3E082600C40022003D082600C3008F
:1000F60022003C082600C20022003B082600C10060
:100106000130B9070030BA3D0030BB3D0030BC3D80
:100116000130C9070030CA3D0030CB3D0030CC3D30
:1001260025005703031DA7280130C3070030C43D2F
:1001360044083102031DA128430830020318A728EA
:100146003108C4003008C3005903031DBA28013022
:10015600CF070030D03D50083102031DB4284F08A8
:1001660030020318BA283108D0003008CF000B112E
:1001760026004D034E04031D1E2922005B08803A0B
:10018600BB0025002308803A22003B02031DDB2822
:100196002500220822005A02031DDB28250021081B
:1001A60022005902031DDB282500200822005802E0
:1001B600031C1E296708BB006808BC006908BD004F
:1001C6006A08BE006009BF006109C0006209C1007B
:1001D6006309C200BF0A0319C00A0319C10A031939
:1001E600C20A3F08BB074008BC3D4108BD3D420866
:1001F600BE3DBE1B0B293E08031D1E293D08031DDF
:100206001E293C08031D1E2904303B0203181E2923
:100216006009BB006109BC00BB0A0319BC0A670878
:100226003B07BD0068083C3DBE0058083D07D600A8
:1002360059083E3DD70022006E08031D7E2964083A
:10024600031D7E296608031D7E296308803ABB00CC
:100256006A08803A3B02031D3A2969086202031DB7
:100266003A2968086102031D3A2967086002031CDF
:100276006D290D160030E3000030E2000030E10089
:100286000030E00026005F036004031D6D29250091
:100296004208920041089100D101D2012600670868
:1002A600C1006808C200890D893B8909C300C400E2
:1002B600DF01E001250023082200DB0025002208DB
:1002C6002200DA00250021082200D9002500200896
:1002D6002200D8002200E31B7E296308031D7D2926
:1002E6006208031D7D296108031D7D291E306002F9
:1002F600031C7E290D126603031DAD292600BC1BB7
:100306009C293C08031D91293B08031D91293A08A5
:10031600031D9129FA303902031C9C2922000D1471
:1003260000302600BC000030BB000030BA000030B0
:10033600B900BC1BAD293C08031DAB293B08031DB6
:10034600AB293A08031DAB291E303902031CAD291F
:1003560022000D1022006608031D0F2A6508031DE2
:100366000F2A5608BB005708BC000030BC1BFF30E4
:10037600BD00BE005B08803ABF003E08803A3F02DF
:10038600031DCF293D085A02031DCF293C085902F7
:10039600031DCF293B085802031CF12925005D08DF
:1003A600031DE12922006C08F1006B08F000013002
:1003B600F2000030F300AB316823803125002108BC
:1003C6002200D700250020082200D6000030DB00DE
:1003D6000030DA000030D9000030D800DB1B0F2ACD
:1003E6005B08031D002A5A08031D002A5908031D2D
:1003F600002A14305802031C0F2A25005D08031D2D
:100406000F2A22006C08F1006B08F0000030F200A1
:10041600F300AB3168238031260067082200BB0059
:10042600260068082200BC000030BC1BFF30BD005F
:10043600BE0026004408803A2200BF003E08803AEB
:100446003F022600031D372A22003D0826004302EC
:10045600031D372A22003C0826004202031D372AC4
:1004660022003B0826004102031C172C0030C40062
:100476000030C3000030C2000030C1002500520821
:10048600803A2200BB0080303B02031D4D2A3C30DF
:1004960025005102031C522A2500D101D201200059
:1004A6000E12BE2B25005208FA005108F90006303C
:1004B600FB000030FC00B431C02480317A082100F2
:1004C600DA007908D900B5315C2580312100590858
:1004D6002200C40021005A082200C50021005B0842
:1004E6002200C60044082100DF0022004508210042
:1004F600E000220046082100E10025003308210023
:10050600DA00250032082100D900B5315C2580319A
:1005160021005908E2005A08E3005B08E400923122
:10052600B9228031210060082600DE0021005F0824
:10053600B72B25005208FA005108F9000630FB00D7
:100546000030FC00B431C02480317A082100DA0082
:100556007908D900B5315C2580312100590822007F
:10056600C70021005A082200C80021005B082200AB
:10057600C90047082100DF00220048082100E000EA
:10058600220049082100E100250033082100DA0095
:10059600250032082100D900B5315C2580312100C3
:1005A6005908E2005A08E3005B08E4009431672426
:1005B6008031210060082600DE0021005F08B72B8D
:1005C60025005208FA005108F9000630FB000030F9
:1005D600FC00B431C02480317A082100DA007908A1
:1005E600D900B5315C258031210059082200CA00A6
:1005F60021005A082200CB0021005B082200CC0013
:10060600250033082100DA00250032082100D90030
:10061600B5315C258031210059082200CD0021002A
:100626005A082200CE0021005B082200CF004A08AB
:10063600B5004B08B6004C08B7004D08B8004E0888
:10064600B9004F08BA00A831D6208031D52B250035
:100656005208FA005108F9000630FB000030FC0091
:10066600B431C02480317A082100DA007908D90033
:10067600B5315C258031210059082200D0002100C7
:100686005A082200D10021005B082200D20050083F
:100696002100DF00220051082100E000220052085C
:1006A6002100E100250033082100DA002500320888
:1006B6002100D900B5315C25803121005908E200BE
:1006C6005A08E3005B08E400883188208031210065
:1006D60060082600DE0021005F08B72B25005208BF
:1006E600FA005108F9000630FB000030FC00B43176
:1006F600C02480317A082100DA007908D900B531A2
:100706005C258031210059082200D30021005A08B7
:100716002200D40021005B082200D50053082100E6
:10072600E500220054082100E600220055082100B9
:10073600E700250033082100DA00250032082100F1
:10074600D900B5315C25803121005908E8005A08E6
:10075600E9005B08EA00B43188248031210066088C
:100766002600DE00210065082600DD00D52B2600C8
:10077600DD01DE01D52B25002508003A0319C42B1F
:10078600BA2B2408013A0319552A033A03199C2A5D
:10079600013A0319E32A073A03192A2B013A0319E6
:1007A600712BBA2B26005D082000AE0026005E08DD
:1007B6002000AF00890D893B8909B000B1002600F1
:1007C6004F082000B200260050082000B300890D13
:1007D600893B8909B400B500A931D02180312000B8
:1007E6002F082600DE0020002E082600DD0002303D
:1007F600F0000030F1005E08F3005D08F200AC3155
:100806009F24803171082600920070089100003004
:10081600C4000030C3000030C2000030C100013007
:100826002500D1070030D23D25005C03031D482C6E
:1008360001302200BB003B082500DB0726006408C8
:10084600803A803C031D2A2C630825005B02031CAA
:100856004D2C22008D14260064082200BC002600C0
:1008660063082200BB00BB35BC0D3C08803ABD00C6
:1008760080303D02031D432C25005B0822003B020D
:1008860003184F2C2500DB014F2C25005B080319AC
:100896004F2CDB0122008D10220043082000FF00B0
:1008A6007E1009008431572C5830840001308500B1
:1008B6000F30FE000030FF00983100208431C13037
:1008C6008400023085002030FE000030FF009831A1
:1008D6000020843120308400033085004330FE0040
:1008E6000030FF00983100208431A03084000330AE
:1008F60085002C30FE000030FF0098310020843146
:1009060020308400043085004030FE000030FF00B7
:10091600983100208431A0308400043085004030B6
:10092600FE000030FF009831002084317C308400C6
:100936008A308500E8308600233087000230FF00C9
:100946000830B331EF238431C2308400B3308500E0
:1009560067308600013087000030FF000830B33171
:10096600EF2384313B308400B5308500A03086000B
:10097600023087000030FF002130B331EF2384318D
:10098600BA308400B33085006330860003308700B8
:100996000030FF000830B331EF237E1020008C3189
:1009A600842C210039082000AD0021003A082000DF
:1009B600AE0021003B082000AF00A83100208431A2
:1009C60020002D082100C50020002E082100C600A9
:1009D60020002F082100C7000030F0008030F10011
:1009E6003F30F2004508F3004608F4004708F500DA
:1009F600B731C527843103180D2D21302600DB00C1
:100A06000030DC0000302100B9000030BA000030B0
:100A1600BB00080000302100BC008030BD003F3024
:100A2600BE0000302000AD008030AE003F30AF0089
:100A360021003908FB003A08FC003B08FD00390894
:100A4600F8003A08F9003B08FA0098317120843121
:100A560078082000AA007908AB007A08AC00B33108
:100A6600CA23843120002A08B0002B08B1002C08C4
:100A7600B2009C316924843120002D082100BF007A
:100A860020002E082100C00020002F082100C100F0
:100A96003F082000C000210040082000C1002100BE
:100AA60041082000C2009B31792384312000400890
:100AB6002100CB00200041082100CC002000420884
:100AC6002100CD0039082000AD0021003A082000A1
:100AD600AE0021003B082000AF00A8310020843181
:100AE60020002D082100C50020002E082100C60088
:100AF60020002F082100C7004508F0004608F10035
:100B06004708F200C330F3003530F4003F30F500FB
:100B1600B731C52784310318D12D21004B08200099
:100B2600C40021004C082000C50021004D0820000B
:100B3600C600210039082000C70021003A0820001D
:100B4600C80021003B082000C900A5314D2584318D
:100B5600200044082100CE00200045082100CF00D7
:100B6600200046082100D0004E082000D4002100B5
:100B76004F082000D500210050082000D6008631FD
:100B8600DF26200054082100B90020005508210066
:100B9600BA00200056082100BB00080021003908D1
:100BA600F0003A08F1003B08F2000030F300003094
:100BB600F4000030F500B731C52784310318722ED2
:100BC60021004B082000AA0021004C082000AB00A1
:100BD60021004D082000AC00B331CA238431200027
:100BE6002A08C7002B08C8002C08C90021003908AC
:100BF6002000C40021003A082000C50021003B085F
:100C06002000C600A5314D2584312000440821006E
:100C1600CE00200045082100CF0020004608210014
:100C2600D0004E082000D40021004F082000D50037
:100C3600210050082000D6008631DF2684312000AE
:100C460054082100C800200055082100C9002000D2
:100C560056082100CA0048082000AA0021004908B9
:100C66002000AB0021004A082000AC00B331CA23A3
:100C7600843120002A08B0002B08B1002C08B200ED
:100C86001030AD00C930AE003F30AF009C31692452
:100C9600843120002D082100C20020002E082100EA
:100CA600C30020002F082100C40042082000AA002B
:100CB600210043082000AB00210044082000AC00BE
:100CC600B331CA2320002A082100B90020002B08CE
:100CD6002100BA0020002C082100BB0008002100DA
:100CE6004B082000C70021004C082000C800210046
:100CF6004D082000C900210039082000C400210049
:100D06003A082000C50021003B082000C600A53196
:100D16004D258431200044082100CE0020004508DE
:100D26002100CF00200046082100D0004E082000F8
:100D3600D40021004F082000D500210050082000D3
:100D4600D6008631DF268431200054082100C800F1
:100D5600200055082100C900200056082100CA00BD
:100D660010302000AD00C930AE003F30AF0021008A
:100D760048082000AA00210049082000AB002100F5
:100D86004A082000AC00B331CA23843120002A0867
:100D9600B0002B08B1002C08B2009C316924200059
:100DA6002D082100B90020002E082100BA002000DD
:100DB6002F082100BB00080020005408AD0055088C
:100DC600AE005608AF00A8310020863120002D085D
:100DD600E2002E08E3002F08E400640863046204BE
:100DE600031DFC2E0030D4000030D5000030D600A4
:100DF60008000030F0008030F1003F30F200620859
:100E0600F3006308F4006408F500B731C52786319E
:100E160003180F2F0130102F00302000D70057087D
:100E2600DE005E0803192D2F6208C4006308C500A2
:100E36006408C6000030C7008030C8003F30C900D3
:100E4600A5314D25863120004408E2004508E3001F
:100E56004608E4006208F8006308F9006408FA002E
:100E66006208FB006308FC006408FD0098317120ED
:100E7600863178082000DF007908E0007A08E10072
:100E86005F08BA006008BB006108BC004B30BD00BB
:100E9600B030BE000430BF000030C000AD31F025D8
:100EA600863120003A08D8003B08D9003C08DA0011
:100EB6005F08BA006008BB006108BC003930BD009D
:100EC600B030BE000530BF000030C000AD31F025A7
:100ED600863120003A08DB003B08DC003C08DD00D8
:100EE6005B08C7005C08C8005D08C9005808C40054
:100EF6005908C5005A08C600A5314D25863120007F
:100F06004408F8004508F9004608FA006208FB00A4
:100F16006308FC006408FD0098317120863178086A
:100F26002000E2007908E3007A08E4005E0803196D
:100F3600BC2F1030AD00C930AE003F30AF006208A4
:100F4600AA006308AB006408AC00B331CA2386313B
:100F560020002A08B0002B08B1002C08B2009C31F2
:100F66006924863120002D08E2002E08E3002F08B0
:100F7600E4005408F0005508F1005608F20000306D
:100F8600F3000030F4000030F500B731C527863194
:100F9600031CD52F20006208D4006308D50064081E
:100FA600D600080020006208AA006308AB006408A7
:100FB600AC00B331CA2320002A08D4002B08D50080
:100FC6002C08D600080022006E082300A200A30108
:100FD60021082306031DF12F200822060319080005
:100FE6002008A20022082200EE002300200C220086
:100FF600031C8D1203188D16080023006408630471
:101006006204031D0D280030E2000030E3000030CA
:10101600E400080064087F39E700E801E735E80DD9
:101026006708E5076808E63D630D630D0139E700CB
:10103600E8016708E5076808E63DE61F2F28223025
:101046002600DB000030DC0000302300E200003028
:10105600E3000030E40008006608803AE7008130CB
:101066006702031D382800306502031C70282230F1
:101076002600DB000030DC0023006208A0006308C5
:10108600A1006408A2000030A3000030A4000030D4
:10109600A500A8319A20883103186828FF3023005C
:1010A600E9007F30EA007F30EB006908B8006A0883
:1010B600B9006B08BA00B331DC2323003808E2001C
:1010C6003908E3003A08E4000800FF302300E20094
:1010D6007F30E3007F30E400080023006608E80064
:1010E6006508E700680DE80CE70C640867068039B8
:1010F6006706E40065080139E700E70CE70C6308BA
:1011060067067F396706E300080000302200B70053
:101116008030B8003F30B9000030B4000030B50070
:101126000030B60021006208F0006308F100640890
:10113600F2005F08F3006008F4006108F500B731BB
:10114600C5278831031CB328210062082000C4008B
:10115600210063082000C5002100640820006429DE
:1011660021006208FB006308FC006408FD000030F3
:10117600F8000030F9004030FA00983171208831CB
:1011860078082000AA007908AB007A08AC00B331D1
:10119600CA23883120002A08B0002B08B1002C0889
:1011A600B2000030AD00B430AE004330AF009C3129
:1011B6006924883120002D082200A00020002E0876
:1011C6002200A10020002F082200A20020082000F3
:1011D600AA00220021082000AB00220022082000DD
:1011E600AC00B331CA23883120002A08F8002B0846
:1011F600F9002C08FA000030AD00B430AE004330E0
:10120600AF00210062082000AA0021006308200028
:10121600AB00210064082000AC00B331CA2388313A
:1012260020002A08B0002B08B1002C08B2009C311F
:101236006924883120002D08C4002E08C5002F0817
:10124600C6000030C7003430C8004330C900A5319D
:101256004D25883120004408FB004508FC0046085F
:10126600FD0098317120883178082200B400790891
:10127600B5007A08B60000302000AD00B430AE00EC
:101286004330AF00210062082000AA002100630855
:101296002000AB00210064082000AC00B331CA2353
:1012A600883120002A08B0002B08B1002C08B200B3
:1012B6009C316924883120002D08C4002E08C50001
:1012C6002F08C6000030C7003430C8004330C900BC
:1012D600A5314D258831200044082200B7002000A2
:1012E60045082200B800200046082200B900370849
:1012F600FB003808FC003908FD0021005F08F800F3
:101306006008F9006108FA00983171208831780880
:101316002000B0007908B1007A08B2002200340833
:101326002000AA00220035082000AB002200360863
:101336002000AC00B331CA23883120002A08AD0052
:101346002B08AE002C08AF009C31692488312000A0
:101356002D082200A30020002E082200A400200051
:101366002F082200A5002308FB002408FC002508FE
:10137600FD001030F8004930F9004030FA0098318D
:101386007120883178082000C7007908C8007A08DB
:10139600C9000030C4003430C5004330C600A53152
:1013A6004D25883120004408B0004508B1004608A4
:1013B600B2001030AD004930AE004030AF009C3175
:1013C6006924883120002D082200A60020002E085E
:1013D6002200A70020002F082200A80026082000CF
:1013E600C700220027082000C80022002808200085
:1013F600C9000030C4000030C5004030C600A53129
:101406004D258831200044082200A9002000450807
:101416002200AA00200046082200AB00290821006D
:10142600C80022002A082100C90022002B0821003A
:10143600CA00B6317F268831210048082000D40032
:10144600210049082000D50021004A082000D600C6
:101456008631DF268831200054082200AC002000A7
:1014660055082200AD00200056082200AE002C08C8
:10147600FB002D08FC002E08FD00A630F8007E308B
:10148600F900C230FA0098317120883178082100BD
:10149600D1007908D2007A08D300AA319522883182
:1014A600210051082200AF00210052082200B0009E
:1014B600210053082200B1002F082000E500220079
:1014C60030082000E600220031082000E700A431A1
:1014D6000924200066082200B300200065082200C7
:1014E600B20033082100E000220032082100DF00AC
:1014F600080022340834FC340734D8340734B534B1
:10150600073493340734723407345234073434348E
:10151600073416340734F9340634DD340634C2345D
:101526000634A83406348F340634763406345E34F2
:10153600063447340634303406341A340634053457
:101546000634F0340534DC340534C8340534B53497
:101556000534A3340534903405347F3405346D34B2
:1015660005345C3405344C3405343C3405342C34B1
:1015760005341D3405340E340534FF340434F13497
:101586000434E2340434D5340434C7340434BA346D
:101596000434AD340434A13404349434043488342B
:1015A60004347D34043471340434663404345A34D7
:1015B600043450340434453404343A340434303476
:1015C6000434263404341C34043412340434093408
:1015D6000434FF340334F6340334ED340334E43492
:1015E6000334DC340334D3340334CB340334C2340D
:1015F6000334BA340334B2340334AA340334A23481
:1016060003349B340334933403348C3403348534E9
:1016160003347E340334773403347034033469344A
:101626000334623403345C340334553403344F34A6
:10163600033448340334423403343C3403343634FC
:101646000334303403342A340334243403341F344B
:10165600033419340334133403340E340334093495
:10166600033403340334FE340234F9340234F434DC
:101676000234EF340234EA340234E5340234E0341E
:101686000234DB340234D7340234D2340234CD345B
:101696000234C9340234C4340234C0340234BC3493
:1016A6000234B7340234B3340234AF340234AB34C8
:1016B6000234A6340234A23402349E3402349A34FC
:1016C600023497340234933402348F3402348B3428
:1016D60002348734023484340234803402347C3455
:1016E60002347934023475340234723402346E347E
:1016F60002346B34023467340234643402346134A5
:1017060002345E3402345A340234573402345434C8
:101716000234513402344E3402344B3402344834E9
:10172600023445340234423402343F3402343C3409
:101736000234393402343634023433340234303429
:1017460002342E3402342B34023428340234253445
:10175600023423340234203402341E3402341B345F
:101766000234183402341634023413340234113479
:1017760002340E3402340C3402340A340234073490
:101786000234053402340234023400340234FE34A6
:101796000134FB340134F9340134F7340134F534BF
:1017A6000134F2340134F0340134EE340134EC34D3
:1017B6000134EA340134E8340134E6340134E334E4
:1017C6000134E1340134DF340134DD340134DB34F7
:1017D6000134D9340134D7340134D5340134D33407
:1017E6000134D2340134D0340134CE340134CC3413
:1017F6000134CA340134C8340134C6340134C43423
:101806000134C3340134C1340134BF340134BD342E
:101816000134BC340134BA340134B8340134B6343A
:101826000134B5340134B3340134B1340134B03445
:101836000134AE340134AC340134AB340134A93450
:101846000134A8340134A6340134A4340134A33459
:101856000134A1340134A03401349E3401349D3462
:1018660001349B3401349A3401349834013497346A
:101876000134953401349434013492340134913472
:101886000134903401348E3401348D3401348B3478
:1018960001348A340134893401348734013486347E
:1018A6000134853401348334013482340134813483
:1018B60001347F3401347E3401347D3401347B3489
:1018C60001347A340134793401347834013476348D
:1018D6000134753401347434013473340134713491
:1018E6000134703401346F3401346E340134003401
:1018F6000034003400340034003400340034003442
:10190600003412302300A0007A30A100AA315222FE
:101916008C31B331AB238C31B6311F268C3120008C
:10192600101490140F178F160E148F17B531A025AB
:101936008C31B331FB238C31AF318A278C31B731EF
:101946001A278C31AD3196258C319A3194228C31FF
:10195600220066030319B22C96311F268C31220011
:1019660066030319C12C650825003E060319C12C20
:10197600AA31DB228C31AB31FF238C310030B431FC
:101986003B248C31230021082500C60023002008B3
:101996002500C5000130B4313B248C3123002108D9
:1019A6002500C800230020082500C7000230B431F6
:1019B6003B248C31230021082500CA00230020087F
:1019C6002500C9000330B4313B248C3123002108A3
:1019D6002500CC00230020082500CB000430B431BC
:1019E6003B248C31230021082500CE00230020084B
:1019F6002500CD002609E1002709E200E10A0319C6
:101A0600E20A45086107E3004608623DE40064080F
:101A1600803AE50080306502031D132D0430630211
:101A260003182E2D25002609E1002709E200E10A08
:101A36000319E20A45086107E3004608623DE4002F
:101A46006408803AE5007F306502031D2C2DFD30C9
:101A560063020318822D25004608A7004508A60044
:101A660027082300A900250026082300A800B53171
:101A76007E258C31230028082400E600230029084F
:101A86002400E70023002A082400E8006608D7009F
:101A96006708D8006808D900A031CB208C31240013
:101AA60058082600990024005708260098002500AB
:101AB60027082300A900250026082300A800B53121
:101AC6007E258C31230028082400E90023002908FC
:101AD6002400EA0023002A082400EB006908D70046
:101AE6006A08D8006B08D900A3316F238C31240013
:101AF600580826009D002400570826009C00250053
:101B06002809E1002909E200E10A0319E20A470867
:101B16006107E3004808623DE4006408803AE50096
:101B260080306502031D992D043063020318B42D1D
:101B360025002809E1002909E200E10A0319E20A61
:101B460047086107E3004808623DE4006408803AFC
:101B5600E5007F306502031DB22DFD3063020318D8
:101B6600072E25004808A9004708A80029082300D1
:101B7600A900250028082300A800B5317E258C3150
:101B8600230028082400EC00230029082400ED0087
:101B960023002A082400EE006C08D7006D08D80040
:101BA6006E08D900A0314B208C312400580825003E
:101BB6009200240057082500910029082300A90057
:101BC600250028082300A800B5317E258C31230086
:101BD60028082400EC00230029082400ED00230037
:101BE6002A082400EE006C08D7006D08D8006E089D
:101BF600D900A0314B208C312400580825009900CB
:101C0600240057082500980025002A09E1002B0921
:101C1600E200E10A0319E20A49086107E3004A08FB
:101C2600623DE4006408803AE50080306502031DE9
:101C36001E2E043063020318392E25002A09E100FE
:101C46002B09E200E10A0319E20A49086107E300E9
:101C56004A08623DE4006408803AE5007F30650288
:101C6600031D372EFD30630203187E2E25004A0819
:101C7600AB004908AA0080302300E4009D30E5004F
:101C86004330E6000030E1003430E2004230E30049
:101C9600C030DE007F30DF004430E0000030DB0083
:101CA6000030DC000030DD0025002B082300A900F1
:101CB60025002A082300A800B5317E258C31230093
:101CC6002808D8002908D9002A08DA00A2314F22AC
:101CD6008C3123005808EA005908EB005A08EC003A
:101CE600A431A8248C3123006B082500B3002300FF
:101CF6006A082500B20025002C09E1002D09E20042
:101D0600E10A0319E20A4B086107E3004C08623D49
:101D1600E4006408803AE50080306502031D952ED4
:101D2600043063020318B02E25002C09E1002D09AA
:101D3600E200E10A0319E20A4B086107E3004C08D6
:101D4600623DE4006408803AE5007F306502031DC9
:101D5600AE2EFD3063020318F52E25004C08AD00AB
:101D66004B08AC0000302300E4003C30E500423074
:101D7600E6000030E1004030E2004030E300C030D1
:101D8600DE007F30DF004430E0000030DB00003052
:101D9600DC000030DD0025002D082300A900250009
:101DA6002C082300A800B5317E258C312300280895
:101DB600D8002908D9002A08DA00A2314F228C312E
:101DC60023005808EA005908EB005A08EC00A43131
:101DD600A8248C3123006B082600E80023006A083B
:101DE6002600E70025002E09E1002F09E200E10A9E
:101DF6000319E20A4D086107E3004E08623DE4005C
:101E06006408803AE50080306502031D0C2F04301B
:101E160063020318272F25002E09E1002F09E2008F
:101E2600E10A0319E20A4D086107E3004E08623D24
:101E3600E4006408803AE5007F306502031D252F23
:101E4600FD30630203186C2F25004E08AF004D08C5
:101E5600AE0000302300E4000030E5000030E6006C
:101E66006030E1009F30E2004430E300C030DE0025
:101E76007F30DF004430E0000030DB000030DC0063
:101E86000030DD0025002F082300A90025002E08BC
:101E96002300A800B5317E258C3123002808D80000
:101EA6002908D9002A08DA00A2314F228C312300F2
:101EB6005808EA005908EB005A08EC00A431A82497
:101EC6008C3123006B082600D00023006A08260008
:101ED600CF00260065036604031DA22C22006A08B3
:101EE6002500A300220069082500A2002200680838
:101EF6002500A100220067082500A000220068082E
:101F06002400B900220067082400B80022006C08EB
:101F16002400BB0022006B082400BA009931D821A6
:101F26008C31240038082500A0002400390825003B
:101F3600A100890D893B8909A200A3000130260072
:101F4600DF000030E000D901DA012500C101C2013D
:101F5600260059085A04031DFD2F25004208E200F9
:101F66004108E100E135E20DE830E3002330E4000A
:101F76006108630786006208643D8700403FE5000C
:101F8600413FE6006508E7006608E8000030E81B08
:101F9600FF30E900EA002008EB002108EC002208E7
:101FA600ED002308EE000130EB35EC0DED0DEE0DE6
:101FB600890BD72F6E08803AEF006A08803A6F02C5
:101FC600031DEF2F69086D02031DEF2F68086C02D1
:101FD600031DEF2F67086B02031CF72F0130260045
:101FE600D9000030DA00AB2F01302500C1070030E0
:0A1FF600C23DAB2FE501E601A22C6D
:1020040001302300B70037082500DD00AC314F2430
:102014009031AC314F249031A93190219031A931C4
:1020240090212500DD01080023003B08C1003C0885
:10203400C2003D08C3000310420D430DC400440810
:10204400C7003E08C1003F08C2004008C300031097
:10205400420D430DC4004408C600470803193E2836
:1020640046084702031845284703FF3A4607C100BC
:1020740019304102031C45283E08BB003F08BC0040
:102084004008BD0008004608031908004708460236
:10209400031854284603FF3A4707C1001930410288
:1020A400031808000630C1004108C500BD1BC51750
:1020B400C01B4517BC17FF30BB05FF30BC05003003
:1020C400BD05BF17FF30BE05FF30BF050030C0059A
:1020D40046084702031890280130BE35BF0DC00DD5
:1020E400890B6F280130C6024608470603198B285E
:1020F4000130C5024508073903198B286E280130C1
:10210400BD36BC0CBB0C890B82280130C1004108D0
:10211400C707470846060319B52881284708460219
:102124000318B5280130BB35BC0DBD0D890B9528AE
:102134000130C702460847060319B1280130C50219
:10214400450807390319B12894280130C036BF0C5B
:10215400BE0C890BA8280130C1004108C6074708F6
:102164004606031DA728C51FC728FF30BB06FF303E
:10217400BC06FF30BD060130BB0700300318013038
:10218400BC07003003180130BD07451FD928FF30B4
:10219400BE06FF30BF06FF30C0060130BE07003068
:1021A40003180130BF07003003180130C007C50110
:1021B4003B08BE073C08BF3D3D08C03DC01FF42896
:1021C400FF30BE06FF30BF06FF30C0060130BE0739
:1021D400003003180130BF07003003180130C00776
:1021E400C501C50A3E08A0003F08A1004008A2009E
:1021F4004708C1004108A3004508C2004208A400E2
:1022040098310C2023002008BB002108BC002208C0
:10221400BD0008002100B8012B08F0002C08F100D3
:102224002D08F2000030F3000030F4000030F50017
:10223400B731C527913103183C2921002B08200010
:10224400AA0021002C082000AB0021002D0820004A
:10225400AC00B331CA23913120002A082100AB001D
:1022640020002B082100AC0020002C082100AD0028
:10227400B801B80AFA30F8002230F9003E30FA000A
:1022840021002B08FB002C08FC002D08FD009831D0
:102294007120913178082100AB007908AC007A08EC
:1022A400AD002B082000ED0021002C082000EE00DA
:1022B40021002D082000EF00A231DA229131200004
:1022C4006D08BA006E08BB006F08BC0021002B0823
:1022D4002000BD0021002C082000BE0021002D0894
:1022E4002000BF00B431DE24913120003A082100DF
:1022F400AB0020003B082100AC0020003C0821007A
:10230400AD000030F8008030F9004030FA002B08AE
:10231400FB002C08FC002D08FD0098317120913140
:1023240078082100AB007908AC007A08AD000030D1
:10233400F0000030F1004030F2002B08F3002C08CC
:10234400F4002D08F500B731C52791310318D529BC
:1023540000302000BA000030BB004030BC00210037
:102364002B082000BD0021002C082000BE00210005
:102374002D082000BF00B431DE24913120003A083A
:102384002100AB0020003B082100AC0020003C08E9
:102394002100AD003808031DD1290130D2290030B5
:1023A400AE002E08B8000030F0008030F1003F305D
:1023B400F20021002B08F3002C08F4002D08F5008E
:1023C400B731C52791310318132A00302000AD001E
:1023D4000030AE004030AF0021002B082000AA00DE
:1023E40021002C082000AB0021002D082000AC00A7
:1023F400B331CA23913120002A08B0002B08B10060
:102404002C08B2009C316924913120002D08210050
:10241400AB0020002E082100AC0020002F08210072
:10242400AD0021002B08F8002C08F9002D08FA0053
:102434002B08FB002C08FC002D08FD0098317120AE
:10244400913178082100B5007908B6007A08B70000
:1024540035082000BA00210036082000BB00210006
:1024640037082000BC006930BD00B030BE00033026
:10247400BF000030C000AD31F025913120003A0892
:102484002100AF0020003B082100B00020003C08E0
:102494002100B10004302000BF000030C0005A30D9
:1024A400BD00B030BE00210035082000BA00210074
:1024B40036082000BB00210037082000BC00AD31E5
:1024C400F025913120003A08C7003B08C8003C08B9
:1024D400C90021002F082000C4002100300820007A
:1024E400C500210031082000C600A5314D259131D9
:1024F400200044082100B200200045082100B30058
:10250400200046082100B4003208F8003308F9001E
:102514003408FA002B08FB002C08FC002D08FD00F1
:1025240098317120913178082100AB007908AC0012
:102534007A08AD003808031908002B082000AA0007
:1025440021002C082000AB0021002D082000AC0045
:10255400B331CA2320002A082100AB0020002B0835
:102564002100AC0020002C082100AD000800003040
:102574002200B2008030B3003F30B4000030AF001E
:102584000030B0000030B10021006208F0006308A0
:10259400F1006408F2005F08F3006008F4006108C9
:1025A400F500B731C5279231031CE42A21006208E3
:1025B4002000C400210063082000C5002100640835
:1025C4002000952B21006208FB006308FC006408CE
:1025D400FD000030F8000030F9004030FA00983176
:1025E4007120923178082000AA007908AB007A089B
:1025F400AC00B331CA23923120002A08B0002B0862
:10260400B1002C08B2000030AD00B430AE0043304D
:10261400AF009C316924923120002D082200A000D3
:1026240020002E082200A10020002F082200A20072
:1026340020082000AA00220021082000AB0022006C
:1026440022082000AC00B331CA23923120002A08AA
:10265400F8002B08F9002C08FA000030AD00B43063
:10266400AE004330AF00210062082000AA00210020
:1026740063082000AB00210064082000AC00B331E3
:10268400CA23923120002A08B0002B08B1002C087C
:10269400B2009C316924923120002D08C4002E0818
:1026A400C5002F08C6000030C7003430C8004330CE
:1026B400C900A5314D25923120004408FB0045088E
:1026C400FC004608FD009831712092317808220000
:1026D400AF007908B0007A08B10000302000AD00E6
:1026E400B430AE004330AF00210062082000AA00DD
:1026F400210063082000AB00210064082000AC0026
:10270400B331CA23923120002A08B0002B08B1004B
:102714002C08B2009C316924923120002D08C40099
:102724002E08C5002F08C6000030C7003430C8008A
:102734004330C900A5314D259231200044082200C0
:10274400B200200045082200B30020004608220001
:10275400B4003208FB003308FC003408FD002100FB
:102764005F08F8006008F9006108FA0098317120E8
:10277400923178082000B0007908B1007A08B200DC
:1027840022002F082000AA00220030082000AB00FD
:10279400220031082000AC00B331CA23923120005A
:1027A4002A08AD002B08AE002C08AF009C31692428
:1027B400923120002D082200A30020002E082200C0
:1027C400A40020002F082200A5002308FB002408F1
:1027D400FC002508FD001030F8004930F9004030B5
:1027E400FA0098317120923178082000C7007908E6
:1027F400C8007A08C9000030C4003430C500433032
:10280400C600A5314D259231200044082200A600BF
:10281400200045082200A700200046082200A80046
:1028240026082100AB00220027082100AC0022006A
:1028340028082100AD0091310C21923121002B0890
:102844002200A90021002C082200AA0021002D0842
:102854002200AB002908FB002A08FC002B08FD001D
:102864000030F800C830F9004230FA009831712085
:10287400923178082100D1007908D2007A08D30077
:10288400AA3195229231210051082200AC00210086
:1028940052082200AD00210053082200AE002C088B
:1028A4002000E50022002D082000E60022002E086A
:1028B4002000E700A4310924200066082100E0007C
:1028C400200065082100DF00080000302200B2006B
:1028D4008030B3003F30B4000030AF000030B000AF
:1028E4000030B10021006208F0006308F1006408C0
:1028F400F2005F08F3006008F4006108F500B731E6
:10290400C5279431031C922C210062082000C400C6
:10291400210063082000C500210064082000432D25
:1029240021006208FB006308FC006408FD0000301D
:10293400F8000030F9004030FA00983171209431E9
:1029440078082000AA007908AB007A08AC00B331FB
:10295400CA23943120002A08B0002B08B1002C08A7
:10296400B2000030AD00B430AE004330AF009C3153
:102974006924943120002D082200A00020002E0894
:102984002200A10020002F082200A200200820001D
:10299400AA00220021082000AB0022002208200007
:1029A400AC00B331CA23943120002A08F8002B0864
:1029B400F9002C08FA000030AD00B430AE0043300A
:1029C400AF00210062082000AA0021006308200053
:1029D400AB00210064082000AC00B331CA23943159
:1029E40020002A08B0002B08B1002C08B2009C314A
:1029F4006924943120002D08C4002E08C5002F0836
:102A0400C6000030C7003430C8004330C900A531C7
:102A14004D25943120004408FB004508FC0046087D
:102A2400FD0098317120943178082200AF007908B4
:102A3400B0007A08B10000302000AD00B430AE0020
:102A44004330AF00210062082000AA00210063087F
:102A54002000AB00210064082000AC00B331CA237D
:102A6400943120002A08B0002B08B1002C08B200D1
:102A74009C316924943120002D08C4002E08C5001F
:102A84002F08C6000030C7003430C8004330C900E6
:102A9400A5314D259431200044082200B2002000C5
:102AA40045082200B300200046082200B400320882
:102AB400FB003308FC003408FD0021005F08F80027
:102AC4006008F9006108FA0098317120943178089F
:102AD4002000B0007908B1007A08B20022002F0863
:102AE4002000AA00220030082000AB002200310898
:102AF4002000AC00B331CA23943120002A08AD0071
:102B04002B08AE002C08AF009C31692494312000BE
:102B14002D082200A30020002E082200A40020007B
:102B24002F082200A5002308FB002408FC00250828
:102B3400FD001030F8004930F9004030FA009831B7
:102B44007120943178082000C7007908C8007A08F9
:102B5400C9000030C4003430C5004330C600A5317C
:102B64004D259431200044082200A6002000450889
:102B74002200A700200046082200A8002608210001
:102B8400AB00220027082100AC0022002808210005
:102B9400AD0091310C21943121002B08B9002C088F
:102BA400BA002D08BB008431D424943121003908A3
:102BB4002200A90021003A082200AA0021003B08B3
:102BC4002200AB002908FB002A08FC002B08FD00AA
:102BD400A630F8007E30F9004230FA0098317120B6
:102BE400943178082100D1007908D2007A08D30002
:102BF400AA3195229431210051082200AC00210011
:102C040052082200AD00210053082200AE002C0817
:102C14002000E50022002D082000E60022002E08F6
:102C24002000E700A4310924200066082100E00008
:102C3400200065082100DF0008002300C4012000F3
:102C440010182B2E25005F080319362E0130DF02E1
:102C5400362E193025005F020318362E013023006A
:102C6400BC003C082500DF075F08031DE92F220094
:102C7400DF1BBB2E5F08031D482E5E08031D482E74
:102C84001B305C0206305D3B031CBB2E25005E033B
:102C94000319872EDE01DE0A00302200DF00003037
:102CA400DE000030DD000030DC0001302500B4001F
:102CB4000030B50000302600C8000030C7000030E6
:102CC400C6000030C500E501E6012300C401C40AC2
:102CD400440825003C02031C872E23004408BC0042
:102CE4000130BC35FF3E031D732E3C35203E86006B
:102CF400033087000030C03F0030C13FC23FC33FB4
:102D04000130BC003C08C4076A2E5908031D912EEB
:102D1400D901D90A2200EE012500CF01D0013108E2
:102D24005002031D972E30084F02031C0800220096
:102D34006E08031D08006408031D080025003108FF
:102D4400D0003008CF0022000D12250057030319CC
:102D5400B32E01302300A0000030A1008731E62704
:102D6400080001302300B8000030B900A931132154
:102D740008002200DF1BCA2E5F08031D08005E083E
:102D8400031D08001B305C0206305D3B031808007D
:102D94006E08031D080025005E0303190800DE0108
:102DA400DE0A2200DF1BEA2E5F08031DE22E5E0806
:102DB400031DE22E94305C0204305D3B031CEA2EBA
:102DC4000030DF000030DE000430DD009430DC0031
:102DD40025003C082300BC00BD013C08C2003D089E
:102DE400C30025003508803A803C031DFB2E3408BF
:102DF4003C02031C2D2F22005C082600C50722007C
:102E04005D082600C63D22005E082600C73D22005C
:102E14005F082600C83D250034082300BC000130AB
:102E2400BC35FF3E031D122F3C35203E8600033087
:102E3400870022005C08C03F5D08C13F5E08C23FB6
:102E44005F08C33F250035082300C300250034086C
:102E54002300C200A92F00302600C8000030C7009C
:102E64000030C6000030C5002300C401C40A250098
:102E74003C08230044020318832F4408BC0001309B
:102E8400BC35FF3E031D422F3C35043E203E8600E8
:102E940003308700403FBD00413FBE00423FBF00BA
:102EA400433FC0004408C1000130C135FF3E031D4B
:102EB400572F4135203E8600033087003D08C03F30
:102EC4003E08C13F3F08C23F4008C33F4408BC001E
:102ED4000130BC35FF3E031D6B2F3C35203E860080
:102EE40003308700403F2600C507413FC63D423FAF
:102EF400C73D433FC83D01302300BC003C08C40724
:102F0400392F25003C082300BC000130BC35FF3EAE
:102F1400031D882F3C35203E8600033087002200A5
:102F24005C08C03F5D08C13F5E08C23F5F08C33F05
:102F34005C082600C50722005D082600C63D220065
:102F44005E082600C73D22005F082600C83D230016
:102F54004208A0004308A100890D893B8909A20009
:102F6400A300260048082300A700260047082300E2
:102F7400A600260046082300A500260045082300D5
:102F8400A400A131CD21230023082200EA0023005C
:102F940022082200E900230021082200E80023007F
:102FA40020082200E70001302600E5000030E6009A
:102FB40000302200DF000030DE000030DD00003091
:102FC400DC0001302500B4070030B53D080019309D
:102FD4005F02031C0800DE01C00100302300A000D2
:102FE400A1008731E6272500CF01D001D90119308E
:102FF4002300BC003C082500DF00080064008001B9
:1030040001310130FE020030FF3B7F087E040319CA
:103014000034012823002308031915282208210459
:103024002004031D26280030A0000030A100003039
:10303400A20008000130A5002508A3070130A2362C
:10304400A10CA00C890B2128FE30220503193F286E
:103054001C280130A5002508A3070130A007003073
:1030640003180130A107003003180130A207013012
:10307400A236A10CA00C890B3A28FF3022050319B3
:103084004C282B280130A3020130A035A10DA20D3C
:10309400890B4728A11B5228023023020318442815
:1030A40023185A28FF30A0057F30A105FF30A20560
:1030B4000310A30C2308A500A601A7011030A53511
:1030C400A60DA70D890B61282508A0042608A104D4
:1030D4002708A204240803190800A2170800780886
:1030E4002000A0007908A1007A08A2000310210D95
:1030F400220DA3002308A4002408031D88280030FF
:10310400F8000030F9000030FA0008007B08A00045
:103114007C08A1007D08A2000310210D220DA3004C
:103124002308A9002908031D9E280030F800003058
:10313400F9000030FA00080029087B3EA0002008AE
:10314400A4077808A0007908A1007A08A20010302A
:10315400A236A10CA00C890BAA282008A3002308DE
:10316400A9007B08A0007C08A1007D08A200103003
:10317400A236A10CA00C890BBA282008A3002308AE
:10318400A9068030A0002008A905F917FC17FF3014
:10319400FB05FF30FC050030FD050030A5000030C4
:1031A400A6000030A7000730A0002008A800781C63
:1031B400E1287B08A5077C08A63D7D08A73D0130D2
:1031C400FA36F90CF80C890BE2280130FB35FC0DBA
:1031D400FD0D890BE8280130A802031DD928093008
:1031E400A0002008A800781CFD287B08A5077C08FF
:1031F400A63D7D08A73D0130FA36F90CF80C890B81
:10320400FE280130A736A60CA50C890B0429013031
:10321400A802031DF5282508F0002608F100270858
:10322400F2002408A0002008F3002908A1002108C6
:10323400F400AE31B0267008F8007108F900720885
:10324400FA00080023004808CE004908CF004A08C5
:10325400D00003104F0D500DD1005108D200520878
:10326400031D3B290030C8000030C9000030CA00EB
:1032740008004B08CE004C08CF004D08D0000310C6
:103284004F0D500DD1005108D7005708031D512987
:103294000030C8000030C9000030CA0008005708D8
:1032A4007B3ECE004E08D2074808CE004908CF0026
:1032B4004A08D0001030D036CF0CCE0C890B5D29D3
:1032C4004E08D1005108D7004B08CE004C08CF005F
:1032D4004D08D0001030D036CF0CCE0C890B6D29A0
:1032E4004E08D1005108D7068030CE004E08D705CD
:1032F400C917CC17FF30CB05FF30CC050030CD0506
:103304000030D3000030D4000030D5000730CE00A8
:103314004E08D600481C94294B08D3074C08D43DCA
:103324004D08D53D0130CA36C90CC80C890B952906
:103334000130CB35CC0DCD0D890B9B290130D60244
:10334400031D8C290930CE004E08D600481CB02934
:103354004B08D3074C08D43D4D08D53D0130CA363F
:10336400C90CC80C890BB1290130D536D40CD30C47
:10337400890BB7290130D602031DA8295308A000E0
:103384005408A1005508A2005208CE004E08A3001C
:103394005708CF004F08A40098310C2023002008C0
:1033A400C8002108C9002208CA0008002600CD016F
:1033B400CE0124003908C3003808C2000030BF0021
:1033C4008030C0003F30C100022A0030BF0000300E
:1033D400C0004030002AA630BF002A30F429003053
:1033E400BF000030C0003F30002AA630BF00AA3022
:1033F400FE290030BF008030C0003E30C1001B2ACF
:103404003B08003A0319072A1B2A3A08013A031910
:10341400E729033A0319ED29013A0319F129073A77
:103424000319F729013A0319FB29033A03191B2A43
:103434001B2A43082300A900240042082300A800F3
:10344400B5317E25993123002808CB002908CC000A
:103454002A08CD0024003F082300C80024004008A7
:103464002300C900240041082300CA009931242103
:10347400993123004808EA004908EB004A08EC00A7
:10348400A431A824993123006B082400C30023002D
:103494006A082400C20043082300A900240042084B
:1034A4002300A800B5317E25993123002808240083
:1034B400B000230029082400B10023002A082400B6
:1034C400B200AC31F024993124003008BC0031083A
:1034D400BD003208BE0043082300A90024004208AE
:1034E4002300A800B5317E25993123002A08240041
:1034F4003E06031D872A2300290824003D06031DD8
:10350400872A2300280824003C0603198E2A013048
:103514002600CD000030CE0024004308B900420844
:10352400B800080020009018AA2A25005408803A00
:103534002300BC0080303C02031DA32A0130250077
:103544005302031CBD2AFF302500D307FF30BC2AD9
:1035540025005408803A2300BC0080303C02031D3F
:10356400B62A1930250053020318BD2A013025005C
:10357400D3070030D43D250053085404031D192BF0
:103584005708031DC92AD701D70AC301C40131084A
:103594004402031DCF2A30084302031CEE2A2200F2
:1035A4006D08031DEE2A6408031DEE2A0D11250083
:1035B40059030319E62A01302300A0000030A100BA
:1035C400B4316E249A31EE2A01302300B800003061
:1035D400B900A93113219A3122006408031D152B67
:1035E4006D08031D152B25003F03031D072B260023
:1035F40069036A04031D152B2500B801B80A0130BC
:103604002600E1000030E200152B250056030319C3
:10361400152BB801D601D60A2600E101E2012200E9
:10362400ED012500D7012600E901EA010800250083
:103634005408803A2300BC0080303C02031D252B33
:10364400193025005302031C080022006403031DE3
:10365400342B250038082300BC00BD013C08B2000F
:103664003D08512B2500560303193C2B22006D0302
:10367400031D422B01302300B2000030B300522B53
:10368400260061036204031D552B22006D08031DEF
:10369400552B6408031D552B00302300B200B300E2
:1036A400A03101209A3125003F0C2200031C0D118A
:1036B40003180D1500302300A000A100B4316E24BE
:1036C4009A3100302300B800B900A9311321250034
:1036D400D701D6012600E101E2010130E900003002
:1036E400EA0019302500D3000030D400080000306F
:1036F400F0000030F1000030F20020004008F30038
:103704004108F4004208F500B731C5279B31031C7A
:10371400AA2B20004008F0004108F1004208F20002
:103724000030F3000030F4000030F500B731C52755
:103734009B310318A22B21302600DB000030DC0073
:1037440000302000C0000030C1000030C20008007A
:1037540020004008C9004108CA004208CB004009C3
:10376400C3004109C4004209C500C30A0319C40ABD
:103774000319C50AC8304307D0006E30443DD10058
:10378400BE30453DD2000130D236D10CD00C890B6D
:10379400C62B0030C3008030C4000030C50043088D
:1037A400C9024408CA3B4508CB3B0430C300430864
:1037B400CC005008C6005108C7005208C800490888
:1037C400F8004A08F9004B08FA005008FB005108B9
:1037D400FC005208FD00983171209B3178082000CC
:1037E400CD007908CE007A08CF005008F8005108BF
:1037F400F9005208FA004D08FB004E08FC004F087F
:10380400FD00983171209B3178082000CD007908A3
:10381400CE007A08CF005008F8005108F900520889
:10382400FA004D08FB004E08FC004F08FD009831DB
:1038340071209B3178082000CD007908CE007A08E9
:10384400CF000030F800C030F9003F30FA005008D3
:10385400FB005108FC005208FD00983171209B3197
:1038640078082000D0007908D1007A08D2004D08E9
:10387400BA004E08BB004F08BC005008BD005108F8
:10388400BE005208BF00B431DE249B3120003A0848
:10389400D0003B08D1003C08D2000130CC02031D0B
:1038A400DB2B4008F8004108F9004208FA005008F0
:1038B400FB005108FC005208FD0098317120780883
:1038C4002000C0007908C1007A08C2000800200066
:1038D4002D08B3002E08B4002F08B5000310340DD2
:1038E400350DB6003608B9003008B3003108B4000D
:1038F4003208B5000310340D350DB6003608B80093
:1039040039080319912C380839020318982C390303
:10391400FF3A3807B30019303302031C982C3008DF
:10392400AD003108AE003208AF00080038080319B2
:103934000800390838020318A72C3803FF3A39075E
:10394400B30019303302031808000630B3003308FB
:10395400B700AF1BB717B21B3717AE17FF30AD0553
:10396400FF30AE050030AF05B117FF30B005FF30B2
:10397400B1050030B205380839020318E32C0130D0
:10398400B035B10DB20D890BC22C0130B802380824
:1039940039060319DE2C0130B70237080739031939
:1039A400DE2CC12C0130AF36AE0CAD0C890BD52CFE
:1039B4000130B3003308B907390838060319082D54
:1039C400D42C390838020318082D0130AD35AE0D5A
:1039D400AF0D890BE82C0130B902380839060319F8
:1039E400042D0130B702370807390319042DE72CD9
:1039F4000130B236B10CB00C890BFB2C0130B30092
:103A04003308B80739083806031DFA2CB71F1A2DD6
:103A1400FF30AD06FF30AE06FF30AF060130AD0714
:103A2400003003180130AE07003003180130AF072F
:103A3400371F2C2DFF30B006FF30B106FF30B20621
:103A44000130B007003003180130B107003003180B
:103A54000130B207B7012D08B0072E08B13D2F0879
:103A6400B23DB21F472DFF30B006FF30B106FF3024
:103A7400B2060130B007003003180130B10700303E
:103A840003180130B207B701B70A3008F000310853
:103A9400F1003208F2003908B3003308F3003708A4
:103AA400B4003408F400AE31B02670082000AD0034
:103AB4007108AE007208AF0008002400D201470864
:103AC40046044504031D8B2D00302300A000003064
:103AD400A1000030A200240048082300A300240011
:103AE40049082300A40024004A082300A500A831A3
:103AF4009A209D31031C832D21302600DB000030E9
:103B0400DC0000302400C5000030C6000030C700CF
:103B140008004A0849044804031D972D0030C500D5
:103B24008030C6003F30C700080045082300A000CD
:103B3400240046082300A100240047082300A20013
:103B44000030A3000030A4000030A500A8319A2062
:103B54009D3103181D2E240048082300EA00240088
:103B640049082300EB0024004A082300EC00A43198
:103B7400A8249D3123006D082400D60023006C087E
:103B84002400D50023006B082400D40023006A0815
:103B94002400D30056082300AB002400550823005A
:103BA400AA00240054082300A90024005308230079
:103BB400A800B531C6259D3124004A0823002A06F1
:103BC400031DEE2D2400490823002906031DEE2DB4
:103BD40024004808230028060319FD2D213026005F
:103BE400DB000030DC0000302400C5000030C600DB
:103BF4000030C7000800240053080139CB004B08EB
:103C0400D20045082300B800240046082300B90068
:103C1400240047082300BA00B331DC239D3123007C
:103C240038082400C500230039082400C6002300F6
:103C34003A082400C700240045082300E2002400B9
:103C440046082300E300240047082300E400A631CB
:103C54009F269D31230062082400CC0023006308C2
:103C64002400CD00230064082400CE00480823006B
:103C7400C800240049082300C90024004A0823007E
:103C8400CA0024004C082300CB0024004D08230064
:103C9400CC0024004E082300CD00993124219D310D
:103CA400230048082400CF00230049082400D00042
:103CB40023004A082400D1004F08B8005008B90076
:103CC4005108BA009E318B269D3124003808C50066
:103CD4003908C6003A08C700520803190800450805
:103CE4002300B800240046082300B9002400470834
:103CF4002300BA00B331DC23230038082400C500B4
:103D0400230039082400C60023003A082400C70011
:103D1400080024003A0839043804031D982E0030A2
:103D2400B8008030B9003F30BA0008007230230078
:103D3400A0003130A1004430A20024003808230040
:103D4400A300240039082300A40024003A08230017
:103D5400A500A8319A209E310318BD2E22302600DA
:103D6400DB000030DC00FF302400B8007F30B900F5
:103D74007F30BA000800240038082300A000240083
:103D840039082300A10024003A082300A200493086
:103D9400A3003A30A400C430A500A8319A209E3173
:103DA4000318E12E22302600DB000030DC00003056
:103DB4002400B8000030B9000030BA000800240024
:103DC40038082300A000240039082300A10024009F
:103DD4003A082300A2000030A3000030A400003001
:103DE400A500A8319A209E310318FA2E0130FB2E2B
:103DF40000302400BB003B08C400440803191C2FF6
:103E040038082300B800240039082300B90024002E
:103E14003A082300BA00B331DC239E31230038086A
:103E24002400B800230039082400B90023003A080C
:103E34002400BA00AA302300C800B830C9003F30BB
:103E4400CA00240038082300CB00240039082300CA
:103E5400CC0024003A082300CD00993124219E315E
:103E6400230048082400B800230049082400B900AE
:103E740023004A082400BA003808B0003908B10009
:103E84003A08B200A7314F279E3124003008BC0005
:103E94003108BD003208BE003C082300EA002400BB
:103EA4003D082300EB0024003E082300EC00A4316D
:103EB400A8249E3123006B082400C30023006A0851
:103EC4002400C20043082300A90024004208230060
:103ED400A800B5317E259E3123002808C800290892
:103EE400C9002A08CA00240038082300CB00240093
:103EF40039082300CC0024003A082300CD00B43153
:103F0400FC249E31230048082400B80023004908FB
:103F14002400B90023004A082400BA00380823000A
:103F2400D800240039082300D90024003A082300CB
:103F3400DA000030DB00B030DC000930DD00003096
:103F4400DE00AE3150269E3123005808E2005908A5
:103F5400E3005A08E400240043082300E600240098
:103F640042082300E500883100209E3123006208C6
:103F74002400B800230063082400B9002300640867
:103F84002400BA00440803190800FF30BF007F3042
:103F9400C0007F30C1003A084106031DD72F3908FD
:103FA4004006031DD72F38083F06031DE02F0030BD
:103FB400B8000030B9000030BA0008003808230007
:103FC400A800240039082300A90024003A0823008B
:103FD400AA000030AB008030AC003F30AD00A5310A
:103FE400F625230028082400B8002300290824000B
:0C3FF400B90023002A082400BA000800CD
:1040020025003F082300B400B50133083506031D1F
:104012000C2832083406031908003208B4003408A8
:104022002500BF002300320C2200031C0D110318CF
:104032000D158D112300320C2700031C0D110318DE
:104042000D15230032083304031D2A2827008D147E
:104052002C2827008D1014302300AC000030AD0056
:10406200B631B026A03127000D118D1025003F0872
:104072002300B400B5013408A0003508A100803146
:104082000320A03114302300AC000030AD00B63163
:10409200B0260800C0302300A8007F30A9004430B9
:1040A200AA00240057082300AB002400580823006C
:1040B200AC00240059082300AD00A531F625A0313B
:1040C200230028082400DD00230029082400DE0044
:1040D20023002A082400DF005630C8008E30C900B1
:1040E200BF30CA005D08C5005E08C6005F08C70091
:1040F2009D315F25A03124004508E0004608E1001B
:104102004708E2009F302300C8006830C9004030F1
:10411200CA00240060082300CB00240061082300A9
:10412200CC00240062082300CD0099312421A03163
:10413200230048082400DA00230049082400DB0099
:1041420023004A082400DC005A08B0005B08B100D2
:104152005C08B200AC31F024A03124003008E30046
:104162003108E4003208E50063082300EA00240075
:1041720064082300EB00240065082300EC00A4314E
:10418200A82423006B082400D80023006A08240016
:10419200D7000800C0302300A8007F30A9004430B7
:1041A200AA00240057082300AB002400580823006B
:1041B200AC00240059082300AD00A531F625A0313A
:1041C200230028082400DD00230029082400DE0043
:1041D20023002A082400DF006A30C8009C30C9008E
:1041E200BF30CA005D08C5005E08C6005F08C70090
:1041F2009D315F25A03124004508E0004608E1001A
:104202004708E200E3302300C8000B30C900413008
:10421200CA00240060082300CB00240061082300A8
:10422200CC00240062082300CD0099312421A03162
:10423200230048082400DA00230049082400DB0098
:1042420023004A082400DC005A08B0005B08B100D1
:104252005C08B200AC31F024A03124003008E30045
:104262003108E4003208E50063082300EA00240074
:1042720064082300EB00240065082300EC00A4314D
:10428200A82423006B082400D80023006A08240015
:10429200D70008002000A901A31F5C29A009A109D9
:1042A200A209A309A00A0319A10A0319A20A031960
:1042B200A30AA901A90AA71F6D29A409A509A6098C
:1042C200A709A40A0319A50A0319A60A0319A70A2A
:1042D2000130FC007C08A9060030AD000030AC00C3
:1042E2000030AB000030AA0023082204210420047D
:1042F2000319B629A801A80AA31B8B290130A035EE
:10430200A10DA20DA30D890B80290130FC007C08B0
:10431200A8077D290130AA35AB0DAC0DAD0D890B77
:104322008C2923082702031DA02922082602031D27
:10433200A02921082502031DA02920082402031C0C
:10434200AB292008A4022108A53B2208A63B23088A
:10435200A73B2A140130A336A20CA10CA00C890B96
:10436200AC290130A802031D8B2929080319C4298D
:10437200AA09AB09AC09AD09AA0A0319AB0A0319C8
:10438200AC0A0319AD0A2D08A3002C08A2002B08C1
:10439200A1002A08A00008002300AA01A31FDE2909
:1043A200A009A109A209A309A00A0319A10A0319D4
:1043B200A20A0319A30AAA01AA0AA71FEF29A4099C
:1043C200A509A609A709A40A0319A50A0319A60A99
:1043D2000319A70A0130A8002808AA060030AE0077
:1043E2000030AD000030AC000030AB0023082204E6
:1043F200210420040319382AA901A90AA31B0D2AA2
:104402000130A035A10DA20DA30D890B022A0130A6
:10441200A8002808A907FF290130AB35AC0DAD0D66
:10442200AE0D890B0E2A23082702031D222A220819
:104432002602031D222A21082502031D222A200802
:104442002402031C2D2A2008A4022108A53B2208CD
:10445200A63B2308A73B2B140130A336A20CA10CC8
:10446200A00C890B2E2A0130A902031D0D2A2A084D
:104472000319462AAB09AC09AD09AE09AB0A031907
:10448200AC0A0319AD0A0319AE0A2E08A3002D08BF
:10449200A2002C08A1002B08A000080023005E083F
:1044A200BB005F08BC006008BD005B08B8005C0888
:1044B200B9005D08BA00B331DC23A2312300380809
:1044C200BE003908BF003A08C00090311620A23160
:1044D20023003B08A8003C08A9003D08AA00640884
:1044E200BB006508BC006608BD006108B800620830
:1044F200B9006308BA00B331DC23A23123003808C3
:10450200BE003908BF003A08C00090311620A2311F
:1045120023003B08C8003C08C9003D08CA005808EF
:10452200BB005908BC005A08BD005B08B8005C0813
:10453200B9005D08BA00B331DC23A2312300380888
:10454200BE003908BF003A08C00090311620A231DF
:1045520023003B08CB003C08CC003D08CD0099313C
:104562002421A23123004808AB004908AC004A08C4
:10457200AD00A531F625A23123002808E70029085D
:10458200E8002A08E9006108BB006208BC00630871
:10459200BD006708BE006808BF006908C00090310E
:1045A200162023003B08D8003C08D9003D08DA0059
:1045B200080020006D08F0006E08F1006F08F2009C
:1045C200A630F3000030F400B7315227A2312100A7
:1045D200A71F0D2B20006D08F0006E08F1006F0878
:1045E200F2000030F3000030F4000030F500B73183
:1045F200C527A2310318052B00302000ED008030C2
:10460200EE00BF30EF00080000302000ED00003067
:10461200EE000030EF0008000030210027021530C4
:10462200031926020318080020006D08E5006E0831
:10463200E6006F08E700A4310924A23120006808CF
:10464200FB006708FA006608F9006508F800A8315F
:104652005E20A23178082100A8007908A9007A0812
:10466200AA0020006D08F0006E08F1006F08F20049
:1046720021002808F3002908F4002A08F500B731C0
:10468200C527A2310318622B00302000AD00803014
:10469200AE00BF30AF00210028082000B00021008A
:1046A20029082000B10021002A082000B2009C3114
:1046B200692420002D08ED002E08EE002F08EF00DF
:1046C2000800210028082000ED0021002908200010
:1046D200EE0021002A082000EF000800003023002D
:1046E200BB008030BC003F30BD00240057082300CF
:1046F200AB00240058082300AC0024005908230012
:10470200AD00C030A8007F30A9004430AA00A53116
:10471200F625A33123002808B8002908B9002A0881
:10472200BA00B331DC23A33123003808BE003908B4
:10473200BF003A08C00090311620A33123003B0885
:104742002400DD0023003C082400DE0023003D0895
:104752002400DF006A30C8009C30C900BF30CA00A4
:104762005D08C5005E08C6005F08C7009D315F2571
:10477200A33124004508E0004608E1004708E200B2
:10478200E3302300C8000B30C9004130CA002400C6
:1047920060082300CB00240061082300CC00240021
:1047A20062082300CD0099312421A3312300480857
:1047B2002400DA00230049082400DB0023004A0811
:1047C2002400DC005A08B0005B08B1005C08B200AB
:1047D200AC31F024A33124003008E3003108E400B6
:1047E2003208E50063082300EA002400640823007D
:1047F200EB00240065082300EC00A431A824230068
:104802006B082400D80023006A082400D70008009F
:1048120020006508E9006608EA006708EB0003105B
:104822006A0D6B0DEC006C082100A5002508031D24
:10483200242C00302000E8000030E7000030E600C1
:104842000030E500080020006508E9006608EA007B
:104852006708EB001730EB36EA0CE90C890B2C2CBD
:104862006908EC006C082100A0002000E617FF3068
:10487200E505FF30E6050030E70565082100A100E7
:10488200200066082100A200200067082100A30082
:10489200A4018E30A502A51F6E2C2508803A8F3EFA
:1048A20003185D2C00302000E8000030E7000030E3
:1048B200E6000030E500080001302100A436A30C18
:1048C200A20CA10C890B5E2C01302000E9006908C2
:1048D2002100A50703198A2C5D2C18302502031C20
:1048E200862C00302000E8000030E7000030E600AF
:1048F2000030E500080001302100A135A20DA30D12
:10490200A40D890B7D2C0130A50221002508031D71
:104912007C2C20080319982CA109A209A309A40937
:10492200A10A0319A20A0319A30A0319A40A240853
:104932002000E800210023082000E70021002208CF
:104942002000E600210021082000E50008002300E5
:104952006A082400A00023006B082400A1002300A1
:104962006C082400A2000310210D220DA3002308CD
:10497200A9002908031DC72C00302300ED000030D8
:10498200EC000030EB000030EA00080023006A0867
:104992002400A00023006B082400A10023006C085F
:1049A2002400A2001730A236A10CA00C890BD42C33
:1049B2002008A3002308A4002300EB17FF30EA0518
:1049C200FF30EB050030EC056A082400A500230047
:1049D2006B082400A60023006C082400A700A8018D
:1049E2008E30A902A91F132D2908803A8F3E031881
:1049F200042D00302300ED000030EC000030EB000D
:104A02000030EA00080001302400A836A70CA60CEA
:104A1200A50C890B052D0130A0002008A907031958
:104A22002F2D042D18302902031C2B2D00302300BA
:104A3200ED000030EC000030EB000030EA0008002E
:104A420001302400A535A60DA70DA80D890B222D36
:104A52000130A90224002908031D212D240803196D
:104A62003D2DA509A609A709A809A50A0319A60AA1
:104A72000319A70A0319A80A28082300ED00240035
:104A820027082300EC00240026082300EB00240062
:104A920025082300EA00080020004708CA00480849
:104AA200CB004908CC0003104B0D4C0DCD004D0836
:104AB200D2005208031D642D0030C4000030C5002E
:104AC2000030C60008004408CA004508CB0046086A
:104AD200CC0003104B0D4C0DCD004D08D3005308F4
:104AE200031D7A2D0030C4000030C5000030C6001E
:104AF20008000030CF000030D0000030D1008930F3
:104B02005307CA004A08D2024708CA004808CB0025
:104B12004908CC001030CC36CB0CCA0C890B8C2D3A
:104B22004A08CD004D08D3004408CA004508CB000E
:104B32004608CC001030CC36CB0CCA0C890B9C2D0D
:104B42004A08CD004D08D3068030CA004A08D30572
:104B5200C817FF30C705FF30C8050030C905C517A3
:104B6200FF30C405FF30C5050030C6051830CA0045
:104B72004A08CE000130CF35D00DD10D890BBC2DA6
:104B820046084902031DCB2D45084802031DCB2DC3
:104B920044084702031CD42D4408C7024508C83BF9
:104BA2004608C93B4F140130C735C80DC90D890BE2
:104BB200D52D0130CE02031DBB2D4F08F000500849
:104BC200F1005108F2005208CA004A08F3005308E3
:104BD200CB004B08F400AE31B02670082000C400B0
:104BE2007108C5007208C600080023002B08AE0039
:104BF2002C08AF002D08B00003102F0D300DB100AE
:104C02003108B6003608031D0D2E0030A800003012
:104C1200A9000030AA0008002808AE002908AF0049
:104C22002A08B00003102F0D300DB1003108B70073
:104C32003708031D232E0030A8000030A9000030E1
:104C4200AA0008000030B3000030B4000030B50004
:104C520089303707AE002E08B6022B08AE002C08AA
:104C6200AF002D08B0001030B036AF0CAE0C890B7F
:104C7200352E2E08B1003108B7002808AE002908E9
:104C8200AF002A08B0001030B036AF0CAE0C890B62
:104C9200452E2E08B1003108B7068030AE002E082E
:104CA200B705AC17FF30AB05FF30AC050030AD05E2
:104CB200A917FF30A805FF30A9050030AA05183052
:104CC200AE002E08B2000130B335B40DB50D890B1C
:104CD200652E2A082D02031D742E29082C02031D9D
:104CE200742E28082B02031C7D2E2808AB022908EB
:104CF200AC3B2A08AD3B33140130AB35AC0DAD0DE6
:104D0200890B7E2E0130B202031D642E3308A000EF
:104D12003408A1003508A2003608AE002E08A30010
:104D22003708AF002F08A40098310C202300200878
:104D3200A8002108A9002208AA000800230062088E
:104D4200A0006308A1006408A2000030A3000030A4
:104D5200A4000030A500A8319A20A6310318BE2E67
:104D620021302600DB000030DC0000302300E200AE
:104D72000030E3000030E40008002300640863040C
:104D82006204031DD12E22302600DB000030DC003D
:104D920000302300E2000030E3000030E4000800AD
:104DA2000030BB008030BC00BF30BD000030C80006
:104DB2000030C9004030CA00E530A3000130A40031
:104DC2006208A0006308A1006408A200A931502172
:104DD200A63123002008CB002108CC002208CD00F8
:104DE20099312421A63123004808BE004908BF009A
:104DF2004A08C00090311620A63123003B08E20089
:104E02003C08E3003D08E400FF30E507FF30E63DE3
:104E12006208D8006308D9006408DA001E30DB009B
:104E2200B030DC000830DD000030DE00AE3150264C
:104E3200A63123005808E2005908E3005A08E400AA
:104E42006208BB006308BC006408BD007230C80081
:104E52003130C9003F30CA006608A9006508A800C1
:104E6200B5317E25A63123002808CB002908CC00C5
:104E72002A08CD0099312421A63123004808BE001A
:104E82004908BF004A08C0009031162023003B08A1
:104E9200E2003C08E3003D08E4000800240030087A
:104EA2002300A000240031082300A10024003208BE
:104EB2002300A2003630A3000230A400A931502101
:104EC200A7312400B71F8B2F30082300A000240035
:104ED20031082300A100240032082300A200003080
:104EE200A3000030A4000030A500A8319A20A73109
:104EF2000318832F00302400B0008030B100BF308F
:104F0200B200080000302400B0000030B1000030D0
:104F1200B2000800003037021530031936020318B8
:104F2200080030082300EA00240031082300EB00C7
:104F3200240032082300EC00A431A824A731230066
:104F42006D082400AD0023006C082400AC0023008F
:104F52006B082400AB0023006A082400AA00AB31CE
:104F6200B023A73124002A08B3002B08B4002C0870
:104F7200B50030082300A000240031082300A1005E
:104F8200240032082300A200240033082300A300D7
:104F9200240034082300A400240035082300A500BF
:104FA200A8319A20A7310318F82F00302300BB0044
:104FB2008030BC00BF30BD00240033082300BE0097
:104FC200240034082300BF00240035082300C00059
:104FD2009031162023003B082400B00023003C0837
:104FE2002400B10023003D082400B2000800240080
:104FF2003308B0003408B1003508B20008002000C0
:105002002D08F0002E08F1002F08F2000030F30006
:105012000030F4000030F500B731C527A83103187D
:10502200080020002D08AA002E08AB002F08AC00B3
:10503200B331CA2320002A08AD002B08AE002C0889
:10504200AF00080022000F108F100F118F110F12E6
:10505200402822000F14080022008F1408002200AA
:105062000F15080022008F15080022000F160800F5
:1050720022000F148F140F158F150F16080023002E
:105082002108003A031946285D282008013A03192D
:105092002A28033A03192D28013A03193028073A1E
:1050A20003193328013A03193628033A03195D28F4
:1050B200623A031939285D2808002000A1018E30C8
:1050C200FC007C08A000FB1F7328F809F909FA0903
:1050D200FB09F80A0319F90A0319FA0A0319FB0A68
:1050E200A101A10AFF307B05031983280130FB3699
:1050F200FA0CF90CF80C890B78280130FC007C08BA
:10510200A00773287808F0007908F1007A08F20005
:105112002008FC007C08F3002108FD007D08F40053
:10512200AE31B0267008F8007108F9007208FA0072
:1051320008002300A21FB1282009A6002109A70008
:105142002209A800A60A0319A70A0319A80A00300F
:105152002607A0000030273DA1008030283DA20094
:10516200A51FC7282309A6002409A7002509A8000E
:10517200A60A0319A70A0319A80A00302607A300E2
:105182000030273DA4008030283DA5008030A206D3
:105192008030A50625082202031D080024082102EA
:1051A200031D0800230820020800220038082100FD
:1051B200E200220039082100E30022003A0821001F
:1051C200E400220035082100DF0022003608210019
:1051D200E000220037082100E1009231B922A83113
:1051E20021006008DA005F08D900B5315C25A831DA
:1051F20021005908E5005A08E6005B08E700B631CD
:10520200E226A83121006608EB006508EA006B0877
:10521200FA006A08F9006430FB000030FC00B43187
:10522200C0240800220064082300BA00BB01390828
:105232003B06031D1E2938083A06031908003808E0
:10524200BA003A082200E400230038033904031D9F
:105252002D2922000D128D1222006403031D4829FC
:105262006608031D3D29E601E60A8D1025003D086A
:10527200B7318B27A93148292200E601B5311A2519
:10528200A931B4315424A93190310220A93114300A
:105292002300AC000030AD00B631B0260800230078
:1052A200220821042004031D6429230886002408FF
:1052B20087000030C03FC13F0030A0000030A10095
:1052C2000030A200080022087F39A500A601A535FA
:1052D200A60D23088600240887002508C03F26085B
:1052E200C13F210D210D0139A500A6012308860029
:1052F20024088700250881044131260881042308F7
:10530200860024088700823081074131FF30813DC9
:105312007F31220880393F38A200A11308001E30D5
:105322002300B2003208B4006430A0000030A100B3
:105332000130A2000030A300AD314225A931643012
:105342002300A0000030A100A8312320A9312300AE
:105352003408B200B3013208AC003308AD00B631F4
:10536200B026A93100302300A000A1000130A20024
:105372000030A300AD314225A93100302300A00046
:10538200A100A8312320A93123003408B200B301BF
:105392003208AC003308AD00B631B0260800003048
:1053A2002000A3000030A2000330A100E830A000DA
:1053B2000C30B600F230B7000130B8000030B9004E
:1053C2003508F3003408F2003308F1003208F00027
:1053D2003108F7003008F6002F08F5002E08F40017
:1053E200B531F025A93170082000B6077108B73D24
:1053F2007208B83D7308B93D3908A7003808A600FD
:105402003708A5003608A400A1314B21200023084B
:10541200B1002208B0002108AF002008AE00080049
:1054220022001D1021000E118E1026000D108D116C
:105432000D122100101390121012901110110F3042
:10544200250093040F309A040F30260093040F3086
:105452009A040F309E040F302C0093040F309604F0
:105462000F3099040F309C040F309F0425009D01DA
:105472009E019F010030920032309100003099006D
:10548200643098000030260092009630910000307F
:105492009900C8309800B331D323AA31B331B32372
:1054A2000800FF302200EF002300A20022082100A2
:1054B200ED00652A67302300632A3330632A1F30E8
:1054C200632A19309B00882A23002108253A0319F0
:1054D200742A6E3A0319792A313A03197E2AEC3A70
:1054E2000319832A882A2008803A03195B2A882A0A
:1054F2002008003A03195E2A882A2008123A031962
:10550200602A882A2008003A0319622A882A1E1370
:105512009E161E121E159D171D131D169D1121008C
:1055220091160B178B17080021005108F000520842
:10553200F1005308F200D730F3000030F400B73125
:105542005227AA312100D81FAD2A0030D1000030E5
:10555200D2000030D3000800003058021530031981
:1055620057020318080051082000E50021005208E4
:105572002000E600210053082000E700A43109249E
:10558200AA3120006808FB006708FA006608F900E3
:105592006508F800A8315E2078082100D400790857
:1055A200D5007A08D6005408D1005508D200560812
:1055B200D300080020000F1BE52A25005508031917
:1055C200F02A0130D502F02A1930250055020318BD
:1055D200F02A01302300B20032082500D507550811
:1055E200031D08002408013EA4000030253DA5004B
:1055F2002508803A2300B20080303202031D042BBA
:10560200073025002402031C0B2B01302500A400C7
:105612000030A500250025082300A100250024084C
:105622002300A000A8312320AA3120000F1F162B2F
:1056320014302300AC000030AD00B631B0260800B3
:1056420021003F08B9004008BA004108BB00AF3151
:105652001427AB3121003908C2003A08C3003B08C5
:10566200C4003F08AB004008AC004108AD009131D6
:105672000C21AB3121002B08C5002C08C6002D08D7
:10568200C70042082000C400210043082000C500D2
:10569200210044082000C600210045082000C70060
:1056A200210046082000C800210047082000C90048
:1056B200A5314D25200044082100BF0020004508E7
:1056C2002100C000200046082100C1000800270078
:1056D2000C108C100C118C110C12932B720C031CDD
:1056E2000C1003180C140800720C031C8C10031805
:1056F2008C140800720C031C0C1103180C15080002
:10570200720C031C8C1103188C150800720C031CFC
:105712000C1203180C1608000C148C140C158C15A2
:105722000C1608007108003A0319982BAF2B700869
:10573200013A03196F2B033A0319752B013A031926
:105742007B2B073A0319812B013A0319872B033A62
:105752000319AF2B623A03198D2BAF2B08002400DB
:10576200AF018E302300EE006E082400AE00AD1FA4
:10577200C72BAA09AB09AC09AD09AA0A0319AB0ADE
:105782000319AC0A0319AD0AAF01AF0AFF302D05A8
:105792000319D92B0130AD36AC0CAB0CAA0C890B1A
:1057A200CC2B01302300EE006E082400AE07C72B7D
:1057B2002A082300A00024002B082300A1002400B3
:1057C2002C082300A20024002E082300EE006E08FD
:1057D200A30024002F082300EF006F08A4009831D3
:1057E2000C20230020082400AA0023002108240002
:1057F200AB00230022082400AC00080020008F1A0E
:10580200092C250060080319142C0130E002142C25
:105812001930250060020318142C01302300B20055
:1058220032082500E0076008031D080022006B080B
:10583200013EEB0000306C3DEC006C08803A230026
:10584200B20080303202031D292C073022006B0285
:10585200031C302C01302200EB000030EC0022004F
:105862006C082300A10022006B082300A000013075
:10587200A2000030A300AD314225AB310130260039
:10588200E5000030E60020008F1E442C1430230077
:10589200AC000030AD00B631B02608000130230064
:1058A200B3000030B4003408803AB20080303202D3
:1058B200031D5D2C073033020318832C23003408A8
:1058C200A1003308A0000130A2000030A300AD31D6
:1058D2004225AC3105302300AC000030AD00B631BA
:1058E200B026AC3101302300B3070030B43D340898
:1058F200803AB20080303202031D812C073033021D
:10590200031C5F2C05302300B5000030B600B61B27
:1059120008003608A1003508A000A8312320AC31C8
:1059220005302300AC000030AD00B631B026AC31FA
:10593200FF302300B507FF30B63D882CF601F11F7A
:10594200A92CF009F109F00A0319F10AF601F60A85
:10595200F31FB42CF209F309F20A0319F30A013016
:10596200F4007408F606F701F801700871040319CF
:10597200E32CF501F50AF11BC82C0130F035F10DCD
:10598200890BBF2C0130F4007408F507BC2C0130E0
:10599200F735F80D890BC92C71087302031DD32C3E
:1059A20070087202031CDA2C7008F2027108F33BD1
:1059B20077140130F136F00C890BDB2C0130F50243
:1059C200031DC82C76080319EB2CF709F809F70A0E
:1059D2000319F80A7808F1007708F000080024009B
:1059E20030082300A000240031082300A100240075
:1059F20032082300A2003630A3000230A400A931ED
:105A02005021AC312400B71F0D2D0030B000003002
:105A1200B1000030B200080000303702153003191F
:105A220036020318080030082300EA002400310877
:105A32002300EB00240032082300EC00A431A82448
:105A4200AC3123006D082400AD0023006C08240053
:105A5200AC0023006B082400AB0023006A0824007A
:105A6200AA00AB31B02324002A08B3002B08B400EB
:105A72002C08B5003308B0003408B1003508B20074
:105A8200080027000C108C100C118C110C12782DB0
:105A92002300220C2700031C0C1003180C1408000E
:105AA2002300220C2700031C8C1003188C140800FE
:105AB2002300220C2700031C0C1103180C150800EC
:105AC2002300220C2700031C8C1103188C150800DC
:105AD2002300220C2700031C0C1203180C160800CA
