:100000008231DD2A080001347E14803120007F080F
:10001000BF000B1DD82A23003E080319D72A200051
:100020004B084A0449044804031D1B2823005A08AE
:10003000B9005908B80001302000BA000030BB00F8
:100040000030BC000030BD004808BA074908BB3D7D
:100050004A08BC3D4B08BD3D3D08CB003C08CA00EA
:100060003B08C9003A08C8000130BA000030BB00A4
:100070000030BC000030BD004008BA074108BB3D5D
:100080004208BC3D4308BD3D3D08C3003C08C200DA
:100090003B08C1003A08C0000130BA000030BB0084
:1000A0000030BC000030BD004408BA074508BB3D25
:1000B0004608BC3D4708BD3D3D08C7003C08C6009A
:1000C0003B08C5003A08C4000130BA000030BB004C
:1000D0000030BC000030BD00230024082000BA0717
:1000E000230025082000BB3D230026082000BC3D3E
:1000F000230027082000BD3D3D082300A700200065
:100100003C082300A60020003B082300A500200097
:100110003A082300A4000130A0070030A13D0030C0
:10012000A23D0030A33DAF31772780317008200019
:10013000BA003A08FD00230038082000BA00230066
:1001400039082000BB000030BB1BFF30BC00BD00E5
:1001500023002708803A2000BE003D08803A3E0276
:100160002300031DC32820003C0823002602031D92
:10017000C32820003B0823002502031DC3282000BC
:100180003A0823002402031CEF287D082000BA004F
:10019000BB012300580820003B06031DD328230081
:1001A000570820003A06031DEF2823005A08390695
:1001B000031DDC2859083806031DEF2820004009DC
:1001C000BA004109BB00BA0A0319BB0A52083A0730
:1001D0002300B800200053083B3D2300B900220053
:1001E0006A03031D0A2901302300B2070030B33D22
:1001F000330820005902031D012923003208200082
:10020000580203180A2959082300B300200058088F
:100210002300B20022006B03031D252901302300B7
:10022000B4070030B53D350820005902031D1C29D4
:1002300023003408200058020318252959082300F8
:10024000B500200058082300B40020005D08031DFD
:1002500085294E08031D85295108031D85294B0852
:10026000803ABA0023004A08803A20003A02031D6F
:1002700049292300490820004A02031D4929230077
:10028000480820004902031D49292300470820008F
:100290004802031C732922000D1600302000CB00F9
:1002A0000030CA000030C9000030C80023004203FB
:1002B000031D7329C201E40120005508C30054083E
:1002C000C2005308C1005208C00023005A08B900F8
:1002D0005908B8003808A4003908A500890D893BE1
:1002E0008909A600A7002000CB1B85294B08031D08
:1002F00083294A08031D83294908031D83291E30C9
:100300004802031C852922000D1220005108031DFC
:10031000D7295008031DD7294308803ABA00550849
:10032000803A3A02031D9E2954084202031D9E2969
:1003300053084102031D9E2952084002031CB9299B
:1003400022006D08031DB02920005B08F1005A0847
:10035000F0000130F2000030F300A331BD23803102
:1003600000302000C3000030C2000030C100003067
:10037000C000C31BD7294308031DC8294208031D19
:10038000C8294108031DC82914304002031CD7297D
:1003900022006D08031DD72920005B08F1005A08D0
:1003A000F0000030F200F300A331BD2380312000C3
:1003B0005103031D072A2300A31BF6292308031D4D
:1003C000EB292208031DEB292108031DEB29FA3034
:1003D0002002031CF62922000D1400302300A30084
:1003E0000030A2000030A1000030A000A31B072AAB
:1003F0002308031D052A2208031D052A2108031DC1
:10040000052A1E302002031C072A22000D1023009B
:1004100038082000BA00230039082000BB00003053
:10042000BB1BFF30BC00BD0023002708803A200022
:10043000BE003D08803A3E022300031D2F2A200003
:100440003C0823002602031D2F2A20003B0823001E
:100450002502031D2F2A20003A0823002402031C32
:100460009F2A0030A7000030A6000030A500003011
:10047000A4005808803A2000BA0080303A02031DD8
:10048000442A7D0823005702031C4D2A2300D7016C
:10049000D8015A08B9005908B800230058082000AC
:1004A000BB00230057082000BA00BA35BB0D8A30C4
:1004B000BC002330BD003A083C0786003B083D3DA8
:1004C0008700403F2400CF00413FD0004F0820006C
:1004D000AE00240050082000AF00890D893B890937
:1004E000B000B100240041082000B20024004208FE
:1004F0002000B300890D893B8909B400B500A23101
:10050000F722803120002F082400D00020002E0880
:100510002400CF000230F0000030F1005008F3005A
:100520004F08F200A431ED248031710826009200BA
:100530007008910001302300D7070030D83D4303F5
:10054000031DD12A01302000BA003A082200EC072E
:1005500023004C08803A803C031DB12A4B0822003E
:100560006C02031CCF2A22008D1423004C082000AB
:10057000BB0023004B082000BA00BA35BB0D3B0876
:10058000803ABC0080303C02031DCA2A22006C085D
:1005900020003A020318D72A2200EC01D72A2200B1
:1005A000D62A22006C080319D72AEC018D100B11F2
:1005B00020003F08FF007E1009008231DF2A8A30C8
:1005C0008400233085006630FE000230FF00AD312C
:1005D000CF25823140308400003085001230FE008B
:1005E0000030FF00AD31CF2582312200EA01EB015E
:1005F000EC01ED01EE01A0308400013085002730D0
:10060000FE000030FF00AD31CF2582312030840064
:10061000023085003530FE000030FF00AD31CF25BF
:100620008231A0308400023085002C30FE00003082
:10063000FF00AD31CF2582312030840003308500AA
:100640004030FE000030FF00AD31CF258231A030B8
:100650008400033085004030FE000030FF00AD31E3
:10066000CF25823101308400A030850052308600D1
:10067000003087000030FF000E30AD31C3258231DD
:10068000803103208231EF00C2308400AE3085001B
:10069000C7308600013087000030FF002030AD31C8
:1006A000C325823124008731FE278231E300873160
:1006B000FF27E4007E10200083315E2B9831592003
:1006C000833112302100A0007A30A100A3317923B8
:1006D0008331AD3198258331A0310F208331200043
:1006E000101490140F178F160E148F17AF31272781
:1006F00083318731EF278331A7310E2783318D3145
:10070000BA258331A031D72083319831002083313D
:1007100092313D228331200051030319922B8B31FA
:10072000D3238331200051030319A12B5008230048
:1007300065060319A12BA43105248331A4314F246C
:1007400083310030AD31DB258331210021082300C6
:10075000A900210020082300A8000130AD31DB25CD
:100760008331210021082300AB0021002008230051
:10077000AA000230AD31DB2583312100210823009E
:10078000AD00210020082300AC000330AD31DB2593
:100790008331210021082300AF002100200823001D
:1007A000AE000430AD31DB25833121002108230068
:1007B000B100210020082300B0004D092400D5001D
:1007C00023004E092400D600D50A0319D60A2300B7
:1007D000280824005507D700230029082400563D87
:1007E000D8005808803AD90080305902031DFA2BEE
:1007F0000430570203181C2C23004D092400D50097
:1008000023004E092400D600D50A0319D60A230076
:10081000280824005507D700230029082400563D46
:10082000D8005808803AD9007F305902031D1A2C8D
:10083000FD30570203187A2C23002908CE0028081F
:10084000CD004E082100A90023004D082100A8007A
:10085000AE31E2268331210028082400DA0021008D
:1008600029082400DB0021002A082400DC005A08A3
:100870002200E70024005B082200E80024005C0856
:100880002200E9009C310024833122006808260000
:100890009900220067082600980023004E082100D6
:1008A000A90023004D082100A800AE31E2268331C3
:1008B000210028082400DD00210029082400DE0092
:1008C00021002A082400DF005D082200E700240040
:1008D0005E082200E80024005F082200E9009D3144
:1008E000D12583312200680826009D002200670878
:1008F00026009C0023004F092400D5002300500946
:100900002400D600D50A0319D60A23002A08240099
:100910005507D70023002B082400563DD80058085F
:10092000803AD90080305902031D982C04305702B8
:100930000318BA2C23004F092400D50023005009C6
:100940002400D600D50A0319D60A23002A08240059
:100950005507D70023002B082400563DD80058081F
:10096000803AD9007F305902031DB82CFD30570260
:100970000318302D23002B08D0002A08CF004F0980
:100980002400D500230050092400D600D50A0319FD
:10099000D60A5508FF3E2100A80003302400563D2A
:1009A0002100A900AE31E22683312100280824006D
:1009B000E000210029082400E10021002A08240089
:1009C000E20060082200E700240061082200E8003D
:1009D000240062082200E9009931DE2183312200DF
:1009E0006808250092002200670825009100230076
:1009F0004F092400D500230050092400D600D50A51
:100A00000319D60A5508FF3E2100A8000330240030
:100A1000563D2100A900AE31E2268331210028088D
:100A20002400E000210029082400E10021002A0818
:100A30002400E20060082200E70024006108220090
:100A4000E800240062082200E9009931DE218331A8
:100A500022006808250099002200670825009800F8
:100A6000230051092400D500230052092400D60098
:100A7000D50A0319D60A23002C0824005507D700ED
:100A800023002D082400563DD8005808803AD9008C
:100A900080305902031D4E2D043057020318702D6B
:100AA000230051092400D500230052092400D60058
:100AB000D50A0319D60A23002C0824005507D700AD
:100AC00023002D082400563DD8005808803AD9004C
:100AD0007F305902031D6E2DFD3057020318DC2DA7
:100AE00023002D08D2002C08D10080302100EA001C
:100AF0009D30EB004330EC000030E7003430E8007C
:100B00004230E900C030E4007F30E5004430E600C8
:100B10000030E1000030E2000030E3002300520822
:100B20002100A900230051082100A800AE31E226CF
:100B3000833121002808DE002908DF002A08E000B0
:100B40009A31EA22833121005E082200A0002100B0
:100B50005F082200A100210060082200A2009A3153
:100B600063228331220021082300DC0022002008B8
:100B70002300DB00C201C20A5C08803A2400D500D1
:100B800080305502031DC72DAF3023005B02031CCC
:100B9000DA2D23005C08803A2400D500803055020D
:100BA000031DD52DB93023005B020318DA2D220076
:100BB0008D14DC2D22008D10230053092400D50054
:100BC000230054092400D600D50A0319D60A2300AD
:100BD0002E0824005507D70023002F082400563D77
:100BE000D8005808803AD90080305902031DFA2DE8
:100BF0000430570203181C2E230053092400D5008B
:100C0000230054092400D600D50A0319D60A23006C
:100C10002E0824005507D70023002F082400563D36
:100C2000D8005808803AD9007F305902031D1A2E87
:100C3000FD30570203186D2E23002F08D4002E0814
:100C4000D30040302100EA003030EB004530EC00AA
:100C50000030E7003430E8004330E900C030E40001
:100C60007F30E5004430E6000030E1000030E20073
:100C70000030E300230054082100A900230053089A
:100C80002100A800AE31E226833121002808DE00D1
:100C90002908DF002A08E0009A31EA228331210086
:100CA0005E082200A00021005F082200A1002100B0
:100CB00060082200A2009A316322833122002008BA
:100CC0002300C700220021082300C800890D893BAA
:100CD0008909C900CA00E401E40A23005509240077
:100CE000D500230056092400D600D50A0319D60AD8
:100CF0002300300824005507D700230031082400C2
:100D0000563DD8005808803AD90080305902031D5A
:100D10008B2E043057020318AD2E230055092400F2
:100D2000D500230056092400D600D50A0319D60A97
:100D30002300300824005507D70023003108240081
:100D4000563DD8005808803AD9007F305902031D1B
:100D5000AB2EFD3057020318F72E23003108D600C2
:100D60003008D50000302100EA000030EB000030F0
:100D7000EC006030E7009F30E8004430E900C0300C
:100D8000E4007F30E5004430E6000030E100003050
:100D9000E2000030E300230056082100A9002300F0
:100DA00055082100A800AE31E22683312100280831
:100DB000DE002908DF002A08E0009A31EA228331A8
:100DC00021005E082200A00021005F082200A1008F
:100DD000210060082200A2009A31632283312200A0
:100DE00021082400C200220020082400C1002300A2
:100DF0006403031D312F4A082000D5002300490851
:100E00002000D400230048082000D3002300470816
:100E10002000D200230048082200AF00230047082A
:100E20002200AE0020005B082200B10020005A081A
:100E30002200B0009B317523833122002E08200050
:100E4000D20022002F082000D300890D893B890998
:100E5000D400D500A531902583312300C201C20AF8
:100E6000E4014203031D822B8D31BA258331230017
:100E7000BE01BE0A822B21002E08B4002F08B50047
:100E80003008B6000310350D360DB7003708B8002E
:100E90003808031D522F0030AE000030AF00003084
:100EA000B00008003108B4003208B5003308B600BD
:100EB0000310350D360DB7003708BD003D08031D82
:100EC000682F0030AE000030AF000030B0000800E6
:100ED0003D087B3EB4003408B8072E08B4002F0844
:100EE000B5003008B6001030B636B50CB40C890B1E
:100EF000742F3408B7003708BD003108B400320839
:100F0000B5003308B6001030B636B50CB40C890BFA
:100F1000842F3408B7003708BD068030B400340889
:100F2000BD05AF17B217FF30B105FF30B205003075
:100F3000B3050030B9000030BA000030BB00073004
:100F4000B4003408BC002E1CAB2F3108B90732089E
:100F5000BA3D3308BB3D0130B036AF0CAE0C890B47
:100F6000AC2F0130B135B20DB30D890BB22F01306A
:100F7000BC02031DA32F0930B4003408BC002E1C92
:100F8000C72F3108B9073208BA3D3308BB3D0130DD
:100F9000B036AF0CAE0C890BC82F0130BB36BA0C83
:100FA000B90C890BCE2F0130BC02031DBF2F3908AD
:100FB000A0003A08A1003B08A2003808B400340899
:100FC000A3003D08B5003508A400A631372621004E
:100FD0002008AE002108AF002208B0000800AD31A3
:100FE0009C25873121002108BB002008BA003B085E
:100FF000B7003A08B600AE316A2608000134003462
:1010000020004F082100A200A30121082306031D90
:101010000B2820082206031908002008A200220835
:101020002000CF002100200C2200031C8D1103188A
:101030008D152100200C2000031C0E1203180E1623
:1010400008002200CB013E082100A00022003F083A
:101050002100A100220040082100A2000030A300CE
:101060000030A4000030A500A1318421883103188C
:10107000562822003E082100BE0022003F08210021
:10108000BF00220040082100C000AD31B0258831EA
:1010900021003E082200BE0021003F082200BF00C0
:1010A000210040082200C000CB01CB0AFA30210009
:1010B000AE002230AF003E30B00022003E082100DA
:1010C000B10022003F082100B200220040082100A8
:1010D000B30087313B27883121002E082200BE0053
:1010E00021002F082200BF00210030082200C0008C
:1010F0003E08AE003F08AF004008B0009E317C269D
:10110000883122002E08B7002F08B8003008B90037
:101110003E08BA003F08BB004008BC00AF31A3271F
:10112000883122003708BE003808BF003908C000E7
:1011300000302100AE008030AF004030B00022000F
:101140003E082100B10022003F082100B200220029
:1011500040082100B30087313B27883121002E0849
:101160002200BE0021002F082200BF00210030080D
:101170002200C00000302100A0000030A10040305B
:10118000A20022003E082100A30022003F08210007
:10119000A400220040082100A500A131842188314B
:1011A0000318F22800302200B7000030B8004030A9
:1011B000B9003E08BA003F08BB004008BC00AF3190
:1011C000A327883122003708BE003808BF0039083D
:1011D000C0004B08031DEE280130EF280030C1008D
:1011E0004108CB0000302100A0008030A1003F303A
:1011F000A20022003E082100A30022003F08210097
:10120000A400220040082100A500A13184218831DA
:101210000318362900302100C1000030C2004030E0
:10122000C30022003E082100BE0022003F0821002A
:10123000BF00220040082100C000AD31B025883138
:1012400021003E08C4003F08C5004008C600903198
:1012500031208831210041082200BE0021004208CF
:101260002200BF00210043082200C00022003E08E7
:101270002100AE0022003F082100AF0022004008FC
:101280002100B00022003E082100B10022003F08EA
:101290002100B200220040082100B30087313B2723
:1012A000883121002E082200C80021002F082200CA
:1012B000C900210030082200CA004808B4004908CB
:1012C000B5004A08B6004830B700A830B80003306F
:1012D000B9000030BA00A6319C26883122003408BB
:1012E000C2003508C3003608C4000430B90000301D
:1012F000BA003930B700A830B8004808B40049082F
:10130000B5004A08B600A6319C2688312200340870
:101310002100D100220035082100D2002200360829
:101320002100D300220042082100CE002200430801
:101330002100CF00220044082100D0009D31282543
:10134000883121004E082200C50021004F082200EC
:10135000C600210050082200C70045082100AE0049
:10136000220046082100AF00220047082100B000FB
:1013700022003E082100B10022003F082100B200F7
:10138000220040082100B30087313B27883121002B
:101390002E082200BE0021002F082200BF002100DD
:1013A00030082200C0004B08031908003E08210045
:1013B000BE0022003F082100BF002200400821009B
:1013C000C000AD31B02521003E082200BE00210042
:1013D0003F082200BF00210040082200C000080092
:1013E00000302200BA008030BB003F30BC0000302B
:1013F000B7000030B8000030B90031082100A0006B
:10140000220032082100A100220033082100A2009E
:1014100022002E082100A30022002F082100A40092
:10142000220030082100A500A13184218931031C4C
:10143000252A220031082100CE0022003208210096
:10144000CF00220033082100E02A220031082100C9
:10145000B100220032082100B2002200330821002E
:10146000B3000030AE000030AF004030B000873134
:101470003B27893121002E08BE002F08BF0030080D
:10148000C000AD31B025893121003E08C4003F08BD
:10149000C5004008C6000030C100B430C20043306F
:1014A000C300903131208931210041082200B4006D
:1014B000210042082200B500210043082200B600A6
:1014C00034082100BE00220035082100BF002200A0
:1014D00036082100C000AD31B025893121003E0819
:1014E000AE003F08AF004008B0000030C100B4308B
:1014F000C2004330C300220031082100BE00220098
:1015000032082100BF00220033082100C000AD31A5
:10151000B025893121003E08C4003F08C5004008BD
:10152000C60090313120893121004108CE004208A7
:10153000CF004308D0000030D1003430D200433017
:10154000D3009D312825893121004E08B1004F0874
:10155000B2005008B30087313B27893121002E08A3
:101560002200B70021002F082200B8002100300817
:101570002200B90000302100C100B430C200433065
:10158000C300220031082100BE00220032082100E1
:10159000BF00220033082100C000AD31B0258931E1
:1015A00021003E08C4003F08C5004008C600903135
:1015B0003120893121004108CE004208CF00430884
:1015C000D0000030D1003430D2004330D3009D3100
:1015D0002825893121004E082200BA0021004F0839
:1015E0002200BB00210050082200BC003708210067
:1015F000BE00220038082100BF0022003908210067
:10160000C000AD31B025893121003E08C1003F083E
:10161000C2004008C30022002E082100AE002200B4
:101620002F082100AF00220030082100B000220066
:101630003A082100B10022003B082100B20022003C
:101640003C082100B30087313B27893121002E0857
:10165000C4002F08C5003008C60090313120893100
:10166000210041082200BD00210042082200BE00E6
:10167000210043082200BF0000302100A0003430C8
:10168000A1004330A20022003D082100A300220057
:101690003E082100A40022003F082100A500A1313E
:1016A000842189310318672B00302100C100873065
:1016B000C200C330C30022003D082100C400220044
:1016C0003E082100C50022003F082100832B003086
:1016D0002100C100B430C2004230C30022003D08E6
:1016E0002100BE0022003E082100BF0022003F086A
:1016F0002100C000AD31B025893121003E08C40071
:101700003F08C5004008C6009031312089312100D2
:1017100041082200BD00210042082200BE00210035
:1017200043082200BF0000302100CE001030CF005F
:101730004130D0000030AE002030AF00C130B000EA
:1017400022003D082100B10022003E082100B20025
:1017500022003F082100B30087313B278931210057
:101760002E08D1002F08D2003008D3009D31282543
:10177000893121004E082200BD0021004F082200BF
:10178000BE00210050082200BF003D08A0003E0816
:10179000A1003F08A2009A31632222002108AF0075
:1017A0002008AE0008002100C40120001018DF2B23
:1017B00022006E080319EA2B0130EE02EA2B1930E1
:1017C00022006E020318EA2B01302100BC003C0805
:1017D0002200EE076E08031DA02D2000C71B752CEC
:1017E0004708031DFC2B4608031DFC2B1B3044023D
:1017F0000630453B031C752C2300450303193B2C85
:10180000C501C50A00302000C7000030C600003006
:10181000C5000030C40001302300DD000030DE00D0
:1018200000302400C0000030BF000030BE00003097
:10183000BD002300E4012100C401C40A44082000C3
:101840005E02031C3B2C21004408BC000130BC3567
:10185000FF3E031D272C3C35203E860002308700CA
:101860000030C03F0030C13FC23FC33F0130BC0029
:101870003C08C4071E2C22006B08031D462CEB01FC
:10188000EB0A2000DD012300B401B5012000590856
:1018900023003502031D502C200058082300340279
:1018A000031C080020005D08031D08004E08031DEE
:1018B000080059082300B500200058082300B40090
:1018C00022000D126A0303196D2C01302100A000C3
:1018D0000030A100AE313426080001302100B800EC
:1018E0000030B900A2313A2208002000C71B842C26
:1018F0004708031D08004608031D08001B3044026A
:101900000630453B031808005D08031D080023004E
:10191000450303190800C501C50A2000C71BA42CF4
:101920004708031D9C2C4608031D9C2C9430440240
:101930000430453B031CA42C0030C7000030C60017
:101940000430C5009430C4005E082100BC00BD0115
:101950003C08C2003D08C30023005E08803A803C7A
:10196000031DB52C5D0820005E02031CE72C20003F
:1019700044082400BD07200045082400BE3D200087
:1019800046082400BF3D200047082400C03D230036
:101990005D082100BC000130BC35FF3E031DCC2C8E
:1019A0003C35203E86000230870020004408C03FBE
:1019B0004508C13F4608C23F4708C33F23005E08B1
:1019C0002100C30023005D082100C200632D003008
:1019D0002400C0000030BF000030BE000030BD0059
:1019E0002100C401C40A20005E082100440203183B
:1019F0003D2D4408BC000130BC35FF3E031DFC2CCE
:101A00003C35043E203E860002308700403FBD004A
:101A1000413FBE00423FBF00433FC0004408C100F9
:101A20000130C135FF3E031D112D4135203E86009A
:101A3000023087003D08C03F3E08C13F3F08C23F1B
:101A40004008C33F4408BC000130BC35FF3E031DC5
:101A5000252D3C35203E860002308700403F240083
:101A6000BD07413FBE3D423FBF3D433FC03D01300A
:101A70002100BC003C08C407F32C20005E082100B4
:101A8000BC000130BC35FF3E031D422D3C35203EDD
:101A900086000230870020004408C03F4508C13F4F
:101AA0004608C23F4708C33F44082400BD07200042
:101AB00045082400BE3D200046082400BF3D20000C
:101AC00047082400C03D21004208A0004308A100AF
:101AD000890D893B8909A200A30024004008210048
:101AE000A70024003F082100A60024003E08210092
:101AF000A50024003D082100A40099315C212100AB
:101B000023082300CA00210022082300C900210065
:101B100021082300C800210020082300C700E40199
:101B2000E40A00302000C7000030C6000030C500C5
:101B30000030C40001302300DD070030DE3D080026
:101B4000193022006E02031C08002300C501E601C3
:101B500000302100A000A100AE3134262300B401E2
:101B6000B5012200EB0119302100BC003C08220025
:101B7000EE000800A0313F208D3121002108220015
:101B8000D800210020082200D7007A3086002430B7
:101B90008700403FD000413FD1002000570822007D
:101BA0005106031DD72D2000560822005006031DA4
:101BB000FD2D7C30860024308700403FD000413F1F
:101BC000D10023005C0822005106031DEB2D2300E9
:101BD0005B0822005006031DFD2D7E308600243058
:101BE0008700403FD000413FD10058085106031DF7
:101BF000FB2D570850060319080058082100A100C2
:101C0000220057082100A0006830A2000130A30084
:101C1000A5313E258D31210021082200D50021006B
:101C200020082200D400DB015808803A803C031DC4
:101C30001B2E57085B020318C12F22005B08D0003F
:101C4000D1015008AE005108AF005508B10054084A
:101C5000B000AE314E268D3122002F08DA002E085A
:101C6000D900A42F22005A082100A90022005908F7
:101C70002100A800AE31E2268D3121002808220083
:101C8000B400210029082200B50021002A08220002
:101C9000B60023005C082100A90023005B08210096
:101CA000A800AE31E2268D31210028082200B700BD
:101CB000210029082200B80021002A082200B900CA
:101CC000963154268D3122005B08D000D101D035E9
:101CD000D10D8A30D2002330D3005008520786003D
:101CE0005108533D87003408C03F3508C13FBB2F22
:101CF00022005A082100A900220059082100A8004A
:101D0000AE31E2268D31210028082200AE002100EC
:101D100029082200AF0021002A082200B000230079
:101D20005C082100A90023005B082100A800AE3157
:101D3000E2268D31210028082200B1002100290867
:101D40002200B20021002A082200B3008931F021CC
:101D50008D3122005B08D000D101D035D10D8A3001
:101D6000D2002330D3005008520786005108533D5B
:101D700087002E08C03F2F08C13FBB2F22005A0802
:101D80002100A900220059082100A800AE31E22656
:101D90008D31210028082200C800210029082200D6
:101DA000C90021002A082200CA0023005C08210083
:101DB000A90023005B082100A800AE31E2268D3186
:101DC000210028082200CB00210029082200CC0095
:101DD00021002A082200CD00A131FD218D312200F1
:101DE0005B08D000D101D035D10D8A30D20023302C
:101DF000D3005008520786005108533D8700480819
:101E0000C03F4908C13FBB2F22005A082100A9004A
:101E1000220059082100A800AE31E2268D312100B0
:101E200028082200C200210029082200C300210046
:101E30002A082200C40023005C082100A900230016
:101E40005B082100A800AE31E2268D312100280870
:101E50002200C500210029082200C60021002A080E
:101E60002200C700AE3186268D3122005B08D000EB
:101E7000D101D035D10D8A30D2002330D3005008A3
:101E8000520786005108533D87004208C03F43086F
:101E9000C13FBB2F22005A082100A9002200590887
:101EA0002100A800AE31E2268D3121002808220051
:101EB000AE00210029082200AF0021002A082200DC
:101EC000B00023005C082100A90023005B0821006A
:101ED000A800AE31E2268D31210028082200B10091
:101EE000210029082200B20021002A082200B300A4
:101EF0009431BC248D3122005B08D000D101D03553
:101F0000D10D8A30D2002330D3005008520786000A
:101F10005108533D87002E08C03F2F08C13FBB2FFB
:101F200022005B08D000D101D035D10D8A30D2001B
:101F30002330D3005008520786005108533D8700D4
:101F40000030C03FC13FBB2F20005708003A0319A3
:101F5000AA2F902F5608013A0319322E033A03197B
:101F6000782E013A0319BE2E073A0319042F013ABD
:101F700003194A2F902F01302200D0005008DB07B0
:101F8000142E22005708D0005008D6007830560290
:101F90000318E42F5608D000D101D035D10D8A3076
:101FA000D2002330D3005008520786005108533D19
:101FB00087000030C03FC13F0130D0005008D60735
:101FC00078305602031CCA2F7A30860024308700EE
:101FD00020005608C03F5708C13F7C30860024309F
:101FE000870023005B08C03F5C08C13F7E3086004D
:101FF0002430870022005708C03F5808C13F08001E
:1020020000302100AB000030AA000030A9000030EF
:10201200A800201C14282408A8072508A93D260882
:10202200AA3D2708AB3D0130A435A50DA60DA70D8D
:10203200890B15280130A336A20CA10CA00C890B28
:102042001C282308220421042004031D0A282B082B
:10205200A3002A08A2002908A1002808A00008005D
:1020620021004108C7004208C8004308C900031004
:10207200480D490DCA004A08CD004408C70045086A
:10208200C8004608C9000310480D490DCA004A0895
:10209200CC004D08031959284C084D02031860283A
:1020A2004D03FF3A4C07C70019304702031C602852
:1020B2004408C1004508C2004608C30008004C0895
:1020C200031908004D084C0203186F284C03FF3A0D
:1020D2004D07C70019304702031808000630C70031
:1020E2004708CB00C31BCB17C61B4B17C217FF30C9
:1020F200C105FF30C2050030C305C517FF30C40556
:10210200FF30C5050030C6054C084D020318AB2848
:102112000130C435C50DC60D890B8A280130CC02A9
:102122004C084D060319A6280130CB024B0807398B
:102132000319A62889280130C336C20CC10C890BA9
:102142009D280130C7004708CD074D084C060319EA
:10215200D0289C284D084C020318D0280130C135E4
:10216200C20DC30D890BB0280130CD024C084D06BB
:102172000319CC280130CB024B0807390319CC28AC
:10218200AF280130C636C50CC40C890BC3280130F8
:10219200C7004708CC074D084C06031DC228CB1FB9
:1021A200E228FF30C106FF30C206FF30C30601300D
:1021B200C107003003180130C20700300318013094
:1021C200C3074B1FF428FF30C406FF30C506FF309B
:1021D200C6060130C407003003180130C5070030BD
:1021E20003180130C607CB014108C4074208C53DA8
:1021F2004308C63DC61F0F29FF30C406FF30C5067F
:10220200FF30C6060130C407003003180130C5078D
:10221200003003180130C607CB01CB0A4408A000E6
:102222004508A1004608A2004D08C7004708A300C0
:102232004B08C8004808A400A63137262100200810
:10224200C1002108C2002208C30008002200E201E6
:10225200570856045504031D532900302100A000DD
:102262000030A1000030A200220058082100A30083
:10227200220059082100A40022005A082100A500CA
:10228200A13184219131031C4B2921302400CD003E
:102292000030CE0000302200D5000030D6000030E1
:1022A200D70008005A0859045804031D5F2900305A
:1022B200D5008030D6003F30D700080055082100F5
:1022C200A000220056082100A10022005708210088
:1022D200A2000030A3000030A4000030A500A1310C
:1022E200842191310318D92922005808A0005908E5
:1022F200A1005A08A2009A316322913122002308D8
:10230200E6002208E5002108E4002008E300660850
:102312002100AB00220065082100AA002200640807
:102322002100A900220063082100A800AF314D2737
:10233200913122005A0821002A06031DAA292200EF
:10234200590821002906031DAA2922005808210044
:1023520028060319B92921302400CD000030CE000F
:1023620000302200D5000030D6000030D70008002F
:10237200220063080139DB005B08E20055082100F6
:10238200BE00220056082100BF002200570821008B
:10239200C000AD31B025913121003E082200D500A8
:1023A20021003F082200D600210040082200D70069
:1023B20022005508BE005608BF005708C0009F31D2
:1023C2002F27913122003E08DC003F08DD00400843
:1023D200DE0058082100AE00220059082100AF009B
:1023E20022005A082100B00022005C082100B1003E
:1023F20022005D082100B20022005E082100B30025
:1024020087313B27913121002E082200DF00210075
:102412002F082200E000210030082200E1005F08BE
:10242200C8006008C9006108CA0093316323913172
:1024320022004808D5004908D6004A08D700620899
:102442000319080055082100BE0022005608210089
:10245200BF00220057082100C000AD31B025210085
:102462003E082200D50021003F082200D6002100AC
:1024720040082200D700080020009018532A2300A9
:102482003708803A2100BC0080303C02031D4C2AF0
:10249200013023003602031C662AFF302300B607F0
:1024A200FF30652A23003708803A2100BC008030C3
:1024B2003C02031D5F2A1930230036020318662AE4
:1024C20001302300B6070030B73D23003608370439
:1024D200031DF12A22006A08031D742AEA01EA0A8E
:1024E2002300B201B3012000590823003302031D67
:1024F2007E2A2000580823003202031CBC2A3F080F
:10250200031DBC2A20004E08031DBC2A22000D1107
:102512006B030319B42A20005F03031DBC2A2300A6
:10252200BF01BF0A20004F08031DA22A22000D117D
:1025320001302100A0000030A1008831002092313A
:10254200BC2A01302100B6000030B700AE316A2645
:10255200923100302100A000A10088310020923188
:1025620022000D15BC2A01302100B8000030B9004C
:10257200A2313A22923122000F1220004E08031D8E
:10258200ED2A23003F08031DED2A20005F03031DEF
:10259200D82A240063036404031DED2A2300E0010A
:1025A200E00A01302400D1000030D200ED2A2300DD
:1025B2003C030319ED2AE001BC01BC0A2400D1014D
:1025C200D20120004F082100BC003C082300C000BB
:1025D2002000CF012200EA012400E301E401080007
:1025E20023003708803A2100BC0080303C02031DE2
:1025F200FD2A193023003602031C080020004E0376
:10260200031D0C2B230060082100BC00BD013C0807
:10261200B6003D083C2B23003C03031D2C2B40033A
:10262200031D262B22000D1101302100A0000030D5
:10263200A10088310020923101302100B200003027
:10264200B300A031A1209231402B01302100B6000D
:102652000030B7003D2B240051035204031D402BD0
:1026620023003F08031D402B20004E08031D402B72
:1026720000302100B600B700AE316A269231230045
:10268200BF0120004F08031D4C2B5F0C2200031CCE
:102692000D1103180D1500302100B800B900A23148
:1026A2003A222200EA012300BC012400D101D20116
:1026B2000130E3000030E40019302300B60000309E
:1026C200B700080022004A0849044804031D702B81
:1026D2000030C8008030C9003F30CA0008007230A4
:1026E2002100A0003130A1004430A200220048089D
:1026F2002100A300220049082100A40022004A0868
:102702002100A500A131842193310318952B223099
:102712002400CD000030CE00FF302200C8007F3000
:10272200C9007F30CA000800220048082100A0002A
:10273200220049082100A10022004A082100A2002B
:102742004930A3003A30A400C430A500A13184214D
:1027520093310318B92B22302400CD000030CE0073
:1027620000302200C8000030C9000030CA00080052
:10277200220048082100A000220049082100A100EF
:1027820022004A082100A2000030A3000030A40069
:102792000030A500A131842193310318D22B0130DE
:1027A200D32B00302200CB004B08D400540803196D
:1027B200F42B48082100BE00220049082100BF0076
:1027C20022004A082100C000AD31B025933121001A
:1027D2003E082200C80021003F082200C900210053
:1027E20040082200CA00AA302100AE00B830AF0073
:1027F2003F30B000220048082100B1002200490801
:102802002100B20022004A082100B30087313B2791
:10281200933121002E082200C80021002F08220037
:10282200C900210030082200CA004808AE00490849
:10283200AF004A08B0009E317C26933122002E0858
:10284200CC002F08CD003008CE004C08A0004D0867
:10285200A1004E08A2009A3163229331220021087E
:10286200D3002008D20053082100A90022005208F8
:102872002100A800AE31E22693312100280822006F
:10288200B700210029082200B80021002A082200EE
:10289200B9004808BA004908BB004A08BC00AF3179
:1028A200A327933122003708C8003808C900390825
:1028B200CA004808B4004908B5004A08B60000300A
:1028C200B700A830B8000930B9000030BA00A6310C
:1028D2009C26933122003408BE003508BF0036081A
:1028E200C0005308C2005208C1009C3191249331A8
:1028F20022003E08C8003F08C9004008CA00540828
:1029020003190800FF30CF007F30D0007F30D100A4
:102912004A085106031D932C49085006031D932CA7
:1029220048084F06031D9C2C0030C8000030C90027
:102932000030CA00080048082100CE0022004908E1
:102942002100CF0022004A082100D0000030D1002F
:102952008030D2003F30D3009D31282521004E081F
:102962002200C80021004F082200C900210050089F
:102972002200CA00080000302200BF008030C000E0
:102982003F30C1000030BC000030BD000030BE004E
:1029920031082100A000220032082100A1002200FB
:1029A20033082100A20022002E082100A3002200E9
:1029B2002F082100A400220030082100A500A13127
:1029C20084219431031CF12C220031082100CE0015
:1029D200220032082100CF00220033082100AC2D52
:1029E200220031082100B100220032082100B20089
:1029F200220033082100B3000030AE000030AF00E7
:102A02004030B00087313B27943121002E08BE00B0
:102A12002F08BF003008C000AD31B025943121002D
:102A22003E08C4003F08C5004008C6000030C1008F
:102A3200B430C2004330C3009031312094312100C0
:102A420041082200B400210042082200B500210002
:102A520043082200B60034082100BE0022003508D7
:102A62002100BF00220036082100C000AD31B02590
:102A7200943121003E08AE003F08AF004008B0008C
:102A82000030C100B430C2004330C300220031081C
:102A92002100BE00220032082100BF0022003308BC
:102AA2002100C000AD31B025943121003E08C400A0
:102AB2003F08C5004008C600903131209431210002
:102AC2004108CE004208CF004308D0000030D100B8
:102AD2003430D2004330D3009D3128259431210077
:102AE2004E08B1004F08B2005008B30087313B27AF
:102AF200943121002E082200BC0021002F08220060
:102B0200BD00210030082200BE0000302100C100BB
:102B1200B430C2004330C300220031082100BE009D
:102B2200220032082100BF00220033082100C00029
:102B3200AD31B025943121003E08C4003F08C500E4
:102B42004008C60090313120943121004108CE0066
:102B52004208CF004308D0000030D1003430D20008
:102B62004330D3009D312825943121004E082200A4
:102B7200BF0021004F082200C0002100500822009F
:102B8200C1003F082100B100220040082100B2002C
:102B9200220041082100B30022002E082100AE00CD
:102BA20022002F082100AF00220030082100B000CF
:102BB20087313B27943121002E08C4002F08C5001D
:102BC2003008C60022003C082100BE0022003D0859
:102BD2002100BF0022003E082100C000AD31B02517
:102BE200943121003E08C1003F08C2004008C300E2
:102BF200903131209431210041082200B700210098
:102C020042082200B800210043082200B900370818
:102C12002100C400220038082100C5002200390822
:102C22002100C6000030C1003430C200C330C300EE
:102C320090313120943121004108B1004208B200A4
:102C42004308B3000030AE00A030AF004030B00007
:102C520087313B27943121002E08D1002F08D20062
:102C62003008D3000030CE001030CF004130D00009
:102C72009D312825943121004E082200A000210018
:102C82004F082200A100210050082200A2009A3120
:102C9200632222002108BB002008BA003B08AF00D3
:102CA2003A08AE00080000302200C2008030C300A3
:102CB2003F30C4000030BF000030C0000030C1000F
:102CC20037082100A000220038082100A1002200BC
:102CD20039082100A200220034082100A3002200AA
:102CE20035082100A400220036082100A500A131E8
:102CF20084219631031C892E220037082100CE0040
:102D0200220038082100CF00220039082100442F78
:102D1200220037082100B100220038082100B20049
:102D2200220039082100B3000030AE000030AF00AD
:102D32004030B00087313B27963121002E08BE007B
:102D42002F08BF003008C000AD31B02596312100F8
:102D52003E08C4003F08C5004008C6000030C1005C
:102D6200B430C2004330C30090313120963121008B
:102D720041082200BC00210042082200BD002100BF
:102D820043082200BE003C082100BE0022003D088C
:102D92002100BF0022003E082100C000AD31B02555
:102DA200963121003E08AE003F08AF004008B00057
:102DB2000030C100B430C2004330C30022003708E3
:102DC2002100BE00220038082100BF00220039087D
:102DD2002100C000AD31B025963121003E08C4006B
:102DE2003F08C5004008C6009031312096312100CD
:102DF2004108CE004208CF004308D0000030D10085
:102E02003430D2004330D3009D3128259631210041
:102E12004E08B1004F08B2005008B30087313B277B
:102E2200963121002E082200BF0021002F08220027
:102E3200C000210030082200C10000302100C10082
:102E4200B430C2004330C300220037082100BE0064
:102E5200220038082100BF00220039082100C000EA
:102E6200AD31B025963121003E08C4003F08C500AF
:102E72004008C60090313120963121004108CE0031
:102E82004208CF004308D0000030D1003430D200D5
:102E92004330D3009D312825963121004E0822006F
:102EA200C20021004F082200C30021005008220066
:102EB200C40000302100CE004030CF004030D000AE
:102EC20022003F082100BE00220040082100BF006E
:102ED200220041082100C000AD31B0259631210009
:102EE2003E08C1003F08C2004008C3002200340867
:102EF2002100AE00220035082100AF002200360872
:102F02002100B000220042082100B1002200430843
:102F12002100B200220044082100B30087313B2780
:102F2200963121002E08C4002F08C5003008C600C3
:102F320090313120963121004108D1004208D2005F
:102F42004308D3009D312825963121004E082200E6
:102F5200C50021004F082200C600210050082200AF
:102F6200C7004508A0004608A1004708A2009A3100
:102F72006322963122002108AF002008AE00033000
:102F8200B0000030B100AE314E26963182302200C0
:102F9200BA002430BB002E083A0786002F083B3DBA
:102FA2008700403FC500413FC600423FC700450879
:102FB2002100B100220046082100B2002200470889
:102FC2002100B3000030AE00C830AF00C230B00004
:102FD20087313B27963121002E082200A0002100D4
:102FE2002F082200A100210030082200A2009A31FD
:102FF200632222002108B5002008B4000800200046
:103002005008031D07285103031D08008F1B552874
:1030120001302400C7070030C83D4808803A21002B
:10302200A70080302702031D19281A302400470206
:10303200031C080019302400C7000030C80020001B
:1030420050082300650603192A2820005103031D96
:103052003B2801302100A70027082200EF070B3090
:103062006F02031C3628EF01EF0A6F08A1310F210E
:10307200983151282000500823006206031D512870
:1030820001302100A70027082300E307063063026E
:10309200031C4D28E301E30A6308AE31022698318E
:1030A20020008F1B080051282400C701C801080016
:1030B2002200D9017830590203180800003021009B
:1030C200CE003430CF004330D0001030AE00493053
:1030D200AF004030B00022005908D200D30152089C
:1030E200AE005308AF000330B0000030B100AE3183
:1030F2004E26983122002F082100A90022002E0816
:103102002100A800AE31E226983121002808B10042
:103112002908B2002A08B30087313B2798312100E1
:103122002E08D1002F08D2003008D3009D31282567
:10313200983121004E082200D60021004F082200BB
:10314200D700210050082200D8005608CC005708AA
:10315200CD005808CE00A7318427983122004C08B0
:10316200D6004D08D7004E08D8005908D200D30126
:103172005208AE005308AF000330B0000030B10077
:10318200AE314E26983182302200D4002430D50050
:103192002E08540786002F08553D87005608C03F69
:1031A2005708C13F5808C23F0130D2005208D90720
:1031B2005B282000A901A31FEB28A009A109A209ED
:1031C200A309A00A0319A10A0319A20A0319A30A4F
:1031D200A901A90AA71FFC28A409A509A609A709EC
:1031E200A40A0319A50A0319A60A0319A70A01309A
:1031F200FC007C08A9060030AD000030AC000030B5
:10320200AB000030AA002308220421042004031981
:103212004529A801A80AA31B1A290130A035A10D2E
:10322200A20DA30D890B0F290130FC007C08A80711
:103232000C290130AA35AB0DAC0DAD0D890B1B2944
:1032420023082702031D2F2922082602031D2F29E6
:1032520021082502031D2F2920082402031C3A29D4
:103262002008A4022108A53B2208A63B2308A73B6D
:103272002A140130A336A20CA10CA00C890B3B2905
:103282000130A802031D1A29290803195329AA0982
:10329200AB09AC09AD09AA0A0319AB0A0319AC0AB6
:1032A2000319AD0A2D08A3002C08A2002B08A100C7
:1032B2002A08A00008002100AA01A31F6D29A00965
:1032C200A109A209A309A00A0319A10A0319A20AC2
:1032D2000319A30AAA01AA0AA71F7E29A409A509FC
:1032E200A609A709A40A0319A50A0319A60A03191C
:1032F200A70A0130A8002808AA060030AE00003054
:10330200AD000030AC000030AB00230822042104E1
:1033120020040319C729A901A90AA31B9C2901306A
:10332200A035A10DA20DA30D890B91290130A80092
:103332002808A9078E290130AB35AC0DAD0DAE0DB5
:10334200890B9D2923082702031DB1292208260281
:10335200031DB12921082502031DB12920082402D9
:10336200031CBC292008A4022108A53B2208A63B75
:103372002308A73B2B140130A336A20CA10CA00CEE
:10338200890BBD290130A902031D9C292A080319B2
:10339200D529AB09AC09AD09AE09AB0A0319AC0AD0
:1033A2000319AD0A0319AE0A2E08A3002D08A200C4
:1033B2002C08A1002B08A00008002200690868045C
:1033C2006704031DEA290030E7008030E8003F303F
:1033D200E900C0302100CE007F30CF004430D00061
:1033E200220067082100D100220068082100D200D3
:1033F200220069082100D3009D312825993121003E
:103402004E082300EA0021004F082300EB002100B0
:1034120050082300EC0056302200D8008E30D9002C
:10342200BF30DA0023006A082200D50023006B08AF
:103432002200D60023006C082200D70091312721F8
:103442009931220055082300ED002200560823007E
:10345200EE00220057082300EF009F302100AE004B
:103462006830AF004030B00023006D082100B10089
:1034720023006E082100B20023006F082100B30070
:1034820087313B27993121002E082300E7002100D4
:103492002F082300E800210030082300E900670814
:1034A2002200A000230068082200A100230069086E
:1034B2002200A2009A31632222002108E80020089B
:1034C200E700080022002008A4002108A500220825
:1034D200A6000310250D260DA7002708AD002D0814
:1034E200031D7C2A0030A3000030A2000030A1009E
:1034F2000030A00008002008A4002108A50022082E
:10350200A6001730A636A50CA40C890B832A240822
:10351200A7002708A800A117FF30A005FF30A105CA
:103522000030A2052008A9002108AA002208AB0049
:10353200AC018E30AD02AD1FBA2A2D08803A8F3E03
:103542000318AC2A0030A3000030A2000030A10012
:103552000030A00008000130AC36AB0CAA0CA90C5C
:10356200890BAD2A0130A4002408AD070319D32A20
:10357200AC2A18302D02031CD02A0030A3000030E0
:10358200A2000030A1000030A00008000130A935DF
:10359200AA0DAB0DAC0D890BC82A0130AD022D0866
:1035A200031DC72A28080319E12AA909AA09AB0998
:1035B200AC09A90A0319AA0A0319AB0A0319AC0A2E
:1035C2002C08A3002B08A2002A08A1002908A000A9
:1035D200080021006408C1006508C2006608C30033
:1035E2006108BE006208BF006308C000AD31B025AB
:1035F2009A3121003E08C4003F08C5004008C600B9
:10360200903131209A3121004108CE004208CF008A
:103612004308D0006A08C1006B08C2006C08C300EE
:103622006708BE006808BF006908C000AD31B02558
:103632009A3121003E08C4003F08C5004008C60078
:10364200903131209A3121004108AE004208AF008A
:103652004308B0005E08C1005F08C2006008C300F2
:103662006108BE006208BF006308C000AD31B0252A
:103672009A3121003E08C4003F08C5004008C60038
:10368200903131209A3121004108B1004208B20044
:103692004308B30087313B279A3121002E08D1001D
:1036A2002F08D2003008D3009D3128259A312100FD
:1036B2004E08ED004F08EE005008EF006708C10009
:1036C2006808C2006908C3006D08C4006E08C5001E
:1036D2006F08C6009031312021004108DE00420807
:1036E200DF004308E00008002300BA0122002F088F
:1036F200B6002E08B5000030B2008030B3003F3073
:10370200B400A22B0030B2000030B3004030A02B36
:10371200A630B2002A309E2B0030B20000309E2B21
:10372200A630B200AA30982B0030B2008030B3002D
:103732003E30A02B0030B2008030B3003F30B400E6
:10374200BB2B3108003A0319A72BBB2B3008013AD7
:103752000319832B033A0319892B013A03198D2B81
:10376200073A0319912B013A0319952B033A0319CE
:103772009B2BBB2B36082100A90022003508210013
:10378200A800AE31E2269B3121002808B1002908A9
:10379200B2002A08B300220032082100AE00220043
:1037A20033082100AF00220034082100B000873125
:1037B2003B279B3121002E082200A00021002F0868
:1037C2002200A100210030082200A2009A316322C7
:1037D2009B3122002108B6002008B50036083606C3
:1037E200031DF52B350835060319FA2B2300BA0100
:1037F200BA0A22003608AF003508AE0008002200DF
:10380200690868046704031D0B2CFF30E7000030D1
:10381200E8000800C03067067F30031968064430AC
:1038220003196906031D182CE701E8010800C030DE
:103832002100CE007F30CF004430D0002200670844
:103842002100D100220068082100D200220069086C
:103852002100D3009D3128259C3121004E082300F0
:10386200EA0021004F082300EB002100500823004A
:10387200EC006A302200D8009C30D900BF30DA0058
:1038820023006A082200D50023006B082200D6001C
:1038920023006C082200D700913127219C3122009D
:1038A20055082300ED00220056082300EE002200F6
:1038B20057082300EF00E3302100AE000B30AF00C9
:1038C2004130B00023006D082100B10023006E08D2
:1038D2002100B20023006F082100B30087313B278B
:1038E2009C3121002E082300E70021002F0823002D
:1038F200E800210030082300E90067082200A00048
:10390200230068082200A100230069082200A20007
:103912009A31632222002108E8002008E70008000B
:10392200220040083F043E04031D9E2C0030BE00CE
:103932000030BF000030C000080040087F39C300DB
:10394200C401C335C40D4308C1074408C23D3F0D3D
:103952003F0D0139C300C4014308C1074408C23DF9
:10396200C21FC02C22302400CD000030CE00003017
:103972002200BE000030BF000030C0000800420834
:10398200803AC30081304302031DC92C003041023A
:10399200031C102D22302400CD000030CE00220066
:1039A2003E082100A00022003F082100A1002200C1
:1039B20040082100A2000030A3000030A400003023
:1039C200A500A13184219C310318082DFF3022006B
:1039D200C5007F30C6007F30C70045082100BE0009
:1039E200220046082100BF00220047082100C00033
:1039F200AD31B02521003E082200BE0021003F0863
:103A02002200BF00210040082200C0000800FF3051
:103A12002200BE007F30BF007F30C00008002200BD
:103A22004208C4004108C300440DC40CC30C400842
:103A3200430680394306C00041080139C300C30C64
:103A4200C30C3F0843067F394306BF00080021002C
:103A52005108D4005208D5005308D6000310550D62
:103A6200560DD7005708DC005C08031D3F2D0030BF
:103A7200CE000030CF000030D00008004E08D40045
:103A82004F08D5005008D6000310550D560DD7002B
:103A92005708DD005D08031D552D0030CE000030B3
:103AA200CF000030D00008000030D9000030DA002A
:103AB2000030DB0089305D07D4005408DC02510875
:103AC200D4005208D5005308D6001030D636D50C93
:103AD200D40C890B672D5408D7005708DD004E0817
:103AE200D4004F08D5005008D6001030D636D50C79
:103AF200D40C890B772D5408D7005708DD06803087
:103B0200D4005408DD05D217FF30D105FF30D205AD
:103B12000030D305CF17FF30CE05FF30CF05003080
:103B2200D0051830D4005408D8000130D935DA0D48
:103B3200DB0D890B972D50085302031DA62D4F084C
:103B42005202031DA62D4E085102031CAF2D4E0832
:103B5200D1024F08D23B5008D33B59140130D13522
:103B6200D20DD30D890BB02D0130D802031D962D35
:103B72005908A0005A08A1005B08A2005C08D40002
:103B82005408A3005D08D5005508A400A6313726C5
:103B920021002008CE002108CF002208D000080012
:103BA2002200690868046704031DDA2DE701E801B1
:103BB2000800C03067067F300319680644300319D5
:103BC2006906031DE92DFF30E7000030E800080018
:103BD20000302100C1008030C2003F30C30022000B
:103BE20067082100D100220068082100D2002200CB
:103BF20069082100D300C030CE007F30CF004430AE
:103C0200D0009D3128259D3121004E08BE004F086D
:103C1200BF005008C000AD31B0259D3121003E08E3
:103C2200C4003F08C5004008C600903131209D31D4
:103C3200210041082300EA00210042082300EB0092
:103C4200210043082300EC006A302200D8009C3097
:103C5200D900BF30DA0023006A082200D500230011
:103C62006B082200D60023006C082200D700913195
:103C720027219D31220055082300ED00220056081D
:103C82002300EE00220057082300EF00E33021005A
:103C9200AE000B30AF004130B00023006D082100B0
:103CA200B10023006E082100B20023006F0821003A
:103CB200B30087313B279D3121002E082300E70006
:103CC20021002F082300E800210030082300E9002A
:103CD20067082200A000230068082200A100230038
:103CE20069082200A2009A31632222002108E8001A
:103CF2002008E700080022002E082100A000220070
:103D02002F082100A100220030082100A200353036
:103D12002200B10031082100A300A23177229E3196
:103D22002200B61FBA2E2E082100A00022002F0862
:103D32002100A100220030082100A2000030A300CF
:103D42000030A4000030A500A13184219E31031867
:103D5200B22E00302200AE008030AF00BF30B00083
:103D6200080000302200AE000030AF000030B0008A
:103D72000800003036021530031935020318080016
:103D82002E08A0002F08A1003008A2009A31632259
:103D92009E31220023082100AB00220022082100CC
:103DA200AA00220021082100A900220020082100E7
:103DB200A800A131C0219E31210028082200B200B2
:103DC200210029082200B30021002A082200B400A1
:103DD2002E082100A00022002F082100A1002200AD
:103DE20030082100A200220032082100A300220094
:103DF20033082100A400220034082100A500A131CB
:103E020084219E310318272F00302100C100803009
:103E1200C200BF30C300220032082100C4002200C9
:103E220033082100C500220034082100C600903169
:103E32003120210041082200AE0021004208220068
:103E4200AF00210043082200B0000800220032081F
:103E5200AE003308AF003408B000080022003E086C
:103E62002100A00022003F082100A10022004008FA
:103E72002100A2000030A3000030A4000030A50001
:103E8200A13184219F310318532F21302400CD000A
:103E92000030CE0000302200BE000030BF000030F3
:103EA200C0000800220040083F043E04031D662FA4
:103EB20022302400CD000030CE0000302200BE00AF
:103EC2000030BF000030C000080000302100C100F7
:103ED2008030C200BF30C3000030AE000030AF00FF
:103EE2004030B00042302200C10041082100A3004E
:103EF20022003E082100A00022003F082100A1006C
:103F0200220040082100A200A23177229F31210025
:103F12002008B1002108B2002208B30087313B27F4
:103F22009F3121002E08C4002F08C5003008C600AA
:103F3200903131209F31210041082200BE00210032
:103F420042082200BF00210043082200C000FF30C7
:103F5200C207FF30C33D3E08B4003F08B500400829
:103F6200B6001E30B700A830B8000830B9000030E3
:103F7200BA00A6319C269F3122003408BE003508C3
:103F8200BF003608C0003E082100C10022003F08E1
:103F92002100C200220040082100C3007230AE009E
:103FA2003130AF003F30B000220043082100A900A9
:103FB200220042082100A800AE31E2269F312100F2
:103FC2002808B1002908B2002A08B30087313B272C
:103FD2009F3121002E08C4002F08C5003008C600FA
:103FE20090313120210041082200BE002100420808
:0E3FF2002200BF00210043082200C00008008A
:10400200D03407340034003401340034E83403344B
:10401200063400341434FF340434FF3421000D100C
:104022008D100D118D110D128D120E140E128E1295
:104032000F108F100F118F110F128F160F178F176E
:1040420010149014230010109010200010109010E3
:1040520026000C108C100C118C110C128C120C17E7
:1040620028000C1326008D100D11AD31B925A03199
:10407200A33138238B178B160B1108002000D51B98
:1040820054285508031D4E285408031D4E2860303D
:1040920052020930533B031C542878302100A000FF
:1040A2000030A10008002000D51B69285508031D17
:1040B20063285408031D6328583052020230533BD0
:1040C200031C69283C302100A0000030A100080038
:1040D2001E302100A0000030A100080000302100A5
:1040E200B1000030B0000030AF000030AE002C084C
:1040F200A0002D08A100A201A3010030A7000030FA
:10410200A6000330A500E830A40090310120A031C0
:1041120021002308B1002208B0002108AF002008C6
:10412200AE00310830042F042E0403190800FF30BA
:10413200AE07FF30AF3DFF30B03DFF30B13D9228BA
:1041420021003208B40034082000DF002100320CC4
:104152002700031C0D1103180D152100320833042A
:10416200031DB62827008D14B82827008D1014309F
:104172002100AC000030AD00A0316F20A03127003B
:104182000D118D1020005F082100B400B501340824
:10419200A0003508A10080310220A0311430210096
:1041A200AC000030AD00A0316F20080020000E18D6
:1041B2000B2901302400C9070030CA3D4A08803A61
:1041C2002100A70080302702031DEA281A302400AC
:1041D2004902031C080019302400C9000030CA003B
:1041E20020005103031DFA28D101AE311A26A03155
:1041F200042901302100A70027082000D00703303E
:1042020050020318D001AF310427A03120000E184C
:10421200080007292400C901CA0108002100A600DC
:104222000630260203182B292608A400A50124081B
:10423200A0002508A1000130A2000030A300A53192
:10424200E325A13106302100A0000030A100A131F8
:104252004921080006302100A0000030A1000130F1
:10426200A2000030A300A531E325A13121002608D8
:10427200A400A501A409A509A40A0319A50A2408F2
:104282000B3EA0000030253DA100A13149210800CC
:1042920022000F108F100F118F110F1266292200AA
:1042A2000F14080022008F14080022000F150800C6
:1042B20022008F15080022000F16080022000F149A
:1042C2008F140F158F150F16080021002108003AD0
:1042D20003196C2983292008013A03195029033A4A
:1042E20003195329013A03195629073A031959297F
:1042F200013A03195C29033A03198329623A031923
:104302005F29832908002100A21F9B292009A600FA
:104312002109A7002209A800A60A0319A70A03195E
:10432200A80A00302607A0000030273DA1008030F7
:10433200283DA200A51FB1292309A6002409A70030
:104342002509A800A60A0319A70A0319A80A00301A
:104352002607A3000030273DA4008030283DA50099
:104362008030A2068030A50625082202031D08001F
:1043720024082102031D080023082002080021004E
:10438200AF018E30AC002C08AE00AB1FD529A809B6
:10439200A909AA09AB09A80A0319A90A0319AA0AB1
:1043A2000319AB0AAF01AF0AFF302B050319E52948
:1043B2000130AB36AA0CA90CA80C890BDA29013002
:1043C200AC002C08AE07D5292808A0002908A100B6
:1043D2002A08A2002E08AC002C08A3002F08AD006A
:1043E2002D08A400A631372621002008A8002108A4
:1043F200A9002208AA00080022004808B4004908BF
:10440200B5004A08B6004B08B7004C08B8004D0882
:10441200B90096315426A13122003508CF00340864
:10442200CE004B082100A00022004C082100A10070
:1044320022004D082100A200220048082100A3000A
:10444200220049082100A40022004A082100A500F8
:10445200A1318421A1310318342A64302200C8001A
:104462000030C90008009C302200C800FF30C9009B
:10447200080020004E082100BA00BB0139083B06A3
:10448200031D452A38083A06031908003808BA00FD
:104492003A082000CE00210038033904031D542AB3
:1044A20022000D128D1220004E03031D6F2A5108A7
:1044B200031D642AD101D10A22008D106F08A13197
:1044C2000F21A2316F2A2000D101AF310427A2317E
:1044D200AE311A26A231AD31EE25A23114302100BF
:1044E200AC000030AD00A0316F200800210022088E
:1044F20021042004031D8B2A230886000130870033
:104502000030C03FC13F0030A0000030A1000030A9
:10451200A200080022087F39A400A501A435A50D38
:1045220023088600013087002408C03F2508C13FC8
:10453200210D210D0139A400A501230886000130B7
:10454200870024088104413125088104230886005C
:1045520001308700823081074131FF30813D7F3158
:10456200220880393F38A200A11308001E30210022
:10457200B2003208B4006430A0000030A100013063
:10458200A2000030A300A531E325A231643021004E
:10459200A0000030A100A1314921A231210034083C
:1045A200B200B3013208AC003308AD00A0316F2075
:1045B200A23100302100A000A1000130A200003091
:1045C200A300A531E325A23100302100A000A10003
:1045D200A1314921A23121003408B200B3013208CD
:1045E200AC003308AD00A0316F200800003020007D
:1045F200A3000030A2000330A100E830A0000C307C
:10460200B600F230B7000130B8000030B90035080A
:10461200F3003408F2003308F1003208F0003108E8
:10462200F7003008F6002F08F5002E08F400AF312D
:10463200D127A23170082000B6077108B73D720871
:10464200B83D7308B93D3908A7003808A6003708F5
:10465200A5003608A4009831DA2020002308B10012
:104662002208B0002108AF002008AE000800220096
:104672001D1021000E118E1026000D108D110D122D
:104682002100101390121012901110110F302500FA
:1046920093040F309A040F30260093040F309A04CB
:1046A2000F309E040F302C0093040F3096040F300D
:1046B20099040F309C040F309F0425009D019E0138
:1046C2009F01003092003230910000309900643036
:1046D2009800003026009200963091000030990038
:1046E200C8309800AD31A725A331AD31A02508000F
:1046F200FF302000CC002100A20022082000CD00C3
:104702008C2B6730892B3330892B1F30892B193042
:1047120023009B00AF2B21002108253A03199B2B74
:104722006E3A0319A02B313A0319A52BEC3A03195F
:10473200AA2BAF2B2008803A0319822BAF2B20081B
:10474200003A0319842BAF2B2008123A0319862B47
:10475200AF2B2008003A0319882BAF2B23001E131E
:104762009E161E121E159D171D131D169D1121004A
:1047720091160B178B17080027000C108C100C11C8
:104782008C110C12E82B720C031C0C1003180C1465
:104792000800720C031C8C1003188C140800720C95
:1047A200031C0C1103180C150800720C031C8C114D
:1047B20003188C150800720C031C0C1203180C163B
:1047C20008000C148C140C158C150C1608007108BA
:1047D200003A0319ED2B042C7008013A0319C42B7B
:1047E200033A0319CA2B013A0319D02B073A0319CA
:1047F200D62B013A0319DC2B033A0319042C623A33
:104802000319E22B042C080020000F1B0F2C23009D
:104812003B0803191A2C0130BB021A2C7D302300ED
:104822003B0203181A2C01302100B2003208230087
:10483200BB073B08031D080020005608013ED600B6
:104842000030573DD7005708803A2100B20080302F
:104852003202031D2F2C063020005602031C362C78
:1048620001302000D6000030D7002300C201C20A66
:10487200200057082100A100200056082100A000B6
:10488200A1314921A43120000F1F442C14302100F2
:10489200AC000030AD00A0316F20080020008F1A5C
:1048A200592C230046080319642C0130C602642CDB
:1048B2007D30230046020318642C01302100B2002F
:1048C20032082300C6074608031D080020005A08C4
:1048D200013EDA0000305B3DDB005B08803A2100DC
:1048E200B20080303202031D792C073020005A02B8
:1048F200031C802C01302000DA000030DB00200095
:104902005B082100A10020005A082100A00001300C
:10491200A2000030A300A531E325A4312300E40165
:10492200E40A20008F1E922C14302100AC000030CB
:10493200AD00A0316F20080001302100B30000302B
:10494200B4003408803AB20080303202031DAB2C2E
:10495200073033020318D12C21003408A100330898
:10496200A0000130A2000030A300A531E325A4314C
:1049720005302100AC000030AD00A0316F20A43121
:1049820001302100B3070030B43D3408803AB20050
:1049920080303202031DCF2C07303302031CAD2CB2
:1049A20005302100B5000030B600B61B08003608FD
:1049B200A1003508A000A1314921A4310530210010
:1049C200AC000030AD00A0316F20A431FF302100D7
:1049D200B507FF30B63DD62CF601F11FF72CF009D2
:1049E200F109F00A0319F10AF601F60AF31F022D82
:1049F200F209F309F20A0319F30A0130F400740808
:104A0200F606F701F801700871040319312DF5015A
:104A1200F50AF11B162D0130F035F10D890B0D2D24
:104A22000130F4007408F5070A2D0130F735F80D4E
:104A3200890B172D71087302031D212D7008720254
:104A4200031C282D7008F2027108F33B7714013021
:104A5200F136F00C890B292D0130F502031D162DBC
:104A620076080319392DF709F809F70A0319F80A24
:104A72007808F1007708F00008002100A601A11FC4
:104A8200492DA009A109A00A0319A10AA601A60A93
:104A9200A31F542DA209A309A20A0319A30A0130D4
:104AA200A4002408A606A701A801200821040319CE
:104AB200832DA501A50AA11B682D0130A035A10DEA
:104AC200890B5F2D0130A4002408A5075C2D01305D
:104AD200A735A80D890B692D21082302031D732D0B
:104AE20020082202031C7A2D2008A2022108A33BDF
:104AF20027140130A136A00C890B7B2D0130A502B1
:104B0200031D682D260803198B2DA709A809A70ADA
:104B12000319A80A2808A1002708A00008002300FA
:104B2200BA01A0313F20A531210021082200AF00A7
:104B3200210020082200AE00200055082100AB0011
:104B4200200054082100AA00200053082100A900D7
:104B5200200052082100A800A131C021A531210066
:104B62002808D1002908D2002A08D30022002F08E1
:104B72002100A90022002E082100A800AE31E22661
:104B8200A53121002808CE002908CF002A08D0002C
:104B92009D312825A53121004E082200A0002100C8
:104BA2004F082200A100210050082200A2009A31E1
:104BB2006322220021082300DA00220020082300B9
:104BC200D900080027000C108C100C118C110C124B
:104BD200192E2100220C2700031C0C1003180C14A0
:104BE20008002100220C2700031C8C1003188C14CF
:104BF20008002100220C2700031C0C1103180C15BD
:104C020008002100220C2700031C8C1103188C15AC
:104C120008002100220C2700031C0C1203180C169A
:104C2200080027000C148C140C158C150C160800A7
:104C320021002108003A03191F2E362E2008013ABE
:104C42000319EA2D033A0319F22D013A0319FA2D39
:104C5200073A0319022E013A03190A2E033A0319DD
:104C6200362E623A0319122E362E0800210023082E
:104C72000319402E220821042004031D512E003066
:104C8200A0000030A1000030A20008000130A50001
:104C92002508A3070130A236A10CA00C890B4C2ECB
:104CA200FE30220503196A2E472E0130A500250881
:104CB200A3070130A007003003180130A10700301C
:104CC20003180130A2070130A236A10CA00C890BF7
:104CD200652EFF3022050319772E562E0130A302CE
:104CE2000130A035A10DA20D890B722EA11B7D2EC4
:104CF2000230230203186F2E2318852EFF30A005E1
:104D02007F30A105FF30A2050310A30C2308A500E4
:104D1200A601A7011030A535A60DA70D890B8C2E73
:104D22002508A0042608A1042708A20424080319C0
:104D32000800A217080022003A08AF003908AE00A6
:104D42000330B0000030B100AE314E26A631220051
:104D520037082E07840038082F3D8500003FBB002E
:104D6200013FBC00023FBD0039083A040319072F76
:104D7200FF30B907FF30BA3D3A08AF003908AE003C
:104D82000330B0000030B100AE314E26A631220011
:104D920037082E07840038082F3D8500003F210088
:104DA200C100013FC200023FC30022003B082100B4
:104DB200AE0022003C082100AF0022003D08210085
:104DC200B000220034082100B10022003508210081
:104DD200B200220036082100B30087313B27A631FA
:104DE20021002E08C4002F08C5003008C6009031EB
:104DF2003120A631210041082200BB0021004208D7
:104E02002200BC00210043082200B42E3B08B4005B
:104E12003C08B5003D08B600080081302100A00022
:104E22001F30A100AE31A226A731210021082000A7
:104E3200DB00210020082000DA0082302100A000DF
:104E42001F30A100AE31A226A73121002108200087
:104E5200D700210020082000D6005B08803A2100FC
:104E6200A40080302402031D392F073020005A028B
:104E7200031C402F06302000DA000030DB00200047
:104E82005708803A2100A40080302402031D4C2FD1
:104E9200063020005602031C532F01302000D6009A
:104EA2000030D70020005F08031D5A2F27008D1401
:104EB2005C2F27008D1020005F0C2700031C0D11B2
:104EC20003180D1522000D118D110D128D128D106A
:104ED2000D1020005B082100A10020005A082100CB
:104EE200A0000130A2000030A300A531E325A731C4
:104EF200200057082100A100200056082100A00030
:104F0200A1314921080010302100A0004930A10040
:104F12004030A20022004C082100A30022004D08CC
:104F22002100A40022004E082100A500A131842105
:104F3200A7310318CE2FCC302100C1009630C20019
:104F4200C030C30022004C082100C40022004D08DA
:104F52002100C50022004E082100C60090313120F8
:104F6200A731210041082200CF002100420822007F
:104F7200D000210043082200D1004F08BE00500893
:104F8200BF005108C0008831212022003E08CC0019
:104F92003F08CD004008CE00080010302100C100BB
:104FA200C930C2003F30C30022004C082100C400B7
:104FB20022004D082100C50022004E082100C60033
:104FC20090313120A731210041082200CF00210079
:104FD20042082200D000210043082200D1004F08DD
:104FE200BE005008BF005108C000883121202200B5
:104FF2003E08CC003F08CD004008CE000800003437
:1050020080343F34723431343F34FE3475343E34AC
:10501200583463343D3495341D343C34C534AE3495
:105022003A347934213439349434803437349334F3
:10503200A734353456341534343400340034003453
:10504200003480343F34F034FF34BE34E234A934C7
:105052003E3483347634BE34AE342B343E343C3466
:10506200C334BD34D23413343D347834D334BB34F6
:10507200F4344A34483495349534C734C134DC347A
:105082004534DC346D34C334B334333440343434D3
:10509200013448349D34B03445340034DA34423477
:0650A200003480343F34AD
:105B3000FC302100990508002100A001A101080006
:105B40002100951295111510951415110800873034
:105B500020009C05FC309C05FF309B001C150800B4
:105B6000210040083F043E04031908008030C006AD
:105B7000080021009E171E088F3960389E00FC30F7
:105B80009E051D140800FE0012001E000130FE02DA
:105B90000030FF3B7F087E0403190034C42D6400ED
:105BA000800101310130FE020030FF3B7F087E049E
:105BB00003190034D02D2100A3002308A200A20D58
:105BC000A20D1D082206833922069D009D149D18F2
:105BD000E72D1C08A1001B08A000080001302100CF
:105BE000B70037082200ED00A4319D24AD31A43167
:105BF0009D24AD31A231B722AD31A231B7222200AE
:105C0000ED0108002100A6002608A400A501240833
:105C1000A0002508A1000130A2000030A300A5319A
:105C2000E325AE3106302100A0000030A100A131F3
:105C30004921080020005B082100A10020005A082B
:105C40002100A0000130A2000030A300A531E3250F
:105C5000AE31200057082100A10020005608210085
:105C6000A000A1314921080020005D082100A20008
:105C7000A30121082306031D3F2E20082206031935
:105C800008002008A20022082000DD002100200CCE
:105C90002200031C8D1203188D1608002200B20189
:105CA000B3012E1C572E3008B2073108B33D013026
:105CB000B035B10D890B582E0130AF36AE0C890BC3
:105CC0005D2E2E082F04031D512E3308AF0032081D
:105CD000AE00080020005F082100B800B9013708B5
:105CE0003906031D752E3608380603190800360CD0
:105CF0002200031C0D1103180D158D11210037080A
:105D0000B3003608B200A031A120080022004208EA
:105D1000AE004308AF004408B0004508B100460893
:105D2000B2004708B3009431BC2422002E09C800F9
:105D30002F09C900C80A0319C90A4808C20049083E
:105D4000C300080000308B1B01302100A2008B1320
:105D50002008230091002100210823009200151340
:105D60001514000000002100220C031C8B130318E3
:105D70008B17230014082100A10023001308210021
:105D8000A0000800D03407340034003464340034F8
:105D9000D0340734D0340734D0340734D034073407
:105DA000D034073401340034D0340734B4340034F0
:105DB000013400340134FF34FF340234013401343F
:105DC0000134FF342100AD01A91FED2EA809A90956
:105DD000A80A0319A90AAD01AD0A2808A0002908DC
:105DE000A100A2018E30AB002B08A3002D08AC004F
:105DF0002C08A400A631372621002008A80021087D
:105E0000A9002208AA0008001A2F22008D100D10E8
:105E1000AE311A26080022008D100D146F08A13132
:105E20000F21080022008D140D1023006308AE31ED
:105E30000226080020005008003A0319052F013AF5
:105E400003190B2F033A0319122F262F08002100E4
:105E5000A101A2012208803AA00080302002031D87
:105E6000332F0C3021020318080021002108A00064
:105E70000130A035FF3E031D392F2035A03E86009E
:105E8000023087000030C03F0030C13FC23FC33FF7
:105E90000130A1070030A23D2A2F8E302100AC0036
:105EA0002C08AD00FF302B050319622F0130AB36F3
:105EB000AA0CA90CA80C890B572F0130AC002C0898
:105EC000AD07522F2808A0002908A1002A08A20027
:105ED0002D08AC002C08A300A401A6313726210010
:105EE0002008A8002108A9002208AA000800200014
:105EF000D51B8B2F5508031D862F5408031D862F95
:105F0000603052020930533B031C8B2F7830F00075
:105F10000030F1000800D51B9E2F5508031D992F56
:105F20005408031D992F583052020230533B031C72
:105F30009E2F3C30F0000030F10008001E30F000D1
:105F40000030F10008002200390838043704031932
:105F5000AB2F8030B9063A082100C10022003B086F
:105F60002100C20022003C082100C30022003708A3
:105F70002100C400220038082100C5002200390891
:105F80002100C60090313120210041082200B700D5
:105F9000210042082200B800210043082200B90075
:105FA00008000030FB000030FA000030F90000303B
:105FB000F800701CE32F7408F8077508F93D76089F
:105FC000FA3D7708FB3D0130F435F50DF60DF70D80
:105FD000890BE42F0130F336F20CF10CF00C890B35
:105FE000EB2F7308720471047004031DD92F7B0812
:105FF000F3007A08F2007908F1007808F000080050
:020000040001F9
:04000E00E2FFFFDF2F
:00000001FF
