:100000008231DE2A013400347E14803120007F08E2
:10001000C3000B1DD92A230058082000C500230067
:1000200057082000C4000130BA000030BB00003087
:10003000BC000030BD004A08BA074B08BB3D4C0865
:10004000BC3D4D08BD3D3D08CD003C08CC003B0803
:10005000CB003A08CA000130BA000030BB000030C3
:10006000BC000030BD00230028082000BA07230090
:1000700029082000BB3D23002A082000BC3D2300A6
:100080002B082000BD3D3D082300AB0020003C08AC
:100090002300AA0020003B082300A90020003A0802
:1000A0002300A80001302000BA000030BB0000305F
:1000B000BC000030BD004608BA074708BB3D4808F1
:1000C000BC3D4908BD3D3D08C9003C08C8003B088F
:1000D000C7003A08C6000130BA000030BB0000304B
:1000E000BC000030BD00230024082000BA07230014
:1000F00025082000BB3D230026082000BC3D23002E
:1001000027082000BD3D3D082300A70020003C0833
:100110002300A60020003B082300A50020003A0889
:100120002300A4000130A0070030A13D0030A23D13
:100130000030A33D20005203031DB52801302300E9
:10014000B6070030B73D370820006202031DAC2817
:1001500023003608200061020318B5286208230036
:10016000B700200061082300B60020005403031DDF
:10017000D02801302300B8070030B93D39082000ED
:100180006202031DC72823003808200061020318FB
:10019000D02862082300B900200061082300B800BD
:1001A00020004A08BA004B08BB004C08BC004D08B0
:1001B000BD00230057082000BE002300580820007F
:1001C000BF000030BF1BFF30C000C1003E08BA07AF
:1001D0003F08BB3D4008BC3D4108BD3D5E08803A3C
:1001E000C2003D08803A4202031D00293C085D021E
:1001F000031D00293B085C02031D00293A085B022D
:1002000003180F294A09BA004B09BB00BA0A03199F
:10021000BB0A5B083A07C4005C083B3DC5006708A1
:10022000031D7A295008031D7A295608031D7A29CF
:100230004D08803ABA0023004A08803A20003A026A
:10024000031D32292300490820004C02031D3229D6
:100250002300480820004B02031D322923004708D1
:1002600020004A02031C682922000D1600302000DD
:10027000CD000030CC000030CB000030CA0023009D
:1002800043030319472920006803031D682924003C
:10029000CF01D0012300C3012000E801003023007A
:1002A000A7000030A6000030A5000030A400C50162
:1002B00020005E082300AB0020005D082300AA0098
:1002C00020005C082300A90020005B082300A80090
:1002D0002000CD1B7A294D08031D78294C08031DE9
:1002E00078294B08031D78291E304A02031C7A29FD
:1002F00022000D1220005603031DAA292300A31B70
:1003000099292308031D8E292208031D8E292108FF
:10031000031D8E29FA302002031C992922000D1496
:1003200000302300A3000030A2000030A100003004
:10033000A000A31BAA292308031DA8292208031D26
:10034000A8292108031DA8291E302002031CAA2960
:1003500022000D1020005608031D082A5508031D11
:10036000082A23002B08803A2000BA005E08803A51
:100370003A022300031DCC2920005D0823002A0235
:10038000031DCC2920005C0823002902031DCC2971
:1003900020005B0823002802031CEB2920005808DA
:1003A000031DDD296408F1006308F0000130F2004C
:1003B0000030F300A3316D23803120005C08C500BC
:1003C0005B08C40000302300AB000030AA000030FE
:1003D000A9000030A800AB1B082A2B08031DFA292E
:1003E0002A08031DFA292908031DFA2914302802B6
:1003F000031C082A20005808031D082A6408F1007D
:100400006308F0000030F200F300A3316D23803167
:1004100020004408BA004508BB000030BB1BFF3079
:10042000BC00BD0023002708803A2000BE003D0824
:10043000803A3E022300031D2D2A20003C082300A1
:100440002602031D2D2A20003B0823002502031D40
:100450002D2A20003A0823002402031CA32A00307E
:10046000A7000030A6000030A5000030A400AF3186
:100470004527803124005008803A2000BA007108D6
:10048000803A3A02031D472A700824004F02031CD9
:100490004F2A2400CF01D00122000D14512A22003E
:1004A0000D10240050082000BB0024004F0820003D
:1004B000BA00BA35BB0D8A30BC002330BD003A0803
:1004C0003C0786003B083D3D8700403F2300BA00C3
:1004D000413FBB003A082000AE0023003B0820004B
:1004E000AF00890D893B8909B000B10024004108A3
:1004F0002000B200240042082000B300890D893B8F
:100500008909B400B500A2316122803120002F0892
:100510002300BB0020002E082300BA000230F000A8
:100520000030F1003B08F3003A08F200A431E22465
:10053000803171082600920070089100013024007B
:10054000CF070030D03D23004403031DD12A0130E2
:100550002000BA003A08D70723004C08803A803CB4
:10056000031DB52A4B0820005702031CD62A22007F
:100570008D1423004C082000BB0023004B082000F2
:10058000BA00BA35BB0D3B08803ABC0080303C0253
:10059000031DCC2A57083A020318D82A2000D70195
:1005A000D82A200057080319D82AD70122008D1015
:1005B0000B1120004308FF007E1009008231E02A61
:1005C0008A308400233085006630FE000230FF0050
:1005D000AD31A9258231FD0146308400003085000F
:1005E0001530FE000030FF00AD31A9258231A0306A
:1005F0008400013085002730FE000030FF00AD315F
:10060000A925823120308400023085003530FE007B
:100610000030FF00AD31A9258231A03084000230C6
:1006200085002C30FE000030FF00AD31A92582315D
:1006300020308400033085004030FE000030FF0091
:10064000AD31A9258231A0308400033085004030CF
:10065000FE000030FF00AD31A9258231B5308400A5
:10066000AD3085005B308600003087000030FF0031
:100670001130AD319D25823122008731FF27823133
:10068000EF0025308400AE308500C7308600013091
:1006900087000030FF001B30AD319D2582312400E2
:1006A000803102208231DE0080310320DF007E10A5
:1006B000200083315B2BA7317F278331123021004B
:1006C000A0007A30A100A231E3228331AD3172253E
:1006D0008331AF31A02783312000101490140F17FD
:1006E0008F160E148F179031002083318731F02739
:1006F0008331A731092783318D31DD258331A03145
:100700007D208331A531D925833192313222833145
:100710002000560303198F2B8931FD2183312000DE
:10072000560303199E2B55082300610603199E2BBF
:10073000A33126238331A331FD2383310030AD3132
:10074000C6258331210021082300AD0021002008A7
:100750002300AC000130AD31C625833121002108D2
:100760002300AF00210020082300AE000230AD318D
:10077000C6258331210021082300B1002100200873
:100780002300B0000330AD31C6258331210021089C
:100790002300B300210020082300B2000430AD3153
:1007A000C6258331210021082300B500210020083F
:1007B0002300B4004D092200EA0023004E09220064
:1007C000EB00EA0A0319EB0A23002C0822006A074F
:1007D000EC0023002D0822006B3DED006D08803AEF
:1007E000EE0080306E02031DF72B04306C020318FC
:1007F000192C23004D092200EA0023004E09220093
:10080000EB00EA0A0319EB0A23002C0822006A070E
:10081000EC0023002D0822006B3DED006D08803AAE
:10082000EE007F306E02031D172CFD306C020318A2
:10083000772C23002D08CE002C08CD004E08210077
:10084000A90023004D082100A800AE31D526833130
:10085000210028082400D500210029082400D60002
:1008600021002A082400D70055082200E7002400B0
:1008700056082200E800240057082200E9009B31B6
:100880005823833122006808260099002200670857
:100890002600980023004E082100A90023004D08DF
:1008A0002100A800AE31D52683312100280824007C
:1008B000D800210029082400D90021002A0824009A
:1008C000DA0058082200E700240059082200E80056
:1008D00024005A082200E9009D31D02583312200EE
:1008E000680826009D002200670826009C0023005F
:1008F0004F092200EA00230050092200EB00EA0A17
:100900000319EB0A23002E0822006A07EC002300DB
:100910002F0822006B3DED006D08803AEE0080301C
:100920006E02031D952C04306C020318B72C2300B3
:100930004F092200EA00230050092200EB00EA0AD6
:100940000319EB0A23002E0822006A07EC0023009B
:100950002F0822006B3DED006D08803AEE007F30DD
:100960006E02031DB52CFD306C0203182D2D2300E3
:100970002F08D0002E08CF004F092200EA002300E4
:1009800050092200EB00EA0A0319EB0A6A08FF3E4D
:100990002100A800033022006B3D2100A900AE31E8
:1009A000D5268331210028082400DB0021002908F6
:1009B0002400DC0021002A082400DD005B0822005E
:1009C000E70024005C082200E80024005D08220003
:1009D000E900993135218331220068082500920011
:1009E000220067082500910023004F092200EA0039
:1009F000230050092200EB00EA0A0319EB0A6A08F7
:100A0000FF3E2100A800033022006B3D2100A90019
:100A1000AE31D5268331210028082400DB002100D7
:100A200029082400DC0021002A082400DD005B08DE
:100A30002200E70024005C082200E80024005D0892
:100A40002200E90099313521833122006808250010
:100A50009900220067082500980023005109220010
:100A6000EA00230052092200EB00EA0A0319EB0A0C
:100A70002300300822006A07EC002300310822001E
:100A80006B3DED006D08803AEE0080306E02031D74
:100A90004B2D04306C0203186D2D230051092200E8
:100AA000EA00230052092200EB00EA0A0319EB0ACC
:100AB0002300300822006A07EC00230031082200DE
:100AC0006B3DED006D08803AEE007F306E02031D35
:100AD0006B2DFD306C020318D92D23003108D20094
:100AE0003008D10080302100EA009D30EB00433017
:100AF000EC000030E7003430E8004230E900C0305C
:100B0000E4007F30E5004430E6000030E1000030D2
:100B1000E2000030E300230052082100A900230076
:100B200051082100A800AE31D526833121002808C4
:100B3000DE002908DF002A08E0009A3141228331D3
:100B400021005E082200A00021005F082200A10011
:100B5000210060082200A2009931BA2183312200CD
:100B600021082300DA00220020082300D900C30155
:100B7000C30A5A08803A2200EA0080306A02031D44
:100B8000C42DAF3023005902031CD72D23005A086F
:100B9000803A2200EA0080306A02031DD22DB9306B
:100BA000230059020318D72D22008D14D92D2200BD
:100BB0008D10230053092200EA002300540922006B
:100BC000EB00EA0A0319EB0A2300320822006A0745
:100BD000EC002300330822006B3DED006D08803AE5
:100BE000EE0080306E02031DF72D04306C020318F6
:100BF000192E230053092200EA0023005409220081
:100C0000EB00EA0A0319EB0A2300320822006A0704
:100C1000EC002300330822006B3DED006D08803AA4
:100C2000EE007F306E02031D172EFD306C0203189C
:100C30006B2E23003308D4003208D300403021004B
:100C4000EA003030EB004530EC000030E700343093
:100C5000E8004330E900C030E4007F30E500443074
:100C6000E6000030E1000030E2000030E300230045
:100C700054082100A900230053082100A800AE3128
:100C8000D526833121002808DE002908DF002A0844
:100C9000E0009A314122833121005E082200A00049
:100CA00021005F082200A100210060082200A200AC
:100CB0009931BA218331220020082300C700220085
:100CC00021082300C800890D893B8909C900CA0091
:100CD0002000E801E80A230055092200EA00230069
:100CE00056092200EB00EA0A0319EB0A2300340834
:100CF00022006A07EC002300350822006B3DED005E
:100D00006D08803AEE0080306E02031D892E04309B
:100D10006C020318AB2E230055092200EA002300C1
:100D200056092200EB00EA0A0319EB0A23003408F3
:100D300022006A07EC002300350822006B3DED001D
:100D40006D08803AEE007F306E02031DA92EFD3043
:100D50006C020318F52E23003508D6003408D500A0
:100D600000302100EA000030EB000030EC00603081
:100D7000E7009F30E8004430E900C030E4007F30F5
:100D8000E5004430E6000030E1000030E2000030D1
:100D9000E300230056082100A90023005508210084
:100DA000A800AE31D526833121002808DE002908AD
:100DB000DF002A08E0009A314122833121005E08D9
:100DC0002200A00021005F082200A100210060088D
:100DD0002200A2009931BA21833122002108240087
:100DE000C200220020082400C10020006803031D67
:100DF0002C2F23004A082000DE0023004908200091
:100E0000DD00230048082000DC0023004708200004
:100E1000DB00230048082200C0002300470822000E
:100E2000BF00200064082200C200200063082200E6
:100E3000C10087313527833122003F082000DB00C5
:100E4000220040082000DC00890D893B8909DD0073
:100E5000DE009A31CC2283312300430303197C2B1B
:100E600020006803031D7F2B7C2B2300BE01220082
:100E70004008CA003F08C9000030C6008030C700E3
:100E80003F30C8005E2F0030C6000030C700403041
:100E90005C2FA630C6002A30502F0030C60000302C
:100EA000C7003F305C2FA630C600AA305A2F003052
:100EB000C6008030C7003E30C800772F4208003A95
:100EC0000319632F772F4108013A0319432F033A7F
:100ED0000319492F013A03194D2F073A0319532FCC
:100EE000013A0319572F033A0319772F772F4A082E
:100EF0002100A900220049082100A800AE31D52612
:100F0000873121002808B1002908B2002A08B3005F
:100F1000220046082100AE00220047082100AF0051
:100F2000220048082100B0009E317B268731210035
:100F30002E082200A00021002F082200A10021007D
:100F400030082200A2009931BA21873122002108FD
:100F5000CA002008C9004A082100A9002200490847
:100F60002100A800AE31D5268731210028082200B3
:100F7000B600210029082200B70021002A0822001B
:100F8000B800A331B523873122003608C3003708E3
:100F9000C4003808C5004A082100A90022004908F9
:100FA0002100A800AE31D526873121002A08220071
:100FB0004506031DE52F2100290822004406031DD4
:100FC000E52F21002808220043060319EA2F2300F9
:100FD000BE01BE0A22004A08C0004908BF0008003E
:100FE000AD317625873121002108BB002008BA00E9
:100FF0003B08B7003A08B600AE315C260800FF3463
:101000002200410840043F04031908288030C1062B
:1010100042082100C100220043082100C200220032
:1010200044082100C30022003F082100C400220020
:1010300040082100C500220041082100C60090316F
:101040002620210041082200BF0021004208220082
:10105000C000210043082200C10008002200D20184
:1010600045082100A000220046082100A10022001E
:1010700047082100A2000030A3000030A400003087
:10108000A500A1312A2188310318632822004508D0
:101090002100BE00220046082100BF0022004708B0
:1010A0002100C000AD318A25883121003E08220090
:1010B000C50021003F082200C60021004008220090
:1010C000C700D201D20AFA302100AE002230AF00B0
:1010D0003E30B000220045082100B1002200460841
:1010E0002100B200220047082100B3009E317B2678
:1010F000883121002E082200C50021002F0822007F
:10110000C600210030082200C7004508B600460886
:10111000B7004708B8009C31802488312200360887
:10112000BF003708C0003808C1004508C2004608A3
:10113000C3004708C40088310020883122003F08DE
:10114000C5004008C6004108C70000302100AE00BD
:101150008030AF004030B000220045082100B100CF
:10116000220046082100B200220047082100B300F7
:101170009E317B26883121002E082200C5002100E7
:101180002F082200C600210030082200C7000030CE
:101190002100A0000030A1004030A200220045083C
:1011A0002100A300220046082100A40022004708D5
:1011B0002100A500A1312A2188310318FF28003021
:1011C0002200BF000030C0004030C1004508C2000E
:1011D0004608C3004708C400883100208831220037
:1011E0003F08C5004008C6004108C7005208031D5B
:1011F000FB280130FC280030C8004808D20000302D
:101200002100A0008030A1003F30A200220045084C
:101210002100A300220046082100A4002200470864
:101220002100A500A1312A2188310318432900306B
:101230002100C1000030C2004030C3002200450838
:101240002100BE00220046082100BF0022004708FE
:101250002100C000AD318A25883121003E08C4003C
:101260003F08C5004008C600903126208831210083
:1012700041082200C500210042082200C6002100CA
:1012800043082200C700220045082100AE002200CA
:1012900046082100AF00220047082100B0002200CC
:1012A00045082100B100220046082100B2002200BA
:1012B00047082100B3009E317B26883121002E088B
:1012C0002200CF0021002F082200D000210030088A
:1012D0002200D1004F08B4005008B5005108B600F4
:1012E0004830B700A830B8000330B9000030BA0069
:1012F000A6319726883122003408C9003508CA0073
:101300003608CB000430B9000030BA003930B700DD
:10131000A830B8004F08B4005008B5005108B60016
:10132000A63197268831220034082100D1002200FE
:1013300035082100D200220036082100D300220007
:1013400049082100CE0022004A082100CF002200D7
:101350004B082100D0009D312725883121004E08FF
:101360002200CC0021004F082200CD0021005008AF
:101370002200CE004C082100AE0022004D082100C2
:10138000AF0022004E082100B000220045082100D5
:10139000B100220046082100B200220047082100C7
:1013A000B3009E317B26883121002E082200C50023
:1013B00021002F082200C600210030082200C700AB
:1013C00052080319080045082100BE002200460803
:1013D0002100BF00220047082100C000AD318A254E
:1013E00021003E082200C50021003F082200C6005F
:1013F000210040082200C70008002100C40120008D
:101400001018082A59080319122A0130D902122A81
:10141000193059020318122A01302100BC003C087F
:101420002000D9075908031DC72BC91B9C2A49084E
:10143000031D232A4808031D232A1B3046020630B9
:10144000473B031C9C2A230046030319622AC6015A
:10145000C60A00302000C9000030C8000030C700B4
:101460000030C60001302300DB000030DC0000301B
:101470002400C0000030BF000030BE000030BD00BE
:101480002000E8012100C401C40A440820006902C8
:10149000031C622A21004408BC000130BC35FF3E19
:1014A000031D4E2A3C35203E860002308700003066
:1014B000C03F0030C13FC23FC33F0130BC003C08C9
:1014C000C407452A20005408031D6C2AD401D40AFD
:1014D000E7012300B801B9012000620823003902A6
:1014E000031D762A2000610823003802031C08002F
:1014F00020006708031D08005008031D080062084B
:101500002300B900200061082300B80022000D125A
:10151000200052030319942A01302100A00000305A
:10152000A100AE310B26080001302100B8000030C8
:10153000B900A131A32108002000C91BAB2A49082A
:10154000031D08004808031D08001B304602063032
:10155000473B031808006708031D080023004603E3
:1015600003190800C601C60A2000C91BCB2A490876
:10157000031DC32A4808031DC32A943046020430C1
:10158000473B031CCB2A0030C9000030C8000430A0
:10159000C7009430C60069082100BC00BD013C08AA
:1015A000C2003D08C30023005C08803A803C031D54
:1015B000DC2A5B0820006902031C0E2B2000460871
:1015C0002400BD07200047082400BE3D2000480835
:1015D0002400BF3D200049082400C03D23005B08D3
:1015E0002100BC000130BC35FF3E031DF32A3C3511
:1015F000203E86000230870020004608C03F470892
:10160000C13F4808C23F4908C33F23005C0821008E
:10161000C30023005B082100C2008A2B0030240095
:10162000C0000030BF000030BE000030BD0021000F
:10163000C401C40A20006908210044020318642B75
:101640004408BC000130BC35FF3E031D232B3C3554
:10165000043E203E860002308700403FBD00413FEF
:10166000BE00423FBF00433FC0004408C1000130FC
:10167000C135FF3E031D382B4135203E8600023028
:1016800087003D08C03F3E08C13F3F08C23F4008B9
:10169000C33F4408BC000130BC35FF3E031D4C2B4A
:1016A0003C35203E860002308700403F2400BD07C5
:1016B000413FBE3D423FBF3D433FC03D0130210061
:1016C000BC003C08C4071A2B200069082100BC009C
:1016D0000130BC35FF3E031D692B3C35203E8600A2
:1016E0000230870020004608C03F4708C13F480835
:1016F000C23F4908C33F46082400BD0720004708F1
:101700002400BE3D200048082400BF3D20004908B9
:101710002400C03D21004208A0004308A100890D1B
:10172000893B8909A200A300240040082100A700EA
:1017300024003F082100A60024003E082100A50047
:1017400024003D082100A4009831B3202100230883
:101750002300CA00210022082300C900210021081B
:101760002300C800210020082300C7002000E80152
:10177000E80A0030C9000030C8000030C70000305F
:10178000C60001302300DB070030DC3D08001930C3
:1017900020005902031C08002300C6012200EF01AB
:1017A00000302100A000A100AE310B262300B801BB
:1017B000B9012000D40119302100BC003C082000F0
:1017C000D900080000302200BA008030BB003F3052
:1017D000BC000030B7000030B8000030B90031085C
:1017E0002100A000220032082100A10022003308BD
:1017F0002100A20022002E082100A30022002F08B1
:101800002100A400220030082100A500A1312A21D6
:101810008B31031C172C220031082100CE0022003E
:1018200032082100CF00220033082100D22C2200F0
:1018300031082100B100220032082100B20022004C
:1018400033082100B3000030AE000030AF0040305C
:10185000B0009E317B268B3121002E08BE002F0860
:10186000BF003008C000AD318A258B3121003E0811
:10187000C4003F08C5004008C6000030C100B430B5
:10188000C2004330C300903126208B312100410833
:101890002200B400210042082200B50021004308C4
:1018A0002200B60034082100BE00220035082100C5
:1018B000BF00220036082100C000AD318A258B31DF
:1018C00021003E08AE003F08AF004008B0000030E5
:1018D000C100B430C2004330C300220031082100EF
:1018E000BE00220032082100BF0022003308210080
:1018F000C000AD318A258B3121003E08C4003F086D
:10190000C5004008C600903126208B3121004108D7
:10191000CE004208CF004308D0000030D100343060
:10192000D2004330D3009D3127258B3121004E0852
:10193000B1004F08B2005008B3009E317B268B31B6
:1019400021002E082200B70021002F082200B80035
:10195000210030082200B90000302100C100B4305D
:10196000C2004330C300220031082100BE00220023
:1019700032082100BF00220033082100C000AD3131
:101980008A258B3121003E08C4003F08C50040086D
:10199000C600903126208B3121004108CE0042083C
:1019A000CF004308D0000030D1003430D2004330A3
:1019B000D3009D3127258B3121004E082200BA002B
:1019C00021004F082200BB00210050082200BC006B
:1019D00037082100BE00220038082100BF00220085
:1019E00039082100C000AD318A258B3121003E0825
:1019F000C1003F08C2004008C30022002E08210099
:101A0000AE0022002F082100AF0022003008210084
:101A1000B00022003A082100B10022003B0821005A
:101A2000B20022003C082100B3009E317B268B319E
:101A300021002E08C4002F08C5003008C6009031D0
:101A400026208B31210041082200BD0021004208E0
:101A50002200BE00210043082200BF000030210008
:101A6000A0008730A1004330A20022003D082100E1
:101A7000A30022003E082100A40022003F0821000C
:101A8000A500A1312A218B310318592D00302100E6
:101A9000C100B430C200C330C30022003D082100A1
:101AA000C40022003E082100C50022003F0821009A
:101AB0008D2D00302100A000B430A1004230A200E2
:101AC00022003D082100A30022003E082100A400BE
:101AD00022003F082100A500A1312A218B310318E3
:101AE0009D2D00302100C1003430C2004330C300BE
:101AF00022003D082100BE0022003E082100BF0058
:101B000022003F082100C000AD318A258B31210021
:101B10003E08C4003F08C5004008C600903126209A
:101B20008B31210041082200BD0021004208220023
:101B3000BE00210043082200BF0000302100CE007B
:101B40001030CF004130D0000030AE002030AF0068
:101B50004130B00022003D082100B10022003E08C3
:101B60002100B20022003F082100B3009E317B26F5
:101B70008B3121002E08D1002F08D2003008D3006D
:101B80009D3127258B3121004E082200BD00210008
:101B90004F082200BE00210050082200BF003D086F
:101BA000A0003E08A1003F08A2009931BA212200FE
:101BB0002108AF002008AE000800AF31D0278D31DA
:101BC000210021082200D700210020082200D60091
:101BD0007A30860024308700403FD000413FD1005A
:101BE0002000600822005106031DFA2D20005F0826
:101BF00022005006031D202E7C30860024308700F2
:101C0000403FD000413FD10023005A082200510636
:101C1000031D0E2E2300590822005006031D202EFE
:101C20007E30860024308700403FD000413FD10005
:101C300057085106031D1E2E5608500603190800AA
:101C400057082100A100220056082100A00068309A
:101C5000A2000130A300A53133258D3121002108D8
:101C60002200D500210020082200D400DA01570804
:101C7000803A803C031D3E2E56085A020318E42F7A
:101C800022005A08D000D1015008AE005108AF0020
:101C90005508B1005408B000AE3140268D31220005
:101CA0002F08D9002E08D800C72F2200590821007C
:101CB000A900220058082100A800AE31D5268D3198
:101CC000210028082200B400210029082200B500C4
:101CD00021002A082200B60023005A082100A9008A
:101CE000230059082100A800AE31D5268D312100EE
:101CF00028082200B700210029082200B80021008E
:101D00002A082200B900963154268D3122005A0843
:101D1000D000D101D035D10D8A30D2002330D3008C
:101D20005008520786005108533D87003408C03FD1
:101D30003508C13FDE2F220059082100A9002200EA
:101D400058082100A800AE31D5268D312100280881
:101D50002200AE00210029082200AF0021002A083D
:101D60002200B00023005A082100A90023005908CE
:101D70002100A800AE31D5268D312100280822008F
:101D8000B100210029082200B20021002A08220007
:101D9000B3008B31E2238D3122005A08D000D101EB
:101DA000D035D10D8A30D2002330D30050085207ED
:101DB00086005108533D87002E08C03F2F08C13FC1
:101DC000DE2F220059082100A90022005808210016
:101DD000A800AE31D5268D31210028082200C80088
:101DE000210029082200C90021002A082200CA0077
:101DF00023005A082100A900230059082100A80047
:101E0000AE31D5268D31210028082200CB002100DB
:101E100029082200CC0021002A082200CD00A1318F
:101E200066218D3122005A08D000D101D035D10D64
:101E30008A30D2002330D300500852078600510860
:101E4000533D87004808C03F4908C13FDE2F2200AC
:101E500059082100A900220058082100A800AE312D
:101E6000D5268D31210028082200C500210029082F
:101E70002200C60021002A082200C70023005A08B9
:101E80002100A900230059082100A800AE31D52661
:101E90008D31210028082200C800210029082200D5
:101EA000C90021002A082200CA00AE3178268D31EF
:101EB00022005A08D000D101D035D10D8A30D2008D
:101EC0002330D3005008520786005108533D870045
:101ED0004508C03F4608C13FDE2F220059082100B7
:101EE000A900220058082100A800AE31D5268D3166
:101EF000210028082200AE00210029082200AF009E
:101F000021002A082200B00023005A082100A9005D
:101F1000230059082100A800AE31D5268D312100BB
:101F200028082200B100210029082200B200210067
:101F30002A082200B3009431AA248D3122005A08C5
:101F4000D000D101D035D10D8A30D2002330D3005A
:101F50005008520786005108533D87002E08C03FA5
:101F60002F08C13FDE2F22005A08D000D101D03502
:101F7000D10D8A30D2002330D3005008520786009A
:101F80005108533D87000030C03FC13FDE2F200085
:101F90006008003A0319CD2FB32F5F08013A0319E7
:101FA000552E033A03199B2E013A0319E12E073AE5
:101FB0000319272F013A03196D2FB32F0130220087
:101FC000D0005008DA07372E7A3086002430870098
:101FD00020005F08C03F6008C13F7C30860024308D
:101FE000870023005908C03F5A08C13F7E30860051
:101FF0002430870022005608C03F5708C13F080020
:102000002100A101A2012208803AA0008030200214
:10201000031D0C280C3021020318080021002108A0
:10202000A0000130A035FF3E031D12282035A03E40
:102030008600023087000030C03F0030C13FC23F01
:10204000C33F0130A1070030A23D03282100410811
:10205000C7004208C8004308C9000310480D490DD5
:10206000CA004A08CD004408C7004508C800460811
:10207000C9000310480D490DCA004A08CC004D089C
:1020800003194E284C084D02031855284D03FF3AFA
:102090004C07C70019304702031C55284408C100EB
:1020A0004508C2004608C30008004C080319080090
:1020B0004D084C02031864284C03FF3A4D07C70033
:1020C00019304702031808000630C7004708CB0044
:1020D000C31BCB17C61B4B17C217FF30C105FF3000
:1020E000C2050030C305C517FF30C405FF30C50564
:1020F0000030C6054C084D020318A0280130C43535
:10210000C50DC60D890B7F280130CC024C084D0649
:1021100003199B280130CB024B08073903199B2870
:102120007E280130C336C20CC10C890B92280130C5
:10213000C7004708CD074D084C060319C52891284C
:102140004D084C020318C5280130C135C20DC30D1E
:10215000890BA5280130CD024C084D060319C12872
:102160000130CB024B0807390319C128A4280130DC
:10217000C636C50CC40C890BB8280130C700470807
:10218000CC074D084C06031DB728CB1FD728FF30BE
:10219000C106FF30C206FF30C3060130C107003060
:1021A00003180130C207003003180130C3074B1F6A
:1021B000E928FF30C406FF30C506FF30C6060130EF
:1021C000C407003003180130C50700300318013080
:1021D000C607CB014108C4074208C53D4308C63DB8
:1021E000C61F0429FF30C406FF30C506FF30C606EF
:1021F0000130C407003003180130C5070030031850
:102200000130C607CB01CB0A4408A0004508A10055
:102210004608A2004D08C7004708A3004B08C800A5
:102220004808A400A631322621002008C100210858
:10223000C2002208C30008002200E2015708560429
:102240005504031D482900302100A0000030A100E2
:102250000030A200220058082100A30022005908E3
:102260002100A40022005A082100A500A1312A2142
:102270009131031C402921302400CD000030CE00D4
:1022800000302200D5000030D6000030D700080012
:102290005A0859045804031D54290030D5008030D1
:1022A000D6003F30D700080055082100A0002200CA
:1022B00056082100A100220057082100A20000308A
:1022C000A3000030A4000030A500A1312A219131E3
:1022D0000318CE2922005808A0005908A1005A0866
:1022E000A2009931BA21913122002308E600220888
:1022F000E5002108E4002008E30066082100AB00A7
:10230000220065082100AA00220064082100A9001B
:10231000220063082100A800AF311B279131220061
:102320005A0821002A06031D9F292200590821006E
:102330002906031D9F292200580821002806031999
:10234000AE2921302400CD000030CE000030220024
:10235000D5000030D6000030D70008002200630806
:102360000139DB005B08E20055082100BE002200B5
:1023700056082100BF00220057082100C000AD31DF
:102380008A25913121003E082200D50021003F0816
:102390002200D600210040082200D7002200550864
:1023A000BE005608BF005708C0009F312F2791314B
:1023B00022003E08DC003F08DD004008DE0058082F
:1023C0002100AE00220059082100AF0022005A0867
:1023D0002100B00022005C082100B10022005D084D
:1023E0002100B20022005E082100B3009E317B264E
:1023F000913121002E082200DF0021002F08220049
:10240000E000210030082200E1005F08C8006008F9
:10241000C9006108CA009331512391312200480854
:10242000D5004908D6004A08D700620803190800F9
:1024300055082100BE00220056082100BF002200DE
:1024400057082100C000AD318A2521003E08220036
:10245000D50021003F082200D600210040082200BC
:10246000D700080020009018482A23003D08803A31
:102470002100BC0080303C02031D412A01302300B2
:102480003C02031C5B2AFF302300BC07FF305A2AA2
:1024900023003D08803A2100BC0080303C02031D2F
:1024A000542A193023003C0203185B2A0130230010
:1024B000BC070030BD3D23003C083D04031DE12A5C
:1024C00020005208031D692AD201D20A2300B60156
:1024D000B7012000620823003702031D732A200081
:1024E000610823003602031CAF2A20005108031D97
:1024F000AF2A5008031DAF2A22000D1120005403FB
:102500000319A72A6B03031DAF2AD101D10A53086F
:10251000031D952A22000D1101302100A00000307A
:10252000A100AE31B4269231AF2A01302100B600AD
:102530000030B700AE315C26923100302100A0009F
:10254000A100AE31B426923122000D15AF2A013020
:102550002100B8000030B900A131A321923122003E
:102560000F1220005008031DDD2A5108031DDD2A2B
:102570006B03031DC92A24005E035F04031DDD2ACB
:102580002300DE01DE0A01302400D1000030D20039
:10259000DD2A23003F030319DD2ADE01BF01BF0A44
:1025A0002400D101D201200053082100BC003C08C6
:1025B0002300C1002000D301D2012400DE01DF018D
:1025C000080023003D08803A2100BC0080303C0216
:1025D000031DED2A193023003C02031C08002000D3
:1025E0005003031DFC2A23005E082100BC00BD012E
:1025F0003C08B6003D082B2B23003F03031D1C2B7A
:102600004103031D162B22000D1101302100A000F3
:102610000030A100AE31B426923101302100B20069
:102620000030B300A031472092312F2B0130210020
:10263000B6000030B7002C2B240051035204031DB8
:102640002F2B20005108031D2F2B5008031D2F2B6B
:1026500000302100B600B700AE315C269231200078
:10266000D1015308031D3A2B6B0C2200031C0D11E2
:1026700003180D1500302100B800B900A131A321C5
:102680002000D2012300BF012400D101D20101307A
:10269000DE000030DF0019302300BC000030BD0038
:1026A000080022004A0849044804031D5E2B00303C
:1026B000C8008030C9003F30CA00080072302100D5
:1026C000A0003130A1004430A200220048082100BF
:1026D000A300220049082100A40022004A0821008A
:1026E000A500A1312A2193310318832B2230240025
:1026F000CD000030CE00FF302200C8007F30C9007E
:102700007F30CA000800220048082100A0002200F3
:1027100049082100A10022004A082100A2004930F6
:10272000A3003A30A400C430A500A1312A2193317E
:102730000318A72B22302400CD000030CE0000303B
:102740002200C8000030C9000030CA000800220082
:1027500048082100A000220049082100A100220011
:102760004A082100A2000030A3000030A40000307D
:10277000A500A1312A2193310318C02B0130C12BB0
:1027800000302200CB004B08D40054080319E22B80
:1027900048082100BE00220049082100BF00220095
:1027A0004A082100C000AD318A25933121003E083E
:1027B0002200C80021003F082200C9002100400873
:1027C0002200CA00AA302100AE00B830AF003F306E
:1027D000B000220048082100B10022004908210071
:1027E000B20022004A082100B3009E317B269331BB
:1027F00021002E082200C80021002F082200C90055
:10280000210030082200CA004808B6004908B70075
:102810004A08B8009C318024933122003608CC004D
:102820003708CD003808CE004C08A0004D08A100A4
:102830004E08A2009931BA21933122002108D30019
:102840002008D20053082100A900220052082100CC
:10285000A800AE31D5269331210028082200BF0000
:10286000210029082200C00021002A082200C100FE
:102870004808C2004908C3004A08C4008831002043
:10288000933122003F08C8004008C9004108CA002F
:102890004808B4004908B5004A08B6000030B7003F
:1028A000A830B8000930B9000030BA00A631972628
:1028B000933122003408BE003508BF003608C0003E
:1028C0005308C2005208C1009B31E9239331220012
:1028D0003E08C8003F08C9004008CA005408031950
:1028E0000800FF30CF007F30D0007F30D1004A0891
:1028F0005106031D812C49085006031D812C4808F0
:102900004F06031D8A2C0030C8000030C90000307B
:10291000CA00080048082100CE0022004908210012
:10292000CF0022004A082100D0000030D1008030C2
:10293000D2003F30D3009D31272521004E082200D0
:10294000C80021004F082200C900210050082200C1
:10295000CA00080000302200C2008030C3003F30AF
:10296000C4000030BF000030C0000030C10031089A
:102970002100A000220032082100A100220033081B
:102980002100A20022002E082100A30022002F080F
:102990002100A400220030082100A500A1312A2135
:1029A0009431031CDF2C220031082100CE002200CC
:1029B00032082100CF00220033082100BC2D220064
:1029C00031082100B100220032082100B2002200AB
:1029D00033082100B3000030AE000030AF004030BB
:1029E000B0009E317B26943121002E08BE002F08B6
:1029F000BF003008C000AD318A25943121003E0867
:102A0000C4003F08C5004008C6000030C100B43013
:102A1000C2004330C3009031262094312100410888
:102A20002200B400210042082200B5002100430822
:102A30002200B60034082100BE0022003508210023
:102A4000BF00220036082100C000AD318A25943134
:102A500021003E08AE003F08AF004008B000003043
:102A6000C100B430C2004330C3002200310821004D
:102A7000BE00220032082100BF00220033082100DE
:102A8000C000AD318A25943121003E08C4003F08C2
:102A9000C5004008C600903126209431210041082D
:102AA000CE004208CF004308D0000030D1003430BF
:102AB000D2004330D3009D312725943121004E08A8
:102AC000B1004F08B2005008B3009E317B2694310C
:102AD00021002E082200B70021002F082200B80094
:102AE000210030082200B90000302100C100B430BC
:102AF000C2004330C300220037082100C400220076
:102B000038082100C500220039082100C600903194
:102B100026209431210041082200BF0021004208F4
:102B20002200C000210043082200C1000030210023
:102B3000C100B430C2004330C3002200310821007C
:102B4000BE00220032082100BF002200330821000D
:102B5000C000AD318A25943121003E08C4003F08F1
:102B6000C5004008C600903126209431210041085C
:102B7000CE004208CF004308D0000030D1003430EE
:102B8000D2004330D3009D312725943121004E08D7
:102B90002200C20021004F082200C300210050087B
:102BA0002200C40042082100B10022004308210095
:102BB000B200220044082100B30022002E082100A8
:102BC000AE0022002F082100AF00220030082100B3
:102BD000B0009E317B26943121002E08C4002F08BE
:102BE000C5003008C60022003F082100BE002200B8
:102BF00040082100BF00220041082100C000AD3183
:102C00008A25943121003E08C1003F08C2004008D7
:102C1000C300903126209431210041082200BA00DF
:102C2000210042082200BB00210043082200BC0012
:102C30003A082100B10022003B082100B200220026
:102C40003C082100B3000030AE00A030AF0040309F
:102C5000B0009E317B26943121002E08D1002F0830
:102C6000D2003008D3000030CE001030CF00413009
:102C7000D0009D312725943121004E082200A0006C
:102C800021004F082200A100210050082200A200CC
:102C90009931BA2122002108BE002008BD003E085B
:102CA000AF003D08AE00080000302200C2008030B6
:102CB000C3003F30C4000030BF000030C00000300F
:102CC000C10037082100A000220038082100A1001F
:102CD000220039082100A200220034082100A300AC
:102CE000220035082100A400220036082100A5009A
:102CF000A1312A219631031C892E22003708210098
:102D0000CE00220038082100CF002200390821001F
:102D1000442F220037082100B1002200380821008A
:102D2000B200220039082100B3000030AE000030AC
:102D3000AF004030B0009E317B26963121002E0836
:102D4000BE002F08BF003008C000AD318A25963183
:102D500021003E08C4003F08C5004008C6000030FE
:102D6000C100B430C2004330C300903126209631F8
:102D7000210041082200BC00210042082200BD00C1
:102D8000210043082200BE003C082100BE002200B2
:102D90003D082100BF0022003E082100C000AD31E7
:102DA0008A25963121003E08AE003F08AF0040085A
:102DB000B0000030C100B430C2004330C300220074
:102DC00037082100BE00220038082100BF00220081
:102DD00039082100C000AD318A25963121003E0816
:102DE000C4003F08C5004008C60090312620963137
:102DF00021004108CE004208CF004308D000003037
:102E0000D1003430D2004330D3009D312725963194
:102E100021004E08B1004F08B2005008B3009E31A7
:102E20007B26963121002E082200BF0021002F08AA
:102E30002200C000210030082200C1000030210023
:102E4000C100B430C2004330C30022003708210063
:102E5000BE00220038082100BF00220039082100EE
:102E6000C000AD318A25963121003E08C4003F08DC
:102E7000C5004008C6009031262096312100410847
:102E8000CE004208CF004308D0000030D1003430DB
:102E9000D2004330D3009D312725963121004E08C2
:102EA0002200C20021004F082200C3002100500868
:102EB0002200C40000302100CE004030CF0040305E
:102EC000D00022003F082100BE002200400821005F
:102ED000BF00220041082100C000AD318A25963193
:102EE00021003E08C1003F08C2004008C300220084
:102EF00034082100AE00220035082100AF00220076
:102F000036082100B000220042082100B100220052
:102F100043082100B200220044082100B3009E3182
:102F20007B26963121002E08C4002F08C5003008EA
:102F3000C60090312620963121004108D100420878
:102F4000D2004308D3009D312725963121004E0839
:102F50002200C50021004F082200C60021005008B1
:102F60002200C7004508A0004608A1004708A200AB
:102F70009931BA21963122002108AF002008AE0015
:102F80000330B0000030B100AE31402696318230BF
:102F90002200BA002430BB002E083A0786002F0812
:102FA0003B3D8700403FC500413FC600423FC70050
:102FB00045082100B100220046082100B20022008D
:102FC00047082100B3000030AE00C830AF004230E7
:102FD000B0009E317B26963121002E082200A000F1
:102FE00021002F082200A100210030082200A200A9
:102FF0009931BA2122002108B5002008B400080048
:10300000080000302100AB000030AA000030A90009
:103010000030A800201C14282408A8072508A93D72
:103020002608AA3D2708AB3D0130A435A50DA60D05
:10303000A70D890B15280130A336A20CA10CA00CFA
:10304000890B1C282308220421042004031D0A28BC
:103050002B08A3002A08A2002908A1002808A00024
:1030600008002000A901A31F4228A009A109A20964
:10307000A309A00A0319A10A0319A20A0319A30AA2
:10308000A901A90AA71F5328A409A509A609A709E8
:10309000A40A0319A50A0319A60A0319A70A0130ED
:1030A000FC007C08A9060030AD000030AC00003008
:1030B000AB000030AA0023082204210420040319D5
:1030C0009C28A801A80AA31B71280130A035A10DD6
:1030D000A20DA30D890B66280130FC007C08A8070F
:1030E00063280130AA35AB0DAC0DAD0D890B7228EC
:1030F00023082702031D862822082602031D86288E
:1031000021082502031D862820082402031C91287B
:103110002008A4022108A53B2208A63B2308A73BC0
:103120002A140130A336A20CA10CA00C890B922802
:103130000130A802031D712829080319AA28AA0929
:10314000AB09AC09AD09AA0A0319AB0A0319AC0A09
:103150000319AD0A2D08A3002C08A2002B08A1001A
:103160002A08A00008002100AA01A31FC428A00962
:10317000A109A209A309A00A0319A10A0319A20A15
:103180000319A30AAA01AA0AA71FD528A409A509F9
:10319000A609A709A40A0319A50A0319A60A03196F
:1031A000A70A0130A8002808AA060030AE000030A7
:1031B000AD000030AC000030AB0023082204210435
:1031C000200403191E29A901A90AA31BF328013011
:1031D000A035A10DA20DA30D890BE8280130A80090
:1031E0002808A907E5280130AB35AC0DAD0DAE0DB3
:1031F000890BF42823082702031D08292208260228
:10320000031D082921082502031D0829200824027E
:10321000031C13292008A4022108A53B2208A63B71
:103220002308A73B2B140130A336A20CA10CA00C41
:10323000890B14290130A902031DF3282A08031958
:103240002C29AB09AC09AD09AE09AB0A0319AC0ACC
:103250000319AD0A0319AE0A2E08A3002D08A20017
:103260002C08A1002B08A0000800220069086804AF
:103270006704031D41290030E7008030E8003F303B
:10328000E900C0302100CE007F30CF004430D000B4
:10329000220067082100D100220068082100D20026
:1032A000220069082100D3009D3127259931210092
:1032B0004E082300E50021004F082300E60021000E
:1032C00050082300E70056302200D8008E30D90085
:1032D000BF30DA00230065082200D500230066080D
:1032E0002200D600230067082200D70091311C215C
:1032F0009931220055082300E800220056082300D7
:10330000E900220057082300EA009F302100AE00A8
:103310006830AF004030B000230068082100B100E1
:10332000230069082100B20023006A082100B300CD
:103330009E317B26993121002E082300E2002100D6
:103340002F082300E300210030082300E400620876
:103350002200A000230063082200A10023006408CB
:103360002200A2009931BA2122002108E800200899
:10337000E700080022002008A4002108A500220878
:10338000A6000310250D260DA7002708AD002D0867
:10339000031DD3290030A3000030A2000030A1009B
:1033A0000030A00008002008A4002108A500220881
:1033B000A6001730A636A50CA40C890BDA29240820
:1033C000A7002708A800A117FF30A005FF30A1051E
:1033D0000030A2052008A9002108AA002208AB009D
:1033E000AC018E30AD02AD1F112A2D08803A8F3E00
:1033F0000318032A0030A3000030A2000030A1000F
:103400000030A00008000130AC36AB0CAA0CA90CAF
:10341000890B042A0130A4002408AD0703192A2AC5
:10342000032A18302D02031C272A0030A300003085
:10343000A2000030A1000030A00008000130A93532
:10344000AA0DAB0DAC0D890B1F2A0130AD022D0862
:10345000031D1E2A28080319382AA909AA09AB093D
:10346000AC09A90A0319AA0A0319AB0A0319AC0A81
:103470002C08A3002B08A2002A08A1002908A000FC
:10348000080021006408C1006508C2006608C30086
:103490006108BE006208BF006308C000AD318A2524
:1034A0009A3121003E08C4003F08C5004008C6000C
:1034B000903126209A3121004108CE004208CF00E9
:1034C0004308D0006A08C1006B08C2006C08C30042
:1034D0006708BE006808BF006908C000AD318A25D2
:1034E0009A3121003E08C4003F08C5004008C600CC
:1034F000903126209A3121004108AE004208AF00E9
:103500004308B0005E08C1005F08C2006008C30045
:103510006108BE006208BF006308C000AD318A25A3
:103520009A3121003E08C4003F08C5004008C6008B
:10353000903126209A3121004108B1004208B200A2
:103540004308B3009E317B269A3121002E08D1001A
:103550002F08D2003008D3009D3127259A31210051
:103560004E08ED004F08EE005008EF006708C1005C
:103570006808C2006908C3006D08C4006E08C50071
:103580006F08C6009031262021004108DE00420865
:10359000DF004308E00008002300BE01AF31D02760
:1035A0009A31210021082200BB00210020082200BE
:1035B000BA0020005E082200B10020005D08220051
:1035C000B00020005C082200AF0020005B08220051
:1035D000AE00A43147249A3122002E082100D100E8
:1035E00022002F082100D200220030082100D30041
:1035F00022003B082100A90022003A082100A8006F
:10360000AE31D5269A3121002808CE002908CF00F6
:103610002A08D0009D3127259A3121004E0822002A
:10362000A00021004F082200A10021005008220024
:10363000A2009931BA219A31220021082300D80032
:10364000220020082300D70058082200AF002300E2
:1036500057082200AE003B08B1003A08B000AE3176
:1036600040269A3122002E08B6002F08B7000030FD
:10367000B71BFF30B800B90020005E0822003906F1
:10368000031D522B20005D0822003806031D522B1B
:1036900020005C0822003706031D522B20005B0827
:1036A00022003606031908002300BE01BE0A0800E6
:1036B0002200690868046704031D632BFF30E700DC
:1036C0000030E8000800C03067067F300319680644
:1036D000443003196906031D702BE701E801080057
:1036E000C0302100CE007F30CF004430D000220017
:1036F00067082100D100220068082100D2002200C2
:1037000069082100D3009D3127259B3121004E08F7
:103710002300E50021004F082300E60021005008A7
:103720002300E7006A302200D8009C30D900BF3067
:10373000DA00230065082200D50023006608220075
:10374000D600230067082200D70091311C219B314D
:10375000220055082300E800220056082300E90053
:10376000220057082300EA00E3302100AE000B30AE
:10377000AF004130B000230068082100B1002300F1
:1037800069082100B20023006A082100B3009E31BD
:103790007B269B3121002E082300E20021002F0808
:1037A0002300E300210030082300E4006208220027
:1037B000A000230063082200A10023006408220067
:1037C000A2009931BA2122002108E8002008E70070
:1037D0000800220040083F043E04031DF62B003081
:1037E000BE000030BF000030C000080040087F3934
:1037F000C300C401C335C40D4308C1074408C23D1A
:103800003F0D3F0D0139C300C4014308C1074408FF
:10381000C23DC21F182C22302400CD000030CE0043
:1038200000302200BE000030BF000030C0000800A1
:103830004208803AC30081304302031D212C00302E
:103840004102031C682C22302400CD000030CE0041
:1038500022003E082100A00022003F082100A10014
:10386000220040082100A2000030A3000030A40084
:103870000030A500A1312A219B310318602CFF30B4
:103880002200C5007F30C6007F30C70045082100F8
:10389000BE00220046082100BF0022004708210088
:1038A000C000AD318A2521003E082200BE00210063
:1038B0003F082200BF00210040082200C00008008D
:1038C000FF302200BE007F30BF007F30C000080004
:1038D00022004208C4004108C300440DC40CC30CBC
:1038E0004008430680394306C00041080139C3003F
:1038F000C30CC30C3F0843067F394306BF000800D2
:10390000220036082100A000220037082100A10073
:10391000220038082100A2003D302200B9003908F9
:103920002100A300A131E1219C312200BE1FBE2C49
:1039300036082100A000220037082100A100220043
:1039400038082100A2000030A3000030A40000309D
:10395000A500A1312A219C310318B62C0030220089
:10396000B6008030B700BF30B80008000030220039
:10397000B6000030B7000030B800080000303E024A
:10398000153003193D02031808003608A000370857
:10399000A1003808A2009931BA219C3122002308E5
:1039A000B1002208B0002108AF002008AE00A43109
:1039B00047249C3122002E08BA002F08BB00300893
:1039C000BC0036082100A000220037082100A10019
:1039D000220038082100A20022003A082100A3009A
:1039E00022003B082100A40022003C082100A50081
:1039F000A1312A219C3103181F2D00302100C10064
:103A00008030C200BF30C30022003A082100C40049
:103A100022003B082100C50022003C082100C6000E
:103A200090312620210041082200B60021004208E2
:103A30002200B700210043082200B800080022003D
:103A40003A08B6003B08B7003C08B800080021005F
:103A50005108D4005208D5005308D6000310550D64
:103A6000560DD7005708DC005C08031D3E2D0030C2
:103A7000CE000030CF000030D00008004E08D40047
:103A80004F08D5005008D6000310550D560DD7002D
:103A90005708DD005D08031D542D0030CE000030B6
:103AA000CF000030D00008000030D9000030DA002C
:103AB0000030DB0089305D07D4005408DC02510877
:103AC000D4005208D5005308D6001030D636D50C95
:103AD000D40C890B662D5408D7005708DD004E081A
:103AE000D4004F08D5005008D6001030D636D50C7B
:103AF000D40C890B762D5408D7005708DD0680308A
:103B0000D4005408DD05D217FF30D105FF30D205AF
:103B10000030D305CF17FF30CE05FF30CF05003082
:103B2000D0051830D4005408D8000130D935DA0D4A
:103B3000DB0D890B962D50085302031DA52D4F0850
:103B40005202031DA52D4E085102031CAE2D4E0836
:103B5000D1024F08D23B5008D33B59140130D13524
:103B6000D20DD30D890BAF2D0130D802031D952D39
:103B70005908A0005A08A1005B08A2005C08D40004
:103B80005408A3005D08D5005508A400A6313226CC
:103B900021002008CE002108CF002208D000080014
:103BA0002200690868046704031DD92DE701E801B4
:103BB0000800C03067067F300319680644300319D7
:103BC0006906031DE82DFF30E7000030E80008001B
:103BD00000302100C1008030C2003F30C30022000D
:103BE00067082100D100220068082100D2002200CD
:103BF00069082100D300C030CE007F30CF004430B0
:103C0000D0009D3127259D3121004E08BE004F0870
:103C1000BF005008C000AD318A259D3121003E080B
:103C2000C4003F08C5004008C600903126209D31E1
:103C3000210041082300E500210042082300E6009E
:103C4000210043082300E7006A302200D8009C309E
:103C5000D900BF30DA00230065082200D500230018
:103C600066082200D600230067082200D7009131A1
:103C70001C219D31220055082300E800220056082F
:103C80002300E900220057082300EA00E330210066
:103C9000AE000B30AF004130B000230068082100B7
:103CA000B100230069082100B20023006A08210046
:103CB000B3009E317B269D3121002E082300E200B7
:103CC00021002F082300E300210030082300E40036
:103CD00062082200A000230063082200A100230044
:103CE00064082200A2009931BA2122002108E800CC
:103CF0002008E700080021002E08B4002F08B500B6
:103D00003008B6000310350D360DB7003708B8007F
:103D10003808031D922E0030AE000030AF00003096
:103D2000B00008003108B4003208B5003308B6000E
:103D30000310350D360DB7003708BD003D08031DD3
:103D4000A82E0030AE000030AF000030B0000800F8
:103D50003D087B3EB4003408B8072E08B4002F0895
:103D6000B5003008B6001030B636B50CB40C890B6F
:103D7000B42E3408B7003708BD003108B40032084B
:103D8000B5003308B6001030B636B50CB40C890B4C
:103D9000C42E3408B7003708BD068030B40034089C
:103DA000BD05AF17B217FF30B105FF30B2050030C7
:103DB000B3050030B9000030BA000030BB00073056
:103DC000B4003408BC002E1CEB2E3108B9073208B1
:103DD000BA3D3308BB3D0130B036AF0CAE0C890B99
:103DE000EC2E0130B135B20DB30D890BF22E01303E
:103DF000BC02031DE32E0930B4003408BC002E1CA5
:103E0000072F3108B9073208BA3D3308BB3D0130EE
:103E1000B036AF0CAE0C890B082F0130BB36BA0C94
:103E2000B90C890B0E2F0130BC02031DFF2E39087F
:103E3000A0003A08A1003B08A2003808B4003408EA
:103E4000A3003D08B5003508A400A63132262100A4
:103E50002008AE002108AF002208B00008002200B0
:103E60003E082100A00022003F082100A1002200FE
:103E700040082100A2000030A3000030A400003060
:103E8000A500A1312A219F310318532F213024008E
:103E9000CD000030CE0000302200BE000030BF0058
:103EA0000030C0000800220040083F043E04031D0B
:103EB000662F22302400CD000030CE0000302200DA
:103EC000BE000030BF000030C000080000302100FC
:103ED000C1008030C200BF30C3000030AE000030EF
:103EE000AF004030B00042302200C1004108210044
:103EF000A30022003E082100A00022003F0821006C
:103F0000A100220040082100A200A131E1219F313F
:103F100021002008B1002108B2002208B3009E3120
:103F20007B269F3121002E08C4002F08C5003008D1
:103F3000C600903126209F31210041082200BE009A
:103F4000210042082200BF00210043082200C000D7
:103F5000FF30C207FF30C33D3E08B4003F08B50044
:103F60004008B6001E30B700A830B8000830B900CD
:103F70000030BA00A63197269F3122003408BE00D7
:103F80003508BF003608C0003E082100C1002200ED
:103F90003F082100C200220040082100C300723007
:103FA000AE003130AF003F30B000220043082100A6
:103FB000A900220042082100A800AE31D5269F3179
:103FC00021002808B1002908B2002A08B3009E3158
:103FD0007B269F3121002E08C4002F08C500300821
:103FE000C60090312620210041082200BE00210099
:103FF00042082200BF00210043082200C000080040
:1040020001302100B70037082000D800A4319224E3
:10401200A031A4319224A031A2312122A031A231B7
:1040220021222000D801080000302100B100003018
:10403200B0000030AF000030AE002C08A0002D0808
:10404200A100A201A3010030A7000030A6000330A6
:10405200A500E830A40098310120A03121002308F6
:10406200B1002208B0002108AF002008AE003108DC
:1040720030042F042E0403190800FF30AE07FF306E
:10408200AF3DFF30B03DFF30B13D3828210032084E
:10409200B40034082000EB002100320C2700031C7E
:1040A2000D1103180D15210032083304031D5C287D
:1040B20027008D145E2827008D1014302100AC00DB
:1040C2000030AD00A0311520A03127000D118D1058
:1040D20020006B082100B400B5013408A0003508A7
:1040E200A10098310020A03114302100AC00003032
:1040F200AD00A0311520080020000E18B1280130B3
:104102002400C9070030CA3D4A08803A2100A700AE
:1041120080302702031D90281A3024004902031C14
:10412200080019302400C9000030CA0020005603DC
:10413200031DA028D601AD31F125A031AA280130F6
:104142002100A70027082000D507033055020318D5
:10415200D501AE31F726A03120000E180800AD2897
:104162002400C901CA0108002100A6000630260267
:104172000318D1282608A400A5012408A0002508B8
:10418200A1000130A2000030A300A5318525A03195
:1041920006302100A0000030A100A031EF2008006D
:1041A20006302100A0000030A1000130A200003042
:1041B200A300A5318525A03121002608A400A50170
:1041C200A409A509A40A0319A50A24080B3EA00004
:1041D2000030253DA100A031EF20080022000F1081
:1041E2008F100F118F110F120C2922000F140800CB
:1041F20022008F14080022000F15080022008F15DC
:10420200080022000F16080022000F148F140F1549
:104212008F150F16080021002108003A03191229F0
:1042220029292008013A0319F628033A0319F92823
:10423200013A0319FC28073A0319FF28013A031926
:104242000229033A03192929623A0319052929295E
:1042520008002100A21F41292009A6002109A70068
:104262002209A800A60A0319A70A0319A80A0030FE
:104272002607A0000030273DA1008030283DA20083
:10428200A51F57292309A6002409A7002509A8006C
:10429200A60A0319A70A0319A80A00302607A300D1
:1042A2000030273DA4008030283DA5008030A206C2
:1042B2008030A50625082202031D080024082102D9
:1042C200031D080023082002080022004808B40049
:1042D2004908B5004A08B6004B08B7004C08B800B8
:1042E2004D08B90096315426A13122003508CF007D
:1042F2003408CE004B082100A00022004C08210007
:10430200A10022004D082100A2002200480821003D
:10431200A300220049082100A40022004A0821002B
:10432200A500A1312A21A13103189D299C30220028
:10433200C800FF30C900080064302200C800003005
:10434200C9000800200050082100BA00BB0139084A
:104352003B06031DAE2938083A060319080038083F
:10436200BA003A082000D000210038033904031DA6
:10437200BD2922000D128D1220005003031DD929E0
:104382005608031DCE29D601D60A22008D10200020
:104392006A08A031B520A131D9292000D601AE3159
:1043A200F726A131AD31F125A131A0310120A13192
:1043B20014302100AC000030AD00A03115200800FF
:1043C2002100220821042004031DF5292308860068
:1043D200013087000030C03FC13F0030A0000030F4
:1043E200A1000030A200080022087F39A400A50124
:1043F200A435A50D23088600013087002408C03F9C
:104402002508C13F210D210D0139A400A501230872
:104412008600013087002408810441312508810487
:104422002308860001308700823081074131FF3046
:10443200813D7F31220880393F38A200A113080054
:104442001E302100B2003208B4006430A0000030F7
:10445200A1000130A2000030A300A5318525A231C0
:1044620064302100A0000030A100A031EF20A23171
:1044720021003408B200B3013208AC003308AD00A9
:10448200A0311520A23100302100A000A10001308E
:10449200A2000030A300A5318525A2310030210001
:1044A200A000A100A031EF20A23121003408B20007
:1044B200B3013208AC003308AD00A031152008006A
:1044C20000302000A3000030A2000330A100E83039
:1044D200A0000C30B600F230B7000130B800003056
:1044E200B9003508F3003408F2003308F10032084D
:1044F200F0003108F7003008F6002F08F5002E080A
:10450200F400AF317127A23170082000B60771089C
:10451200B73D7208B83D7308B93D3908A70038089D
:10452200A6003708A5003608A400983131202000E3
:104532002308B1002208B0002108AF002008AE0015
:10454200080022001D1021000E118E1026000D10F1
:104552008D110D12210010139012101290111011D2
:104562000F30250093040F309A040F302600930475
:104572000F309A040F309E040F302C0093040F303A
:1045820096040F3099040F309C040F309F042500CD
:104592009D019E019F010030920032309100003057
:1045A2009900643098000030260092009630910005
:1045B20000309900C8309800AD318125A231AD316B
:1045C2007A250800FF302000CE002100A200220838
:1045D200FD00F52A6730F22A3330F22A1F30F22A20
:1045E200193023009B00182B21002108253A0319BA
:1045F200042B6E3A0319092B313A03190E2BEC3AAC
:104602000319132B182B2008803A0319EB2A182BB5
:104612002008003A0319ED2A182B2008123A031930
:10462200EF2A182B2008003A0319F12A182B23002D
:104632001E139E161E121E159D171D131D169D116B
:10464200210091160B178B17080020000F1B2F2B30
:104652004F080319392B0130CF02392B19304F0281
:104662000318392B01302100B20032082000CF0795
:104672004F08031D08005F08013EDF000030603D67
:10468200E0006008803A2100B20080303202031D4F
:104692004D2B063020005F02031C542B01302000FA
:1046A200DF000030E0002300C301C30A20006008DD
:1046B2002100A10020005F082100A000A031EF200E
:1046C200A33120000F1F622B14302100AC000030F8
:1046D200AD00A0311520080027000C108C100C1121
:1046E2008C110C12982B720C031C0C1003180C1456
:1046F2000800720C031C8C1003188C140800720C36
:10470200031C0C1103180C150800720C031C8C11ED
:1047120003188C150800720C031C0C1203180C16DB
:1047220008000C148C140C158C150C16080071085A
:10473200003A03199D2BB42B7008013A0319742B0C
:10474200033A03197A2B013A0319802B073A03190A
:10475200862B013A03198C2B033A0319B42B623AC4
:104762000319922BB42B0800220036082100A00066
:10477200220037082100A100220038082100A200EF
:104782003D302200B90039082100A300A131E12106
:10479200A3312200BE1FD42B0030B6000030B70078
:1047A2000030B800080000303E02153003193D0207
:1047B200031808003608A0003708A1003808A20034
:1047C2009931BA21A33122002308B1002208B00096
:1047D2002108AF002008AE00A431472422002E0891
:1047E200BA002F08BB003008BC003A08B6003B08EC
:1047F200B7003C08B800080020008F1A062C5A089F
:104802000319102C0130DA02102C19305A02031845
:10481200102C01302100B20032082000DA075A08B9
:10482200031D08006308013EE3000030643DE4001C
:104832006408803A2100B20080303202031D242C29
:10484200073020006302031C2B2C01302000E30000
:104852000030E400200064082100A1002000630869
:104862002100A0000130A2000030A300A53185255F
:10487200A3312000E801E80A8F1E3D2C14302100EC
:10488200AC000030AD00A031152008002200B501B7
:104892008E30B2003208B400B11F5C2CAE09AF09F1
:1048A200B009B109AE0A0319AF0A0319B00A031914
:1048B200B10AB501B50AFF30310503196C2C01307C
:1048C200B136B00CAF0CAE0C890B612C0130B200CA
:1048D2003208B4075C2C2E082100A00022002F0809
:1048E2002100A100220030082100A2002200340889
:1048F200B20032082100A30022003508B3003308B9
:104902002100A400A6313226210020082200AE0098
:10491200210021082200AF00210022082200B0005D
:10492200080001302100B3000030B4003408803A9E
:10493200B20080303202031DA02C0730330203186C
:10494200C62C21003408A1003308A0000130A200C7
:104952000030A300A5318525A43105302100AC002B
:104962000030AD00A0311520A43101302100B30781
:104972000030B43D3408803AB20080303202031D68
:10498200C42C07303302031CA22C05302100B500D1
:104992000030B600B61B08003608A1003508A0009A
:1049A200A031EF20A43105302100AC000030AD0071
:1049B200A0311520A431FF302100B507FF30B63DEC
:1049C200CB2CF601F11FEC2CF009F109F00A0319C6
:1049D200F10AF601F60AF31FF72CF209F309F20ABB
:1049E2000319F30A0130F4007408F606F701F8011E
:1049F200700871040319262DF501F50AF11B0B2D20
:104A02000130F035F10D890B022D0130F4007408EC
:104A1200F507FF2C0130F735F80D890B0C2D7108C5
:104A22007302031D162D70087202031C1D2D7008DF
:104A3200F2027108F33B77140130F136F00C890B66
:104A42001E2D0130F502031D0B2D760803192E2DA4
:104A5200F709F809F70A0319F80A7808F100770844
:104A6200F00008002100A601A11F3E2DA009A10906
:104A7200A00A0319A10AA601A60AA31F492DA20989
:104A8200A309A20A0319A30A0130A4002408A60656
:104A9200A701A801200821040319782DA501A50A60
:104AA200A11B5D2D0130A035A10D890B542D0130C4
:104AB200A4002408A507512D0130A735A80D890BA4
:104AC2005E2D21082302031D682D20082202031CEB
:104AD2006F2D2008A2022108A33B27140130A13622
:104AE200A00C890B702D0130A502031D5D2D260837
:104AF2000319802DA709A809A70A0319A80A2808DB
:104B0200A1002708A000080027000C108C100C112F
:104B12008C110C12BB2D2100220C2700031C0C103F
:104B220003180C1408002100220C2700031C8C100F
:104B320003188C1408002100220C2700031C0C11FE
:104B420003180C1508002100220C2700031C8C11ED
:104B520003188C1508002100220C2700031C0C12DC
:104B620003180C16080027000C148C140C158C1555
:104B72000C16080021002108003A0319C12DD82D76
:104B82002008013A03198C2D033A0319942D013A96
:104B920003199C2D073A0319A42D013A0319AC2DD0
:104BA200033A0319D82D623A0319B42DD82D0800FF
:104BB20020005508031DE02D5603031D08008F1B1E
:104BC2002E2E01302400C7070030C83D4808803A25
:104BD2002100A70080302702031DF22D1A30240085
:104BE2004702031C080019302400C7000030C80027
:104BF20020005508230061060319032E20005603E6
:104C0200031D142E01302100A70027082000EA0707
:104C12000B306A02031C0F2EEA01EA0A6A08A0316D
:104C2200B520A5312A2E2000550823006006031D59
:104C32002A2E01302100A70027082000E6070630AF
:104C42006602031C262EE601E60A6608AD31D92566
:104C5200A53120008F1B08002A2E2400C701C8019D
:104C620008002100230803193B2E220821042004F6
:104C7200031D4C2E0030A0000030A1000030A20025
:104C820008000130A5002508A3070130A236A10CB7
:104C9200A00C890B472EFE3022050319652E422EE9
:104CA2000130A5002508A3070130A0070030031832
:104CB2000130A107003003180130A2070130A236EB
:104CC200A10CA00C890B602EFF3022050319722E55
:104CD200512E0130A3020130A035A10DA20D890B86
:104CE2006D2EA11B782E0230230203186A2E231880
:104CF200802EFF30A0057F30A105FF30A2050310F2
:104D0200A30C2308A500A601A7011030A535A60D06
:104D1200A70D890B872E2508A0042608A1042708C1
:104D2200A204240803190800A217080022003A0866
:104D3200AF003908AE000330B0000030B100AE3130
:104D42004026A631220037082E07840038082F3D5E
:104D52008500003FBB00013FBC00023FBD00390897
:104D62003A040319022FFF30B907FF30BA3D3A085F
:104D7200AF003908AE000330B0000030B100AE31F0
:104D82004026A631220037082E07840038082F3D1E
:104D92008500003F2100C100013FC200023FC30065
:104DA20022003B082100AE0022003C082100AF0097
:104DB20022003D082100B000220034082100B10089
:104DC200220035082100B200220036082100B3007B
:104DD2009E317B26A63121002E08C4002F08C50073
:104DE2003008C60090312620A63121004108220059
:104DF200BB00210042082200BC002100430822001F
:104E0200AF2E3B08B4003C08B5003D08B6000800D0
:104E120081302100A0001F30A100AE319426A731BD
:104E2200210021082000E400210020082000E300E6
:104E320082302100A0001F30A100AE319426A7319C
:104E4200210021082000E000210020082000DF00CE
:104E52006408803A2100A40080302402031D342F0C
:104E6200073020006302031C3B2F06302000E300C2
:104E72000030E40020006008803A2100A400803065
:104E82002402031D472F063020005F02031C4E2F11
:104E920001302000DF000030E00020006B08031D1D
:104EA200552F27008D14572F27008D1020006B0CD3
:104EB2002700031C0D1103180D1522000D118D1171
:104EC2000D128D128D100D10200064082100A1001A
:104ED200200063082100A0000130A2000030A300DE
:104EE200A5318525A731200060082100A1002000FE
:104EF2005F082100A000A031EF2008002200DA01A3
:104F020078305A020318080000302100CE003430F5
:104F1200CF004330D0001030AE004930AF004030F7
:104F2200B00022005A08D300D4015308AE0054083E
:104F3200AF000330B0000030B100AE314026A731DF
:104F420022002F082100A90022002E082100A8001B
:104F5200AE31D526A73121002808B1002908B200B8
:104F62002A08B3009E317B26A73121002E08D100EA
:104F72002F08D2003008D3009D312725A731210008
:104F82004E082200D70021004F082200D80021003D
:104F920050082200D9005708C5005808C600590811
:104FA200C70088312E20A73122004508D7004608C5
:104FB200D8004708D9005A08D300D4015308AE00DC
:104FC2005408AF000330B0000030B100AE314026CB
:104FD200A73182302200D5002430D6002E08550792
:104FE20086002F08563D87005708C03F5808C13F2A
:104FF2005908C23F0130D3005308DA07812F003429
:1050020080343F34723431343F34FE3475343E34AC
:10501200583463343D3495341D343C34C534AE3495
:105022003A347934213439349434803437349334F3
:10503200A734353456341534343400340034003453
:10504200003480343F34F034FF34BE34E234A934C7
:105052003E3483347634BE34AE342B343E343C3466
:10506200C334BD34D23413343D347834D334BB34F6
:10507200F4344A34483495349534C734C134DC347A
:105082004534DC346D34C334B334333440343434D3
:10509200013448349D34B03445340034DA34423477
:0650A200003480343F34AD
:105AE400FC302100990508002100A001A101080053
:105AF4002100951295111510951415110800873081
:105B040020009C05FC309C05FF309B001C15080000
:105B1400210040083F043E04031908008030C006F9
:105B2400080021009E171E088F3960389E00FC3043
:105B34009E051D140800FE0012001E000130FE0226
:105B44000030FF3B7F087E04031900349E2D64005F
:105B5400800101310130FE020030FF3B7F087E04EA
:105B640003190034AA2DD03407340034003401342E
:105B74000034E83403340634003414340134FF347C
:105B8400013404340134FF342100A3002308A200AB
:105B9400A20DA20D1D082206833922069D009D1424
:105BA4009D18D22D1C08A1001B08A000080021008C
:105BB400A6002608A400A5012408A0002508A10029
:105BC4000130A2000030A300A5318525AD31063097
:105BD4002100A0000030A100A031EF200800200027
:105BE40064082100A100200063082100A000013006
:105BF400A2000030A300A5318525AD312000600846
:105C04002100A10020005F082100A000A031EF20A6
:105C14000800200067082100A200A3012108230630
:105C2400031D162E20082206031908002008A200CE
:105C340022082000E7002100200C2200031C8D1202
:105C440003188D160800D03407340034003464344B
:105C54000034D0340734D0340734D0340734D0344B
:105C64000734D0340734D0340734B4340034013426
:105C740000340134FF34FF34023401342200B20111
:105C8400B3012E1C492E3008B2073108B33D013050
:105C9400B035B10D890B4A2E0130AF36AE0C890BED
:105CA4004F2E2E082F04031D432E3308AF00320855
:105CB400AE00080020006B082100B800B9013708C5
:105CC4003906031D672E3608380603190800360CFA
:105CD4002200031C0D1103180D158D112100370826
:105CE400B3003608B200A03147200800220045085E
:105CF400AE004608AF004708B0004808B1004908A4
:105D0400B2004A08B3009431AA2422002E09CB0021
:105D14002F09CC00CB0A0319CC0A4B08C5004C0848
:105D2400C600080000308B1B01302100A2008B1339
:105D3400200823009100210021082300920015135C
:105D44001514000000002100220C031C8B130318FF
:105D54008B17230014082100A1002300130821003D
:105D6400A0000800200053082100A200A30121087C
:105D74002306031DBF2E200822060319080020084D
:105D8400A20022082000D3002100200C2200031CC2
:105D94008D1103188D152100200C2000031C0E12F8
:105DA40003180E1608002100AD01A91FE02EA80952
:105DB400A909A80A0319A90AAD01AD0A2808A00077
:105DC4002908A100A2018E30AB002B08A3002D08E6
:105DD400AC002C08A400A631322621002008A8001B
:105DE4002108A9002208AA0008000E2F22008D1005
:105DF4000D10AD31F125080022008D100D14200086
:105E04006A08A031B520080022008D140D1020006E
:105E14006608AD31D925080020005508003A031959
:105E2400F82E013A0319FE2E033A0319062F1A2FEE
:105E340008008E302100AC002C08AD00FF302B058B
:105E44000319302F0130AB36AA0CA90CA80C890B0E
:105E5400252F0130AC002C08AD07202F2808A00006
:105E64002908A1002A08A2002D08AC002C08A300D0
:105E7400A401A631322621002008A8002108A90087
:105E84002208AA0008002000DE1B592F5E08031D0B
:105E9400542F5D08031D542F60305B0209305C3BB6
:105EA400031C592F7830F0000030F1000800DE1B8D
:105EB4006C2F5E08031D672F5D08031D672F583084
:105EC4005B0202305C3B031C6C2F3C30F000003062
:105ED400F10008001E30F0000030F100080000302E
:105EE400FB000030FA000030F9000030F800701CAC
:105EF400832F7408F8077508F93D7608FA3D77088A
:105F0400FB3D0130F435F50DF60DF70D890B842FAB
:105F14000130F336F20CF10CF00C890B8B2F730863
:105F2400720471047004031D792F7B08F3007A084E
:105F3400F2007908F1007808F000080021000D1043
:105F44008D100D118D110D128D120E140E128E1254
:105F54000F108F100F118F110F128F160F178F172D
:105F640010149014230010109010200010109010A2
:105F740026000C108C100C118C110C128C120C17A6
:105F840028000C1326008D100D11AD319325AF316F
:105F9400A231A2228B178B160B1108002000DE1BE6
:105FA400E52F5E08031DDF2F5D08031DDF2F603022
:105FB4005B0209305C3B031CE52F78302100A00014
:105FC4000030A10008002000DE1BFA2F5E08031D2C
:105FD400F42F5D08031DF42F58305B0202305C3B44
:105FE400031CFA2F3C302100A0000030A10008005F
:0C5FF4001E302100A0000030A1000800B9
:020000040001F9
:04000E00E2FFFFDF2F
:00000001FF
