:100000008231BF2A013400347E14803120007F0801
:10001000BF00FF30C100FF30C2000B1DBA2A230011
:100020005B082000C20023005A082000C1000130F4
:10003000BA000030BB000030BC000030BD004708F3
:10004000BA074808BB3D4908BC3D4A08BD3D3D08CC
:10005000CA003C08C9003B08C8003A08C700013084
:10006000BA000030BB000030BC000030BD002300EF
:1000700028082000BA07230029082000BB3D2300E0
:100080002A082000BC3D23002B082000BD3D3D0870
:100090002300AB0020003C082300AA0020003B08FE
:1000A0002300A90020003A082300A8000130200006
:1000B000BA000030BB000030BC000030BD00430877
:1000C000BA074408BB3D4508BC3D4608BD3D3D0858
:1000D000C6003C08C5003B08C4003A08C300013014
:1000E000BA000030BB000030BC000030BD0023006F
:1000F00024082000BA07230025082000BB3D230068
:1001000026082000BC3D230027082000BD3D3D08F7
:100110002300A70020003C082300A60020003B0885
:100120002300A50020003A082300A4000130A00706
:100130000030A13D0030A23D0030A33DAF31462745
:10014000803170082000BA003A08C0004D03031D3A
:10015000C02801302300B6070030B73D3708200023
:100160005C02031DB7282300360820005B02031839
:10017000C0285C082300B70020005B082300B600FD
:1001800020004F03031DDB2801302300B807003097
:10019000B93D390820005C02031DD228230038082D
:1001A00020005B020318DB285C082300B900200054
:1001B0005B082300B80020004008BA00BB01230000
:1001C0003B0820003B06031DE92823003A082000D5
:1001D0003A06031D0429420823005B06031DF42888
:1001E0002000410823005A06031D04292000470966
:1001F000BA004809BB00BA0A0319BB0A55083A07F6
:10020000C10056083B3DC20020006108031D612962
:100210004C08031D61295108031D61294A08803AD1
:10022000BA0023004D08803A20003A02031D282915
:1002300023004C0820004902031D282923004B08F5
:1002400020004802031D282923004A0820004702F5
:10025000031C4F2922000D1600302000CA00003078
:10026000C9000030C8000030C7002300460303194E
:100270003D2920006203031D4F292300C8012000EF
:1002800058082300AB00200057082300AA002000D4
:1002900056082300A900200055082300A8002000CC
:1002A000CA1B61294A08031D5F294908031D5F29EC
:1002B0004808031D5F291E304702031C61292200E4
:1002C0000D1220005103031D91292300A31B802937
:1002D0002308031D75292208031D75292108031D04
:1002E0007529FA302002031C802922000D140030E9
:1002F0002300A3000030A2000030A1000030A000C5
:10030000A31B91292308031D8F292208031D8F2970
:100310002108031D8F291E302002031C9129220071
:100320000D1020005108031DEF295008031DEF296F
:1003300023002B08803A2000BA005808803A3A027D
:100340002300031DB3292000570823002A02031DA0
:10035000B3292000560823002902031DB3292000D9
:10036000550823002802031CD22920005308031D2E
:10037000C4295E08F1005D08F0000130F200003091
:10038000F300A3312023803120005608C200550815
:10039000C10000302300AB000030AA000030A900EB
:1003A0000030A800AB1BEF292B08031DE1292A0808
:1003B000031DE1292908031DE12914302802031C2B
:1003C000EF2920005308031DEF295E08F1005D08A6
:1003D000F0000030F200F300A33120238031200030
:1003E0004108BA004208BB000030BB1BFF30BC0014
:1003F000BD0023002708803A2000BE003D08803A57
:100400003E022300031D142A20003C08230026027C
:10041000031D142A20003B0823002502031D142A73
:1004200020003A0823002402031C852A0030A7007C
:100430000030A6000030A5000030A4003B08803A40
:100440002000BA0080303A02031D292A4008230008
:100450003A02031C312A2300BA01BB0122000D1409
:10046000332A22000D1023003B082000BB0023008C
:100470003A082000BA00BA35BB0D8A30BC002330E0
:10048000BD003A083C0786003B083D3D8700403FE1
:100490002300BC00413FBD003C082000AE0023000B
:1004A0003D082000AF00890D893B8909B000B100EB
:1004B000240041082000B200240042082000B300BC
:1004C000890D893B8909B400B500A2319E22803193
:1004D00020002F082300BD0020002E082300BC00B0
:1004E0000230F0000030F1003D08F3003C08F2005B
:1004F000A431E22480317108260092007008910036
:1005000001302300BA070030BB3D4703031DB22A68
:1005100001302000BA003A08D20723004F08803A81
:10052000803C031D962A4E0820005202031CB72A65
:1005300022008D1423004F082000BB0023004E082A
:100540002000BA00BA35BB0D3B08803ABC008030B1
:100550003C02031DAD2A52083A020318B92A2000B2
:10056000D201B92A200052080319B92AD201220067
:100570008D100B1120003F08FF007E100900823112
:10058000C12A8A308400233085006630FE000230A4
:10059000FF00AD31BC258231FD01433084000030C5
:1005A00085001230FE000030FF00AD31BC258231E5
:1005B0002200EA01EB01A0308400013085002A30DE
:1005C000FE000030FF00AD31BC25823120308400B8
:1005D000023085003330FE000030FF00AD31BC2515
:1005E0008231A0308400023085002C30FE000030C3
:1005F000FF00AD31BC2582312030840003308500FE
:100600004030FE000030FF00AD31BC258231A0300B
:100610008400033085004030FE000030FF00AD3123
:10062000BC258231D7308400AD308500553086003E
:10063000003087000030FF001130AD31B02582312D
:1006400095308400AE308500CA30860001308700C6
:100650000030FF001C30AD31B025823124008031E4
:1006600002208231E10080310320E2007E10200070
:1006700083313A2BA7317F27833112302100A0002C
:100680007A30A100983104208331AD31892583313E
:10069000AF31A02783312000101490140F178F164C
:1006A0000E148F17AE31F6268331AD31C825833154
:1006B000A731092783318D31DD258331A031BA205F
:1006C0008331A531D925833192312C228331200009
:1006D000510303196E2B8931FE2183312000510310
:1006E00003197D2B50082300640603197D2BA331C9
:1006F000B0238331A431452483310030AD31E82566
:100700008331210021082300AD00210020082300AF
:10071000AC000130AD31E8258331210021082300F0
:10072000AF00210020082300AE000230AD31E825E3
:100730008331210021082300B1002100200823007B
:10074000B0000330AD31E8258331210021082300BA
:10075000B300210020082300B2000430AD31E825A9
:100760008331210021082300B50021002008230047
:10077000B40050092400D300230051092400D40000
:10078000D30A0319D40A23002C0824005307D500E8
:1007900023002D082400543DD6005608803AD70087
:1007A00080305702031DD62B043055020318F82B56
:1007B000230050092400D300230051092400D40051
:1007C000D30A0319D40A23002C0824005307D500A8
:1007D00023002D082400543DD6005608803AD70047
:1007E0007F305702031DF62BFD3055020318562C9F
:1007F00023002D08D1002C08D00051082100A900A9
:10080000230050082100A800A031002083312100DE
:1008100028082400D800210029082400D90021003C
:100820002A082400DA0058082200E70024005908AA
:100830002200E80024005A082200E9009B316E23C0
:1008400083312200680826009900220067082600EC
:100850009800230051082100A9002300500821001E
:10086000A800A03100208331210028082400DB00EB
:10087000210029082400DC0021002A082400DD00D2
:100880005B082200E70024005C082200E800240046
:100890005D082200E9009D31E625833122006808C9
:1008A00026009D002200670826009C0023005209B4
:1008B0002400D300230053092400D400D30A0319D1
:1008C000D40A23002E0824005307D50023002F0844
:1008D0002400543DD6005608803AD7008030570295
:1008E000031D742C043055020318962C2300520962
:1008F0002400D300230053092400D400D30A031991
:10090000D40A23002E0824005307D50023002F0803
:100910002400543DD6005608803AD7007F30570255
:10092000031D942CFD30550203180C2D23002F08B5
:10093000D3002E08D20052092400D300230053090B
:100940002400D400D30A0319D40A5308FF3E21001F
:10095000A80003302400543D2100A900A03100204C
:100960008331210028082400DE002100290824000A
:10097000DF0021002A082400E0005E082200E700D2
:1009800024005F082200E800240060082200E9003B
:1009900099314B2183312200680825009200220002
:1009A000670825009100230052092400D30023008A
:1009B00053092400D400D30A0319D40A5308FF3E74
:1009C0002100A80003302400543D2100A900A031DB
:1009D00000208331210028082400DE00210029089E
:1009E0002400DF0021002A082400E0005E08220025
:1009F000E70024005F082200E800240060082200CD
:100A0000E90099314B2183312200680825009900C3
:100A10002200670825009800230054092400D30011
:100A2000230055092400D400D30A0319D40A230053
:100A3000300824005307D500230031082400543D1A
:100A4000D6005608803AD70080305702031D2A2D61
:100A50000430550203184C2D230054092400D30000
:100A6000230055092400D400D30A0319D40A230013
:100A7000300824005307D500230031082400543DDA
:100A8000D6005608803AD7007F305702031D4A2D02
:100A9000FD3055020318B82D23003108D500300869
:100AA000D40080302100EA009D30EB004330EC00A0
:100AB0000030E7003430E8004230E900C030E400A4
:100AC0007F30E5004430E6000030E1000030E20015
:100AD0000030E300230055082100A900230054083A
:100AE0002100A800A0310020833121002808DE0069
:100AF0002908DF002A08E0009A31572283312100BB
:100B00005E082200A00021005F082200A100210051
:100B100060082200A2009931D021833122002108EF
:100B20002300DD00220020082300DC00C601C60AE5
:100B30005D08803A2400D30080305302031DA32DAA
:100B4000AF3023005C02031CB62D23005D08803A01
:100B50002400D30080305302031DB12DB93023008F
:100B60005C020318B62D22008D14B82D22008D10C2
:100B7000230056092400D300230057092400D40081
:100B8000D30A0319D40A2300320824005307D500DE
:100B9000230033082400543DD6005608803AD7007D
:100BA00080305702031DD62D043055020318F82D4E
:100BB000230056092400D300230057092400D40041
:100BC000D30A0319D40A2300320824005307D5009E
:100BD000230033082400543DD6005608803AD7003D
:100BE0007F305702031DF62DFD30550203184A2EA3
:100BF00023003308D7003208D60040302100EA0035
:100C00003030EB004530EC000030E7003430E800D5
:100C10004330E900C030E4007F30E5004430E600B6
:100C20000030E1000030E2000030E300230057080C
:100C30002100A900230056082100A800A0310020AF
:100C4000833121002808DE002908DF002A08E0009F
:100C50009A315722833121005E082200A000210032
:100C60005F082200A100210060082200A200993143
:100C7000D0218331220020082300CA00220021084D
:100C80002300CB00890D893B8909CC00CD002000D1
:100C9000E201E20A230058092400D3002300590985
:100CA0002400D400D30A0319D40A230034082400F2
:100CB0005307D500230035082400543DD6005608BC
:100CC000803AD70080305702031D682E0430550249
:100CD00003188A2E230058092400D3002300590941
:100CE0002400D400D30A0319D40A230034082400B2
:100CF0005307D500230035082400543DD60056087C
:100D0000803AD7007F305702031D882EFD305502F0
:100D10000318D42E23003508D9003408D800003039
:100D20002100EA000030EB000030EC006030E7000A
:100D30009F30E8004430E900C030E4007F30E50037
:100D40004430E6000030E1000030E2000030E30013
:100D5000230059082100A900230058082100A800F9
:100D6000A0310020833121002808DE002908DF009F
:100D70002A08E0009A315722833121005E082200C0
:100D8000A00021005F082200A100210060082200CD
:100D9000A2009931D0218331220021082400C20011
:100DA000220020082400C10020006203031D0B2F35
:100DB00023004D082000D80023004C082000D70055
:100DC00023004B082000D60023004A082000D5004D
:100DD00023004B082200C00023004A082200BF0065
:100DE00020005E082200C20020005D082200C10031
:100DF0009F314527833122003F082000D500220083
:100E000040082000D600890D893B8909D700D80009
:100E10009A31E22283312300460303195B2B200021
:100E20006203031D5E2B5B2B22003E082100A00005
:100E300022003F082100A100220040082100A2005A
:100E40000030A3000030A4000030A500A1316721CC
:100E500087310318382F21302400CD000030CE0018
:100E600000302200BE000030BF000030C00008008B
:100E7000220040083F043E04031D4B2F2230240073
:100E8000CD000030CE0000302200BE000030BF0098
:100E90000030C000080000302100C1008030C200D6
:100EA000BF30C3000030AE000030AF004030B000B3
:100EB00042302200C10041082100A30022003E0868
:100EC0002100A00022003F082100A10022004008CC
:100ED0002100A200A2311E22873121002008B1008A
:100EE0002108B2002208B3009E31912687312100EB
:100EF0002E08C4002F08C5003008C60090312020FD
:100F00008731210041082200BE0021004208220052
:100F1000BF00210043082200C000FF30C207FF309D
:100F2000C33D3E08B4003F08B5004008B6001E307F
:100F3000B700A830B8000830B9000030BA00A631B8
:100F40009726873122003408BE003508BF003608D6
:100F5000C0003E082100C10022003F082100C2005D
:100F6000220040082100C3007230AE003130AF00D3
:100F70003F30B000220043082100A90022004208AF
:100F80002100A800A0310020873121002808B100ED
:100F90002908B2002A08B3009E319126873121002A
:100FA0002E08C4002F08C5003008C600903120204C
:100FB000210041082200BE00210042082200BF009B
:100FC000210043082200C000080020006108210021
:100FD000A200A30121082306031DF02F20082206EA
:100FE000031908002008A20022082000E1002100C7
:100FF000200C2200031C8D1203188D160800080017
:101000000030FB000030FA000030F9000030F8003A
:10101000701C12287408F8077508F93D7608FA3D27
:101020007708FB3D0130F435F50DF60DF70D890B12
:1010300013280130F336F20CF10CF00C890B1A284E
:101040007308720471047004031D08287B08F30000
:101050007A08F2007908F1007808F0000800220010
:10106000D20145082100A000220046082100A1006D
:10107000220047082100A2000030A3000030A40095
:101080000030A500A13167218831031864282200AF
:1010900045082100BE00220046082100BF002200B2
:1010A00047082100C000AD319D25883121003E0850
:1010B0002200C50021003F082200C6002100400890
:1010C0002200C700D201D20AFA302100AE0022303D
:1010D000AF003E30B000220045082100B1002200E0
:1010E00046082100B200220047082100B3009E31CB
:1010F0009126883121002E082200C50021002F08EA
:101100002200C600210030082200C7004508B600B2
:101110004608B7004708B8009C3196248831220061
:101120003608BF003708C0003808C1004508C200B3
:101130004608C3004708C400AF3172278831220037
:101140003F08C5004008C6004108C7000030210024
:10115000AE008030AF004030B000220045082100D2
:10116000B100220046082100B200220047082100F9
:10117000B3009E319126883121002E082200C5003F
:1011800021002F082200C600210030082200C700DD
:1011900000302100A0000030A1004030A200220059
:1011A00045082100A300220046082100A4002200D7
:1011B00047082100A500A1316721883103180029C3
:1011C00000302200BF000030C0004030C1004508A0
:1011D000C2004608C3004708C400AF3172278831F7
:1011E00022003F08C5004008C6004108C700520859
:1011F000031DFC280130FD280030C8004808D2003B
:1012000000302100A0008030A1003F30A200220069
:1012100045082100A300220046082100A400220066
:1012200047082100A500A13167218831031844290E
:1012300000302100C1000030C2004030C300220055
:1012400045082100BE00220046082100BF00220000
:1012500047082100C000AD319D25883121003E089E
:10126000C4003F08C5004008C600903120208831E6
:10127000210041082200C500210042082200C600CA
:10128000210043082200C700220045082100AE00CB
:10129000220046082100AF00220047082100B000CC
:1012A000220045082100B100220046082100B200BA
:1012B000220047082100B3009E3191268831210089
:1012C0002E082200CF0021002F082200D00021008C
:1012D00030082200D1004F08B4005008B500510872
:1012E000B6004830B700A830B8000330B90000306D
:1012F000BA00A6319726883122003408C900350883
:10130000CA003608CB000430B9000030BA003930CA
:10131000B700A830B8004F08B4005008B500510815
:10132000B600A63197268831220034082100D1006A
:10133000220035082100D200220036082100D30007
:10134000220049082100CE0022004A082100CF00D7
:1013500022004B082100D0009D313D25883121001D
:101360004E082200CC0021004F082200CD002100B1
:1013700050082200CE004C082100AE0022004D088B
:101380002100AF0022004E082100B00022004508D5
:101390002100B100220046082100B20022004708C7
:1013A0002100B3009E319126883121002E082200B1
:1013B000C50021002F082200C600210030082200AD
:1013C000C70052080319080045082100BE0022008A
:1013D00046082100BF00220047082100C000AD31AF
:1013E0009D2521003E082200C50021003F08220063
:1013F000C600210040082200C70008002100C401E7
:1014000020001018092A54080319132A0130D402A5
:10141000132A193054020318132A01302100BC008A
:101420003C082000D4075408031DC82BC61B9D2A66
:101430004608031D242A4508031D242A1B304302A5
:101440000630443B031C9D2A230049030319632AE9
:10145000C901C90A00302000C6000030C5000030B4
:10146000C4000030C30001302300DE000030DF0084
:1014700000302400C0000030BF000030BE0000304B
:10148000BD002000E2012100C401C40A440820007C
:101490006302031C632A21004408BC000130BC35F0
:1014A000FF3E031D4F2A3C35203E86000230870058
:1014B0000030C03F0030C13FC23FC33F0130BC00DD
:1014C0003C08C407462A20004F08031D6D2ACF019F
:1014D000CF0AE1012300B801B90120005C08230014
:1014E0003902031D772A20005B0823003802031C01
:1014F000080020006108031D08004C08031D0800B7
:101500005C082300B90020005B082300B80022001B
:101510000D1220004D030319952A01302100A0006F
:101520000030A1008731E527080001302100B80014
:101530000030B900A131E02108002000C61BAC2A10
:101540004608031D08004508031D08001B30430220
:101550000630443B031808006108031D08002300FF
:10156000490303190800C901C90A2000C61BCC2A77
:101570004608031DC42A4508031DC42A94304302AB
:101580000430443B031CCC2A0030C6000030C500A8
:101590000430C4009430C30063082100BC00BD01C6
:1015A0003C08C2003D08C30023005F08803A803C2D
:1015B000031DDD2A5E0820006302031C0F2B2000A0
:1015C00043082400BD07200044082400BE3D20003D
:1015D00045082400BF3D200046082400C03D2300EC
:1015E0005E082100BC000130BC35FF3E031DF42A1B
:1015F0003C35203E86000230870020004308C03F73
:101600004408C13F4508C23F4608C33F23005F0866
:101610002100C30023005E082100C2008B2B003094
:101620002400C0000030BF000030BE000030BD000C
:101630002100C401C40A20006308210044020318E9
:10164000652B4408BC000130BC35FF3E031D242B34
:101650003C35043E203E860002308700403FBD00FE
:10166000413FBE00423FBF00433FC0004408C100AD
:101670000130C135FF3E031D392B4135203E860028
:10168000023087003D08C03F3E08C13F3F08C23FCF
:101690004008C33F4408BC000130BC35FF3E031D79
:1016A0004D2B3C35203E860002308700403F240011
:1016B000BD07413FBE3D423FBF3D433FC03D0130BE
:1016C0002100BC003C08C4071B2B2000630821003C
:1016D000BC000130BC35FF3E031D6A2B3C35203E6B
:1016E00086000230870020004308C03F4408C13F05
:1016F0004508C23F4608C33F43082400BD072000F9
:1017000044082400BE3D200045082400BF3D2000C1
:1017100046082400C03D21004208A0004308A10063
:10172000890D893B8909A200A300240040082100FB
:10173000A70024003F082100A60024003E08210045
:10174000A50024003D082100A4009831C9202100F3
:1017500023082300CD00210022082300CC00210013
:1017600021082300CB00210020082300CA0020000C
:10177000E201E20A0030C6000030C5000030C400BB
:101780000030C30001302300DE070030DF3D0800D9
:10179000193020005402031C08002300C901E50190
:1017A00000302100A000A1008731E5272300B80107
:1017B000B9012000CF0119302100BC003C082000F5
:1017C000D400080000302200BA008030BB003F3057
:1017D000BC000030B7000030B8000030B90031085C
:1017E0002100A000220032082100A10022003308BD
:1017F0002100A20022002E082100A30022002F08B1
:101800002100A400220030082100A500A131672199
:101810008B31031C172C220031082100CE0022003E
:1018200032082100CF00220033082100D22C2200F0
:1018300031082100B100220032082100B20022004C
:1018400033082100B3000030AE000030AF0040305C
:10185000B0009E3191268B3121002E08BE002F084A
:10186000BF003008C000AD319D258B3121003E08FE
:10187000C4003F08C5004008C6000030C100B430B5
:10188000C2004330C300903120208B312100410839
:101890002200B400210042082200B50021004308C4
:1018A0002200B60034082100BE00220035082100C5
:1018B000BF00220036082100C000AD319D258B31CC
:1018C00021003E08AE003F08AF004008B0000030E5
:1018D000C100B430C2004330C300220031082100EF
:1018E000BE00220032082100BF0022003308210080
:1018F000C000AD319D258B3121003E08C4003F085A
:10190000C5004008C600903120208B3121004108DD
:10191000CE004208CF004308D0000030D100343060
:10192000D2004330D3009D313D258B3121004E083C
:10193000B1004F08B2005008B3009E3191268B31A0
:1019400021002E082200B70021002F082200B80035
:10195000210030082200B90000302100C100B4305D
:10196000C2004330C300220031082100BE00220023
:1019700032082100BF00220033082100C000AD3131
:101980009D258B3121003E08C4003F08C50040085A
:10199000C600903120208B3121004108CE00420842
:1019A000CF004308D0000030D1003430D2004330A3
:1019B000D3009D313D258B3121004E082200BA0015
:1019C00021004F082200BB00210050082200BC006B
:1019D00037082100BE00220038082100BF00220085
:1019E00039082100C000AD319D258B3121003E0812
:1019F000C1003F08C2004008C30022002E08210099
:101A0000AE0022002F082100AF0022003008210084
:101A1000B00022003A082100B10022003B0821005A
:101A2000B20022003C082100B3009E3191268B3188
:101A300021002E08C4002F08C5003008C6009031D0
:101A400020208B31210041082200BD0021004208E6
:101A50002200BE00210043082200BF000030210008
:101A6000A0008730A1004330A20022003D082100E1
:101A7000A30022003E082100A40022003F0821000C
:101A8000A500A13167218B310318592D00302100A9
:101A9000C100B430C200C330C30022003D082100A1
:101AA000C40022003E082100C50022003F0821009A
:101AB0008D2D00302100A000B430A1004230A200E2
:101AC00022003D082100A30022003E082100A400BE
:101AD00022003F082100A500A13167218B310318A6
:101AE0009D2D00302100C1003430C2004330C300BE
:101AF00022003D082100BE0022003E082100BF0058
:101B000022003F082100C000AD319D258B3121000E
:101B10003E08C4003F08C5004008C60090312020A0
:101B20008B31210041082200BD0021004208220023
:101B3000BE00210043082200BF0000302100CE007B
:101B40001030CF004130D0000030AE002030AF0068
:101B50004130B00022003D082100B10022003E08C3
:101B60002100B20022003F082100B3009E319126DF
:101B70008B3121002E08D1002F08D2003008D3006D
:101B80009D313D258B3121004E082200BD002100F2
:101B90004F082200BE00210050082200BF003D086F
:101BA000A0003E08A1003F08A2009931D0212200E8
:101BB0002108AF002008AE000800AF31D0278D31DA
:101BC000210021082200D700210020082200D60091
:101BD0007A30860024308700403FD000413FD1005A
:101BE00020005A0822005106031DFA2D2000590832
:101BF00022005006031D202E7C30860024308700F2
:101C0000403FD000413FD10023005D082200510633
:101C1000031D0E2E23005C0822005006031D202EFB
:101C20007E30860024308700403FD000413FD10005
:101C300057085106031D1E2E5608500603190800AA
:101C400057082100A100220056082100A00068309A
:101C5000A2000130A300A53133258D3121002108D8
:101C60002200D500210020082200D400DA01570804
:101C7000803A803C031D3E2E56085A020318E42F7A
:101C800022005A08D000D1015008AE005108AF0020
:101C90005508B1005408B000AE3141268D31220004
:101CA0002F08D9002E08D800C72F2200590821007C
:101CB000A900220058082100A800A03100208D3181
:101CC000210028082200B400210029082200B500C4
:101CD00021002A082200B60023005D082100A90087
:101CE00023005C082100A800A03100208D312100D4
:101CF00028082200B700210029082200B80021008E
:101D00002A082200B900963154268D3122005A0843
:101D1000D000D101D035D10D8A30D2002330D3008C
:101D20005008520786005108533D87003408C03FD1
:101D30003508C13FDE2F220059082100A9002200EA
:101D400058082100A800A03100208D31210028086A
:101D50002200AE00210029082200AF0021002A083D
:101D60002200B00023005D082100A90023005C08C8
:101D70002100A800A03100208D3121002808220078
:101D8000B100210029082200B20021002A08220007
:101D9000B3008B31E2238D3122005A08D000D101EB
:101DA000D035D10D8A30D2002330D30050085207ED
:101DB00086005108533D87002E08C03F2F08C13FC1
:101DC000DE2F220059082100A90022005808210016
:101DD000A800A03100208D31210028082200C80071
:101DE000210029082200C90021002A082200CA0077
:101DF00023005D082100A90023005C082100A80041
:101E0000A03100208D31210028082200CB002100C4
:101E100029082200CC0021002A082200CD00A1318F
:101E2000A3218D3122005A08D000D101D035D10D27
:101E30008A30D2002330D300500852078600510860
:101E4000533D87004808C03F4908C13FDE2F2200AC
:101E500059082100A900220058082100A800A0313B
:101E600000208D31210028082200C500210029080A
:101E70002200C60021002A082200C70023005D08B6
:101E80002100A90023005C082100A800A031002047
:101E90008D31210028082200C800210029082200D5
:101EA000C90021002A082200CA00AE3179268D31EE
:101EB00022005A08D000D101D035D10D8A30D2008D
:101EC0002330D3005008520786005108533D870045
:101ED0004508C03F4608C13FDE2F220059082100B7
:101EE000A900220058082100A800A03100208D314F
:101EF000210028082200AE00210029082200AF009E
:101F000021002A082200B00023005D082100A9005A
:101F100023005C082100A800A03100208D312100A1
:101F200028082200B100210029082200B200210067
:101F30002A082200B3009431AA248D3122005A08C5
:101F4000D000D101D035D10D8A30D2002330D3005A
:101F50005008520786005108533D87002E08C03FA5
:101F60002F08C13FDE2F22005A08D000D101D03502
:101F7000D10D8A30D2002330D3005008520786009A
:101F80005108533D87000030C03FC13FDE2F200085
:101F90005A08003A0319CD2FB32F5908013A0319F3
:101FA000552E033A03199B2E013A0319E12E073AE5
:101FB0000319272F013A03196D2FB32F0130220087
:101FC000D0005008DA07372E7A3086002430870098
:101FD00020005908C03F5A08C13F7C308600243099
:101FE000870023005C08C03F5D08C13F7E3086004B
:101FF0002430870022005608C03F5708C13F080020
:1020000000308B1B01302100A2008B13200823001D
:1020100091002100210823009200151315140000DF
:1020200000002100220C031C8B1303188B172300C4
:1020300014082100A100230013082100A0000800BB
:1020400021004108C7004208C8004308C900031026
:10205000480D490DCA004A08CD004408C70045088C
:10206000C8004608C9000310480D490DCA004A08B7
:10207000CC004D08031948284C084D0203184F287E
:102080004D03FF3A4C07C70019304702031C4F2885
:102090004408C1004508C2004608C30008004C08B7
:1020A000031908004D084C0203185E284C03FF3A40
:1020B0004D07C70019304702031808000630C70053
:1020C0004708CB00C31BCB17C61B4B17C217FF30EB
:1020D000C105FF30C2050030C305C517FF30C40578
:1020E000FF30C5050030C6054C084D0203189A287C
:1020F0000130C435C50DC60D890B79280130CC02DD
:102100004C084D06031995280130CB024B080739BE
:102110000319952878280130C336C20CC10C890BED
:102120008C280130C7004708CD074D084C0603191D
:10213000BF288B284D084C020318BF280130C13539
:10214000C20DC30D890B9F280130CD024C084D06EE
:102150000319BB280130CB024B0807390319BB28F0
:102160009E280130C636C50CC40C890BB22801303C
:10217000C7004708CC074D084C06031DB128CB1FEC
:10218000D128FF30C106FF30C206FF30C306013040
:10219000C107003003180130C207003003180130B6
:1021A000C3074B1FE328FF30C406FF30C506FF30CE
:1021B000C6060130C407003003180130C5070030DF
:1021C00003180130C607CB014108C4074208C53DCA
:1021D0004308C63DC61FFE28FF30C406FF30C506B3
:1021E000FF30C6060130C407003003180130C507B0
:1021F000003003180130C607CB01CB0A4408A00009
:102200004508A1004608A2004D08C7004708A300E2
:102210004B08C8004808A400A63132262100200837
:10222000C1002108C2002208C30008002200E20108
:10223000570856045504031D422900302100A00010
:102240000030A1000030A200220058082100A300A5
:10225000220059082100A40022005A082100A500EC
:10226000A13167219131031C3A2921302400CD008E
:102270000030CE0000302200D5000030D600003003
:10228000D70008005A0859045804031D4E2900308D
:10229000D5008030D6003F30D70008005508210017
:1022A000A000220056082100A100220057082100AA
:1022B000A2000030A3000030A4000030A500A1312E
:1022C000672191310318C82922005808A000590835
:1022D000A1005A08A2009931D0219131220023088F
:1022E000E6002208E5002108E4002008E300660873
:1022F0002100AB00220065082100AA00220064082A
:102300002100A900220063082100A800AF311C278A
:10231000913122005A0821002A06031D9929220022
:10232000590821002906031D992922005808210077
:1023300028060319A82921302400CD000030CE0042
:1023400000302200D5000030D6000030D700080051
:10235000220063080139DB005B08E2005508210018
:10236000BE00220056082100BF00220057082100AD
:10237000C000AD319D25913121003E082200D500DD
:1023800021003F082200D600210040082200D7008B
:1023900022005508BE005608BF005708C00087310C
:1023A0001427913122003E08DC003F08DD00400880
:1023B000DE0058082100AE00220059082100AF00BD
:1023C00022005A082100B00022005C082100B10060
:1023D00022005D082100B20022005E082100B30047
:1023E0009E319126913121002E082200DF0021002C
:1023F0002F082200E000210030082200E1005F08E1
:10240000C8006008C9006108CA00933151239131A6
:1024100022004808D5004908D6004A08D7006208BB
:102420000319080055082100BE00220056082100AB
:10243000BF00220057082100C000AD319D252100BA
:102440003E082200D50021003F082200D6002100CE
:1024500040082200D700080020009018422A2300DC
:102460003F08803A2100BC0080303C02031D3B2A1B
:10247000013023003E02031C552AFF302300BE0713
:10248000FF30542A23003F08803A2100BC008030EE
:102490003C02031D4E2A193023003E020318552A20
:1024A00001302300BE070030BF3D23003E083F043B
:1024B000031DDF2A20004D08031D632ACD01CD0A2C
:1024C0002300B601B70120005C0823003702031D7A
:1024D0006D2A20005B0823003602031CAB2A430848
:1024E000031DAB2A20004C08031DAB2A22000D114E
:1024F00020004F030319A32A6503031DAB2A230001
:10250000C301C30A20004E08031D912A22000D11A9
:1025100001302100A0000030A100AE31B12692317F
:10252000AB2A01302100B6000030B700AE315D2685
:10253000923100302100A000A100AE31B1269231CD
:1025400022000D15AB2A01302100B8000030B9007F
:10255000A131E021923122000F1220004C08031D0E
:10256000DB2A23004308031DDB2A20006503031D2B
:10257000C72A240061036204031DDB2A2300E10152
:10258000E10A01302400CF000030D000DB2A230014
:1025900041030319DB2AE101C101C10A2400CF0173
:1025A000D00120004E082100BC003C082300C400DC
:1025B0002000CE01CD012400E101E201080023004A
:1025C0003F08803A2100BC0080303C02031DEB2A0A
:1025D000193023003E02031C080020004C03031D99
:1025E000FA2A230061082100BC00BD013C08B600A6
:1025F0003D082A2B23004103031D1A2B4403031D0E
:10260000142B22000D1101302100A0000030A10088
:10261000AE31B126923101302100B2000030B3005A
:10262000A031842092312E2B01302100B6000030E1
:10263000B7002B2B24004F035004031D2E2B230027
:102640004308031D2E2B20004C08031D2E2B0030A9
:102650002100B600B700AE315D2692312300C301E0
:1026600020004E08031D3A2B650C2200031C0D119F
:1026700003180D1500302100B800B900A131E02188
:102680002000CD012300C1012400CF01D001013081
:10269000E1000030E20019302300BE000030BF002E
:1026A000080022004A0849044804031D5E2B00303C
:1026B000C8008030C9003F30CA00080072302100D5
:1026C000A0003130A1004430A200220048082100BF
:1026D000A300220049082100A40022004A0821008A
:1026E000A500A131672193310318832B22302400E8
:1026F000CD000030CE00FF302200C8007F30C9007E
:102700007F30CA000800220048082100A0002200F3
:1027100049082100A10022004A082100A2004930F6
:10272000A3003A30A400C430A500A1316721933141
:102730000318A72B22302400CD000030CE0000303B
:102740002200C8000030C9000030CA000800220082
:1027500048082100A000220049082100A100220011
:102760004A082100A2000030A3000030A40000307D
:10277000A500A131672193310318C02B0130C12B73
:1027800000302200CB004B08D40054080319E22B80
:1027900048082100BE00220049082100BF00220095
:1027A0004A082100C000AD319D25933121003E082B
:1027B0002200C80021003F082200C9002100400873
:1027C0002200CA00AA302100AE00B830AF003F306E
:1027D000B000220048082100B10022004908210071
:1027E000B20022004A082100B3009E3191269331A5
:1027F00021002E082200C80021002F082200C90055
:10280000210030082200CA004808B6004908B70075
:102810004A08B8009C319624933122003608CC0037
:102820003708CD003808CE004C08A0004D08A100A4
:102830004E08A2009931D021933122002108D30003
:102840002008D20053082100A900220052082100CC
:10285000A800A03100209331210028082200BF00E9
:10286000210029082200C00021002A082200C100FE
:102870004808C2004908C3004A08C400AF317227A3
:10288000933122003F08C8004008C9004108CA002F
:102890004808B4004908B5004A08B6000030B7003F
:1028A000A830B8000930B9000030BA00A631972628
:1028B000933122003408BE003508BF003608C0003E
:1028C0005308C2005208C1009B31FF2393312200FC
:1028D0003E08C8003F08C9004008CA005408031950
:1028E0000800FF30CF007F30D0007F30D1004A0891
:1028F0005106031D812C49085006031D812C4808F0
:102900004F06031D8A2C0030C8000030C90000307B
:10291000CA00080048082100CE0022004908210012
:10292000CF0022004A082100D0000030D1008030C2
:10293000D2003F30D3009D313D2521004E082200BA
:10294000C80021004F082200C900210050082200C1
:10295000CA00080000302200C2008030C3003F30AF
:10296000C4000030BF000030C0000030C10031089A
:102970002100A000220032082100A100220033081B
:102980002100A20022002E082100A30022002F080F
:102990002100A400220030082100A500A1316721F8
:1029A0009431031CDF2C220031082100CE002200CC
:1029B00032082100CF00220033082100BC2D220064
:1029C00031082100B100220032082100B2002200AB
:1029D00033082100B3000030AE000030AF004030BB
:1029E000B0009E319126943121002E08BE002F08A0
:1029F000BF003008C000AD319D25943121003E0854
:102A0000C4003F08C5004008C6000030C100B43013
:102A1000C2004330C300903120209431210041088E
:102A20002200B400210042082200B5002100430822
:102A30002200B60034082100BE0022003508210023
:102A4000BF00220036082100C000AD319D25943121
:102A500021003E08AE003F08AF004008B000003043
:102A6000C100B430C2004330C3002200310821004D
:102A7000BE00220032082100BF00220033082100DE
:102A8000C000AD319D25943121003E08C4003F08AF
:102A9000C5004008C6009031202094312100410833
:102AA000CE004208CF004308D0000030D1003430BF
:102AB000D2004330D3009D313D25943121004E0892
:102AC000B1004F08B2005008B3009E3191269431F6
:102AD00021002E082200B70021002F082200B80094
:102AE000210030082200B90000302100C100B430BC
:102AF000C2004330C300220037082100C400220076
:102B000038082100C500220039082100C600903194
:102B100020209431210041082200BF0021004208FA
:102B20002200C000210043082200C1000030210023
:102B3000C100B430C2004330C3002200310821007C
:102B4000BE00220032082100BF002200330821000D
:102B5000C000AD319D25943121003E08C4003F08DE
:102B6000C5004008C6009031202094312100410862
:102B7000CE004208CF004308D0000030D1003430EE
:102B8000D2004330D3009D313D25943121004E08C1
:102B90002200C20021004F082200C300210050087B
:102BA0002200C40042082100B10022004308210095
:102BB000B200220044082100B30022002E082100A8
:102BC000AE0022002F082100AF00220030082100B3
:102BD000B0009E319126943121002E08C4002F08A8
:102BE000C5003008C60022003F082100BE002200B8
:102BF00040082100BF00220041082100C000AD3183
:102C00009D25943121003E08C1003F08C2004008C4
:102C1000C300903120209431210041082200BA00E5
:102C2000210042082200BB00210043082200BC0012
:102C30003A082100B10022003B082100B200220026
:102C40003C082100B3000030AE00A030AF0040309F
:102C5000B0009E319126943121002E08D1002F081A
:102C6000D2003008D3000030CE001030CF00413009
:102C7000D0009D313D25943121004E082200A00056
:102C800021004F082200A100210050082200A200CC
:102C90009931D02122002108BE002008BD003E0845
:102CA000AF003D08AE00080000302200C2008030B6
:102CB000C3003F30C4000030BF000030C00000300F
:102CC000C10037082100A000220038082100A1001F
:102CD000220039082100A200220034082100A300AC
:102CE000220035082100A400220036082100A5009A
:102CF000A13167219631031C892E2200370821005B
:102D0000CE00220038082100CF002200390821001F
:102D1000442F220037082100B1002200380821008A
:102D2000B200220039082100B3000030AE000030AC
:102D3000AF004030B0009E319126963121002E0820
:102D4000BE002F08BF003008C000AD319D25963170
:102D500021003E08C4003F08C5004008C6000030FE
:102D6000C100B430C2004330C300903120209631FE
:102D7000210041082200BC00210042082200BD00C1
:102D8000210043082200BE003C082100BE002200B2
:102D90003D082100BF0022003E082100C000AD31E7
:102DA0009D25963121003E08AE003F08AF00400847
:102DB000B0000030C100B430C2004330C300220074
:102DC00037082100BE00220038082100BF00220081
:102DD00039082100C000AD319D25963121003E0803
:102DE000C4003F08C5004008C6009031202096313D
:102DF00021004108CE004208CF004308D000003037
:102E0000D1003430D2004330D3009D313D2596317E
:102E100021004E08B1004F08B2005008B3009E31A7
:102E20009126963121002E082200BF0021002F0894
:102E30002200C000210030082200C1000030210023
:102E4000C100B430C2004330C30022003708210063
:102E5000BE00220038082100BF00220039082100EE
:102E6000C000AD319D25963121003E08C4003F08C9
:102E7000C5004008C600903120209631210041084D
:102E8000CE004208CF004308D0000030D1003430DB
:102E9000D2004330D3009D313D25963121004E08AC
:102EA0002200C20021004F082200C3002100500868
:102EB0002200C40000302100CE004030CF0040305E
:102EC000D00022003F082100BE002200400821005F
:102ED000BF00220041082100C000AD319D25963180
:102EE00021003E08C1003F08C2004008C300220084
:102EF00034082100AE00220035082100AF00220076
:102F000036082100B000220042082100B100220052
:102F100043082100B200220044082100B3009E3182
:102F20009126963121002E08C4002F08C5003008D4
:102F3000C60090312020963121004108D10042087E
:102F4000D2004308D3009D313D25963121004E0823
:102F50002200C50021004F082200C60021005008B1
:102F60002200C7004508A0004608A1004708A200AB
:102F70009931D021963122002108AF002008AE00FF
:102F80000330B0000030B100AE31412696318230BE
:102F90002200BA002430BB002E083A0786002F0812
:102FA0003B3D8700403FC500413FC600423FC70050
:102FB00045082100B100220046082100B20022008D
:102FC00047082100B3000030AE00C830AF004230E7
:102FD000B0009E319126963121002E082200A000DB
:102FE00021002F082200A100210030082200A200A9
:102FF0009931D02122002108B5002008B400080032
:103000002100A001A1010800FF302000CB00210019
:10301000A2002208FD001628673013283330132839
:103020001F301328193023009B0039282100210864
:10303000253A031925286E3A03192A28313A03192B
:103040002F28EC3A0319342839282008803A03192C
:103050000C2839282008003A03190E28392820089E
:10306000123A0319102839282008003A03191228A7
:10307000392823001E139E161E121E159D171D13A0
:103080001D169D11210091160B178B1708002000AB
:10309000A901A31F5828A009A109A209A309A00AF0
:1030A0000319A10A0319A20A0319A30AA901A90A6B
:1030B000A71F6928A409A509A609A709A40A031935
:1030C000A50A0319A60A0319A70A0130FC007C0807
:1030D000A9060030AD000030AC000030AB0000307D
:1030E000AA0023082204210420040319B228A801FD
:1030F000A80AA31B87280130A035A10DA20DA30D9E
:10310000890B7C280130FC007C08A8077928013055
:10311000AA35AB0DAC0DAD0D890B8828230827020D
:10312000031D9C2822082602031D9C282108250235
:10313000031D9C2820082402031CA7282008A402A1
:103140002108A53B2208A63B2308A73B2A140130EF
:10315000A336A20CA10CA00C890BA8280130A80250
:10316000031D872829080319C028AA09AB09AC093F
:10317000AD09AA0A0319AB0A0319AC0A0319AD0A6F
:103180002D08A3002C08A2002B08A1002A08A000EB
:1031900008002100AA01A31FDA28A009A109A20999
:1031A000A309A00A0319A10A0319A20A0319A30A71
:1031B000AA01AA0AA71FEB28A409A509A609A7091D
:1031C000A40A0319A50A0319A60A0319A70A0130BC
:1031D000A8002808AA060030AE000030AD0000307C
:1031E000AC000030AB0023082204210420040319A2
:1031F0003429A901A90AA31B09290130A035A10D71
:10320000A20DA30D890BFE280130A8002808A907EC
:10321000FB280130AB35AC0DAD0DAE0D890B0A2985
:1032200023082702031D1E2922082602031D1E292A
:1032300021082502031D1E2920082402031C292918
:103240002008A4022108A53B2208A63B2308A73B8F
:103250002B140130A336A20CA10CA00C890B2A2937
:103260000130A902031D09292A0803194229AB09C3
:10327000AC09AD09AE09AB0A0319AC0A0319AD0AD2
:103280000319AE0A2E08A3002D08A2002C08A100E5
:103290002B08A00008002200690868046704031DC9
:1032A00057290030E7008030E8003F30E900C030A7
:1032B0002100CE007F30CF004430D00022006708CC
:1032C0002100D100220068082100D20022006908F4
:1032D0002100D3009D313D25993121004E08230066
:1032E000E90021004F082300EA00210050082300D4
:1032F000EB0056302200D8008E30D900BF30DA0003
:10330000230069082200D50023006A082200D600A5
:1033100023006B082200D700913116219931220039
:1033200055082300EC00220056082300ED0022007F
:1033300057082300EE009F302100AE006830AF0038
:103340004030B00023006C082100B10023006D085C
:103350002100B20023006E082100B3009E319126A7
:10336000993121002E082300E60021002F082300B8
:10337000E700210030082300E80066082200A000D2
:10338000230067082200A100230068082200A20091
:103390009931D02122002108E8002008E700080028
:1033A00022002008A4002108A5002208A60003107E
:1033B000250D260DA7002708AD002D08031DE929BE
:1033C0000030A3000030A2000030A1000030A000B7
:1033D00008002008A4002108A5002208A600173034
:1033E000A636A50CA40C890BF0292408A7002708F1
:1033F000A800A117FF30A005FF30A1050030A205ED
:103400002008A9002108AA002208AB00AC018E30D8
:10341000AD02AD1F272A2D08803A8F3E0318192AC6
:103420000030A3000030A2000030A1000030A00056
:1034300008000130AC36AB0CAA0CA90C890B1A2A77
:103440000130A4002408AD070319402A192A1830B6
:103450002D02031C3D2A0030A3000030A2000030E2
:10346000A1000030A00008000130A935AA0DAB0D65
:10347000AC0D890B352A0130AD022D08031D342A0D
:10348000280803194E2AA909AA09AB09AC09A90AF7
:103490000319AA0A0319AB0A0319AC0A2C08A300E2
:1034A0002B08A2002A08A1002908A000080021007A
:1034B0006408C1006508C2006608C3006108BE0058
:1034C0006208BF006308C000AD319D259A3121001C
:1034D0003E08C4003F08C5004008C60090312020C7
:1034E0009A3121004108CE004208CF004308D000A5
:1034F0006A08C1006B08C2006C08C3006708BE0000
:103500006808BF006908C000AD319D259A312100CF
:103510003E08C4003F08C5004008C6009031202086
:103520009A3121004108AE004208AF004308B000C4
:103530005E08C1005F08C2006008C3006108BE00E9
:103540006208BF006308C000AD319D259A3121009B
:103550003E08C4003F08C5004008C6009031202046
:103560009A3121004108B1004208B2004308B3007B
:103570009E3191269A3121002E08D1002F08D200C9
:103580003008D3009D313D259A3121004E08ED00D1
:103590004F08EE005008EF006708C1006808C2003D
:1035A0006908C3006D08C4006E08C5006F08C60036
:1035B0009031202021004108DE004208DF0043084E
:1035C000E00008002300C001AF31D0279A3121006C
:1035D00021082200BB00210020082200BA002000A0
:1035E00058082200B100200057082200B000200037
:1035F00056082200AF00200055082200AE00A3317B
:10360000FA239A3122002E082100D10022002F082F
:103610002100D200220030082100D30022003B0804
:103620002100A90022003A082100A800A0310020B2
:103630009A3121002808CE002908CF002A08D0009E
:103640009D313D259A3121004E082200A000210025
:103650004F082200A100210050082200A200993149
:10366000D0219A31220021082300DB00220020080B
:103670002300DA005B082200AF0023005A08220072
:10368000AE003B08B1003A08B000AE3141269A3195
:1036900022002E08B6002F08B7000030B71BFF30FD
:1036A000B800B9002000580822003906031D682B15
:1036B0002000570822003806031D682B20005608FA
:1036C00022003706031D682B20005508220036060D
:1036D000031908002300C001C00A0800220069087D
:1036E00068046704031D792BFF30E7000030E80011
:1036F0000800C03067067F3003196806443003199C
:103700006906031D862BE701E8010800C03021008F
:10371000CE007F30CF004430D00022006708210067
:10372000D100220068082100D2002200690821008F
:10373000D3009D313D259B3121004E082300E90037
:1037400021004F082300EA00210050082300EB006D
:103750006A302200D8009C30D900BF30DA00230044
:1037600069082200D50023006A082200D600230041
:103770006B082200D700913116219B312200550899
:103780002300EC00220056082300ED002200570819
:103790002300EE00E3302100AE000B30AF004130DB
:1037A000B00023006C082100B10023006D08210047
:1037B000B20023006E082100B3009E3191269B3198
:1037C00021002E082300E60021002F082300E70037
:1037D000210030082300E80066082200A000230032
:1037E00067082200A100230068082200A200993186
:1037F000D02122002108E8002008E700080022006C
:1038000040083F043E04031D0C2C0030BE00003075
:10381000BF000030C000080040087F39C300C40169
:10382000C335C40D4308C1074408C23D3F0D3F0DD9
:103830000139C300C4014308C1074408C23DC21F87
:103840002E2C22302400CD000030CE00003022008B
:10385000BE000030BF000030C00008004208803ABF
:10386000C30081304302031D372C00304102031C8A
:103870007E2C22302400CD000030CE0022003E08F5
:103880002100A00022003F082100A10022004008E2
:103890002100A2000030A3000030A4000030A500E9
:1038A000A13167219B310318762CFF302200C5001F
:1038B0007F30C6007F30C70045082100BE002200CF
:1038C00046082100BF00220047082100C000AD319A
:1038D0009D2521003E082200BE0021003F08220055
:1038E000BF00210040082200C0000800FF30220075
:1038F000BE007F30BF007F30C000080022004208B9
:10390000C4004108C300440DC40CC30C4008430666
:1039100080394306C00041080139C300C30CC30C01
:103920003F0843067F394306BF00080022003608DF
:103930002100A000220037082100A1002200380841
:103940002100A2003D302200B90039082100A30067
:10395000A2311E229C312200BE1FD42C3608210029
:10396000A000220037082100A10022003808210011
:10397000A2000030A3000030A4000030A500A13157
:1039800067219C310318CC2C00302200B600803017
:10399000B700BF30B800080000302200B600003089
:1039A000B7000030B800080000303E02153003199F
:1039B0003D02031808003608A0003708A1003808A7
:1039C000A2009931D0219C3122002308B1002208A5
:1039D000B0002108AF002008AE00A331FA239C31CB
:1039E00022002E08BA002F08BB003008BC003608A1
:1039F0002100A000220037082100A1002200380881
:103A00002100A20022003A082100A30022003B0866
:103A10002100A40022003C082100A500A13167215B
:103A20009C310318352D00302100C1008030C200C8
:103A3000BF30C30022003A082100C40022003B0826
:103A40002100C50022003C082100C6009031202042
:103A5000210041082200B600210042082200B700E0
:103A6000210043082200B800080022003A08B600EE
:103A70003B08B7003C08B800080021005108D400FA
:103A80005208D5005308D6000310550D560DD70027
:103A90005708DC005C08031D542D0030CE000030B8
:103AA000CF000030D00008004E08D4004F08D500E9
:103AB0005008D6000310550D560DD7005708DD00ED
:103AC0005D08031D6A2D0030CE000030CF000030AD
:103AD000D00008000030D9000030DA000030DB00F0
:103AE00089305D07D4005408DC025108D400520824
:103AF000D5005308D6001030D636D50CD40C890B1F
:103B00007C2D5408D7005708DD004E08D4004F081C
:103B1000D5005008D6001030D636D50CD40C890B01
:103B20008C2D5408D7005708DD068030D400540887
:103B3000DD05D217FF30D105FF30D2050030D305A7
:103B4000CF17FF30CE05FF30CF050030D00518303D
:103B5000D4005408D8000130D935DA0DDB0D890BBB
:103B6000AC2D50085302031DBB2D4F085202031DFC
:103B7000BB2D4E085102031CC42D4E08D1024F0824
:103B8000D23B5008D33B59140130D135D20DD30D5F
:103B9000890BC52D0130D802031DAB2D5908A0009B
:103BA0005A08A1005B08A2005C08D4005408A300D6
:103BB0005D08D5005508A400A63132262100200852
:103BC000CE002108CF002208D0000800220069089A
:103BD00068046704031DEF2DE701E8010800C03009
:103BE00067067F3003196806443003196906031D10
:103BF000FE2DFF30E7000030E80008000030210013
:103C0000C1008030C2003F30C3002200670821009D
:103C1000D100220068082100D2002200690821009A
:103C2000D300C030CE007F30CF004430D0009D3173
:103C30003D259D3121004E08BE004F08BF005008B1
:103C4000C000AD319D259D3121003E08C4003F08D4
:103C5000C5004008C600903120209D312100410858
:103C60002300E900210042082300EA002100430864
:103C70002300EB006A302200D8009C30D900BF300E
:103C8000DA00230069082200D50023006A08220018
:103C9000D60023006B082200D700913116219D31F8
:103CA000220055082300EC00220056082300ED00F6
:103CB000220057082300EE00E3302100AE000B3055
:103CC000AF004130B00023006C082100B100230098
:103CD0006D082100B20023006E082100B3009E3160
:103CE00091269D3121002E082300E60021002F0897
:103CF0002300E700210030082300E80066082200C6
:103D0000A000230067082200A10023006808220009
:103D1000A2009931D02122002108E8002008E70004
:103D2000080021002E08B4002F08B5003008B600A6
:103D30000310350D360DB7003708B8003808031DDD
:103D4000A82E0030AE000030AF000030B0000800F8
:103D50003108B4003208B5003308B6000310350D41
:103D6000360DB7003708BD003D08031DBE2E0030DC
:103D7000AE000030AF000030B00008003D087B3ED0
:103D8000B4003408B8072E08B4002F08B500300876
:103D9000B6001030B636B50CB40C890BCA2E3408F8
:103DA000B7003708BD003108B4003208B500330849
:103DB000B6001030B636B50CB40C890BDA2E3408C8
:103DC000B7003708BD068030B4003408BD05AF1712
:103DD000B217FF30B105FF30B2050030B305003037
:103DE000B9000030BA000030BB000730B40034081E
:103DF000BC002E1C012F3108B9073208BA3D330828
:103E0000BB3D0130B036AF0CAE0C890B022F013038
:103E1000B135B20DB30D890B082F0130BC02031D63
:103E2000F92E0930B4003408BC002E1C1D2F3108B7
:103E3000B9073208BA3D3308BB3D0130B036AF0C8C
:103E4000AE0C890B1E2F0130BB36BA0CB90C890B96
:103E5000242F0130BC02031D152F3908A0003A0899
:103E6000A1003B08A2003808B4003408A3003D08B4
:103E7000B5003508A400A631322621002008AE0086
:103E80002108AF002208B00008002300C001220072
:103E90004008CA003F08C9000030C6008030C70093
:103EA0003F30C8006E2F0030C6000030C7004030E1
:103EB0006C2FA630C6002A30602F0030C6000030BC
:103EC000C7003F306C2FA630C600AA306A2F0030E2
:103ED000C6008030C7003E30C800872F4208003A35
:103EE0000319732F872F4108013A0319532F033AFF
:103EF0000319592F013A03195D2F073A0319632F4C
:103F0000013A0319672F033A0319872F872F4A08AD
:103F10002100A900220049082100A800A0310020AA
:103F20009F3121002808B1002908B2002A08B300F7
:103F3000220046082100AE00220047082100AF0001
:103F4000220048082100B0009E3191269F312100B7
:103F50002E082200A00021002F082200A10021002D
:103F600030082200A2009931D0219F31220021087F
:103F7000CA002008C9004A082100A90022004908F7
:103F80002100A800A03100209F3121002808220034
:103F9000B600210029082200B70021002A082200CB
:103FA000B800A33168239F3122003608C3003708C8
:103FB000C4003808C5004A082100A90022004908A9
:103FC0002100A800A03100209F3121002A082200F2
:103FD0004506031DF52F2100290822004406031D74
:103FE000F52F21002808220043060319FA2F230089
:103FF000C001C00A22004A08C0004908BF000800EA
:104000002100AD01A91F0B28A809A909A80A0319B5
:10401000A90AAD01AD0A2808A0002908A100A20143
:104020008E30AB002B08A3002D08AC002C08A40098
:10403000A631322621002008A8002108A900220864
:10404000AA00080000302100AB000030AA000030B8
:10405000A9000030A800201C35282408A80725083E
:10406000A93D2608AA3D2708AB3D0130A435A50D82
:10407000A60DA70D890B36280130A336A20CA10C82
:10408000A00C890B3D282308220421042004031DD1
:104090002B282B08A3002A08A2002908A100280821
:1040A000A000080000302100B1000030B000003056
:1040B000AF000030AE002C08A0002D08A100A20126
:1040C000A3010030A7000030A6000330A500E830AF
:1040D000A400A0312220A03121002308B100220831
:1040E000B0002108AF002008AE00310830042F04D2
:1040F0002E0403190800FF30AE07FF30AF3DFF303C
:10410000B03DFF30B13D752821003208B4003408BD
:104110002000E5002100320C2700031C0D110318BC
:104120000D15210032083304031D992827008D1432
:104130009B2827008D1014302100AC000030AD000A
:10414000A0315220A03127000D118D1020006508EC
:104150002100B400B5013408A0003508A100873162
:10416000FF27A03114302100AC000030AD00A03199
:104170005220080020000E18EE2801302400C90744
:104180000030CA3D4A08803A2100A700803027024B
:10419000031DCD281A3024004902031C08001930E1
:1041A0002400C9000030CA0020005103031DDD288F
:1041B000D101AE312726A031E72801302100A70028
:1041C00027082000D007033050020318D001AE3179
:1041D000D226A03120000E180800EA282400C901C8
:1041E000CA0108002100A6000630260203180E2985
:1041F0002608A400A5012408A0002508A10001307C
:10420000A2000030A300A5318525A0310630210091
:10421000A0000030A100A1312C21080006302100AF
:10422000A0000030A1000130A2000030A300A531A1
:104230008525A03121002608A400A501A409A5090F
:10424000A40A0319A50A24080B3EA0000030253D4E
:10425000A100A1312C21080022000F108F100F1196
:104260008F110F12492922000F14080022008F1409
:10427000080022000F15080022008F1508002200F8
:104280000F16080022000F148F140F158F150F162C
:10429000080021002108003A03194F296629200847
:1042A000013A03193329033A03193629013A03194C
:1042B0003929073A03193C29013A03193F29033ADE
:1042C00003196629623A0319422966290800210068
:1042D000A21F7E292009A6002109A7002209A80003
:1042E000A60A0319A70A0319A80A00302607A00086
:1042F0000030273DA1008030283DA200A51F942951
:104300002309A6002409A7002509A800A60A031965
:10431000A70A0319A80A00302607A3000030273D8A
:10432000A4008030283DA5008030A2068030A5067C
:1043300025082202031D080024082102031D08008D
:1043400023082002080022004808B4004908B500EC
:104350004A08B6004B08B7004C08B8004D08B90031
:1043600096315426A13122003508CF003408CE0002
:104370004B082100A00022004C082100A1002200CF
:104380004D082100A200220048082100A3002200BD
:1043900049082100A40022004A082100A500A131FB
:1043A0006721A1310318DA299C302200C800FF30B0
:1043B000C900080064302200C8000030C9000800AD
:1043C00020004C082100BA00BB0139083B06031D40
:1043D000EB2938083A06031908003808BA003A08E9
:1043E0002000CC00210038033904031DFA292200E3
:1043F0000D128D1220004C03031D162A5108031DB7
:104400000B2AD101D10A22008D1020006408A031AE
:10441000F220A131162A2000D101AE31D226A131DD
:10442000AE312726A131AD31FB25A1311430210059
:10443000AC000030AD00A03152200800210022085D
:1044400021042004031D322A23088600013087003E
:104450000030C03FC13F0030A0000030A10000305C
:10446000A200080022087F39A400A501A435A50DEB
:1044700023088600013087002408C03F2508C13F7B
:10448000210D210D0139A400A5012308860001306A
:10449000870024088104413125088104230886000F
:1044A00001308700823081074131FF30813D7F310B
:1044B000220880393F38A200A11308001E302100D5
:1044C000B2003208B4006430A0000030A100013016
:1044D000A2000030A300A5318525A231643021005F
:1044E000A0000030A100A1312C21A231210034080C
:1044F000B200B3013208AC003308AD00A031522045
:10450000A23100302100A000A1000130A200003043
:10451000A300A5318525A23100302100A000A10013
:10452000A1312C21A23121003408B200B30132089C
:10453000AC003308AD00A03152200800003020004C
:10454000A3000030A2000330A100E830A0000C302E
:10455000B600F230B7000130B8000030B9003508BD
:10456000F3003408F2003308F1003208F00031089B
:10457000F7003008F6002F08F5002E08F400883107
:104580000020A23170082000B6077108B73D7208FC
:10459000B83D7308B93D3908A7003808A6003708A8
:1045A000A5003608A4009831472020002308B10058
:1045B0002208B0002108AF002008AE000800220049
:1045C0001D1021000E118E1026000D108D110D12E0
:1045D0002100101390121012901110110F302500AD
:1045E00093040F309A040F30260093040F309A047E
:1045F0000F309E040F302C0093040F3096040F30C0
:1046000099040F309C040F309F0425009D019E01EA
:104610009F010030920032309100003099006430E8
:1046200098000030260092009630910000309900EA
:10463000C8309800AD319425A231AD318D250800E8
:1046400027000C108C100C118C110C124B2B720CBF
:10465000031C0C1003180C140800720C031C8C10A3
:1046600003188C140800720C031C0C1103180C1591
:104670000800720C031C8C1103188C150800720CB6
:10468000031C0C1203180C1608000C148C140C15C7
:104690008C150C1608007108003A0319502B672B73
:1046A0007008013A0319272B033A03192D2B013AFD
:1046B0000319332B073A0319392B013A03193F2BFE
:1046C000033A0319672B623A0319452B672B08003D
:1046D000220036082100A000220037082100A10096
:1046E000220038082100A2003D302200B90039081C
:1046F0002100A300A2311E22A3312200BE1F872B5E
:104700000030B6000030B7000030B80008000030BC
:104710003E02153003193D02031808003608A000B8
:104720003708A1003808A2009931D021A331220016
:104730002308B1002208B0002108AF002008AE0015
:10474000A331FA2322002E08BA002F08BB0030083C
:10475000BC003A08B6003B08B7003C08B8000800A7
:1047600020000F1BBA2B22006A080319C52B013049
:10477000EA02C52B193022006A020318C52B01304A
:104780002100B20032082200EA076A08031D08006F
:1047900020005908013ED90000305A3DDA005A087D
:1047A000803A2100B20080303202031DDA2B06303D
:1047B00020005902031CE12B01302000D9000030F9
:1047C000DA002300C601C60A20005A082100A10011
:1047D000200059082100A000A1312C21A331200084
:1047E0000F1FEF2B14302100AC000030AD00A031C2
:1047F000522008002200B5018E30B2003208B40009
:10480000B11F0F2CAE09AF09B009B109AE0A0319E7
:10481000AF0A0319B00A0319B10AB501B50AFF308E
:10482000310503191F2C0130B136B00CAF0CAE0CA2
:10483000890B142C0130B2003208B4070F2C2E085B
:104840002100A00022002F082100A1002200300832
:104850002100A20022003408B20032082100A30087
:1048600022003508B30033082100A400A631322607
:10487000210020082200AE00210021082200AF0004
:10488000210022082200B000080020008F1A4F2CBF
:1048900022006B0803195A2C0130EB025A2C1930F4
:1048A00022006B0203185A2C01302100B20032089A
:1048B0002200EB076B08031D080020005D08013E85
:1048C000DD0000305E3DDE005E08803A2100B2006F
:1048D00080303202031D6F2C073020005D02031C64
:1048E000762C01302000DD000030DE0020005E0864
:1048F0002100A10020005D082100A0000130A200DD
:104900000030A300A5318525A4312000E201E20A90
:104910008F1E882C14302100AC000030AD00A03177
:104920005220080001302100B3000030B4003408E8
:10493000803AB20080303202031DA02C07303302CF
:104940000318C62C21003408A1003308A000013050
:10495000A2000030A300A5318525A4310530210037
:10496000AC000030AD00A0315220A4310130210054
:10497000B3070030B43D3408803AB20080303202D0
:10498000031DC42C07303302031CA22C0530210068
:10499000B5000030B600B61B08003608A100350887
:1049A000A000A1312C21A43105302100AC00003041
:1049B000AD00A0315220A431FF302100B507FF30F7
:1049C000B63DCB2CF601F11FEC2CF009F109F00AF1
:1049D0000319F10AF601F60AF31FF72CF209F3099D
:1049E000F20A0319F30A0130F4007408F606F7011D
:1049F000F801700871040319262DF501F50AF11B61
:104A00000B2D0130F035F10D890B022D0130F40032
:104A10007408F507FF2C0130F735F80D890B0C2DC4
:104A200071087302031D162D70087202031C1D2DE0
:104A30007008F2027108F33B77140130F136F00C84
:104A4000890B1E2D0130F502031D0B2D760803196D
:104A50002E2DF709F809F70A0319F80A7808F1006A
:104A60007708F00008002100A601A11F3E2DA00933
:104A7000A109A00A0319A10AA601A60AA31F492D8C
:104A8000A209A309A20A0319A30A0130A400240859
:104A9000A606A701A801200821040319782DA50165
:104AA000A50AA11B5D2D0130A035A10D890B542D48
:104AB0000130A4002408A507512D0130A735A80D09
:104AC000890B5E2D21082302031D682D2008220278
:104AD000031C6F2D2008A2022108A33B27140130DC
:104AE000A136A00C890B702D0130A502031D5D2D90
:104AF00026080319802DA709A809A70A0319A80ADF
:104B00002808A1002708A000080027000C108C101E
:104B10000C118C110C12BB2D2100220C2700031C40
:104B20000C1003180C1408002100220C2700031C91
:104B30008C1003188C1408002100220C2700031C81
:104B40000C1103180C1508002100220C2700031C6F
:104B50008C1103188C1508002100220C2700031C5F
:104B60000C1203180C16080027000C148C140C15DA
:104B70008C150C16080021002108003A0319C12DDC
:104B8000D82D2008013A03198C2D033A0319942DCE
:104B9000013A03199C2D073A0319A42D013A031970
:104BA000AC2D033A0319D82D623A0319B42DD82D30
:104BB000080020005008031DE02D5103031D0800CC
:104BC0008F1B2E2E01302400C7070030C83D480837
:104BD000803A2100A70080302702031DF22D1A30F1
:104BE00024004702031C080019302400C7000030CD
:104BF000C80020005008230064060319032E20007B
:104C00005103031D142E01302100A70027082000A6
:104C1000E4070B306402031C0F2EE401E40A64086D
:104C2000A031F220A5312A2E20005008230063066F
:104C3000031D2A2E01302100A70027082000E007CD
:104C400006306002031C262EE001E00A6008AE3147
:104C50000F26A53120008F1B08002A2E2400C70133
:104C6000C80108002100230803193B2E2208210453
:104C70002004031D4C2E0030A0000030A1000030A5
:104C8000A20008000130A5002508A3070130A236C4
:104C9000A10CA00C890B472EFE3022050319652EAE
:104CA000422E0130A5002508A3070130A0070030DF
:104CB00003180130A107003003180130A2070130AA
:104CC000A236A10CA00C890B602EFF30220503191F
:104CD000722E512E0130A3020130A035A10DA20D7C
:104CE000890B6D2EA11B782E0230230203186A2E29
:104CF0002318802EFF30A0057F30A105FF30A205CC
:104D00000310A30C2308A500A601A7011030A535A8
:104D1000A60DA70D890B872E2508A0042608A1043F
:104D20002708A204240803190800A217080022007B
:104D30003A08AF003908AE000330B0000030B100CF
:104D4000AE314126A631220037082E0784003808EC
:104D50002F3D8500003FBB00013FBC00023FBD006E
:104D600039083A040319022FFF30B907FF30BA3D62
:104D70003A08AF003908AE000330B0000030B1008F
:104D8000AE314126A631220037082E0784003808AC
:104D90002F3D8500003F2100C100013FC200023FBE
:104DA000C30022003B082100AE0022003C08210085
:104DB000AF0022003D082100B0002200340821008D
:104DC000B100220035082100B2002200360821007F
:104DD000B3009E319126A63121002E08C4002F0871
:104DE000C5003008C60090312020A63121004108BE
:104DF0002200BB00210042082200BC002100430821
:104E00002200AF2E3B08B4003C08B5003D08B600B8
:104E1000080081302100A0001F30A1009031002047
:104E2000A731210021082000DE00210020082000F9
:104E3000DD0082302100A0001F30A1009031002051
:104E4000A731210021082000DA00210020082000DD
:104E5000D9005E08803A2100A40080302402031D9E
:104E6000342F073020005D02031C3B2F063020004A
:104E7000DD000030DE0020005A08803A2100A40046
:104E800080302402031D472F063020005902031CE6
:104E90004E2F01302000D9000030DA0020006508D4
:104EA000031D552F27008D14572F27008D1020002C
:104EB000650C2700031C0D1103180D1522000D11A0
:104EC0008D110D128D128D100D1020005E08210025
:104ED000A10020005D082100A0000130A2000030E8
:104EE000A300A5318525A73120005A082100A10083
:104EF000200059082100A000A1312C210800220027
:104F0000DA0178305A020318080000302100CE0080
:104F10003430CF004330D0001030AE004930AF0005
:104F20004030B00022005A08D300D4015308AE002C
:104F30005408AF000330B0000030B100AE3141265C
:104F4000A73122002F082100A90022002E082100ED
:104F5000A800A0310020A73121002808B1002908AD
:104F6000B2002A08B3009E319126A73121002E08F5
:104F7000D1002F08D2003008D3009D313D25A73144
:104F800021004E082200D70021004F082200D8003F
:104F9000210050082200D9005708C5005808C60053
:104FA0005908C70088312F20A73122004508D700B3
:104FB0004608D8004708D9005A08D300D40153083E
:104FC000AE005408AF000330B0000030B100AE3185
:104FD0004126A73182302200D5002430D6002E0889
:104FE000550786002F08563D87005708C03F5808D0
:104FF000C13F5908C23F0130D3005308DA07812F5F
:10500000003480343F34723431343F34FE347534EC
:105010003E34583463343D3495341D343C34C53407
:10502000AE343A34793421343934943480343734DA
:105030009334A734353456341534343400340034C2
:105040000034003480343F34F034FF34BE34E23472
:10505000A9343E3483347634BE34AE342B343E34FB
:105060003C34C334BD34D23413343D347834D33477
:10507000BB34F4344A34483495349534C734C1349D
:10508000DC344534DC346D34C334B334333440342D
:105090003434013448349D34B03445340034DA3487
:0850A0004234003480343F3437
:105B1200FC302100990508002100951295111510FD
:105B2200951415110800873020009C05FC309C0557
:105B3200FF309B001C150800210040083F043E0472
:105B4200031908008030C006080021009E171E08B5
:105B52008F3960389E00FC309E051D140800FE003F
:105B620012001E000130FE020030FF3B7F087E045F
:105B720003190034B12D6400800101310130FE02AD
:105B82000030FF3B7F087E0403190034BD2D98319D
:105B92000020AD3121002108BB002008BA003B08DB
:105BA200B7003A08B600AE315D260800D03407349B
:105BB2000034003401340034E83403340634003451
:105BC20014340134FF34013404340134FF3421002D
:105BD200A3002308A200A20DA20D1D0822068339EC
:105BE20022069D009D149D18F42D1C08A1001B087F
:105BF200A000080001302100B70037082000D300C0
:105C0200A4319224AD31A4319224AD31A2315E226D
:105C1200AD31A2315E222000D30108002100A6008E
:105C22002608A400A5012408A0002508A10001302F
:105C3200A2000030A300A5318525AE310630210037
:105C4200A0000030A100A1312C21080020005E0834
:105C52002100A10020005D082100A0000130A20067
:105C62000030A300A5318525AE3120005A0821005D
:105C7200A100200059082100A000A1312C21080018
:105C82002200B201B3012E1C4A2E3008B20731089D
:105C9200B33D0130B035B10D890B4B2E0130AF361B
:105CA200AE0C890B502E2E082F04031D442E3308F0
:105CB200AF003208AE000800200065082100B800DD
:105CC200B90137083906031D682E3608380603194C
:105CD2000800360C2200031C0D1103180D158D113E
:105CE20021003708B3003608B200A0318420080032
:105CF20022004508AE004608AF004708B000480839
:105D0200B1004908B2004A08B3009431AA24220023
:105D12002E09CB002F09CC00CB0A0319CC0A4B0861
:105D2200C5004C08C6000800D034073400340034E3
:105D320064340034D0340734D0340734D0340734D8
:105D4200D0340734D0340734D0340734B434003478
:105D5200013400340134FF34FF3402340134FF349F
:105D620020004E082100A200A30121082306031DE2
:105D7200BC2E20082206031908002008A2002208CF
:105D82002000CE002100200C2200031C8D110318DC
:105D92008D152100200C2000031C0E1203180E1674
:105DA2000800E92E22008D100D10AE3127260800C2
:105DB20022008D100D1420006408A031F22008008A
:105DC20022008D140D1020006008AE310F2608004D
:105DD20020005008003A0319D32E013A0319D92E94
:105DE200033A0319E12EF52E08002100A101A201B8
:105DF2002208803AA00080302002031D022F0C30BE
:105E020021020318080021002108A0000130A0355A
:105E1200FF3E031D082F2035A03E8600023087007A
:105E22000030C03F0030C13FC23FC33F0130A10735
:105E32000030A23DF92E8E302100AC002C08AD00BE
:105E4200FF302B050319312F0130AB36AA0CA90CF8
:105E5200A80C890B262F0130AC002C08AD07212F8E
:105E62002808A0002908A1002A08A2002D08AC00D9
:105E72002C08A300A401A631322621002008A80084
:105E82002108A9002208AA0008002000D81B5A2FC6
:105E92005808031D552F5708031D552F6030550212
:105EA2000930563B031C5A2F7830F0000030F100C5
:105EB2000800D81B6D2F5808031D682F5708031DB3
:105EC200682F583055020230563B031C6D2F3C3070
:105ED200F0000030F10008001E30F0000030F10048
:105EE20008002200410840043F0403197A2F803041
:105EF200C10642082100C100220043082100C2005D
:105F0200220044082100C30022003F082100C400EF
:105F1200220040082100C500220041082100C600DD
:105F220090312020210041082200BF0021004208B8
:105F32002200C000210043082200C1000800210005
:105F42000D108D100D118D110D128D120E140E12D9
:105F52008E120F108F100F118F110F128F160F1735
:105F62008F1710149014230010109010200010109E
:105F7200901026000C108C100C118C110C128C122B
:105F82000C1728000C1326008D100D11AD31A6251B
:105F9200AF31A231DF228B178B160B1108002000C4
:105FA200D81BE52F5808031DDF2F5708031DDF2FCD
:105FB200603055020930563B031CE52F7830210032
:105FC200A0000030A10008002000D81BFA2F5808BA
:105FD200031DF42F5708031DF42F583055020230C9
:105FE200563B031CFA2F3C302100A0000030A100D8
:0E5FF20008001E302100A0000030A1000800B1
:020000040001F9
:04000E00E2FFFFDF2F
:00000001FF
